{
  "contractName": "PlanterFund",
  "abi": [
    {
      "anonymous": false,
      "inputs": [
        {
          "indexed": false,
          "internalType": "uint256",
          "name": "amount",
          "type": "uint256"
        },
        {
          "indexed": false,
          "internalType": "address",
          "name": "account",
          "type": "address"
        }
      ],
      "name": "BalanceWithdrew",
      "type": "event"
    },
    {
      "anonymous": false,
      "inputs": [],
      "name": "MinWithdrawableAmountUpdated",
      "type": "event"
    },
    {
      "anonymous": false,
      "inputs": [
        {
          "indexed": false,
          "internalType": "uint256",
          "name": "amount",
          "type": "uint256"
        },
        {
          "indexed": false,
          "internalType": "address",
          "name": "account",
          "type": "address"
        },
        {
          "indexed": false,
          "internalType": "string",
          "name": "reason",
          "type": "string"
        }
      ],
      "name": "NoAmbsassadorBalanceWithdrew",
      "type": "event"
    },
    {
      "anonymous": false,
      "inputs": [
        {
          "indexed": false,
          "internalType": "uint256",
          "name": "treeId",
          "type": "uint256"
        },
        {
          "indexed": false,
          "internalType": "address",
          "name": "planter",
          "type": "address"
        },
        {
          "indexed": false,
          "internalType": "uint256",
          "name": "amount",
          "type": "uint256"
        },
        {
          "indexed": false,
          "internalType": "address",
          "name": "ambassador",
          "type": "address"
        }
      ],
      "name": "PlanterTotalClaimedUpdated",
      "type": "event"
    },
    {
      "anonymous": false,
      "inputs": [
        {
          "indexed": false,
          "internalType": "uint256",
          "name": "treeId",
          "type": "uint256"
        },
        {
          "indexed": false,
          "internalType": "uint256",
          "name": "planterAmount",
          "type": "uint256"
        },
        {
          "indexed": false,
          "internalType": "uint256",
          "name": "ambassadorAmount",
          "type": "uint256"
        }
      ],
      "name": "ProjectedEarningUpdated",
      "type": "event"
    },
    {
      "inputs": [],
      "name": "accessRestriction",
      "outputs": [
        {
          "internalType": "contract IAccessRestriction",
          "name": "",
          "type": "address"
        }
      ],
      "stateMutability": "view",
      "type": "function",
      "constant": true
    },
    {
      "inputs": [
        {
          "internalType": "address",
          "name": "",
          "type": "address"
        }
      ],
      "name": "balances",
      "outputs": [
        {
          "internalType": "uint256",
          "name": "",
          "type": "uint256"
        }
      ],
      "stateMutability": "view",
      "type": "function",
      "constant": true
    },
    {
      "inputs": [],
      "name": "daiToken",
      "outputs": [
        {
          "internalType": "contract IERC20Upgradeable",
          "name": "",
          "type": "address"
        }
      ],
      "stateMutability": "view",
      "type": "function",
      "constant": true
    },
    {
      "inputs": [],
      "name": "isPlanterFund",
      "outputs": [
        {
          "internalType": "bool",
          "name": "",
          "type": "bool"
        }
      ],
      "stateMutability": "view",
      "type": "function",
      "constant": true
    },
    {
      "inputs": [
        {
          "internalType": "address",
          "name": "forwarder",
          "type": "address"
        }
      ],
      "name": "isTrustedForwarder",
      "outputs": [
        {
          "internalType": "bool",
          "name": "",
          "type": "bool"
        }
      ],
      "stateMutability": "view",
      "type": "function",
      "constant": true
    },
    {
      "inputs": [],
      "name": "minWithdrawable",
      "outputs": [
        {
          "internalType": "uint256",
          "name": "",
          "type": "uint256"
        }
      ],
      "stateMutability": "view",
      "type": "function",
      "constant": true
    },
    {
      "inputs": [],
      "name": "outgoingAddress",
      "outputs": [
        {
          "internalType": "address",
          "name": "",
          "type": "address"
        }
      ],
      "stateMutability": "view",
      "type": "function",
      "constant": true
    },
    {
      "inputs": [],
      "name": "planterContract",
      "outputs": [
        {
          "internalType": "contract IPlanter",
          "name": "",
          "type": "address"
        }
      ],
      "stateMutability": "view",
      "type": "function",
      "constant": true
    },
    {
      "inputs": [],
      "name": "totalBalances",
      "outputs": [
        {
          "internalType": "uint256",
          "name": "planter",
          "type": "uint256"
        },
        {
          "internalType": "uint256",
          "name": "ambassador",
          "type": "uint256"
        },
        {
          "internalType": "uint256",
          "name": "noAmbsassador",
          "type": "uint256"
        }
      ],
      "stateMutability": "view",
      "type": "function",
      "constant": true
    },
    {
      "inputs": [
        {
          "internalType": "uint256",
          "name": "",
          "type": "uint256"
        }
      ],
      "name": "treeToAmbassadorProjectedEarning",
      "outputs": [
        {
          "internalType": "uint256",
          "name": "",
          "type": "uint256"
        }
      ],
      "stateMutability": "view",
      "type": "function",
      "constant": true
    },
    {
      "inputs": [
        {
          "internalType": "uint256",
          "name": "",
          "type": "uint256"
        }
      ],
      "name": "treeToPlanterProjectedEarning",
      "outputs": [
        {
          "internalType": "uint256",
          "name": "",
          "type": "uint256"
        }
      ],
      "stateMutability": "view",
      "type": "function",
      "constant": true
    },
    {
      "inputs": [
        {
          "internalType": "uint256",
          "name": "",
          "type": "uint256"
        }
      ],
      "name": "treeToPlanterTotalClaimed",
      "outputs": [
        {
          "internalType": "uint256",
          "name": "",
          "type": "uint256"
        }
      ],
      "stateMutability": "view",
      "type": "function",
      "constant": true
    },
    {
      "inputs": [],
      "name": "trustedForwarder",
      "outputs": [
        {
          "internalType": "address",
          "name": "",
          "type": "address"
        }
      ],
      "stateMutability": "view",
      "type": "function",
      "constant": true
    },
    {
      "inputs": [],
      "name": "versionRecipient",
      "outputs": [
        {
          "internalType": "string",
          "name": "",
          "type": "string"
        }
      ],
      "stateMutability": "pure",
      "type": "function",
      "constant": true
    },
    {
      "inputs": [
        {
          "internalType": "address",
          "name": "_accessRestrictionAddress",
          "type": "address"
        }
      ],
      "name": "initialize",
      "outputs": [],
      "stateMutability": "nonpayable",
      "type": "function"
    },
    {
      "inputs": [
        {
          "internalType": "address",
          "name": "_address",
          "type": "address"
        }
      ],
      "name": "setTrustedForwarder",
      "outputs": [],
      "stateMutability": "nonpayable",
      "type": "function"
    },
    {
      "inputs": [
        {
          "internalType": "address",
          "name": "_address",
          "type": "address"
        }
      ],
      "name": "setPlanterContractAddress",
      "outputs": [],
      "stateMutability": "nonpayable",
      "type": "function"
    },
    {
      "inputs": [
        {
          "internalType": "address",
          "name": "_address",
          "type": "address"
        }
      ],
      "name": "setDaiTokenAddress",
      "outputs": [],
      "stateMutability": "nonpayable",
      "type": "function"
    },
    {
      "inputs": [
        {
          "internalType": "address payable",
          "name": "_address",
          "type": "address"
        }
      ],
      "name": "setOutgoingAddress",
      "outputs": [],
      "stateMutability": "nonpayable",
      "type": "function"
    },
    {
      "inputs": [
        {
          "internalType": "uint256",
          "name": "_amount",
          "type": "uint256"
        }
      ],
      "name": "updateWithdrawableAmount",
      "outputs": [],
      "stateMutability": "nonpayable",
      "type": "function"
    },
    {
      "inputs": [
        {
          "internalType": "uint256",
          "name": "_treeId",
          "type": "uint256"
        },
        {
          "internalType": "uint256",
          "name": "_planterAmount",
          "type": "uint256"
        },
        {
          "internalType": "uint256",
          "name": "_ambassadorAmount",
          "type": "uint256"
        }
      ],
      "name": "updateProjectedEarnings",
      "outputs": [],
      "stateMutability": "nonpayable",
      "type": "function"
    },
    {
      "inputs": [
        {
          "internalType": "uint256",
          "name": "_treeId",
          "type": "uint256"
        },
        {
          "internalType": "address",
          "name": "_planter",
          "type": "address"
        },
        {
          "internalType": "uint64",
          "name": "_treeStatus",
          "type": "uint64"
        }
      ],
      "name": "updatePlanterTotalClaimed",
      "outputs": [],
      "stateMutability": "nonpayable",
      "type": "function"
    },
    {
      "inputs": [
        {
          "internalType": "uint256",
          "name": "_amount",
          "type": "uint256"
        }
      ],
      "name": "withdrawBalance",
      "outputs": [],
      "stateMutability": "nonpayable",
      "type": "function"
    },
    {
      "inputs": [
        {
          "internalType": "uint256",
          "name": "_amount",
          "type": "uint256"
        },
        {
          "internalType": "string",
          "name": "_reason",
          "type": "string"
        }
      ],
      "name": "withdrawNoAmbsassadorBalance",
      "outputs": [],
      "stateMutability": "nonpayable",
      "type": "function"
    },
    {
      "inputs": [
        {
          "internalType": "address",
          "name": "_wallet",
          "type": "address"
        }
      ],
      "name": "withdrawContractBalance",
      "outputs": [],
      "stateMutability": "nonpayable",
      "type": "function"
    }
  ],
  "bytecode": "0x608060405234801561001057600080fd5b506120b8806100206000396000f3fe608060405234801561001057600080fd5b50600436106101a35760003560e01c806397795c66116100ee578063c4d66de811610097578063da74222811610071578063da7422281461046e578063da76d5cd14610481578063f1326b1514610494578063fa9ee503146104a757600080fd5b8063c4d66de81461041b578063c74146931461042e578063d6762c4a1461044e57600080fd5b8063b0b82469116100c8578063b0b82469146103d5578063be22f546146103e8578063c0ba4aff1461040857600080fd5b806397795c6614610382578063a69a2ad114610395578063b094a350146103c257600080fd5b8063486ff0cd116101505780637da0a8771161012a5780637da0a877146103295780638012b7431461034f578063871dfb101461036f57600080fd5b8063486ff0cd146102a0578063572b6c05146102df57806357fbb9df1461031457600080fd5b806330295d061161018157806330295d0614610229578063349904da14610249578063375b42701461028057600080fd5b806309c357c1146101a857806327e235e3146101f25780632ed1fc5c14610220575b600080fd5b6002546101c89073ffffffffffffffffffffffffffffffffffffffff1681565b60405173ffffffffffffffffffffffffffffffffffffffff90911681526020015b60405180910390f35b610212610200366004611ceb565b600c6020526000908152604090205481565b6040519081526020016101e9565b61021260015481565b610212610237366004611d7a565b60096020526000908152604090205481565b60005461027090760100000000000000000000000000000000000000000000900460ff1681565b60405190151581526020016101e9565b6004546101c89073ffffffffffffffffffffffffffffffffffffffff1681565b604080518082018252601d81527f322e322e302b747265656a65722e6972656c6179726563697069656e74000000602082015290516101e99190611ea3565b6102706102ed366004611ceb565b60005462010000900473ffffffffffffffffffffffffffffffffffffffff90811691161490565b610327610322366004611ceb565b6104ba565b005b6000546101c89062010000900473ffffffffffffffffffffffffffffffffffffffff1681565b61021261035d366004611d7a565b600a6020526000908152604090205481565b61032761037d366004611ceb565b610740565b610327610390366004611e77565b6108a9565b6006546007546008546103a792919083565b604080519384526020840192909252908201526060016101e9565b6103276103d0366004611dfb565b6109e2565b6103276103e3366004611d7a565b610d10565b6005546101c89073ffffffffffffffffffffffffffffffffffffffff1681565b610327610416366004611dac565b610e42565b610327610429366004611ceb565b6112c2565b61021261043c366004611d7a565b600b6020526000908152604090205481565b6003546101c89073ffffffffffffffffffffffffffffffffffffffff1681565b61032761047c366004611ceb565b6114f8565b61032761048f366004611d7a565b611667565b6103276104a2366004611ceb565b611992565b6103276104b5366004611ceb565b611afb565b60035473ffffffffffffffffffffffffffffffffffffffff16638413ec146104e0611c71565b6040517fffffffff0000000000000000000000000000000000000000000000000000000060e084901b16815273ffffffffffffffffffffffffffffffffffffffff909116600482015260240160006040518083038186803b15801561054457600080fd5b505afa158015610558573d6000803e3d6000fd5b50839250505073ffffffffffffffffffffffffffffffffffffffff81166105e0576040517f08c379a000000000000000000000000000000000000000000000000000000000815260206004820152600f60248201527f496e76616c69642061646472657373000000000000000000000000000000000060448201526064015b60405180910390fd5b6005546040517f70a0823100000000000000000000000000000000000000000000000000000000815230600482015260009173ffffffffffffffffffffffffffffffffffffffff169063a9059cbb90859083906370a082319060240160206040518083038186803b15801561065457600080fd5b505afa158015610668573d6000803e3d6000fd5b505050506040513d601f19601f8201168201806040525081019061068c9190611d93565b6040517fffffffff0000000000000000000000000000000000000000000000000000000060e085901b16815273ffffffffffffffffffffffffffffffffffffffff90921660048301526024820152604401602060405180830381600087803b1580156106f757600080fd5b505af115801561070b573d6000803e3d6000fd5b505050506040513d601f19601f8201168201806040525081019061072f9190611d0f565b90508061073b57600080fd5b505050565b60035473ffffffffffffffffffffffffffffffffffffffff16638413ec14610766611c71565b6040517fffffffff0000000000000000000000000000000000000000000000000000000060e084901b16815273ffffffffffffffffffffffffffffffffffffffff909116600482015260240160006040518083038186803b1580156107ca57600080fd5b505afa1580156107de573d6000803e3d6000fd5b50839250505073ffffffffffffffffffffffffffffffffffffffff8116610861576040517f08c379a000000000000000000000000000000000000000000000000000000000815260206004820152600f60248201527f496e76616c69642061646472657373000000000000000000000000000000000060448201526064016105d7565b50600280547fffffffffffffffffffffffff00000000000000000000000000000000000000001673ffffffffffffffffffffffffffffffffffffffff92909216919091179055565b60035473ffffffffffffffffffffffffffffffffffffffff1663ebe6a6f36108cf611c71565b6040517fffffffff0000000000000000000000000000000000000000000000000000000060e084901b16815273ffffffffffffffffffffffffffffffffffffffff909116600482015260240160006040518083038186803b15801561093357600080fd5b505afa158015610947573d6000803e3d6000fd5b5050506000848152600960209081526040808320869055600a90915281208390556006805485935090919061097d908490611f87565b909155505060078054829190600090610997908490611f87565b909155505060408051848152602081018490529081018290527f658f322f9229b30c6fc7cd495ff7eb9b3a93da7ea8140713ed7d2532fbdf4ab29060600160405180910390a1505050565b60035473ffffffffffffffffffffffffffffffffffffffff16638413ec14610a08611c71565b6040517fffffffff0000000000000000000000000000000000000000000000000000000060e084901b16815273ffffffffffffffffffffffffffffffffffffffff909116600482015260240160006040518083038186803b158015610a6c57600080fd5b505afa158015610a80573d6000803e3d6000fd5b505060025473ffffffffffffffffffffffffffffffffffffffff1691505080610b05576040517f08c379a000000000000000000000000000000000000000000000000000000000815260206004820152600f60248201527f496e76616c69642061646472657373000000000000000000000000000000000060448201526064016105d7565b6008548411801590610b175750600084115b610b7d576040517f08c379a000000000000000000000000000000000000000000000000000000000815260206004820152600e60248201527f496e76616c696420616d6f756e7400000000000000000000000000000000000060448201526064016105d7565b8360066002016000828254610b929190612017565b90915550506005546002546040517fa9059cbb00000000000000000000000000000000000000000000000000000000815273ffffffffffffffffffffffffffffffffffffffff918216600482015260248101879052600092919091169063a9059cbb90604401602060405180830381600087803b158015610c1257600080fd5b505af1158015610c26573d6000803e3d6000fd5b505050506040513d601f19601f82011682018060405250810190610c4a9190611d0f565b905080610cb3576040517f08c379a000000000000000000000000000000000000000000000000000000000815260206004820152601560248201527f556e7375636365737366756c207472616e73666572000000000000000000000060448201526064016105d7565b6002546040517fc836b619304bd802852d8dba82adc6d0bd480a4625c0b1cc6ffcbb17c54fd6a791610d0191889173ffffffffffffffffffffffffffffffffffffffff169088908890611f16565b60405180910390a15050505050565b600360009054906101000a900473ffffffffffffffffffffffffffffffffffffffff1673ffffffffffffffffffffffffffffffffffffffff16634d868f986040518163ffffffff1660e01b815260040160006040518083038186803b158015610d7857600080fd5b505afa158015610d8c573d6000803e3d6000fd5b50506003546040517fc4d2a31b00000000000000000000000000000000000000000000000000000000815233600482015273ffffffffffffffffffffffffffffffffffffffff909116925063c4d2a31b915060240160006040518083038186803b158015610df957600080fd5b505afa158015610e0d573d6000803e3d6000fd5b5050506001829055506040517ff8f4f8c515453c5c52d96c54033bb4de62e70142014b6b6888eee0d3ce02849990600090a150565b60035473ffffffffffffffffffffffffffffffffffffffff1663ebe6a6f3610e68611c71565b6040517fffffffff0000000000000000000000000000000000000000000000000000000060e084901b16815273ffffffffffffffffffffffffffffffffffffffff909116600482015260240160006040518083038186803b158015610ecc57600080fd5b505afa158015610ee0573d6000803e3d6000fd5b50505060008481526009602052604090205415159050610f5c576040517f08c379a000000000000000000000000000000000000000000000000000000000815260206004820152601660248201527f50726f6a6563746564206561726e696e67207a65726f0000000000000000000060448201526064016105d7565b600480546040517fc670d5c600000000000000000000000000000000000000000000000000000000815273ffffffffffffffffffffffffffffffffffffffff858116938201939093526000928392839283929091169063c670d5c69060240160806040518083038186803b158015610fd357600080fd5b505afa158015610fe7573d6000803e3d6000fd5b505050506040513d601f19601f8201168201806040525081019061100b9190611d2a565b935093509350935083156112b95760006165408667ffffffffffffffff16111561105b576000888152600b60209081526040808320546009909252909120546110549190612017565b90506110a6565b6000888152600b60209081526040808320546009909252909120546165409061108f9067ffffffffffffffff8a1690611fda565b6110999190611f9f565b6110a39190612017565b90505b80156112b757600088815260096020908152604080832054600a9092528220546110d1908490611fda565b6110db9190611f9f565b905080600660010160008282546110f29190612017565b909155505073ffffffffffffffffffffffffffffffffffffffff84166111325780600660020160008282546111279190611f87565b9091555061116d9050565b73ffffffffffffffffffffffffffffffffffffffff84166000908152600c602052604081208054839290611167908490611f87565b90915550505b81600660000160008282546111829190612017565b9091555061271090506111958482612017565b61119f9084611fda565b6111a99190611f9f565b73ffffffffffffffffffffffffffffffffffffffff86166000908152600c6020526040812080549091906111de908490611f87565b90915550506000898152600b602052604081208054849290611201908490611f87565b9091555061271090506112148484611fda565b61121e9190611f9f565b73ffffffffffffffffffffffffffffffffffffffff89166000908152600c602052604081208054909190611253908490611f87565b9091555050604080518a815273ffffffffffffffffffffffffffffffffffffffff8a811660208301528183018590528616606082015290517f42bc662de64da6aa158b5a87f6ef3a8338d84eec31d4dd4f416f83d36308e63b9181900360800190a1505b505b50505050505050565b600054610100900460ff16806112db575060005460ff16155b611367576040517f08c379a000000000000000000000000000000000000000000000000000000000815260206004820152602e60248201527f496e697469616c697a61626c653a20636f6e747261637420697320616c72656160448201527f647920696e697469616c697a656400000000000000000000000000000000000060648201526084016105d7565b600054610100900460ff161580156113a657600080547fffffffffffffffffffffffffffffffffffffffffffffffffffffffffffff0000166101011790555b60008290508073ffffffffffffffffffffffffffffffffffffffff1663ba84fd696040518163ffffffff1660e01b815260040160206040518083038186803b1580156113f157600080fd5b505afa158015611405573d6000803e3d6000fd5b505050506040513d601f19601f820116820180604052508101906114299190611d0f565b61143257600080fd5b600080547fffffffffffffffffff00ffffffffffffffffffffffffffffffffffffffffffff167601000000000000000000000000000000000000000000001790556706f05b59d3b200006001556003805473ffffffffffffffffffffffffffffffffffffffff9092167fffffffffffffffffffffffff000000000000000000000000000000000000000090921691909117905580156114f457600080547fffffffffffffffffffffffffffffffffffffffffffffffffffffffffffff00ff1690555b5050565b60035473ffffffffffffffffffffffffffffffffffffffff16638413ec1461151e611c71565b6040517fffffffff0000000000000000000000000000000000000000000000000000000060e084901b16815273ffffffffffffffffffffffffffffffffffffffff909116600482015260240160006040518083038186803b15801561158257600080fd5b505afa158015611596573d6000803e3d6000fd5b50839250505073ffffffffffffffffffffffffffffffffffffffff8116611619576040517f08c379a000000000000000000000000000000000000000000000000000000000815260206004820152600f60248201527f496e76616c69642061646472657373000000000000000000000000000000000060448201526064016105d7565b506000805473ffffffffffffffffffffffffffffffffffffffff90921662010000027fffffffffffffffffffff0000000000000000000000000000000000000000ffff909216919091179055565b600360009054906101000a900473ffffffffffffffffffffffffffffffffffffffff1673ffffffffffffffffffffffffffffffffffffffff16634d868f986040518163ffffffff1660e01b815260040160006040518083038186803b1580156116cf57600080fd5b505afa1580156116e3573d6000803e3d6000fd5b50505050600c60006116f3611c71565b73ffffffffffffffffffffffffffffffffffffffff1673ffffffffffffffffffffffffffffffffffffffff16815260200190815260200160002054811115801561173f57506001548110155b6117a5576040517f08c379a000000000000000000000000000000000000000000000000000000000815260206004820152600e60248201527f496e76616c696420616d6f756e7400000000000000000000000000000000000060448201526064016105d7565b80600c60006117b2611c71565b73ffffffffffffffffffffffffffffffffffffffff1673ffffffffffffffffffffffffffffffffffffffff16815260200190815260200160002060008282546117fb9190612017565b909155505060055460009073ffffffffffffffffffffffffffffffffffffffff1663a9059cbb611829611c71565b6040517fffffffff0000000000000000000000000000000000000000000000000000000060e084901b16815273ffffffffffffffffffffffffffffffffffffffff909116600482015260248101859052604401602060405180830381600087803b15801561189657600080fd5b505af11580156118aa573d6000803e3d6000fd5b505050506040513d601f19601f820116820180604052508101906118ce9190611d0f565b905080611937576040517f08c379a000000000000000000000000000000000000000000000000000000000815260206004820152601560248201527f556e7375636365737366756c207472616e73666572000000000000000000000060448201526064016105d7565b7fa35010e501b7cbcb7bbef636ae49bb8510f178a4cfd1666b20c67be10d1fead282611961611c71565b6040805192835273ffffffffffffffffffffffffffffffffffffffff90911660208301520160405180910390a15050565b60035473ffffffffffffffffffffffffffffffffffffffff16638413ec146119b8611c71565b6040517fffffffff0000000000000000000000000000000000000000000000000000000060e084901b16815273ffffffffffffffffffffffffffffffffffffffff909116600482015260240160006040518083038186803b158015611a1c57600080fd5b505afa158015611a30573d6000803e3d6000fd5b50839250505073ffffffffffffffffffffffffffffffffffffffff8116611ab3576040517f08c379a000000000000000000000000000000000000000000000000000000000815260206004820152600f60248201527f496e76616c69642061646472657373000000000000000000000000000000000060448201526064016105d7565b50600580547fffffffffffffffffffffffff00000000000000000000000000000000000000001673ffffffffffffffffffffffffffffffffffffffff92909216919091179055565b60035473ffffffffffffffffffffffffffffffffffffffff16638413ec14611b21611c71565b6040517fffffffff0000000000000000000000000000000000000000000000000000000060e084901b16815273ffffffffffffffffffffffffffffffffffffffff909116600482015260240160006040518083038186803b158015611b8557600080fd5b505afa158015611b99573d6000803e3d6000fd5b5050505060008190508073ffffffffffffffffffffffffffffffffffffffff166303dc8deb6040518163ffffffff1660e01b815260040160206040518083038186803b158015611be857600080fd5b505afa158015611bfc573d6000803e3d6000fd5b505050506040513d601f19601f82011682018060405250810190611c209190611d0f565b611c2957600080fd5b600480547fffffffffffffffffffffffff00000000000000000000000000000000000000001673ffffffffffffffffffffffffffffffffffffffff9290921691909117905550565b600060143610801590611ca1575060005462010000900473ffffffffffffffffffffffffffffffffffffffff1633145b15611cd157507fffffffffffffffffffffffffffffffffffffffffffffffffffffffffffffffec36013560601c90565b503390565b80518015158114611ce657600080fd5b919050565b600060208284031215611cfd57600080fd5b8135611d088161205d565b9392505050565b600060208284031215611d2157600080fd5b611d0882611cd6565b60008060008060808587031215611d4057600080fd5b611d4985611cd6565b93506020850151611d598161205d565b6040860151909350611d6a8161205d565b6060959095015193969295505050565b600060208284031215611d8c57600080fd5b5035919050565b600060208284031215611da557600080fd5b5051919050565b600080600060608486031215611dc157600080fd5b833592506020840135611dd38161205d565b9150604084013567ffffffffffffffff81168114611df057600080fd5b809150509250925092565b600080600060408486031215611e1057600080fd5b83359250602084013567ffffffffffffffff80821115611e2f57600080fd5b818601915086601f830112611e4357600080fd5b813581811115611e5257600080fd5b876020828501011115611e6457600080fd5b6020830194508093505050509250925092565b600080600060608486031215611e8c57600080fd5b505081359360208301359350604090920135919050565b600060208083528351808285015260005b81811015611ed057858101830151858201604001528201611eb4565b81811115611ee2576000604083870101525b50601f017fffffffffffffffffffffffffffffffffffffffffffffffffffffffffffffffe016929092016040019392505050565b84815273ffffffffffffffffffffffffffffffffffffffff8416602082015260606040820152816060820152818360808301376000818301608090810191909152601f9092017fffffffffffffffffffffffffffffffffffffffffffffffffffffffffffffffe01601019392505050565b60008219821115611f9a57611f9a61202e565b500190565b600082611fd5577f4e487b7100000000000000000000000000000000000000000000000000000000600052601260045260246000fd5b500490565b6000817fffffffffffffffffffffffffffffffffffffffffffffffffffffffffffffffff04831182151516156120125761201261202e565b500290565b6000828210156120295761202961202e565b500390565b7f4e487b7100000000000000000000000000000000000000000000000000000000600052601160045260246000fd5b73ffffffffffffffffffffffffffffffffffffffff8116811461207f57600080fd5b5056fea2646970667358221220027f1095b09efe8f60158024fc4d95167abae47156d869bc8202817bd347f41964736f6c63430008060033",
  "immutableReferences": {},
  "source": "// SPDX-License-Identifier: GPL-3.0\n\npragma solidity ^0.8.6;\n\nimport \"@openzeppelin/contracts-upgradeable/utils/CountersUpgradeable.sol\";\nimport \"@openzeppelin/contracts-upgradeable/proxy/utils/Initializable.sol\";\nimport \"@openzeppelin/contracts-upgradeable/token/ERC20/IERC20Upgradeable.sol\";\n\nimport \"../access/IAccessRestriction.sol\";\nimport \"../planter/IPlanter.sol\";\nimport \"../gsn/RelayRecipient.sol\";\n\nimport \"./IPlanterFund.sol\";\n\n/** @title PlanterFund Contract */\n\ncontract PlanterFund is Initializable, RelayRecipient, IPlanterFund {\n    struct TotalBalances {\n        uint256 planter;\n        uint256 ambassador;\n        uint256 noAmbsassador;\n    }\n\n    /** NOTE {isPlanterFund} set inside the initialize to {true} */\n    bool public override isPlanterFund;\n\n    /** NOTE minimum withdrawable amount */\n    uint256 public override minWithdrawable;\n\n    /** NOTE outgoing address */\n    address public override outgoingAddress;\n\n    IAccessRestriction public accessRestriction;\n    IPlanter public planterContract;\n    IERC20Upgradeable public daiToken;\n\n    /** NOTE totalBalances keep total share of\n     * planter, ambassador, noAmbsassador\n     */\n    TotalBalances public override totalBalances;\n\n    /** NOTE mapping of treeId to planterProjectedEarning*/\n    mapping(uint256 => uint256) public override treeToPlanterProjectedEarning;\n\n    /** NOTE mapping of treeId to ambassadorProjectedEarning*/\n    mapping(uint256 => uint256)\n        public\n        override treeToAmbassadorProjectedEarning;\n\n    /** NOTE mpping of treeId to treeToPlanterTotalClaimed balance*/\n    mapping(uint256 => uint256) public override treeToPlanterTotalClaimed;\n\n    /** NOTE mapping of planter address to planter balance*/\n    mapping(address => uint256) public override balances;\n\n    /** NOTE modifier to check msg.sender has admin role */\n    modifier onlyAdmin() {\n        accessRestriction.ifAdmin(_msgSender());\n        _;\n    }\n\n    /** NOTE modifier to check msg.sender has data manager role */\n    modifier onlyDataManager() {\n        accessRestriction.ifDataManager(msg.sender);\n        _;\n    }\n\n    /** NOTE modifier for check if function is not paused */\n    modifier ifNotPaused() {\n        accessRestriction.ifNotPaused();\n        _;\n    }\n\n    /** NOTE modifier for check msg.sender has TreejerContract role */\n    modifier onlyTreejerContract() {\n        accessRestriction.ifTreejerContract(_msgSender());\n        _;\n    }\n\n    /** NOTE modifier for check valid address */\n    modifier validAddress(address _address) {\n        require(_address != address(0), \"Invalid address\");\n        _;\n    }\n\n    /// @inheritdoc IPlanterFund\n    function initialize(address _accessRestrictionAddress)\n        external\n        override\n        initializer\n    {\n        IAccessRestriction candidateContract = IAccessRestriction(\n            _accessRestrictionAddress\n        );\n\n        require(candidateContract.isAccessRestriction());\n\n        isPlanterFund = true;\n        minWithdrawable = .5 ether;\n        accessRestriction = candidateContract;\n    }\n\n    /// @inheritdoc IPlanterFund\n    function setTrustedForwarder(address _address)\n        external\n        override\n        onlyAdmin\n        validAddress(_address)\n    {\n        trustedForwarder = _address;\n    }\n\n    /// @inheritdoc IPlanterFund\n    function setPlanterContractAddress(address _address)\n        external\n        override\n        onlyAdmin\n    {\n        IPlanter candidateContract = IPlanter(_address);\n        require(candidateContract.isPlanter());\n        planterContract = candidateContract;\n    }\n\n    /// @inheritdoc IPlanterFund\n    function setDaiTokenAddress(address _address)\n        external\n        override\n        onlyAdmin\n        validAddress(_address)\n    {\n        IERC20Upgradeable candidateContract = IERC20Upgradeable(_address);\n        daiToken = candidateContract;\n    }\n\n    /// @inheritdoc IPlanterFund\n    function setOutgoingAddress(address payable _address)\n        external\n        override\n        onlyAdmin\n        validAddress(_address)\n    {\n        outgoingAddress = _address;\n    }\n\n    /// @inheritdoc IPlanterFund\n    function updateWithdrawableAmount(uint256 _amount)\n        external\n        override\n        ifNotPaused\n        onlyDataManager\n    {\n        minWithdrawable = _amount;\n\n        emit MinWithdrawableAmountUpdated();\n    }\n\n    /// @inheritdoc IPlanterFund\n    function updateProjectedEarnings(\n        uint256 _treeId,\n        uint256 _planterAmount,\n        uint256 _ambassadorAmount\n    ) external override onlyTreejerContract {\n        treeToPlanterProjectedEarning[_treeId] = _planterAmount;\n        treeToAmbassadorProjectedEarning[_treeId] = _ambassadorAmount;\n\n        totalBalances.planter += _planterAmount;\n        totalBalances.ambassador += _ambassadorAmount;\n\n        emit ProjectedEarningUpdated(\n            _treeId,\n            _planterAmount,\n            _ambassadorAmount\n        );\n    }\n\n    /// @inheritdoc IPlanterFund\n    function updatePlanterTotalClaimed(\n        uint256 _treeId,\n        address _planter,\n        uint64 _treeStatus\n    ) external override onlyTreejerContract {\n        require(\n            treeToPlanterProjectedEarning[_treeId] > 0,\n            \"Projected earning zero\"\n        );\n\n        (\n            bool exists,\n            address organizationAddress,\n            address ambassadorAddress,\n            uint256 share\n        ) = planterContract.getOrganizationMemberData(_planter);\n\n        if (exists) {\n            uint256 totalPayableAmountToPlanter;\n\n            if (_treeStatus > 25920) {\n                //25920 = 30 * 24 * 36\n\n                totalPayableAmountToPlanter =\n                    treeToPlanterProjectedEarning[_treeId] -\n                    treeToPlanterTotalClaimed[_treeId];\n            } else {\n                totalPayableAmountToPlanter =\n                    ((treeToPlanterProjectedEarning[_treeId] * _treeStatus) /\n                        25920) -\n                    treeToPlanterTotalClaimed[_treeId];\n            }\n\n            if (totalPayableAmountToPlanter > 0) {\n                uint256 totalPayableAmountToAmbassador = (treeToAmbassadorProjectedEarning[\n                        _treeId\n                    ] * totalPayableAmountToPlanter) /\n                        treeToPlanterProjectedEarning[_treeId];\n\n                //referral calculation section\n\n                totalBalances.ambassador -= totalPayableAmountToAmbassador;\n\n                if (ambassadorAddress == address(0)) {\n                    totalBalances\n                        .noAmbsassador += totalPayableAmountToAmbassador;\n                } else {\n                    balances[\n                        ambassadorAddress\n                    ] += totalPayableAmountToAmbassador;\n                }\n\n                totalBalances.planter -= totalPayableAmountToPlanter;\n\n                balances[organizationAddress] +=\n                    (totalPayableAmountToPlanter * (10000 - share)) /\n                    10000;\n\n                //planter calculation section\n\n                treeToPlanterTotalClaimed[\n                    _treeId\n                ] += totalPayableAmountToPlanter;\n\n                balances[_planter] +=\n                    (totalPayableAmountToPlanter * share) /\n                    10000;\n\n                emit PlanterTotalClaimedUpdated(\n                    _treeId,\n                    _planter,\n                    totalPayableAmountToPlanter,\n                    ambassadorAddress\n                );\n            }\n        }\n    }\n\n    /// @inheritdoc IPlanterFund\n    function withdrawBalance(uint256 _amount) external override ifNotPaused {\n        require(\n            _amount <= balances[_msgSender()] && _amount >= minWithdrawable,\n            \"Invalid amount\"\n        );\n\n        balances[_msgSender()] -= _amount;\n\n        bool success = daiToken.transfer(_msgSender(), _amount);\n\n        require(success, \"Unsuccessful transfer\");\n\n        emit BalanceWithdrew(_amount, _msgSender());\n    }\n\n    /// @inheritdoc IPlanterFund\n    function withdrawNoAmbsassadorBalance(\n        uint256 _amount,\n        string calldata _reason\n    ) external override onlyAdmin validAddress(outgoingAddress) {\n        require(\n            _amount <= totalBalances.noAmbsassador && _amount > 0,\n            \"Invalid amount\"\n        );\n\n        totalBalances.noAmbsassador -= _amount;\n\n        bool success = daiToken.transfer(outgoingAddress, _amount);\n\n        require(success, \"Unsuccessful transfer\");\n\n        emit NoAmbsassadorBalanceWithdrew(_amount, outgoingAddress, _reason);\n    }\n\n    //TODO:remove\n    function withdrawContractBalance(address _wallet)\n        external\n        override\n        onlyAdmin\n        validAddress(_wallet)\n    {\n        bool success = daiToken.transfer(\n            _wallet,\n            daiToken.balanceOf(address(this))\n        );\n        require(success);\n    }\n}\n",
  "sourcePath": "/home/amir/Projects/treejer/contract/contracts/treasury/PlanterFund.sol",
  "compiler": {
    "name": "solc",
    "version": "0.8.6+commit.11564f7e.Emscripten.clang"
  },
  "schemaVersion": "3.4.3",
  "updatedAt": "2022-01-14T16:04:19.881Z",
  "networkType": "ethereum",
  "devdoc": {
    "kind": "dev",
    "methods": {
      "initialize(address)": {
        "details": "initialize AccessRestriction contract, minWithdrawable and set true for isAllocation",
        "params": {
          "_accessRestrictionAddress": "set to the address of AccessRestriction contract"
        }
      },
      "setDaiTokenAddress(address)": {
        "details": "set {_address} to DaiToken contract address "
      },
      "setOutgoingAddress(address)": {
        "details": "set {_address} to outgoingAddress"
      },
      "setPlanterContractAddress(address)": {
        "details": "set {_address} to Planter contract address "
      },
      "setTrustedForwarder(address)": {
        "details": "set {_address} to trusted forwarder "
      },
      "updatePlanterTotalClaimed(uint256,address,uint64)": {
        "details": "based on the {_treeStatus} planter total claimable amount updated in every tree update verifying NOTE emit a {PlanterTotalClaimedUpdated} event",
        "params": {
          "_planter": "address of planter to fund",
          "_treeId": "id of a tree that planter's total claimable amount updated for",
          "_treeStatus": "status of tree"
        }
      },
      "updateProjectedEarnings(uint256,uint256,uint256)": {
        "details": "set projected earnings NOTE emit a {ProjectedEarningUpdated} event",
        "params": {
          "_ambassadorAmount": "ambassador amount",
          "_planterAmount": "planter amount",
          "_treeId": "id of tree to set projected earning for"
        }
      },
      "updateWithdrawableAmount(uint256)": {
        "details": "admin set the minimum amount to withdraw NOTE emit a {MinWithdrawableAmountUpdated} event",
        "params": {
          "_amount": "is minimum withdrawable amount"
        }
      },
      "versionRecipient()": {
        "details": "return version recipient "
      },
      "withdrawBalance(uint256)": {
        "details": "planter withdraw {_amount} from balances NOTE emit a {BalanceWithdrew} event",
        "params": {
          "_amount": "amount to withdraw"
        }
      },
      "withdrawNoAmbsassadorBalance(uint256,string)": {
        "details": "admin withdraw from noAmbsassador totalBalances NOTE amount transfer to outgoingAddress NOTE emit a {NoAmbsassadorBalanceWithdrew} event",
        "params": {
          "_amount": "amount to withdraw",
          "_reason": "reason to withdraw"
        }
      }
    },
    "title": "PlanterFund Contract ",
    "version": 1
  },
  "userdoc": {
    "kind": "user",
    "methods": {
      "balances(address)": {
        "notice": "NOTE mapping of planter address to planter balance"
      },
      "isPlanterFund()": {
        "notice": "NOTE {isPlanterFund} set inside the initialize to {true} "
      },
      "isTrustedForwarder(address)": {
        "notice": "return if the forwarder is trusted to forward relayed transactions to us. the forwarder is required to verify the sender's signature, and verify the call is not a replay."
      },
      "minWithdrawable()": {
        "notice": "NOTE minimum withdrawable amount "
      },
      "outgoingAddress()": {
        "notice": "NOTE outgoing address "
      },
      "totalBalances()": {
        "notice": "NOTE totalBalances keep total share of planter, ambassador, noAmbsassador"
      },
      "treeToAmbassadorProjectedEarning(uint256)": {
        "notice": "NOTE mapping of treeId to ambassadorProjectedEarning"
      },
      "treeToPlanterProjectedEarning(uint256)": {
        "notice": "NOTE mapping of treeId to planterProjectedEarning"
      },
      "treeToPlanterTotalClaimed(uint256)": {
        "notice": "NOTE mpping of treeId to treeToPlanterTotalClaimed balance"
      }
    },
    "version": 1
  }
}