{
  "contractName": "AccessRestriction",
  "abi": [
    {
      "anonymous": false,
      "inputs": [
        {
          "indexed": false,
          "internalType": "address",
          "name": "account",
          "type": "address"
        }
      ],
      "name": "Paused",
      "type": "event"
    },
    {
      "anonymous": false,
      "inputs": [
        {
          "indexed": true,
          "internalType": "bytes32",
          "name": "role",
          "type": "bytes32"
        },
        {
          "indexed": true,
          "internalType": "bytes32",
          "name": "previousAdminRole",
          "type": "bytes32"
        },
        {
          "indexed": true,
          "internalType": "bytes32",
          "name": "newAdminRole",
          "type": "bytes32"
        }
      ],
      "name": "RoleAdminChanged",
      "type": "event"
    },
    {
      "anonymous": false,
      "inputs": [
        {
          "indexed": true,
          "internalType": "bytes32",
          "name": "role",
          "type": "bytes32"
        },
        {
          "indexed": true,
          "internalType": "address",
          "name": "account",
          "type": "address"
        },
        {
          "indexed": true,
          "internalType": "address",
          "name": "sender",
          "type": "address"
        }
      ],
      "name": "RoleGranted",
      "type": "event"
    },
    {
      "anonymous": false,
      "inputs": [
        {
          "indexed": true,
          "internalType": "bytes32",
          "name": "role",
          "type": "bytes32"
        },
        {
          "indexed": true,
          "internalType": "address",
          "name": "account",
          "type": "address"
        },
        {
          "indexed": true,
          "internalType": "address",
          "name": "sender",
          "type": "address"
        }
      ],
      "name": "RoleRevoked",
      "type": "event"
    },
    {
      "anonymous": false,
      "inputs": [
        {
          "indexed": false,
          "internalType": "address",
          "name": "account",
          "type": "address"
        }
      ],
      "name": "Unpaused",
      "type": "event"
    },
    {
      "inputs": [],
      "name": "AMBASSADOR_ROLE",
      "outputs": [
        {
          "internalType": "bytes32",
          "name": "",
          "type": "bytes32"
        }
      ],
      "stateMutability": "view",
      "type": "function",
      "constant": true
    },
    {
      "inputs": [],
      "name": "DEFAULT_ADMIN_ROLE",
      "outputs": [
        {
          "internalType": "bytes32",
          "name": "",
          "type": "bytes32"
        }
      ],
      "stateMutability": "view",
      "type": "function",
      "constant": true
    },
    {
      "inputs": [],
      "name": "O2_FACTORY_ROLE",
      "outputs": [
        {
          "internalType": "bytes32",
          "name": "",
          "type": "bytes32"
        }
      ],
      "stateMutability": "view",
      "type": "function",
      "constant": true
    },
    {
      "inputs": [],
      "name": "PLANTER_ROLE",
      "outputs": [
        {
          "internalType": "bytes32",
          "name": "",
          "type": "bytes32"
        }
      ],
      "stateMutability": "view",
      "type": "function",
      "constant": true
    },
    {
      "inputs": [],
      "name": "SEED_FACTORY_ROLE",
      "outputs": [
        {
          "internalType": "bytes32",
          "name": "",
          "type": "bytes32"
        }
      ],
      "stateMutability": "view",
      "type": "function",
      "constant": true
    },
    {
      "inputs": [],
      "name": "TREE_FACTORY_ROLE",
      "outputs": [
        {
          "internalType": "bytes32",
          "name": "",
          "type": "bytes32"
        }
      ],
      "stateMutability": "view",
      "type": "function",
      "constant": true
    },
    {
      "inputs": [
        {
          "internalType": "bytes32",
          "name": "role",
          "type": "bytes32"
        }
      ],
      "name": "getRoleAdmin",
      "outputs": [
        {
          "internalType": "bytes32",
          "name": "",
          "type": "bytes32"
        }
      ],
      "stateMutability": "view",
      "type": "function",
      "constant": true
    },
    {
      "inputs": [
        {
          "internalType": "bytes32",
          "name": "role",
          "type": "bytes32"
        },
        {
          "internalType": "uint256",
          "name": "index",
          "type": "uint256"
        }
      ],
      "name": "getRoleMember",
      "outputs": [
        {
          "internalType": "address",
          "name": "",
          "type": "address"
        }
      ],
      "stateMutability": "view",
      "type": "function",
      "constant": true
    },
    {
      "inputs": [
        {
          "internalType": "bytes32",
          "name": "role",
          "type": "bytes32"
        }
      ],
      "name": "getRoleMemberCount",
      "outputs": [
        {
          "internalType": "uint256",
          "name": "",
          "type": "uint256"
        }
      ],
      "stateMutability": "view",
      "type": "function",
      "constant": true
    },
    {
      "inputs": [
        {
          "internalType": "bytes32",
          "name": "role",
          "type": "bytes32"
        },
        {
          "internalType": "address",
          "name": "account",
          "type": "address"
        }
      ],
      "name": "grantRole",
      "outputs": [],
      "stateMutability": "nonpayable",
      "type": "function"
    },
    {
      "inputs": [
        {
          "internalType": "bytes32",
          "name": "role",
          "type": "bytes32"
        },
        {
          "internalType": "address",
          "name": "account",
          "type": "address"
        }
      ],
      "name": "hasRole",
      "outputs": [
        {
          "internalType": "bool",
          "name": "",
          "type": "bool"
        }
      ],
      "stateMutability": "view",
      "type": "function",
      "constant": true
    },
    {
      "inputs": [],
      "name": "isAccessRestriction",
      "outputs": [
        {
          "internalType": "bool",
          "name": "",
          "type": "bool"
        }
      ],
      "stateMutability": "view",
      "type": "function",
      "constant": true
    },
    {
      "inputs": [],
      "name": "paused",
      "outputs": [
        {
          "internalType": "bool",
          "name": "",
          "type": "bool"
        }
      ],
      "stateMutability": "view",
      "type": "function",
      "constant": true
    },
    {
      "inputs": [
        {
          "internalType": "bytes32",
          "name": "role",
          "type": "bytes32"
        },
        {
          "internalType": "address",
          "name": "account",
          "type": "address"
        }
      ],
      "name": "renounceRole",
      "outputs": [],
      "stateMutability": "nonpayable",
      "type": "function"
    },
    {
      "inputs": [
        {
          "internalType": "bytes32",
          "name": "role",
          "type": "bytes32"
        },
        {
          "internalType": "address",
          "name": "account",
          "type": "address"
        }
      ],
      "name": "revokeRole",
      "outputs": [],
      "stateMutability": "nonpayable",
      "type": "function"
    },
    {
      "inputs": [
        {
          "internalType": "address",
          "name": "_deployer",
          "type": "address"
        }
      ],
      "name": "initialize",
      "outputs": [],
      "stateMutability": "nonpayable",
      "type": "function"
    },
    {
      "inputs": [
        {
          "internalType": "address",
          "name": "_address",
          "type": "address"
        }
      ],
      "name": "ifPlanterOrAmbassador",
      "outputs": [],
      "stateMutability": "view",
      "type": "function",
      "constant": true
    },
    {
      "inputs": [
        {
          "internalType": "address",
          "name": "_address",
          "type": "address"
        }
      ],
      "name": "isPlanterOrAmbassador",
      "outputs": [
        {
          "internalType": "bool",
          "name": "",
          "type": "bool"
        }
      ],
      "stateMutability": "view",
      "type": "function",
      "constant": true
    },
    {
      "inputs": [
        {
          "internalType": "address",
          "name": "_address",
          "type": "address"
        }
      ],
      "name": "ifPlanter",
      "outputs": [],
      "stateMutability": "view",
      "type": "function",
      "constant": true
    },
    {
      "inputs": [
        {
          "internalType": "address",
          "name": "_address",
          "type": "address"
        }
      ],
      "name": "isPlanter",
      "outputs": [
        {
          "internalType": "bool",
          "name": "",
          "type": "bool"
        }
      ],
      "stateMutability": "view",
      "type": "function",
      "constant": true
    },
    {
      "inputs": [
        {
          "internalType": "address",
          "name": "_address",
          "type": "address"
        }
      ],
      "name": "ifAmbassador",
      "outputs": [],
      "stateMutability": "view",
      "type": "function",
      "constant": true
    },
    {
      "inputs": [
        {
          "internalType": "address",
          "name": "_address",
          "type": "address"
        }
      ],
      "name": "isAmbassador",
      "outputs": [
        {
          "internalType": "bool",
          "name": "",
          "type": "bool"
        }
      ],
      "stateMutability": "view",
      "type": "function",
      "constant": true
    },
    {
      "inputs": [
        {
          "internalType": "address",
          "name": "_address",
          "type": "address"
        }
      ],
      "name": "ifAdmin",
      "outputs": [],
      "stateMutability": "view",
      "type": "function",
      "constant": true
    },
    {
      "inputs": [
        {
          "internalType": "address",
          "name": "_address",
          "type": "address"
        }
      ],
      "name": "isAdmin",
      "outputs": [
        {
          "internalType": "bool",
          "name": "",
          "type": "bool"
        }
      ],
      "stateMutability": "view",
      "type": "function",
      "constant": true
    },
    {
      "inputs": [],
      "name": "ifNotPaused",
      "outputs": [],
      "stateMutability": "view",
      "type": "function",
      "constant": true
    },
    {
      "inputs": [],
      "name": "ifPaused",
      "outputs": [],
      "stateMutability": "view",
      "type": "function",
      "constant": true
    },
    {
      "inputs": [],
      "name": "pause",
      "outputs": [],
      "stateMutability": "nonpayable",
      "type": "function"
    },
    {
      "inputs": [],
      "name": "unpause",
      "outputs": [],
      "stateMutability": "nonpayable",
      "type": "function"
    },
    {
      "inputs": [
        {
          "internalType": "address",
          "name": "_address",
          "type": "address"
        }
      ],
      "name": "ifTreeFactory",
      "outputs": [],
      "stateMutability": "view",
      "type": "function",
      "constant": true
    },
    {
      "inputs": [
        {
          "internalType": "address",
          "name": "_address",
          "type": "address"
        }
      ],
      "name": "isTreeFactory",
      "outputs": [
        {
          "internalType": "bool",
          "name": "",
          "type": "bool"
        }
      ],
      "stateMutability": "view",
      "type": "function",
      "constant": true
    },
    {
      "inputs": [
        {
          "internalType": "address",
          "name": "_address",
          "type": "address"
        }
      ],
      "name": "ifSeedFactory",
      "outputs": [],
      "stateMutability": "view",
      "type": "function",
      "constant": true
    },
    {
      "inputs": [
        {
          "internalType": "address",
          "name": "_address",
          "type": "address"
        }
      ],
      "name": "isSeedFactory",
      "outputs": [
        {
          "internalType": "bool",
          "name": "",
          "type": "bool"
        }
      ],
      "stateMutability": "view",
      "type": "function",
      "constant": true
    },
    {
      "inputs": [
        {
          "internalType": "address",
          "name": "_address",
          "type": "address"
        }
      ],
      "name": "ifO2Factory",
      "outputs": [],
      "stateMutability": "view",
      "type": "function",
      "constant": true
    },
    {
      "inputs": [
        {
          "internalType": "address",
          "name": "_address",
          "type": "address"
        }
      ],
      "name": "isO2Factory",
      "outputs": [
        {
          "internalType": "bool",
          "name": "",
          "type": "bool"
        }
      ],
      "stateMutability": "view",
      "type": "function",
      "constant": true
    }
  ],
  "bytecode": "0x608060405234801561001057600080fd5b506115cc806100206000396000f3fe608060405234801561001057600080fd5b50600436106102065760003560e01c80636dc1ccab1161011a578063b2511fd8116100ad578063d26c31f01161007c578063d26c31f014610550578063d4747a5214610576578063d547741f1461059c578063dac4d453146105c8578063f29bbde8146105ee57610206565b8063b2511fd8146104df578063ba84fd6914610505578063c4d66de81461050d578063ca15c8731461053357610206565b806391d14854116100e957806391d148541461047d5780639ac0c6ac146104a95780639b6fcd84146104cf578063a217fddf146104d757610206565b80636dc1ccab146103ea5780638413ec14146104105780638456cb59146104365780639010d07c1461043e57610206565b80632f2ff15d1161019d5780634af2a1561161016c5780634af2a156146103865780634d868f98146103ac5780635590f601146103b45780635c975abb146103bc57806365d86287146103c457610206565b80632f2ff15d1461031e57806336568abe1461034a5780633f4ba83a1461037657806345047b131461037e57610206565b806324d7806c116101d957806324d7806c1461028457806324dd1c46146102aa57806325837f34146102d25780632ea8de7f146102f857610206565b80630daa2e661461020b5780630fdc0e33146102255780631f95d6c41461025f578063248a9ca314610267575b600080fd5b6102136105f6565b60408051918252519081900360200190f35b61024b6004803603602081101561023b57600080fd5b50356001600160a01b031661061d565b604080519115158252519081900360200190f35b61021361063d565b6102136004803603602081101561027d57600080fd5b5035610666565b61024b6004803603602081101561029a57600080fd5b50356001600160a01b031661067b565b6102d0600480360360208110156102c057600080fd5b50356001600160a01b0316610687565b005b61024b600480360360208110156102e857600080fd5b50356001600160a01b03166106e4565b61024b6004803603602081101561030e57600080fd5b50356001600160a01b0316610717565b6102d06004803603604081101561033457600080fd5b50803590602001356001600160a01b0316610745565b6102d06004803603604081101561036057600080fd5b50803590602001356001600160a01b03166107b1565b6102d0610812565b61021361086e565b6102d06004803603602081101561039c57600080fd5b50356001600160a01b0316610895565b6102d06108ef565b6102d061093c565b61024b61098c565b61024b600480360360208110156103da57600080fd5b50356001600160a01b0316610995565b6102d06004803603602081101561040057600080fd5b50356001600160a01b03166109c6565b6102d06004803603602081101561042657600080fd5b50356001600160a01b0316610a20565b6102d0610a70565b6104616004803603604081101561045457600080fd5b5080359060200135610aca565b604080516001600160a01b039092168252519081900360200190f35b61024b6004803603604081101561049357600080fd5b50803590602001356001600160a01b0316610aef565b61024b600480360360208110156104bf57600080fd5b50356001600160a01b0316610b0d565b610213610b3e565b610213610b67565b6102d0600480360360208110156104f557600080fd5b50356001600160a01b0316610b6c565b61024b610bb0565b6102d06004803603602081101561052357600080fd5b50356001600160a01b0316610bb9565b6102136004803603602081101561054957600080fd5b5035610c92565b6102d06004803603602081101561056657600080fd5b50356001600160a01b0316610ca9565b61024b6004803603602081101561058c57600080fd5b50356001600160a01b0316610d03565b6102d0600480360360408110156105b257600080fd5b50803590602001356001600160a01b0316610d36565b6102d0600480360360208110156105de57600080fd5b50356001600160a01b0316610d8f565b610213610de9565b604080516e414d4241535341444f525f524f4c4560881b8152905190819003600f01902081565b600061062882610717565b80610637575061063782610b0d565b92915050565b6040805170545245455f464143544f52595f524f4c4560781b8152905190819003601101902081565b60009081526033602052604090206002015490565b60006106378183610aef565b610690816106e4565b6106e1576040805162461bcd60e51b815260206004820152601960248201527f43616c6c6572206973206e6f742053656564466163746f727900000000000000604482015290519081900360640190fd5b50565b6040805170534545445f464143544f52595f524f4c4560781b815290519081900360110190206000906106379083610aef565b604080516b504c414e5445525f524f4c4560a01b8152905190819003600c0190206000906106379083610aef565b60008281526033602052604090206002015461076890610763610e0d565b610aef565b6107a35760405162461bcd60e51b815260040180806020018281038252602f8152602001806114b6602f913960400191505060405180910390fd5b6107ad8282610e11565b5050565b6107b9610e0d565b6001600160a01b0316816001600160a01b0316146108085760405162461bcd60e51b815260040180806020018281038252602f815260200180611568602f913960400191505060405180910390fd5b6107ad8282610e80565b61081d600033610aef565b610864576040805162461bcd60e51b815260206004820152601360248201527221b0b63632b91034b9903737ba1030b236b4b760691b604482015290519081900360640190fd5b61086c610eef565b565b604080516e4f325f464143544f52595f524f4c4560881b8152905190819003600f01902081565b61089e81610995565b6106e1576040805162461bcd60e51b815260206004820152601760248201527f43616c6c6572206973206e6f74204f32466163746f7279000000000000000000604482015290519081900360640190fd5b6108f761098c565b1561086c576040805162461bcd60e51b815260206004820152601060248201526f14185d5cd8589b194e881c185d5cd95960821b604482015290519081900360640190fd5b61094461098c565b61086c576040805162461bcd60e51b815260206004820152601460248201527314185d5cd8589b194e881b9bdd081c185d5cd95960621b604482015290519081900360640190fd5b60655460ff1690565b604080516e4f325f464143544f52595f524f4c4560881b8152905190819003600f0190206000906106379083610aef565b6109cf81610717565b6106e1576040805162461bcd60e51b815260206004820152601760248201527f43616c6c6572206973206e6f74206120706c616e746572000000000000000000604482015290519081900360640190fd5b610a298161067b565b6106e1576040805162461bcd60e51b815260206004820152601360248201527221b0b63632b91034b9903737ba1030b236b4b760691b604482015290519081900360640190fd5b610a7b600033610aef565b610ac2576040805162461bcd60e51b815260206004820152601360248201527221b0b63632b91034b9903737ba1030b236b4b760691b604482015290519081900360640190fd5b61086c610f8d565b6000828152603360205260408120610ae8908363ffffffff61100e16565b9392505050565b6000828152603360205260408120610ae8908363ffffffff61101a16565b604080516e414d4241535341444f525f524f4c4560881b8152905190819003600f0190206000906106379083610aef565b6040805170534545445f464143544f52595f524f4c4560781b8152905190819003601101902081565b600081565b610b758161061d565b6106e15760405162461bcd60e51b81526004018080602001828103825260258152602001806115436025913960400191505060405180910390fd5b60975460ff1681565b600054610100900460ff1680610bd25750610bd261102f565b80610be0575060005460ff16155b610c1b5760405162461bcd60e51b815260040180806020018281038252602e815260200180611515602e913960400191505060405180910390fd5b600054610100900460ff16158015610c46576000805460ff1961ff0019909116610100171660011790555b610c4e611035565b610c566110e6565b6097805460ff19166001179055610c6e600083610aef565b610c7d57610c7d6000836107a3565b80156107ad576000805461ff00191690555050565b600081815260336020526040812061063790611183565b610cb281610d03565b6106e1576040805162461bcd60e51b815260206004820152601960248201527f43616c6c6572206973206e6f742054726565466163746f727900000000000000604482015290519081900360640190fd5b6040805170545245455f464143544f52595f524f4c4560781b815290519081900360110190206000906106379083610aef565b600082815260336020526040902060020154610d5490610763610e0d565b6108085760405162461bcd60e51b81526004018080602001828103825260308152602001806114e56030913960400191505060405180910390fd5b610d9881610b0d565b6106e1576040805162461bcd60e51b815260206004820152601a60248201527f43616c6c6572206973206e6f74206120616d6261737361646f72000000000000604482015290519081900360640190fd5b604080516b504c414e5445525f524f4c4560a01b8152905190819003600c01902081565b3390565b6000828152603360205260409020610e2f908263ffffffff61118e16565b156107ad57610e3c610e0d565b6001600160a01b0316816001600160a01b0316837f2f8788117e7eff1d82e926ec794901d17c78024a50270940304540a733656f0d60405160405180910390a45050565b6000828152603360205260409020610e9e908263ffffffff6111a316565b156107ad57610eab610e0d565b6001600160a01b0316816001600160a01b0316837ff6391f5c32d9c69d2a47ea670b442974b53935d1edc7fd64eb21e047a839171b60405160405180910390a45050565b60655460ff16610f3d576040805162461bcd60e51b815260206004820152601460248201527314185d5cd8589b194e881b9bdd081c185d5cd95960621b604482015290519081900360640190fd5b6065805460ff191690557f5db9ee0a495bf2e6ff9c91a7834c1ba4fdd244a5e8aa4e537bd38aeae4b073aa610f70610e0d565b604080516001600160a01b039092168252519081900360200190a1565b60655460ff1615610fd8576040805162461bcd60e51b815260206004820152601060248201526f14185d5cd8589b194e881c185d5cd95960821b604482015290519081900360640190fd5b6065805460ff191660011790557f62e78cea01bee320cd4e420270b5ea74000d11b0c9f74754ebdbfc544b05a258610f70610e0d565b6000610ae883836111b8565b6000610ae8836001600160a01b03841661121c565b303b1590565b600054610100900460ff168061104e575061104e61102f565b8061105c575060005460ff16155b6110975760405162461bcd60e51b815260040180806020018281038252602e815260200180611515602e913960400191505060405180910390fd5b600054610100900460ff161580156110c2576000805460ff1961ff0019909116610100171660011790555b6110ca611234565b6110d2611234565b80156106e1576000805461ff001916905550565b600054610100900460ff16806110ff57506110ff61102f565b8061110d575060005460ff16155b6111485760405162461bcd60e51b815260040180806020018281038252602e815260200180611515602e913960400191505060405180910390fd5b600054610100900460ff16158015611173576000805460ff1961ff0019909116610100171660011790555b61117b611234565b6110d26112d4565b60006106378261137f565b6000610ae8836001600160a01b038416611383565b6000610ae8836001600160a01b0384166113cd565b815460009082106111fa5760405162461bcd60e51b81526004018080602001828103825260228152602001806114946022913960400191505060405180910390fd5b82600001828154811061120957fe5b9060005260206000200154905092915050565b60009081526001919091016020526040902054151590565b600054610100900460ff168061124d575061124d61102f565b8061125b575060005460ff16155b6112965760405162461bcd60e51b815260040180806020018281038252602e815260200180611515602e913960400191505060405180910390fd5b600054610100900460ff161580156110d2576000805460ff1961ff00199091166101001716600117905580156106e1576000805461ff001916905550565b600054610100900460ff16806112ed57506112ed61102f565b806112fb575060005460ff16155b6113365760405162461bcd60e51b815260040180806020018281038252602e815260200180611515602e913960400191505060405180910390fd5b600054610100900460ff16158015611361576000805460ff1961ff0019909116610100171660011790555b6065805460ff1916905580156106e1576000805461ff001916905550565b5490565b600061138f838361121c565b6113c557508154600181810184556000848152602080822090930184905584548482528286019093526040902091909155610637565b506000610637565b60008181526001830160205260408120548015611489578354600019808301919081019060009087908390811061140057fe5b906000526020600020015490508087600001848154811061141d57fe5b60009182526020808320909101929092558281526001898101909252604090209084019055865487908061144d57fe5b60019003818190600052602060002001600090559055866001016000878152602001908152602001600020600090556001945050505050610637565b600091505061063756fe456e756d657261626c655365743a20696e646578206f7574206f6620626f756e6473416363657373436f6e74726f6c3a2073656e646572206d75737420626520616e2061646d696e20746f206772616e74416363657373436f6e74726f6c3a2073656e646572206d75737420626520616e2061646d696e20746f207265766f6b65496e697469616c697a61626c653a20636f6e747261637420697320616c726561647920696e697469616c697a656443616c6c6572206973206e6f74206120706c616e746572206f7220616d6261737361646f72416363657373436f6e74726f6c3a2063616e206f6e6c792072656e6f756e636520726f6c657320666f722073656c66a264697066735822122000e7bfade28dac34f2f950e7703ce9aca88440af90d6b3776c37b0591b18c80f64736f6c634300060a0033",
  "immutableReferences": {},
  "source": "// SPDX-License-Identifier: GPL-3.0\n\npragma solidity >=0.4.21 <0.7.0;\n\nimport \"@openzeppelin/contracts-upgradeable/access/AccessControlUpgradeable.sol\";\nimport \"@openzeppelin/contracts-upgradeable/utils/PausableUpgradeable.sol\";\n\ncontract AccessRestriction is AccessControlUpgradeable, PausableUpgradeable {\n    bytes32 public constant PLANTER_ROLE = keccak256(\"PLANTER_ROLE\");\n    bytes32 public constant AMBASSADOR_ROLE = keccak256(\"AMBASSADOR_ROLE\");\n    bytes32 public constant TREE_FACTORY_ROLE = keccak256(\"TREE_FACTORY_ROLE\");\n    bytes32 public constant SEED_FACTORY_ROLE = keccak256(\"SEED_FACTORY_ROLE\");\n    bytes32 public constant O2_FACTORY_ROLE = keccak256(\"O2_FACTORY_ROLE\");\n\n    // @dev Sanity check that allows us to ensure that we are pointing to the\n    //  right contract in our setUpdateFactoryAddress() call.\n    bool public isAccessRestriction;\n\n    function initialize(address _deployer) public initializer {\n        AccessControlUpgradeable.__AccessControl_init();\n        PausableUpgradeable.__Pausable_init();\n\n        isAccessRestriction = true;\n\n        if (hasRole(DEFAULT_ADMIN_ROLE, _deployer) == false) {\n            _setupRole(DEFAULT_ADMIN_ROLE, _deployer);\n        }\n    }\n\n    modifier onlyAdmin() {\n        require(hasRole(DEFAULT_ADMIN_ROLE, msg.sender), \"Caller is not admin\");\n        _;\n    }\n\n    function ifPlanterOrAmbassador(address _address) public view {\n        require(\n            isPlanterOrAmbassador(_address),\n            \"Caller is not a planter or ambassador\"\n        );\n    }\n\n    function isPlanterOrAmbassador(address _address)\n        public\n        view\n        returns (bool)\n    {\n        return (isPlanter(_address) || isAmbassador(_address));\n    }\n\n    function ifPlanter(address _address) public view {\n        require(isPlanter(_address), \"Caller is not a planter\");\n    }\n\n    function isPlanter(address _address) public view returns (bool) {\n        return hasRole(PLANTER_ROLE, _address);\n    }\n\n    function ifAmbassador(address _address) public view {\n        require(isAmbassador(_address), \"Caller is not a ambassador\");\n    }\n\n    function isAmbassador(address _address) public view returns (bool) {\n        return hasRole(AMBASSADOR_ROLE, _address);\n    }\n\n    function ifAdmin(address _address) public view {\n        require(isAdmin(_address), \"Caller is not admin\");\n    }\n\n    function isAdmin(address _address) public view returns (bool) {\n        return hasRole(DEFAULT_ADMIN_ROLE, _address);\n    }\n\n    function ifNotPaused() public view {\n        require(!paused(), \"Pausable: paused\");\n    }\n\n    function ifPaused() public view {\n        require(paused(), \"Pausable: not paused\");\n    }\n\n    function pause() external onlyAdmin {\n        _pause();\n    }\n\n    function unpause() external onlyAdmin {\n        _unpause();\n    }\n\n    function ifTreeFactory(address _address) public view {\n        require(isTreeFactory(_address), \"Caller is not TreeFactory\");\n    }\n\n    function isTreeFactory(address _address) public view returns (bool) {\n        return hasRole(TREE_FACTORY_ROLE, _address);\n    }\n\n    function ifSeedFactory(address _address) public view {\n        require(isSeedFactory(_address), \"Caller is not SeedFactory\");\n    }\n\n    function isSeedFactory(address _address) public view returns (bool) {\n        return hasRole(SEED_FACTORY_ROLE, _address);\n    }\n\n    function ifO2Factory(address _address) public view {\n        require(isO2Factory(_address), \"Caller is not O2Factory\");\n    }\n\n    function isO2Factory(address _address) public view returns (bool) {\n        return hasRole(O2_FACTORY_ROLE, _address);\n    }\n}\n",
  "sourcePath": "/home/amir/Projects/treejer/contract/contracts/access/AccessRestriction.sol",
  "compiler": {
    "name": "solc",
    "version": "0.6.10+commit.00c0fcaf.Emscripten.clang"
  },
  "schemaVersion": "3.3.3",
  "updatedAt": "2021-01-30T12:22:44.192Z",
  "networkType": "ethereum",
  "devdoc": {
    "methods": {
      "getRoleAdmin(bytes32)": {
        "details": "Returns the admin role that controls `role`. See {grantRole} and {revokeRole}. To change a role's admin, use {_setRoleAdmin}."
      },
      "getRoleMember(bytes32,uint256)": {
        "details": "Returns one of the accounts that have `role`. `index` must be a value between 0 and {getRoleMemberCount}, non-inclusive. Role bearers are not sorted in any particular way, and their ordering may change at any point. WARNING: When using {getRoleMember} and {getRoleMemberCount}, make sure you perform all queries on the same block. See the following https://forum.openzeppelin.com/t/iterating-over-elements-on-enumerableset-in-openzeppelin-contracts/2296[forum post] for more information."
      },
      "getRoleMemberCount(bytes32)": {
        "details": "Returns the number of accounts that have `role`. Can be used together with {getRoleMember} to enumerate all bearers of a role."
      },
      "grantRole(bytes32,address)": {
        "details": "Grants `role` to `account`. If `account` had not been already granted `role`, emits a {RoleGranted} event. Requirements: - the caller must have ``role``'s admin role."
      },
      "hasRole(bytes32,address)": {
        "details": "Returns `true` if `account` has been granted `role`."
      },
      "paused()": {
        "details": "Returns true if the contract is paused, and false otherwise."
      },
      "renounceRole(bytes32,address)": {
        "details": "Revokes `role` from the calling account. Roles are often managed via {grantRole} and {revokeRole}: this function's purpose is to provide a mechanism for accounts to lose their privileges if they are compromised (such as when a trusted device is misplaced). If the calling account had been granted `role`, emits a {RoleRevoked} event. Requirements: - the caller must be `account`."
      },
      "revokeRole(bytes32,address)": {
        "details": "Revokes `role` from `account`. If `account` had been granted `role`, emits a {RoleRevoked} event. Requirements: - the caller must have ``role``'s admin role."
      }
    }
  },
  "userdoc": {
    "methods": {}
  }
}