{
  "contractName": "AccessRestriction",
  "abi": [
    {
      "anonymous": false,
      "inputs": [
        {
          "indexed": false,
          "internalType": "address",
          "name": "account",
          "type": "address"
        }
      ],
      "name": "Paused",
      "type": "event"
    },
    {
      "anonymous": false,
      "inputs": [
        {
          "indexed": true,
          "internalType": "bytes32",
          "name": "role",
          "type": "bytes32"
        },
        {
          "indexed": true,
          "internalType": "address",
          "name": "account",
          "type": "address"
        },
        {
          "indexed": true,
          "internalType": "address",
          "name": "sender",
          "type": "address"
        }
      ],
      "name": "RoleGranted",
      "type": "event"
    },
    {
      "anonymous": false,
      "inputs": [
        {
          "indexed": true,
          "internalType": "bytes32",
          "name": "role",
          "type": "bytes32"
        },
        {
          "indexed": true,
          "internalType": "address",
          "name": "account",
          "type": "address"
        },
        {
          "indexed": true,
          "internalType": "address",
          "name": "sender",
          "type": "address"
        }
      ],
      "name": "RoleRevoked",
      "type": "event"
    },
    {
      "anonymous": false,
      "inputs": [
        {
          "indexed": false,
          "internalType": "address",
          "name": "account",
          "type": "address"
        }
      ],
      "name": "Unpaused",
      "type": "event"
    },
    {
      "inputs": [],
      "name": "AMBASSADOR_ROLE",
      "outputs": [
        {
          "internalType": "bytes32",
          "name": "",
          "type": "bytes32"
        }
      ],
      "stateMutability": "view",
      "type": "function",
      "constant": true
    },
    {
      "inputs": [],
      "name": "DEFAULT_ADMIN_ROLE",
      "outputs": [
        {
          "internalType": "bytes32",
          "name": "",
          "type": "bytes32"
        }
      ],
      "stateMutability": "view",
      "type": "function",
      "constant": true
    },
    {
      "inputs": [],
      "name": "PLANTER_ROLE",
      "outputs": [
        {
          "internalType": "bytes32",
          "name": "",
          "type": "bytes32"
        }
      ],
      "stateMutability": "view",
      "type": "function",
      "constant": true
    },
    {
      "inputs": [
        {
          "internalType": "bytes32",
          "name": "role",
          "type": "bytes32"
        }
      ],
      "name": "getRoleAdmin",
      "outputs": [
        {
          "internalType": "bytes32",
          "name": "",
          "type": "bytes32"
        }
      ],
      "stateMutability": "view",
      "type": "function",
      "constant": true
    },
    {
      "inputs": [
        {
          "internalType": "bytes32",
          "name": "role",
          "type": "bytes32"
        },
        {
          "internalType": "uint256",
          "name": "index",
          "type": "uint256"
        }
      ],
      "name": "getRoleMember",
      "outputs": [
        {
          "internalType": "address",
          "name": "",
          "type": "address"
        }
      ],
      "stateMutability": "view",
      "type": "function",
      "constant": true
    },
    {
      "inputs": [
        {
          "internalType": "bytes32",
          "name": "role",
          "type": "bytes32"
        }
      ],
      "name": "getRoleMemberCount",
      "outputs": [
        {
          "internalType": "uint256",
          "name": "",
          "type": "uint256"
        }
      ],
      "stateMutability": "view",
      "type": "function",
      "constant": true
    },
    {
      "inputs": [
        {
          "internalType": "bytes32",
          "name": "role",
          "type": "bytes32"
        },
        {
          "internalType": "address",
          "name": "account",
          "type": "address"
        }
      ],
      "name": "grantRole",
      "outputs": [],
      "stateMutability": "nonpayable",
      "type": "function"
    },
    {
      "inputs": [
        {
          "internalType": "bytes32",
          "name": "role",
          "type": "bytes32"
        },
        {
          "internalType": "address",
          "name": "account",
          "type": "address"
        }
      ],
      "name": "hasRole",
      "outputs": [
        {
          "internalType": "bool",
          "name": "",
          "type": "bool"
        }
      ],
      "stateMutability": "view",
      "type": "function",
      "constant": true
    },
    {
      "inputs": [],
      "name": "isAccessRestriction",
      "outputs": [
        {
          "internalType": "bool",
          "name": "",
          "type": "bool"
        }
      ],
      "stateMutability": "view",
      "type": "function",
      "constant": true
    },
    {
      "inputs": [],
      "name": "paused",
      "outputs": [
        {
          "internalType": "bool",
          "name": "",
          "type": "bool"
        }
      ],
      "stateMutability": "view",
      "type": "function",
      "constant": true
    },
    {
      "inputs": [
        {
          "internalType": "bytes32",
          "name": "role",
          "type": "bytes32"
        },
        {
          "internalType": "address",
          "name": "account",
          "type": "address"
        }
      ],
      "name": "renounceRole",
      "outputs": [],
      "stateMutability": "nonpayable",
      "type": "function"
    },
    {
      "inputs": [
        {
          "internalType": "bytes32",
          "name": "role",
          "type": "bytes32"
        },
        {
          "internalType": "address",
          "name": "account",
          "type": "address"
        }
      ],
      "name": "revokeRole",
      "outputs": [],
      "stateMutability": "nonpayable",
      "type": "function"
    },
    {
      "inputs": [
        {
          "internalType": "address",
          "name": "_deployer",
          "type": "address"
        }
      ],
      "name": "initialize",
      "outputs": [],
      "stateMutability": "nonpayable",
      "type": "function"
    },
    {
      "inputs": [
        {
          "internalType": "address",
          "name": "_address",
          "type": "address"
        }
      ],
      "name": "ifPlanterOrAmbassador",
      "outputs": [],
      "stateMutability": "view",
      "type": "function",
      "constant": true
    },
    {
      "inputs": [
        {
          "internalType": "address",
          "name": "_address",
          "type": "address"
        }
      ],
      "name": "ifPlanter",
      "outputs": [],
      "stateMutability": "view",
      "type": "function",
      "constant": true
    },
    {
      "inputs": [
        {
          "internalType": "address",
          "name": "_address",
          "type": "address"
        }
      ],
      "name": "isPlanter",
      "outputs": [
        {
          "internalType": "bool",
          "name": "",
          "type": "bool"
        }
      ],
      "stateMutability": "view",
      "type": "function",
      "constant": true
    },
    {
      "inputs": [
        {
          "internalType": "address",
          "name": "_address",
          "type": "address"
        }
      ],
      "name": "ifAmbassador",
      "outputs": [],
      "stateMutability": "view",
      "type": "function",
      "constant": true
    },
    {
      "inputs": [
        {
          "internalType": "address",
          "name": "_address",
          "type": "address"
        }
      ],
      "name": "isAmbassador",
      "outputs": [
        {
          "internalType": "bool",
          "name": "",
          "type": "bool"
        }
      ],
      "stateMutability": "view",
      "type": "function",
      "constant": true
    },
    {
      "inputs": [
        {
          "internalType": "address",
          "name": "_address",
          "type": "address"
        }
      ],
      "name": "ifAdmin",
      "outputs": [],
      "stateMutability": "view",
      "type": "function",
      "constant": true
    },
    {
      "inputs": [],
      "name": "ifNotPaused",
      "outputs": [],
      "stateMutability": "view",
      "type": "function",
      "constant": true
    },
    {
      "inputs": [],
      "name": "ifPaused",
      "outputs": [],
      "stateMutability": "view",
      "type": "function",
      "constant": true
    },
    {
      "inputs": [],
      "name": "pause",
      "outputs": [],
      "stateMutability": "nonpayable",
      "type": "function"
    },
    {
      "inputs": [],
      "name": "unpause",
      "outputs": [],
      "stateMutability": "nonpayable",
      "type": "function"
    }
  ],
  "bytecode": "0x608060405234801561001057600080fd5b506112e0806100206000396000f3fe608060405234801561001057600080fd5b506004361061014d5760003560e01c80638456cb59116100c3578063ba84fd691161007c578063ba84fd6914610350578063c4d66de814610358578063ca15c8731461037e578063d547741f1461039b578063dac4d453146103c7578063f29bbde8146103ed5761014d565b80638456cb59146102895780639010d07c1461029157806391d14854146102d05780639ac0c6ac146102fc578063a217fddf14610322578063b2511fd81461032a5761014d565b80633f4ba83a116101155780633f4ba83a1461021d5780634d868f98146102255780635590f6011461022d5780635c975abb146102355780636dc1ccab1461023d5780638413ec14146102635761014d565b80630daa2e6614610152578063248a9ca31461016c5780632ea8de7f146101895780632f2ff15d146101c357806336568abe146101f1575b600080fd5b61015a6103f5565b60408051918252519081900360200190f35b61015a6004803603602081101561018257600080fd5b503561041c565b6101af6004803603602081101561019f57600080fd5b50356001600160a01b0316610431565b604080519115158252519081900360200190f35b6101ef600480360360408110156101d957600080fd5b50803590602001356001600160a01b0316610465565b005b6101ef6004803603604081101561020757600080fd5b50803590602001356001600160a01b03166104d1565b6101ef610532565b6101ef61058e565b6101ef6105db565b6101af61062b565b6101ef6004803603602081101561025357600080fd5b50356001600160a01b0316610634565b6101ef6004803603602081101561027957600080fd5b50356001600160a01b03166106b3565b6101ef610705565b6102b4600480360360408110156102a757600080fd5b508035906020013561075f565b604080516001600160a01b039092168252519081900360200190f35b6101af600480360360408110156102e657600080fd5b50803590602001356001600160a01b0316610784565b6101af6004803603602081101561031257600080fd5b50356001600160a01b03166107a2565b61015a6107d3565b6101ef6004803603602081101561034057600080fd5b50356001600160a01b03166107d8565b6101af610872565b6101ef6004803603602081101561036e57600080fd5b50356001600160a01b031661087b565b61015a6004803603602081101561039457600080fd5b5035610a0e565b6101ef600480360360408110156103b157600080fd5b50803590602001356001600160a01b0316610a25565b6101ef600480360360208110156103dd57600080fd5b50356001600160a01b0316610a7e565b61015a610afd565b604080516e414d4241535341444f525f524f4c4560881b8152905190819003600f01902081565b60009081526065602052604090206002015490565b604080516b504c414e5445525f524f4c4560a01b8152905190819003600c01902060009061045f9083610784565b92915050565b60008281526065602052604090206002015461048890610483610b21565b610784565b6104c35760405162461bcd60e51b815260040180806020018281038252602f8152602001806111ca602f913960400191505060405180910390fd5b6104cd8282610b25565b5050565b6104d9610b21565b6001600160a01b0316816001600160a01b0316146105285760405162461bcd60e51b815260040180806020018281038252602f81526020018061127c602f913960400191505060405180910390fd5b6104cd8282610b94565b61053d600033610784565b610584576040805162461bcd60e51b815260206004820152601360248201527221b0b63632b91034b9903737ba1030b236b4b760691b604482015290519081900360640190fd5b61058c610c03565b565b61059661062b565b1561058c576040805162461bcd60e51b815260206004820152601060248201526f14185d5cd8589b194e881c185d5cd95960821b604482015290519081900360640190fd5b6105e361062b565b61058c576040805162461bcd60e51b815260206004820152601460248201527314185d5cd8589b194e881b9bdd081c185d5cd95960621b604482015290519081900360640190fd5b60975460ff1690565b604080516b504c414e5445525f524f4c4560a01b8152905190819003600c01902061065f9082610784565b6106b0576040805162461bcd60e51b815260206004820152601760248201527f43616c6c6572206973206e6f74206120706c616e746572000000000000000000604482015290519081900360640190fd5b50565b6106be600082610784565b6106b0576040805162461bcd60e51b815260206004820152601360248201527221b0b63632b91034b9903737ba1030b236b4b760691b604482015290519081900360640190fd5b610710600033610784565b610757576040805162461bcd60e51b815260206004820152601360248201527221b0b63632b91034b9903737ba1030b236b4b760691b604482015290519081900360640190fd5b61058c610ca1565b600082815260656020526040812061077d908363ffffffff610d2216565b9392505050565b600082815260656020526040812061077d908363ffffffff610d2e16565b604080516e414d4241535341444f525f524f4c4560881b8152905190819003600f01902060009061045f9083610784565b600081565b604080516b504c414e5445525f524f4c4560a01b8152905190819003600c0190206108039082610784565b806108375750604080516e414d4241535341444f525f524f4c4560881b8152905190819003600f0190206108379082610784565b6106b05760405162461bcd60e51b81526004018080602001828103825260258152602001806112576025913960400191505060405180910390fd5b60c95460ff1681565b600054610100900460ff16806108945750610894610d43565b806108a2575060005460ff16155b6108dd5760405162461bcd60e51b815260040180806020018281038252602e815260200180611229602e913960400191505060405180910390fd5b600054610100900460ff16158015610908576000805460ff1961ff0019909116610100171660011790555b610910610d49565b610918610dfa565b60c9805460ff19166001179055610930600083610784565b61093f5761093f6000836104c3565b604080516b504c414e5445525f524f4c4560a01b8152905190819003600c01902061096a9083610784565b61099957604080516b504c414e5445525f524f4c4560a01b8152905190819003600c01902061099990836104c3565b604080516e414d4241535341444f525f524f4c4560881b8152905190819003600f0190206109c79083610784565b6109f957604080516e414d4241535341444f525f524f4c4560881b8152905190819003600f0190206109f990836104c3565b80156104cd576000805461ff00191690555050565b600081815260656020526040812061045f90610e97565b600082815260656020526040902060020154610a4390610483610b21565b6105285760405162461bcd60e51b81526004018080602001828103825260308152602001806111f96030913960400191505060405180910390fd5b604080516e414d4241535341444f525f524f4c4560881b8152905190819003600f019020610aac9082610784565b6106b0576040805162461bcd60e51b815260206004820152601a60248201527f43616c6c6572206973206e6f74206120616d6261737361646f72000000000000604482015290519081900360640190fd5b604080516b504c414e5445525f524f4c4560a01b8152905190819003600c01902081565b3390565b6000828152606560205260409020610b43908263ffffffff610ea216565b156104cd57610b50610b21565b6001600160a01b0316816001600160a01b0316837f2f8788117e7eff1d82e926ec794901d17c78024a50270940304540a733656f0d60405160405180910390a45050565b6000828152606560205260409020610bb2908263ffffffff610eb716565b156104cd57610bbf610b21565b6001600160a01b0316816001600160a01b0316837ff6391f5c32d9c69d2a47ea670b442974b53935d1edc7fd64eb21e047a839171b60405160405180910390a45050565b60975460ff16610c51576040805162461bcd60e51b815260206004820152601460248201527314185d5cd8589b194e881b9bdd081c185d5cd95960621b604482015290519081900360640190fd5b6097805460ff191690557f5db9ee0a495bf2e6ff9c91a7834c1ba4fdd244a5e8aa4e537bd38aeae4b073aa610c84610b21565b604080516001600160a01b039092168252519081900360200190a1565b60975460ff1615610cec576040805162461bcd60e51b815260206004820152601060248201526f14185d5cd8589b194e881c185d5cd95960821b604482015290519081900360640190fd5b6097805460ff191660011790557f62e78cea01bee320cd4e420270b5ea74000d11b0c9f74754ebdbfc544b05a258610c84610b21565b600061077d8383610ecc565b600061077d836001600160a01b038416610f30565b303b1590565b600054610100900460ff1680610d625750610d62610d43565b80610d70575060005460ff16155b610dab5760405162461bcd60e51b815260040180806020018281038252602e815260200180611229602e913960400191505060405180910390fd5b600054610100900460ff16158015610dd6576000805460ff1961ff0019909116610100171660011790555b610dde610f48565b610de6610f48565b80156106b0576000805461ff001916905550565b600054610100900460ff1680610e135750610e13610d43565b80610e21575060005460ff16155b610e5c5760405162461bcd60e51b815260040180806020018281038252602e815260200180611229602e913960400191505060405180910390fd5b600054610100900460ff16158015610e87576000805460ff1961ff0019909116610100171660011790555b610e8f610f48565b610de6610fe8565b600061045f82611093565b600061077d836001600160a01b038416611097565b600061077d836001600160a01b0384166110e1565b81546000908210610f0e5760405162461bcd60e51b81526004018080602001828103825260228152602001806111a86022913960400191505060405180910390fd5b826000018281548110610f1d57fe5b9060005260206000200154905092915050565b60009081526001919091016020526040902054151590565b600054610100900460ff1680610f615750610f61610d43565b80610f6f575060005460ff16155b610faa5760405162461bcd60e51b815260040180806020018281038252602e815260200180611229602e913960400191505060405180910390fd5b600054610100900460ff16158015610de6576000805460ff1961ff00199091166101001716600117905580156106b0576000805461ff001916905550565b600054610100900460ff16806110015750611001610d43565b8061100f575060005460ff16155b61104a5760405162461bcd60e51b815260040180806020018281038252602e815260200180611229602e913960400191505060405180910390fd5b600054610100900460ff16158015611075576000805460ff1961ff0019909116610100171660011790555b6097805460ff1916905580156106b0576000805461ff001916905550565b5490565b60006110a38383610f30565b6110d95750815460018181018455600084815260208082209093018490558454848252828601909352604090209190915561045f565b50600061045f565b6000818152600183016020526040812054801561119d578354600019808301919081019060009087908390811061111457fe5b906000526020600020015490508087600001848154811061113157fe5b60009182526020808320909101929092558281526001898101909252604090209084019055865487908061116157fe5b6001900381819060005260206000200160009055905586600101600087815260200190815260200160002060009055600194505050505061045f565b600091505061045f56fe456e756d657261626c655365743a20696e646578206f7574206f6620626f756e6473416363657373436f6e74726f6c3a2073656e646572206d75737420626520616e2061646d696e20746f206772616e74416363657373436f6e74726f6c3a2073656e646572206d75737420626520616e2061646d696e20746f207265766f6b65436f6e747261637420696e7374616e63652068617320616c7265616479206265656e20696e697469616c697a656443616c6c6572206973206e6f74206120706c616e746572206f7220616d6261737361646f72416363657373436f6e74726f6c3a2063616e206f6e6c792072656e6f756e636520726f6c657320666f722073656c66a26469706673582212202044071e89f28c2471abe5f971c42178b9148ca18602d086738e41a8dee7a22664736f6c63430006090033",
  "immutableReferences": {},
  "source": "// SPDX-License-Identifier: GPL-3.0\n\npragma solidity >=0.4.21 <0.7.0;\n\nimport \"../../node_modules/@openzeppelin/contracts-ethereum-package/contracts/access/AccessControl.sol\";\nimport \"../../node_modules/@openzeppelin/contracts-ethereum-package/contracts/utils/Pausable.sol\";\n\n\ncontract AccessRestriction is AccessControlUpgradeSafe, PausableUpgradeSafe {\n\n    bytes32 public constant PLANTER_ROLE = keccak256(\"PLANTER_ROLE\");\n    bytes32 public constant AMBASSADOR_ROLE = keccak256(\"AMBASSADOR_ROLE\");\n\n    // @dev Sanity check that allows us to ensure that we are pointing to the\n    //  right contract in our setUpdateFactoryAddress() call.\n    bool public isAccessRestriction;\n\n\n    function initialize(address _deployer) public initializer {  \n\n        AccessControlUpgradeSafe.__AccessControl_init();\n        PausableUpgradeSafe.__Pausable_init();\n\n        isAccessRestriction = true;\n\n        if(hasRole(DEFAULT_ADMIN_ROLE, _deployer) == false) {\n            _setupRole(DEFAULT_ADMIN_ROLE, _deployer);\n        }\n        if(hasRole(PLANTER_ROLE, _deployer) == false) {\n            _setupRole(PLANTER_ROLE, _deployer);\n        }\n        if(hasRole(AMBASSADOR_ROLE, _deployer) == false) {\n            _setupRole(AMBASSADOR_ROLE, _deployer);\n        }\n    }\n\n    modifier onlyOwnerOfTree(address _account)\n    {\n        require(msg.sender == _account, \"Sender not authorized, Only owner of tree authorized!\");\n        _;\n    }\n\n    modifier planterOrAmbassador()\n    {\n        require(hasRole(PLANTER_ROLE, msg.sender) ||\n                hasRole(AMBASSADOR_ROLE, msg.sender),\n                \"Caller is not a planter or ambassador\");\n        _;\n    }\n\n    modifier onlyPlanter()\n    {\n        require(hasRole(PLANTER_ROLE, msg.sender),\n                \"Caller is not a planter\");\n        _;\n    }\n\n    modifier onlyAmbassador()\n    {\n        require(hasRole(AMBASSADOR_ROLE, msg.sender),\n                \"Caller is not a ambassador\");\n        _;\n    }\n\n    modifier onlyAdmin()\n    {\n        require(hasRole(DEFAULT_ADMIN_ROLE, msg.sender),\n                \"Caller is not admin\");\n        _;\n    }\n\n    function ifPlanterOrAmbassador(address _address) public view {\n        require(hasRole(PLANTER_ROLE, _address) || hasRole(AMBASSADOR_ROLE, _address), \"Caller is not a planter or ambassador\");\n    }\n    \n    function ifPlanter(address _address) public view {\n        require(hasRole(PLANTER_ROLE, _address), \"Caller is not a planter\");\n    }\n\n    function isPlanter(address _address) public view returns(bool) {\n        return hasRole(PLANTER_ROLE, _address);\n    }\n\n    function ifAmbassador(address _address) public view {\n        require(hasRole(AMBASSADOR_ROLE, _address), \"Caller is not a ambassador\");\n    }\n\n    function isAmbassador(address _address) public view returns(bool) {\n        return hasRole(AMBASSADOR_ROLE, _address);\n    }\n\n    function ifAdmin(address _address) public view {\n        require(hasRole(DEFAULT_ADMIN_ROLE, _address), \"Caller is not admin\");\n    }\n\n    function ifNotPaused() public view {\n        require(!paused(), \"Pausable: paused\");\n    }\n\n    function ifPaused() public view {\n        require(paused(), \"Pausable: not paused\");\n    }\n\n    function pause() external onlyAdmin {\n        _pause();\n    }\n\n    function unpause() external onlyAdmin {\n        _unpause();\n    }\n\n\n\n}",
  "sourcePath": "/home/amir/Projects/treejer/contract/contracts/access/AccessRestriction.sol",
  "compiler": {
    "name": "solc",
    "version": "0.6.9+commit.3e3065ac.Emscripten.clang"
  },
  "schemaVersion": "3.2.3",
  "updatedAt": "2020-10-27T15:23:08.259Z",
  "networkType": "ethereum",
  "devdoc": {
    "methods": {
      "getRoleAdmin(bytes32)": {
        "details": "Returns the admin role that controls `role`. See {grantRole} and {revokeRole}. To change a role's admin, use {_setRoleAdmin}."
      },
      "getRoleMember(bytes32,uint256)": {
        "details": "Returns one of the accounts that have `role`. `index` must be a value between 0 and {getRoleMemberCount}, non-inclusive. Role bearers are not sorted in any particular way, and their ordering may change at any point. WARNING: When using {getRoleMember} and {getRoleMemberCount}, make sure you perform all queries on the same block. See the following https://forum.openzeppelin.com/t/iterating-over-elements-on-enumerableset-in-openzeppelin-contracts/2296[forum post] for more information."
      },
      "getRoleMemberCount(bytes32)": {
        "details": "Returns the number of accounts that have `role`. Can be used together with {getRoleMember} to enumerate all bearers of a role."
      },
      "grantRole(bytes32,address)": {
        "details": "Grants `role` to `account`. If `account` had not been already granted `role`, emits a {RoleGranted} event. Requirements: - the caller must have ``role``'s admin role."
      },
      "hasRole(bytes32,address)": {
        "details": "Returns `true` if `account` has been granted `role`."
      },
      "paused()": {
        "details": "Returns true if the contract is paused, and false otherwise."
      },
      "renounceRole(bytes32,address)": {
        "details": "Revokes `role` from the calling account. Roles are often managed via {grantRole} and {revokeRole}: this function's purpose is to provide a mechanism for accounts to lose their privileges if they are compromised (such as when a trusted device is misplaced). If the calling account had been granted `role`, emits a {RoleRevoked} event. Requirements: - the caller must be `account`."
      },
      "revokeRole(bytes32,address)": {
        "details": "Revokes `role` from `account`. If `account` had been granted `role`, emits a {RoleRevoked} event. Requirements: - the caller must have ``role``'s admin role."
      }
    }
  },
  "userdoc": {
    "methods": {}
  }
}