{
  "contractName": "ERC721HolderUpgradeable",
  "abi": [
    {
      "inputs": [
        {
          "internalType": "address",
          "name": "",
          "type": "address"
        },
        {
          "internalType": "address",
          "name": "",
          "type": "address"
        },
        {
          "internalType": "uint256",
          "name": "",
          "type": "uint256"
        },
        {
          "internalType": "bytes",
          "name": "",
          "type": "bytes"
        }
      ],
      "name": "onERC721Received",
      "outputs": [
        {
          "internalType": "bytes4",
          "name": "",
          "type": "bytes4"
        }
      ],
      "stateMutability": "nonpayable",
      "type": "function"
    }
  ],
  "bytecode": "0x608060405234801561001057600080fd5b50610159806100206000396000f3fe608060405234801561001057600080fd5b506004361061002b5760003560e01c8063150b7a0214610030575b600080fd5b6100f66004803603608081101561004657600080fd5b6001600160a01b0382358116926020810135909116916040820135919081019060808101606082013564010000000081111561008157600080fd5b82018360208201111561009357600080fd5b803590602001918460018302840111640100000000831117156100b557600080fd5b91908080601f016020809104026020016040519081016040528093929190818152602001838380828437600092019190915250929550610113945050505050565b604080516001600160e01b03199092168252519081900360200190f35b630a85bd0160e11b94935050505056fea264697066735822122090c3d7f38f0927846a6d65c3ede329e3f05574f6d60f3a4d2a176fdfcf2b55dd64736f6c634300060a0033",
  "immutableReferences": {},
  "source": "// SPDX-License-Identifier: MIT\n\npragma solidity >=0.6.0 <0.8.0;\n\nimport \"./IERC721ReceiverUpgradeable.sol\";\nimport \"../../proxy/Initializable.sol\";\n\n  /**\n   * @dev Implementation of the {IERC721Receiver} interface.\n   *\n   * Accepts all token transfers. \n   * Make sure the contract is able to use its token with {IERC721-safeTransferFrom}, {IERC721-approve} or {IERC721-setApprovalForAll}.\n   */\ncontract ERC721HolderUpgradeable is Initializable, IERC721ReceiverUpgradeable {\n    function __ERC721Holder_init() internal initializer {\n        __ERC721Holder_init_unchained();\n    }\n\n    function __ERC721Holder_init_unchained() internal initializer {\n    }\n\n    /**\n     * @dev See {IERC721Receiver-onERC721Received}.\n     *\n     * Always returns `IERC721Receiver.onERC721Received.selector`.\n     */\n    function onERC721Received(address, address, uint256, bytes memory) public virtual override returns (bytes4) {\n        return this.onERC721Received.selector;\n    }\n    uint256[50] private __gap;\n}\n",
  "sourcePath": "@openzeppelin/contracts-upgradeable/token/ERC721/ERC721HolderUpgradeable.sol",
  "compiler": {
    "name": "solc",
    "version": "0.6.10+commit.00c0fcaf.Emscripten.clang"
  },
  "schemaVersion": "3.3.3",
  "updatedAt": "2021-01-23T09:37:33.825Z",
  "devdoc": {
    "details": "Implementation of the {IERC721Receiver} interface. Accepts all token transfers.  Make sure the contract is able to use its token with {IERC721-safeTransferFrom}, {IERC721-approve} or {IERC721-setApprovalForAll}.",
    "methods": {
      "onERC721Received(address,address,uint256,bytes)": {
        "details": "See {IERC721Receiver-onERC721Received}. Always returns `IERC721Receiver.onERC721Received.selector`."
      }
    }
  },
  "userdoc": {
    "methods": {}
  }
}