{
  "contractName": "ERC721HolderUpgradeSafe",
  "abi": [
    {
      "inputs": [
        {
          "internalType": "address",
          "name": "",
          "type": "address"
        },
        {
          "internalType": "address",
          "name": "",
          "type": "address"
        },
        {
          "internalType": "uint256",
          "name": "",
          "type": "uint256"
        },
        {
          "internalType": "bytes",
          "name": "",
          "type": "bytes"
        }
      ],
      "name": "onERC721Received",
      "outputs": [
        {
          "internalType": "bytes4",
          "name": "",
          "type": "bytes4"
        }
      ],
      "stateMutability": "nonpayable",
      "type": "function"
    }
  ],
  "bytecode": "0x608060405234801561001057600080fd5b50610159806100206000396000f3fe608060405234801561001057600080fd5b506004361061002b5760003560e01c8063150b7a0214610030575b600080fd5b6100f66004803603608081101561004657600080fd5b6001600160a01b0382358116926020810135909116916040820135919081019060808101606082013564010000000081111561008157600080fd5b82018360208201111561009357600080fd5b803590602001918460018302840111640100000000831117156100b557600080fd5b91908080601f016020809104026020016040519081016040528093929190818152602001838380828437600092019190915250929550610113945050505050565b604080516001600160e01b03199092168252519081900360200190f35b630a85bd0160e11b94935050505056fea26469706673582212202c2cafc491f1ff02a9730fc47ade9d1e028317a3fc409b0a55b94c5f7914644264736f6c63430006090033",
  "immutableReferences": {},
  "source": "pragma solidity ^0.6.0;\n\nimport \"./IERC721Receiver.sol\";\nimport \"../../Initializable.sol\";\n\ncontract ERC721HolderUpgradeSafe is Initializable, IERC721Receiver {\n    function __ERC721Holder_init() internal initializer {\n        __ERC721Holder_init_unchained();\n    }\n\n    function __ERC721Holder_init_unchained() internal initializer {\n\n\n    }\n\n    function onERC721Received(address, address, uint256, bytes memory) public virtual override returns (bytes4) {\n        return this.onERC721Received.selector;\n    }\n\n    uint256[50] private __gap;\n}\n",
  "sourcePath": "/home/amir/Projects/treejer/contract/node_modules/@openzeppelin/contracts-ethereum-package/contracts/token/ERC721/ERC721Holder.sol",
  "compiler": {
    "name": "solc",
    "version": "0.6.9+commit.3e3065ac.Emscripten.clang"
  },
  "schemaVersion": "3.2.3",
  "updatedAt": "2020-12-26T10:45:25.524Z",
  "devdoc": {
    "methods": {}
  },
  "userdoc": {
    "methods": {}
  }
}