{
  "contractName": "ForestFactory",
  "abi": [
    {
      "anonymous": false,
      "inputs": [
        {
          "indexed": false,
          "internalType": "address",
          "name": "forestAddress",
          "type": "address"
        }
      ],
      "name": "PublicForestCreated",
      "type": "event"
    },
    {
      "inputs": [],
      "name": "accessRestriction",
      "outputs": [
        {
          "internalType": "contract IAccessRestriction",
          "name": "",
          "type": "address"
        }
      ],
      "stateMutability": "view",
      "type": "function",
      "constant": true
    },
    {
      "inputs": [
        {
          "internalType": "uint256",
          "name": "",
          "type": "uint256"
        }
      ],
      "name": "forests",
      "outputs": [
        {
          "internalType": "address",
          "name": "",
          "type": "address"
        }
      ],
      "stateMutability": "view",
      "type": "function",
      "constant": true
    },
    {
      "inputs": [],
      "name": "treeFactory",
      "outputs": [
        {
          "internalType": "contract ITreeFactory",
          "name": "",
          "type": "address"
        }
      ],
      "stateMutability": "view",
      "type": "function",
      "constant": true
    },
    {
      "inputs": [
        {
          "internalType": "address",
          "name": "_accessRestrictionAddress",
          "type": "address"
        }
      ],
      "name": "initialize",
      "outputs": [],
      "stateMutability": "nonpayable",
      "type": "function"
    },
    {
      "inputs": [
        {
          "internalType": "address",
          "name": "_address",
          "type": "address"
        }
      ],
      "name": "setTreeFactoryAddress",
      "outputs": [],
      "stateMutability": "nonpayable",
      "type": "function"
    },
    {
      "inputs": [],
      "name": "createPublicForest",
      "outputs": [],
      "stateMutability": "nonpayable",
      "type": "function"
    }
  ],
  "bytecode": "0x608060405234801561001057600080fd5b50610ced806100206000396000f3fe608060405234801561001057600080fd5b50600436106100625760003560e01c80630bf351f8146100675780632c4383161461008f578063421ef6d4146100c8578063c4d66de8146100d0578063cdb2c187146100f6578063d6762c4a146100fe575b600080fd5b61008d6004803603602081101561007d57600080fd5b50356001600160a01b0316610106565b005b6100ac600480360360208110156100a557600080fd5b50356101ff565b604080516001600160a01b039092168252519081900360200190f35b6100ac610226565b61008d600480360360208110156100e657600080fd5b50356001600160a01b0316610235565b61008d61036b565b6100ac6104e6565b60035460408051632104fb0560e21b815233600482015290516001600160a01b0390921691638413ec1491602480820192600092909190829003018186803b15801561015157600080fd5b505afa158015610165573d6000803e3d6000fd5b505050506000819050806001600160a01b031663e0eb4eb96040518163ffffffff1660e01b815260040160206040518083038186803b1580156101a757600080fd5b505afa1580156101bb573d6000803e3d6000fd5b505050506040513d60208110156101d157600080fd5b50516101dc57600080fd5b600280546001600160a01b0319166001600160a01b039290921691909117905550565b6001818154811061020c57fe5b6000918252602090912001546001600160a01b0316905081565b6002546001600160a01b031681565b600054610100900460ff168061024e575061024e6104f5565b8061025c575060005460ff16155b6102975760405162461bcd60e51b815260040180806020018281038252602e815260200180610c8a602e913960400191505060405180910390fd5b600054610100900460ff161580156102c2576000805460ff1961ff0019909116610100171660011790555b6000829050806001600160a01b031663ba84fd696040518163ffffffff1660e01b815260040160206040518083038186803b15801561030057600080fd5b505afa158015610314573d6000803e3d6000fd5b505050506040513d602081101561032a57600080fd5b505161033557600080fd5b600380546001600160a01b0319166001600160a01b03929092169190911790558015610367576000805461ff00191690555b5050565b60035460408051632104fb0560e21b815233600482015290516001600160a01b0390921691638413ec1491602480820192600092909190829003018186803b1580156103b657600080fd5b505afa1580156103ca573d6000803e3d6000fd5b5050505060006040516103dc906104fb565b604051809103906000f0801580156103f8573d6000803e3d6000fd5b506002546040805163189acdbd60e31b81526001600160a01b03928316600482015290519293509083169163c4d66de89160248082019260009290919082900301818387803b15801561044a57600080fd5b505af115801561045e573d6000803e3d6000fd5b50506001805480820182556000919091527fb10e2d527612073b26eecdfd717e6a320cf44b4afac2b0732d9fcbe2b7fa0cf60180546001600160a01b0385166001600160a01b0319909116811790915560408051918252517fdf9aaac2a1a5d1aa96529bee031a9ccd434937fc2ae0fc1fe9cb88b09bcd43949350908190036020019150a150565b6003546001600160a01b031681565b303b1590565b610781806105098339019056fe608060405234801561001057600080fd5b50610761806100206000396000f3fe60806040526004361061004e5760003560e01c8063150b7a0214610094578063421ef6d4146101845780639e0e83e8146101b5578063c4d66de8146101cc578063ed88c68e146101ff5761008f565b3661008f576040805133815234602082015281517f1bb460ccaaf70fbacfec17a376f8acbd278c1405590ffcc8ebe4b88daf4f64ad929181900390910190a1005b600080fd5b3480156100a057600080fd5b50610167600480360360808110156100b757600080fd5b6001600160a01b038235811692602081013590911691604082013591908101906080810160608201356401000000008111156100f257600080fd5b82018360208201111561010457600080fd5b8035906020019184600183028401116401000000008311171561012657600080fd5b91908080601f016020809104026020016040519081016040528093929190818152602001838380828437600092019190915250929550610207945050505050565b604080516001600160e01b03199092168252519081900360200190f35b34801561019057600080fd5b50610199610217565b604080516001600160a01b039092168252519081900360200190f35b3480156101c157600080fd5b506101ca610226565b005b3480156101d857600080fd5b506101ca600480360360208110156101ef57600080fd5b50356001600160a01b031661036b565b6101ca6104a0565b630a85bd0160e11b949350505050565b6033546001600160a01b031681565b6033546040805163501ad8ff60e11b8152905147926000926001600160a01b039091169163a035b1fe91600480820192602092909190829003018186803b15801561027057600080fd5b505afa158015610284573d6000803e3d6000fd5b505050506040513d602081101561029a57600080fd5b505190508082106103675760006102b7838363ffffffff61056e16565b90508015610365576033546001600160a01b031663ca1d209d6102e0838563ffffffff6105b916565b836040518363ffffffff1660e01b8152600401808281526020019150506000604051808303818588803b15801561031657600080fd5b505af115801561032a573d6000803e3d6000fd5b50506040805185815290517ff79c8802323c14e1c363227982616b5fcb3f5550566f13afeff9bd00bb0f9bd294509081900360200192509050a15b505b5050565b600054610100900460ff16806103845750610384610612565b80610392575060005460ff16155b6103cd5760405162461bcd60e51b815260040180806020018281038252602e8152602001806106dd602e913960400191505060405180910390fd5b600054610100900460ff161580156103f8576000805460ff1961ff0019909116610100171660011790555b6000829050806001600160a01b031663e0eb4eb96040518163ffffffff1660e01b815260040160206040518083038186803b15801561043657600080fd5b505afa15801561044a573d6000803e3d6000fd5b505050506040513d602081101561046057600080fd5b505161046b57600080fd5b603380546001600160a01b0319166001600160a01b03929092169190911790558015610367576000805461ff00191690555050565b600034116104df5760405162461bcd60e51b81526004018080602001828103825260228152602001806106bb6022913960400191505060405180910390fd5b6040805133815234602082015281517f1bb460ccaaf70fbacfec17a376f8acbd278c1405590ffcc8ebe4b88daf4f64ad929181900390910190a1306001600160a01b0316639e0e83e86040518163ffffffff1660e01b8152600401600060405180830381600087803b15801561055457600080fd5b505af1158015610568573d6000803e3d6000fd5b50505050565b60006105b083836040518060400160405280601a81526020017f536166654d6174683a206469766973696f6e206279207a65726f000000000000815250610618565b90505b92915050565b6000826105c8575060006105b3565b828202828482816105d557fe5b04146105b05760405162461bcd60e51b815260040180806020018281038252602181526020018061070b6021913960400191505060405180910390fd5b303b1590565b600081836106a45760405162461bcd60e51b81526004018080602001828103825283818151815260200191508051906020019080838360005b83811015610669578181015183820152602001610651565b50505050905090810190601f1680156106965780820380516001836020036101000a031916815260200191505b509250505060405180910390fd5b5060008385816106b057fe5b049594505050505056fe436f6e747269627574696f6e206d75737420626967676572207468616e207a65726f496e697469616c697a61626c653a20636f6e747261637420697320616c726561647920696e697469616c697a6564536166654d6174683a206d756c7469706c69636174696f6e206f766572666c6f77a26469706673582212207aaa86f73c482aad6e9a27b0a38e05d30b121ea9fe8378fdbfc206053ffdaa9664736f6c634300060a0033496e697469616c697a61626c653a20636f6e747261637420697320616c726561647920696e697469616c697a6564a2646970667358221220b011e986ffabab3a1e0684f1891263a37d5f0fef3df0d204db36c460bcfed5e764736f6c634300060a0033",
  "immutableReferences": {},
  "source": "// SPDX-License-Identifier: GPL-3.0\n\npragma solidity >=0.4.21 <0.7.0;\n\nimport \"@openzeppelin/contracts-upgradeable/proxy/Initializable.sol\";\n\nimport \"../access/IAccessRestriction.sol\";\nimport \"../tree/ITreeFactory.sol\";\nimport \"./PublicForest.sol\";\n\ncontract ForestFactory is Initializable {\n    event PublicForestCreated(address forestAddress);\n\n    address[] public forests;\n\n    ITreeFactory public treeFactory;\n    IAccessRestriction public accessRestriction;\n\n    function initialize(address _accessRestrictionAddress) public initializer {\n        IAccessRestriction candidateContract =\n            IAccessRestriction(_accessRestrictionAddress);\n        require(candidateContract.isAccessRestriction());\n        accessRestriction = candidateContract;\n    }\n\n    function setTreeFactoryAddress(address _address) external {\n        accessRestriction.ifAdmin(msg.sender);\n\n        ITreeFactory candidateContract = ITreeFactory(_address);\n        require(candidateContract.isTreeFactory());\n        treeFactory = candidateContract;\n    }\n\n    function createPublicForest() external {\n        accessRestriction.ifAdmin(msg.sender);\n\n        PublicForest newForest = new PublicForest();\n        newForest.initialize(address(treeFactory));\n\n        forests.push(address(newForest));\n\n        emit PublicForestCreated(address(newForest));\n    }\n}\n",
  "sourcePath": "/home/amir/Projects/treejer/contract/contracts/forest/ForestFactory.sol",
  "compiler": {
    "name": "solc",
    "version": "0.6.10+commit.00c0fcaf.Emscripten.clang"
  },
  "schemaVersion": "3.3.3",
  "updatedAt": "2021-01-23T09:51:18.792Z",
  "networkType": "ethereum",
  "devdoc": {
    "methods": {}
  },
  "userdoc": {
    "methods": {}
  }
}