{
  "contractName": "Forwarder",
  "abi": [
    {
      "inputs": [],
      "stateMutability": "nonpayable",
      "type": "constructor"
    },
    {
      "anonymous": false,
      "inputs": [
        {
          "indexed": true,
          "internalType": "bytes32",
          "name": "domainSeparator",
          "type": "bytes32"
        },
        {
          "indexed": false,
          "internalType": "bytes",
          "name": "domainValue",
          "type": "bytes"
        }
      ],
      "name": "DomainRegistered",
      "type": "event"
    },
    {
      "anonymous": false,
      "inputs": [
        {
          "indexed": true,
          "internalType": "bytes32",
          "name": "typeHash",
          "type": "bytes32"
        },
        {
          "indexed": false,
          "internalType": "string",
          "name": "typeStr",
          "type": "string"
        }
      ],
      "name": "RequestTypeRegistered",
      "type": "event"
    },
    {
      "inputs": [],
      "name": "EIP712_DOMAIN_TYPE",
      "outputs": [
        {
          "internalType": "string",
          "name": "",
          "type": "string"
        }
      ],
      "stateMutability": "view",
      "type": "function"
    },
    {
      "inputs": [],
      "name": "GENERIC_PARAMS",
      "outputs": [
        {
          "internalType": "string",
          "name": "",
          "type": "string"
        }
      ],
      "stateMutability": "view",
      "type": "function"
    },
    {
      "inputs": [
        {
          "internalType": "bytes32",
          "name": "",
          "type": "bytes32"
        }
      ],
      "name": "domains",
      "outputs": [
        {
          "internalType": "bool",
          "name": "",
          "type": "bool"
        }
      ],
      "stateMutability": "view",
      "type": "function"
    },
    {
      "inputs": [
        {
          "internalType": "bytes32",
          "name": "",
          "type": "bytes32"
        }
      ],
      "name": "typeHashes",
      "outputs": [
        {
          "internalType": "bool",
          "name": "",
          "type": "bool"
        }
      ],
      "stateMutability": "view",
      "type": "function"
    },
    {
      "stateMutability": "payable",
      "type": "receive"
    },
    {
      "inputs": [
        {
          "internalType": "address",
          "name": "from",
          "type": "address"
        }
      ],
      "name": "getNonce",
      "outputs": [
        {
          "internalType": "uint256",
          "name": "",
          "type": "uint256"
        }
      ],
      "stateMutability": "view",
      "type": "function"
    },
    {
      "inputs": [
        {
          "components": [
            {
              "internalType": "address",
              "name": "from",
              "type": "address"
            },
            {
              "internalType": "address",
              "name": "to",
              "type": "address"
            },
            {
              "internalType": "uint256",
              "name": "value",
              "type": "uint256"
            },
            {
              "internalType": "uint256",
              "name": "gas",
              "type": "uint256"
            },
            {
              "internalType": "uint256",
              "name": "nonce",
              "type": "uint256"
            },
            {
              "internalType": "bytes",
              "name": "data",
              "type": "bytes"
            }
          ],
          "internalType": "struct IForwarder.ForwardRequest",
          "name": "req",
          "type": "tuple"
        },
        {
          "internalType": "bytes32",
          "name": "domainSeparator",
          "type": "bytes32"
        },
        {
          "internalType": "bytes32",
          "name": "requestTypeHash",
          "type": "bytes32"
        },
        {
          "internalType": "bytes",
          "name": "suffixData",
          "type": "bytes"
        },
        {
          "internalType": "bytes",
          "name": "sig",
          "type": "bytes"
        }
      ],
      "name": "verify",
      "outputs": [],
      "stateMutability": "view",
      "type": "function"
    },
    {
      "inputs": [
        {
          "components": [
            {
              "internalType": "address",
              "name": "from",
              "type": "address"
            },
            {
              "internalType": "address",
              "name": "to",
              "type": "address"
            },
            {
              "internalType": "uint256",
              "name": "value",
              "type": "uint256"
            },
            {
              "internalType": "uint256",
              "name": "gas",
              "type": "uint256"
            },
            {
              "internalType": "uint256",
              "name": "nonce",
              "type": "uint256"
            },
            {
              "internalType": "bytes",
              "name": "data",
              "type": "bytes"
            }
          ],
          "internalType": "struct IForwarder.ForwardRequest",
          "name": "req",
          "type": "tuple"
        },
        {
          "internalType": "bytes32",
          "name": "domainSeparator",
          "type": "bytes32"
        },
        {
          "internalType": "bytes32",
          "name": "requestTypeHash",
          "type": "bytes32"
        },
        {
          "internalType": "bytes",
          "name": "suffixData",
          "type": "bytes"
        },
        {
          "internalType": "bytes",
          "name": "sig",
          "type": "bytes"
        }
      ],
      "name": "execute",
      "outputs": [
        {
          "internalType": "bool",
          "name": "success",
          "type": "bool"
        },
        {
          "internalType": "bytes",
          "name": "ret",
          "type": "bytes"
        }
      ],
      "stateMutability": "payable",
      "type": "function"
    },
    {
      "inputs": [
        {
          "internalType": "string",
          "name": "typeName",
          "type": "string"
        },
        {
          "internalType": "string",
          "name": "typeSuffix",
          "type": "string"
        }
      ],
      "name": "registerRequestType",
      "outputs": [],
      "stateMutability": "nonpayable",
      "type": "function"
    },
    {
      "inputs": [
        {
          "internalType": "string",
          "name": "name",
          "type": "string"
        },
        {
          "internalType": "string",
          "name": "version",
          "type": "string"
        }
      ],
      "name": "registerDomainSeparator",
      "outputs": [],
      "stateMutability": "nonpayable",
      "type": "function"
    },
    {
      "inputs": [
        {
          "components": [
            {
              "internalType": "address",
              "name": "from",
              "type": "address"
            },
            {
              "internalType": "address",
              "name": "to",
              "type": "address"
            },
            {
              "internalType": "uint256",
              "name": "value",
              "type": "uint256"
            },
            {
              "internalType": "uint256",
              "name": "gas",
              "type": "uint256"
            },
            {
              "internalType": "uint256",
              "name": "nonce",
              "type": "uint256"
            },
            {
              "internalType": "bytes",
              "name": "data",
              "type": "bytes"
            }
          ],
          "internalType": "struct IForwarder.ForwardRequest",
          "name": "req",
          "type": "tuple"
        },
        {
          "internalType": "bytes32",
          "name": "requestTypeHash",
          "type": "bytes32"
        },
        {
          "internalType": "bytes",
          "name": "suffixData",
          "type": "bytes"
        }
      ],
      "name": "_getEncoded",
      "outputs": [
        {
          "internalType": "bytes",
          "name": "",
          "type": "bytes"
        }
      ],
      "stateMutability": "pure",
      "type": "function"
    }
  ],
  "bytecode": "0x60806040523480156200001157600080fd5b5060606040518060800160405280604a8152602001620012ff604a9139604051602001620000409190620000d1565b60408051601f19818403018152919052905062000066816001600160e01b036200006d16565b506200017d565b8051602080830191909120600081815291829052604091829020805460ff19166001179055905181907f64d6bce64323458c44643c51fe45113efc882082f7b7fd5f09f0d69d2eedb20290620000c590859062000115565b60405180910390a25050565b60006e08cdee4eec2e4c8a4cae2eacae6e85608b1b82528251620000fd81600f8501602087016200014a565b602960f81b600f939091019283015250601001919050565b6000602082528251806020840152620001368160408501602087016200014a565b601f01601f19169190910160400192915050565b60005b83811015620001675781810151838201526020016200014d565b8381111562000177576000848401525b50505050565b611172806200018d6000396000f3fe6080604052600436106100955760003560e01c8063c3f28abd11610059578063c3f28abd14610168578063c45c26741461017d578063c722f1771461019d578063cdf5735a146101bd578063d9210be5146101de5761009c565b8063066a310c146100a157806321fe98df146100cc5780632d0335ab146100f9578063992d82c3146101265780639c7b4592146101485761009c565b3661009c57005b600080fd5b3480156100ad57600080fd5b506100b66101fe565b6040516100c39190610e4f565b60405180910390f35b3480156100d857600080fd5b506100ec6100e7366004610ae1565b61021a565b6040516100c39190610dd7565b34801561010557600080fd5b50610119610114366004610abf565b61022f565b6040516100c39190611040565b34801561013257600080fd5b50610146610141366004610b62565b61024a565b005b34801561015457600080fd5b50610146610163366004610af9565b6102d2565b34801561017457600080fd5b506100b66103b4565b34801561018957600080fd5b506100b6610198366004610c06565b6103d0565b3480156101a957600080fd5b506100ec6101b8366004610ae1565b610445565b6101d06101cb366004610b62565b61045a565b6040516100c3929190610de2565b3480156101ea57600080fd5b506101466101f9366004610af9565b6105c8565b6040518060800160405280604a81526020016110a1604a913981565b60006020819052908152604090205460ff1681565b6001600160a01b031660009081526002602052604090205490565b61025387610697565b6102c987878787878080601f01602080910402602001604051908101604052809392919081815260200183838082843760009201919091525050604080516020601f8b0181900481028201810190925289815292508991508890819084018382808284376000920191909152506106d692505050565b50505050505050565b600046905060606040518060800160405280605281526020016110eb60529139805190602001208686604051610309929190610cd7565b60405180910390208585604051610321929190610cd7565b60405190819003812061033c93929186903090602001610e05565b60408051601f198184030181528282528051602080830191909120600081815260019283905293909320805460ff1916909117905592509081907f4bc68689cbe89a4a6333a3ab0a70093874da3e5bfb71e93102027f3f073687d8906103a3908590610e4f565b60405180910390a250505050505050565b6040518060800160405280605281526020016110eb6052913981565b606082846000015185602001518660400151876060015188608001518960a001518051906020012060405160200161040d96959493929190610da1565b60408051601f198184030181529082905261042d92918590602001610c9c565b60405160208183030381529060405290509392505050565b60016020526000908152604090205460ff1681565b6000606061046789610697565b6104dd89898989898080601f01602080910402602001604051908101604052809392919081815260200183838082843760009201919091525050604080516020601f8d018190048102820181019092528b815292508b91508a90819084018382808284376000920191909152506106d692505050565b6104e6896107ba565b88602001516001600160a01b031689606001518a604001518b60a001518c60000151604051602001610519929190610d03565b60408051601f198184030181529082905261053391610ce7565b600060405180830381858888f193505050503d8060008114610571576040519150601f19603f3d011682016040523d82523d6000602084013e610576565b606091505b50909250905047156105bc5788516040516001600160a01b03909116904780156108fc02916000818181858888f193505050501580156105ba573d6000803e3d6000fd5b505b97509795505050505050565b60005b838110156106425760008585838181106105e157fe5b909101356001600160f81b031916915050600560fb1b81148015906106145750602960f81b6001600160f81b0319821614155b6106395760405162461bcd60e51b815260040161063090610ed0565b60405180910390fd5b506001016105cb565b50606084846040518060800160405280604a81526020016110a1604a91398585604051602001610676959493929190610d3a565b6040516020818303038152906040529050610690816107db565b5050505050565b608081015181516001600160a01b0316600090815260026020526040902054146106d35760405162461bcd60e51b815260040161063090610efa565b50565b60008481526001602052604090205460ff166107045760405162461bcd60e51b815260040161063090610f9b565b60008381526020819052604090205460ff166107325760405162461bcd60e51b815260040161063090610f64565b6000846107408786866103d0565b8051602091820120604051610756939201610d86565b60408051601f19818403018152919052805160209091012086519091506001600160a01b031661078c828463ffffffff61083d16565b6001600160a01b0316146107b25760405162461bcd60e51b815260040161063090611014565b505050505050565b516001600160a01b0316600090815260026020526040902080546001019055565b8051602080830191909120600081815291829052604091829020805460ff19166001179055905181907f64d6bce64323458c44643c51fe45113efc882082f7b7fd5f09f0d69d2eedb20290610831908590610e4f565b60405180910390a25050565b600081516041146108605760405162461bcd60e51b815260040161063090610e99565b60208201516040830151606084015160001a7f7fffffffffffffffffffffffffffffff5d576e7357a4501ddfe92f46681b20a08211156108b25760405162461bcd60e51b815260040161063090610f22565b8060ff16601b141580156108ca57508060ff16601c14155b156108e75760405162461bcd60e51b815260040161063090610fd2565b60006001878386866040516000815260200160405260405161090c9493929190610e31565b6020604051602081039080840390855afa15801561092e573d6000803e3d6000fd5b5050604051601f1901519150506001600160a01b0381166109615760405162461bcd60e51b815260040161063090610e62565b93505050505b92915050565b80356001600160a01b038116811461096757600080fd5b60008083601f840112610995578182fd5b50813567ffffffffffffffff8111156109ac578182fd5b6020830191508360208285010111156109c457600080fd5b9250929050565b600082601f8301126109db578081fd5b813567ffffffffffffffff8111156109f1578182fd5b610a04601f8201601f1916602001611049565b9150808252836020828501011115610a1b57600080fd5b8060208401602084013760009082016020015292915050565b600060c08284031215610a45578081fd5b610a4f60c0611049565b9050610a5b838361096d565b8152610a6a836020840161096d565b602082015260408201356040820152606082013560608201526080820135608082015260a082013567ffffffffffffffff811115610aa757600080fd5b610ab3848285016109cb565b60a08301525092915050565b600060208284031215610ad0578081fd5b610ada838361096d565b9392505050565b600060208284031215610af2578081fd5b5035919050565b60008060008060408587031215610b0e578283fd5b843567ffffffffffffffff80821115610b25578485fd5b610b3188838901610984565b90965094506020870135915080821115610b49578384fd5b50610b5687828801610984565b95989497509550505050565b600080600080600080600060a0888a031215610b7c578283fd5b873567ffffffffffffffff80821115610b93578485fd5b610b9f8b838c01610a34565b985060208a0135975060408a0135965060608a0135915080821115610bc2578485fd5b610bce8b838c01610984565b909650945060808a0135915080821115610be6578384fd5b50610bf38a828b01610984565b989b979a50959850939692959293505050565b600080600060608486031215610c1a578283fd5b833567ffffffffffffffff80821115610c31578485fd5b610c3d87838801610a34565b9450602086013593506040860135915080821115610c59578283fd5b50610c66868287016109cb565b9150509250925092565b60008151808452610c88816020860160208601611070565b601f01601f19169290920160200192915050565b60008482528351610cb4816020850160208801611070565b8351908301610cca826020808401908801611070565b0160200195945050505050565b6000828483379101908152919050565b60008251610cf9818460208701611070565b9190910192915050565b60008351610d15818460208801611070565b60609390931b6bffffffffffffffffffffffff19169190920190815260140192915050565b600085878337600560fb1b8287019081528551610d5e816001840160208a01611070565b808201600b60fa1b600182015285876002830137909401600201918252509695505050505050565b61190160f01b81526002810192909252602282015260420190565b6001600160a01b03968716815294909516602085015260408401929092526060830152608082015260a081019190915260c00190565b901515815260200190565b6000831515825260406020830152610dfd6040830184610c70565b949350505050565b9485526020850193909352604084019190915260608301526001600160a01b0316608082015260a00190565b93845260ff9290921660208401526040830152606082015260800190565b600060208252610ada6020830184610c70565b60208082526018908201527f45434453413a20696e76616c6964207369676e61747572650000000000000000604082015260600190565b6020808252601f908201527f45434453413a20696e76616c6964207369676e6174757265206c656e67746800604082015260600190565b60208082526010908201526f696e76616c696420747970656e616d6560801b604082015260600190565b6020808252600e908201526d0dcdedcc6ca40dad2e6dac2e8c6d60931b604082015260600190565b60208082526022908201527f45434453413a20696e76616c6964207369676e6174757265202773272076616c604082015261756560f01b606082015260800190565b6020808252601d908201527f756e726567697374657265642072657175657374207479706568617368000000604082015260600190565b6020808252601d908201527f756e7265676973746572656420646f6d61696e20736570617261746f72000000604082015260600190565b60208082526022908201527f45434453413a20696e76616c6964207369676e6174757265202776272076616c604082015261756560f01b606082015260800190565b6020808252601290820152710e6d2cedcc2e8eae4ca40dad2e6dac2e8c6d60731b604082015260600190565b90815260200190565b60405181810167ffffffffffffffff8111828210171561106857600080fd5b604052919050565b60005b8381101561108b578181015183820152602001611073565b8381111561109a576000848401525b5050505056fe616464726573732066726f6d2c6164647265737320746f2c75696e743235362076616c75652c75696e74323536206761732c75696e74323536206e6f6e63652c62797465732064617461454950373132446f6d61696e28737472696e67206e616d652c737472696e672076657273696f6e2c75696e7432353620636861696e49642c6164647265737320766572696679696e67436f6e747261637429a2646970667358221220e22eeec6d280f14e3975ae5070a0ad7453f427bdbf0013fc76acdb2787d0521664736f6c634300060a0033616464726573732066726f6d2c6164647265737320746f2c75696e743235362076616c75652c75696e74323536206761732c75696e74323536206e6f6e63652c62797465732064617461",
  "immutableReferences": {},
  "source": "// SPDX-License-Identifier:MIT\npragma solidity ^0.6.2;\npragma experimental ABIEncoderV2;\n\nimport \"@openzeppelin/contracts/cryptography/ECDSA.sol\";\nimport \"./IForwarder.sol\";\n\ncontract Forwarder is IForwarder {\n    using ECDSA for bytes32;\n\n    string public constant GENERIC_PARAMS = \"address from,address to,uint256 value,uint256 gas,uint256 nonce,bytes data\";\n\n    string public constant EIP712_DOMAIN_TYPE = \"EIP712Domain(string name,string version,uint256 chainId,address verifyingContract)\";\n\n    mapping(bytes32 => bool) public typeHashes;\n    mapping(bytes32 => bool) public domains;\n\n    // Nonces of senders, used to prevent replay attacks\n    mapping(address => uint256) private nonces;\n\n    // solhint-disable-next-line no-empty-blocks\n    receive() external payable {}\n\n    function getNonce(address from)\n    public view override\n    returns (uint256) {\n        return nonces[from];\n    }\n\n    constructor() public {\n\n        string memory requestType = string(abi.encodePacked(\"ForwardRequest(\", GENERIC_PARAMS, \")\"));\n        registerRequestTypeInternal(requestType);\n    }\n\n    function verify(\n        ForwardRequest memory req,\n        bytes32 domainSeparator,\n        bytes32 requestTypeHash,\n        bytes calldata suffixData,\n        bytes calldata sig)\n    external override view {\n\n        _verifyNonce(req);\n        _verifySig(req, domainSeparator, requestTypeHash, suffixData, sig);\n    }\n\n    function execute(\n        ForwardRequest memory req,\n        bytes32 domainSeparator,\n        bytes32 requestTypeHash,\n        bytes calldata suffixData,\n        bytes calldata sig\n    )\n    external payable\n    override\n    returns (bool success, bytes memory ret) {\n        _verifyNonce(req);\n        _verifySig(req, domainSeparator, requestTypeHash, suffixData, sig);\n        _updateNonce(req);\n\n        // solhint-disable-next-line avoid-low-level-calls\n        (success,ret) = req.to.call{gas : req.gas, value : req.value}(abi.encodePacked(req.data, req.from));\n        if ( address(this).balance>0 ) {\n            //can't fail: req.from signed (off-chain) the request, so it must be an EOA...\n            payable(req.from).transfer(address(this).balance);\n        }\n        return (success,ret);\n    }\n\n\n    function _verifyNonce(ForwardRequest memory req) internal view {\n        require(nonces[req.from] == req.nonce, \"nonce mismatch\");\n    }\n\n    function _updateNonce(ForwardRequest memory req) internal {\n        nonces[req.from]++;\n    }\n\n    function registerRequestType(string calldata typeName, string calldata typeSuffix) external override {\n\n        for (uint i = 0; i < bytes(typeName).length; i++) {\n            bytes1 c = bytes(typeName)[i];\n            require(c != \"(\" && c != \")\", \"invalid typename\");\n        }\n\n        string memory requestType = string(abi.encodePacked(typeName, \"(\", GENERIC_PARAMS, \",\", typeSuffix));\n        registerRequestTypeInternal(requestType);\n    }\n\n    function registerDomainSeparator(string calldata name, string calldata version) external override {\n        uint256 chainId;\n        /* solhint-disable-next-line no-inline-assembly */\n        assembly { chainId := chainid() }\n\n        bytes memory domainValue = abi.encode(\n            keccak256(bytes(EIP712_DOMAIN_TYPE)),\n            keccak256(bytes(name)),\n            keccak256(bytes(version)),\n            chainId,\n            address(this));\n\n        bytes32 domainHash = keccak256(domainValue);\n\n        domains[domainHash] = true;\n        emit DomainRegistered(domainHash, domainValue);\n    }\n\n    function registerRequestTypeInternal(string memory requestType) internal {\n\n        bytes32 requestTypehash = keccak256(bytes(requestType));\n        typeHashes[requestTypehash] = true;\n        emit RequestTypeRegistered(requestTypehash, requestType);\n    }\n\n    event DomainRegistered(bytes32 indexed domainSeparator, bytes domainValue);\n\n    event RequestTypeRegistered(bytes32 indexed typeHash, string typeStr);\n\n\n    function _verifySig(\n        ForwardRequest memory req,\n        bytes32 domainSeparator,\n        bytes32 requestTypeHash,\n        bytes memory suffixData,\n        bytes memory sig)\n    internal\n    view\n    {\n        require(domains[domainSeparator], \"unregistered domain separator\");\n        require(typeHashes[requestTypeHash], \"unregistered request typehash\");\n        bytes32 digest = keccak256(abi.encodePacked(\n                \"\\x19\\x01\", domainSeparator,\n                keccak256(_getEncoded(req, requestTypeHash, suffixData))\n            ));\n        require(digest.recover(sig) == req.from, \"signature mismatch\");\n    }\n\n    function _getEncoded(\n        ForwardRequest memory req,\n        bytes32 requestTypeHash,\n        bytes memory suffixData\n    )\n    public\n    pure\n    returns (\n        bytes memory\n    ) {\n        return abi.encodePacked(\n            requestTypeHash,\n            abi.encode(\n                req.from,\n                req.to,\n                req.value,\n                req.gas,\n                req.nonce,\n                keccak256(req.data)\n            ),\n            suffixData\n        );\n    }\n}\n",
  "sourcePath": "@opengsn/gsn/contracts/forwarder/Forwarder.sol",
  "compiler": {
    "name": "solc",
    "version": "0.6.10+commit.00c0fcaf.Emscripten.clang"
  },
  "schemaVersion": "3.3.3",
  "updatedAt": "2021-01-23T09:37:33.759Z",
  "devdoc": {
    "methods": {}
  },
  "userdoc": {
    "methods": {}
  }
}