{
  "contractName": "GBFactory",
  "abi": [
    {
      "anonymous": false,
      "inputs": [
        {
          "indexed": false,
          "internalType": "uint256",
          "name": "id",
          "type": "uint256"
        }
      ],
      "name": "GBActivated",
      "type": "event"
    },
    {
      "anonymous": false,
      "inputs": [
        {
          "indexed": false,
          "internalType": "uint256",
          "name": "id",
          "type": "uint256"
        },
        {
          "indexed": false,
          "internalType": "string",
          "name": "title",
          "type": "string"
        }
      ],
      "name": "NewGBAdded",
      "type": "event"
    },
    {
      "anonymous": false,
      "inputs": [
        {
          "indexed": false,
          "internalType": "uint256",
          "name": "id",
          "type": "uint256"
        },
        {
          "indexed": false,
          "internalType": "address",
          "name": "planter",
          "type": "address"
        }
      ],
      "name": "PlanterJoinedGB",
      "type": "event"
    },
    {
      "inputs": [],
      "name": "accessRestriction",
      "outputs": [
        {
          "internalType": "contract AccessRestriction",
          "name": "",
          "type": "address"
        }
      ],
      "stateMutability": "view",
      "type": "function",
      "constant": true
    },
    {
      "inputs": [
        {
          "internalType": "uint256",
          "name": "",
          "type": "uint256"
        }
      ],
      "name": "gbToAmbassador",
      "outputs": [
        {
          "internalType": "address",
          "name": "",
          "type": "address"
        }
      ],
      "stateMutability": "view",
      "type": "function",
      "constant": true
    },
    {
      "inputs": [
        {
          "internalType": "uint256",
          "name": "",
          "type": "uint256"
        },
        {
          "internalType": "uint256",
          "name": "",
          "type": "uint256"
        }
      ],
      "name": "gbToPlanters",
      "outputs": [
        {
          "internalType": "address",
          "name": "",
          "type": "address"
        }
      ],
      "stateMutability": "view",
      "type": "function",
      "constant": true
    },
    {
      "inputs": [
        {
          "internalType": "uint256",
          "name": "",
          "type": "uint256"
        }
      ],
      "name": "greenBlocks",
      "outputs": [
        {
          "internalType": "string",
          "name": "title",
          "type": "string"
        },
        {
          "internalType": "string",
          "name": "coordinates",
          "type": "string"
        },
        {
          "internalType": "enum GBFactory.GBStatus",
          "name": "status",
          "type": "uint8"
        }
      ],
      "stateMutability": "view",
      "type": "function",
      "constant": true
    },
    {
      "inputs": [],
      "name": "isGBFactory",
      "outputs": [
        {
          "internalType": "bool",
          "name": "",
          "type": "bool"
        }
      ],
      "stateMutability": "view",
      "type": "function",
      "constant": true
    },
    {
      "inputs": [
        {
          "internalType": "address",
          "name": "",
          "type": "address"
        }
      ],
      "name": "planterGB",
      "outputs": [
        {
          "internalType": "uint256",
          "name": "",
          "type": "uint256"
        }
      ],
      "stateMutability": "view",
      "type": "function",
      "constant": true
    },
    {
      "inputs": [
        {
          "internalType": "address",
          "name": "_accessRestrictionAddress",
          "type": "address"
        }
      ],
      "name": "initialize",
      "outputs": [],
      "stateMutability": "nonpayable",
      "type": "function"
    },
    {
      "inputs": [
        {
          "internalType": "string",
          "name": "_title",
          "type": "string"
        },
        {
          "internalType": "string",
          "name": "_coordinates",
          "type": "string"
        },
        {
          "internalType": "address",
          "name": "_ambassador",
          "type": "address"
        },
        {
          "internalType": "address[]",
          "name": "_planters",
          "type": "address[]"
        }
      ],
      "name": "create",
      "outputs": [],
      "stateMutability": "nonpayable",
      "type": "function"
    },
    {
      "inputs": [
        {
          "internalType": "address",
          "name": "_ambassador",
          "type": "address"
        }
      ],
      "name": "getAmbassadorGBCount",
      "outputs": [
        {
          "internalType": "uint256",
          "name": "",
          "type": "uint256"
        }
      ],
      "stateMutability": "view",
      "type": "function",
      "constant": true
    },
    {
      "inputs": [
        {
          "internalType": "uint256",
          "name": "_gbId",
          "type": "uint256"
        }
      ],
      "name": "getGBAmbassador",
      "outputs": [
        {
          "internalType": "address",
          "name": "",
          "type": "address"
        }
      ],
      "stateMutability": "view",
      "type": "function",
      "constant": true
    },
    {
      "inputs": [
        {
          "internalType": "address",
          "name": "_ambassador",
          "type": "address"
        }
      ],
      "name": "getAmbassadorGBs",
      "outputs": [
        {
          "internalType": "uint256[]",
          "name": "",
          "type": "uint256[]"
        }
      ],
      "stateMutability": "view",
      "type": "function",
      "constant": true
    },
    {
      "inputs": [
        {
          "internalType": "uint256",
          "name": "_gbId",
          "type": "uint256"
        }
      ],
      "name": "getGB",
      "outputs": [
        {
          "internalType": "string",
          "name": "",
          "type": "string"
        },
        {
          "internalType": "string",
          "name": "",
          "type": "string"
        },
        {
          "internalType": "enum GBFactory.GBStatus",
          "name": "",
          "type": "uint8"
        }
      ],
      "stateMutability": "view",
      "type": "function",
      "constant": true
    },
    {
      "inputs": [
        {
          "internalType": "uint256",
          "name": "_gbId",
          "type": "uint256"
        }
      ],
      "name": "activate",
      "outputs": [],
      "stateMutability": "nonpayable",
      "type": "function"
    },
    {
      "inputs": [
        {
          "internalType": "uint256",
          "name": "_gbId",
          "type": "uint256"
        },
        {
          "internalType": "address",
          "name": "planter",
          "type": "address"
        }
      ],
      "name": "joinGB",
      "outputs": [],
      "stateMutability": "nonpayable",
      "type": "function"
    },
    {
      "inputs": [],
      "name": "totalGB",
      "outputs": [
        {
          "internalType": "uint256",
          "name": "",
          "type": "uint256"
        }
      ],
      "stateMutability": "view",
      "type": "function",
      "constant": true
    }
  ],
  "bytecode": "0x608060405234801561001057600080fd5b506112a9806100206000396000f3fe608060405234801561001057600080fd5b50600436106100f55760003560e01c8063c4d66de811610097578063dc04c95911610066578063dc04c95914610203578063dfe065bc14610216578063eddcc58b14610229578063f836c8e014610231576100f5565b8063c4d66de8146101c2578063c76611fe146101d5578063d6762c4a146101e8578063d6f1f96a146101f0576100f5565b80634cff2b0f116100d35780634cff2b0f146101655780637ca1d2f61461017a578063b19f7af61461019a578063b260c42a146101ad576100f5565b80634024f370146100fa57806345b15312146101235780634674886b14610143575b600080fd5b61010d610108366004610eda565b610244565b60405161011a9190611205565b60405180910390f35b610136610131366004610eda565b61025f565b60405161011a91906110b7565b610156610151366004610ff3565b6102cb565b60405161011a93929190611106565b61016d610458565b60405161011a91906110fb565b61018d610188366004611037565b610461565b60405161011a91906110a3565b61010d6101a8366004610eda565b610496565b6101c06101bb366004610ff3565b6104a8565b005b6101c06101d0366004610eda565b6105db565b61018d6101e3366004610ff3565b610710565b61018d61072b565b61018d6101fe366004610ff3565b61073a565b6101c0610211366004610f1c565b610755565b610156610224366004610ff3565b610b0f565b61010d610c66565b6101c061023f36600461100b565b610c6d565b6001600160a01b031660009081526038602052604090205490565b6001600160a01b0381166000908152603960209081526040918290208054835181840281018401909452808452606093928301828280156102bf57602002820191906000526020600020905b8154815260200190600101908083116102ab575b50505050509050919050565b6060806000603484815481106102dd57fe5b9060005260206000209060030201600001603485815481106102fb57fe5b90600052602060002090600302016001016034868154811061031957fe5b60009182526020918290206002600390920201810154845460408051601f6000196001851615610100020190931694909404918201859004850284018501905280835260ff909116928591908301828280156103b65780601f1061038b576101008083540402835291602001916103b6565b820191906000526020600020905b81548152906001019060200180831161039957829003601f168201915b5050855460408051602060026001851615610100026000190190941693909304601f8101849004840282018401909252818152959850879450925084019050828280156104445780601f1061041957610100808354040283529160200191610444565b820191906000526020600020905b81548152906001019060200180831161042757829003601f168201915b505050505091509250925092509193909250565b60335460ff1681565b6035602052816000526040600020818154811061047a57fe5b6000918252602090912001546001600160a01b03169150829050565b60366020526000908152604090205481565b603a54604051632104fb0560e21b81526001600160a01b0390911690638413ec14906104d89033906004016110a3565b60006040518083038186803b1580156104f057600080fd5b505afa158015610504573d6000803e3d6000fd5b5060019250610511915050565b6034828154811061051e57fe5b600091825260209091206002600390920201015460ff16600181111561054057fe5b14156105675760405162461bcd60e51b815260040161055e906111d9565b60405180910390fd5b60016034828154811061057657fe5b60009182526020909120600260039092020101805460ff19166001838181111561059c57fe5b02179055507f4adeb3818195a413c2596f3d00779157c33e838590dbd18f2e925568a62b8266816040516105d09190611205565b60405180910390a150565b600054610100900460ff16806105f457506105f4610dd8565b80610602575060005460ff16155b61061e5760405162461bcd60e51b815260040161055e9061118b565b600054610100900460ff16158015610649576000805460ff1961ff0019909116610100171660011790555b6033805460ff191660011790556040805163ba84fd6960e01b8152905183916001600160a01b0383169163ba84fd6991600480820192602092909190829003018186803b15801561069957600080fd5b505afa1580156106ad573d6000803e3d6000fd5b505050506040513d601f19601f820116820180604052508101906106d19190610efc565b6106da57600080fd5b603a80546001600160a01b0319166001600160a01b0392909216919091179055801561070c576000805461ff00191690555b5050565b6000908152603760205260409020546001600160a01b031690565b603a546001600160a01b031681565b6037602052600090815260409020546001600160a01b031681565b603a60009054906101000a90046001600160a01b03166001600160a01b0316634d868f986040518163ffffffff1660e01b815260040160006040518083038186803b1580156107a357600080fd5b505afa1580156107b7573d6000803e3d6000fd5b5050603a5460405163164a23fb60e31b81526001600160a01b03909116925063b2511fd891506107eb9033906004016110a3565b60006040518083038186803b15801561080357600080fd5b505afa158015610817573d6000803e3d6000fd5b505050506034604051806060016040528089898080601f016020809104026020016040519081016040528093929190818152602001838380828437600092019190915250505090825250604080516020601f8a0181900481028201810190925288815291810191908990899081908401838280828437600092018290525093855250505060209182018190528354600181018555938152819020825180519394600302909101926108cb9284920190610dde565b5060208281015180516108e49260018501920190610dde565b50604082015160028201805460ff19166001838181111561090157fe5b02179055505060345460001901905060005b60ff8116831115610a7257603a546001600160a01b0316632ea8de7f858560ff851681811061093e57fe5b90506020020160208101906109539190610eda565b6040518263ffffffff1660e01b815260040161096f91906110a3565b60206040518083038186803b15801561098757600080fd5b505afa15801561099b573d6000803e3d6000fd5b505050506040513d601f19601f820116820180604052508101906109bf9190610efc565b15610a6a576000828152603560205260409020848460ff84168181106109e157fe5b90506020020160208101906109f69190610eda565b81546001810183556000928352602083200180546001600160a01b0319166001600160a01b03929092169190911790558290603690868660ff8616818110610a3a57fe5b9050602002016020810190610a4f9190610eda565b6001600160a01b031681526020810191909152604001600020555b600101610913565b50600081815260376020908152604080832080546001600160a01b0319166001600160a01b03891690811790915583526038825280832080546001908101909155603983528184208054918201815584529190922001829055517f69edcd8f027d69da8f4d4c342db4c2b8ed9f3662514b8e5d90ea159df55aefed90610afd9083908b908b90611225565b60405180910390a15050505050505050565b60348181548110610b1c57fe5b60009182526020918290206003919091020180546040805160026001841615610100026000190190931692909204601f810185900485028301850190915280825291935091839190830182828015610bb55780601f10610b8a57610100808354040283529160200191610bb5565b820191906000526020600020905b815481529060010190602001808311610b9857829003601f168201915b505050505090806001018054600181600116156101000203166002900480601f016020809104026020016040519081016040528092919081815260200182805460018160011615610100020316600290048015610c535780601f10610c2857610100808354040283529160200191610c53565b820191906000526020600020905b815481529060010190602001808311610c3657829003601f168201915b5050506002909301549192505060ff1683565b6034545b90565b603a60009054906101000a90046001600160a01b03166001600160a01b0316634d868f986040518163ffffffff1660e01b815260040160006040518083038186803b158015610cbb57600080fd5b505afa158015610ccf573d6000803e3d6000fd5b5050603a54604051636dc1ccab60e01b81526001600160a01b039091169250636dc1ccab9150610d039033906004016110a3565b60006040518083038186803b158015610d1b57600080fd5b505afa158015610d2f573d6000803e3d6000fd5b5050506000838152603560205260409020546005119050610d625760405162461bcd60e51b815260040161055e90611146565b60008281526035602090815260408083208054600181018255908452919092200180546001600160a01b0319166001600160a01b038416179055517f113f7835c809ac6fd6e6a25d8bf7ea1dc2b6c19c57e57ec5bd4638eda27e3f8890610dcc908490849061120e565b60405180910390a15050565b303b1590565b828054600181600116156101000203166002900490600052602060002090601f016020900481019282601f10610e1f57805160ff1916838001178555610e4c565b82800160010185558215610e4c579182015b82811115610e4c578251825591602001919060010190610e31565b50610e58929150610e5c565b5090565b610c6a91905b80821115610e585760008155600101610e62565b80356001600160a01b0381168114610e8d57600080fd5b92915050565b60008083601f840112610ea4578182fd5b50813567ffffffffffffffff811115610ebb578182fd5b602083019150836020828501011115610ed357600080fd5b9250929050565b600060208284031215610eeb578081fd5b610ef58383610e76565b9392505050565b600060208284031215610f0d578081fd5b81518015158114610ef5578182fd5b60008060008060008060006080888a031215610f36578283fd5b873567ffffffffffffffff80821115610f4d578485fd5b610f598b838c01610e93565b909950975060208a0135915080821115610f71578485fd5b610f7d8b838c01610e93565b909750955060408a01359150610f928261125b565b90935060608901359080821115610fa7578384fd5b818a018b601f820112610fb8578485fd5b8035925081831115610fc8578485fd5b8b60208085028301011115610fdb578485fd5b60208101945050508091505092959891949750929550565b600060208284031215611004578081fd5b5035919050565b6000806040838503121561101d578182fd5b8235915061102e8460208501610e76565b90509250929050565b60008060408385031215611049578182fd5b50508035926020909101359150565b60008151808452815b8181101561107d57602081850181015186830182015201611061565b8181111561108e5782602083870101525b50601f01601f19169290920160200192915050565b6001600160a01b0391909116815260200190565b6020808252825182820181905260009190848201906040850190845b818110156110ef578351835292840192918401916001016110d3565b50909695505050505050565b901515815260200190565b6000606082526111196060830186611058565b828103602084015261112b8186611058565b9150506002831061113857fe5b826040830152949350505050565b60208082526025908201527f506c616e746572206f6620746869732047422069732072656163686564206d6160408201526478696d756d60d81b606082015260800190565b6020808252602e908201527f436f6e747261637420696e7374616e63652068617320616c726561647920626560408201526d195b881a5b9a5d1a585b1a5e995960921b606082015260800190565b602080825260129082015271474220616c7265616479206163746976652160701b604082015260600190565b90815260200190565b9182526001600160a01b0316602082015260400190565b60008482526040602083015282604083015282846060840137818301606090810191909152601f909201601f1916010192915050565b6001600160a01b038116811461127057600080fd5b5056fea26469706673582212206117cc38eaa094091a21ce74c5d7031e600d8500028b5b624e16897930ed09f964736f6c63430006090033",
  "immutableReferences": {},
  "source": "// SPDX-License-Identifier: GPL-3.0\n\npragma solidity >=0.4.21 <0.7.0;\npragma experimental ABIEncoderV2;\n\nimport \"../access/AccessRestriction.sol\";\nimport \"../../node_modules/@openzeppelin/contracts-ethereum-package/contracts/Initializable.sol\";\n\n\ncontract GBFactory is Initializable {\n    event NewGBAdded(uint256 id, string title);\n    event GBActivated(uint256 id);\n    event PlanterJoinedGB(uint256 id, address planter);\n\n    enum GBStatus { Pending, Active }\n\n    // @dev Sanity check that allows us to ensure that we are pointing to the\n    //  right auction in our setGBAddress() call.\n    bool public isGBFactory;\n\n    //@todo must change coordinates\n    struct GB {\n        string title;\n        string coordinates;\n        GBStatus status;\n    }\n\n    GB[] public greenBlocks;\n    uint8 constant maxGBPlantersCount = 5;\n\n    mapping(uint256 => address[]) public gbToPlanters;\n    mapping(address => uint256) public planterGB;\n    \n    mapping(uint256 => address) public gbToAmbassador;\n    mapping(address => uint256) ambassadorGBCount;\n    mapping(address => uint256[]) ambassadorGBs;\n\n    AccessRestriction public accessRestriction;\n\n    function initialize(address _accessRestrictionAddress) public initializer {\n        isGBFactory = true;\n        AccessRestriction candidateContract = AccessRestriction(_accessRestrictionAddress);\n        require(candidateContract.isAccessRestriction());\n        accessRestriction = candidateContract;\n    }\n\n    function create(\n        string calldata _title,\n        string calldata _coordinates,\n        address _ambassador,\n        address[] calldata _planters\n    ) external {\n\n        accessRestriction.ifNotPaused();\n        accessRestriction.ifPlanterOrAmbassador(msg.sender);\n\n        greenBlocks.push(GB(_title, _coordinates, GBStatus.Pending));\n        uint256 id = greenBlocks.length - 1;\n\n        for (uint8 i = 0; i < _planters.length; i++) {\n            if(accessRestriction.isPlanter(_planters[i])) {\n                gbToPlanters[id].push(_planters[i]);\n                planterGB[_planters[i]] = id;\n\n            }\n        }\n\n        gbToAmbassador[id] = _ambassador;\n        ambassadorGBCount[_ambassador]++;\n        ambassadorGBs[_ambassador].push(id);\n        \n        emit NewGBAdded(id, _title);\n    }\n\n    function getAmbassadorGBCount(address _ambassador) external view returns (uint256) {\n        return ambassadorGBCount[_ambassador];\n    }\n\n    function getGBAmbassador(uint256 _gbId) external view returns (address) {\n        return gbToAmbassador[_gbId];\n    }\n\n    function getAmbassadorGBs(address _ambassador) external view returns(uint256[] memory) {\n        return ambassadorGBs[_ambassador];\n    }\n\n    function getGB(uint256 _gbId)\n        public\n        view\n        returns (\n            string memory,\n            string memory,\n            GBStatus\n        )\n    {\n        return (\n            greenBlocks[_gbId].title,\n            greenBlocks[_gbId].coordinates,\n            greenBlocks[_gbId].status\n        );\n    }\n\n    function activate(uint256 _gbId) external {\n        accessRestriction.ifAdmin(msg.sender);\n\n\n        require(greenBlocks[_gbId].status != GBStatus.Active, \"GB already active!\");\n\n        greenBlocks[_gbId].status = GBStatus.Active;\n\n        emit GBActivated(_gbId);\n    }\n\n    function joinGB(uint256 _gbId, address planter) external {\n        accessRestriction.ifNotPaused();\n        accessRestriction.ifPlanter(msg.sender);\n\n        require(gbToPlanters[_gbId].length < maxGBPlantersCount, \"Planter of this GB is reached maximum\");\n\n        gbToPlanters[_gbId].push(planter);\n\n        emit PlanterJoinedGB(_gbId, planter);\n    }\n\n    function totalGB() external view returns(uint256) {\n        return greenBlocks.length;\n    }\n\n    //@todo premission must check only ambassedor or planters or admin\n    // function updateGB(uint256 _gbId) public external {\n\n    // }\n}\n",
  "sourcePath": "/home/amir/Projects/treejer/contract/contracts/greenblock/GBFactory.sol",
  "compiler": {
    "name": "solc",
    "version": "0.6.9+commit.3e3065ac.Emscripten.clang"
  },
  "schemaVersion": "3.2.3",
  "updatedAt": "2020-10-27T15:23:08.268Z",
  "networkType": "ethereum",
  "devdoc": {
    "methods": {}
  },
  "userdoc": {
    "methods": {}
  }
}