{
  "contractName": "GBFactory",
  "abi": [
    {
      "anonymous": false,
      "inputs": [
        {
          "indexed": false,
          "internalType": "uint256",
          "name": "id",
          "type": "uint256"
        }
      ],
      "name": "GBActivated",
      "type": "event"
    },
    {
      "anonymous": false,
      "inputs": [
        {
          "indexed": false,
          "internalType": "uint256",
          "name": "id",
          "type": "uint256"
        },
        {
          "indexed": false,
          "internalType": "string",
          "name": "title",
          "type": "string"
        }
      ],
      "name": "NewGBAdded",
      "type": "event"
    },
    {
      "anonymous": false,
      "inputs": [
        {
          "indexed": false,
          "internalType": "uint256",
          "name": "id",
          "type": "uint256"
        },
        {
          "indexed": false,
          "internalType": "address",
          "name": "planter",
          "type": "address"
        }
      ],
      "name": "PlanterJoinedGB",
      "type": "event"
    },
    {
      "inputs": [],
      "name": "accessRestriction",
      "outputs": [
        {
          "internalType": "contract IAccessRestriction",
          "name": "",
          "type": "address"
        }
      ],
      "stateMutability": "view",
      "type": "function",
      "constant": true
    },
    {
      "inputs": [
        {
          "internalType": "address",
          "name": "",
          "type": "address"
        }
      ],
      "name": "ambassadorGBCount",
      "outputs": [
        {
          "internalType": "uint256",
          "name": "",
          "type": "uint256"
        }
      ],
      "stateMutability": "view",
      "type": "function",
      "constant": true
    },
    {
      "inputs": [
        {
          "internalType": "address",
          "name": "",
          "type": "address"
        },
        {
          "internalType": "uint256",
          "name": "",
          "type": "uint256"
        }
      ],
      "name": "ambassadorGBs",
      "outputs": [
        {
          "internalType": "uint256",
          "name": "",
          "type": "uint256"
        }
      ],
      "stateMutability": "view",
      "type": "function",
      "constant": true
    },
    {
      "inputs": [
        {
          "internalType": "uint256",
          "name": "",
          "type": "uint256"
        }
      ],
      "name": "gbToAmbassador",
      "outputs": [
        {
          "internalType": "address",
          "name": "",
          "type": "address"
        }
      ],
      "stateMutability": "view",
      "type": "function",
      "constant": true
    },
    {
      "inputs": [
        {
          "internalType": "uint256",
          "name": "",
          "type": "uint256"
        },
        {
          "internalType": "uint256",
          "name": "",
          "type": "uint256"
        }
      ],
      "name": "gbToPlanters",
      "outputs": [
        {
          "internalType": "address",
          "name": "",
          "type": "address"
        }
      ],
      "stateMutability": "view",
      "type": "function",
      "constant": true
    },
    {
      "inputs": [
        {
          "internalType": "uint256",
          "name": "",
          "type": "uint256"
        }
      ],
      "name": "greenBlocks",
      "outputs": [
        {
          "internalType": "string",
          "name": "title",
          "type": "string"
        },
        {
          "internalType": "string",
          "name": "coordinates",
          "type": "string"
        },
        {
          "internalType": "bool",
          "name": "status",
          "type": "bool"
        }
      ],
      "stateMutability": "view",
      "type": "function",
      "constant": true
    },
    {
      "inputs": [],
      "name": "isGBFactory",
      "outputs": [
        {
          "internalType": "bool",
          "name": "",
          "type": "bool"
        }
      ],
      "stateMutability": "view",
      "type": "function",
      "constant": true
    },
    {
      "inputs": [
        {
          "internalType": "address",
          "name": "",
          "type": "address"
        }
      ],
      "name": "planterGB",
      "outputs": [
        {
          "internalType": "uint256",
          "name": "",
          "type": "uint256"
        }
      ],
      "stateMutability": "view",
      "type": "function",
      "constant": true
    },
    {
      "inputs": [
        {
          "internalType": "address",
          "name": "_accessRestrictionAddress",
          "type": "address"
        }
      ],
      "name": "initialize",
      "outputs": [],
      "stateMutability": "nonpayable",
      "type": "function"
    },
    {
      "inputs": [
        {
          "internalType": "string",
          "name": "_title",
          "type": "string"
        },
        {
          "internalType": "string",
          "name": "_coordinates",
          "type": "string"
        },
        {
          "internalType": "address",
          "name": "_ambassador",
          "type": "address"
        },
        {
          "internalType": "address[]",
          "name": "_planters",
          "type": "address[]"
        }
      ],
      "name": "create",
      "outputs": [],
      "stateMutability": "nonpayable",
      "type": "function"
    },
    {
      "inputs": [
        {
          "internalType": "uint256",
          "name": "_gbId",
          "type": "uint256"
        }
      ],
      "name": "getGBPlantersCount",
      "outputs": [
        {
          "internalType": "uint256",
          "name": "",
          "type": "uint256"
        }
      ],
      "stateMutability": "view",
      "type": "function",
      "constant": true
    },
    {
      "inputs": [
        {
          "internalType": "address",
          "name": "_ambassador",
          "type": "address"
        }
      ],
      "name": "getAmbassadorGBs",
      "outputs": [
        {
          "internalType": "uint256[]",
          "name": "",
          "type": "uint256[]"
        }
      ],
      "stateMutability": "view",
      "type": "function",
      "constant": true
    },
    {
      "inputs": [
        {
          "internalType": "uint256",
          "name": "_gbId",
          "type": "uint256"
        }
      ],
      "name": "activate",
      "outputs": [],
      "stateMutability": "nonpayable",
      "type": "function"
    },
    {
      "inputs": [
        {
          "internalType": "uint256",
          "name": "_gbId",
          "type": "uint256"
        }
      ],
      "name": "joinGB",
      "outputs": [],
      "stateMutability": "nonpayable",
      "type": "function"
    },
    {
      "inputs": [],
      "name": "totalGB",
      "outputs": [
        {
          "internalType": "uint256",
          "name": "",
          "type": "uint256"
        }
      ],
      "stateMutability": "view",
      "type": "function",
      "constant": true
    }
  ],
  "bytecode": "0x608060405234801561001057600080fd5b50611280806100206000396000f3fe608060405234801561001057600080fd5b50600436106100f55760003560e01c8063b19f7af611610097578063d6f1f96a11610066578063d6f1f96a146101f4578063dc04c95914610207578063dfe065bc1461021a578063eddcc58b1461023c576100f5565b8063b19f7af6146101b3578063b260c42a146101c6578063c4d66de8146101d9578063d6762c4a146101ec576100f5565b806345b15312116100d357806345b15312146101495780634cff2b0f14610169578063629ed0b71461017e5780637ca1d2f614610193576100f5565b8063211d2383146100fa57806327d052d7146101235780633714e07f14610136575b600080fd5b61010d610108366004610e5c565b610244565b60405161011a91906111dc565b60405180910390f35b61010d610131366004610e7e565b610256565b61010d610144366004610f9f565b610284565b61015c610157366004610e5c565b610296565b60405161011a9190611037565b610171610302565b60405161011a919061107b565b61019161018c366004610f9f565b61030b565b005b6101a66101a1366004610fb7565b6104d3565b60405161011a9190611023565b61010d6101c1366004610e5c565b610508565b6101916101d4366004610f9f565b61051a565b6101916101e7366004610e5c565b610626565b6101a6610821565b6101a6610202366004610f9f565b610830565b610191610215366004610ec8565b61084b565b61022d610228366004610f9f565b610bfc565b60405161011a93929190611086565b61010d610d53565b606a6020526000908152604090205481565b606b602052816000526040600020818154811061026f57fe5b90600052602060002001600091509150505481565b60009081526067602052604090205490565b6001600160a01b0381166000908152606b60209081526040918290208054835181840281018401909452808452606093928301828280156102f657602002820191906000526020600020905b8154815260200190600101908083116102e2575b50505050509050919050565b60655460ff1681565b606c60009054906101000a90046001600160a01b03166001600160a01b0316634d868f986040518163ffffffff1660e01b815260040160006040518083038186803b15801561035957600080fd5b505afa15801561036d573d6000803e3d6000fd5b5050606c54604051636dc1ccab60e01b81526001600160a01b039091169250636dc1ccab91506103a1903390600401611023565b60006040518083038186803b1580156103b957600080fd5b505afa1580156103cd573d6000803e3d6000fd5b50505060008281526067602052604090205460051190506104095760405162461bcd60e51b8152600401610400906110f5565b60405180910390fd5b600081116104295760405162461bcd60e51b8152600401610400906110be565b33600090815260686020526040902054156104565760405162461bcd60e51b81526004016104009061113a565b600081815260676020908152604080832080546001810182559084528284200180546001600160a01b0319163390811790915580845260689092529182902083905590517f113f7835c809ac6fd6e6a25d8bf7ea1dc2b6c19c57e57ec5bd4638eda27e3f88916104c8918491906111e5565b60405180910390a150565b606760205281600052604060002081815481106104ec57fe5b6000918252602090912001546001600160a01b03169150829050565b60686020526000908152604090205481565b606c54604051632104fb0560e21b81526001600160a01b0390911690638413ec149061054a903390600401611023565b60006040518083038186803b15801561056257600080fd5b505afa158015610576573d6000803e3d6000fd5b505050506066818154811061058757fe5b600091825260209091206002600390920201015460ff161515600114156105c05760405162461bcd60e51b8152600401610400906111b0565b6001606682815481106105cf57fe5b906000526020600020906003020160020160006101000a81548160ff0219169083151502179055507f4adeb3818195a413c2596f3d00779157c33e838590dbd18f2e925568a62b8266816040516104c891906111dc565b600054610100900460ff168061063f575061063f610d5a565b8061064d575060005460ff16155b6106695760405162461bcd60e51b815260040161040090611162565b600054610100900460ff16158015610694576000805460ff1961ff0019909116610100171660011790555b6065805460ff191660011790556040805163ba84fd6960e01b8152905183916001600160a01b0383169163ba84fd6991600480820192602092909190829003018186803b1580156106e457600080fd5b505afa1580156106f8573d6000803e3d6000fd5b505050506040513d601f19601f8201168201806040525081019061071c9190610ea8565b61072557600080fd5b606c80546001600160a01b0383166001600160a01b03199091161790556040805160a0810182526005606082019081526415d3d4931160da1b608083015281528151808301835260038082526210531360ea1b6020838101919091528084019290925260019383018490526066805494850181556000528251805193949091027f46501879b8ca8525e8c2fd519e2fbfcfa2ebea26501294aa02cbfcfb12e9435401926107d59284920190610d60565b5060208281015180516107ee9260018501920190610d60565b50604091909101516002909101805460ff191691151591909117905550801561081d576000805461ff00191690555b5050565b606c546001600160a01b031681565b6069602052600090815260409020546001600160a01b031681565b606c60009054906101000a90046001600160a01b03166001600160a01b0316634d868f986040518163ffffffff1660e01b815260040160006040518083038186803b15801561089957600080fd5b505afa1580156108ad573d6000803e3d6000fd5b5050606c5460405163164a23fb60e31b81526001600160a01b03909116925063b2511fd891506108e1903390600401611023565b60006040518083038186803b1580156108f957600080fd5b505afa15801561090d573d6000803e3d6000fd5b505050506066604051806060016040528089898080601f016020809104026020016040519081016040528093929190818152602001838380828437600092019190915250505090825250604080516020601f8a0181900481028201810190925288815291810191908990899081908401838280828437600092018290525093855250505060209182018190528354600181018555938152819020825180519394600302909101926109c19284920190610d60565b5060208281015180516109da9260018501920190610d60565b50604091909101516002909101805460ff19169115159190911790556066546000190160005b60ff8116831115610b5f57606c546001600160a01b0316632ea8de7f858560ff8516818110610a2b57fe5b9050602002016020810190610a409190610e5c565b6040518263ffffffff1660e01b8152600401610a5c9190611023565b60206040518083038186803b158015610a7457600080fd5b505afa158015610a88573d6000803e3d6000fd5b505050506040513d601f19601f82011682018060405250810190610aac9190610ea8565b15610b57576000828152606760205260409020848460ff8416818110610ace57fe5b9050602002016020810190610ae39190610e5c565b81546001810183556000928352602083200180546001600160a01b0319166001600160a01b03929092169190911790558290606890868660ff8616818110610b2757fe5b9050602002016020810190610b3c9190610e5c565b6001600160a01b031681526020810191909152604001600020555b600101610a00565b50600081815260696020908152604080832080546001600160a01b0319166001600160a01b0389169081179091558352606a825280832080546001908101909155606b83528184208054918201815584529190922001829055517f69edcd8f027d69da8f4d4c342db4c2b8ed9f3662514b8e5d90ea159df55aefed90610bea9083908b908b906111fc565b60405180910390a15050505050505050565b60668181548110610c0957fe5b60009182526020918290206003919091020180546040805160026001841615610100026000190190931692909204601f810185900485028301850190915280825291935091839190830182828015610ca25780601f10610c7757610100808354040283529160200191610ca2565b820191906000526020600020905b815481529060010190602001808311610c8557829003601f168201915b505050505090806001018054600181600116156101000203166002900480601f016020809104026020016040519081016040528092919081815260200182805460018160011615610100020316600290048015610d405780601f10610d1557610100808354040283529160200191610d40565b820191906000526020600020905b815481529060010190602001808311610d2357829003601f168201915b5050506002909301549192505060ff1683565b6066545b90565b303b1590565b828054600181600116156101000203166002900490600052602060002090601f016020900481019282601f10610da157805160ff1916838001178555610dce565b82800160010185558215610dce579182015b82811115610dce578251825591602001919060010190610db3565b50610dda929150610dde565b5090565b610d5791905b80821115610dda5760008155600101610de4565b80356001600160a01b0381168114610e0f57600080fd5b92915050565b60008083601f840112610e26578182fd5b50813567ffffffffffffffff811115610e3d578182fd5b602083019150836020828501011115610e5557600080fd5b9250929050565b600060208284031215610e6d578081fd5b610e778383610df8565b9392505050565b60008060408385031215610e90578081fd5b610e9a8484610df8565b946020939093013593505050565b600060208284031215610eb9578081fd5b81518015158114610e77578182fd5b60008060008060008060006080888a031215610ee2578283fd5b873567ffffffffffffffff80821115610ef9578485fd5b610f058b838c01610e15565b909950975060208a0135915080821115610f1d578485fd5b610f298b838c01610e15565b909750955060408a01359150610f3e82611232565b90935060608901359080821115610f53578384fd5b818a018b601f820112610f64578485fd5b8035925081831115610f74578485fd5b8b60208085028301011115610f87578485fd5b60208101945050508091505092959891949750929550565b600060208284031215610fb0578081fd5b5035919050565b60008060408385031215610fc9578182fd5b50508035926020909101359150565b60008151808452815b81811015610ffd57602081850181015186830182015201610fe1565b8181111561100e5782602083870101525b50601f01601f19169290920160200192915050565b6001600160a01b0391909116815260200190565b6020808252825182820181905260009190848201906040850190845b8181101561106f57835183529284019291840191600101611053565b50909695505050505050565b901515815260200190565b6000606082526110996060830186610fd8565b82810360208401526110ab8186610fd8565b9150508215156040830152949350505050565b6020808252601a908201527f596f752063616e2774206a6f696e20666f72207a65726f206762000000000000604082015260600190565b60208082526025908201527f506c616e746572206f6620746869732047422069732072656163686564206d6160408201526478696d756d60d81b606082015260800190565b6020808252600e908201526d4a6f696e6564206265666f72652160901b604082015260600190565b6020808252602e908201527f436f6e747261637420696e7374616e63652068617320616c726561647920626560408201526d195b881a5b9a5d1a585b1a5e995960921b606082015260800190565b602080825260129082015271474220616c7265616479206163746976652160701b604082015260600190565b90815260200190565b9182526001600160a01b0316602082015260400190565b60008482526040602083015282604083015282846060840137818301606090810191909152601f909201601f1916010192915050565b6001600160a01b038116811461124757600080fd5b5056fea2646970667358221220aa4e63f4d9650229ee4d7ce367a0ad3c86afe5a8654a173f2ddccf36a5958cfd64736f6c63430006090033",
  "immutableReferences": {},
  "source": "// SPDX-License-Identifier: GPL-3.0\n\npragma solidity >=0.4.21 <0.7.0;\npragma experimental ABIEncoderV2;\n\nimport \"../access/IAccessRestriction.sol\";\nimport \"../../node_modules/@openzeppelin/contracts-ethereum-package/contracts/Initializable.sol\";\nimport \"../../node_modules/@openzeppelin/contracts-ethereum-package/contracts/GSN/Context.sol\";\n\ncontract GBFactory is Initializable, ContextUpgradeSafe {\n    event NewGBAdded(uint256 id, string title);\n    event GBActivated(uint256 id);\n    event PlanterJoinedGB(uint256 id, address planter);\n\n    bool public isGBFactory;\n\n    //@todo must change coordinates\n    struct GB {\n        string title;\n        string coordinates;\n        bool status;\n    }\n\n    GB[] public greenBlocks;\n    uint8 constant maxGBPlantersCount = 5;\n\n    mapping(uint256 => address[]) public gbToPlanters;\n    mapping(address => uint256) public planterGB;\n\n    mapping(uint256 => address) public gbToAmbassador;\n    mapping(address => uint256) public ambassadorGBCount;\n    mapping(address => uint256[]) public ambassadorGBs;\n\n    IAccessRestriction public accessRestriction;\n\n    function initialize(address _accessRestrictionAddress) public initializer {\n        isGBFactory = true;\n        IAccessRestriction candidateContract =\n            IAccessRestriction(_accessRestrictionAddress);\n        require(candidateContract.isAccessRestriction());\n        accessRestriction = candidateContract;\n\n        //create a green block, so we can check for zero green block means not assigned\n        greenBlocks.push(GB(\"WORLD\", \"ALL\", true));\n    }\n\n    function create(\n        string calldata _title,\n        string calldata _coordinates,\n        address _ambassador,\n        address[] calldata _planters\n    ) external {\n        accessRestriction.ifNotPaused();\n        accessRestriction.ifPlanterOrAmbassador(msg.sender);\n\n        greenBlocks.push(GB(_title, _coordinates, false));\n        uint256 id = greenBlocks.length - 1;\n\n        for (uint8 i = 0; i < _planters.length; i++) {\n            if (accessRestriction.isPlanter(_planters[i])) {\n                gbToPlanters[id].push(_planters[i]);\n                planterGB[_planters[i]] = id;\n            }\n        }\n\n        gbToAmbassador[id] = _ambassador;\n        ambassadorGBCount[_ambassador]++;\n        ambassadorGBs[_ambassador].push(id);\n\n        emit NewGBAdded(id, _title);\n    }\n\n    function getGBPlantersCount(uint256 _gbId) external view returns (uint256) {\n        return gbToPlanters[_gbId].length;\n    }\n\n    function getAmbassadorGBs(address _ambassador)\n        external\n        view\n        returns (uint256[] memory)\n    {\n        return ambassadorGBs[_ambassador];\n    }\n\n    function activate(uint256 _gbId) external {\n        accessRestriction.ifAdmin(msg.sender);\n\n        require(\n            greenBlocks[_gbId].status != true,\n            \"GB already active!\"\n        );\n\n        greenBlocks[_gbId].status = true;\n\n        emit GBActivated(_gbId);\n    }\n\n    function joinGB(uint256 _gbId) external {\n        accessRestriction.ifNotPaused();\n        accessRestriction.ifPlanter(msg.sender);\n\n        require(\n            gbToPlanters[_gbId].length < maxGBPlantersCount,\n            \"Planter of this GB is reached maximum\"\n        );\n        require(_gbId > 0, \"You can't join for zero gb\");\n\n        require(planterGB[msg.sender] == 0, \"Joined before!\");\n\n        gbToPlanters[_gbId].push(msg.sender);\n        planterGB[msg.sender] = _gbId;\n\n        emit PlanterJoinedGB(_gbId, msg.sender);\n    }\n\n    function totalGB() external view returns (uint256) {\n        return greenBlocks.length;\n    }\n\n    //@todo premission must check only ambassedor or planters or admin\n    // function updateGB(uint256 _gbId) public external {\n\n    // }\n}\n",
  "sourcePath": "/home/amir/Projects/treejer/contract/contracts/greenblock/GBFactory.sol",
  "compiler": {
    "name": "solc",
    "version": "0.6.9+commit.3e3065ac.Emscripten.clang"
  },
  "schemaVersion": "3.2.3",
  "updatedAt": "2020-12-26T11:36:26.788Z",
  "networkType": "ethereum",
  "devdoc": {
    "methods": {}
  },
  "userdoc": {
    "methods": {}
  }
}