{
  "contractName": "GBFactory",
  "abi": [
    {
      "anonymous": false,
      "inputs": [
        {
          "indexed": false,
          "internalType": "uint256",
          "name": "id",
          "type": "uint256"
        }
      ],
      "name": "GBActivated",
      "type": "event"
    },
    {
      "anonymous": false,
      "inputs": [
        {
          "indexed": false,
          "internalType": "uint256",
          "name": "id",
          "type": "uint256"
        },
        {
          "indexed": false,
          "internalType": "string",
          "name": "title",
          "type": "string"
        }
      ],
      "name": "NewGBAdded",
      "type": "event"
    },
    {
      "anonymous": false,
      "inputs": [
        {
          "indexed": false,
          "internalType": "uint256",
          "name": "id",
          "type": "uint256"
        },
        {
          "indexed": false,
          "internalType": "address",
          "name": "planter",
          "type": "address"
        }
      ],
      "name": "PlanterJoinedGB",
      "type": "event"
    },
    {
      "inputs": [],
      "name": "accessRestriction",
      "outputs": [
        {
          "internalType": "contract IAccessRestriction",
          "name": "",
          "type": "address"
        }
      ],
      "stateMutability": "view",
      "type": "function",
      "constant": true
    },
    {
      "inputs": [
        {
          "internalType": "address",
          "name": "",
          "type": "address"
        }
      ],
      "name": "ambassadorGBCount",
      "outputs": [
        {
          "internalType": "uint256",
          "name": "",
          "type": "uint256"
        }
      ],
      "stateMutability": "view",
      "type": "function",
      "constant": true
    },
    {
      "inputs": [
        {
          "internalType": "address",
          "name": "",
          "type": "address"
        },
        {
          "internalType": "uint256",
          "name": "",
          "type": "uint256"
        }
      ],
      "name": "ambassadorGBs",
      "outputs": [
        {
          "internalType": "uint256",
          "name": "",
          "type": "uint256"
        }
      ],
      "stateMutability": "view",
      "type": "function",
      "constant": true
    },
    {
      "inputs": [
        {
          "internalType": "uint256",
          "name": "",
          "type": "uint256"
        }
      ],
      "name": "gbToAmbassador",
      "outputs": [
        {
          "internalType": "address",
          "name": "",
          "type": "address"
        }
      ],
      "stateMutability": "view",
      "type": "function",
      "constant": true
    },
    {
      "inputs": [
        {
          "internalType": "uint256",
          "name": "",
          "type": "uint256"
        },
        {
          "internalType": "uint256",
          "name": "",
          "type": "uint256"
        }
      ],
      "name": "gbToPlanters",
      "outputs": [
        {
          "internalType": "address",
          "name": "",
          "type": "address"
        }
      ],
      "stateMutability": "view",
      "type": "function",
      "constant": true
    },
    {
      "inputs": [
        {
          "internalType": "uint256",
          "name": "",
          "type": "uint256"
        }
      ],
      "name": "greenBlocks",
      "outputs": [
        {
          "internalType": "string",
          "name": "title",
          "type": "string"
        },
        {
          "internalType": "string",
          "name": "coordinates",
          "type": "string"
        },
        {
          "internalType": "bool",
          "name": "status",
          "type": "bool"
        }
      ],
      "stateMutability": "view",
      "type": "function",
      "constant": true
    },
    {
      "inputs": [],
      "name": "isGBFactory",
      "outputs": [
        {
          "internalType": "bool",
          "name": "",
          "type": "bool"
        }
      ],
      "stateMutability": "view",
      "type": "function",
      "constant": true
    },
    {
      "inputs": [
        {
          "internalType": "address",
          "name": "forwarder",
          "type": "address"
        }
      ],
      "name": "isTrustedForwarder",
      "outputs": [
        {
          "internalType": "bool",
          "name": "",
          "type": "bool"
        }
      ],
      "stateMutability": "view",
      "type": "function",
      "constant": true
    },
    {
      "inputs": [
        {
          "internalType": "address",
          "name": "",
          "type": "address"
        }
      ],
      "name": "planterGB",
      "outputs": [
        {
          "internalType": "uint256",
          "name": "",
          "type": "uint256"
        }
      ],
      "stateMutability": "view",
      "type": "function",
      "constant": true
    },
    {
      "inputs": [],
      "name": "trustedForwarder",
      "outputs": [
        {
          "internalType": "address",
          "name": "",
          "type": "address"
        }
      ],
      "stateMutability": "view",
      "type": "function",
      "constant": true
    },
    {
      "inputs": [],
      "name": "versionRecipient",
      "outputs": [
        {
          "internalType": "string",
          "name": "",
          "type": "string"
        }
      ],
      "stateMutability": "view",
      "type": "function",
      "constant": true
    },
    {
      "inputs": [
        {
          "internalType": "address",
          "name": "_accessRestrictionAddress",
          "type": "address"
        }
      ],
      "name": "initialize",
      "outputs": [],
      "stateMutability": "nonpayable",
      "type": "function"
    },
    {
      "inputs": [
        {
          "internalType": "address",
          "name": "_address",
          "type": "address"
        }
      ],
      "name": "setTrustedForwarder",
      "outputs": [],
      "stateMutability": "nonpayable",
      "type": "function"
    },
    {
      "inputs": [
        {
          "internalType": "string",
          "name": "_title",
          "type": "string"
        },
        {
          "internalType": "string",
          "name": "_coordinates",
          "type": "string"
        },
        {
          "internalType": "address",
          "name": "_ambassador",
          "type": "address"
        },
        {
          "internalType": "address[]",
          "name": "_planters",
          "type": "address[]"
        }
      ],
      "name": "create",
      "outputs": [],
      "stateMutability": "nonpayable",
      "type": "function"
    },
    {
      "inputs": [
        {
          "internalType": "uint256",
          "name": "_gbId",
          "type": "uint256"
        }
      ],
      "name": "getGBPlantersCount",
      "outputs": [
        {
          "internalType": "uint256",
          "name": "",
          "type": "uint256"
        }
      ],
      "stateMutability": "view",
      "type": "function",
      "constant": true
    },
    {
      "inputs": [
        {
          "internalType": "address",
          "name": "_ambassador",
          "type": "address"
        }
      ],
      "name": "getAmbassadorGBs",
      "outputs": [
        {
          "internalType": "uint256[]",
          "name": "",
          "type": "uint256[]"
        }
      ],
      "stateMutability": "view",
      "type": "function",
      "constant": true
    },
    {
      "inputs": [
        {
          "internalType": "uint256",
          "name": "_gbId",
          "type": "uint256"
        }
      ],
      "name": "activate",
      "outputs": [],
      "stateMutability": "nonpayable",
      "type": "function"
    },
    {
      "inputs": [
        {
          "internalType": "uint256",
          "name": "_gbId",
          "type": "uint256"
        }
      ],
      "name": "joinGB",
      "outputs": [],
      "stateMutability": "nonpayable",
      "type": "function"
    },
    {
      "inputs": [],
      "name": "totalGB",
      "outputs": [
        {
          "internalType": "uint256",
          "name": "",
          "type": "uint256"
        }
      ],
      "stateMutability": "view",
      "type": "function",
      "constant": true
    }
  ],
  "bytecode": "0x608060405234801561001057600080fd5b50611521806100206000396000f3fe608060405234801561001057600080fd5b50600436106101215760003560e01c80637da0a877116100ad578063d6f1f96a11610071578063d6f1f96a14610250578063da74222814610263578063dc04c95914610276578063dfe065bc14610289578063eddcc58b146102ab57610121565b80637da0a87714610207578063b19f7af61461020f578063b260c42a14610222578063c4d66de814610235578063d6762c4a1461024857610121565b8063486ff0cd116100f4578063486ff0cd146101955780634cff2b0f146101aa578063572b6c05146101bf578063629ed0b7146101d25780637ca1d2f6146101e757610121565b8063211d23831461012657806327d052d71461014f5780633714e07f1461016257806345b1531214610175575b600080fd5b6101396101343660046110b3565b6102b3565b604051610146919061147d565b60405180910390f35b61013961015d3660046110d5565b6102c5565b6101396101703660046111f6565b6102f3565b6101886101833660046110b3565b610305565b604051610146919061128e565b61019d610371565b60405161014691906112dd565b6101b2610391565b60405161014691906112d2565b6101b26101cd3660046110b3565b6103a1565b6101e56101e03660046111f6565b6103bb565b005b6101fa6101f536600461120e565b6105d3565b604051610146919061127a565b6101fa610608565b61013961021d3660046110b3565b61061d565b6101e56102303660046111f6565b61062f565b6101e56102433660046110b3565b61073f565b6101fa610941565b6101fa61025e3660046111f6565b610950565b6101e56102713660046110b3565b61096b565b6101e561028436600461111f565b6109fb565b61029c6102973660046111f6565b610e22565b604051610146939291906112f0565b610139610f79565b60056020526000908152604090205481565b600660205281600052604060002081815481106102de57fe5b90600052602060002001600091509150505481565b60009081526002602052604090205490565b6001600160a01b03811660009081526006602090815260409182902080548351818402810184019094528084526060939283018282801561036557602002820191906000526020600020905b815481526020019060010190808311610351575b50505050509050919050565b6040805180820190915260058152640322e302e360dc1b60208201525b90565b600054600160b01b900460ff1681565b6000546201000090046001600160a01b0390811691161490565b600760009054906101000a90046001600160a01b03166001600160a01b0316634d868f986040518163ffffffff1660e01b815260040160006040518083038186803b15801561040957600080fd5b505afa15801561041d573d6000803e3d6000fd5b50506007546001600160a01b03169150636dc1ccab905061043c610f7f565b6040518263ffffffff1660e01b8152600401610458919061127a565b60006040518083038186803b15801561047057600080fd5b505afa158015610484573d6000803e3d6000fd5b50505060008281526002602052604090205460051190506104c05760405162461bcd60e51b81526004016104b7906113ad565b60405180910390fd5b600081116104e05760405162461bcd60e51b81526004016104b790611328565b600360006104ec610f7f565b6001600160a01b03168152602081019190915260400160002054156105235760405162461bcd60e51b81526004016104b7906113f2565b6000818152600260205260409020610539610f7f565b81546001810183556000928352602083200180546001600160a01b0319166001600160a01b03929092169190911790558190600390610576610f7f565b6001600160a01b031681526020810191909152604001600020557f113f7835c809ac6fd6e6a25d8bf7ea1dc2b6c19c57e57ec5bd4638eda27e3f88816105ba610f7f565b6040516105c8929190611486565b60405180910390a150565b600260205281600052604060002081815481106105ec57fe5b6000918252602090912001546001600160a01b03169150829050565b6000546201000090046001600160a01b031681565b60036020526000908152604090205481565b6007546001600160a01b0316638413ec14610648610f7f565b6040518263ffffffff1660e01b8152600401610664919061127a565b60006040518083038186803b15801561067c57600080fd5b505afa158015610690573d6000803e3d6000fd5b50505050600181815481106106a157fe5b600091825260209091206002600390920201015460ff161515600114156106da5760405162461bcd60e51b81526004016104b79061141a565b60018082815481106106e857fe5b906000526020600020906003020160020160006101000a81548160ff0219169083151502179055507f4adeb3818195a413c2596f3d00779157c33e838590dbd18f2e925568a62b8266816040516105c8919061147d565b600054610100900460ff16806107585750610758610fb1565b80610766575060005460ff16155b6107825760405162461bcd60e51b81526004016104b79061135f565b600054610100900460ff161580156107ad576000805460ff1961ff0019909116610100171660011790555b6000805460ff60b01b1916600160b01b1790556040805163ba84fd6960e01b8152905183916001600160a01b0383169163ba84fd6991600480820192602092909190829003018186803b15801561080357600080fd5b505afa158015610817573d6000803e3d6000fd5b505050506040513d601f19601f8201168201806040525081019061083b91906110ff565b61084457600080fd5b600780546001600160a01b0383166001600160a01b03199091161790556040805160a0810182526005606082019081526415d3d4931160da1b608083015281528151808301835260038082526210531360ea1b602083810191909152808401929092526001938301849052835480850185556000949094528251805193949091027fb10e2d527612073b26eecdfd717e6a320cf44b4afac2b0732d9fcbe2b7fa0cf601926108f59284920190610fb7565b50602082810151805161090e9260018501920190610fb7565b50604091909101516002909101805460ff191691151591909117905550801561093d576000805461ff00191690555b5050565b6007546001600160a01b031681565b6004602052600090815260409020546001600160a01b031681565b6007546001600160a01b0316638413ec14610984610f7f565b6040518263ffffffff1660e01b81526004016109a0919061127a565b60006040518083038186803b1580156109b857600080fd5b505afa1580156109cc573d6000803e3d6000fd5b5050600080546001600160a01b03909416620100000262010000600160b01b0319909416939093179092555050565b600760009054906101000a90046001600160a01b03166001600160a01b0316634d868f986040518163ffffffff1660e01b815260040160006040518083038186803b158015610a4957600080fd5b505afa158015610a5d573d6000803e3d6000fd5b50506007546001600160a01b0316915063b2511fd89050610a7c610f7f565b6040518263ffffffff1660e01b8152600401610a98919061127a565b60006040518083038186803b158015610ab057600080fd5b505afa158015610ac4573d6000803e3d6000fd5b505050506001604051806060016040528089898080601f016020809104026020016040519081016040528093929190818152602001838380828437600092019190915250505090825250604080516020601f8a018190048102820181019092528881529181019190899089908190840183828082843760009201829052509385525050506020918201819052835460018101855593815281902082518051939460030290910192610b789284920190610fb7565b506020828101518051610b919260018501920190610fb7565b50604091909101516002909101805460ff19169115159190911790556001546000190160005b60ff8116831115610d45576007546001600160a01b0316632ea8de7f858560ff8516818110610be257fe5b9050602002016020810190610bf791906110b3565b6040518263ffffffff1660e01b8152600401610c13919061127a565b60206040518083038186803b158015610c2b57600080fd5b505afa158015610c3f573d6000803e3d6000fd5b505050506040513d601f19601f82011682018060405250810190610c6391906110ff565b8015610c92575060036000610c76610f7f565b6001600160a01b03168152602081019190915260400160002054155b15610d3d576000828152600260205260409020848460ff8416818110610cb457fe5b9050602002016020810190610cc991906110b3565b81546001810183556000928352602083200180546001600160a01b0319166001600160a01b03929092169190911790558290600390868660ff8616818110610d0d57fe5b9050602002016020810190610d2291906110b3565b6001600160a01b031681526020810191909152604001600020555b600101610bb7565b506001600160a01b038416151580610d6a575060008181526002602052604090205415155b610d865760405162461bcd60e51b81526004016104b790611446565b600081815260046020908152604080832080546001600160a01b0319166001600160a01b03891690811790915583526005825280832080546001908101909155600683528184208054918201815584529190922001829055517f69edcd8f027d69da8f4d4c342db4c2b8ed9f3662514b8e5d90ea159df55aefed90610e109083908b908b9061149d565b60405180910390a15050505050505050565b60018181548110610e2f57fe5b60009182526020918290206003919091020180546040805160026001841615610100026000190190931692909204601f810185900485028301850190915280825291935091839190830182828015610ec85780601f10610e9d57610100808354040283529160200191610ec8565b820191906000526020600020905b815481529060010190602001808311610eab57829003601f168201915b505050505090806001018054600181600116156101000203166002900480601f016020809104026020016040519081016040528092919081815260200182805460018160011615610100020316600290048015610f665780601f10610f3b57610100808354040283529160200191610f66565b820191906000526020600020905b815481529060010190602001808311610f4957829003601f168201915b5050506002909301549192505060ff1683565b60015490565b600060183610801590610f965750610f96336103a1565b15610faa575060131936013560601c61038e565b503361038e565b303b1590565b828054600181600116156101000203166002900490600052602060002090601f016020900481019282601f10610ff857805160ff1916838001178555611025565b82800160010185558215611025579182015b8281111561102557825182559160200191906001019061100a565b50611031929150611035565b5090565b61038e91905b80821115611031576000815560010161103b565b80356001600160a01b038116811461106657600080fd5b92915050565b60008083601f84011261107d578182fd5b50813567ffffffffffffffff811115611094578182fd5b6020830191508360208285010111156110ac57600080fd5b9250929050565b6000602082840312156110c4578081fd5b6110ce838361104f565b9392505050565b600080604083850312156110e7578081fd5b6110f1848461104f565b946020939093013593505050565b600060208284031215611110578081fd5b815180151581146110ce578182fd5b60008060008060008060006080888a031215611139578283fd5b873567ffffffffffffffff80821115611150578485fd5b61115c8b838c0161106c565b909950975060208a0135915080821115611174578485fd5b6111808b838c0161106c565b909750955060408a01359150611195826114d3565b909350606089013590808211156111aa578384fd5b818a018b601f8201126111bb578485fd5b80359250818311156111cb578485fd5b8b602080850283010111156111de578485fd5b60208101945050508091505092959891949750929550565b600060208284031215611207578081fd5b5035919050565b60008060408385031215611220578182fd5b50508035926020909101359150565b60008151808452815b8181101561125457602081850181015186830182015201611238565b818111156112655782602083870101525b50601f01601f19169290920160200192915050565b6001600160a01b0391909116815260200190565b6020808252825182820181905260009190848201906040850190845b818110156112c6578351835292840192918401916001016112aa565b50909695505050505050565b901515815260200190565b6000602082526110ce602083018461122f565b600060608252611303606083018661122f565b8281036020840152611315818661122f565b9150508215156040830152949350505050565b6020808252601a908201527f596f752063616e2774206a6f696e20666f72207a65726f206762000000000000604082015260600190565b6020808252602e908201527f496e697469616c697a61626c653a20636f6e747261637420697320616c72656160408201526d191e481a5b9a5d1a585b1a5e995960921b606082015260800190565b60208082526025908201527f506c616e746572206f6620746869732047422069732072656163686564206d6160408201526478696d756d60d81b606082015260800190565b6020808252600e908201526d4a6f696e6564206265666f72652160901b604082015260600190565b602080825260129082015271474220616c7265616479206163746976652160701b604082015260600190565b60208082526019908201527f4e6f20616d6261737361646f72206e6f20706c616e7465722100000000000000604082015260600190565b90815260200190565b9182526001600160a01b0316602082015260400190565b60008482526040602083015282604083015282846060840137818301606090810191909152601f909201601f1916010192915050565b6001600160a01b03811681146114e857600080fd5b5056fea2646970667358221220e9fac013d2b86f6fc0c086d6eb6181250ee43bc3e9c70406c08d0de325643af964736f6c634300060a0033",
  "immutableReferences": {},
  "source": "// SPDX-License-Identifier: GPL-3.0\n\npragma solidity >=0.4.21 <0.7.0;\npragma experimental ABIEncoderV2;\n\nimport \"@openzeppelin/contracts-upgradeable/proxy/Initializable.sol\";\n\nimport \"../gsn/RelayRecipient.sol\";\nimport \"../access/IAccessRestriction.sol\";\n\ncontract GBFactory is Initializable, RelayRecipient {\n    event NewGBAdded(uint256 id, string title);\n    event GBActivated(uint256 id);\n    event PlanterJoinedGB(uint256 id, address planter);\n\n    bool public isGBFactory;\n\n    //@todo must change coordinates\n    struct GB {\n        string title;\n        string coordinates;\n        bool status;\n    }\n\n    GB[] public greenBlocks;\n    uint8 constant maxGBPlantersCount = 5;\n\n    mapping(uint256 => address[]) public gbToPlanters;\n    mapping(address => uint256) public planterGB;\n\n    mapping(uint256 => address) public gbToAmbassador;\n    mapping(address => uint256) public ambassadorGBCount;\n    mapping(address => uint256[]) public ambassadorGBs;\n\n    IAccessRestriction public accessRestriction;\n\n    function initialize(address _accessRestrictionAddress) public initializer {\n        isGBFactory = true;\n        IAccessRestriction candidateContract =\n            IAccessRestriction(_accessRestrictionAddress);\n        require(candidateContract.isAccessRestriction());\n        accessRestriction = candidateContract;\n\n        //create a green block, so we can check for zero green block means not assigned\n        greenBlocks.push(GB(\"WORLD\", \"ALL\", true));\n    }\n\n    function setTrustedForwarder(address _address) external {\n        accessRestriction.ifAdmin(_msgSender());\n\n        trustedForwarder = _address;\n    }\n\n    function create(\n        string calldata _title,\n        string calldata _coordinates,\n        address _ambassador,\n        address[] calldata _planters\n    ) external {\n        accessRestriction.ifNotPaused();\n        accessRestriction.ifPlanterOrAmbassador(_msgSender());\n\n        greenBlocks.push(GB(_title, _coordinates, false));\n        uint256 id = greenBlocks.length - 1;\n\n        for (uint8 i = 0; i < _planters.length; i++) {\n            if (\n                accessRestriction.isPlanter(_planters[i]) &&\n                planterGB[_msgSender()] == 0\n            ) {\n                gbToPlanters[id].push(_planters[i]);\n                planterGB[_planters[i]] = id;\n            }\n        }\n\n        require(\n            _ambassador != address(0) || gbToPlanters[id].length > 0,\n            \"No ambassador no planter!\"\n        );\n\n        gbToAmbassador[id] = _ambassador;\n        ambassadorGBCount[_ambassador]++;\n        ambassadorGBs[_ambassador].push(id);\n\n        emit NewGBAdded(id, _title);\n    }\n\n    function getGBPlantersCount(uint256 _gbId) external view returns (uint256) {\n        return gbToPlanters[_gbId].length;\n    }\n\n    function getAmbassadorGBs(address _ambassador)\n        external\n        view\n        returns (uint256[] memory)\n    {\n        return ambassadorGBs[_ambassador];\n    }\n\n    function activate(uint256 _gbId) external {\n        accessRestriction.ifAdmin(_msgSender());\n\n        require(greenBlocks[_gbId].status != true, \"GB already active!\");\n\n        greenBlocks[_gbId].status = true;\n\n        emit GBActivated(_gbId);\n    }\n\n    function joinGB(uint256 _gbId) external {\n        accessRestriction.ifNotPaused();\n        accessRestriction.ifPlanter(_msgSender());\n\n        require(\n            gbToPlanters[_gbId].length < maxGBPlantersCount,\n            \"Planter of this GB is reached maximum\"\n        );\n        require(_gbId > 0, \"You can't join for zero gb\");\n\n        require(planterGB[_msgSender()] == 0, \"Joined before!\");\n\n        gbToPlanters[_gbId].push(_msgSender());\n        planterGB[_msgSender()] = _gbId;\n\n        emit PlanterJoinedGB(_gbId, _msgSender());\n    }\n\n    function totalGB() external view returns (uint256) {\n        return greenBlocks.length;\n    }\n\n    //@todo premission must check only ambassedor or planters or admin\n    // function updateGB(uint256 _gbId) public external {\n\n    // }\n}\n",
  "sourcePath": "/home/amir/Projects/treejer/contract/contracts/greenblock/GBFactory.sol",
  "compiler": {
    "name": "solc",
    "version": "0.6.10+commit.00c0fcaf.Emscripten.clang"
  },
  "schemaVersion": "3.3.3",
  "updatedAt": "2021-01-23T09:51:18.697Z",
  "networkType": "ethereum",
  "devdoc": {
    "methods": {}
  },
  "userdoc": {
    "methods": {}
  }
}