{
  "contractName": "GsnEip712Library",
  "abi": [
    {
      "inputs": [],
      "name": "EIP712DOMAIN_TYPEHASH",
      "outputs": [
        {
          "internalType": "bytes32",
          "name": "",
          "type": "bytes32"
        }
      ],
      "stateMutability": "view",
      "type": "function"
    },
    {
      "inputs": [],
      "name": "GENERIC_PARAMS",
      "outputs": [
        {
          "internalType": "string",
          "name": "",
          "type": "string"
        }
      ],
      "stateMutability": "view",
      "type": "function"
    },
    {
      "inputs": [],
      "name": "RELAYDATA_TYPE",
      "outputs": [
        {
          "internalType": "bytes",
          "name": "",
          "type": "bytes"
        }
      ],
      "stateMutability": "view",
      "type": "function"
    },
    {
      "inputs": [],
      "name": "RELAYDATA_TYPEHASH",
      "outputs": [
        {
          "internalType": "bytes32",
          "name": "",
          "type": "bytes32"
        }
      ],
      "stateMutability": "view",
      "type": "function"
    },
    {
      "inputs": [],
      "name": "RELAY_REQUEST_NAME",
      "outputs": [
        {
          "internalType": "string",
          "name": "",
          "type": "string"
        }
      ],
      "stateMutability": "view",
      "type": "function"
    },
    {
      "inputs": [],
      "name": "RELAY_REQUEST_SUFFIX",
      "outputs": [
        {
          "internalType": "string",
          "name": "",
          "type": "string"
        }
      ],
      "stateMutability": "view",
      "type": "function"
    },
    {
      "inputs": [],
      "name": "RELAY_REQUEST_TYPE",
      "outputs": [
        {
          "internalType": "bytes",
          "name": "",
          "type": "bytes"
        }
      ],
      "stateMutability": "view",
      "type": "function"
    },
    {
      "inputs": [],
      "name": "RELAY_REQUEST_TYPEHASH",
      "outputs": [
        {
          "internalType": "bytes32",
          "name": "",
          "type": "bytes32"
        }
      ],
      "stateMutability": "view",
      "type": "function"
    }
  ],
  "bytecode": "0x61059d610026600b82828239805160001a60731461001957fe5b30600052607381538281f3fe73000000000000000000000000000000000000000030146080604052600436106100925760003560e01c8063abf0d3f411610065578063abf0d3f4146100cd578063c46cf83f146100e2578063c49f91d3146100ea578063cc0c62b2146100f257610092565b8063066a310c146100975780636225e61b146100b5578063931cd38f146100bd578063987673f7146100c5575b600080fd5b61009f6100fa565b6040516100ac9190610432565b60405180910390f35b61009f610116565b61009f6101ae565b61009f6101d7565b6100d56101ff565b6040516100ac9190610429565b61009f61029e565b6100d56102ba565b6100d56102d1565b6040518060800160405280604a815260200161051e604a913981565b6040518060400160405280600c81526020016b14995b185e54995c5d595cdd60a21b8152506040518060800160405280604a815260200161051e604a91396040518060e0016040528060a1815260200161047d60a1913960405160200161017d9190610383565b60408051601f198184030181529082905261019c939291602001610320565b60405160208183030381529060405281565b6040518060e0016040528060a1815260200161047d60a1913960405160200161019c9190610383565b6040518060400160405280600c81526020016b14995b185e54995c5d595cdd60a21b81525081565b6040518060400160405280600c81526020016b14995b185e54995c5d595cdd60a21b8152506040518060800160405280604a815260200161051e604a91396040518060e0016040528060a1815260200161047d60a191396040516020016102669190610383565b60408051601f1981840301815290829052610285939291602001610320565b6040516020818303038152906040528051906020012081565b6040518060e0016040528060a1815260200161047d60a1913981565b6040516102c6906103bf565b604051809103902081565b6040518060e0016040528060a1815260200161047d60a191398051906020012081565b6000815180845261030c81602086016020860161044c565b601f01601f19169290920160200192915050565b6000845161033281846020890161044c565b808301600560fb1b81528551915061035182600183016020890161044c565b818101600b60fa1b60018201528551925061037383600283016020890161044c565b9091016002019695505050505050565b60007352656c6179446174612072656c6179446174612960601b825282516103b281601485016020870161044c565b9190910160140192915050565b7f454950373132446f6d61696e28737472696e67206e616d652c737472696e672081527f76657273696f6e2c75696e7432353620636861696e49642c6164647265737320602082015271766572696679696e67436f6e74726163742960701b604082015260520190565b90815260200190565b60006020825261044560208301846102f4565b9392505050565b60005b8381101561046757818101518382015260200161044f565b83811115610476576000848401525b5050505056fe52656c6179446174612875696e743235362067617350726963652c75696e743235362070637452656c61794665652c75696e74323536206261736552656c61794665652c616464726573732072656c6179576f726b65722c61646472657373207061796d61737465722c6164647265737320666f727761726465722c6279746573207061796d6173746572446174612c75696e7432353620636c69656e74496429616464726573732066726f6d2c6164647265737320746f2c75696e743235362076616c75652c75696e74323536206761732c75696e74323536206e6f6e63652c62797465732064617461a2646970667358221220b7d1249671c19bc6ad4d6fa038f371a036408c96503a9942bf0ce3705c250f4964736f6c634300060a0033",
  "immutableReferences": {},
  "source": "// SPDX-License-Identifier:MIT\npragma solidity ^0.6.2;\npragma experimental ABIEncoderV2;\n\nimport \"../interfaces/GsnTypes.sol\";\nimport \"../interfaces/IRelayRecipient.sol\";\nimport \"../forwarder/IForwarder.sol\";\n\nimport \"./GsnUtils.sol\";\n\n/**\n * Bridge Library to map GSN RelayRequest into a call of a Forwarder\n */\nlibrary GsnEip712Library {\n    // maximum length of return value/revert reason for 'execute' method. Will truncate result if exceeded.\n    uint256 private constant MAX_RETURN_SIZE = 1024;\n\n    //copied from Forwarder (can't reference string constants even from another library)\n    string public constant GENERIC_PARAMS = \"address from,address to,uint256 value,uint256 gas,uint256 nonce,bytes data\";\n\n    bytes public constant RELAYDATA_TYPE = \"RelayData(uint256 gasPrice,uint256 pctRelayFee,uint256 baseRelayFee,address relayWorker,address paymaster,address forwarder,bytes paymasterData,uint256 clientId)\";\n\n    string public constant RELAY_REQUEST_NAME = \"RelayRequest\";\n    string public constant RELAY_REQUEST_SUFFIX = string(abi.encodePacked(\"RelayData relayData)\", RELAYDATA_TYPE));\n\n    bytes public constant RELAY_REQUEST_TYPE = abi.encodePacked(\n        RELAY_REQUEST_NAME,\"(\",GENERIC_PARAMS,\",\", RELAY_REQUEST_SUFFIX);\n\n    bytes32 public constant RELAYDATA_TYPEHASH = keccak256(RELAYDATA_TYPE);\n    bytes32 public constant RELAY_REQUEST_TYPEHASH = keccak256(RELAY_REQUEST_TYPE);\n\n\n    struct EIP712Domain {\n        string name;\n        string version;\n        uint256 chainId;\n        address verifyingContract;\n    }\n\n    bytes32 public constant EIP712DOMAIN_TYPEHASH = keccak256(\n        \"EIP712Domain(string name,string version,uint256 chainId,address verifyingContract)\"\n    );\n\n    function splitRequest(\n        GsnTypes.RelayRequest calldata req\n    )\n    internal\n    pure\n    returns (\n        IForwarder.ForwardRequest memory forwardRequest,\n        bytes memory suffixData\n    ) {\n        forwardRequest = IForwarder.ForwardRequest(\n            req.request.from,\n            req.request.to,\n            req.request.value,\n            req.request.gas,\n            req.request.nonce,\n            req.request.data\n        );\n        suffixData = abi.encode(\n            hashRelayData(req.relayData));\n    }\n\n    //verify that the recipient trusts the given forwarder\n    // MUST be called by paymaster\n    function verifyForwarderTrusted(GsnTypes.RelayRequest calldata relayRequest) internal view {\n        (bool success, bytes memory ret) = relayRequest.request.to.staticcall(\n            abi.encodeWithSelector(\n                IRelayRecipient.isTrustedForwarder.selector, relayRequest.relayData.forwarder\n            )\n        );\n        require(success, \"isTrustedForwarder reverted\");\n        require(ret.length == 32, \"isTrustedForwarder returned invalid response\");\n        require(abi.decode(ret, (bool)), \"invalid forwarder for recipient\");\n    }\n\n    function verifySignature(GsnTypes.RelayRequest calldata relayRequest, bytes calldata signature) internal view {\n        (IForwarder.ForwardRequest memory forwardRequest, bytes memory suffixData) = splitRequest(relayRequest);\n        bytes32 domainSeparator = domainSeparator(relayRequest.relayData.forwarder);\n        IForwarder forwarder = IForwarder(payable(relayRequest.relayData.forwarder));\n        forwarder.verify(forwardRequest, domainSeparator, RELAY_REQUEST_TYPEHASH, suffixData, signature);\n    }\n\n    function verify(GsnTypes.RelayRequest calldata relayRequest, bytes calldata signature) internal view {\n        verifyForwarderTrusted(relayRequest);\n        verifySignature(relayRequest, signature);\n    }\n\n    function execute(GsnTypes.RelayRequest calldata relayRequest, bytes calldata signature) internal returns (bool forwarderSuccess, bool callSuccess, bytes memory ret) {\n        (IForwarder.ForwardRequest memory forwardRequest, bytes memory suffixData) = splitRequest(relayRequest);\n        bytes32 domainSeparator = domainSeparator(relayRequest.relayData.forwarder);\n        /* solhint-disable-next-line avoid-low-level-calls */\n        (forwarderSuccess, ret) = relayRequest.relayData.forwarder.call(\n            abi.encodeWithSelector(IForwarder.execute.selector,\n            forwardRequest, domainSeparator, RELAY_REQUEST_TYPEHASH, suffixData, signature\n        ));\n        if ( forwarderSuccess ) {\n\n          //decode return value of execute:\n          (callSuccess, ret) = abi.decode(ret, (bool, bytes));\n        }\n        truncateInPlace(ret);\n    }\n\n    //truncate the given parameter (in-place) if its length is above the given maximum length\n    // do nothing otherwise.\n    //NOTE: solidity warns unless the method is marked \"pure\", but it DOES modify its parameter.\n    function truncateInPlace(bytes memory data) internal pure {\n        MinLibBytes.truncateInPlace(data, MAX_RETURN_SIZE);\n    }\n\n    function domainSeparator(address forwarder) internal pure returns (bytes32) {\n        return hashDomain(EIP712Domain({\n            name : \"GSN Relayed Transaction\",\n            version : \"2\",\n            chainId : getChainID(),\n            verifyingContract : forwarder\n            }));\n    }\n\n    function getChainID() internal pure returns (uint256 id) {\n        /* solhint-disable no-inline-assembly */\n        assembly {\n            id := chainid()\n        }\n    }\n\n    function hashDomain(EIP712Domain memory req) internal pure returns (bytes32) {\n        return keccak256(abi.encode(\n                EIP712DOMAIN_TYPEHASH,\n                keccak256(bytes(req.name)),\n                keccak256(bytes(req.version)),\n                req.chainId,\n                req.verifyingContract));\n    }\n\n    function hashRelayData(GsnTypes.RelayData calldata req) internal pure returns (bytes32) {\n        return keccak256(abi.encode(\n                RELAYDATA_TYPEHASH,\n                req.gasPrice,\n                req.pctRelayFee,\n                req.baseRelayFee,\n                req.relayWorker,\n                req.paymaster,\n                req.forwarder,\n                keccak256(req.paymasterData),\n                req.clientId\n            ));\n    }\n\n\n}\n",
  "sourcePath": "@opengsn/gsn/contracts/utils/GsnEip712Library.sol",
  "compiler": {
    "name": "solc",
    "version": "0.6.10+commit.00c0fcaf.Emscripten.clang"
  },
  "schemaVersion": "3.3.3",
  "updatedAt": "2021-01-23T09:37:33.780Z",
  "devdoc": {
    "methods": {}
  },
  "userdoc": {
    "methods": {},
    "notice": "Bridge Library to map GSN RelayRequest into a call of a Forwarder"
  }
}