{
  "contractName": "O1Factory",
  "abi": [
    {
      "anonymous": false,
      "inputs": [
        {
          "indexed": true,
          "internalType": "address",
          "name": "owner",
          "type": "address"
        },
        {
          "indexed": true,
          "internalType": "address",
          "name": "spender",
          "type": "address"
        },
        {
          "indexed": false,
          "internalType": "uint256",
          "name": "value",
          "type": "uint256"
        }
      ],
      "name": "Approval",
      "type": "event"
    },
    {
      "anonymous": false,
      "inputs": [
        {
          "indexed": false,
          "internalType": "uint256",
          "name": "date",
          "type": "uint256"
        }
      ],
      "name": "ConsoleLog",
      "type": "event"
    },
    {
      "anonymous": false,
      "inputs": [
        {
          "indexed": false,
          "internalType": "uint256",
          "name": "o1GeneratedPerSecond",
          "type": "uint256"
        }
      ],
      "name": "O1GeneratedPerSecondChanged",
      "type": "event"
    },
    {
      "anonymous": false,
      "inputs": [
        {
          "indexed": false,
          "internalType": "address",
          "name": "owner",
          "type": "address"
        },
        {
          "indexed": false,
          "internalType": "uint256",
          "name": "totalO1",
          "type": "uint256"
        }
      ],
      "name": "O1Minted",
      "type": "event"
    },
    {
      "anonymous": false,
      "inputs": [
        {
          "indexed": true,
          "internalType": "address",
          "name": "from",
          "type": "address"
        },
        {
          "indexed": true,
          "internalType": "address",
          "name": "to",
          "type": "address"
        },
        {
          "indexed": false,
          "internalType": "uint256",
          "name": "value",
          "type": "uint256"
        }
      ],
      "name": "Transfer",
      "type": "event"
    },
    {
      "inputs": [],
      "name": "accessRestriction",
      "outputs": [
        {
          "internalType": "contract AccessRestriction",
          "name": "",
          "type": "address"
        }
      ],
      "stateMutability": "view",
      "type": "function",
      "constant": true
    },
    {
      "inputs": [
        {
          "internalType": "address",
          "name": "owner",
          "type": "address"
        },
        {
          "internalType": "address",
          "name": "spender",
          "type": "address"
        }
      ],
      "name": "allowance",
      "outputs": [
        {
          "internalType": "uint256",
          "name": "",
          "type": "uint256"
        }
      ],
      "stateMutability": "view",
      "type": "function",
      "constant": true
    },
    {
      "inputs": [
        {
          "internalType": "address",
          "name": "spender",
          "type": "address"
        },
        {
          "internalType": "uint256",
          "name": "amount",
          "type": "uint256"
        }
      ],
      "name": "approve",
      "outputs": [
        {
          "internalType": "bool",
          "name": "",
          "type": "bool"
        }
      ],
      "stateMutability": "nonpayable",
      "type": "function"
    },
    {
      "inputs": [
        {
          "internalType": "address",
          "name": "account",
          "type": "address"
        }
      ],
      "name": "balanceOf",
      "outputs": [
        {
          "internalType": "uint256",
          "name": "",
          "type": "uint256"
        }
      ],
      "stateMutability": "view",
      "type": "function",
      "constant": true
    },
    {
      "inputs": [],
      "name": "decimals",
      "outputs": [
        {
          "internalType": "uint8",
          "name": "",
          "type": "uint8"
        }
      ],
      "stateMutability": "view",
      "type": "function",
      "constant": true
    },
    {
      "inputs": [
        {
          "internalType": "address",
          "name": "spender",
          "type": "address"
        },
        {
          "internalType": "uint256",
          "name": "subtractedValue",
          "type": "uint256"
        }
      ],
      "name": "decreaseAllowance",
      "outputs": [
        {
          "internalType": "bool",
          "name": "",
          "type": "bool"
        }
      ],
      "stateMutability": "nonpayable",
      "type": "function"
    },
    {
      "inputs": [
        {
          "internalType": "address",
          "name": "spender",
          "type": "address"
        },
        {
          "internalType": "uint256",
          "name": "addedValue",
          "type": "uint256"
        }
      ],
      "name": "increaseAllowance",
      "outputs": [
        {
          "internalType": "bool",
          "name": "",
          "type": "bool"
        }
      ],
      "stateMutability": "nonpayable",
      "type": "function"
    },
    {
      "inputs": [],
      "name": "name",
      "outputs": [
        {
          "internalType": "string",
          "name": "",
          "type": "string"
        }
      ],
      "stateMutability": "view",
      "type": "function",
      "constant": true
    },
    {
      "inputs": [],
      "name": "o1GeneratedPerSecond",
      "outputs": [
        {
          "internalType": "uint256",
          "name": "",
          "type": "uint256"
        }
      ],
      "stateMutability": "view",
      "type": "function",
      "constant": true
    },
    {
      "inputs": [],
      "name": "symbol",
      "outputs": [
        {
          "internalType": "string",
          "name": "",
          "type": "string"
        }
      ],
      "stateMutability": "view",
      "type": "function",
      "constant": true
    },
    {
      "inputs": [],
      "name": "totalSupply",
      "outputs": [
        {
          "internalType": "uint256",
          "name": "",
          "type": "uint256"
        }
      ],
      "stateMutability": "view",
      "type": "function",
      "constant": true
    },
    {
      "inputs": [
        {
          "internalType": "address",
          "name": "recipient",
          "type": "address"
        },
        {
          "internalType": "uint256",
          "name": "amount",
          "type": "uint256"
        }
      ],
      "name": "transfer",
      "outputs": [
        {
          "internalType": "bool",
          "name": "",
          "type": "bool"
        }
      ],
      "stateMutability": "nonpayable",
      "type": "function"
    },
    {
      "inputs": [
        {
          "internalType": "address",
          "name": "sender",
          "type": "address"
        },
        {
          "internalType": "address",
          "name": "recipient",
          "type": "address"
        },
        {
          "internalType": "uint256",
          "name": "amount",
          "type": "uint256"
        }
      ],
      "name": "transferFrom",
      "outputs": [
        {
          "internalType": "bool",
          "name": "",
          "type": "bool"
        }
      ],
      "stateMutability": "nonpayable",
      "type": "function"
    },
    {
      "inputs": [],
      "name": "treeFactory",
      "outputs": [
        {
          "internalType": "contract TreeFactory",
          "name": "",
          "type": "address"
        }
      ],
      "stateMutability": "view",
      "type": "function",
      "constant": true
    },
    {
      "inputs": [
        {
          "internalType": "uint256",
          "name": "",
          "type": "uint256"
        }
      ],
      "name": "treesLastMintedDate",
      "outputs": [
        {
          "internalType": "uint256",
          "name": "",
          "type": "uint256"
        }
      ],
      "stateMutability": "view",
      "type": "function",
      "constant": true
    },
    {
      "inputs": [
        {
          "internalType": "address",
          "name": "_accessRestrictionAddress",
          "type": "address"
        }
      ],
      "name": "initialize",
      "outputs": [],
      "stateMutability": "nonpayable",
      "type": "function"
    },
    {
      "inputs": [
        {
          "internalType": "address",
          "name": "_address",
          "type": "address"
        }
      ],
      "name": "setTreeFactoryAddress",
      "outputs": [],
      "stateMutability": "nonpayable",
      "type": "function"
    },
    {
      "inputs": [
        {
          "internalType": "uint256",
          "name": "_o1GeneratedPerSecond",
          "type": "uint256"
        }
      ],
      "name": "setO1GeneratedPerSecond",
      "outputs": [],
      "stateMutability": "nonpayable",
      "type": "function"
    },
    {
      "inputs": [
        {
          "internalType": "address",
          "name": "_owner",
          "type": "address"
        }
      ],
      "name": "calculateMintableO1",
      "outputs": [
        {
          "internalType": "uint256",
          "name": "",
          "type": "uint256"
        }
      ],
      "stateMutability": "view",
      "type": "function",
      "constant": true
    },
    {
      "inputs": [],
      "name": "mint",
      "outputs": [],
      "stateMutability": "nonpayable",
      "type": "function"
    }
  ],
  "bytecode": "0x608060405234801561001057600080fd5b5061193b806100206000396000f3fe608060405234801561001057600080fd5b506004361061012c5760003560e01c806370a08231116100ad578063af0ea04a11610071578063af0ea04a14610258578063c4d66de814610260578063d6762c4a14610273578063dd62ed3e1461027b578063fe32fbc41461028e5761012c565b806370a082311461020457806372a5fcf41461021757806395d89b411461022a578063a457c2d714610232578063a9059cbb146102455761012c565b806323b872dd116100f457806323b872dd146101a1578063313ce567146101b457806332cf43dc146101c957806339509351146101dc578063421ef6d4146101ef5761012c565b806306fdde0314610131578063095ea7b31461014f5780630bf351f81461016f5780631249c58b1461018457806318160ddd1461018c575b600080fd5b6101396102a1565b60405161014691906115a6565b60405180910390f35b61016261015d36600461142f565b610338565b604051610146919061159b565b61018261017d3660046113a0565b610356565b005b610182610458565b610194610713565b6040516101469190611836565b6101626101af3660046113ef565b610719565b6101bc6107a6565b604051610146919061183f565b6101826101d736600461153e565b6107af565b6101626101ea36600461142f565b61084f565b6101f76108a3565b604051610146919061156e565b6101946102123660046113a0565b6108b2565b61019461022536600461153e565b6108d1565b6101396108e3565b61016261024036600461142f565b610944565b61016261025336600461142f565b6109b2565b6101946109c6565b61018261026e3660046113a0565b6109cc565b6101f7610b2e565b6101946102893660046113bb565b610b3d565b61019461029c3660046113a0565b610b68565b60688054604080516020601f600260001961010060018816150201909516949094049384018190048102820181019092528281526060939092909183018282801561032d5780601f106103025761010080835404028352916020019161032d565b820191906000526020600020905b81548152906001019060200180831161031057829003601f168201915b505050505090505b90565b600061034c610345610d8e565b8484610d92565b5060015b92915050565b609854604051632104fb0560e21b81526001600160a01b0390911690638413ec149061038690339060040161156e565b60006040518083038186803b15801561039e57600080fd5b505afa1580156103b2573d6000803e3d6000fd5b505050506000819050806001600160a01b031663e0eb4eb96040518163ffffffff1660e01b815260040160206040518083038186803b1580156103f457600080fd5b505afa158015610408573d6000803e3d6000fd5b505050506040513d601f19601f8201168201806040525081019061042c9190611459565b61043557600080fd5b609780546001600160a01b0319166001600160a01b039290921691909117905550565b6097546040516310d12f5b60e31b81526000916001600160a01b0316906386897ad89061048990339060040161156e565b60206040518083038186803b1580156104a157600080fd5b505afa1580156104b5573d6000803e3d6000fd5b505050506040513d601f19601f820116820180604052508101906104d99190611556565b9050600081116105045760405162461bcd60e51b81526004016104fb906116c1565b60405180910390fd5b6000805b8281101561068857609754604051632f745c5960e01b81526000916001600160a01b031690632f745c59906105439033908690600401611582565b60206040518083038186803b15801561055b57600080fd5b505afa15801561056f573d6000803e3d6000fd5b505050506040513d601f19601f820116820180604052508101906105939190611556565b609754604051633d28401160e11b81529192506000916001600160a01b0390911690637a508022906105c9908590600401611836565b60006040518083038186803b1580156105e157600080fd5b505afa1580156105f5573d6000803e3d6000fd5b505050506040513d6000823e601f3d908101601f1916820160405261061d9190810190611479565b5050955050505050508060001415610636575050610680565b6000828152609a602052604090205415610665576000828152609a60205260409020544203939093019261066d565b804203840193505b506000908152609a602052604090204290555b600101610508565b50600081116106a95760405162461bcd60e51b81526004016104fb9061178b565b6099548102806106cb5760405162461bcd60e51b81526004016104fb906115d9565b6106d53382610e46565b7fec9c2438980322928278e7d190fc47ea7168905c699547aa08b481d11f907ce63382604051610706929190611582565b60405180910390a1505050565b60675490565b6000610726848484610f12565b61079c84610732610d8e565b610797856040518060600160405280602881526020016118b9602891396001600160a01b038a16600090815260666020526040812090610770610d8e565b6001600160a01b03168152602081019190915260400160002054919063ffffffff61103316565b610d92565b5060019392505050565b606a5460ff1690565b609854604051632104fb0560e21b81526001600160a01b0390911690638413ec14906107df90339060040161156e565b60006040518083038186803b1580156107f757600080fd5b505afa15801561080b573d6000803e3d6000fd5b5050506099829055506040517f20d4d69e04c6a1a500b9cd516187927ca5a7102f9dc617c4799595b2ed6db3db90610844908390611836565b60405180910390a150565b600061034c61085c610d8e565b84610797856066600061086d610d8e565b6001600160a01b03908116825260208083019390935260409182016000908120918c16815292529020549063ffffffff61105f16565b6097546001600160a01b031681565b6001600160a01b0381166000908152606560205260409020545b919050565b609a6020526000908152604090205481565b60698054604080516020601f600260001961010060018816150201909516949094049384018190048102820181019092528281526060939092909183018282801561032d5780601f106103025761010080835404028352916020019161032d565b600061034c610951610d8e565b84610797856040518060600160405280602581526020016118e1602591396066600061097b610d8e565b6001600160a01b03908116825260208083019390935260409182016000908120918d1681529252902054919063ffffffff61103316565b600061034c6109bf610d8e565b8484610f12565b60995481565b600054610100900460ff16806109e557506109e561108b565b806109f3575060005460ff16155b610a0f5760405162461bcd60e51b81526004016104fb906116f8565b600054610100900460ff16158015610a3a576000805460ff1961ff0019909116610100171660011790555b6000829050806001600160a01b031663ba84fd696040518163ffffffff1660e01b815260040160206040518083038186803b158015610a7857600080fd5b505afa158015610a8c573d6000803e3d6000fd5b505050506040513d601f19601f82011682018060405250810190610ab09190611459565b610ab957600080fd5b609880546001600160a01b0319166001600160a01b038316179055604080518082018252600a8152694f787967656e4265746160b01b602080830191909152825180840190935260028352614f3160f01b90830152610b1791611091565b508015610b2a576000805461ff00191690555b5050565b6098546001600160a01b031681565b6001600160a01b03918216600090815260666020908152604080832093909416825291909152205490565b6097546040516310d12f5b60e31b815260009182916001600160a01b03909116906386897ad890610b9d90869060040161156e565b60206040518083038186803b158015610bb557600080fd5b505afa158015610bc9573d6000803e3d6000fd5b505050506040513d601f19601f82011682018060405250810190610bed9190611556565b905080610bfe5760009150506108cc565b6000805b82811015610d7257609754604051632f745c5960e01b81526000916001600160a01b031690632f745c5990610c3d9089908690600401611582565b60206040518083038186803b158015610c5557600080fd5b505afa158015610c69573d6000803e3d6000fd5b505050506040513d601f19601f82011682018060405250810190610c8d9190611556565b609754604051633d28401160e11b81529192506000916001600160a01b0390911690637a50802290610cc3908590600401611836565b60006040518083038186803b158015610cdb57600080fd5b505afa158015610cef573d6000803e3d6000fd5b505050506040513d6000823e601f3d908101601f19168201604052610d179190810190611479565b5050955050505050508060001415610d30575050610d6a565b6000828152609a602052604090205415610d5f576000828152609a602052604090205442039390930192610d67565b804203840193505b50505b600101610c02565b5080610d83576000925050506108cc565b609954029392505050565b3390565b6001600160a01b038316610db85760405162461bcd60e51b81526004016104fb906117bb565b6001600160a01b038216610dde5760405162461bcd60e51b81526004016104fb90611648565b6001600160a01b0380841660008181526066602090815260408083209487168084529490915290819020849055517f8c5be1e5ebec7d5bd14f71427d1e84f3dd0314c0f7b2291e5b200ac8c7c3b92590610e39908590611836565b60405180910390a3505050565b6001600160a01b038216610e6c5760405162461bcd60e51b81526004016104fb906117ff565b610e7860008383611123565b606754610e8b908263ffffffff61105f16565b6067556001600160a01b038216600090815260656020526040902054610eb7908263ffffffff61105f16565b6001600160a01b0383166000818152606560205260408082209390935591519091907fddf252ad1be2c89b69c2b068fc378daa952ba7f163c4a11628f55a4df523b3ef90610f06908590611836565b60405180910390a35050565b6001600160a01b038316610f385760405162461bcd60e51b81526004016104fb90611746565b6001600160a01b038216610f5e5760405162461bcd60e51b81526004016104fb90611605565b610f69838383611123565b610fac81604051806060016040528060268152602001611893602691396001600160a01b038616600090815260656020526040902054919063ffffffff61103316565b6001600160a01b038085166000908152606560205260408082209390935590841681522054610fe1908263ffffffff61105f16565b6001600160a01b0380841660008181526065602052604090819020939093559151908516907fddf252ad1be2c89b69c2b068fc378daa952ba7f163c4a11628f55a4df523b3ef90610e39908590611836565b600081848411156110575760405162461bcd60e51b81526004016104fb91906115a6565b505050900390565b6000828201838110156110845760405162461bcd60e51b81526004016104fb9061168a565b9392505050565b303b1590565b600054610100900460ff16806110aa57506110aa61108b565b806110b8575060005460ff16155b6110d45760405162461bcd60e51b81526004016104fb906116f8565b600054610100900460ff161580156110ff576000805460ff1961ff0019909116610100171660011790555b611107611128565b61111183836111ab565b8015611123576000805461ff00191690555b505050565b600054610100900460ff1680611141575061114161108b565b8061114f575060005460ff16155b61116b5760405162461bcd60e51b81526004016104fb906116f8565b600054610100900460ff16158015611196576000805460ff1961ff0019909116610100171660011790555b80156111a8576000805461ff00191690555b50565b600054610100900460ff16806111c457506111c461108b565b806111d2575060005460ff16155b6111ee5760405162461bcd60e51b81526004016104fb906116f8565b600054610100900460ff16158015611219576000805460ff1961ff0019909116610100171660011790555b825161122c906068906020860190611264565b508151611240906069906020850190611264565b50606a805460ff191660121790558015611123576000805461ff0019169055505050565b828054600181600116156101000203166002900490600052602060002090601f016020900481019282601f106112a557805160ff19168380011785556112d2565b828001600101855582156112d2579182015b828111156112d25782518255916020019190600101906112b7565b506112de9291506112e2565b5090565b61033591905b808211156112de57600081556001016112e8565b80356001600160a01b038116811461035057600080fd5b600082601f830112611323578081fd5b815167ffffffffffffffff8082111561133a578283fd5b604051601f8301601f19168101602001828111828210171561135a578485fd5b60405282815292508284830160200186101561137557600080fd5b61138683602083016020880161184d565b50505092915050565b805160ff8116811461035057600080fd5b6000602082840312156113b1578081fd5b61108483836112fc565b600080604083850312156113cd578081fd5b6113d784846112fc565b91506113e684602085016112fc565b90509250929050565b600080600060608486031215611403578081fd5b833561140e8161187d565b9250602084013561141e8161187d565b929592945050506040919091013590565b60008060408385031215611441578182fd5b61144b84846112fc565b946020939093013593505050565b60006020828403121561146a578081fd5b81518015158114611084578182fd5b600080600080600080600080610100898b031215611495578384fd5b885167ffffffffffffffff808211156114ac578586fd5b6114b88c838d01611313565b995060208b01519150808211156114cd578586fd5b6114d98c838d01611313565b985060408b01519150808211156114ee578586fd5b506114fb8b828c01611313565b965050606089015194506080890151935060a089015192506115208a60c08b0161138f565b915061152f8a60e08b0161138f565b90509295985092959890939650565b60006020828403121561154f578081fd5b5035919050565b600060208284031215611567578081fd5b5051919050565b6001600160a01b0391909116815260200190565b6001600160a01b03929092168252602082015260400190565b901515815260200190565b60006020825282518060208401526115c581604085016020870161184d565b601f01601f19169190910160400192915050565b6020808252601290820152714d696e7461626c654f31206973207a65726f60701b604082015260600190565b60208082526023908201527f45524332303a207472616e7366657220746f20746865207a65726f206164647260408201526265737360e81b606082015260800190565b60208082526022908201527f45524332303a20617070726f766520746f20746865207a65726f206164647265604082015261737360f01b606082015260800190565b6020808252601b908201527f536166654d6174683a206164646974696f6e206f766572666c6f770000000000604082015260600190565b60208082526018908201527f4f776e6572207472656520636f756e74206973207a65726f0000000000000000604082015260600190565b6020808252602e908201527f436f6e747261637420696e7374616e63652068617320616c726561647920626560408201526d195b881a5b9a5d1a585b1a5e995960921b606082015260800190565b60208082526025908201527f45524332303a207472616e736665722066726f6d20746865207a65726f206164604082015264647265737360d81b606082015260800190565b602080825260169082015275546f74616c205365636f6e647320617265207a65726f60501b604082015260600190565b60208082526024908201527f45524332303a20617070726f76652066726f6d20746865207a65726f206164646040820152637265737360e01b606082015260800190565b6020808252601f908201527f45524332303a206d696e7420746f20746865207a65726f206164647265737300604082015260600190565b90815260200190565b60ff91909116815260200190565b60005b83811015611868578181015183820152602001611850565b83811115611877576000848401525b50505050565b6001600160a01b03811681146111a857600080fdfe45524332303a207472616e7366657220616d6f756e7420657863656564732062616c616e636545524332303a207472616e7366657220616d6f756e74206578636565647320616c6c6f77616e636545524332303a2064656372656173656420616c6c6f77616e63652062656c6f77207a65726fa26469706673582212200040fbe3779abaed0ec61c826f5643a4f1bdeb178a12549e25ef773e9823995c64736f6c63430006090033",
  "immutableReferences": {},
  "source": "// SPDX-License-Identifier: GPL-3.0\n\npragma solidity >=0.4.21 <0.7.0;\npragma experimental ABIEncoderV2;\n\nimport \"../../node_modules/@openzeppelin/contracts-ethereum-package/contracts/token/ERC20/ERC20.sol\";\n\nimport \"../access/AccessRestriction.sol\";\nimport \"../tree/TreeFactory.sol\";\n\n\ncontract O1Factory is ERC20UpgradeSafe {\n\n    event O1Minted(address owner, uint256 totalO1);\n    event O1GeneratedPerSecondChanged(uint256 o1GeneratedPerSecond);\n    event ConsoleLog(uint date);\n\n    TreeFactory public treeFactory;\n    AccessRestriction public accessRestriction;\n\n    uint256 public o1GeneratedPerSecond;\n\n    mapping(uint256 => uint256) public treesLastMintedDate;\n\n    function initialize(address _accessRestrictionAddress) public initializer {\n        \n        AccessRestriction candidateContract = AccessRestriction(_accessRestrictionAddress);\n        require(candidateContract.isAccessRestriction());\n        accessRestriction = candidateContract;\n\n        ERC20UpgradeSafe.__ERC20_init(\n            \"OxygenBeta\",\n            \"O1\"\n        );\n    }\n\n\n    function setTreeFactoryAddress(address _address) external {\n        accessRestriction.ifAdmin(msg.sender);\n\n        TreeFactory candidateContract = TreeFactory(_address);\n        require(candidateContract.isTreeFactory());\n        treeFactory = candidateContract;\n    }\n\n\n    function setO1GeneratedPerSecond(uint256 _o1GeneratedPerSecond) external {\n        accessRestriction.ifAdmin(msg.sender);\n\n        o1GeneratedPerSecond = _o1GeneratedPerSecond;\n\n        emit O1GeneratedPerSecondChanged(_o1GeneratedPerSecond);\n    }\n\n    function calculateMintableO1(address _owner) external view returns(uint256)\n    {\n        uint256 ownerTreesCount = treeFactory.ownerTreesCount(_owner);\n\n        if(ownerTreesCount == 0) {\n            return 0;\n        }\n        uint256 totalSeconds = 0;\n\n        for (\n            uint256 i = 0;\n            i < ownerTreesCount;\n            i++\n        ) {\n            uint256 treeId = treeFactory.tokenOfOwnerByIndex(_owner, i);\n\n            (,,,,,uint256 treeFundedDate,,) = treeFactory.trees(treeId);\n            if(treeFundedDate == 0) {\n                continue;\n            }\n\n            if(treesLastMintedDate[treeId] > 0) {\n                totalSeconds = totalSeconds + (block.timestamp - treesLastMintedDate[treeId]);\n            } else {\n                totalSeconds = totalSeconds + (block.timestamp - treeFundedDate);\n            }\n        }\n\n        if(totalSeconds == 0) {\n            return 0;\n        }\n\n        return (o1GeneratedPerSecond * totalSeconds);\n    }\n\n    \n\n    //@todo permission must check\n    function mint() external  {\n\n        uint256 ownerTreesCount = treeFactory.ownerTreesCount(msg.sender);\n\n        require(\n            ownerTreesCount > 0,\n            \"Owner tree count is zero\"\n        );\n\n        uint256 totalSeconds = 0;\n\n        for (\n            uint256 i = 0;\n            i < ownerTreesCount;\n            i++\n        ) {\n            uint256 treeId = treeFactory.tokenOfOwnerByIndex(msg.sender, i);\n            (,,,,,uint256 treeFundedDate,,) = treeFactory.trees(treeId);\n            if(treeFundedDate == 0) {\n                continue;\n            }\n\n            if(treesLastMintedDate[treeId] > 0) {\n                totalSeconds = totalSeconds + (block.timestamp - treesLastMintedDate[treeId]);\n            } else {\n                totalSeconds = totalSeconds + (block.timestamp - treeFundedDate);\n            }\n\n            treesLastMintedDate[treeId] = block.timestamp;\n        }\n\n        require(totalSeconds > 0, \"Total Seconds are zero\");\n\n\n        // uint256 mintableO1 = o1GeneratedPerSecond * totalSeconds * (10 ** 18);\n        uint256 mintableO1 = o1GeneratedPerSecond * totalSeconds;\n\n        require(mintableO1 > 0, \"MintableO1 is zero\");\n\n        _mint(msg.sender, mintableO1);\n\n        emit O1Minted(msg.sender, mintableO1);\n    }\n}\n",
  "sourcePath": "/home/amir/Projects/treejer/contract/contracts/o1/O1Factory.sol",
  "compiler": {
    "name": "solc",
    "version": "0.6.9+commit.3e3065ac.Emscripten.clang"
  },
  "schemaVersion": "3.2.3",
  "updatedAt": "2020-10-27T15:23:08.308Z",
  "networkType": "ethereum",
  "devdoc": {
    "methods": {
      "allowance(address,address)": {
        "details": "See {IERC20-allowance}."
      },
      "approve(address,uint256)": {
        "details": "See {IERC20-approve}. Requirements: - `spender` cannot be the zero address."
      },
      "balanceOf(address)": {
        "details": "See {IERC20-balanceOf}."
      },
      "decimals()": {
        "details": "Returns the number of decimals used to get its user representation. For example, if `decimals` equals `2`, a balance of `505` tokens should be displayed to a user as `5,05` (`505 / 10 ** 2`). Tokens usually opt for a value of 18, imitating the relationship between Ether and Wei. This is the value {ERC20} uses, unless {_setupDecimals} is called. NOTE: This information is only used for _display_ purposes: it in no way affects any of the arithmetic of the contract, including {IERC20-balanceOf} and {IERC20-transfer}."
      },
      "decreaseAllowance(address,uint256)": {
        "details": "Atomically decreases the allowance granted to `spender` by the caller. This is an alternative to {approve} that can be used as a mitigation for problems described in {IERC20-approve}. Emits an {Approval} event indicating the updated allowance. Requirements: - `spender` cannot be the zero address. - `spender` must have allowance for the caller of at least `subtractedValue`."
      },
      "increaseAllowance(address,uint256)": {
        "details": "Atomically increases the allowance granted to `spender` by the caller. This is an alternative to {approve} that can be used as a mitigation for problems described in {IERC20-approve}. Emits an {Approval} event indicating the updated allowance. Requirements: - `spender` cannot be the zero address."
      },
      "name()": {
        "details": "Returns the name of the token."
      },
      "symbol()": {
        "details": "Returns the symbol of the token, usually a shorter version of the name."
      },
      "totalSupply()": {
        "details": "See {IERC20-totalSupply}."
      },
      "transfer(address,uint256)": {
        "details": "See {IERC20-transfer}. Requirements: - `recipient` cannot be the zero address. - the caller must have a balance of at least `amount`."
      },
      "transferFrom(address,address,uint256)": {
        "details": "See {IERC20-transferFrom}. Emits an {Approval} event indicating the updated allowance. This is not required by the EIP. See the note at the beginning of {ERC20}; Requirements: - `sender` and `recipient` cannot be the zero address. - `sender` must have a balance of at least `amount`. - the caller must have allowance for ``sender``'s tokens of at least `amount`."
      }
    }
  },
  "userdoc": {
    "methods": {}
  }
}