{
  "contractName": "O2",
  "abi": [
    {
      "anonymous": false,
      "inputs": [
        {
          "indexed": true,
          "internalType": "address",
          "name": "owner",
          "type": "address"
        },
        {
          "indexed": true,
          "internalType": "address",
          "name": "spender",
          "type": "address"
        },
        {
          "indexed": false,
          "internalType": "uint256",
          "name": "value",
          "type": "uint256"
        }
      ],
      "name": "Approval",
      "type": "event"
    },
    {
      "anonymous": false,
      "inputs": [
        {
          "indexed": true,
          "internalType": "address",
          "name": "from",
          "type": "address"
        },
        {
          "indexed": true,
          "internalType": "address",
          "name": "to",
          "type": "address"
        },
        {
          "indexed": false,
          "internalType": "uint256",
          "name": "value",
          "type": "uint256"
        }
      ],
      "name": "Transfer",
      "type": "event"
    },
    {
      "inputs": [],
      "name": "accessRestriction",
      "outputs": [
        {
          "internalType": "contract IAccessRestriction",
          "name": "",
          "type": "address"
        }
      ],
      "stateMutability": "view",
      "type": "function",
      "constant": true
    },
    {
      "inputs": [
        {
          "internalType": "address",
          "name": "owner",
          "type": "address"
        },
        {
          "internalType": "address",
          "name": "spender",
          "type": "address"
        }
      ],
      "name": "allowance",
      "outputs": [
        {
          "internalType": "uint256",
          "name": "",
          "type": "uint256"
        }
      ],
      "stateMutability": "view",
      "type": "function",
      "constant": true
    },
    {
      "inputs": [
        {
          "internalType": "address",
          "name": "spender",
          "type": "address"
        },
        {
          "internalType": "uint256",
          "name": "amount",
          "type": "uint256"
        }
      ],
      "name": "approve",
      "outputs": [
        {
          "internalType": "bool",
          "name": "",
          "type": "bool"
        }
      ],
      "stateMutability": "nonpayable",
      "type": "function"
    },
    {
      "inputs": [
        {
          "internalType": "address",
          "name": "account",
          "type": "address"
        }
      ],
      "name": "balanceOf",
      "outputs": [
        {
          "internalType": "uint256",
          "name": "",
          "type": "uint256"
        }
      ],
      "stateMutability": "view",
      "type": "function",
      "constant": true
    },
    {
      "inputs": [],
      "name": "decimals",
      "outputs": [
        {
          "internalType": "uint8",
          "name": "",
          "type": "uint8"
        }
      ],
      "stateMutability": "view",
      "type": "function",
      "constant": true
    },
    {
      "inputs": [
        {
          "internalType": "address",
          "name": "spender",
          "type": "address"
        },
        {
          "internalType": "uint256",
          "name": "subtractedValue",
          "type": "uint256"
        }
      ],
      "name": "decreaseAllowance",
      "outputs": [
        {
          "internalType": "bool",
          "name": "",
          "type": "bool"
        }
      ],
      "stateMutability": "nonpayable",
      "type": "function"
    },
    {
      "inputs": [
        {
          "internalType": "address",
          "name": "spender",
          "type": "address"
        },
        {
          "internalType": "uint256",
          "name": "addedValue",
          "type": "uint256"
        }
      ],
      "name": "increaseAllowance",
      "outputs": [
        {
          "internalType": "bool",
          "name": "",
          "type": "bool"
        }
      ],
      "stateMutability": "nonpayable",
      "type": "function"
    },
    {
      "inputs": [],
      "name": "isO2",
      "outputs": [
        {
          "internalType": "bool",
          "name": "",
          "type": "bool"
        }
      ],
      "stateMutability": "view",
      "type": "function",
      "constant": true
    },
    {
      "inputs": [],
      "name": "name",
      "outputs": [
        {
          "internalType": "string",
          "name": "",
          "type": "string"
        }
      ],
      "stateMutability": "view",
      "type": "function",
      "constant": true
    },
    {
      "inputs": [],
      "name": "symbol",
      "outputs": [
        {
          "internalType": "string",
          "name": "",
          "type": "string"
        }
      ],
      "stateMutability": "view",
      "type": "function",
      "constant": true
    },
    {
      "inputs": [],
      "name": "totalSupply",
      "outputs": [
        {
          "internalType": "uint256",
          "name": "",
          "type": "uint256"
        }
      ],
      "stateMutability": "view",
      "type": "function",
      "constant": true
    },
    {
      "inputs": [
        {
          "internalType": "address",
          "name": "recipient",
          "type": "address"
        },
        {
          "internalType": "uint256",
          "name": "amount",
          "type": "uint256"
        }
      ],
      "name": "transfer",
      "outputs": [
        {
          "internalType": "bool",
          "name": "",
          "type": "bool"
        }
      ],
      "stateMutability": "nonpayable",
      "type": "function"
    },
    {
      "inputs": [
        {
          "internalType": "address",
          "name": "sender",
          "type": "address"
        },
        {
          "internalType": "address",
          "name": "recipient",
          "type": "address"
        },
        {
          "internalType": "uint256",
          "name": "amount",
          "type": "uint256"
        }
      ],
      "name": "transferFrom",
      "outputs": [
        {
          "internalType": "bool",
          "name": "",
          "type": "bool"
        }
      ],
      "stateMutability": "nonpayable",
      "type": "function"
    },
    {
      "inputs": [
        {
          "internalType": "address",
          "name": "_accessRestrictionAddress",
          "type": "address"
        }
      ],
      "name": "initialize",
      "outputs": [],
      "stateMutability": "nonpayable",
      "type": "function"
    },
    {
      "inputs": [
        {
          "internalType": "address",
          "name": "_to",
          "type": "address"
        },
        {
          "internalType": "uint256",
          "name": "_amount",
          "type": "uint256"
        }
      ],
      "name": "mint",
      "outputs": [],
      "stateMutability": "nonpayable",
      "type": "function"
    }
  ],
  "bytecode": "0x608060405234801561001057600080fd5b5061106a806100206000396000f3fe608060405234801561001057600080fd5b50600436106100f55760003560e01c80635db55c8d11610097578063a9059cbb11610066578063a9059cbb146101d3578063c4d66de8146101e6578063d6762c4a146101f9578063dd62ed3e1461020e576100f5565b80635db55c8d1461019d57806370a08231146101a557806395d89b41146101b8578063a457c2d7146101c0576100f5565b806323b872dd116100d357806323b872dd1461014d578063313ce56714610160578063395093511461017557806340c10f1914610188576100f5565b806306fdde03146100fa578063095ea7b31461011857806318160ddd14610138575b600080fd5b610102610221565b60405161010f9190610d78565b60405180910390f35b61012b610126366004610d0f565b6102b8565b60405161010f9190610d6d565b6101406102d6565b60405161010f9190610f95565b61012b61015b366004610ccf565b6102dc565b610168610369565b60405161010f9190610f9e565b61012b610183366004610d0f565b610372565b61019b610196366004610d0f565b6103c6565b005b61012b610438565b6101406101b3366004610c80565b610441565b61010261045c565b61012b6101ce366004610d0f565b6104bd565b61012b6101e1366004610d0f565b61052b565b61019b6101f4366004610c80565b61053f565b6102016106bc565b60405161010f9190610d59565b61014061021c366004610c9b565b6106d0565b60368054604080516020601f60026000196101006001881615020190951694909404938401819004810282018101909252828152606093909290918301828280156102ad5780601f10610282576101008083540402835291602001916102ad565b820191906000526020600020905b81548152906001019060200180831161029057829003601f168201915b505050505090505b90565b60006102cc6102c56106fb565b84846106ff565b5060015b92915050565b60355490565b60006102e98484846107b3565b61035f846102f56106fb565b61035a85604051806060016040528060288152602001610fe8602891396001600160a01b038a166000908152603460205260408120906103336106fb565b6001600160a01b03168152602081019190915260400160002054919063ffffffff6108d416565b6106ff565b5060019392505050565b60385460ff1690565b60006102cc61037f6106fb565b8461035a85603460006103906106fb565b6001600160a01b03908116825260208083019390935260409182016000908120918c16815292529020549063ffffffff61090016565b60655460405163257950ab60e11b81526101009091046001600160a01b031690634af2a156906103fa903390600401610d59565b60006040518083038186803b15801561041257600080fd5b505afa158015610426573d6000803e3d6000fd5b50505050610434828261092c565b5050565b60655460ff1681565b6001600160a01b031660009081526033602052604090205490565b60378054604080516020601f60026000196101006001881615020190951694909404938401819004810282018101909252828152606093909290918301828280156102ad5780601f10610282576101008083540402835291602001916102ad565b60006102cc6104ca6106fb565b8461035a8560405180606001604052806025815260200161101060259139603460006104f46106fb565b6001600160a01b03908116825260208083019390935260409182016000908120918d1681529252902054919063ffffffff6108d416565b60006102cc6105386106fb565b84846107b3565b600054610100900460ff168061055857506105586109f8565b80610566575060005460ff16155b61058b5760405162461bcd60e51b815260040161058290610e87565b60405180910390fd5b600054610100900460ff161580156105b6576000805460ff1961ff0019909116610100171660011790555b6065805460ff191660011790556040805163ba84fd6960e01b8152905183916001600160a01b0383169163ba84fd6991600480820192602092909190829003018186803b15801561060657600080fd5b505afa15801561061a573d6000803e3d6000fd5b505050506040513d601f19601f8201168201806040525081019061063e9190610d39565b61064757600080fd5b60658054610100600160a81b0319166101006001600160a01b03841602179055604080518082018252600681526527bc3cb3b2b760d11b60208083019190915282518084019093526002835261279960f11b908301526106a6916109fe565b508015610434576000805461ff00191690555050565b60655461010090046001600160a01b031681565b6001600160a01b03918216600090815260346020908152604080832093909416825291909152205490565b3390565b6001600160a01b0383166107255760405162461bcd60e51b815260040161058290610f1a565b6001600160a01b03821661074b5760405162461bcd60e51b815260040161058290610e0e565b6001600160a01b0380841660008181526034602090815260408083209487168084529490915290819020849055517f8c5be1e5ebec7d5bd14f71427d1e84f3dd0314c0f7b2291e5b200ac8c7c3b925906107a6908590610f95565b60405180910390a3505050565b6001600160a01b0383166107d95760405162461bcd60e51b815260040161058290610ed5565b6001600160a01b0382166107ff5760405162461bcd60e51b815260040161058290610dcb565b61080a838383610a90565b61084d81604051806060016040528060268152602001610fc2602691396001600160a01b038616600090815260336020526040902054919063ffffffff6108d416565b6001600160a01b038085166000908152603360205260408082209390935590841681522054610882908263ffffffff61090016565b6001600160a01b0380841660008181526033602052604090819020939093559151908516907fddf252ad1be2c89b69c2b068fc378daa952ba7f163c4a11628f55a4df523b3ef906107a6908590610f95565b600081848411156108f85760405162461bcd60e51b81526004016105829190610d78565b505050900390565b6000828201838110156109255760405162461bcd60e51b815260040161058290610e50565b9392505050565b6001600160a01b0382166109525760405162461bcd60e51b815260040161058290610f5e565b61095e60008383610a90565b603554610971908263ffffffff61090016565b6035556001600160a01b03821660009081526033602052604090205461099d908263ffffffff61090016565b6001600160a01b0383166000818152603360205260408082209390935591519091907fddf252ad1be2c89b69c2b068fc378daa952ba7f163c4a11628f55a4df523b3ef906109ec908590610f95565b60405180910390a35050565b303b1590565b600054610100900460ff1680610a175750610a176109f8565b80610a25575060005460ff16155b610a415760405162461bcd60e51b815260040161058290610e87565b600054610100900460ff16158015610a6c576000805460ff1961ff0019909116610100171660011790555b610a74610a95565b610a7e8383610b18565b8015610a90576000805461ff00191690555b505050565b600054610100900460ff1680610aae5750610aae6109f8565b80610abc575060005460ff16155b610ad85760405162461bcd60e51b815260040161058290610e87565b600054610100900460ff16158015610b03576000805460ff1961ff0019909116610100171660011790555b8015610b15576000805461ff00191690555b50565b600054610100900460ff1680610b315750610b316109f8565b80610b3f575060005460ff16155b610b5b5760405162461bcd60e51b815260040161058290610e87565b600054610100900460ff16158015610b86576000805460ff1961ff0019909116610100171660011790555b8251610b99906036906020860190610bd1565b508151610bad906037906020850190610bd1565b506038805460ff191660121790558015610a90576000805461ff0019169055505050565b828054600181600116156101000203166002900490600052602060002090601f016020900481019282601f10610c1257805160ff1916838001178555610c3f565b82800160010185558215610c3f579182015b82811115610c3f578251825591602001919060010190610c24565b50610c4b929150610c4f565b5090565b6102b591905b80821115610c4b5760008155600101610c55565b80356001600160a01b03811681146102d057600080fd5b600060208284031215610c91578081fd5b6109258383610c69565b60008060408385031215610cad578081fd5b610cb78484610c69565b9150610cc68460208501610c69565b90509250929050565b600080600060608486031215610ce3578081fd5b8335610cee81610fac565b92506020840135610cfe81610fac565b929592945050506040919091013590565b60008060408385031215610d21578182fd5b610d2b8484610c69565b946020939093013593505050565b600060208284031215610d4a578081fd5b81518015158114610925578182fd5b6001600160a01b0391909116815260200190565b901515815260200190565b6000602080835283518082850152825b81811015610da457858101830151858201604001528201610d88565b81811115610db55783604083870101525b50601f01601f1916929092016040019392505050565b60208082526023908201527f45524332303a207472616e7366657220746f20746865207a65726f206164647260408201526265737360e81b606082015260800190565b60208082526022908201527f45524332303a20617070726f766520746f20746865207a65726f206164647265604082015261737360f01b606082015260800190565b6020808252601b908201527f536166654d6174683a206164646974696f6e206f766572666c6f770000000000604082015260600190565b6020808252602e908201527f496e697469616c697a61626c653a20636f6e747261637420697320616c72656160408201526d191e481a5b9a5d1a585b1a5e995960921b606082015260800190565b60208082526025908201527f45524332303a207472616e736665722066726f6d20746865207a65726f206164604082015264647265737360d81b606082015260800190565b60208082526024908201527f45524332303a20617070726f76652066726f6d20746865207a65726f206164646040820152637265737360e01b606082015260800190565b6020808252601f908201527f45524332303a206d696e7420746f20746865207a65726f206164647265737300604082015260600190565b90815260200190565b60ff91909116815260200190565b6001600160a01b0381168114610b1557600080fdfe45524332303a207472616e7366657220616d6f756e7420657863656564732062616c616e636545524332303a207472616e7366657220616d6f756e74206578636565647320616c6c6f77616e636545524332303a2064656372656173656420616c6c6f77616e63652062656c6f77207a65726fa26469706673582212207d5b624e33f3fcf312434294bf707f8b18999092aac9ba2586ce191e0f3eac0264736f6c634300060a0033",
  "immutableReferences": {},
  "source": "// SPDX-License-Identifier: GPL-3.0\n\npragma solidity >=0.4.21 <0.7.0;\npragma experimental ABIEncoderV2;\n\nimport \"@openzeppelin/contracts-upgradeable/token/ERC20/ERC20Upgradeable.sol\";\n\nimport \"../access/IAccessRestriction.sol\";\n\ncontract O2 is ERC20Upgradeable {\n    bool public isO2;\n    IAccessRestriction public accessRestriction;\n\n    function initialize(address _accessRestrictionAddress) public initializer {\n        isO2 = true;\n        IAccessRestriction candidateContract =\n            IAccessRestriction(_accessRestrictionAddress);\n        require(candidateContract.isAccessRestriction());\n        accessRestriction = candidateContract;\n\n        ERC20Upgradeable.__ERC20_init(\"Oxygen\", \"O2\");\n    }\n\n    function mint(address _to, uint256 _amount) external {\n        accessRestriction.ifO2Factory(msg.sender);\n        _mint(_to, _amount);\n    }\n}\n",
  "sourcePath": "/home/amir/Projects/treejer/contract/contracts/o2/O2.sol",
  "compiler": {
    "name": "solc",
    "version": "0.6.10+commit.00c0fcaf.Emscripten.clang"
  },
  "schemaVersion": "3.3.3",
  "updatedAt": "2021-01-23T09:51:18.772Z",
  "networkType": "ethereum",
  "devdoc": {
    "methods": {
      "allowance(address,address)": {
        "details": "See {IERC20-allowance}."
      },
      "approve(address,uint256)": {
        "details": "See {IERC20-approve}. Requirements: - `spender` cannot be the zero address."
      },
      "balanceOf(address)": {
        "details": "See {IERC20-balanceOf}."
      },
      "decimals()": {
        "details": "Returns the number of decimals used to get its user representation. For example, if `decimals` equals `2`, a balance of `505` tokens should be displayed to a user as `5,05` (`505 / 10 ** 2`). Tokens usually opt for a value of 18, imitating the relationship between Ether and Wei. This is the value {ERC20} uses, unless {_setupDecimals} is called. NOTE: This information is only used for _display_ purposes: it in no way affects any of the arithmetic of the contract, including {IERC20-balanceOf} and {IERC20-transfer}."
      },
      "decreaseAllowance(address,uint256)": {
        "details": "Atomically decreases the allowance granted to `spender` by the caller. This is an alternative to {approve} that can be used as a mitigation for problems described in {IERC20-approve}. Emits an {Approval} event indicating the updated allowance. Requirements: - `spender` cannot be the zero address. - `spender` must have allowance for the caller of at least `subtractedValue`."
      },
      "increaseAllowance(address,uint256)": {
        "details": "Atomically increases the allowance granted to `spender` by the caller. This is an alternative to {approve} that can be used as a mitigation for problems described in {IERC20-approve}. Emits an {Approval} event indicating the updated allowance. Requirements: - `spender` cannot be the zero address."
      },
      "name()": {
        "details": "Returns the name of the token."
      },
      "symbol()": {
        "details": "Returns the symbol of the token, usually a shorter version of the name."
      },
      "totalSupply()": {
        "details": "See {IERC20-totalSupply}."
      },
      "transfer(address,uint256)": {
        "details": "See {IERC20-transfer}. Requirements: - `recipient` cannot be the zero address. - the caller must have a balance of at least `amount`."
      },
      "transferFrom(address,address,uint256)": {
        "details": "See {IERC20-transferFrom}. Emits an {Approval} event indicating the updated allowance. This is not required by the EIP. See the note at the beginning of {ERC20}. Requirements: - `sender` and `recipient` cannot be the zero address. - `sender` must have a balance of at least `amount`. - the caller must have allowance for ``sender``'s tokens of at least `amount`."
      }
    }
  },
  "userdoc": {
    "methods": {}
  }
}