{
  "contractName": "O2Factory",
  "abi": [
    {
      "anonymous": false,
      "inputs": [
        {
          "indexed": true,
          "internalType": "address",
          "name": "owner",
          "type": "address"
        },
        {
          "indexed": true,
          "internalType": "address",
          "name": "spender",
          "type": "address"
        },
        {
          "indexed": false,
          "internalType": "uint256",
          "name": "value",
          "type": "uint256"
        }
      ],
      "name": "Approval",
      "type": "event"
    },
    {
      "anonymous": false,
      "inputs": [
        {
          "indexed": false,
          "internalType": "address",
          "name": "owner",
          "type": "address"
        },
        {
          "indexed": false,
          "internalType": "uint256",
          "name": "totalO2",
          "type": "uint256"
        }
      ],
      "name": "O2Minted",
      "type": "event"
    },
    {
      "anonymous": false,
      "inputs": [
        {
          "indexed": true,
          "internalType": "address",
          "name": "from",
          "type": "address"
        },
        {
          "indexed": true,
          "internalType": "address",
          "name": "to",
          "type": "address"
        },
        {
          "indexed": false,
          "internalType": "uint256",
          "name": "value",
          "type": "uint256"
        }
      ],
      "name": "Transfer",
      "type": "event"
    },
    {
      "inputs": [],
      "name": "accessRestriction",
      "outputs": [
        {
          "internalType": "contract AccessRestriction",
          "name": "",
          "type": "address"
        }
      ],
      "stateMutability": "view",
      "type": "function",
      "constant": true
    },
    {
      "inputs": [
        {
          "internalType": "address",
          "name": "owner",
          "type": "address"
        },
        {
          "internalType": "address",
          "name": "spender",
          "type": "address"
        }
      ],
      "name": "allowance",
      "outputs": [
        {
          "internalType": "uint256",
          "name": "",
          "type": "uint256"
        }
      ],
      "stateMutability": "view",
      "type": "function",
      "constant": true
    },
    {
      "inputs": [
        {
          "internalType": "address",
          "name": "spender",
          "type": "address"
        },
        {
          "internalType": "uint256",
          "name": "amount",
          "type": "uint256"
        }
      ],
      "name": "approve",
      "outputs": [
        {
          "internalType": "bool",
          "name": "",
          "type": "bool"
        }
      ],
      "stateMutability": "nonpayable",
      "type": "function"
    },
    {
      "inputs": [
        {
          "internalType": "address",
          "name": "account",
          "type": "address"
        }
      ],
      "name": "balanceOf",
      "outputs": [
        {
          "internalType": "uint256",
          "name": "",
          "type": "uint256"
        }
      ],
      "stateMutability": "view",
      "type": "function",
      "constant": true
    },
    {
      "inputs": [],
      "name": "decimals",
      "outputs": [
        {
          "internalType": "uint8",
          "name": "",
          "type": "uint8"
        }
      ],
      "stateMutability": "view",
      "type": "function",
      "constant": true
    },
    {
      "inputs": [
        {
          "internalType": "address",
          "name": "spender",
          "type": "address"
        },
        {
          "internalType": "uint256",
          "name": "subtractedValue",
          "type": "uint256"
        }
      ],
      "name": "decreaseAllowance",
      "outputs": [
        {
          "internalType": "bool",
          "name": "",
          "type": "bool"
        }
      ],
      "stateMutability": "nonpayable",
      "type": "function"
    },
    {
      "inputs": [
        {
          "internalType": "address",
          "name": "spender",
          "type": "address"
        },
        {
          "internalType": "uint256",
          "name": "addedValue",
          "type": "uint256"
        }
      ],
      "name": "increaseAllowance",
      "outputs": [
        {
          "internalType": "bool",
          "name": "",
          "type": "bool"
        }
      ],
      "stateMutability": "nonpayable",
      "type": "function"
    },
    {
      "inputs": [],
      "name": "name",
      "outputs": [
        {
          "internalType": "string",
          "name": "",
          "type": "string"
        }
      ],
      "stateMutability": "view",
      "type": "function",
      "constant": true
    },
    {
      "inputs": [],
      "name": "symbol",
      "outputs": [
        {
          "internalType": "string",
          "name": "",
          "type": "string"
        }
      ],
      "stateMutability": "view",
      "type": "function",
      "constant": true
    },
    {
      "inputs": [],
      "name": "totalSupply",
      "outputs": [
        {
          "internalType": "uint256",
          "name": "",
          "type": "uint256"
        }
      ],
      "stateMutability": "view",
      "type": "function",
      "constant": true
    },
    {
      "inputs": [
        {
          "internalType": "address",
          "name": "recipient",
          "type": "address"
        },
        {
          "internalType": "uint256",
          "name": "amount",
          "type": "uint256"
        }
      ],
      "name": "transfer",
      "outputs": [
        {
          "internalType": "bool",
          "name": "",
          "type": "bool"
        }
      ],
      "stateMutability": "nonpayable",
      "type": "function"
    },
    {
      "inputs": [
        {
          "internalType": "address",
          "name": "sender",
          "type": "address"
        },
        {
          "internalType": "address",
          "name": "recipient",
          "type": "address"
        },
        {
          "internalType": "uint256",
          "name": "amount",
          "type": "uint256"
        }
      ],
      "name": "transferFrom",
      "outputs": [
        {
          "internalType": "bool",
          "name": "",
          "type": "bool"
        }
      ],
      "stateMutability": "nonpayable",
      "type": "function"
    },
    {
      "inputs": [],
      "name": "treeFactory",
      "outputs": [
        {
          "internalType": "contract TreeFactory",
          "name": "",
          "type": "address"
        }
      ],
      "stateMutability": "view",
      "type": "function",
      "constant": true
    },
    {
      "inputs": [],
      "name": "treeType",
      "outputs": [
        {
          "internalType": "contract TreeType",
          "name": "",
          "type": "address"
        }
      ],
      "stateMutability": "view",
      "type": "function",
      "constant": true
    },
    {
      "inputs": [],
      "name": "updateFactory",
      "outputs": [
        {
          "internalType": "contract UpdateFactory",
          "name": "",
          "type": "address"
        }
      ],
      "stateMutability": "view",
      "type": "function",
      "constant": true
    },
    {
      "inputs": [
        {
          "internalType": "address",
          "name": "_accessRestrictionAddress",
          "type": "address"
        }
      ],
      "name": "initialize",
      "outputs": [],
      "stateMutability": "nonpayable",
      "type": "function"
    },
    {
      "inputs": [
        {
          "internalType": "address",
          "name": "_address",
          "type": "address"
        }
      ],
      "name": "setTreeTypeAddress",
      "outputs": [],
      "stateMutability": "nonpayable",
      "type": "function"
    },
    {
      "inputs": [
        {
          "internalType": "address",
          "name": "_address",
          "type": "address"
        }
      ],
      "name": "setTreeFactoryAddress",
      "outputs": [],
      "stateMutability": "nonpayable",
      "type": "function"
    },
    {
      "inputs": [
        {
          "internalType": "address",
          "name": "_address",
          "type": "address"
        }
      ],
      "name": "setUpdateFactoryAddress",
      "outputs": [],
      "stateMutability": "nonpayable",
      "type": "function"
    },
    {
      "inputs": [],
      "name": "mint",
      "outputs": [],
      "stateMutability": "nonpayable",
      "type": "function"
    }
  ],
  "bytecode": "0x608060405234801561001057600080fd5b50611ed2806100206000396000f3fe608060405234801561001057600080fd5b506004361061012c5760003560e01c806384916820116100ad578063a9059cbb11610071578063a9059cbb14610242578063bef4744514610255578063c4d66de814610268578063d6762c4a1461027b578063dd62ed3e146102835761012c565b80638491682014610204578063876924a21461021757806395d89b411461021f57806398f5fa3b14610227578063a457c2d71461022f5761012c565b806323b872dd116100f457806323b872dd146101a1578063313ce567146101b457806339509351146101c9578063421ef6d4146101dc57806370a08231146101f15761012c565b806306fdde0314610131578063095ea7b31461014f5780630bf351f81461016f5780631249c58b1461018457806318160ddd1461018c575b600080fd5b610139610296565b6040516101469190611b16565b60405180910390f35b61016261015d366004611904565b61032d565b6040516101469190611b0b565b61018261017d366004611875565b61034b565b005b61018261044d565b610194610cc0565b6040516101469190611d76565b6101626101af3660046118c4565b610cc6565b6101bc610d53565b6040516101469190611d8f565b6101626101d7366004611904565b610d5c565b6101e4610db0565b6040516101469190611ade565b6101946101ff366004611875565b610dbf565b610182610212366004611875565b610dda565b6101e4610edc565b610139610eeb565b6101e4610f4c565b61016261023d366004611904565b610f5b565b610162610250366004611904565b610fc9565b610182610263366004611875565b610fdd565b610182610276366004611875565b6110df565b6101e461123d565b610194610291366004611890565b61124c565b60688054604080516020601f60026000196101006001881615020190951694909404938401819004810282018101909252828152606093909290918301828280156103225780601f106102f757610100808354040283529160200191610322565b820191906000526020600020905b81548152906001019060200180831161030557829003601f168201915b505050505090505b90565b600061034161033a611277565b848461127b565b5060015b92915050565b609a54604051632104fb0560e21b81526001600160a01b0390911690638413ec149061037b903390600401611ade565b60006040518083038186803b15801561039357600080fd5b505afa1580156103a7573d6000803e3d6000fd5b505050506000819050806001600160a01b031663e0eb4eb96040518163ffffffff1660e01b815260040160206040518083038186803b1580156103e957600080fd5b505afa1580156103fd573d6000803e3d6000fd5b505050506040513d601f19601f8201168201806040525081019061042191906119c6565b61042a57600080fd5b609880546001600160a01b0319166001600160a01b039290921691909117905550565b6098546040516310d12f5b60e31b81526000916001600160a01b0316906386897ad89061047e903390600401611ade565b60206040518083038186803b15801561049657600080fd5b505afa1580156104aa573d6000803e3d6000fd5b505050506040513d601f19601f820116820180604052508101906104ce9190611aab565b9050600081116104f95760405162461bcd60e51b81526004016104f090611c31565b60405180910390fd5b6000805b82811015610c5857609854604051632f745c5960e01b81526000916001600160a01b031690632f745c59906105389033908690600401611af2565b60206040518083038186803b15801561055057600080fd5b505afa158015610564573d6000803e3d6000fd5b505050506040513d601f19601f820116820180604052508101906105889190611aab565b6099546040516313e7cb0960e31b81529192506060916001600160a01b0390911690639f3e5848906105be908590600401611d76565b60006040518083038186803b1580156105d657600080fd5b505afa1580156105ea573d6000803e3d6000fd5b505050506040513d6000823e601f3d908101601f19168201604052610612919081019061192e565b805190915060009061062657505050610c50565b609954604051632bfce49360e01b81526001600160a01b0390911690632bfce49390610656908690600401611d76565b60206040518083038186803b15801561066e57600080fd5b505afa158015610682573d6000803e3d6000fd5b505050506040513d601f19601f820116820180604052508101906106a691906119c6565b1515600114156106b857505050610c50565b81515b8015610b475760008360018303815181106106d257fe5b6020908102919091010151609954604051632e31150760e11b81529192506001600160a01b031690635c622a0e9061070e908490600401611d76565b60206040518083038186803b15801561072657600080fd5b505afa15801561073a573d6000803e3d6000fd5b505050506040513d601f19601f8201168201806040525081019061075e9190611ac3565b60ff1660011461076e5750610b3e565b60995460405163033c41a960e41b81526001600160a01b03909116906333c41a909061079e908490600401611d76565b60206040518083038186803b1580156107b657600080fd5b505afa1580156107ca573d6000803e3d6000fd5b505050506040513d601f19601f820116820180604052508101906107ee91906119c6565b1515600114156107fe5750610b3e565b60018211156109c057600084600284038151811061081857fe5b6020908102919091010151609954604051632e31150760e11b81529192506001600160a01b031690635c622a0e90610854908490600401611d76565b60206040518083038186803b15801561086c57600080fd5b505afa158015610880573d6000803e3d6000fd5b505050506040513d601f19601f820116820180604052508101906108a49190611ac3565b60ff166001146108b5575050610b3e565b6099546040516333f1941160e01b81526001600160a01b03909116906333f19411906108e5908490600401611d76565b60206040518083038186803b1580156108fd57600080fd5b505afa158015610911573d6000803e3d6000fd5b505050506040513d601f19601f820116820180604052508101906109359190611aab565b6099546040516333f1941160e01b81526001600160a01b03909116906333f1941190610965908690600401611d76565b60206040518083038186803b15801561097d57600080fd5b505afa158015610991573d6000803e3d6000fd5b505050506040513d601f19601f820116820180604052508101906109b59190611aab565b850103935050610ad7565b609854604051633d28401160e11b81526000916001600160a01b031690637a508022906109f1908990600401611d76565b60006040518083038186803b158015610a0957600080fd5b505afa158015610a1d573d6000803e3d6000fd5b505050506040513d6000823e601f3d908101601f19168201604052610a4591908101906119e6565b50506099546040516333f1941160e01b81529397508796506001600160a01b031694506333f194119350610a80928892506004019050611d76565b60206040518083038186803b158015610a9857600080fd5b505afa158015610aac573d6000803e3d6000fd5b505050506040513d601f19601f82011682018060405250810190610ad09190611aab565b8501039350505b609954604051632a05efdf60e11b81526001600160a01b039091169063540bdfbe90610b0a908490600190600401611d7f565b600060405180830381600087803b158015610b2457600080fd5b505af1158015610b38573d6000803e3d6000fd5b50505050505b600019016106bb565b506097546098546040516367d959ff60e11b81526000926001600160a01b039081169263252c7ffb9291169063cfb2b3fe90610b87908990600401611d76565b60206040518083038186803b158015610b9f57600080fd5b505afa158015610bb3573d6000803e3d6000fd5b505050506040513d601f19601f82011682018060405250810190610bd79190611ac3565b6040518263ffffffff1660e01b8152600401610bf39190611d8f565b60206040518083038186803b158015610c0b57600080fd5b505afa158015610c1f573d6000803e3d6000fd5b505050506040513d601f19601f82011682018060405250810190610c439190611aab565b9190910294909401935050505b6001016104fd565b5060008111610c795760405162461bcd60e51b81526004016104f090611c05565b610c83338261132f565b7fee1d22c56adf8004e20c2c8046f654eadde31bf648109f0253c823879220f8073382604051610cb4929190611af2565b60405180910390a15050565b60675490565b6000610cd38484846113fb565b610d4984610cdf611277565b610d4485604051806060016040528060288152602001611e50602891396001600160a01b038a16600090815260666020526040812090610d1d611277565b6001600160a01b03168152602081019190915260400160002054919063ffffffff61151c16565b61127b565b5060019392505050565b606a5460ff1690565b6000610341610d69611277565b84610d448560666000610d7a611277565b6001600160a01b03908116825260208083019390935260409182016000908120918c16815292529020549063ffffffff61154816565b6098546001600160a01b031681565b6001600160a01b031660009081526065602052604090205490565b609a54604051632104fb0560e21b81526001600160a01b0390911690638413ec1490610e0a903390600401611ade565b60006040518083038186803b158015610e2257600080fd5b505afa158015610e36573d6000803e3d6000fd5b505050506000819050806001600160a01b03166350aaf39d6040518163ffffffff1660e01b815260040160206040518083038186803b158015610e7857600080fd5b505afa158015610e8c573d6000803e3d6000fd5b505050506040513d601f19601f82011682018060405250810190610eb091906119c6565b610eb957600080fd5b609780546001600160a01b0319166001600160a01b039290921691909117905550565b6097546001600160a01b031681565b60698054604080516020601f60026000196101006001881615020190951694909404938401819004810282018101909252828152606093909290918301828280156103225780601f106102f757610100808354040283529160200191610322565b6099546001600160a01b031681565b6000610341610f68611277565b84610d4485604051806060016040528060258152602001611e786025913960666000610f92611277565b6001600160a01b03908116825260208083019390935260409182016000908120918d1681529252902054919063ffffffff61151c16565b6000610341610fd6611277565b84846113fb565b609a54604051632104fb0560e21b81526001600160a01b0390911690638413ec149061100d903390600401611ade565b60006040518083038186803b15801561102557600080fd5b505afa158015611039573d6000803e3d6000fd5b505050506000819050806001600160a01b031663edbe8d4e6040518163ffffffff1660e01b815260040160206040518083038186803b15801561107b57600080fd5b505afa15801561108f573d6000803e3d6000fd5b505050506040513d601f19601f820116820180604052508101906110b391906119c6565b6110bc57600080fd5b609980546001600160a01b0319166001600160a01b039290921691909117905550565b600054610100900460ff16806110f857506110f8611574565b80611106575060005460ff16155b6111225760405162461bcd60e51b81526004016104f090611c68565b600054610100900460ff1615801561114d576000805460ff1961ff0019909116610100171660011790555b6000829050806001600160a01b031663ba84fd696040518163ffffffff1660e01b815260040160206040518083038186803b15801561118b57600080fd5b505afa15801561119f573d6000803e3d6000fd5b505050506040513d601f19601f820116820180604052508101906111c391906119c6565b6111cc57600080fd5b609a80546001600160a01b0319166001600160a01b038316179055604080518082018252600681526527bc3cb3b2b760d11b60208083019190915282518084019093526002835261279960f11b908301526112269161157a565b508015611239576000805461ff00191690555b5050565b609a546001600160a01b031681565b6001600160a01b03918216600090815260666020908152604080832093909416825291909152205490565b3390565b6001600160a01b0383166112a15760405162461bcd60e51b81526004016104f090611cfb565b6001600160a01b0382166112c75760405162461bcd60e51b81526004016104f090611b8c565b6001600160a01b0380841660008181526066602090815260408083209487168084529490915290819020849055517f8c5be1e5ebec7d5bd14f71427d1e84f3dd0314c0f7b2291e5b200ac8c7c3b92590611322908590611d76565b60405180910390a3505050565b6001600160a01b0382166113555760405162461bcd60e51b81526004016104f090611d3f565b6113616000838361160c565b606754611374908263ffffffff61154816565b6067556001600160a01b0382166000908152606560205260409020546113a0908263ffffffff61154816565b6001600160a01b0383166000818152606560205260408082209390935591519091907fddf252ad1be2c89b69c2b068fc378daa952ba7f163c4a11628f55a4df523b3ef906113ef908590611d76565b60405180910390a35050565b6001600160a01b0383166114215760405162461bcd60e51b81526004016104f090611cb6565b6001600160a01b0382166114475760405162461bcd60e51b81526004016104f090611b49565b61145283838361160c565b61149581604051806060016040528060268152602001611e2a602691396001600160a01b038616600090815260656020526040902054919063ffffffff61151c16565b6001600160a01b0380851660009081526065602052604080822093909355908416815220546114ca908263ffffffff61154816565b6001600160a01b0380841660008181526065602052604090819020939093559151908516907fddf252ad1be2c89b69c2b068fc378daa952ba7f163c4a11628f55a4df523b3ef90611322908590611d76565b600081848411156115405760405162461bcd60e51b81526004016104f09190611b16565b505050900390565b60008282018381101561156d5760405162461bcd60e51b81526004016104f090611bce565b9392505050565b303b1590565b600054610100900460ff16806115935750611593611574565b806115a1575060005460ff16155b6115bd5760405162461bcd60e51b81526004016104f090611c68565b600054610100900460ff161580156115e8576000805460ff1961ff0019909116610100171660011790555b6115f0611611565b6115fa8383611694565b801561160c576000805461ff00191690555b505050565b600054610100900460ff168061162a575061162a611574565b80611638575060005460ff16155b6116545760405162461bcd60e51b81526004016104f090611c68565b600054610100900460ff1615801561167f576000805460ff1961ff0019909116610100171660011790555b8015611691576000805461ff00191690555b50565b600054610100900460ff16806116ad57506116ad611574565b806116bb575060005460ff16155b6116d75760405162461bcd60e51b81526004016104f090611c68565b600054610100900460ff16158015611702576000805460ff1961ff0019909116610100171660011790555b825161171590606890602086019061174d565b50815161172990606990602085019061174d565b50606a805460ff19166012179055801561160c576000805461ff0019169055505050565b828054600181600116156101000203166002900490600052602060002090601f016020900481019282601f1061178e57805160ff19168380011785556117bb565b828001600101855582156117bb579182015b828111156117bb5782518255916020019190600101906117a0565b506117c79291506117cb565b5090565b61032a91905b808211156117c757600081556001016117d1565b80356001600160a01b038116811461034557600080fd5b600082601f83011261180c578081fd5b815167ffffffffffffffff811115611822578182fd5b611835601f8201601f1916602001611d9d565b915080825283602082850101111561184c57600080fd5b61185d816020840160208601611de4565b5092915050565b805160ff8116811461034557600080fd5b600060208284031215611886578081fd5b61156d83836117e5565b600080604083850312156118a2578081fd5b6118ac84846117e5565b91506118bb84602085016117e5565b90509250929050565b6000806000606084860312156118d8578081fd5b83356118e381611e14565b925060208401356118f381611e14565b929592945050506040919091013590565b60008060408385031215611916578182fd5b61192084846117e5565b946020939093013593505050565b60006020808385031215611940578182fd5b825167ffffffffffffffff811115611956578283fd5b80840185601f820112611967578384fd5b8051915061197c61197783611dc4565b611d9d565b8281528381019082850185850284018601891015611998578687fd5b8693505b848410156119ba57805183526001939093019291850191850161199c565b50979650505050505050565b6000602082840312156119d7578081fd5b8151801515811461156d578182fd5b600080600080600080600080610100898b031215611a02578384fd5b885167ffffffffffffffff80821115611a19578586fd5b611a258c838d016117fc565b995060208b0151915080821115611a3a578586fd5b611a468c838d016117fc565b985060408b0151915080821115611a5b578586fd5b50611a688b828c016117fc565b965050606089015194506080890151935060a08901519250611a8d8a60c08b01611864565b9150611a9c8a60e08b01611864565b90509295985092959890939650565b600060208284031215611abc578081fd5b5051919050565b600060208284031215611ad4578081fd5b61156d8383611864565b6001600160a01b0391909116815260200190565b6001600160a01b03929092168252602082015260400190565b901515815260200190565b6000602082528251806020840152611b35816040850160208701611de4565b601f01601f19169190910160400192915050565b60208082526023908201527f45524332303a207472616e7366657220746f20746865207a65726f206164647260408201526265737360e81b606082015260800190565b60208082526022908201527f45524332303a20617070726f766520746f20746865207a65726f206164647265604082015261737360f01b606082015260800190565b6020808252601b908201527f536166654d6174683a206164646974696f6e206f766572666c6f770000000000604082015260600190565b6020808252601290820152714d696e7461626c654f32206973207a65726f60701b604082015260600190565b60208082526018908201527f4f776e6572207472656520636f756e74206973207a65726f0000000000000000604082015260600190565b6020808252602e908201527f436f6e747261637420696e7374616e63652068617320616c726561647920626560408201526d195b881a5b9a5d1a585b1a5e995960921b606082015260800190565b60208082526025908201527f45524332303a207472616e736665722066726f6d20746865207a65726f206164604082015264647265737360d81b606082015260800190565b60208082526024908201527f45524332303a20617070726f76652066726f6d20746865207a65726f206164646040820152637265737360e01b606082015260800190565b6020808252601f908201527f45524332303a206d696e7420746f20746865207a65726f206164647265737300604082015260600190565b90815260200190565b9182521515602082015260400190565b60ff91909116815260200190565b60405181810167ffffffffffffffff81118282101715611dbc57600080fd5b604052919050565b600067ffffffffffffffff821115611dda578081fd5b5060209081020190565b60005b83811015611dff578181015183820152602001611de7565b83811115611e0e576000848401525b50505050565b6001600160a01b038116811461169157600080fdfe45524332303a207472616e7366657220616d6f756e7420657863656564732062616c616e636545524332303a207472616e7366657220616d6f756e74206578636565647320616c6c6f77616e636545524332303a2064656372656173656420616c6c6f77616e63652062656c6f77207a65726fa26469706673582212208f1e7dd095eb9cf5ce0b4d6417be5447206a86aceff66fee57002b3d829ed69c64736f6c63430006090033",
  "immutableReferences": {},
  "source": "// SPDX-License-Identifier: GPL-3.0\n\npragma solidity >=0.4.21 <0.7.0;\npragma experimental ABIEncoderV2;\n\nimport \"../../node_modules/@openzeppelin/contracts-ethereum-package/contracts/token/ERC20/ERC20.sol\";\n\nimport \"../access/AccessRestriction.sol\";\nimport \"../tree/TreeFactory.sol\";\nimport \"../tree/UpdateFactory.sol\";\nimport \"../tree/TreeType.sol\";\n\ncontract O2Factory is ERC20UpgradeSafe {\n\n    event O2Minted(address owner, uint256 totalO2);\n\n    TreeType public treeType;\n    TreeFactory public treeFactory;\n    UpdateFactory public updateFactory;\n    AccessRestriction public accessRestriction;\n\n    function initialize(address _accessRestrictionAddress) public initializer {\n        AccessRestriction candidateContract = AccessRestriction(_accessRestrictionAddress);\n        require(candidateContract.isAccessRestriction());\n        accessRestriction = candidateContract;\n\n        ERC20UpgradeSafe.__ERC20_init(\n            \"Oxygen\",\n            \"O2\"\n        );\n    }\n\n    function setTreeTypeAddress(address _address) external {\n        accessRestriction.ifAdmin(msg.sender);\n\n        TreeType candidateContract = TreeType(_address);\n        require(candidateContract.isTreeType());\n        treeType = candidateContract;\n    }\n\n    function setTreeFactoryAddress(address _address) external {\n        accessRestriction.ifAdmin(msg.sender);\n\n        TreeFactory candidateContract = TreeFactory(_address);\n        require(candidateContract.isTreeFactory());\n        treeFactory = candidateContract;\n    }\n\n\n    function setUpdateFactoryAddress(address _address) external {\n        accessRestriction.ifAdmin(msg.sender);\n\n        UpdateFactory candidateContract = UpdateFactory(_address);\n        require(candidateContract.isUpdateFactory());\n        updateFactory = candidateContract;\n    }\n\n\n    //@todo permission must check\n    function mint() external  {\n\n        uint256 ownerTreesCount = treeFactory.ownerTreesCount(msg.sender);\n\n        require(\n            ownerTreesCount > 0,\n            \"Owner tree count is zero\"\n        );\n\n        uint256 mintableO2 = 0;\n\n        for (\n            uint256 i = 0;\n            i < ownerTreesCount;\n            i++\n        ) {\n            uint256 treeId = treeFactory.tokenOfOwnerByIndex(msg.sender, i);\n            uint256[] memory treeUpdates = updateFactory.getTreeUpdates(treeId);\n            uint256 totalSeconds = 0;\n\n            if (treeUpdates.length == 0) {\n                continue;\n            }\n\n            if (updateFactory.isTreeLastUpdateMinted(treeId) == true) {\n                continue;\n            }\n\n            for (uint256 j = treeUpdates.length; j > 0; j--) {\n                uint256 jUpdateId = treeUpdates[j - 1];\n\n                if (updateFactory.getStatus(jUpdateId) != 1) {\n                    continue;\n                }\n\n                if (updateFactory.isMinted(jUpdateId) == true) {\n                    continue;\n                }\n\n                if (j > 1) {\n                    uint256 jMinusUpdateId = treeUpdates[j - 2];\n\n                    if (updateFactory.getStatus(jMinusUpdateId) != 1) {\n                        continue;\n                    }\n\n                    totalSeconds =\n                        totalSeconds +\n                        updateFactory.getUpdateDate(jUpdateId) -\n                        updateFactory.getUpdateDate(jMinusUpdateId);\n                } else {\n                    (,,,uint256 plantedDate,,,,) = treeFactory.trees(treeId);\n\n                    totalSeconds =\n                        totalSeconds +\n                        updateFactory.getUpdateDate(jUpdateId) -\n                        plantedDate;\n                }\n\n                updateFactory.setMinted(jUpdateId, true);\n            }\n\n            uint256 o2Formula = treeType.getO2Formula(\n                treeFactory.treeToType(treeId)\n            );\n\n            mintableO2 = mintableO2 + o2Formula * totalSeconds;\n        }\n\n        require(mintableO2 > 0, \"MintableO2 is zero\");\n\n        _mint(msg.sender, mintableO2);\n\n        emit O2Minted(msg.sender, mintableO2);\n    }\n}\n",
  "sourcePath": "/home/amir/Projects/treejer/contract/contracts/o2/O2Factory.sol",
  "compiler": {
    "name": "solc",
    "version": "0.6.9+commit.3e3065ac.Emscripten.clang"
  },
  "schemaVersion": "3.2.3",
  "updatedAt": "2020-10-27T15:23:08.303Z",
  "networkType": "ethereum",
  "devdoc": {
    "methods": {
      "allowance(address,address)": {
        "details": "See {IERC20-allowance}."
      },
      "approve(address,uint256)": {
        "details": "See {IERC20-approve}. Requirements: - `spender` cannot be the zero address."
      },
      "balanceOf(address)": {
        "details": "See {IERC20-balanceOf}."
      },
      "decimals()": {
        "details": "Returns the number of decimals used to get its user representation. For example, if `decimals` equals `2`, a balance of `505` tokens should be displayed to a user as `5,05` (`505 / 10 ** 2`). Tokens usually opt for a value of 18, imitating the relationship between Ether and Wei. This is the value {ERC20} uses, unless {_setupDecimals} is called. NOTE: This information is only used for _display_ purposes: it in no way affects any of the arithmetic of the contract, including {IERC20-balanceOf} and {IERC20-transfer}."
      },
      "decreaseAllowance(address,uint256)": {
        "details": "Atomically decreases the allowance granted to `spender` by the caller. This is an alternative to {approve} that can be used as a mitigation for problems described in {IERC20-approve}. Emits an {Approval} event indicating the updated allowance. Requirements: - `spender` cannot be the zero address. - `spender` must have allowance for the caller of at least `subtractedValue`."
      },
      "increaseAllowance(address,uint256)": {
        "details": "Atomically increases the allowance granted to `spender` by the caller. This is an alternative to {approve} that can be used as a mitigation for problems described in {IERC20-approve}. Emits an {Approval} event indicating the updated allowance. Requirements: - `spender` cannot be the zero address."
      },
      "name()": {
        "details": "Returns the name of the token."
      },
      "symbol()": {
        "details": "Returns the symbol of the token, usually a shorter version of the name."
      },
      "totalSupply()": {
        "details": "See {IERC20-totalSupply}."
      },
      "transfer(address,uint256)": {
        "details": "See {IERC20-transfer}. Requirements: - `recipient` cannot be the zero address. - the caller must have a balance of at least `amount`."
      },
      "transferFrom(address,address,uint256)": {
        "details": "See {IERC20-transferFrom}. Emits an {Approval} event indicating the updated allowance. This is not required by the EIP. See the note at the beginning of {ERC20}; Requirements: - `sender` and `recipient` cannot be the zero address. - `sender` must have a balance of at least `amount`. - the caller must have allowance for ``sender``'s tokens of at least `amount`."
      }
    }
  },
  "userdoc": {
    "methods": {}
  }
}