{
  "contractName": "O2Factory",
  "abi": [
    {
      "anonymous": false,
      "inputs": [
        {
          "indexed": false,
          "internalType": "address",
          "name": "owner",
          "type": "address"
        },
        {
          "indexed": false,
          "internalType": "uint256",
          "name": "totalO2",
          "type": "uint256"
        }
      ],
      "name": "O2Minted",
      "type": "event"
    },
    {
      "inputs": [],
      "name": "accessRestriction",
      "outputs": [
        {
          "internalType": "contract IAccessRestriction",
          "name": "",
          "type": "address"
        }
      ],
      "stateMutability": "view",
      "type": "function",
      "constant": true
    },
    {
      "inputs": [],
      "name": "o2Token",
      "outputs": [
        {
          "internalType": "contract IO2",
          "name": "",
          "type": "address"
        }
      ],
      "stateMutability": "view",
      "type": "function",
      "constant": true
    },
    {
      "inputs": [],
      "name": "treeFactory",
      "outputs": [
        {
          "internalType": "contract ITreeFactory",
          "name": "",
          "type": "address"
        }
      ],
      "stateMutability": "view",
      "type": "function",
      "constant": true
    },
    {
      "inputs": [],
      "name": "treeToken",
      "outputs": [
        {
          "internalType": "contract ITree",
          "name": "",
          "type": "address"
        }
      ],
      "stateMutability": "view",
      "type": "function",
      "constant": true
    },
    {
      "inputs": [],
      "name": "treeType",
      "outputs": [
        {
          "internalType": "contract ITreeType",
          "name": "",
          "type": "address"
        }
      ],
      "stateMutability": "view",
      "type": "function",
      "constant": true
    },
    {
      "inputs": [],
      "name": "updateFactory",
      "outputs": [
        {
          "internalType": "contract IUpdateFactory",
          "name": "",
          "type": "address"
        }
      ],
      "stateMutability": "view",
      "type": "function",
      "constant": true
    },
    {
      "inputs": [
        {
          "internalType": "uint256",
          "name": "",
          "type": "uint256"
        }
      ],
      "name": "updateMinted",
      "outputs": [
        {
          "internalType": "bool",
          "name": "",
          "type": "bool"
        }
      ],
      "stateMutability": "view",
      "type": "function",
      "constant": true
    },
    {
      "inputs": [
        {
          "internalType": "address",
          "name": "_accessRestrictionAddress",
          "type": "address"
        }
      ],
      "name": "initialize",
      "outputs": [],
      "stateMutability": "nonpayable",
      "type": "function"
    },
    {
      "inputs": [
        {
          "internalType": "address",
          "name": "_address",
          "type": "address"
        }
      ],
      "name": "setTreeTokenAddress",
      "outputs": [],
      "stateMutability": "nonpayable",
      "type": "function"
    },
    {
      "inputs": [
        {
          "internalType": "address",
          "name": "_address",
          "type": "address"
        }
      ],
      "name": "setO2TokenAddress",
      "outputs": [],
      "stateMutability": "nonpayable",
      "type": "function"
    },
    {
      "inputs": [
        {
          "internalType": "address",
          "name": "_address",
          "type": "address"
        }
      ],
      "name": "setTreeTypeAddress",
      "outputs": [],
      "stateMutability": "nonpayable",
      "type": "function"
    },
    {
      "inputs": [
        {
          "internalType": "address",
          "name": "_address",
          "type": "address"
        }
      ],
      "name": "setTreeFactoryAddress",
      "outputs": [],
      "stateMutability": "nonpayable",
      "type": "function"
    },
    {
      "inputs": [
        {
          "internalType": "address",
          "name": "_address",
          "type": "address"
        }
      ],
      "name": "setUpdateFactoryAddress",
      "outputs": [],
      "stateMutability": "nonpayable",
      "type": "function"
    },
    {
      "inputs": [],
      "name": "mint",
      "outputs": [],
      "stateMutability": "nonpayable",
      "type": "function"
    }
  ],
  "bytecode": "0x608060405234801561001057600080fd5b50611617806100206000396000f3fe608060405234801561001057600080fd5b50600436106100ea5760003560e01c80636fd40e541161008c57806398f5fa3b1161006657806398f5fa3b1461019b578063bef47445146101a3578063c4d66de8146101b6578063d6762c4a146101c9576100ea565b80636fd40e54146101785780638491682014610180578063876924a214610193576100ea565b806312cc3ab0116100c857806312cc3ab01461013557806338f1f40f1461014a578063421ef6d41461015d5780635ea3662814610165576100ea565b8063086dfd0f146100ef5780630bf351f8146101185780631249c58b1461012d575b600080fd5b6101026100fd36600461130f565b6101d1565b60405161010f91906113ec565b60405180910390f35b61012b61012636600461111e565b6101e6565b005b61012b6102e8565b61013d610a36565b60405161010f91906113bf565b61012b61015836600461111e565b610a4b565b61013d610b55565b61012b61017336600461111e565b610b64565b61013d610c66565b61012b61018e36600461111e565b610c75565b61013d610d77565b61013d610d86565b61012b6101b136600461111e565b610d95565b61012b6101c436600461111e565b610e97565b61013d610fba565b60066020526000908152604090205460ff1681565b600554604051632104fb0560e21b81526001600160a01b0390911690638413ec14906102169033906004016113bf565b60006040518083038186803b15801561022e57600080fd5b505afa158015610242573d6000803e3d6000fd5b505050506000819050806001600160a01b031663e0eb4eb96040518163ffffffff1660e01b815260040160206040518083038186803b15801561028457600080fd5b505afa158015610298573d6000803e3d6000fd5b505050506040513d601f19601f820116820180604052508101906102bc91906111dd565b6102c557600080fd5b600380546001600160a01b0319166001600160a01b039290921691909117905550565b600080546040516370a0823160e01b8152620100009091046001600160a01b0316906370a082319061031e9033906004016113bf565b60206040518083038186803b15801561033657600080fd5b505afa15801561034a573d6000803e3d6000fd5b505050506040513d601f19601f8201168201806040525081019061036e9190611327565b9050600081116103995760405162461bcd60e51b81526004016103909061148d565b60405180910390fd5b6000805b828110156109745760008054604051632f745c5960e01b8152620100009091046001600160a01b031690632f745c59906103dd90339086906004016113d3565b60206040518083038186803b1580156103f557600080fd5b505afa158015610409573d6000803e3d6000fd5b505050506040513d601f19601f8201168201806040525081019061042d9190611327565b600480546040516313e7cb0960e31b81529293506060926001600160a01b0390911691639f3e58489161046291869101611553565b60006040518083038186803b15801561047a57600080fd5b505afa15801561048e573d6000803e3d6000fd5b505050506040513d6000823e601f3d908101601f191682016040526104b69190810190611145565b80519091506000906104ca5750505061096c565b60048054604051632cb1c8cb60e21b81526006926000926001600160a01b03169163b2c7232c916104fd91899101611553565b60206040518083038186803b15801561051557600080fd5b505afa158015610529573d6000803e3d6000fd5b505050506040513d601f19601f8201168201806040525081019061054d9190611327565b815260208101919091526040016000205460ff161515600114156105735750505061096c565b81515b801561084b5760008361059083600163ffffffff610fc916565b8151811061059a57fe5b60209081029190910101516004805460405163b4c2f72760e01b815292935060009283926001600160a01b039092169163b4c2f727916105dc91879101611553565b60006040518083038186803b1580156105f457600080fd5b505afa158015610608573d6000803e3d6000fd5b505050506040513d6000823e601f3d908101601f19168201604052610630919081019061133f565b935093505050801515600115151461064a57505050610842565b60008381526006602052604090205460ff1615156001141561066e57505050610842565b60018411156107725760008661068b86600263ffffffff610fc916565b8151811061069557fe5b60209081029190910101516004805460405163b4c2f72760e01b815292935060009283926001600160a01b039092169163b4c2f727916106d791879101611553565b60006040518083038186803b1580156106ef57600080fd5b505afa158015610703573d6000803e3d6000fd5b505050506040513d6000823e601f3d908101601f1916820160405261072b919081019061133f565b935093505050801515600115151461074857505050505050610842565b61076861075b868463ffffffff610fc916565b899063ffffffff61101416565b9750505050610826565b600354604051633d28401160e11b81526000916001600160a01b031690637a508022906107a3908b90600401611553565b60006040518083038186803b1580156107bb57600080fd5b505afa1580156107cf573d6000803e3d6000fd5b505050506040513d6000823e601f3d908101601f191682016040526107f7919081019061126e565b50505050925050506108226108158285610fc990919063ffffffff16565b879063ffffffff61101416565b9550505b50506000908152600660205260409020805460ff191660011790555b60001901610576565b506002546003546040516367d959ff60e11b81526000926001600160a01b039081169263cefbfa369291169063cfb2b3fe9061088b908990600401611553565b60206040518083038186803b1580156108a357600080fd5b505afa1580156108b7573d6000803e3d6000fd5b505050506040513d601f19601f820116820180604052508101906108db91906113a4565b6040518263ffffffff1660e01b81526004016108f7919061155c565b60006040518083038186803b15801561090f57600080fd5b505afa158015610923573d6000803e3d6000fd5b505050506040513d6000823e601f3d908101601f1916820160405261094b91908101906111fd565b50925061096591506108159050828463ffffffff61103916565b9550505050505b60010161039d565b50600081116109955760405162461bcd60e51b815260040161039090611461565b6001546040516340c10f1960e01b81526001600160a01b03909116906340c10f19906109c790339085906004016113d3565b600060405180830381600087803b1580156109e157600080fd5b505af11580156109f5573d6000803e3d6000fd5b505050507fee1d22c56adf8004e20c2c8046f654eadde31bf648109f0253c823879220f8073382604051610a2a9291906113d3565b60405180910390a15050565b6000546201000090046001600160a01b031681565b600554604051632104fb0560e21b81526001600160a01b0390911690638413ec1490610a7b9033906004016113bf565b60006040518083038186803b158015610a9357600080fd5b505afa158015610aa7573d6000803e3d6000fd5b505050506000819050806001600160a01b03166337b9fd776040518163ffffffff1660e01b815260040160206040518083038186803b158015610ae957600080fd5b505afa158015610afd573d6000803e3d6000fd5b505050506040513d601f19601f82011682018060405250810190610b2191906111dd565b610b2a57600080fd5b600080546001600160a01b03909216620100000262010000600160b01b031990921691909117905550565b6003546001600160a01b031681565b600554604051632104fb0560e21b81526001600160a01b0390911690638413ec1490610b949033906004016113bf565b60006040518083038186803b158015610bac57600080fd5b505afa158015610bc0573d6000803e3d6000fd5b505050506000819050806001600160a01b0316635db55c8d6040518163ffffffff1660e01b815260040160206040518083038186803b158015610c0257600080fd5b505afa158015610c16573d6000803e3d6000fd5b505050506040513d601f19601f82011682018060405250810190610c3a91906111dd565b610c4357600080fd5b600180546001600160a01b0319166001600160a01b039290921691909117905550565b6001546001600160a01b031681565b600554604051632104fb0560e21b81526001600160a01b0390911690638413ec1490610ca59033906004016113bf565b60006040518083038186803b158015610cbd57600080fd5b505afa158015610cd1573d6000803e3d6000fd5b505050506000819050806001600160a01b03166350aaf39d6040518163ffffffff1660e01b815260040160206040518083038186803b158015610d1357600080fd5b505afa158015610d27573d6000803e3d6000fd5b505050506040513d601f19601f82011682018060405250810190610d4b91906111dd565b610d5457600080fd5b600280546001600160a01b0319166001600160a01b039290921691909117905550565b6002546001600160a01b031681565b6004546001600160a01b031681565b600554604051632104fb0560e21b81526001600160a01b0390911690638413ec1490610dc59033906004016113bf565b60006040518083038186803b158015610ddd57600080fd5b505afa158015610df1573d6000803e3d6000fd5b505050506000819050806001600160a01b031663edbe8d4e6040518163ffffffff1660e01b815260040160206040518083038186803b158015610e3357600080fd5b505afa158015610e47573d6000803e3d6000fd5b505050506040513d601f19601f82011682018060405250810190610e6b91906111dd565b610e7457600080fd5b600480546001600160a01b0319166001600160a01b039290921691909117905550565b600054610100900460ff1680610eb05750610eb0611073565b80610ebe575060005460ff16155b610eda5760405162461bcd60e51b8152600401610390906114c4565b600054610100900460ff16158015610f05576000805460ff1961ff0019909116610100171660011790555b6000829050806001600160a01b031663ba84fd696040518163ffffffff1660e01b815260040160206040518083038186803b158015610f4357600080fd5b505afa158015610f57573d6000803e3d6000fd5b505050506040513d601f19601f82011682018060405250810190610f7b91906111dd565b610f8457600080fd5b600580546001600160a01b0319166001600160a01b03929092169190911790558015610fb6576000805461ff00191690555b5050565b6005546001600160a01b031681565b600061100b83836040518060400160405280601e81526020017f536166654d6174683a207375627472616374696f6e206f766572666c6f770000815250611079565b90505b92915050565b60008282018381101561100b5760405162461bcd60e51b81526004016103909061142a565b6000826110485750600061100e565b8282028284828161105557fe5b041461100b5760405162461bcd60e51b815260040161039090611512565b303b1590565b6000818484111561109d5760405162461bcd60e51b815260040161039091906113f7565b505050900390565b600082601f8301126110b5578081fd5b815167ffffffffffffffff8111156110cb578182fd5b6110de601f8201601f191660200161156a565b91508082528360208285010111156110f557600080fd5b6111068160208401602086016115b1565b5092915050565b805160ff8116811461100e57600080fd5b60006020828403121561112f578081fd5b81356001600160a01b038116811461100b578182fd5b60006020808385031215611157578182fd5b825167ffffffffffffffff81111561116d578283fd5b80840185601f82011261117e578384fd5b8051915061119361118e83611591565b61156a565b82815283810190828501858502840186018910156111af578687fd5b8693505b848410156111d15780518352600193909301929185019185016111b3565b50979650505050505050565b6000602082840312156111ee578081fd5b8151801515811461100b578182fd5b60008060008060808587031215611212578283fd5b845167ffffffffffffffff80821115611229578485fd5b611235888389016110a5565b9550602087015191508082111561124a578485fd5b50611257878288016110a5565b604087015160609097015195989097509350505050565b600080600080600080600060e0888a031215611288578283fd5b875167ffffffffffffffff8082111561129f578485fd5b6112ab8b838c016110a5565b985060208a01519150808211156112c0578485fd5b506112cd8a828b016110a5565b9650506040880151945060608801519350608088015192506112f28960a08a0161110d565b91506113018960c08a0161110d565b905092959891949750929550565b600060208284031215611320578081fd5b5035919050565b600060208284031215611338578081fd5b5051919050565b60008060008060808587031215611354578384fd5b84519350602085015167ffffffffffffffff811115611371578384fd5b61137d878288016110a5565b9350506040850151915060608501518015158114611399578182fd5b939692955090935050565b6000602082840312156113b5578081fd5b61100b838361110d565b6001600160a01b0391909116815260200190565b6001600160a01b03929092168252602082015260400190565b901515815260200190565b60006020825282518060208401526114168160408501602087016115b1565b601f01601f19169190910160400192915050565b6020808252601b908201527f536166654d6174683a206164646974696f6e206f766572666c6f770000000000604082015260600190565b6020808252601290820152714d696e7461626c654f32206973207a65726f60701b604082015260600190565b60208082526018908201527f4f776e6572207472656520636f756e74206973207a65726f0000000000000000604082015260600190565b6020808252602e908201527f496e697469616c697a61626c653a20636f6e747261637420697320616c72656160408201526d191e481a5b9a5d1a585b1a5e995960921b606082015260800190565b60208082526021908201527f536166654d6174683a206d756c7469706c69636174696f6e206f766572666c6f6040820152607760f81b606082015260800190565b90815260200190565b60ff91909116815260200190565b60405181810167ffffffffffffffff8111828210171561158957600080fd5b604052919050565b600067ffffffffffffffff8211156115a7578081fd5b5060209081020190565b60005b838110156115cc5781810151838201526020016115b4565b838111156115db576000848401525b5050505056fea264697066735822122065b59f3964ae309458628cc437278340d4a68b55a7cbd189c2b3778db1cd5d7364736f6c634300060a0033",
  "immutableReferences": {},
  "source": "// SPDX-License-Identifier: GPL-3.0\n\npragma solidity >=0.4.21 <0.7.0;\npragma experimental ABIEncoderV2;\n\nimport \"@openzeppelin/contracts-upgradeable/proxy/Initializable.sol\";\nimport \"@openzeppelin/contracts-upgradeable/math/SafeMathUpgradeable.sol\";\n\nimport \"../access/IAccessRestriction.sol\";\nimport \"../tree/ITreeFactory.sol\";\nimport \"../tree/IUpdateFactory.sol\";\nimport \"../tree/ITreeType.sol\";\nimport \"./IO2.sol\";\nimport \"../tree/ITree.sol\";\n\ncontract O2Factory is Initializable {\n    using SafeMathUpgradeable for uint256;\n\n    event O2Minted(address owner, uint256 totalO2);\n\n    ITree public treeToken;\n    IO2 public o2Token;\n    ITreeType public treeType;\n    ITreeFactory public treeFactory;\n    IUpdateFactory public updateFactory;\n    IAccessRestriction public accessRestriction;\n\n    mapping(uint256 => bool) public updateMinted;\n\n    function initialize(address _accessRestrictionAddress) public initializer {\n        IAccessRestriction candidateContract =\n            IAccessRestriction(_accessRestrictionAddress);\n        require(candidateContract.isAccessRestriction());\n        accessRestriction = candidateContract;\n    }\n\n    function setTreeTokenAddress(address _address) external {\n        accessRestriction.ifAdmin(msg.sender);\n\n        ITree candidateContract = ITree(_address);\n        require(candidateContract.isTree());\n        treeToken = candidateContract;\n    }\n\n    function setO2TokenAddress(address _address) external {\n        accessRestriction.ifAdmin(msg.sender);\n\n        IO2 candidateContract = IO2(_address);\n        require(candidateContract.isO2());\n        o2Token = candidateContract;\n    }\n\n    function setTreeTypeAddress(address _address) external {\n        accessRestriction.ifAdmin(msg.sender);\n\n        ITreeType candidateContract = ITreeType(_address);\n        require(candidateContract.isTreeType());\n        treeType = candidateContract;\n    }\n\n    function setTreeFactoryAddress(address _address) external {\n        accessRestriction.ifAdmin(msg.sender);\n\n        ITreeFactory candidateContract = ITreeFactory(_address);\n        require(candidateContract.isTreeFactory());\n        treeFactory = candidateContract;\n    }\n\n    function setUpdateFactoryAddress(address _address) external {\n        accessRestriction.ifAdmin(msg.sender);\n\n        IUpdateFactory candidateContract = IUpdateFactory(_address);\n        require(candidateContract.isUpdateFactory());\n        updateFactory = candidateContract;\n    }\n\n    function mint() external {\n        uint256 ownerTreesCount = treeToken.balanceOf(msg.sender);\n\n        require(ownerTreesCount > 0, \"Owner tree count is zero\");\n\n        uint256 mintableO2 = 0;\n\n        for (uint256 i = 0; i < ownerTreesCount; i++) {\n            uint256 treeId = treeToken.tokenOfOwnerByIndex(msg.sender, i);\n            uint256[] memory treeUpdates = updateFactory.getTreeUpdates(treeId);\n            uint256 totalSeconds = 0;\n\n            if (treeUpdates.length == 0) {\n                continue;\n            }\n\n            if (\n                updateMinted[updateFactory.getTreeLastUpdateId(treeId)] == true\n            ) {\n                continue;\n            }\n\n            for (uint256 j = treeUpdates.length; j > 0; j--) {\n                uint256 jUpdateId = treeUpdates[j.sub(1)];\n\n                (, , uint256 jUpdateDate, bool jUpdateStatus) =\n                    updateFactory.updates(jUpdateId);\n\n                if (jUpdateStatus != true) {\n                    continue;\n                }\n\n                if (updateMinted[jUpdateId] == true) {\n                    continue;\n                }\n\n                if (j > 1) {\n                    uint256 jMinusUpdateId = treeUpdates[j.sub(2)];\n\n                    (, , uint256 jMUpdateDate, bool jMUpdateStatus) =\n                        updateFactory.updates(jMinusUpdateId);\n\n                    if (jMUpdateStatus != true) {\n                        continue;\n                    }\n\n                    totalSeconds = totalSeconds.add(\n                        jUpdateDate.sub(jMUpdateDate)\n                    );\n                } else {\n                    (, , uint256 plantedDate, , , , ) =\n                        treeFactory.trees(treeId);\n\n                    totalSeconds = totalSeconds.add(\n                        jUpdateDate.sub(plantedDate)\n                    );\n                }\n\n                updateMinted[jUpdateId] = true;\n            }\n\n            (, , uint256 o2Formula, ) =\n                treeType.types(treeFactory.treeToType(treeId));\n\n            mintableO2 = mintableO2.add(o2Formula.mul(totalSeconds));\n        }\n\n        require(mintableO2 > 0, \"MintableO2 is zero\");\n\n        o2Token.mint(msg.sender, mintableO2);\n\n        emit O2Minted(msg.sender, mintableO2);\n    }\n}\n",
  "sourcePath": "/home/amir/Projects/treejer/contract/contracts/o2/O2Factory.sol",
  "compiler": {
    "name": "solc",
    "version": "0.6.10+commit.00c0fcaf.Emscripten.clang"
  },
  "schemaVersion": "3.3.3",
  "updatedAt": "2021-01-30T12:22:44.275Z",
  "networkType": "ethereum",
  "devdoc": {
    "methods": {}
  },
  "userdoc": {
    "methods": {}
  }
}