{
  "contractName": "O2Factory",
  "abi": [
    {
      "anonymous": false,
      "inputs": [
        {
          "indexed": false,
          "internalType": "address",
          "name": "owner",
          "type": "address"
        },
        {
          "indexed": false,
          "internalType": "uint256",
          "name": "totalO2",
          "type": "uint256"
        }
      ],
      "name": "O2Minted",
      "type": "event"
    },
    {
      "inputs": [],
      "name": "accessRestriction",
      "outputs": [
        {
          "internalType": "contract IAccessRestriction",
          "name": "",
          "type": "address"
        }
      ],
      "stateMutability": "view",
      "type": "function",
      "constant": true
    },
    {
      "inputs": [],
      "name": "o2Token",
      "outputs": [
        {
          "internalType": "contract IO2",
          "name": "",
          "type": "address"
        }
      ],
      "stateMutability": "view",
      "type": "function",
      "constant": true
    },
    {
      "inputs": [],
      "name": "treeFactory",
      "outputs": [
        {
          "internalType": "contract ITreeFactory",
          "name": "",
          "type": "address"
        }
      ],
      "stateMutability": "view",
      "type": "function",
      "constant": true
    },
    {
      "inputs": [],
      "name": "treeToken",
      "outputs": [
        {
          "internalType": "contract ITree",
          "name": "",
          "type": "address"
        }
      ],
      "stateMutability": "view",
      "type": "function",
      "constant": true
    },
    {
      "inputs": [],
      "name": "treeType",
      "outputs": [
        {
          "internalType": "contract ITreeType",
          "name": "",
          "type": "address"
        }
      ],
      "stateMutability": "view",
      "type": "function",
      "constant": true
    },
    {
      "inputs": [],
      "name": "updateFactory",
      "outputs": [
        {
          "internalType": "contract IUpdateFactory",
          "name": "",
          "type": "address"
        }
      ],
      "stateMutability": "view",
      "type": "function",
      "constant": true
    },
    {
      "inputs": [
        {
          "internalType": "uint256",
          "name": "",
          "type": "uint256"
        }
      ],
      "name": "updateMinted",
      "outputs": [
        {
          "internalType": "bool",
          "name": "",
          "type": "bool"
        }
      ],
      "stateMutability": "view",
      "type": "function",
      "constant": true
    },
    {
      "inputs": [
        {
          "internalType": "address",
          "name": "_accessRestrictionAddress",
          "type": "address"
        }
      ],
      "name": "initialize",
      "outputs": [],
      "stateMutability": "nonpayable",
      "type": "function"
    },
    {
      "inputs": [
        {
          "internalType": "address",
          "name": "_address",
          "type": "address"
        }
      ],
      "name": "setTreeTokenAddress",
      "outputs": [],
      "stateMutability": "nonpayable",
      "type": "function"
    },
    {
      "inputs": [
        {
          "internalType": "address",
          "name": "_address",
          "type": "address"
        }
      ],
      "name": "setO2TokenAddress",
      "outputs": [],
      "stateMutability": "nonpayable",
      "type": "function"
    },
    {
      "inputs": [
        {
          "internalType": "address",
          "name": "_address",
          "type": "address"
        }
      ],
      "name": "setTreeTypeAddress",
      "outputs": [],
      "stateMutability": "nonpayable",
      "type": "function"
    },
    {
      "inputs": [
        {
          "internalType": "address",
          "name": "_address",
          "type": "address"
        }
      ],
      "name": "setTreeFactoryAddress",
      "outputs": [],
      "stateMutability": "nonpayable",
      "type": "function"
    },
    {
      "inputs": [
        {
          "internalType": "address",
          "name": "_address",
          "type": "address"
        }
      ],
      "name": "setUpdateFactoryAddress",
      "outputs": [],
      "stateMutability": "nonpayable",
      "type": "function"
    },
    {
      "inputs": [],
      "name": "mint",
      "outputs": [],
      "stateMutability": "nonpayable",
      "type": "function"
    }
  ],
  "bytecode": "0x608060405234801561001057600080fd5b50611601806100206000396000f3fe608060405234801561001057600080fd5b50600436106100ea5760003560e01c80636fd40e541161008c57806398f5fa3b1161006657806398f5fa3b1461019b578063bef47445146101a3578063c4d66de8146101b6578063d6762c4a146101c9576100ea565b80636fd40e54146101785780638491682014610180578063876924a214610193576100ea565b806312cc3ab0116100c857806312cc3ab01461013557806338f1f40f1461014a578063421ef6d41461015d5780635ea3662814610165576100ea565b8063086dfd0f146100ef5780630bf351f8146101185780631249c58b1461012d575b600080fd5b6101026100fd3660046112f9565b6101d1565b60405161010f91906113d6565b60405180910390f35b61012b610126366004611108565b6101e6565b005b61012b6102e8565b61013d610a2e565b60405161010f91906113a9565b61012b610158366004611108565b610a3d565b61013d610b3f565b61012b610173366004611108565b610b4e565b61013d610c50565b61012b61018e366004611108565b610c5f565b61013d610d61565b61013d610d70565b61012b6101b1366004611108565b610d7f565b61012b6101c4366004611108565b610e81565b61013d610fa4565b60396020526000908152604090205460ff1681565b603854604051632104fb0560e21b81526001600160a01b0390911690638413ec14906102169033906004016113a9565b60006040518083038186803b15801561022e57600080fd5b505afa158015610242573d6000803e3d6000fd5b505050506000819050806001600160a01b031663e0eb4eb96040518163ffffffff1660e01b815260040160206040518083038186803b15801561028457600080fd5b505afa158015610298573d6000803e3d6000fd5b505050506040513d601f19601f820116820180604052508101906102bc91906111c7565b6102c557600080fd5b603680546001600160a01b0319166001600160a01b039290921691909117905550565b6033546040516370a0823160e01b81526000916001600160a01b0316906370a08231906103199033906004016113a9565b60206040518083038186803b15801561033157600080fd5b505afa158015610345573d6000803e3d6000fd5b505050506040513d601f19601f820116820180604052508101906103699190611311565b9050600081116103945760405162461bcd60e51b815260040161038b90611477565b60405180910390fd5b6000805b8281101561096c57603354604051632f745c5960e01b81526000916001600160a01b031690632f745c59906103d390339086906004016113bd565b60206040518083038186803b1580156103eb57600080fd5b505afa1580156103ff573d6000803e3d6000fd5b505050506040513d601f19601f820116820180604052508101906104239190611311565b6037546040516313e7cb0960e31b81529192506060916001600160a01b0390911690639f3e58489061045990859060040161153d565b60006040518083038186803b15801561047157600080fd5b505afa158015610485573d6000803e3d6000fd5b505050506040513d6000823e601f3d908101601f191682016040526104ad919081019061112f565b80519091506000906104c157505050610964565b603754604051632cb1c8cb60e21b81526039916000916001600160a01b039091169063b2c7232c906104f790889060040161153d565b60206040518083038186803b15801561050f57600080fd5b505afa158015610523573d6000803e3d6000fd5b505050506040513d601f19601f820116820180604052508101906105479190611311565b815260208101919091526040016000205460ff1615156001141561056d57505050610964565b81515b80156108435760008361058a83600163ffffffff610fb316565b8151811061059457fe5b602090810291909101015160375460405163b4c2f72760e01b815291925060009182916001600160a01b03169063b4c2f727906105d590869060040161153d565b60006040518083038186803b1580156105ed57600080fd5b505afa158015610601573d6000803e3d6000fd5b505050506040513d6000823e601f3d908101601f191682016040526106299190810190611329565b93509350505080151560011515146106435750505061083a565b60008381526039602052604090205460ff161515600114156106675750505061083a565b600184111561076a5760008661068486600263ffffffff610fb316565b8151811061068e57fe5b602090810291909101015160375460405163b4c2f72760e01b815291925060009182916001600160a01b03169063b4c2f727906106cf90869060040161153d565b60006040518083038186803b1580156106e757600080fd5b505afa1580156106fb573d6000803e3d6000fd5b505050506040513d6000823e601f3d908101601f191682016040526107239190810190611329565b93509350505080151560011515146107405750505050505061083a565b610760610753868463ffffffff610fb316565b899063ffffffff610ffe16565b975050505061081e565b603654604051633d28401160e11b81526000916001600160a01b031690637a5080229061079b908b9060040161153d565b60006040518083038186803b1580156107b357600080fd5b505afa1580156107c7573d6000803e3d6000fd5b505050506040513d6000823e601f3d908101601f191682016040526107ef9190810190611258565b505050509250505061081a61080d8285610fb390919063ffffffff16565b879063ffffffff610ffe16565b9550505b50506000908152603960205260409020805460ff191660011790555b60001901610570565b506035546036546040516367d959ff60e11b81526000926001600160a01b039081169263cefbfa369291169063cfb2b3fe9061088390899060040161153d565b60206040518083038186803b15801561089b57600080fd5b505afa1580156108af573d6000803e3d6000fd5b505050506040513d601f19601f820116820180604052508101906108d3919061138e565b6040518263ffffffff1660e01b81526004016108ef9190611546565b60006040518083038186803b15801561090757600080fd5b505afa15801561091b573d6000803e3d6000fd5b505050506040513d6000823e601f3d908101601f1916820160405261094391908101906111e7565b50925061095d915061080d9050828463ffffffff61102316565b9550505050505b600101610398565b506000811161098d5760405162461bcd60e51b815260040161038b9061144b565b6034546040516340c10f1960e01b81526001600160a01b03909116906340c10f19906109bf90339085906004016113bd565b600060405180830381600087803b1580156109d957600080fd5b505af11580156109ed573d6000803e3d6000fd5b505050507fee1d22c56adf8004e20c2c8046f654eadde31bf648109f0253c823879220f8073382604051610a229291906113bd565b60405180910390a15050565b6033546001600160a01b031681565b603854604051632104fb0560e21b81526001600160a01b0390911690638413ec1490610a6d9033906004016113a9565b60006040518083038186803b158015610a8557600080fd5b505afa158015610a99573d6000803e3d6000fd5b505050506000819050806001600160a01b03166337b9fd776040518163ffffffff1660e01b815260040160206040518083038186803b158015610adb57600080fd5b505afa158015610aef573d6000803e3d6000fd5b505050506040513d601f19601f82011682018060405250810190610b1391906111c7565b610b1c57600080fd5b603380546001600160a01b0319166001600160a01b039290921691909117905550565b6036546001600160a01b031681565b603854604051632104fb0560e21b81526001600160a01b0390911690638413ec1490610b7e9033906004016113a9565b60006040518083038186803b158015610b9657600080fd5b505afa158015610baa573d6000803e3d6000fd5b505050506000819050806001600160a01b0316635db55c8d6040518163ffffffff1660e01b815260040160206040518083038186803b158015610bec57600080fd5b505afa158015610c00573d6000803e3d6000fd5b505050506040513d601f19601f82011682018060405250810190610c2491906111c7565b610c2d57600080fd5b603480546001600160a01b0319166001600160a01b039290921691909117905550565b6034546001600160a01b031681565b603854604051632104fb0560e21b81526001600160a01b0390911690638413ec1490610c8f9033906004016113a9565b60006040518083038186803b158015610ca757600080fd5b505afa158015610cbb573d6000803e3d6000fd5b505050506000819050806001600160a01b03166350aaf39d6040518163ffffffff1660e01b815260040160206040518083038186803b158015610cfd57600080fd5b505afa158015610d11573d6000803e3d6000fd5b505050506040513d601f19601f82011682018060405250810190610d3591906111c7565b610d3e57600080fd5b603580546001600160a01b0319166001600160a01b039290921691909117905550565b6035546001600160a01b031681565b6037546001600160a01b031681565b603854604051632104fb0560e21b81526001600160a01b0390911690638413ec1490610daf9033906004016113a9565b60006040518083038186803b158015610dc757600080fd5b505afa158015610ddb573d6000803e3d6000fd5b505050506000819050806001600160a01b031663edbe8d4e6040518163ffffffff1660e01b815260040160206040518083038186803b158015610e1d57600080fd5b505afa158015610e31573d6000803e3d6000fd5b505050506040513d601f19601f82011682018060405250810190610e5591906111c7565b610e5e57600080fd5b603780546001600160a01b0319166001600160a01b039290921691909117905550565b600054610100900460ff1680610e9a5750610e9a61105d565b80610ea8575060005460ff16155b610ec45760405162461bcd60e51b815260040161038b906114ef565b600054610100900460ff16158015610eef576000805460ff1961ff0019909116610100171660011790555b6000829050806001600160a01b031663ba84fd696040518163ffffffff1660e01b815260040160206040518083038186803b158015610f2d57600080fd5b505afa158015610f41573d6000803e3d6000fd5b505050506040513d601f19601f82011682018060405250810190610f6591906111c7565b610f6e57600080fd5b603880546001600160a01b0319166001600160a01b03929092169190911790558015610fa0576000805461ff00191690555b5050565b6038546001600160a01b031681565b6000610ff583836040518060400160405280601e81526020017f536166654d6174683a207375627472616374696f6e206f766572666c6f770000815250611063565b90505b92915050565b600082820183811015610ff55760405162461bcd60e51b815260040161038b90611414565b60008261103257506000610ff8565b8282028284828161103f57fe5b0414610ff55760405162461bcd60e51b815260040161038b906114ae565b303b1590565b600081848411156110875760405162461bcd60e51b815260040161038b91906113e1565b505050900390565b600082601f83011261109f578081fd5b815167ffffffffffffffff8111156110b5578182fd5b6110c8601f8201601f1916602001611554565b91508082528360208285010111156110df57600080fd5b6110f081602084016020860161159b565b5092915050565b805160ff81168114610ff857600080fd5b600060208284031215611119578081fd5b81356001600160a01b0381168114610ff5578182fd5b60006020808385031215611141578182fd5b825167ffffffffffffffff811115611157578283fd5b80840185601f820112611168578384fd5b8051915061117d6111788361157b565b611554565b8281528381019082850185850284018601891015611199578687fd5b8693505b848410156111bb57805183526001939093019291850191850161119d565b50979650505050505050565b6000602082840312156111d8578081fd5b81518015158114610ff5578182fd5b600080600080608085870312156111fc578283fd5b845167ffffffffffffffff80821115611213578485fd5b61121f8883890161108f565b95506020870151915080821115611234578485fd5b506112418782880161108f565b604087015160609097015195989097509350505050565b600080600080600080600060e0888a031215611272578283fd5b875167ffffffffffffffff80821115611289578485fd5b6112958b838c0161108f565b985060208a01519150808211156112aa578485fd5b506112b78a828b0161108f565b9650506040880151945060608801519350608088015192506112dc8960a08a016110f7565b91506112eb8960c08a016110f7565b905092959891949750929550565b60006020828403121561130a578081fd5b5035919050565b600060208284031215611322578081fd5b5051919050565b6000806000806080858703121561133e578384fd5b84519350602085015167ffffffffffffffff81111561135b578384fd5b6113678782880161108f565b9350506040850151915060608501518015158114611383578182fd5b939692955090935050565b60006020828403121561139f578081fd5b610ff583836110f7565b6001600160a01b0391909116815260200190565b6001600160a01b03929092168252602082015260400190565b901515815260200190565b600060208252825180602084015261140081604085016020870161159b565b601f01601f19169190910160400192915050565b6020808252601b908201527f536166654d6174683a206164646974696f6e206f766572666c6f770000000000604082015260600190565b6020808252601290820152714d696e7461626c654f32206973207a65726f60701b604082015260600190565b60208082526018908201527f4f776e6572207472656520636f756e74206973207a65726f0000000000000000604082015260600190565b60208082526021908201527f536166654d6174683a206d756c7469706c69636174696f6e206f766572666c6f6040820152607760f81b606082015260800190565b6020808252602e908201527f436f6e747261637420696e7374616e63652068617320616c726561647920626560408201526d195b881a5b9a5d1a585b1a5e995960921b606082015260800190565b90815260200190565b60ff91909116815260200190565b60405181810167ffffffffffffffff8111828210171561157357600080fd5b604052919050565b600067ffffffffffffffff821115611591578081fd5b5060209081020190565b60005b838110156115b657818101518382015260200161159e565b838111156115c5576000848401525b5050505056fea264697066735822122049821554ab611c24f53c09b95a39f2240410aa87720d0faf2d3940c69bf2bc9d64736f6c63430006090033",
  "immutableReferences": {},
  "source": "// SPDX-License-Identifier: GPL-3.0\n\npragma solidity >=0.4.21 <0.7.0;\npragma experimental ABIEncoderV2;\n\nimport \"../../node_modules/@openzeppelin/contracts-ethereum-package/contracts/Initializable.sol\";\nimport \"../../node_modules/@openzeppelin/contracts-ethereum-package/contracts/math/SafeMath.sol\";\n\nimport \"../access/IAccessRestriction.sol\";\nimport \"../tree/ITreeFactory.sol\";\nimport \"../tree/IUpdateFactory.sol\";\nimport \"../tree/ITreeType.sol\";\nimport \"./IO2.sol\";\nimport \"../tree/ITree.sol\";\n\ncontract O2Factory is Initializable {\n    using SafeMath for uint256;\n\n    event O2Minted(address owner, uint256 totalO2);\n\n    ITree public treeToken;\n    IO2 public o2Token;\n    ITreeType public treeType;\n    ITreeFactory public treeFactory;\n    IUpdateFactory public updateFactory;\n    IAccessRestriction public accessRestriction;\n\n    mapping(uint256 => bool) public updateMinted;\n\n    function initialize(address _accessRestrictionAddress) public initializer {\n        IAccessRestriction candidateContract =\n            IAccessRestriction(_accessRestrictionAddress);\n        require(candidateContract.isAccessRestriction());\n        accessRestriction = candidateContract;\n    }\n\n    function setTreeTokenAddress(address _address) external {\n        accessRestriction.ifAdmin(msg.sender);\n\n        ITree candidateContract = ITree(_address);\n        require(candidateContract.isTree());\n        treeToken = candidateContract;\n    }\n\n    function setO2TokenAddress(address _address) external {\n        accessRestriction.ifAdmin(msg.sender);\n\n        IO2 candidateContract = IO2(_address);\n        require(candidateContract.isO2());\n        o2Token = candidateContract;\n    }\n\n    function setTreeTypeAddress(address _address) external {\n        accessRestriction.ifAdmin(msg.sender);\n\n        ITreeType candidateContract = ITreeType(_address);\n        require(candidateContract.isTreeType());\n        treeType = candidateContract;\n    }\n\n    function setTreeFactoryAddress(address _address) external {\n        accessRestriction.ifAdmin(msg.sender);\n\n        ITreeFactory candidateContract = ITreeFactory(_address);\n        require(candidateContract.isTreeFactory());\n        treeFactory = candidateContract;\n    }\n\n    function setUpdateFactoryAddress(address _address) external {\n        accessRestriction.ifAdmin(msg.sender);\n\n        IUpdateFactory candidateContract = IUpdateFactory(_address);\n        require(candidateContract.isUpdateFactory());\n        updateFactory = candidateContract;\n    }\n\n    function mint() external {\n        uint256 ownerTreesCount = treeToken.balanceOf(msg.sender);\n\n        require(ownerTreesCount > 0, \"Owner tree count is zero\");\n\n        uint256 mintableO2 = 0;\n\n        for (uint256 i = 0; i < ownerTreesCount; i++) {\n            uint256 treeId = treeToken.tokenOfOwnerByIndex(msg.sender, i);\n            uint256[] memory treeUpdates = updateFactory.getTreeUpdates(treeId);\n            uint256 totalSeconds = 0;\n\n            if (treeUpdates.length == 0) {\n                continue;\n            }\n\n            if (\n                updateMinted[updateFactory.getTreeLastUpdateId(treeId)] == true\n            ) {\n                continue;\n            }\n\n            for (uint256 j = treeUpdates.length; j > 0; j--) {\n                uint256 jUpdateId = treeUpdates[j.sub(1)];\n\n                (, , uint256 jUpdateDate, bool jUpdateStatus) =\n                    updateFactory.updates(jUpdateId);\n\n                if (jUpdateStatus != true) {\n                    continue;\n                }\n\n                if (updateMinted[jUpdateId] == true) {\n                    continue;\n                }\n\n                if (j > 1) {\n                    uint256 jMinusUpdateId = treeUpdates[j.sub(2)];\n\n                    (, , uint256 jMUpdateDate, bool jMUpdateStatus) =\n                        updateFactory.updates(jMinusUpdateId);\n\n                    if (jMUpdateStatus != true) {\n                        continue;\n                    }\n\n                    totalSeconds = totalSeconds.add(\n                        jUpdateDate.sub(jMUpdateDate)\n                    );\n                } else {\n                    (, , uint256 plantedDate, , , , ) =\n                        treeFactory.trees(treeId);\n\n                    totalSeconds = totalSeconds.add(\n                        jUpdateDate.sub(plantedDate)\n                    );\n                }\n\n                updateMinted[jUpdateId] = true;\n            }\n\n            (, , uint256 o2Formula, ) =\n                treeType.types(treeFactory.treeToType(treeId));\n\n            mintableO2 = mintableO2.add(o2Formula.mul(totalSeconds));\n        }\n\n        require(mintableO2 > 0, \"MintableO2 is zero\");\n\n        o2Token.mint(msg.sender, mintableO2);\n\n        emit O2Minted(msg.sender, mintableO2);\n    }\n}\n",
  "sourcePath": "/home/amir/Projects/treejer/contract/contracts/o2/O2Factory.sol",
  "compiler": {
    "name": "solc",
    "version": "0.6.9+commit.3e3065ac.Emscripten.clang"
  },
  "schemaVersion": "3.2.3",
  "updatedAt": "2020-12-26T11:36:26.858Z",
  "networkType": "ethereum",
  "devdoc": {
    "methods": {}
  },
  "userdoc": {
    "methods": {}
  }
}