{
  "contractName": "PlanterFund",
  "abi": [
    {
      "anonymous": false,
      "inputs": [
        {
          "indexed": false,
          "internalType": "uint256",
          "name": "amount",
          "type": "uint256"
        },
        {
          "indexed": false,
          "internalType": "address",
          "name": "account",
          "type": "address"
        }
      ],
      "name": "BalanceWithdrew",
      "type": "event"
    },
    {
      "anonymous": false,
      "inputs": [],
      "name": "MinWithdrawableAmountUpdated",
      "type": "event"
    },
    {
      "anonymous": false,
      "inputs": [
        {
          "indexed": false,
          "internalType": "uint256",
          "name": "amount",
          "type": "uint256"
        },
        {
          "indexed": false,
          "internalType": "address",
          "name": "account",
          "type": "address"
        },
        {
          "indexed": false,
          "internalType": "string",
          "name": "reason",
          "type": "string"
        }
      ],
      "name": "NoAmbsassadorBalanceWithdrew",
      "type": "event"
    },
    {
      "anonymous": false,
      "inputs": [
        {
          "indexed": false,
          "internalType": "uint256",
          "name": "treeId",
          "type": "uint256"
        },
        {
          "indexed": false,
          "internalType": "address",
          "name": "planter",
          "type": "address"
        },
        {
          "indexed": false,
          "internalType": "uint256",
          "name": "amount",
          "type": "uint256"
        },
        {
          "indexed": false,
          "internalType": "address",
          "name": "ambassador",
          "type": "address"
        }
      ],
      "name": "PlanterTotalClaimedUpdated",
      "type": "event"
    },
    {
      "anonymous": false,
      "inputs": [
        {
          "indexed": false,
          "internalType": "uint256",
          "name": "treeId",
          "type": "uint256"
        },
        {
          "indexed": false,
          "internalType": "uint256",
          "name": "planterAmount",
          "type": "uint256"
        },
        {
          "indexed": false,
          "internalType": "uint256",
          "name": "ambassadorAmount",
          "type": "uint256"
        }
      ],
      "name": "ProjectedEarningUpdated",
      "type": "event"
    },
    {
      "inputs": [],
      "name": "accessRestriction",
      "outputs": [
        {
          "internalType": "contract IAccessRestriction",
          "name": "",
          "type": "address"
        }
      ],
      "stateMutability": "view",
      "type": "function",
      "constant": true
    },
    {
      "inputs": [
        {
          "internalType": "address",
          "name": "",
          "type": "address"
        }
      ],
      "name": "balances",
      "outputs": [
        {
          "internalType": "uint256",
          "name": "",
          "type": "uint256"
        }
      ],
      "stateMutability": "view",
      "type": "function",
      "constant": true
    },
    {
      "inputs": [],
      "name": "daiToken",
      "outputs": [
        {
          "internalType": "contract IERC20Upgradeable",
          "name": "",
          "type": "address"
        }
      ],
      "stateMutability": "view",
      "type": "function",
      "constant": true
    },
    {
      "inputs": [],
      "name": "isPlanterFund",
      "outputs": [
        {
          "internalType": "bool",
          "name": "",
          "type": "bool"
        }
      ],
      "stateMutability": "view",
      "type": "function",
      "constant": true
    },
    {
      "inputs": [
        {
          "internalType": "address",
          "name": "forwarder",
          "type": "address"
        }
      ],
      "name": "isTrustedForwarder",
      "outputs": [
        {
          "internalType": "bool",
          "name": "",
          "type": "bool"
        }
      ],
      "stateMutability": "view",
      "type": "function",
      "constant": true
    },
    {
      "inputs": [],
      "name": "minWithdrawable",
      "outputs": [
        {
          "internalType": "uint256",
          "name": "",
          "type": "uint256"
        }
      ],
      "stateMutability": "view",
      "type": "function",
      "constant": true
    },
    {
      "inputs": [],
      "name": "outgoingAddress",
      "outputs": [
        {
          "internalType": "address",
          "name": "",
          "type": "address"
        }
      ],
      "stateMutability": "view",
      "type": "function",
      "constant": true
    },
    {
      "inputs": [],
      "name": "planterContract",
      "outputs": [
        {
          "internalType": "contract IPlanter",
          "name": "",
          "type": "address"
        }
      ],
      "stateMutability": "view",
      "type": "function",
      "constant": true
    },
    {
      "inputs": [],
      "name": "totalBalances",
      "outputs": [
        {
          "internalType": "uint256",
          "name": "planter",
          "type": "uint256"
        },
        {
          "internalType": "uint256",
          "name": "ambassador",
          "type": "uint256"
        },
        {
          "internalType": "uint256",
          "name": "noAmbsassador",
          "type": "uint256"
        }
      ],
      "stateMutability": "view",
      "type": "function",
      "constant": true
    },
    {
      "inputs": [
        {
          "internalType": "uint256",
          "name": "",
          "type": "uint256"
        }
      ],
      "name": "treeToAmbassadorProjectedEarning",
      "outputs": [
        {
          "internalType": "uint256",
          "name": "",
          "type": "uint256"
        }
      ],
      "stateMutability": "view",
      "type": "function",
      "constant": true
    },
    {
      "inputs": [
        {
          "internalType": "uint256",
          "name": "",
          "type": "uint256"
        }
      ],
      "name": "treeToPlanterProjectedEarning",
      "outputs": [
        {
          "internalType": "uint256",
          "name": "",
          "type": "uint256"
        }
      ],
      "stateMutability": "view",
      "type": "function",
      "constant": true
    },
    {
      "inputs": [
        {
          "internalType": "uint256",
          "name": "",
          "type": "uint256"
        }
      ],
      "name": "treeToPlanterTotalClaimed",
      "outputs": [
        {
          "internalType": "uint256",
          "name": "",
          "type": "uint256"
        }
      ],
      "stateMutability": "view",
      "type": "function",
      "constant": true
    },
    {
      "inputs": [],
      "name": "trustedForwarder",
      "outputs": [
        {
          "internalType": "address",
          "name": "",
          "type": "address"
        }
      ],
      "stateMutability": "view",
      "type": "function",
      "constant": true
    },
    {
      "inputs": [],
      "name": "versionRecipient",
      "outputs": [
        {
          "internalType": "string",
          "name": "",
          "type": "string"
        }
      ],
      "stateMutability": "pure",
      "type": "function",
      "constant": true
    },
    {
      "inputs": [
        {
          "internalType": "address",
          "name": "_accessRestrictionAddress",
          "type": "address"
        }
      ],
      "name": "initialize",
      "outputs": [],
      "stateMutability": "nonpayable",
      "type": "function"
    },
    {
      "inputs": [
        {
          "internalType": "address",
          "name": "_address",
          "type": "address"
        }
      ],
      "name": "setTrustedForwarder",
      "outputs": [],
      "stateMutability": "nonpayable",
      "type": "function"
    },
    {
      "inputs": [
        {
          "internalType": "address",
          "name": "_address",
          "type": "address"
        }
      ],
      "name": "setPlanterContractAddress",
      "outputs": [],
      "stateMutability": "nonpayable",
      "type": "function"
    },
    {
      "inputs": [
        {
          "internalType": "address",
          "name": "_address",
          "type": "address"
        }
      ],
      "name": "setDaiTokenAddress",
      "outputs": [],
      "stateMutability": "nonpayable",
      "type": "function"
    },
    {
      "inputs": [
        {
          "internalType": "address payable",
          "name": "_address",
          "type": "address"
        }
      ],
      "name": "setOutgoingAddress",
      "outputs": [],
      "stateMutability": "nonpayable",
      "type": "function"
    },
    {
      "inputs": [
        {
          "internalType": "uint256",
          "name": "_amount",
          "type": "uint256"
        }
      ],
      "name": "updateWithdrawableAmount",
      "outputs": [],
      "stateMutability": "nonpayable",
      "type": "function"
    },
    {
      "inputs": [
        {
          "internalType": "uint256",
          "name": "_treeId",
          "type": "uint256"
        },
        {
          "internalType": "uint256",
          "name": "_planterAmount",
          "type": "uint256"
        },
        {
          "internalType": "uint256",
          "name": "_ambassadorAmount",
          "type": "uint256"
        }
      ],
      "name": "updateProjectedEarnings",
      "outputs": [],
      "stateMutability": "nonpayable",
      "type": "function"
    },
    {
      "inputs": [
        {
          "internalType": "uint256",
          "name": "_treeId",
          "type": "uint256"
        },
        {
          "internalType": "address",
          "name": "_planter",
          "type": "address"
        },
        {
          "internalType": "uint64",
          "name": "_treeStatus",
          "type": "uint64"
        }
      ],
      "name": "updatePlanterTotalClaimed",
      "outputs": [],
      "stateMutability": "nonpayable",
      "type": "function"
    },
    {
      "inputs": [
        {
          "internalType": "uint256",
          "name": "_amount",
          "type": "uint256"
        }
      ],
      "name": "withdrawBalance",
      "outputs": [],
      "stateMutability": "nonpayable",
      "type": "function"
    },
    {
      "inputs": [
        {
          "internalType": "uint256",
          "name": "_amount",
          "type": "uint256"
        },
        {
          "internalType": "string",
          "name": "_reason",
          "type": "string"
        }
      ],
      "name": "withdrawNoAmbsassadorBalance",
      "outputs": [],
      "stateMutability": "nonpayable",
      "type": "function"
    }
  ],
  "bytecode": "0x608060405234801561001057600080fd5b50611e00806100206000396000f3fe608060405234801561001057600080fd5b50600436106101985760003560e01c8063a69a2ad1116100e3578063c74146931161008c578063da76d5cd11610066578063da76d5cd14610463578063f1326b1514610476578063fa9ee5031461048957600080fd5b8063c741469314610410578063d6762c4a14610430578063da7422281461045057600080fd5b8063be22f546116100bd578063be22f546146103ca578063c0ba4aff146103ea578063c4d66de8146103fd57600080fd5b8063a69a2ad114610377578063b094a350146103a4578063b0b82469146103b757600080fd5b8063486ff0cd116101455780638012b7431161011f5780638012b7431461032f578063871dfb101461034f57806397795c661461036457600080fd5b8063486ff0cd14610295578063572b6c05146102d45780637da0a8771461030957600080fd5b806330295d061161017657806330295d061461021e578063349904da1461023e578063375b42701461027557600080fd5b806309c357c11461019d57806327e235e3146101e75780632ed1fc5c14610215575b600080fd5b6002546101bd9073ffffffffffffffffffffffffffffffffffffffff1681565b60405173ffffffffffffffffffffffffffffffffffffffff90911681526020015b60405180910390f35b6102076101f5366004611a4c565b600c6020526000908152604090205481565b6040519081526020016101de565b61020760015481565b61020761022c366004611adb565b60096020526000908152604090205481565b60005461026590760100000000000000000000000000000000000000000000900460ff1681565b60405190151581526020016101de565b6004546101bd9073ffffffffffffffffffffffffffffffffffffffff1681565b604080518082018252601d81527f322e322e302b747265656a65722e6972656c6179726563697069656e74000000602082015290516101de9190611beb565b6102656102e2366004611a4c565b60005462010000900473ffffffffffffffffffffffffffffffffffffffff90811691161490565b6000546101bd9062010000900473ffffffffffffffffffffffffffffffffffffffff1681565b61020761033d366004611adb565b600a6020526000908152604090205481565b61036261035d366004611a4c565b61049c565b005b610362610372366004611bbf565b61060a565b60065460075460085461038992919083565b604080519384526020840192909252908201526060016101de565b6103626103b2366004611b43565b610743565b6103626103c5366004611adb565b610a71565b6005546101bd9073ffffffffffffffffffffffffffffffffffffffff1681565b6103626103f8366004611af4565b610ba3565b61036261040b366004611a4c565b611023565b61020761041e366004611adb565b600b6020526000908152604090205481565b6003546101bd9073ffffffffffffffffffffffffffffffffffffffff1681565b61036261045e366004611a4c565b611259565b610362610471366004611adb565b6113c8565b610362610484366004611a4c565b6116f3565b610362610497366004611a4c565b61185c565b60035473ffffffffffffffffffffffffffffffffffffffff16638413ec146104c26119d2565b6040517fffffffff0000000000000000000000000000000000000000000000000000000060e084901b16815273ffffffffffffffffffffffffffffffffffffffff909116600482015260240160006040518083038186803b15801561052657600080fd5b505afa15801561053a573d6000803e3d6000fd5b50839250505073ffffffffffffffffffffffffffffffffffffffff81166105c2576040517f08c379a000000000000000000000000000000000000000000000000000000000815260206004820152600f60248201527f696e76616c69642061646472657373000000000000000000000000000000000060448201526064015b60405180910390fd5b50600280547fffffffffffffffffffffffff00000000000000000000000000000000000000001673ffffffffffffffffffffffffffffffffffffffff92909216919091179055565b60035473ffffffffffffffffffffffffffffffffffffffff1663ebe6a6f36106306119d2565b6040517fffffffff0000000000000000000000000000000000000000000000000000000060e084901b16815273ffffffffffffffffffffffffffffffffffffffff909116600482015260240160006040518083038186803b15801561069457600080fd5b505afa1580156106a8573d6000803e3d6000fd5b5050506000848152600960209081526040808320869055600a9091528120839055600680548593509091906106de908490611ccf565b9091555050600780548291906000906106f8908490611ccf565b909155505060408051848152602081018490529081018290527f658f322f9229b30c6fc7cd495ff7eb9b3a93da7ea8140713ed7d2532fbdf4ab29060600160405180910390a1505050565b60035473ffffffffffffffffffffffffffffffffffffffff16638413ec146107696119d2565b6040517fffffffff0000000000000000000000000000000000000000000000000000000060e084901b16815273ffffffffffffffffffffffffffffffffffffffff909116600482015260240160006040518083038186803b1580156107cd57600080fd5b505afa1580156107e1573d6000803e3d6000fd5b505060025473ffffffffffffffffffffffffffffffffffffffff1691505080610866576040517f08c379a000000000000000000000000000000000000000000000000000000000815260206004820152600f60248201527f696e76616c69642061646472657373000000000000000000000000000000000060448201526064016105b9565b60085484118015906108785750600084115b6108de576040517f08c379a000000000000000000000000000000000000000000000000000000000815260206004820152601360248201527f696e73756666696369656e7420616d6f756e740000000000000000000000000060448201526064016105b9565b83600660020160008282546108f39190611d5f565b90915550506005546002546040517fa9059cbb00000000000000000000000000000000000000000000000000000000815273ffffffffffffffffffffffffffffffffffffffff918216600482015260248101879052600092919091169063a9059cbb90604401602060405180830381600087803b15801561097357600080fd5b505af1158015610987573d6000803e3d6000fd5b505050506040513d601f19601f820116820180604052508101906109ab9190611a70565b905080610a14576040517f08c379a000000000000000000000000000000000000000000000000000000000815260206004820152601560248201527f756e7375636365737366756c207472616e73666572000000000000000000000060448201526064016105b9565b6002546040517fc836b619304bd802852d8dba82adc6d0bd480a4625c0b1cc6ffcbb17c54fd6a791610a6291889173ffffffffffffffffffffffffffffffffffffffff169088908890611c5e565b60405180910390a15050505050565b600360009054906101000a900473ffffffffffffffffffffffffffffffffffffffff1673ffffffffffffffffffffffffffffffffffffffff16634d868f986040518163ffffffff1660e01b815260040160006040518083038186803b158015610ad957600080fd5b505afa158015610aed573d6000803e3d6000fd5b50506003546040517fc4d2a31b00000000000000000000000000000000000000000000000000000000815233600482015273ffffffffffffffffffffffffffffffffffffffff909116925063c4d2a31b915060240160006040518083038186803b158015610b5a57600080fd5b505afa158015610b6e573d6000803e3d6000fd5b5050506001829055506040517ff8f4f8c515453c5c52d96c54033bb4de62e70142014b6b6888eee0d3ce02849990600090a150565b60035473ffffffffffffffffffffffffffffffffffffffff1663ebe6a6f3610bc96119d2565b6040517fffffffff0000000000000000000000000000000000000000000000000000000060e084901b16815273ffffffffffffffffffffffffffffffffffffffff909116600482015260240160006040518083038186803b158015610c2d57600080fd5b505afa158015610c41573d6000803e3d6000fd5b50505060008481526009602052604090205415159050610cbd576040517f08c379a000000000000000000000000000000000000000000000000000000000815260206004820152601660248201527f706c616e7465722066756e64206e6f742065786973740000000000000000000060448201526064016105b9565b600480546040517fc670d5c600000000000000000000000000000000000000000000000000000000815273ffffffffffffffffffffffffffffffffffffffff858116938201939093526000928392839283929091169063c670d5c69060240160806040518083038186803b158015610d3457600080fd5b505afa158015610d48573d6000803e3d6000fd5b505050506040513d601f19601f82011682018060405250810190610d6c9190611a8b565b9350935093509350831561101a5760006165408667ffffffffffffffff161115610dbc576000888152600b6020908152604080832054600990925290912054610db59190611d5f565b9050610e07565b6000888152600b602090815260408083205460099092529091205461654090610df09067ffffffffffffffff8a1690611d22565b610dfa9190611ce7565b610e049190611d5f565b90505b801561101857600088815260096020908152604080832054600a909252822054610e32908490611d22565b610e3c9190611ce7565b90508060066001016000828254610e539190611d5f565b909155505073ffffffffffffffffffffffffffffffffffffffff8416610e93578060066002016000828254610e889190611ccf565b90915550610ece9050565b73ffffffffffffffffffffffffffffffffffffffff84166000908152600c602052604081208054839290610ec8908490611ccf565b90915550505b8160066000016000828254610ee39190611d5f565b909155506127109050610ef68482611d5f565b610f009084611d22565b610f0a9190611ce7565b73ffffffffffffffffffffffffffffffffffffffff86166000908152600c602052604081208054909190610f3f908490611ccf565b90915550506000898152600b602052604081208054849290610f62908490611ccf565b909155506127109050610f758484611d22565b610f7f9190611ce7565b73ffffffffffffffffffffffffffffffffffffffff89166000908152600c602052604081208054909190610fb4908490611ccf565b9091555050604080518a815273ffffffffffffffffffffffffffffffffffffffff8a811660208301528183018590528616606082015290517f42bc662de64da6aa158b5a87f6ef3a8338d84eec31d4dd4f416f83d36308e63b9181900360800190a1505b505b50505050505050565b600054610100900460ff168061103c575060005460ff16155b6110c8576040517f08c379a000000000000000000000000000000000000000000000000000000000815260206004820152602e60248201527f496e697469616c697a61626c653a20636f6e747261637420697320616c72656160448201527f647920696e697469616c697a656400000000000000000000000000000000000060648201526084016105b9565b600054610100900460ff1615801561110757600080547fffffffffffffffffffffffffffffffffffffffffffffffffffffffffffff0000166101011790555b60008290508073ffffffffffffffffffffffffffffffffffffffff1663ba84fd696040518163ffffffff1660e01b815260040160206040518083038186803b15801561115257600080fd5b505afa158015611166573d6000803e3d6000fd5b505050506040513d601f19601f8201168201806040525081019061118a9190611a70565b61119357600080fd5b600080547fffffffffffffffffff00ffffffffffffffffffffffffffffffffffffffffffff167601000000000000000000000000000000000000000000001790556706f05b59d3b200006001556003805473ffffffffffffffffffffffffffffffffffffffff9092167fffffffffffffffffffffffff0000000000000000000000000000000000000000909216919091179055801561125557600080547fffffffffffffffffffffffffffffffffffffffffffffffffffffffffffff00ff1690555b5050565b60035473ffffffffffffffffffffffffffffffffffffffff16638413ec1461127f6119d2565b6040517fffffffff0000000000000000000000000000000000000000000000000000000060e084901b16815273ffffffffffffffffffffffffffffffffffffffff909116600482015260240160006040518083038186803b1580156112e357600080fd5b505afa1580156112f7573d6000803e3d6000fd5b50839250505073ffffffffffffffffffffffffffffffffffffffff811661137a576040517f08c379a000000000000000000000000000000000000000000000000000000000815260206004820152600f60248201527f696e76616c69642061646472657373000000000000000000000000000000000060448201526064016105b9565b506000805473ffffffffffffffffffffffffffffffffffffffff90921662010000027fffffffffffffffffffff0000000000000000000000000000000000000000ffff909216919091179055565b600360009054906101000a900473ffffffffffffffffffffffffffffffffffffffff1673ffffffffffffffffffffffffffffffffffffffff16634d868f986040518163ffffffff1660e01b815260040160006040518083038186803b15801561143057600080fd5b505afa158015611444573d6000803e3d6000fd5b50505050600c60006114546119d2565b73ffffffffffffffffffffffffffffffffffffffff1673ffffffffffffffffffffffffffffffffffffffff1681526020019081526020016000205481111580156114a057506001548110155b611506576040517f08c379a000000000000000000000000000000000000000000000000000000000815260206004820152601360248201527f696e73756666696369656e7420616d6f756e740000000000000000000000000060448201526064016105b9565b80600c60006115136119d2565b73ffffffffffffffffffffffffffffffffffffffff1673ffffffffffffffffffffffffffffffffffffffff168152602001908152602001600020600082825461155c9190611d5f565b909155505060055460009073ffffffffffffffffffffffffffffffffffffffff1663a9059cbb61158a6119d2565b6040517fffffffff0000000000000000000000000000000000000000000000000000000060e084901b16815273ffffffffffffffffffffffffffffffffffffffff909116600482015260248101859052604401602060405180830381600087803b1580156115f757600080fd5b505af115801561160b573d6000803e3d6000fd5b505050506040513d601f19601f8201168201806040525081019061162f9190611a70565b905080611698576040517f08c379a000000000000000000000000000000000000000000000000000000000815260206004820152601560248201527f756e7375636365737366756c207472616e73666572000000000000000000000060448201526064016105b9565b7fa35010e501b7cbcb7bbef636ae49bb8510f178a4cfd1666b20c67be10d1fead2826116c26119d2565b6040805192835273ffffffffffffffffffffffffffffffffffffffff90911660208301520160405180910390a15050565b60035473ffffffffffffffffffffffffffffffffffffffff16638413ec146117196119d2565b6040517fffffffff0000000000000000000000000000000000000000000000000000000060e084901b16815273ffffffffffffffffffffffffffffffffffffffff909116600482015260240160006040518083038186803b15801561177d57600080fd5b505afa158015611791573d6000803e3d6000fd5b50839250505073ffffffffffffffffffffffffffffffffffffffff8116611814576040517f08c379a000000000000000000000000000000000000000000000000000000000815260206004820152600f60248201527f696e76616c69642061646472657373000000000000000000000000000000000060448201526064016105b9565b50600580547fffffffffffffffffffffffff00000000000000000000000000000000000000001673ffffffffffffffffffffffffffffffffffffffff92909216919091179055565b60035473ffffffffffffffffffffffffffffffffffffffff16638413ec146118826119d2565b6040517fffffffff0000000000000000000000000000000000000000000000000000000060e084901b16815273ffffffffffffffffffffffffffffffffffffffff909116600482015260240160006040518083038186803b1580156118e657600080fd5b505afa1580156118fa573d6000803e3d6000fd5b5050505060008190508073ffffffffffffffffffffffffffffffffffffffff166303dc8deb6040518163ffffffff1660e01b815260040160206040518083038186803b15801561194957600080fd5b505afa15801561195d573d6000803e3d6000fd5b505050506040513d601f19601f820116820180604052508101906119819190611a70565b61198a57600080fd5b600480547fffffffffffffffffffffffff00000000000000000000000000000000000000001673ffffffffffffffffffffffffffffffffffffffff9290921691909117905550565b600060143610801590611a02575060005462010000900473ffffffffffffffffffffffffffffffffffffffff1633145b15611a3257507fffffffffffffffffffffffffffffffffffffffffffffffffffffffffffffffec36013560601c90565b503390565b80518015158114611a4757600080fd5b919050565b600060208284031215611a5e57600080fd5b8135611a6981611da5565b9392505050565b600060208284031215611a8257600080fd5b611a6982611a37565b60008060008060808587031215611aa157600080fd5b611aaa85611a37565b93506020850151611aba81611da5565b6040860151909350611acb81611da5565b6060959095015193969295505050565b600060208284031215611aed57600080fd5b5035919050565b600080600060608486031215611b0957600080fd5b833592506020840135611b1b81611da5565b9150604084013567ffffffffffffffff81168114611b3857600080fd5b809150509250925092565b600080600060408486031215611b5857600080fd5b83359250602084013567ffffffffffffffff80821115611b7757600080fd5b818601915086601f830112611b8b57600080fd5b813581811115611b9a57600080fd5b876020828501011115611bac57600080fd5b6020830194508093505050509250925092565b600080600060608486031215611bd457600080fd5b505081359360208301359350604090920135919050565b600060208083528351808285015260005b81811015611c1857858101830151858201604001528201611bfc565b81811115611c2a576000604083870101525b50601f017fffffffffffffffffffffffffffffffffffffffffffffffffffffffffffffffe016929092016040019392505050565b84815273ffffffffffffffffffffffffffffffffffffffff8416602082015260606040820152816060820152818360808301376000818301608090810191909152601f9092017fffffffffffffffffffffffffffffffffffffffffffffffffffffffffffffffe01601019392505050565b60008219821115611ce257611ce2611d76565b500190565b600082611d1d577f4e487b7100000000000000000000000000000000000000000000000000000000600052601260045260246000fd5b500490565b6000817fffffffffffffffffffffffffffffffffffffffffffffffffffffffffffffffff0483118215151615611d5a57611d5a611d76565b500290565b600082821015611d7157611d71611d76565b500390565b7f4e487b7100000000000000000000000000000000000000000000000000000000600052601160045260246000fd5b73ffffffffffffffffffffffffffffffffffffffff81168114611dc757600080fd5b5056fea2646970667358221220d1192e6b1a5092320581f254ca861adc6c68a74129e61900c7c0c4cd3cf4a6a764736f6c63430008060033",
  "immutableReferences": {},
  "source": "// SPDX-License-Identifier: GPL-3.0\n\npragma solidity ^0.8.6;\n\nimport \"@openzeppelin/contracts-upgradeable/utils/CountersUpgradeable.sol\";\nimport \"@openzeppelin/contracts-upgradeable/proxy/utils/Initializable.sol\";\nimport \"@openzeppelin/contracts-upgradeable/token/ERC20/IERC20Upgradeable.sol\";\n\nimport \"../access/IAccessRestriction.sol\";\nimport \"../planter/IPlanter.sol\";\nimport \"../gsn/RelayRecipient.sol\";\n\nimport \"./IPlanterFund.sol\";\n\n/** @title PlanterFund Contract */\n\ncontract PlanterFund is Initializable, RelayRecipient, IPlanterFund {\n    struct TotalBalances {\n        uint256 planter;\n        uint256 ambassador;\n        uint256 noAmbsassador;\n    }\n\n    /** NOTE {isPlanterFund} set inside the initialize to {true} */\n    bool public override isPlanterFund;\n\n    /** NOTE minimum withdrawable amount */\n    uint256 public override minWithdrawable;\n\n    /** NOTE outgoing address */\n    address public override outgoingAddress;\n\n    IAccessRestriction public accessRestriction;\n    IPlanter public planterContract;\n    IERC20Upgradeable public daiToken;\n\n    /** NOTE totalBalances keep total share of\n     * planter, ambassador, noAmbsassador\n     */\n    TotalBalances public override totalBalances;\n\n    /** NOTE mapping of treeId to planterProjectedEarning*/\n    mapping(uint256 => uint256) public override treeToPlanterProjectedEarning;\n\n    /** NOTE mapping of treeId to ambassadorProjectedEarning*/\n    mapping(uint256 => uint256)\n        public\n        override treeToAmbassadorProjectedEarning;\n\n    /** NOTE mpping of treeId to treeToPlanterTotalClaimed balance*/\n    mapping(uint256 => uint256) public override treeToPlanterTotalClaimed;\n\n    /** NOTE mapping of planter address to planter balance*/\n    mapping(address => uint256) public override balances;\n\n    /** NOTE modifier to check msg.sender has admin role */\n    modifier onlyAdmin() {\n        accessRestriction.ifAdmin(_msgSender());\n        _;\n    }\n\n    /** NOTE modifier to check msg.sender has data manager role */\n    modifier onlyDataManager() {\n        accessRestriction.ifDataManager(msg.sender);\n        _;\n    }\n\n    /** NOTE modifier for check if function is not paused */\n    modifier ifNotPaused() {\n        accessRestriction.ifNotPaused();\n        _;\n    }\n\n    /** NOTE modifier for check msg.sender has TreejerContract role */\n    modifier onlyTreejerContract() {\n        accessRestriction.ifTreejerContract(_msgSender());\n        _;\n    }\n\n    /** NOTE modifier for check valid address */\n    modifier validAddress(address _address) {\n        require(_address != address(0), \"invalid address\");\n        _;\n    }\n\n    /**\n     * @dev initialize AccessRestriction contract and set true for isPlanterFund\n     * @param _accessRestrictionAddress set to the address of AccessRestriction contract\n     */\n    function initialize(address _accessRestrictionAddress)\n        external\n        override\n        initializer\n    {\n        IAccessRestriction candidateContract = IAccessRestriction(\n            _accessRestrictionAddress\n        );\n\n        require(candidateContract.isAccessRestriction());\n\n        isPlanterFund = true;\n        minWithdrawable = .5 ether;\n        accessRestriction = candidateContract;\n    }\n\n    /**\n     * @dev set trusted forwarder address\n     * @param _address set to {trustedForwarder}\n     */\n    function setTrustedForwarder(address _address)\n        external\n        override\n        onlyAdmin\n        validAddress(_address)\n    {\n        trustedForwarder = _address;\n    }\n\n    /**\n     * @dev admin set Planter contract address\n     * @param _address set to the address of Planter contract\n     */\n    function setPlanterContractAddress(address _address)\n        external\n        override\n        onlyAdmin\n    {\n        IPlanter candidateContract = IPlanter(_address);\n        require(candidateContract.isPlanter());\n        planterContract = candidateContract;\n    }\n\n    /**\n     * @dev admin set DaiToken contract address\n     * @param _address set to the address of DaiToken contract\n     */\n    function setDaiTokenAddress(address _address)\n        external\n        override\n        onlyAdmin\n        validAddress(_address)\n    {\n        IERC20Upgradeable candidateContract = IERC20Upgradeable(_address);\n        daiToken = candidateContract;\n    }\n\n    /**\n     * @dev admin set outgoing address to fund\n     * @param _address outgoing address\n     */\n    function setOutgoingAddress(address payable _address)\n        external\n        override\n        onlyAdmin\n        validAddress(_address)\n    {\n        outgoingAddress = _address;\n    }\n\n    /** @dev admin set the minimum amount to withdraw\n     * @param _amount is minimum withdrawable amount\n     */\n    function updateWithdrawableAmount(uint256 _amount)\n        external\n        override\n        ifNotPaused\n        onlyDataManager\n    {\n        minWithdrawable = _amount;\n\n        emit MinWithdrawableAmountUpdated();\n    }\n\n    /**\n     * @dev set projected earnings\n     * @param _treeId id of tree to set projected earning for\n     * @param _planterAmount planter amount\n     * @param _ambassadorAmount ambassador amount\n     */\n    function updateProjectedEarnings(\n        uint256 _treeId,\n        uint256 _planterAmount,\n        uint256 _ambassadorAmount\n    ) external override onlyTreejerContract {\n        treeToPlanterProjectedEarning[_treeId] = _planterAmount;\n        treeToAmbassadorProjectedEarning[_treeId] = _ambassadorAmount;\n\n        totalBalances.planter += _planterAmount;\n        totalBalances.ambassador += _ambassadorAmount;\n\n        emit ProjectedEarningUpdated(\n            _treeId,\n            _planterAmount,\n            _ambassadorAmount\n        );\n    }\n\n    /**\n     * @dev based on the {_treeStatus} planter total claimable amount updated in every tree\n     * update verifying\n     * @param _treeId id of a tree that planter's total claimable amount updated for\n     * @param _planter  address of planter to fund\n     * @param _treeStatus status of tree\n     */\n    function updatePlanterTotalClaimed(\n        uint256 _treeId,\n        address _planter,\n        uint64 _treeStatus\n    ) external override onlyTreejerContract {\n        require(\n            treeToPlanterProjectedEarning[_treeId] > 0,\n            \"planter fund not exist\"\n        );\n\n        (\n            bool exists,\n            address organizationAddress,\n            address ambassadorAddress,\n            uint256 share\n        ) = planterContract.getOrganizationMemberData(_planter);\n\n        if (exists) {\n            uint256 totalPayableAmountToPlanter;\n\n            if (_treeStatus > 25920) {\n                //25920 = 30 * 24 * 36\n\n                totalPayableAmountToPlanter =\n                    treeToPlanterProjectedEarning[_treeId] -\n                    treeToPlanterTotalClaimed[_treeId];\n            } else {\n                totalPayableAmountToPlanter =\n                    ((treeToPlanterProjectedEarning[_treeId] * _treeStatus) /\n                        25920) -\n                    treeToPlanterTotalClaimed[_treeId];\n            }\n\n            if (totalPayableAmountToPlanter > 0) {\n                uint256 totalPayableAmountToAmbassador = (treeToAmbassadorProjectedEarning[\n                        _treeId\n                    ] * totalPayableAmountToPlanter) /\n                        treeToPlanterProjectedEarning[_treeId];\n\n                //referral calculation section\n\n                totalBalances.ambassador -= totalPayableAmountToAmbassador;\n\n                if (ambassadorAddress == address(0)) {\n                    totalBalances\n                        .noAmbsassador += totalPayableAmountToAmbassador;\n                } else {\n                    balances[\n                        ambassadorAddress\n                    ] += totalPayableAmountToAmbassador;\n                }\n\n                totalBalances.planter -= totalPayableAmountToPlanter;\n\n                balances[organizationAddress] +=\n                    (totalPayableAmountToPlanter * (10000 - share)) /\n                    10000;\n\n                //planter calculation section\n\n                treeToPlanterTotalClaimed[\n                    _treeId\n                ] += totalPayableAmountToPlanter;\n\n                balances[_planter] +=\n                    (totalPayableAmountToPlanter * share) /\n                    10000;\n\n                emit PlanterTotalClaimedUpdated(\n                    _treeId,\n                    _planter,\n                    totalPayableAmountToPlanter,\n                    ambassadorAddress\n                );\n            }\n        }\n    }\n\n    /**\n     * @dev planter withdraw {_amount} from balances\n     * @param _amount amount to withdraw\n     */\n    function withdrawBalance(uint256 _amount) external override ifNotPaused {\n        require(\n            _amount <= balances[_msgSender()] && _amount >= minWithdrawable,\n            \"insufficient amount\"\n        );\n\n        balances[_msgSender()] -= _amount;\n\n        bool success = daiToken.transfer(_msgSender(), _amount);\n\n        require(success, \"unsuccessful transfer\");\n\n        emit BalanceWithdrew(_amount, _msgSender());\n    }\n\n    /**\n     * @dev admin withdraw from noAmbsassador totalBalances\n     * NOTE amount transfer to outgoingAddress\n     * @param _amount amount to withdraw\n     * @param _reason reason to withdraw\n     */\n    function withdrawNoAmbsassadorBalance(\n        uint256 _amount,\n        string calldata _reason\n    ) external override onlyAdmin validAddress(outgoingAddress) {\n        require(\n            _amount <= totalBalances.noAmbsassador && _amount > 0,\n            \"insufficient amount\"\n        );\n\n        totalBalances.noAmbsassador -= _amount;\n\n        bool success = daiToken.transfer(outgoingAddress, _amount);\n\n        require(success, \"unsuccessful transfer\");\n\n        emit NoAmbsassadorBalanceWithdrew(_amount, outgoingAddress, _reason);\n    }\n}\n",
  "sourcePath": "/home/ali/Desktop/treejer/contract/contracts/treasury/PlanterFund.sol",
  "compiler": {
    "name": "solc",
    "version": "0.8.6+commit.11564f7e.Emscripten.clang"
  },
  "schemaVersion": "3.4.3",
  "updatedAt": "2022-01-13T16:14:39.428Z",
  "networkType": "ethereum",
  "devdoc": {
    "kind": "dev",
    "methods": {
      "initialize(address)": {
        "details": "initialize AccessRestriction contract and set true for isPlanterFund",
        "params": {
          "_accessRestrictionAddress": "set to the address of AccessRestriction contract"
        }
      },
      "setDaiTokenAddress(address)": {
        "details": "admin set DaiToken contract address",
        "params": {
          "_address": "set to the address of DaiToken contract"
        }
      },
      "setOutgoingAddress(address)": {
        "details": "admin set outgoing address to fund",
        "params": {
          "_address": "outgoing address"
        }
      },
      "setPlanterContractAddress(address)": {
        "details": "admin set Planter contract address",
        "params": {
          "_address": "set to the address of Planter contract"
        }
      },
      "setTrustedForwarder(address)": {
        "details": "set trusted forwarder address",
        "params": {
          "_address": "set to {trustedForwarder}"
        }
      },
      "updatePlanterTotalClaimed(uint256,address,uint64)": {
        "details": "based on the {_treeStatus} planter total claimable amount updated in every tree update verifying",
        "params": {
          "_planter": "address of planter to fund",
          "_treeId": "id of a tree that planter's total claimable amount updated for",
          "_treeStatus": "status of tree"
        }
      },
      "updateProjectedEarnings(uint256,uint256,uint256)": {
        "details": "set projected earnings",
        "params": {
          "_ambassadorAmount": "ambassador amount",
          "_planterAmount": "planter amount",
          "_treeId": "id of tree to set projected earning for"
        }
      },
      "updateWithdrawableAmount(uint256)": {
        "details": "admin set the minimum amount to withdraw",
        "params": {
          "_amount": "is minimum withdrawable amount"
        }
      },
      "versionRecipient()": {
        "details": "return version recipient "
      },
      "withdrawBalance(uint256)": {
        "details": "planter withdraw {_amount} from balances",
        "params": {
          "_amount": "amount to withdraw"
        }
      },
      "withdrawNoAmbsassadorBalance(uint256,string)": {
        "details": "admin withdraw from noAmbsassador totalBalances NOTE amount transfer to outgoingAddress",
        "params": {
          "_amount": "amount to withdraw",
          "_reason": "reason to withdraw"
        }
      }
    },
    "title": "PlanterFund Contract ",
    "version": 1
  },
  "userdoc": {
    "kind": "user",
    "methods": {
      "balances(address)": {
        "notice": "NOTE mapping of planter address to planter balance"
      },
      "isPlanterFund()": {
        "notice": "NOTE {isPlanterFund} set inside the initialize to {true} "
      },
      "isTrustedForwarder(address)": {
        "notice": "return if the forwarder is trusted to forward relayed transactions to us. the forwarder is required to verify the sender's signature, and verify the call is not a replay."
      },
      "minWithdrawable()": {
        "notice": "NOTE minimum withdrawable amount "
      },
      "outgoingAddress()": {
        "notice": "NOTE outgoing address "
      },
      "totalBalances()": {
        "notice": "NOTE totalBalances keep total share of planter, ambassador, noAmbsassador"
      },
      "treeToAmbassadorProjectedEarning(uint256)": {
        "notice": "NOTE mapping of treeId to ambassadorProjectedEarning"
      },
      "treeToPlanterProjectedEarning(uint256)": {
        "notice": "NOTE mapping of treeId to planterProjectedEarning"
      },
      "treeToPlanterTotalClaimed(uint256)": {
        "notice": "NOTE mpping of treeId to treeToPlanterTotalClaimed balance"
      }
    },
    "version": 1
  }
}