{
  "contractName": "Planter",
  "abi": [
    {
      "anonymous": false,
      "inputs": [
        {
          "indexed": false,
          "internalType": "address",
          "name": "planter",
          "type": "address"
        }
      ],
      "name": "AcceptedByOrganization",
      "type": "event"
    },
    {
      "anonymous": false,
      "inputs": [
        {
          "indexed": false,
          "internalType": "address",
          "name": "organization",
          "type": "address"
        }
      ],
      "name": "OrganizationJoined",
      "type": "event"
    },
    {
      "anonymous": false,
      "inputs": [
        {
          "indexed": false,
          "internalType": "address",
          "name": "planter",
          "type": "address"
        }
      ],
      "name": "OrganizationMemberShareUpdated",
      "type": "event"
    },
    {
      "anonymous": false,
      "inputs": [
        {
          "indexed": false,
          "internalType": "address",
          "name": "planter",
          "type": "address"
        }
      ],
      "name": "PlanterJoined",
      "type": "event"
    },
    {
      "anonymous": false,
      "inputs": [
        {
          "indexed": false,
          "internalType": "address",
          "name": "planter",
          "type": "address"
        }
      ],
      "name": "PlanterUpdated",
      "type": "event"
    },
    {
      "anonymous": false,
      "inputs": [
        {
          "indexed": false,
          "internalType": "address",
          "name": "planter",
          "type": "address"
        }
      ],
      "name": "RejectedByOrganization",
      "type": "event"
    },
    {
      "inputs": [],
      "name": "accessRestriction",
      "outputs": [
        {
          "internalType": "contract IAccessRestriction",
          "name": "",
          "type": "address"
        }
      ],
      "stateMutability": "view",
      "type": "function",
      "constant": true
    },
    {
      "inputs": [
        {
          "internalType": "address",
          "name": "",
          "type": "address"
        }
      ],
      "name": "invitedBy",
      "outputs": [
        {
          "internalType": "address",
          "name": "",
          "type": "address"
        }
      ],
      "stateMutability": "view",
      "type": "function",
      "constant": true
    },
    {
      "inputs": [],
      "name": "isPlanter",
      "outputs": [
        {
          "internalType": "bool",
          "name": "",
          "type": "bool"
        }
      ],
      "stateMutability": "view",
      "type": "function",
      "constant": true
    },
    {
      "inputs": [
        {
          "internalType": "address",
          "name": "forwarder",
          "type": "address"
        }
      ],
      "name": "isTrustedForwarder",
      "outputs": [
        {
          "internalType": "bool",
          "name": "",
          "type": "bool"
        }
      ],
      "stateMutability": "view",
      "type": "function",
      "constant": true
    },
    {
      "inputs": [
        {
          "internalType": "address",
          "name": "",
          "type": "address"
        }
      ],
      "name": "memberOf",
      "outputs": [
        {
          "internalType": "address",
          "name": "",
          "type": "address"
        }
      ],
      "stateMutability": "view",
      "type": "function",
      "constant": true
    },
    {
      "inputs": [
        {
          "internalType": "address",
          "name": "",
          "type": "address"
        },
        {
          "internalType": "address",
          "name": "",
          "type": "address"
        }
      ],
      "name": "organizationMemberShare",
      "outputs": [
        {
          "internalType": "uint256",
          "name": "",
          "type": "uint256"
        }
      ],
      "stateMutability": "view",
      "type": "function",
      "constant": true
    },
    {
      "inputs": [
        {
          "internalType": "address",
          "name": "",
          "type": "address"
        }
      ],
      "name": "planters",
      "outputs": [
        {
          "internalType": "uint8",
          "name": "planterType",
          "type": "uint8"
        },
        {
          "internalType": "uint8",
          "name": "status",
          "type": "uint8"
        },
        {
          "internalType": "uint16",
          "name": "countryCode",
          "type": "uint16"
        },
        {
          "internalType": "uint32",
          "name": "score",
          "type": "uint32"
        },
        {
          "internalType": "uint32",
          "name": "supplyCap",
          "type": "uint32"
        },
        {
          "internalType": "uint32",
          "name": "plantedCount",
          "type": "uint32"
        },
        {
          "internalType": "int64",
          "name": "longitude",
          "type": "int64"
        },
        {
          "internalType": "int64",
          "name": "latitude",
          "type": "int64"
        }
      ],
      "stateMutability": "view",
      "type": "function",
      "constant": true
    },
    {
      "inputs": [],
      "name": "trustedForwarder",
      "outputs": [
        {
          "internalType": "address",
          "name": "",
          "type": "address"
        }
      ],
      "stateMutability": "view",
      "type": "function",
      "constant": true
    },
    {
      "inputs": [],
      "name": "versionRecipient",
      "outputs": [
        {
          "internalType": "string",
          "name": "",
          "type": "string"
        }
      ],
      "stateMutability": "pure",
      "type": "function",
      "constant": true
    },
    {
      "inputs": [
        {
          "internalType": "address",
          "name": "_accessRestrictionAddress",
          "type": "address"
        }
      ],
      "name": "initialize",
      "outputs": [],
      "stateMutability": "nonpayable",
      "type": "function"
    },
    {
      "inputs": [
        {
          "internalType": "address",
          "name": "_address",
          "type": "address"
        }
      ],
      "name": "setTrustedForwarder",
      "outputs": [],
      "stateMutability": "nonpayable",
      "type": "function"
    },
    {
      "inputs": [
        {
          "internalType": "uint8",
          "name": "_planterType",
          "type": "uint8"
        },
        {
          "internalType": "int64",
          "name": "_longitude",
          "type": "int64"
        },
        {
          "internalType": "int64",
          "name": "_latitude",
          "type": "int64"
        },
        {
          "internalType": "uint16",
          "name": "_countryCode",
          "type": "uint16"
        },
        {
          "internalType": "address",
          "name": "_invitedBy",
          "type": "address"
        },
        {
          "internalType": "address",
          "name": "_organization",
          "type": "address"
        }
      ],
      "name": "join",
      "outputs": [],
      "stateMutability": "nonpayable",
      "type": "function"
    },
    {
      "inputs": [
        {
          "internalType": "address",
          "name": "_planter",
          "type": "address"
        },
        {
          "internalType": "uint8",
          "name": "_planterType",
          "type": "uint8"
        },
        {
          "internalType": "int64",
          "name": "_longitude",
          "type": "int64"
        },
        {
          "internalType": "int64",
          "name": "_latitude",
          "type": "int64"
        },
        {
          "internalType": "uint16",
          "name": "_countryCode",
          "type": "uint16"
        },
        {
          "internalType": "address",
          "name": "_invitedBy",
          "type": "address"
        },
        {
          "internalType": "address",
          "name": "_organization",
          "type": "address"
        }
      ],
      "name": "joinByAdmin",
      "outputs": [],
      "stateMutability": "nonpayable",
      "type": "function"
    },
    {
      "inputs": [
        {
          "internalType": "address",
          "name": "_organization",
          "type": "address"
        },
        {
          "internalType": "int64",
          "name": "_longitude",
          "type": "int64"
        },
        {
          "internalType": "int64",
          "name": "_latitude",
          "type": "int64"
        },
        {
          "internalType": "uint16",
          "name": "_countryCode",
          "type": "uint16"
        },
        {
          "internalType": "uint32",
          "name": "_supplyCap",
          "type": "uint32"
        },
        {
          "internalType": "address",
          "name": "_invitedBy",
          "type": "address"
        }
      ],
      "name": "joinOrganization",
      "outputs": [],
      "stateMutability": "nonpayable",
      "type": "function"
    },
    {
      "inputs": [
        {
          "internalType": "uint8",
          "name": "_planterType",
          "type": "uint8"
        },
        {
          "internalType": "address",
          "name": "_organization",
          "type": "address"
        }
      ],
      "name": "updatePlanterType",
      "outputs": [],
      "stateMutability": "nonpayable",
      "type": "function"
    },
    {
      "inputs": [
        {
          "internalType": "address",
          "name": "_planter",
          "type": "address"
        },
        {
          "internalType": "bool",
          "name": "_acceptance",
          "type": "bool"
        }
      ],
      "name": "acceptPlanterByOrganization",
      "outputs": [],
      "stateMutability": "nonpayable",
      "type": "function"
    },
    {
      "inputs": [
        {
          "internalType": "address",
          "name": "_planter",
          "type": "address"
        },
        {
          "internalType": "uint32",
          "name": "_supplyCap",
          "type": "uint32"
        }
      ],
      "name": "updateSupplyCap",
      "outputs": [],
      "stateMutability": "nonpayable",
      "type": "function"
    },
    {
      "inputs": [
        {
          "internalType": "address",
          "name": "_planter",
          "type": "address"
        },
        {
          "internalType": "address",
          "name": "_assignedPlanterAddress",
          "type": "address"
        }
      ],
      "name": "manageAssignedTreePermission",
      "outputs": [
        {
          "internalType": "bool",
          "name": "",
          "type": "bool"
        }
      ],
      "stateMutability": "nonpayable",
      "type": "function"
    },
    {
      "inputs": [
        {
          "internalType": "address",
          "name": "_planter",
          "type": "address"
        },
        {
          "internalType": "uint256",
          "name": "_organizationMemberShareAmount",
          "type": "uint256"
        }
      ],
      "name": "updateOrganizationMemberShare",
      "outputs": [],
      "stateMutability": "nonpayable",
      "type": "function"
    },
    {
      "inputs": [
        {
          "internalType": "address",
          "name": "_planter",
          "type": "address"
        }
      ],
      "name": "reducePlantedCount",
      "outputs": [],
      "stateMutability": "nonpayable",
      "type": "function"
    },
    {
      "inputs": [
        {
          "internalType": "address",
          "name": "_planter",
          "type": "address"
        }
      ],
      "name": "manageTreePermission",
      "outputs": [
        {
          "internalType": "bool",
          "name": "",
          "type": "bool"
        }
      ],
      "stateMutability": "nonpayable",
      "type": "function"
    },
    {
      "inputs": [
        {
          "internalType": "address",
          "name": "_planter",
          "type": "address"
        }
      ],
      "name": "getOrganizationMemberData",
      "outputs": [
        {
          "internalType": "bool",
          "name": "",
          "type": "bool"
        },
        {
          "internalType": "address",
          "name": "",
          "type": "address"
        },
        {
          "internalType": "address",
          "name": "",
          "type": "address"
        },
        {
          "internalType": "uint256",
          "name": "",
          "type": "uint256"
        }
      ],
      "stateMutability": "view",
      "type": "function",
      "constant": true
    },
    {
      "inputs": [
        {
          "internalType": "address",
          "name": "_planter",
          "type": "address"
        }
      ],
      "name": "canAssignTree",
      "outputs": [
        {
          "internalType": "bool",
          "name": "",
          "type": "bool"
        }
      ],
      "stateMutability": "view",
      "type": "function",
      "constant": true
    }
  ],
  "bytecode": "0x608060405234801561001057600080fd5b5061375f806100206000396000f3fe608060405234801561001057600080fd5b506004361061018d5760003560e01c80635eb5f4a1116100e3578063c670d5c61161008c578063da74222811610066578063da7422281461053a578063f1f8d7da1461054d578063fc5c2c7f1461058357600080fd5b8063c670d5c6146103cf578063d3a907d614610421578063d6762c4a1461051a57600080fd5b8063a1f74f0e116100bd578063a1f74f0e14610396578063aac1664d146103a9578063c4d66de8146103bc57600080fd5b80635eb5f4a11461034a5780637da0a8771461035d57806394bfbff91461038357600080fd5b80633b4c9891116101455780634dbdb44a1161011f5780634dbdb44a146102c95780635168495514610302578063572b6c051461031557600080fd5b80633b4c98911461021c5780633d9b75df14610277578063486ff0cd1461028a57600080fd5b80632aee70a3116101765780632aee70a3146101e157806333fd9ea1146101f6578063390b53731461020957600080fd5b806303dc8deb146101925780630649d930146101ce575b600080fd5b6000546101b990760100000000000000000000000000000000000000000000900460ff1681565b60405190151581526020015b60405180910390f35b6101b96101dc3660046133de565b610596565b6101f46101ef366004613510565b6107aa565b005b6101f46102043660046133c3565b610e9e565b6101f46102173660046135cf565b61107e565b61025261022a3660046133c3565b60046020526000908152604090205473ffffffffffffffffffffffffffffffffffffffff1681565b60405173ffffffffffffffffffffffffffffffffffffffff90911681526020016101c5565b6101b96102853660046133c3565b611751565b604080518082018252601d81527f322e322e302b747265656a65722e6972656c6179726563697069656e74000000602082015290516101c59190613629565b6102f46102d73660046133de565b600560209081526000928352604080842090915290825290205481565b6040519081526020016101c5565b6101f46103103660046134bc565b61179a565b6101b96103233660046133c3565b60005462010000900473ffffffffffffffffffffffffffffffffffffffff90811691161490565b6101f4610358366004613411565b611acf565b6000546102529062010000900473ffffffffffffffffffffffffffffffffffffffff1681565b6101f46103913660046134e6565b611e09565b6101b96103a43660046133c3565b61212c565b6101f46103b7366004613448565b61234c565b6101f46103ca3660046133c3565b6128bf565b6103e26103dd3660046133c3565b612ae9565b6040516101c59493929190931515845273ffffffffffffffffffffffffffffffffffffffff928316602085015291166040830152606082015260800190565b6104c461042f3660046133c3565b60026020526000908152604090205460ff8082169161010081049091169061ffff620100008204169063ffffffff64010000000082048116916801000000000000000081048216916c01000000000000000000000000820416907001000000000000000000000000000000008104600790810b9178010000000000000000000000000000000000000000000000009004900b88565b6040805160ff998a16815298909716602089015261ffff9095169587019590955263ffffffff928316606087015290821660808601521660a0840152600791820b60c0840152900b60e0820152610100016101c5565b6001546102529073ffffffffffffffffffffffffffffffffffffffff1681565b6101f46105483660046133c3565b612c0e565b61025261055b3660046133c3565b60036020526000908152604090205473ffffffffffffffffffffffffffffffffffffffff1681565b6101f46105913660046135b3565b612d7d565b60015460009073ffffffffffffffffffffffffffffffffffffffff1663ebe6a6f36105bf6132ec565b6040517fffffffff0000000000000000000000000000000000000000000000000000000060e084901b16815273ffffffffffffffffffffffffffffffffffffffff909116600482015260240160006040518083038186803b15801561062357600080fd5b505afa158015610637573d6000803e3d6000fd5b5050505073ffffffffffffffffffffffffffffffffffffffff83166000908152600260205260409020805460ff161561079e57805460ff6101009091041660011480156106f157508273ffffffffffffffffffffffffffffffffffffffff168473ffffffffffffffffffffffffffffffffffffffff1614806106f15750805460ff1660031480156106f1575073ffffffffffffffffffffffffffffffffffffffff8481166000908152600460205260409020548116908416145b1561079e5780546001908290600c906107219084906c01000000000000000000000000900463ffffffff1661369c565b82546101009290920a63ffffffff818102199093169183160217909155825468010000000000000000810482166c010000000000000000000000009091049091161090506107945780547fffffffffffffffffffffffffffffffffffffffffffffffffffffffffffff00ff166102001781555b60019150506107a4565b60009150505b92915050565b600160009054906101000a900473ffffffffffffffffffffffffffffffffffffffff1673ffffffffffffffffffffffffffffffffffffffff16634d868f986040518163ffffffff1660e01b815260040160006040518083038186803b15801561081257600080fd5b505afa158015610826573d6000803e3d6000fd5b505060015473ffffffffffffffffffffffffffffffffffffffff16915063c4d2a31b90506108526132ec565b6040517fffffffff0000000000000000000000000000000000000000000000000000000060e084901b16815273ffffffffffffffffffffffffffffffffffffffff909116600482015260240160006040518083038186803b1580156108b657600080fd5b505afa1580156108ca573d6000803e3d6000fd5b50506001546040517f2ea8de7f00000000000000000000000000000000000000000000000000000000815273ffffffffffffffffffffffffffffffffffffffff8b811660048301529091169250632ea8de7f915060240160206040518083038186803b15801561093957600080fd5b505afa15801561094d573d6000803e3d6000fd5b505050506040513d601f19601f820116820180604052508101906109719190613596565b80156109a3575073ffffffffffffffffffffffffffffffffffffffff871660009081526002602052604090205460ff16155b610a0e576040517f08c379a000000000000000000000000000000000000000000000000000000000815260206004820152601460248201527f4578697374206f72206e6f7420706c616e74657200000000000000000000000060448201526064015b60405180910390fd5b8560ff1660011480610a2357508560ff166003145b610a89576040517f08c379a000000000000000000000000000000000000000000000000000000000815260206004820152601360248201527f496e76616c696420706c616e74657254797065000000000000000000000000006044820152606401610a05565b8560ff1660031415610b7c5773ffffffffffffffffffffffffffffffffffffffff811660009081526002602081905260409091205460ff1614610b28576040517f08c379a000000000000000000000000000000000000000000000000000000000815260206004820152601460248201527f496e76616c6964206f7267616e697a6174696f6e0000000000000000000000006044820152606401610a05565b73ffffffffffffffffffffffffffffffffffffffff878116600090815260046020526040902080547fffffffffffffffffffffffff0000000000000000000000000000000000000000169183169190911790555b73ffffffffffffffffffffffffffffffffffffffff821615610d2c578673ffffffffffffffffffffffffffffffffffffffff168273ffffffffffffffffffffffffffffffffffffffff1614158015610c7257506001546040517f2ea8de7f00000000000000000000000000000000000000000000000000000000815273ffffffffffffffffffffffffffffffffffffffff848116600483015290911690632ea8de7f9060240160206040518083038186803b158015610c3a57600080fd5b505afa158015610c4e573d6000803e3d6000fd5b505050506040513d601f19601f82011682018060405250810190610c729190613596565b610cd8576040517f08c379a000000000000000000000000000000000000000000000000000000000815260206004820152601160248201527f496e76616c696420696e766974656442790000000000000000000000000000006044820152606401610a05565b73ffffffffffffffffffffffffffffffffffffffff878116600090815260036020526040902080547fffffffffffffffffffffffff0000000000000000000000000000000000000000169184169190911790555b73ffffffffffffffffffffffffffffffffffffffff8716600081815260026020908152604091829020805461010060ff8c167fffffffffffffffffffffffffffffffffffffffffffffffffffffffffffff000090921691909117177fffffffffffffffffffffffffffffffffffffffff00000000ffffffff0000ffff166201000061ffff8916027fffffffffffffffffffffffffffffffffffffffff00000000ffffffffffffffff161768640000000000000000176fffffffffffffffffffffffffffffffff1670010000000000000000000000000000000060078b810b67ffffffffffffffff9081169290920277ffffffffffffffffffffffffffffffffffffffffffffffff16929092177801000000000000000000000000000000000000000000000000928b900b9190911691909102178155915192835290917f62e552a7fa5dc9fa8f99c995acac83e51a3f5f91af2dccd5c0da81697e86ec6f91015b60405180910390a15050505050505050565b73ffffffffffffffffffffffffffffffffffffffff8116600090815260026020526040902054819060ff16610f2f576040517f08c379a000000000000000000000000000000000000000000000000000000000815260206004820152601160248201527f506c616e746572206e6f742065786973740000000000000000000000000000006044820152606401610a05565b60015473ffffffffffffffffffffffffffffffffffffffff1663ebe6a6f3610f556132ec565b6040517fffffffff0000000000000000000000000000000000000000000000000000000060e084901b16815273ffffffffffffffffffffffffffffffffffffffff909116600482015260240160006040518083038186803b158015610fb957600080fd5b505afa158015610fcd573d6000803e3d6000fd5b5050505073ffffffffffffffffffffffffffffffffffffffff8216600090815260026020526040902080546001908290600c906110219084906c01000000000000000000000000900463ffffffff166136c4565b825461010092830a63ffffffff8181021990921692909116021790915582540460ff166002141590506110795780547fffffffffffffffffffffffffffffffffffffffffffffffffffffffffffff00ff166101001781555b505050565b600160009054906101000a900473ffffffffffffffffffffffffffffffffffffffff1673ffffffffffffffffffffffffffffffffffffffff16634d868f986040518163ffffffff1660e01b815260040160006040518083038186803b1580156110e657600080fd5b505afa1580156110fa573d6000803e3d6000fd5b505060015473ffffffffffffffffffffffffffffffffffffffff169150632ea8de7f90506111266132ec565b6040517fffffffff0000000000000000000000000000000000000000000000000000000060e084901b16815273ffffffffffffffffffffffffffffffffffffffff909116600482015260240160206040518083038186803b15801561118a57600080fd5b505afa15801561119e573d6000803e3d6000fd5b505050506040513d601f19601f820116820180604052508101906111c29190613596565b80156112015750600260006111d56132ec565b73ffffffffffffffffffffffffffffffffffffffff16815260208101919091526040016000205460ff16155b611267576040517f08c379a000000000000000000000000000000000000000000000000000000000815260206004820152601460248201527f4578697374206f72206e6f7420706c616e7465720000000000000000000000006044820152606401610a05565b8560ff166001148061127c57508560ff166003145b6112e2576040517f08c379a000000000000000000000000000000000000000000000000000000000815260206004820152601360248201527f496e76616c696420706c616e74657254797065000000000000000000000000006044820152606401610a05565b8560ff16600314156113815773ffffffffffffffffffffffffffffffffffffffff811660009081526002602081905260409091205460ff1614611381576040517f08c379a000000000000000000000000000000000000000000000000000000000815260206004820152601460248201527f496e76616c6964206f7267616e697a6174696f6e0000000000000000000000006044820152606401610a05565b73ffffffffffffffffffffffffffffffffffffffff821615611548576113a56132ec565b73ffffffffffffffffffffffffffffffffffffffff168273ffffffffffffffffffffffffffffffffffffffff161415801561147e57506001546040517f2ea8de7f00000000000000000000000000000000000000000000000000000000815273ffffffffffffffffffffffffffffffffffffffff848116600483015290911690632ea8de7f9060240160206040518083038186803b15801561144657600080fd5b505afa15801561145a573d6000803e3d6000fd5b505050506040513d601f19601f8201168201806040525081019061147e9190613596565b6114e4576040517f08c379a000000000000000000000000000000000000000000000000000000000815260206004820152601160248201527f496e76616c696420696e766974656442790000000000000000000000000000006044820152606401610a05565b81600360006114f16132ec565b73ffffffffffffffffffffffffffffffffffffffff9081168252602082019290925260400160002080547fffffffffffffffffffffffff000000000000000000000000000000000000000016929091169190911790555b6001600360ff881614156115e05781600460006115636132ec565b73ffffffffffffffffffffffffffffffffffffffff1673ffffffffffffffffffffffffffffffffffffffff16815260200190815260200160002060006101000a81548173ffffffffffffffffffffffffffffffffffffffff021916908373ffffffffffffffffffffffffffffffffffffffff160217905550600090505b6000600260006115ee6132ec565b73ffffffffffffffffffffffffffffffffffffffff1673ffffffffffffffffffffffffffffffffffffffff1681526020019081526020016000209050878160000160006101000a81548160ff021916908360ff160217905550818160000160016101000a81548160ff021916908360ff160217905550848160000160026101000a81548161ffff021916908361ffff16021790555060648160000160086101000a81548163ffffffff021916908363ffffffff160217905550868160000160106101000a81548167ffffffffffffffff021916908360070b67ffffffffffffffff160217905550858160000160186101000a81548167ffffffffffffffff021916908360070b67ffffffffffffffff1602179055507f62e552a7fa5dc9fa8f99c995acac83e51a3f5f91af2dccd5c0da81697e86ec6f61172c6132ec565b60405173ffffffffffffffffffffffffffffffffffffffff9091168152602001610e8c565b73ffffffffffffffffffffffffffffffffffffffff81166000908152600260205260408120805460ff61010090910416600114806117935750805460ff166002145b9392505050565b600160009054906101000a900473ffffffffffffffffffffffffffffffffffffffff1673ffffffffffffffffffffffffffffffffffffffff16634d868f986040518163ffffffff1660e01b815260040160006040518083038186803b15801561180257600080fd5b505afa158015611816573d6000803e3d6000fd5b50505050600260006118266132ec565b73ffffffffffffffffffffffffffffffffffffffff16815260208101919091526040016000205460ff166002146118b9576040517f08c379a000000000000000000000000000000000000000000000000000000000815260206004820152601860248201527f506c616e746572206e6f74206f7267616e697a6174696f6e00000000000000006044820152606401610a05565b73ffffffffffffffffffffffffffffffffffffffff8216600090815260026020526040902054610100900460ff1661194d576040517f08c379a000000000000000000000000000000000000000000000000000000000815260206004820152601660248201527f496e76616c696420706c616e74657220737461747573000000000000000000006044820152606401610a05565b6119556132ec565b73ffffffffffffffffffffffffffffffffffffffff83811660009081526004602052604090205481169116146119e7576040517f08c379a000000000000000000000000000000000000000000000000000000000815260206004820152600c60248201527f4e6f74206d656d6265724f6600000000000000000000000000000000000000006044820152606401610a05565b6127118110611a52576040517f08c379a000000000000000000000000000000000000000000000000000000000815260206004820152600d60248201527f496e76616c6964207368617265000000000000000000000000000000000000006044820152606401610a05565b8060056000611a5f6132ec565b73ffffffffffffffffffffffffffffffffffffffff90811682526020808301939093526040918201600090812091871680825291845282902093909355519182527fafec87f3f5eafec8bf3e82ecc83c1a5c4e745339521735e5372b757d3905eeec910160405180910390a15050565b600160009054906101000a900473ffffffffffffffffffffffffffffffffffffffff1673ffffffffffffffffffffffffffffffffffffffff16634d868f986040518163ffffffff1660e01b815260040160006040518083038186803b158015611b3757600080fd5b505afa158015611b4b573d6000803e3d6000fd5b5050505060026000611b5b6132ec565b73ffffffffffffffffffffffffffffffffffffffff16815260208101919091526040016000205460ff16600214611bee576040517f08c379a000000000000000000000000000000000000000000000000000000000815260206004820152601860248201527f506c616e746572206e6f74206f7267616e697a6174696f6e00000000000000006044820152606401610a05565b611bf66132ec565b73ffffffffffffffffffffffffffffffffffffffff83811660009081526004602052604090205481169116148015611c59575073ffffffffffffffffffffffffffffffffffffffff8216600090815260026020526040902054610100900460ff16155b611cbf576040517f08c379a000000000000000000000000000000000000000000000000000000000815260206004820152601260248201527f52657175657374206e6f742065786973747300000000000000000000000000006044820152606401610a05565b73ffffffffffffffffffffffffffffffffffffffff821660009081526002602052604090208115611d635780547fffffffffffffffffffffffffffffffffffffffffffffffffffffffffffff00ff1661010017815560405173ffffffffffffffffffffffffffffffffffffffff841681527f051b4b22140b33d543a888666188b0b245a0bec5a5fbad9a7056a5466bad0f48906020015b60405180910390a1505050565b80547fffffffffffffffffffffffffffffffffffffffffffffffffffffffffffff00001661010117815573ffffffffffffffffffffffffffffffffffffffff831660008181526004602090815260409182902080547fffffffffffffffffffffffff000000000000000000000000000000000000000016905590519182527f79101b3eb6902749f086c56104914b9b6a60917c4a7bdccb2291d6d13d61468b9101611d56565b600160009054906101000a900473ffffffffffffffffffffffffffffffffffffffff1673ffffffffffffffffffffffffffffffffffffffff16634d868f986040518163ffffffff1660e01b815260040160006040518083038186803b158015611e7157600080fd5b505afa158015611e85573d6000803e3d6000fd5b505060015473ffffffffffffffffffffffffffffffffffffffff16915063c4d2a31b9050611eb16132ec565b6040517fffffffff0000000000000000000000000000000000000000000000000000000060e084901b16815273ffffffffffffffffffffffffffffffffffffffff909116600482015260240160006040518083038186803b158015611f1557600080fd5b505afa158015611f29573d6000803e3d6000fd5b50505073ffffffffffffffffffffffffffffffffffffffff831660009081526002602052604090205483915060ff16611fbe576040517f08c379a000000000000000000000000000000000000000000000000000000000815260206004820152601160248201527f506c616e746572206e6f742065786973740000000000000000000000000000006044820152606401610a05565b73ffffffffffffffffffffffffffffffffffffffff83166000908152600260205260409020805463ffffffff6c01000000000000000000000000909104811690841611612067576040517f08c379a000000000000000000000000000000000000000000000000000000000815260206004820152601160248201527f496e76616c696420737570706c794361700000000000000000000000000000006044820152606401610a05565b80547fffffffffffffffffffffffffffffffffffffffff00000000ffffffffffffffff166801000000000000000063ffffffff85160217808255610100900460ff16600214156120dc5780547fffffffffffffffffffffffffffffffffffffffffffffffffffffffffffff00ff166101001781555b60405173ffffffffffffffffffffffffffffffffffffffff851681527f4f4c4d7a603e71ff6fc5aca4b16d1aee54c290be7eb4b17a72535c562724ce76906020015b60405180910390a150505050565b73ffffffffffffffffffffffffffffffffffffffff8116600090815260026020526040812054829060ff166121bd576040517f08c379a000000000000000000000000000000000000000000000000000000000815260206004820152601160248201527f506c616e746572206e6f742065786973740000000000000000000000000000006044820152606401610a05565b60015473ffffffffffffffffffffffffffffffffffffffff1663ebe6a6f36121e36132ec565b6040517fffffffff0000000000000000000000000000000000000000000000000000000060e084901b16815273ffffffffffffffffffffffffffffffffffffffff909116600482015260240160006040518083038186803b15801561224757600080fd5b505afa15801561225b573d6000803e3d6000fd5b5050505073ffffffffffffffffffffffffffffffffffffffff831660009081526002602052604090208054600161010090910460ff1614156123405780546001908290600c906122c29084906c01000000000000000000000000900463ffffffff1661369c565b82546101009290920a63ffffffff818102199093169183160217909155825468010000000000000000810482166c01000000000000000000000000909104909116141590506123365780547fffffffffffffffffffffffffffffffffffffffffffffffffffffffffffff00ff166102001781555b6001925050612346565b60009250505b50919050565b600160009054906101000a900473ffffffffffffffffffffffffffffffffffffffff1673ffffffffffffffffffffffffffffffffffffffff16634d868f986040518163ffffffff1660e01b815260040160006040518083038186803b1580156123b457600080fd5b505afa1580156123c8573d6000803e3d6000fd5b505060015473ffffffffffffffffffffffffffffffffffffffff16915063c4d2a31b90506123f46132ec565b6040517fffffffff0000000000000000000000000000000000000000000000000000000060e084901b16815273ffffffffffffffffffffffffffffffffffffffff909116600482015260240160006040518083038186803b15801561245857600080fd5b505afa15801561246c573d6000803e3d6000fd5b5050505073ffffffffffffffffffffffffffffffffffffffff861660009081526002602052604090205460ff1615801561254457506001546040517f2ea8de7f00000000000000000000000000000000000000000000000000000000815273ffffffffffffffffffffffffffffffffffffffff888116600483015290911690632ea8de7f9060240160206040518083038186803b15801561250c57600080fd5b505afa158015612520573d6000803e3d6000fd5b505050506040513d601f19601f820116820180604052508101906125449190613596565b6125aa576040517f08c379a000000000000000000000000000000000000000000000000000000000815260206004820152601460248201527f4578697374206f72206e6f7420706c616e7465720000000000000000000000006044820152606401610a05565b73ffffffffffffffffffffffffffffffffffffffff811615612761576125ce6132ec565b73ffffffffffffffffffffffffffffffffffffffff168173ffffffffffffffffffffffffffffffffffffffff16141580156126a757506001546040517f2ea8de7f00000000000000000000000000000000000000000000000000000000815273ffffffffffffffffffffffffffffffffffffffff838116600483015290911690632ea8de7f9060240160206040518083038186803b15801561266f57600080fd5b505afa158015612683573d6000803e3d6000fd5b505050506040513d601f19601f820116820180604052508101906126a79190613596565b61270d576040517f08c379a000000000000000000000000000000000000000000000000000000000815260206004820152601160248201527f496e76616c696420696e766974656442790000000000000000000000000000006044820152606401610a05565b73ffffffffffffffffffffffffffffffffffffffff868116600090815260036020526040902080547fffffffffffffffffffffffff0000000000000000000000000000000000000000169183169190911790555b73ffffffffffffffffffffffffffffffffffffffff861660008181526002602090815260409182902080546101027fffffffffffffffffffffffffffffffffffffffffffffffffffffffff000000009091166201000061ffff8a160217177fffffffffffffffff0000000000000000ffffffff00000000ffffffffffffffff166801000000000000000063ffffffff8816027fffffffffffffffff0000000000000000ffffffffffffffffffffffffffffffff161770010000000000000000000000000000000060078b810b67ffffffffffffffff908116929092029290921777ffffffffffffffffffffffffffffffffffffffffffffffff167801000000000000000000000000000000000000000000000000928b900b9190911691909102178155915192835290917f0683c1983fc01a6c39efeeb42a844c7e32245a86701889a8113c677d17a1b243910160405180910390a150505050505050565b600054610100900460ff16806128d8575060005460ff16155b612964576040517f08c379a000000000000000000000000000000000000000000000000000000000815260206004820152602e60248201527f496e697469616c697a61626c653a20636f6e747261637420697320616c72656160448201527f647920696e697469616c697a65640000000000000000000000000000000000006064820152608401610a05565b600054610100900460ff161580156129a357600080547fffffffffffffffffffffffffffffffffffffffffffffffffffffffffffff0000166101011790555b60008290508073ffffffffffffffffffffffffffffffffffffffff1663ba84fd696040518163ffffffff1660e01b815260040160206040518083038186803b1580156129ee57600080fd5b505afa158015612a02573d6000803e3d6000fd5b505050506040513d601f19601f82011682018060405250810190612a269190613596565b612a2f57600080fd5b600080547fffffffffffffffffff00ffffffffffffffffffffffffffffffffffffffffffff167601000000000000000000000000000000000000000000001790556001805473ffffffffffffffffffffffffffffffffffffffff9092167fffffffffffffffffffffffff00000000000000000000000000000000000000009092169190911790558015612ae557600080547fffffffffffffffffffffffffffffffffffffffffffffffffffffffffffff00ff1690555b5050565b73ffffffffffffffffffffffffffffffffffffffff81166000908152600260205260408120805482918291829190610100900460ff1660041480612b2f5750805460ff16155b15612b4857600080600080945094509450945050612c07565b805460ff1660011480612b5f5750805460ff166002145b80612b7157508054610100900460ff16155b15612bb05750505073ffffffffffffffffffffffffffffffffffffffff8084166000908152600360205260408120546001945090925016612710612c07565b5050505073ffffffffffffffffffffffffffffffffffffffff828116600081815260046020908152604080832054600383528184205490861680855260058452828520958552949092529091205460019450919216905b9193509193565b60015473ffffffffffffffffffffffffffffffffffffffff16638413ec14612c346132ec565b6040517fffffffff0000000000000000000000000000000000000000000000000000000060e084901b16815273ffffffffffffffffffffffffffffffffffffffff909116600482015260240160006040518083038186803b158015612c9857600080fd5b505afa158015612cac573d6000803e3d6000fd5b50839250505073ffffffffffffffffffffffffffffffffffffffff8116612d2f576040517f08c379a000000000000000000000000000000000000000000000000000000000815260206004820152600f60248201527f496e76616c6964206164647265737300000000000000000000000000000000006044820152606401610a05565b506000805473ffffffffffffffffffffffffffffffffffffffff90921662010000027fffffffffffffffffffff0000000000000000000000000000000000000000ffff909216919091179055565b600160009054906101000a900473ffffffffffffffffffffffffffffffffffffffff1673ffffffffffffffffffffffffffffffffffffffff16634d868f986040518163ffffffff1660e01b815260040160006040518083038186803b158015612de557600080fd5b505afa158015612df9573d6000803e3d6000fd5b50505050612e056132ec565b73ffffffffffffffffffffffffffffffffffffffff811660009081526002602052604090205460ff16612e94576040517f08c379a000000000000000000000000000000000000000000000000000000000815260206004820152601160248201527f506c616e746572206e6f742065786973740000000000000000000000000000006044820152606401610a05565b8260ff1660011480612ea957508260ff166003145b612f0f576040517f08c379a000000000000000000000000000000000000000000000000000000000815260206004820152601360248201527f496e76616c696420706c616e74657254797065000000000000000000000000006044820152606401610a05565b600060026000612f1d6132ec565b73ffffffffffffffffffffffffffffffffffffffff16815260208101919091526040016000208054909150610100900460ff161580612f665750805460ff610100909104166001145b612fcc576040517f08c379a000000000000000000000000000000000000000000000000000000000815260206004820152601660248201527f496e76616c696420706c616e74657220737461747573000000000000000000006044820152606401610a05565b805460ff166002141561303b576040517f08c379a000000000000000000000000000000000000000000000000000000000815260206004820152601660248201527f43616c6c6572206973206f7267616e697a6174696f6e000000000000000000006044820152606401610a05565b8360ff16600314156131685773ffffffffffffffffffffffffffffffffffffffff831660009081526002602081905260409091205460ff16146130da576040517f08c379a000000000000000000000000000000000000000000000000000000000815260206004820152601460248201527f496e76616c6964206f7267616e697a6174696f6e0000000000000000000000006044820152606401610a05565b82600460006130e76132ec565b73ffffffffffffffffffffffffffffffffffffffff9081168252602082019290925260400160002080547fffffffffffffffffffffffff0000000000000000000000000000000000000000169290911691909117905580547fffffffffffffffffffffffffffffffffffffffffffffffffffffffffffff00ff168155613273565b805460ff166003146131d6576040517f08c379a000000000000000000000000000000000000000000000000000000000815260206004820152601160248201527f506c616e74657220747970652073616d650000000000000000000000000000006044820152606401610a05565b6000600460006131e46132ec565b73ffffffffffffffffffffffffffffffffffffffff9081168252602082019290925260400160002080547fffffffffffffffffffffffff000000000000000000000000000000000000000016929091169190911790558054610100900460ff166132735780547fffffffffffffffffffffffffffffffffffffffffffffffffffffffffffff00ff166101001781555b80547fffffffffffffffffffffffffffffffffffffffffffffffffffffffffffffff001660ff85161781557f4f4c4d7a603e71ff6fc5aca4b16d1aee54c290be7eb4b17a72535c562724ce766132c76132ec565b60405173ffffffffffffffffffffffffffffffffffffffff909116815260200161211e565b60006014361080159061331c575060005462010000900473ffffffffffffffffffffffffffffffffffffffff1633145b1561334c57507fffffffffffffffffffffffffffffffffffffffffffffffffffffffffffffffec36013560601c90565b503390565b803573ffffffffffffffffffffffffffffffffffffffff8116811461337557600080fd5b919050565b8035600781900b811461337557600080fd5b803561ffff8116811461337557600080fd5b803563ffffffff8116811461337557600080fd5b803560ff8116811461337557600080fd5b6000602082840312156133d557600080fd5b61179382613351565b600080604083850312156133f157600080fd5b6133fa83613351565b915061340860208401613351565b90509250929050565b6000806040838503121561342457600080fd5b61342d83613351565b9150602083013561343d81613718565b809150509250929050565b60008060008060008060c0878903121561346157600080fd5b61346a87613351565b95506134786020880161337a565b94506134866040880161337a565b93506134946060880161338c565b92506134a26080880161339e565b91506134b060a08801613351565b90509295509295509295565b600080604083850312156134cf57600080fd5b6134d883613351565b946020939093013593505050565b600080604083850312156134f957600080fd5b61350283613351565b91506134086020840161339e565b600080600080600080600060e0888a03121561352b57600080fd5b61353488613351565b9650613542602089016133b2565b95506135506040890161337a565b945061355e6060890161337a565b935061356c6080890161338c565b925061357a60a08901613351565b915061358860c08901613351565b905092959891949750929550565b6000602082840312156135a857600080fd5b815161179381613718565b600080604083850312156135c657600080fd5b6133fa836133b2565b60008060008060008060c087890312156135e857600080fd5b6135f1876133b2565b95506135ff6020880161337a565b945061360d6040880161337a565b935061361b6060880161338c565b92506134a260808801613351565b600060208083528351808285015260005b818110156136565785810183015185820160400152820161363a565b81811115613668576000604083870101525b50601f017fffffffffffffffffffffffffffffffffffffffffffffffffffffffffffffffe016929092016040019392505050565b600063ffffffff8083168185168083038211156136bb576136bb6136e9565b01949350505050565b600063ffffffff838116908316818110156136e1576136e16136e9565b039392505050565b7f4e487b7100000000000000000000000000000000000000000000000000000000600052601160045260246000fd5b801515811461372657600080fd5b5056fea26469706673582212203f1dfe136367ad0882c15622cc729943ed83c83f030777ed20eae8e915ce55d264736f6c63430008060033",
  "immutableReferences": {},
  "source": "// SPDX-License-Identifier: GPL-3.0\n\npragma solidity ^0.8.6;\n\nimport \"@openzeppelin/contracts-upgradeable/proxy/utils/Initializable.sol\";\n\nimport \"@openzeppelin/contracts-upgradeable/utils/math/SafeCastUpgradeable.sol\";\nimport \"../access/IAccessRestriction.sol\";\nimport \"../gsn/RelayRecipient.sol\";\nimport \"./IPlanter.sol\";\n\n/** @title Planter contract */\ncontract Planter is Initializable, RelayRecipient, IPlanter {\n    using SafeCastUpgradeable for uint256;\n\n    struct PlanterData {\n        uint8 planterType;\n        uint8 status;\n        uint16 countryCode;\n        uint32 score;\n        uint32 supplyCap;\n        uint32 plantedCount;\n        int64 longitude;\n        int64 latitude;\n    }\n\n    /** NOTE {isPlanter} set inside the initialize to {true} */\n    bool public override isPlanter;\n\n    IAccessRestriction public accessRestriction;\n\n    /** NOTE mapping of planter address to PlanterData */\n    mapping(address => PlanterData) public override planters;\n\n    /** NOTE mapping of planter address to address of invitedBy */\n    mapping(address => address) public override invitedBy;\n\n    /** NOTE mapping of planter address to organization address that planter is member of it */\n    mapping(address => address) public override memberOf;\n\n    /** NOTE mapping of organization address to mapping of planter address to portionValue */\n    mapping(address => mapping(address => uint256))\n        public\n        override organizationMemberShare;\n\n    /** NOTE modifier to check msg.sender has admin role */\n    modifier onlyAdmin() {\n        accessRestriction.ifAdmin(_msgSender());\n        _;\n    }\n\n    /** NOTE modifier to check msg.sender has data manager role */\n    modifier onlyDataManager() {\n        accessRestriction.ifDataManager(_msgSender());\n        _;\n    }\n\n    /** NOTE modifier for check if function is not paused */\n    modifier ifNotPaused() {\n        accessRestriction.ifNotPaused();\n        _;\n    }\n\n    /** NOTE modifier for check _planter is exist*/\n    modifier existPlanter(address _planter) {\n        require(planters[_planter].planterType > 0, \"Planter not exist\");\n        _;\n    }\n\n    /** NOTE modifier for check valid address */\n    modifier validAddress(address _address) {\n        require(_address != address(0), \"Invalid address\");\n        _;\n    }\n\n    /** NOTE modifier for check msg.sender planterType is organization*/\n    modifier onlyOrganization() {\n        require(\n            planters[_msgSender()].planterType == 2,\n            \"Planter not organization\"\n        );\n        _;\n    }\n\n    /** NOTE modifier for check msg.sender has TreejerContract role*/\n    modifier onlyTreejerContract() {\n        accessRestriction.ifTreejerContract(_msgSender());\n        _;\n    }\n\n    /// @inheritdoc IPlanter\n    function initialize(address _accessRestrictionAddress)\n        external\n        override\n        initializer\n    {\n        IAccessRestriction candidateContract = IAccessRestriction(\n            _accessRestrictionAddress\n        );\n        require(candidateContract.isAccessRestriction());\n        isPlanter = true;\n        accessRestriction = candidateContract;\n    }\n\n    /// @inheritdoc IPlanter\n    function setTrustedForwarder(address _address)\n        external\n        override\n        onlyAdmin\n        validAddress(_address)\n    {\n        trustedForwarder = _address;\n    }\n\n    /// @inheritdoc IPlanter\n    function join(\n        uint8 _planterType,\n        int64 _longitude,\n        int64 _latitude,\n        uint16 _countryCode,\n        address _invitedBy,\n        address _organization\n    ) external override ifNotPaused {\n        require(\n            accessRestriction.isPlanter(_msgSender()) &&\n                planters[_msgSender()].planterType == 0,\n            \"Exist or not planter\"\n        );\n\n        require(\n            _planterType == 1 || _planterType == 3,\n            \"Invalid planterType\"\n        );\n\n        if (_planterType == 3) {\n            require(\n                planters[_organization].planterType == 2,\n                \"Invalid organization\"\n            );\n        }\n\n        if (_invitedBy != address(0)) {\n            require(\n                _invitedBy != _msgSender() &&\n                    accessRestriction.isPlanter(_invitedBy),\n                \"Invalid invitedBy\"\n            );\n\n            invitedBy[_msgSender()] = _invitedBy;\n        }\n\n        uint8 status = 1;\n\n        if (_planterType == 3) {\n            memberOf[_msgSender()] = _organization;\n            status = 0;\n        }\n\n        PlanterData storage planterData = planters[_msgSender()];\n\n        planterData.planterType = _planterType;\n        planterData.status = status;\n        planterData.countryCode = _countryCode;\n        planterData.supplyCap = 100;\n        planterData.longitude = _longitude;\n        planterData.latitude = _latitude;\n\n        emit PlanterJoined(_msgSender());\n    }\n\n    /// @inheritdoc IPlanter\n    function joinByAdmin(\n        address _planter,\n        uint8 _planterType,\n        int64 _longitude,\n        int64 _latitude,\n        uint16 _countryCode,\n        address _invitedBy,\n        address _organization\n    ) external override ifNotPaused onlyDataManager {\n        require(\n            accessRestriction.isPlanter(_planter) &&\n                planters[_planter].planterType == 0,\n            \"Exist or not planter\"\n        );\n\n        require(\n            _planterType == 1 || _planterType == 3,\n            \"Invalid planterType\"\n        );\n\n        if (_planterType == 3) {\n            require(\n                planters[_organization].planterType == 2,\n                \"Invalid organization\"\n            );\n\n            memberOf[_planter] = _organization;\n        }\n\n        if (_invitedBy != address(0)) {\n            require(\n                _invitedBy != _planter &&\n                    accessRestriction.isPlanter(_invitedBy),\n                \"Invalid invitedBy\"\n            );\n\n            invitedBy[_planter] = _invitedBy;\n        }\n\n        PlanterData storage planterData = planters[_planter];\n\n        planterData.planterType = _planterType;\n        planterData.status = 1;\n        planterData.countryCode = _countryCode;\n        planterData.supplyCap = 100;\n        planterData.longitude = _longitude;\n        planterData.latitude = _latitude;\n\n        emit PlanterJoined(_planter);\n    }\n\n    /// @inheritdoc IPlanter\n    function joinOrganization(\n        address _organization,\n        int64 _longitude,\n        int64 _latitude,\n        uint16 _countryCode,\n        uint32 _supplyCap,\n        address _invitedBy\n    ) external override ifNotPaused onlyDataManager {\n        require(\n            planters[_organization].planterType == 0 &&\n                accessRestriction.isPlanter(_organization),\n            \"Exist or not planter\"\n        );\n\n        if (_invitedBy != address(0)) {\n            require(\n                _invitedBy != _msgSender() &&\n                    accessRestriction.isPlanter(_invitedBy),\n                \"Invalid invitedBy\"\n            );\n\n            invitedBy[_organization] = _invitedBy;\n        }\n\n        PlanterData storage planterData = planters[_organization];\n\n        planterData.planterType = 2;\n        planterData.status = 1;\n        planterData.countryCode = _countryCode;\n        planterData.supplyCap = _supplyCap;\n        planterData.longitude = _longitude;\n        planterData.latitude = _latitude;\n\n        emit OrganizationJoined(_organization);\n    }\n\n    /// @inheritdoc IPlanter\n    function updatePlanterType(uint8 _planterType, address _organization)\n        external\n        override\n        ifNotPaused\n        existPlanter(_msgSender())\n    {\n        require(\n            _planterType == 1 || _planterType == 3,\n            \"Invalid planterType\"\n        );\n\n        PlanterData storage planterData = planters[_msgSender()];\n\n        require(\n            planterData.status == 0 || planterData.status == 1,\n            \"Invalid planter status\"\n        );\n\n        require(planterData.planterType != 2, \"Caller is organization\");\n\n        if (_planterType == 3) {\n            require(\n                planters[_organization].planterType == 2,\n                \"Invalid organization\"\n            );\n\n            memberOf[_msgSender()] = _organization;\n\n            planterData.status = 0;\n        } else {\n            require(\n                planterData.planterType == 3,\n                \"Planter type same\"\n            );\n\n            memberOf[_msgSender()] = address(0);\n\n            if (planterData.status == 0) {\n                planterData.status = 1;\n            }\n        }\n\n        planterData.planterType = _planterType;\n\n        emit PlanterUpdated(_msgSender());\n    }\n\n    /// @inheritdoc IPlanter\n    function acceptPlanterByOrganization(address _planter, bool _acceptance)\n        external\n        override\n        ifNotPaused\n        onlyOrganization\n    {\n        require(\n            memberOf[_planter] == _msgSender() &&\n                planters[_planter].status == 0,\n            \"Request not exists\"\n        );\n\n        PlanterData storage planterData = planters[_planter];\n\n        if (_acceptance) {\n            planterData.status = 1;\n\n            emit AcceptedByOrganization(_planter);\n        } else {\n            planterData.status = 1;\n            planterData.planterType = 1;\n            memberOf[_planter] = address(0);\n\n            emit RejectedByOrganization(_planter);\n        }\n    }\n\n    /// @inheritdoc IPlanter\n    function updateSupplyCap(address _planter, uint32 _supplyCap)\n        external\n        override\n        ifNotPaused\n        onlyDataManager\n        existPlanter(_planter)\n    {\n        PlanterData storage planterData = planters[_planter];\n        require(_supplyCap > planterData.plantedCount, \"Invalid supplyCap\");\n        planterData.supplyCap = _supplyCap;\n        if (planterData.status == 2) {\n            planterData.status = 1;\n        }\n        emit PlanterUpdated(_planter);\n    }\n\n    /// @inheritdoc IPlanter\n    function manageAssignedTreePermission(\n        address _planter,\n        address _assignedPlanterAddress\n    ) external override onlyTreejerContract returns (bool) {\n        PlanterData storage planterData = planters[_planter];\n        if (planterData.planterType > 0) {\n            if (\n                planterData.status == 1 &&\n                (_planter == _assignedPlanterAddress ||\n                    (planterData.planterType == 3 &&\n                        memberOf[_planter] == _assignedPlanterAddress))\n            ) {\n                planterData.plantedCount += 1;\n\n                if (planterData.plantedCount >= planterData.supplyCap) {\n                    planterData.status = 2;\n                }\n                return true;\n            }\n        }\n\n        return false;\n    }\n\n    /// @inheritdoc IPlanter\n    function updateOrganizationMemberShare(\n        address _planter,\n        uint256 _organizationMemberShareAmount\n    ) external override ifNotPaused onlyOrganization {\n        require(planters[_planter].status > 0, \"Invalid planter status\");\n        require(memberOf[_planter] == _msgSender(), \"Not memberOf\");\n        require(\n            _organizationMemberShareAmount < 10001,\n            \"Invalid share\"\n        );\n\n        organizationMemberShare[_msgSender()][\n            _planter\n        ] = _organizationMemberShareAmount;\n\n        emit OrganizationMemberShareUpdated(_planter);\n    }\n\n    /// @inheritdoc IPlanter\n    function reducePlantedCount(address _planter)\n        external\n        override\n        existPlanter(_planter)\n        onlyTreejerContract\n    {\n        PlanterData storage planterData = planters[_planter];\n\n        planterData.plantedCount -= 1;\n\n        if (planterData.status == 2) {\n            planterData.status = 1;\n        }\n    }\n\n    /// @inheritdoc IPlanter\n    function manageTreePermission(address _planter)\n        external\n        override\n        existPlanter(_planter)\n        onlyTreejerContract\n        returns (bool)\n    {\n        PlanterData storage planterData = planters[_planter];\n\n        if (planterData.status == 1) {\n            planterData.plantedCount += 1;\n\n            if (planterData.plantedCount == planterData.supplyCap) {\n                planterData.status = 2;\n            }\n            return true;\n        }\n        return false;\n    }\n\n    /// @inheritdoc IPlanter\n    function getOrganizationMemberData(address _planter)\n        external\n        view\n        override\n        returns (\n            bool,\n            address,\n            address,\n            uint256\n        )\n    {\n        PlanterData storage planterData = planters[_planter];\n        if (planterData.status == 4 || planterData.planterType == 0) {\n            return (false, address(0), address(0), 0);\n        } else {\n            if (\n                planterData.planterType == 1 ||\n                planterData.planterType == 2 ||\n                planterData.status == 0\n            ) {\n                return (true, address(0), invitedBy[_planter], 10000);\n            } else {\n                return (\n                    true,\n                    memberOf[_planter],\n                    invitedBy[_planter],\n                    organizationMemberShare[memberOf[_planter]][_planter]\n                );\n            }\n        }\n    }\n\n    /// @inheritdoc IPlanter\n    function canAssignTree(address _planter)\n        external\n        view\n        override\n        returns (bool)\n    {\n        PlanterData storage planterData = planters[_planter];\n\n        return planterData.status == 1 || planterData.planterType == 2;\n    }\n}\n",
  "sourcePath": "/home/amir/Projects/treejer/contract/contracts/planter/Planter.sol",
  "compiler": {
    "name": "solc",
    "version": "0.8.6+commit.11564f7e.Emscripten.clang"
  },
  "schemaVersion": "3.4.3",
  "updatedAt": "2022-01-15T02:19:56.441Z",
  "networkType": "ethereum",
  "devdoc": {
    "kind": "dev",
    "methods": {
      "acceptPlanterByOrganization(address,bool)": {
        "details": "organization can accept planter to be it's member or reject NOTE emit a {AcceptedByOrganization} or {RejectedByOrganization} event",
        "params": {
          "_acceptance": "accept or reject",
          "_planter": "address of planter"
        }
      },
      "canAssignTree(address)": {
        "details": "check allowance to assign tree to planter",
        "params": {
          "_planter": "address of assignee planter"
        },
        "returns": {
          "_0": "true in case of active planter or orgnization planter and false otherwise"
        }
      },
      "getOrganizationMemberData(address)": {
        "details": "return organization member data",
        "params": {
          "_planter": "address of organization member planter to get data"
        },
        "returns": {
          "_0": "true in case of valid planter",
          "_1": "address of organization that {_planter} is member of it.",
          "_2": "address of referrer",
          "_3": "share of {_plnater}"
        }
      },
      "initialize(address)": {
        "details": "initialize AccessRestriction contract and set true for isPlanter",
        "params": {
          "_accessRestrictionAddress": "set to the address of AccessRestriction contract"
        }
      },
      "join(uint8,int64,int64,uint16,address,address)": {
        "details": "based on {_planterType} a planter can join as individual planter or member of an organization NOTE member of organization planter status set to pendding and wait to be accepted by organization. NOTE emit a {PlanterJoined} event",
        "params": {
          "_countryCode": "country code",
          "_invitedBy": "address of referrer",
          "_latitude": "latitude value",
          "_longitude": "longitude value",
          "_organization": "address of organization to be member of",
          "_planterType": "type of planter: 1 for individual and 3 for member of organization"
        }
      },
      "joinByAdmin(address,uint8,int64,int64,uint16,address,address)": {
        "details": "admin add a individual planter or member of an organization planter based on {_planterType} NOTE member of organization planter status set to active and no need for accepting by organization NOTE emit a {PlanterJoined} event",
        "params": {
          "_countryCode": "country code",
          "_invitedBy": "address of referrer",
          "_latitude": "latitude value",
          "_longitude": "longitude value",
          "_organization": "address of organization to be member of",
          "_planter": "address of planter",
          "_planterType": "type of planter: 1 for individual and 3 for member of organization"
        }
      },
      "joinOrganization(address,int64,int64,uint16,uint32,address)": {
        "details": "admin add a planter as organization (planterType 2) so planterType 3 can be member of these planters. NOTE emit a {OrganizationJoined} event",
        "params": {
          "_countryCode": "country code",
          "_invitedBy": "address of referrer",
          "_latitude": "latitude value",
          "_longitude": "longitude value",
          "_organization": "address of organization planter",
          "_supplyCap": "planting supplyCap of organization planter"
        }
      },
      "manageAssignedTreePermission(address,address)": {
        "details": "return if a planter can plant a tree and increase planter plantedCount 1 time.",
        "params": {
          "_assignedPlanterAddress": "address of planter that tree assigned to",
          "_planter": "address of planter who want to plant tree"
        },
        "returns": {
          "_0": "if a planter can plant a tree or not"
        }
      },
      "manageTreePermission(address)": {
        "details": "check that planter {_planter} can plant regular tree NOTE if plantedCount reach to supplyCap status of planter set to full (value of full is '2')",
        "params": {
          "_planter": "address of planter"
        },
        "returns": {
          "_0": "true in case of planter status is active (value of active is '1')"
        }
      },
      "reducePlantedCount(address)": {
        "details": "when planting of {_planter} rejected, plantedCount of {_planter} must reduce by 1 and if planter status is full, set it to active.",
        "params": {
          "_planter": "address of planter"
        }
      },
      "setTrustedForwarder(address)": {
        "details": "set {_address} to trusted forwarder "
      },
      "updateOrganizationMemberShare(address,uint256)": {
        "details": "oragnization can update the share of its members NOTE emit a {OrganizationMemberShareUpdated} event",
        "params": {
          "_organizationMemberShareAmount": "member share value",
          "_planter": "address of planter"
        }
      },
      "updatePlanterType(uint8,address)": {
        "details": "planter with planterType 1 , 3 can update their planterType NOTE planterType 3 (member of organization) can change to planterType 1 (individual planter) with input value {_planterType} of 1 and zeroAddress as {_organization} or choose other organization to be member of with input value {_planterType} of 3 and {_organization}. NOTE planterType 1 can only change to planterType 3 with input value {_planter} of 3 and {_organization} if planter planterType 3 choose another oraganization or planter with planterType 1 change it's planterType to 3,they must be accepted by the organization to be an active planter NOTE emit a {PlanterUpdated} event",
        "params": {
          "_organization": "address of organization",
          "_planterType": "type of planter"
        }
      },
      "updateSupplyCap(address,uint32)": {
        "details": "admin update supplyCap of planter NOTE emit a {PlanterUpdated} event",
        "params": {
          "_planter": "address of planter to update supplyCap",
          "_supplyCap": "supplyCap that set to planter supplyCap"
        }
      },
      "versionRecipient()": {
        "details": "return version recipient "
      }
    },
    "title": "Planter contract ",
    "version": 1
  },
  "userdoc": {
    "kind": "user",
    "methods": {
      "invitedBy(address)": {
        "notice": "NOTE mapping of planter address to address of invitedBy "
      },
      "isPlanter()": {
        "notice": "NOTE {isPlanter} set inside the initialize to {true} "
      },
      "isTrustedForwarder(address)": {
        "notice": "return if the forwarder is trusted to forward relayed transactions to us. the forwarder is required to verify the sender's signature, and verify the call is not a replay."
      },
      "memberOf(address)": {
        "notice": "NOTE mapping of planter address to organization address that planter is member of it "
      },
      "organizationMemberShare(address,address)": {
        "notice": "NOTE mapping of organization address to mapping of planter address to portionValue "
      },
      "planters(address)": {
        "notice": "NOTE mapping of planter address to PlanterData "
      }
    },
    "version": 1
  }
}