{
  "contractName": "PublicForest",
  "abi": [
    {
      "anonymous": false,
      "inputs": [
        {
          "indexed": false,
          "internalType": "address",
          "name": "from",
          "type": "address"
        },
        {
          "indexed": false,
          "internalType": "uint256",
          "name": "value",
          "type": "uint256"
        }
      ],
      "name": "ContributionReceived",
      "type": "event"
    },
    {
      "anonymous": false,
      "inputs": [
        {
          "indexed": false,
          "internalType": "uint256",
          "name": "count",
          "type": "uint256"
        }
      ],
      "name": "TreesAddedToForest",
      "type": "event"
    },
    {
      "inputs": [
        {
          "internalType": "address",
          "name": "",
          "type": "address"
        },
        {
          "internalType": "address",
          "name": "",
          "type": "address"
        },
        {
          "internalType": "uint256",
          "name": "",
          "type": "uint256"
        },
        {
          "internalType": "bytes",
          "name": "",
          "type": "bytes"
        }
      ],
      "name": "onERC721Received",
      "outputs": [
        {
          "internalType": "bytes4",
          "name": "",
          "type": "bytes4"
        }
      ],
      "stateMutability": "nonpayable",
      "type": "function"
    },
    {
      "inputs": [],
      "name": "treeFactory",
      "outputs": [
        {
          "internalType": "contract ITreeFactory",
          "name": "",
          "type": "address"
        }
      ],
      "stateMutability": "view",
      "type": "function"
    },
    {
      "stateMutability": "payable",
      "type": "receive"
    },
    {
      "inputs": [
        {
          "internalType": "address",
          "name": "_treeFactoryAddress",
          "type": "address"
        }
      ],
      "name": "initialize",
      "outputs": [],
      "stateMutability": "nonpayable",
      "type": "function"
    },
    {
      "inputs": [],
      "name": "donate",
      "outputs": [],
      "stateMutability": "payable",
      "type": "function"
    },
    {
      "inputs": [],
      "name": "fundTree",
      "outputs": [],
      "stateMutability": "nonpayable",
      "type": "function"
    }
  ],
  "bytecode": "0x608060405234801561001057600080fd5b50610761806100206000396000f3fe60806040526004361061004e5760003560e01c8063150b7a0214610094578063421ef6d4146101845780639e0e83e8146101b5578063c4d66de8146101cc578063ed88c68e146101ff5761008f565b3661008f576040805133815234602082015281517f1bb460ccaaf70fbacfec17a376f8acbd278c1405590ffcc8ebe4b88daf4f64ad929181900390910190a1005b600080fd5b3480156100a057600080fd5b50610167600480360360808110156100b757600080fd5b6001600160a01b038235811692602081013590911691604082013591908101906080810160608201356401000000008111156100f257600080fd5b82018360208201111561010457600080fd5b8035906020019184600183028401116401000000008311171561012657600080fd5b91908080601f016020809104026020016040519081016040528093929190818152602001838380828437600092019190915250929550610207945050505050565b604080516001600160e01b03199092168252519081900360200190f35b34801561019057600080fd5b50610199610217565b604080516001600160a01b039092168252519081900360200190f35b3480156101c157600080fd5b506101ca610226565b005b3480156101d857600080fd5b506101ca600480360360208110156101ef57600080fd5b50356001600160a01b031661036b565b6101ca6104a0565b630a85bd0160e11b949350505050565b6097546001600160a01b031681565b6097546040805163501ad8ff60e11b8152905147926000926001600160a01b039091169163a035b1fe91600480820192602092909190829003018186803b15801561027057600080fd5b505afa158015610284573d6000803e3d6000fd5b505050506040513d602081101561029a57600080fd5b505190508082106103675760006102b7838363ffffffff61056e16565b90508015610365576097546001600160a01b031663ca1d209d6102e0838563ffffffff6105b916565b836040518363ffffffff1660e01b8152600401808281526020019150506000604051808303818588803b15801561031657600080fd5b505af115801561032a573d6000803e3d6000fd5b50506040805185815290517ff79c8802323c14e1c363227982616b5fcb3f5550566f13afeff9bd00bb0f9bd294509081900360200192509050a15b505b5050565b600054610100900460ff16806103845750610384610612565b80610392575060005460ff16155b6103cd5760405162461bcd60e51b815260040180806020018281038252602e8152602001806106fe602e913960400191505060405180910390fd5b600054610100900460ff161580156103f8576000805460ff1961ff0019909116610100171660011790555b6000829050806001600160a01b031663e0eb4eb96040518163ffffffff1660e01b815260040160206040518083038186803b15801561043657600080fd5b505afa15801561044a573d6000803e3d6000fd5b505050506040513d602081101561046057600080fd5b505161046b57600080fd5b609780546001600160a01b0319166001600160a01b03929092169190911790558015610367576000805461ff00191690555050565b600034116104df5760405162461bcd60e51b81526004018080602001828103825260228152602001806106bb6022913960400191505060405180910390fd5b6040805133815234602082015281517f1bb460ccaaf70fbacfec17a376f8acbd278c1405590ffcc8ebe4b88daf4f64ad929181900390910190a1306001600160a01b0316639e0e83e86040518163ffffffff1660e01b8152600401600060405180830381600087803b15801561055457600080fd5b505af1158015610568573d6000803e3d6000fd5b50505050565b60006105b083836040518060400160405280601a81526020017f536166654d6174683a206469766973696f6e206279207a65726f000000000000815250610618565b90505b92915050565b6000826105c8575060006105b3565b828202828482816105d557fe5b04146105b05760405162461bcd60e51b81526004018080602001828103825260218152602001806106dd6021913960400191505060405180910390fd5b303b1590565b600081836106a45760405162461bcd60e51b81526004018080602001828103825283818151815260200191508051906020019080838360005b83811015610669578181015183820152602001610651565b50505050905090810190601f1680156106965780820380516001836020036101000a031916815260200191505b509250505060405180910390fd5b5060008385816106b057fe5b049594505050505056fe436f6e747269627574696f6e206d75737420626967676572207468616e207a65726f536166654d6174683a206d756c7469706c69636174696f6e206f766572666c6f77436f6e747261637420696e7374616e63652068617320616c7265616479206265656e20696e697469616c697a6564a264697066735822122008c8db1fdc719c1f08aacf1dc5b480e9aa83fa2d73554fe249f5a58e2bb530ba64736f6c63430006090033",
  "immutableReferences": {},
  "source": "// SPDX-License-Identifier: GPL-3.0\n\npragma solidity >=0.4.21 <0.7.0;\n\nimport \"../../node_modules/@openzeppelin/contracts-ethereum-package/contracts/math/SafeMath.sol\";\nimport \"../../node_modules/@openzeppelin/contracts-ethereum-package/contracts/Initializable.sol\";\nimport \"../../node_modules/@openzeppelin/contracts-ethereum-package/contracts/GSN/Context.sol\";\nimport \"../../node_modules/@openzeppelin/contracts-ethereum-package/contracts/token/ERC721/ERC721Holder.sol\";\n\nimport \"../tree/ITreeFactory.sol\";\n\ncontract PublicForest is\n    Initializable,\n    ContextUpgradeSafe,\n    ERC721HolderUpgradeSafe\n{\n    using SafeMath for uint256;\n\n    event ContributionReceived(address from, uint256 value);\n    event TreesAddedToForest(uint256 count);\n\n    // exteranl contracts\n    ITreeFactory public treeFactory;\n\n    function initialize(address _treeFactoryAddress) public initializer {\n        ITreeFactory candidateContract = ITreeFactory(_treeFactoryAddress);\n        require(candidateContract.isTreeFactory());\n        treeFactory = candidateContract;\n    }\n\n    receive() external payable {\n        emit ContributionReceived(msg.sender, msg.value);\n    }\n\n    function donate() external payable {\n        //do something\n        require(msg.value > 0, \"Contribution must bigger than zero\");\n\n        emit ContributionReceived(msg.sender, msg.value);\n\n        this.fundTree();\n    }\n\n    function fundTree() external {\n        // get balance of contract\n        uint256 balance = address(this).balance;\n\n        uint256 treePrice = treeFactory.price();\n\n        // if it reach the treePrice fund a tree\n        if (balance >= treePrice) {\n            uint256 count = balance.div(treePrice);\n\n            if (count > 0) {\n                treeFactory.fund{value: count.mul(treePrice)}(count);\n                // treeFactory.fund{value: 42, gas: 23}(count);\n\n                emit TreesAddedToForest(count);\n            }\n        }\n    }\n}\n",
  "sourcePath": "/home/amir/Projects/treejer/contract/contracts/forest/PublicForest.sol",
  "compiler": {
    "name": "solc",
    "version": "0.6.9+commit.3e3065ac.Emscripten.clang"
  },
  "schemaVersion": "3.2.3",
  "updatedAt": "2020-12-26T10:45:25.439Z",
  "devdoc": {
    "methods": {}
  },
  "userdoc": {
    "methods": {}
  }
}