{
  "contractName": "PublicForest",
  "abi": [
    {
      "anonymous": false,
      "inputs": [
        {
          "indexed": false,
          "internalType": "address",
          "name": "from",
          "type": "address"
        },
        {
          "indexed": false,
          "internalType": "uint256",
          "name": "value",
          "type": "uint256"
        }
      ],
      "name": "ContributionReceived",
      "type": "event"
    },
    {
      "anonymous": false,
      "inputs": [
        {
          "indexed": false,
          "internalType": "uint256",
          "name": "count",
          "type": "uint256"
        }
      ],
      "name": "TreesAddedToForest",
      "type": "event"
    },
    {
      "inputs": [],
      "name": "daiToken",
      "outputs": [
        {
          "internalType": "contract IERC20",
          "name": "",
          "type": "address"
        }
      ],
      "stateMutability": "view",
      "type": "function"
    },
    {
      "inputs": [
        {
          "internalType": "address",
          "name": "",
          "type": "address"
        },
        {
          "internalType": "address",
          "name": "",
          "type": "address"
        },
        {
          "internalType": "uint256",
          "name": "",
          "type": "uint256"
        },
        {
          "internalType": "bytes",
          "name": "",
          "type": "bytes"
        }
      ],
      "name": "onERC721Received",
      "outputs": [
        {
          "internalType": "bytes4",
          "name": "",
          "type": "bytes4"
        }
      ],
      "stateMutability": "nonpayable",
      "type": "function"
    },
    {
      "inputs": [],
      "name": "treeFactory",
      "outputs": [
        {
          "internalType": "contract ITreeFactory",
          "name": "",
          "type": "address"
        }
      ],
      "stateMutability": "view",
      "type": "function"
    },
    {
      "stateMutability": "payable",
      "type": "receive"
    },
    {
      "inputs": [
        {
          "internalType": "address",
          "name": "_treeFactoryAddress",
          "type": "address"
        },
        {
          "internalType": "address",
          "name": "_daiTokenAddress",
          "type": "address"
        }
      ],
      "name": "initialize",
      "outputs": [],
      "stateMutability": "nonpayable",
      "type": "function"
    },
    {
      "inputs": [
        {
          "internalType": "uint256",
          "name": "_amount",
          "type": "uint256"
        }
      ],
      "name": "donate",
      "outputs": [],
      "stateMutability": "payable",
      "type": "function"
    },
    {
      "inputs": [],
      "name": "fundTree",
      "outputs": [],
      "stateMutability": "nonpayable",
      "type": "function"
    }
  ],
  "bytecode": "0x608060405234801561001057600080fd5b5061097c806100206000396000f3fe6080604052600436106100595760003560e01c8063150b7a021461009f578063421ef6d41461018f578063485cc955146101c05780639e0e83e8146101fd578063be22f54614610212578063f14faf6f146102275761009a565b3661009a576040805133815234602082015281517f1bb460ccaaf70fbacfec17a376f8acbd278c1405590ffcc8ebe4b88daf4f64ad929181900390910190a1005b600080fd5b3480156100ab57600080fd5b50610172600480360360808110156100c257600080fd5b6001600160a01b038235811692602081013590911691604082013591908101906080810160608201356401000000008111156100fd57600080fd5b82018360208201111561010f57600080fd5b8035906020019184600183028401116401000000008311171561013157600080fd5b91908080601f016020809104026020016040519081016040528093929190818152602001838380828437600092019190915250929550610244945050505050565b604080516001600160e01b03199092168252519081900360200190f35b34801561019b57600080fd5b506101a4610254565b604080516001600160a01b039092168252519081900360200190f35b3480156101cc57600080fd5b506101fb600480360360408110156101e357600080fd5b506001600160a01b0381358116916020013516610263565b005b34801561020957600080fd5b506101fb610422565b34801561021e57600080fd5b506101a46105d2565b6101fb6004803603602081101561023d57600080fd5b50356105e1565b630a85bd0160e11b949350505050565b6033546001600160a01b031681565b600054610100900460ff168061027c575061027c610805565b8061028a575060005460ff16155b6102c55760405162461bcd60e51b815260040180806020018281038252602e815260200180610919602e913960400191505060405180910390fd5b600054610100900460ff161580156102f0576000805460ff1961ff0019909116610100171660011790555b6000839050806001600160a01b031663e0eb4eb96040518163ffffffff1660e01b815260040160206040518083038186803b15801561032e57600080fd5b505afa158015610342573d6000803e3d6000fd5b505050506040513d602081101561035857600080fd5b505161036357600080fd5b603380546001600160a01b038084166001600160a01b0319928316179283905560348054878316931692909217918290556040805163095ea7b360e01b8152938216600485015260001960248501525191169163095ea7b39160448083019260209291908290030181600087803b1580156103dd57600080fd5b505af11580156103f1573d6000803e3d6000fd5b505050506040513d602081101561040757600080fd5b50508115905061041d576000805461ff00191690555b505050565b603454604080516370a0823160e01b815230600482015290516000926001600160a01b0316916370a08231916024808301926020929190829003018186803b15801561046d57600080fd5b505afa158015610481573d6000803e3d6000fd5b505050506040513d602081101561049757600080fd5b50516033546040805163501ad8ff60e11b815290519293506000926001600160a01b039092169163a035b1fe91600480820192602092909190829003018186803b1580156104e457600080fd5b505afa1580156104f8573d6000803e3d6000fd5b505050506040513d602081101561050e57600080fd5b505190508082106105ce57600061052b838363ffffffff61080b16565b9050801561041d576033546040805163ca1d209d60e01b81526004810184905290516001600160a01b039092169163ca1d209d9160248082019260009290919082900301818387803b15801561058057600080fd5b505af1158015610594573d6000803e3d6000fd5b50506040805184815290517ff79c8802323c14e1c363227982616b5fcb3f5550566f13afeff9bd00bb0f9bd29350908190036020019150a1505b5050565b6034546001600160a01b031681565b600081116106205760405162461bcd60e51b81526004018080602001828103825260228152602001806108f76022913960400191505060405180910390fd5b603454604080516370a0823160e01b8152336004820152905183926001600160a01b0316916370a08231916024808301926020929190829003018186803b15801561066a57600080fd5b505afa15801561067e573d6000803e3d6000fd5b505050506040513d602081101561069457600080fd5b505110156106e9576040805162461bcd60e51b815260206004820152601960248201527f42616c616e6365206973206e6f742073756666696369656e7400000000000000604482015290519081900360640190fd5b603454604080516323b872dd60e01b81523360048201523060248201526044810184905290516000926001600160a01b0316916323b872dd91606480830192602092919082900301818787803b15801561074257600080fd5b505af1158015610756573d6000803e3d6000fd5b505050506040513d602081101561076c57600080fd5b50519050806107c2576040805162461bcd60e51b815260206004820152601b60248201527f5472616e736665722046726f6d2073656e646572206661696c65640000000000604482015290519081900360640190fd5b604080513381526020810184905281517f1bb460ccaaf70fbacfec17a376f8acbd278c1405590ffcc8ebe4b88daf4f64ad929181900390910190a16105ce610422565b303b1590565b600061084d83836040518060400160405280601a81526020017f536166654d6174683a206469766973696f6e206279207a65726f000000000000815250610854565b9392505050565b600081836108e05760405162461bcd60e51b81526004018080602001828103825283818151815260200191508051906020019080838360005b838110156108a557818101518382015260200161088d565b50505050905090810190601f1680156108d25780820380516001836020036101000a031916815260200191505b509250505060405180910390fd5b5060008385816108ec57fe5b049594505050505056fe436f6e747269627574696f6e206d75737420626967676572207468616e207a65726f496e697469616c697a61626c653a20636f6e747261637420697320616c726561647920696e697469616c697a6564a264697066735822122038bf9882067fc6db24bf5808c05577546aae042af187531ba26fbb2a803692a964736f6c634300060a0033",
  "immutableReferences": {},
  "source": "// SPDX-License-Identifier: GPL-3.0\n\npragma solidity >=0.4.21 <0.7.0;\n\nimport \"@openzeppelin/contracts-upgradeable/math/SafeMathUpgradeable.sol\";\nimport \"@openzeppelin/contracts-upgradeable/proxy/Initializable.sol\";\nimport \"@openzeppelin/contracts-upgradeable/token/ERC721/ERC721HolderUpgradeable.sol\";\nimport \"@openzeppelin/contracts/token/ERC20/IERC20.sol\";\n\nimport \"../tree/ITreeFactory.sol\";\n\ncontract PublicForest is Initializable, ERC721HolderUpgradeable {\n    using SafeMathUpgradeable for uint256;\n\n    event ContributionReceived(address from, uint256 value);\n    event TreesAddedToForest(uint256 count);\n\n    uint256 constant MAX_UINT = 2**256 - 1;\n\n    // exteranl contracts\n    ITreeFactory public treeFactory;\n    IERC20 public daiToken;\n\n    function initialize(address _treeFactoryAddress, address _daiTokenAddress)\n        public\n        initializer\n    {\n        ITreeFactory candidateContract = ITreeFactory(_treeFactoryAddress);\n        require(candidateContract.isTreeFactory());\n        treeFactory = candidateContract;\n\n        daiToken = IERC20(_daiTokenAddress);\n        daiToken.approve(address(treeFactory), MAX_UINT);\n    }\n\n    receive() external payable {\n        emit ContributionReceived(msg.sender, msg.value);\n    }\n\n    function donate(uint256 _amount) external payable {\n        require(_amount > 0, \"Contribution must bigger than zero\");\n\n        //do something\n        require(\n            daiToken.balanceOf(msg.sender) >= _amount,\n            \"Balance is not sufficient\"\n        );\n\n        bool success =\n            daiToken.transferFrom(msg.sender, address(this), _amount);\n        require(success, \"Transfer From sender failed\");\n\n        emit ContributionReceived(msg.sender, _amount);\n\n        fundTree();\n    }\n\n    function fundTree() public {\n        // get balance of contract\n        uint256 balance = daiToken.balanceOf(address(this));\n\n        uint256 treePrice = treeFactory.price();\n\n        // if it reach the treePrice fund a tree\n        if (balance >= treePrice) {\n            uint256 count = balance.div(treePrice);\n\n            if (count > 0) {\n                treeFactory.fund(count);\n                // treeFactory.fund{value: count.mul(treePrice)}(count);\n                // treeFactory.fund{value: 42, gas: 23}(count);\n                emit TreesAddedToForest(count);\n            }\n        }\n    }\n}\n",
  "sourcePath": "/home/amir/Projects/treejer/contract/contracts/forest/PublicForest.sol",
  "compiler": {
    "name": "solc",
    "version": "0.6.10+commit.00c0fcaf.Emscripten.clang"
  },
  "schemaVersion": "3.3.3",
  "updatedAt": "2021-01-30T12:05:12.568Z",
  "devdoc": {
    "methods": {
      "onERC721Received(address,address,uint256,bytes)": {
        "details": "See {IERC721Receiver-onERC721Received}. Always returns `IERC721Receiver.onERC721Received.selector`."
      }
    }
  },
  "userdoc": {
    "methods": {}
  }
}