{
  "contractName": "RelayRecipient",
  "abi": [
    {
      "inputs": [
        {
          "internalType": "address",
          "name": "forwarder",
          "type": "address"
        }
      ],
      "name": "isTrustedForwarder",
      "outputs": [
        {
          "internalType": "bool",
          "name": "",
          "type": "bool"
        }
      ],
      "stateMutability": "view",
      "type": "function"
    },
    {
      "inputs": [],
      "name": "trustedForwarder",
      "outputs": [
        {
          "internalType": "address",
          "name": "",
          "type": "address"
        }
      ],
      "stateMutability": "view",
      "type": "function"
    },
    {
      "inputs": [],
      "name": "versionRecipient",
      "outputs": [
        {
          "internalType": "string",
          "name": "",
          "type": "string"
        }
      ],
      "stateMutability": "view",
      "type": "function"
    }
  ],
  "bytecode": "0x608060405234801561001057600080fd5b50610199806100206000396000f3fe608060405234801561001057600080fd5b50600436106100415760003560e01c8063486ff0cd14610046578063572b6c05146100c35780637da0a877146100fd575b600080fd5b61004e610121565b6040805160208082528351818301528351919283929083019185019080838360005b83811015610088578181015183820152602001610070565b50505050905090810190601f1680156100b55780820380516001836020036101000a031916815260200191505b509250505060405180910390f35b6100e9600480360360208110156100d957600080fd5b50356001600160a01b0316610140565b604080519115158252519081900360200190f35b610105610154565b604080516001600160a01b039092168252519081900360200190f35b6040805180820190915260058152640322e302e360dc1b602082015290565b6000546001600160a01b0390811691161490565b6000546001600160a01b03168156fea2646970667358221220b638c9186e35827c875812608987ee604ba1c44d6fe2dec019f3d46c9f841e5564736f6c634300060a0033",
  "immutableReferences": {},
  "source": "// SPDX-License-Identifier: GPL-3.0\n\npragma solidity >=0.6.0 <0.7.0;\n\nimport \"@opengsn/gsn/contracts/BaseRelayRecipient.sol\";\n\ncontract RelayRecipient is BaseRelayRecipient {\n    function versionRecipient() external view override returns (string memory) {\n        return \"2.0.0\";\n    }\n}\n",
  "sourcePath": "/home/amir/Projects/treejer/contract/contracts/gsn/RelayRecipient.sol",
  "compiler": {
    "name": "solc",
    "version": "0.6.10+commit.00c0fcaf.Emscripten.clang"
  },
  "schemaVersion": "3.3.3",
  "updatedAt": "2021-01-30T12:05:12.576Z",
  "devdoc": {
    "methods": {}
  },
  "userdoc": {
    "methods": {}
  }
}