{
  "contractName": "SeedFactory",
  "abi": [
    {
      "anonymous": false,
      "inputs": [
        {
          "indexed": false,
          "internalType": "uint256",
          "name": "seedGeneratedPerSecond",
          "type": "uint256"
        }
      ],
      "name": "SeedGeneratedPerSecondChanged",
      "type": "event"
    },
    {
      "anonymous": false,
      "inputs": [
        {
          "indexed": false,
          "internalType": "address",
          "name": "owner",
          "type": "address"
        },
        {
          "indexed": false,
          "internalType": "uint256",
          "name": "totalSeed",
          "type": "uint256"
        }
      ],
      "name": "SeedMinted",
      "type": "event"
    },
    {
      "inputs": [],
      "name": "accessRestriction",
      "outputs": [
        {
          "internalType": "contract IAccessRestriction",
          "name": "",
          "type": "address"
        }
      ],
      "stateMutability": "view",
      "type": "function",
      "constant": true
    },
    {
      "inputs": [],
      "name": "seedGeneratedPerSecond",
      "outputs": [
        {
          "internalType": "uint256",
          "name": "",
          "type": "uint256"
        }
      ],
      "stateMutability": "view",
      "type": "function",
      "constant": true
    },
    {
      "inputs": [],
      "name": "seedToken",
      "outputs": [
        {
          "internalType": "contract ISeed",
          "name": "",
          "type": "address"
        }
      ],
      "stateMutability": "view",
      "type": "function",
      "constant": true
    },
    {
      "inputs": [],
      "name": "treeFactory",
      "outputs": [
        {
          "internalType": "contract ITreeFactory",
          "name": "",
          "type": "address"
        }
      ],
      "stateMutability": "view",
      "type": "function",
      "constant": true
    },
    {
      "inputs": [],
      "name": "treeToken",
      "outputs": [
        {
          "internalType": "contract ITree",
          "name": "",
          "type": "address"
        }
      ],
      "stateMutability": "view",
      "type": "function",
      "constant": true
    },
    {
      "inputs": [
        {
          "internalType": "uint256",
          "name": "",
          "type": "uint256"
        }
      ],
      "name": "treesLastMintedDate",
      "outputs": [
        {
          "internalType": "uint256",
          "name": "",
          "type": "uint256"
        }
      ],
      "stateMutability": "view",
      "type": "function",
      "constant": true
    },
    {
      "inputs": [
        {
          "internalType": "address",
          "name": "_accessRestrictionAddress",
          "type": "address"
        }
      ],
      "name": "initialize",
      "outputs": [],
      "stateMutability": "nonpayable",
      "type": "function"
    },
    {
      "inputs": [
        {
          "internalType": "address",
          "name": "_address",
          "type": "address"
        }
      ],
      "name": "setSeedTokenAddress",
      "outputs": [],
      "stateMutability": "nonpayable",
      "type": "function"
    },
    {
      "inputs": [
        {
          "internalType": "address",
          "name": "_address",
          "type": "address"
        }
      ],
      "name": "setTreeTokenAddress",
      "outputs": [],
      "stateMutability": "nonpayable",
      "type": "function"
    },
    {
      "inputs": [
        {
          "internalType": "address",
          "name": "_address",
          "type": "address"
        }
      ],
      "name": "setTreeFactoryAddress",
      "outputs": [],
      "stateMutability": "nonpayable",
      "type": "function"
    },
    {
      "inputs": [
        {
          "internalType": "uint256",
          "name": "_seedGeneratedPerSecond",
          "type": "uint256"
        }
      ],
      "name": "setSeedGeneratedPerSecond",
      "outputs": [],
      "stateMutability": "nonpayable",
      "type": "function"
    },
    {
      "inputs": [
        {
          "internalType": "address",
          "name": "_owner",
          "type": "address"
        }
      ],
      "name": "calculateMintableSeed",
      "outputs": [
        {
          "internalType": "uint256",
          "name": "",
          "type": "uint256"
        }
      ],
      "stateMutability": "view",
      "type": "function",
      "constant": true
    },
    {
      "inputs": [
        {
          "internalType": "uint256",
          "name": "_treeId",
          "type": "uint256"
        }
      ],
      "name": "calculateTreeGeneratedSeed",
      "outputs": [
        {
          "internalType": "uint256",
          "name": "",
          "type": "uint256"
        }
      ],
      "stateMutability": "view",
      "type": "function",
      "constant": true
    },
    {
      "inputs": [],
      "name": "mint",
      "outputs": [],
      "stateMutability": "nonpayable",
      "type": "function"
    }
  ],
  "bytecode": "0x608060405234801561001057600080fd5b5061121b806100206000396000f3fe608060405234801561001057600080fd5b50600436106100ea5760003560e01c806372a5fcf41161008c578063d32ab1ca11610066578063d32ab1ca146101a6578063d6762c4a146101b9578063da0d52d9146101c1578063de96d033146101d4576100ea565b806372a5fcf41461016d578063aca836f414610180578063c4d66de814610193576100ea565b8063311f8483116100c8578063311f84831461012a57806338f1f40f14610132578063421ef6d4146101455780635716b8531461014d576100ea565b80630bf351f8146100ef5780631249c58b1461010457806312cc3ab01461010c575b600080fd5b6101026100fd366004610ed9565b6101dc565b005b6101026102de565b610114610633565b6040516101219190610ff1565b60405180910390f35b610114610642565b610102610140366004610ed9565b610651565b610114610753565b61016061015b366004610ed9565b610762565b60405161012191906111ac565b61016061017b366004610fc1565b6109b7565b61010261018e366004610fc1565b6109c9565b6101026101a1366004610ed9565b610a69565b6101606101b4366004610fc1565b610b8c565b610114610c59565b6101026101cf366004610ed9565b610c68565b610160610d6a565b603654604051632104fb0560e21b81526001600160a01b0390911690638413ec149061020c903390600401610ff1565b60006040518083038186803b15801561022457600080fd5b505afa158015610238573d6000803e3d6000fd5b505050506000819050806001600160a01b031663e0eb4eb96040518163ffffffff1660e01b815260040160206040518083038186803b15801561027a57600080fd5b505afa15801561028e573d6000803e3d6000fd5b505050506040513d601f19601f820116820180604052508101906102b29190610f00565b6102bb57600080fd5b603580546001600160a01b0319166001600160a01b039290921691909117905550565b6034546040516370a0823160e01b81526000916001600160a01b0316906370a082319061030f903390600401610ff1565b60206040518083038186803b15801561032757600080fd5b505afa15801561033b573d6000803e3d6000fd5b505050506040513d601f19601f8201168201806040525081019061035f9190610fd9565b90506000811161038a5760405162461bcd60e51b815260040161038190611088565b60405180910390fd5b6000805b8281101561053857603454604051632f745c5960e01b81526000916001600160a01b031690632f745c59906103c99033908690600401611005565b60206040518083038186803b1580156103e157600080fd5b505afa1580156103f5573d6000803e3d6000fd5b505050506040513d601f19601f820116820180604052508101906104199190610fd9565b603554604051633d28401160e11b81529192506000916001600160a01b0390911690637a5080229061044f9085906004016111ac565b60006040518083038186803b15801561046757600080fd5b505afa15801561047b573d6000803e3d6000fd5b505050506040513d6000823e601f3d908101601f191682016040526104a39190810190610f20565b505094505050505080600014156104bb575050610530565b6000828152603860205260409020541561050757600082815260386020526040902054610500906104f390429063ffffffff610d7016565b859063ffffffff610dbb16565b935061051d565b61051a6104f3428363ffffffff610d7016565b93505b5060009081526038602052604090204290555b60010161038e565b50600081116105595760405162461bcd60e51b81526004016103819061114e565b60375460009061056f908363ffffffff610de016565b9050600081116105915760405162461bcd60e51b81526004016103819061117e565b6033546040516340c10f1960e01b81526001600160a01b03909116906340c10f19906105c39033908590600401611005565b600060405180830381600087803b1580156105dd57600080fd5b505af11580156105f1573d6000803e3d6000fd5b505050507f5b4dbe98f08230118ef4a43ac61456c89e4dab170bcb03065a106384c20352e83382604051610626929190611005565b60405180910390a1505050565b6034546001600160a01b031681565b6033546001600160a01b031681565b603654604051632104fb0560e21b81526001600160a01b0390911690638413ec1490610681903390600401610ff1565b60006040518083038186803b15801561069957600080fd5b505afa1580156106ad573d6000803e3d6000fd5b505050506000819050806001600160a01b03166337b9fd776040518163ffffffff1660e01b815260040160206040518083038186803b1580156106ef57600080fd5b505afa158015610703573d6000803e3d6000fd5b505050506040513d601f19601f820116820180604052508101906107279190610f00565b61073057600080fd5b603480546001600160a01b0319166001600160a01b039290921691909117905550565b6035546001600160a01b031681565b6034546040516370a0823160e01b815260009182916001600160a01b03909116906370a0823190610797908690600401610ff1565b60206040518083038186803b1580156107af57600080fd5b505afa1580156107c3573d6000803e3d6000fd5b505050506040513d601f19601f820116820180604052508101906107e79190610fd9565b9050806107f85760009150506109b2565b6000805b8281101561098957603454604051632f745c5960e01b81526000916001600160a01b031690632f745c59906108379089908690600401611005565b60206040518083038186803b15801561084f57600080fd5b505afa158015610863573d6000803e3d6000fd5b505050506040513d601f19601f820116820180604052508101906108879190610fd9565b603554604051633d28401160e11b81529192506000916001600160a01b0390911690637a508022906108bd9085906004016111ac565b60006040518083038186803b1580156108d557600080fd5b505afa1580156108e9573d6000803e3d6000fd5b505050506040513d6000823e601f3d908101601f191682016040526109119190810190610f20565b50509450505050508060001415610929575050610981565b6000828152603860205260409020541561096857600082815260386020526040902054610961906104f390429063ffffffff610d7016565b935061097e565b61097b6104f3428363ffffffff610d7016565b93505b50505b6001016107fc565b508061099a576000925050506109b2565b6037546109ad908263ffffffff610de016565b925050505b919050565b60386020526000908152604090205481565b603654604051632104fb0560e21b81526001600160a01b0390911690638413ec14906109f9903390600401610ff1565b60006040518083038186803b158015610a1157600080fd5b505afa158015610a25573d6000803e3d6000fd5b5050506037829055506040517f05968e6a947a2e5ef43c310f361ba8d6bf8fe89a180dd33e277f3cf464ee37fe90610a5e9083906111ac565b60405180910390a150565b600054610100900460ff1680610a825750610a82610e1a565b80610a90575060005460ff16155b610aac5760405162461bcd60e51b815260040161038190611100565b600054610100900460ff16158015610ad7576000805460ff1961ff0019909116610100171660011790555b6000829050806001600160a01b031663ba84fd696040518163ffffffff1660e01b815260040160206040518083038186803b158015610b1557600080fd5b505afa158015610b29573d6000803e3d6000fd5b505050506040513d601f19601f82011682018060405250810190610b4d9190610f00565b610b5657600080fd5b603680546001600160a01b0319166001600160a01b03929092169190911790558015610b88576000805461ff00191690555b5050565b603554604051633d28401160e11b815260009182916001600160a01b0390911690637a50802290610bc19086906004016111ac565b60006040518083038186803b158015610bd957600080fd5b505afa158015610bed573d6000803e3d6000fd5b505050506040513d6000823e601f3d908101601f19168201604052610c159190810190610f20565b50509450505050508060001415610c305760009150506109b2565b610c52610c43428363ffffffff610d7016565b6037549063ffffffff610de016565b9392505050565b6036546001600160a01b031681565b603654604051632104fb0560e21b81526001600160a01b0390911690638413ec1490610c98903390600401610ff1565b60006040518083038186803b158015610cb057600080fd5b505afa158015610cc4573d6000803e3d6000fd5b505050506000819050806001600160a01b03166305b0ec026040518163ffffffff1660e01b815260040160206040518083038186803b158015610d0657600080fd5b505afa158015610d1a573d6000803e3d6000fd5b505050506040513d601f19601f82011682018060405250810190610d3e9190610f00565b610d4757600080fd5b603380546001600160a01b0319166001600160a01b039290921691909117905550565b60375481565b6000610db283836040518060400160405280601e81526020017f536166654d6174683a207375627472616374696f6e206f766572666c6f770000815250610e20565b90505b92915050565b600082820183811015610db25760405162461bcd60e51b815260040161038190611051565b600082610def57506000610db5565b82820282848281610dfc57fe5b0414610db25760405162461bcd60e51b8152600401610381906110bf565b303b1590565b60008184841115610e445760405162461bcd60e51b8152600401610381919061101e565b505050900390565b600082601f830112610e5c578081fd5b815167ffffffffffffffff80821115610e73578283fd5b604051601f8301601f191681016020018281118282101715610e93578485fd5b604052828152925082848301602001861015610eae57600080fd5b610ebf8360208301602088016111b5565b50505092915050565b805160ff81168114610db557600080fd5b600060208284031215610eea578081fd5b81356001600160a01b0381168114610db2578182fd5b600060208284031215610f11578081fd5b81518015158114610db2578182fd5b600080600080600080600060e0888a031215610f3a578283fd5b875167ffffffffffffffff80821115610f51578485fd5b610f5d8b838c01610e4c565b985060208a0151915080821115610f72578485fd5b50610f7f8a828b01610e4c565b965050604088015194506060880151935060808801519250610fa48960a08a01610ec8565b9150610fb38960c08a01610ec8565b905092959891949750929550565b600060208284031215610fd2578081fd5b5035919050565b600060208284031215610fea578081fd5b5051919050565b6001600160a01b0391909116815260200190565b6001600160a01b03929092168252602082015260400190565b600060208252825180602084015261103d8160408501602087016111b5565b601f01601f19169190910160400192915050565b6020808252601b908201527f536166654d6174683a206164646974696f6e206f766572666c6f770000000000604082015260600190565b60208082526018908201527f4f776e6572207472656520636f756e74206973207a65726f0000000000000000604082015260600190565b60208082526021908201527f536166654d6174683a206d756c7469706c69636174696f6e206f766572666c6f6040820152607760f81b606082015260800190565b6020808252602e908201527f436f6e747261637420696e7374616e63652068617320616c726561647920626560408201526d195b881a5b9a5d1a585b1a5e995960921b606082015260800190565b602080825260169082015275546f74616c205365636f6e647320617265207a65726f60501b604082015260600190565b6020808252601490820152734d696e7461626c6553656564206973207a65726f60601b604082015260600190565b90815260200190565b60005b838110156111d05781810151838201526020016111b8565b838111156111df576000848401525b5050505056fea264697066735822122031dd5cf5bcceffd477f31019446268c68ca095b527fb750872f0f859ecf7df5164736f6c63430006090033",
  "immutableReferences": {},
  "source": "// SPDX-License-Identifier: GPL-3.0\n\npragma solidity >=0.4.21 <0.7.0;\npragma experimental ABIEncoderV2;\n\nimport \"../../node_modules/@openzeppelin/contracts-ethereum-package/contracts/Initializable.sol\";\nimport \"../../node_modules/@openzeppelin/contracts-ethereum-package/contracts/math/SafeMath.sol\";\n\nimport \"../access/IAccessRestriction.sol\";\nimport \"../tree/ITreeFactory.sol\";\nimport \"../tree/ITree.sol\";\nimport \"./ISeed.sol\";\n\ncontract SeedFactory is Initializable {\n    using SafeMath for uint256;\n\n    event SeedMinted(address owner, uint256 totalSeed);\n    event SeedGeneratedPerSecondChanged(uint256 seedGeneratedPerSecond);\n\n    ISeed public seedToken;\n    ITree public treeToken;\n\n    ITreeFactory public treeFactory;\n    IAccessRestriction public accessRestriction;\n\n    uint256 public seedGeneratedPerSecond;\n\n    mapping(uint256 => uint256) public treesLastMintedDate;\n\n    function initialize(address _accessRestrictionAddress) public initializer {\n        IAccessRestriction candidateContract =\n            IAccessRestriction(_accessRestrictionAddress);\n        require(candidateContract.isAccessRestriction());\n        accessRestriction = candidateContract;\n    }\n\n    function setSeedTokenAddress(address _address) external {\n        accessRestriction.ifAdmin(msg.sender);\n\n        ISeed candidateContract = ISeed(_address);\n        require(candidateContract.isSeed());\n        seedToken = candidateContract;\n    }\n\n    function setTreeTokenAddress(address _address) external {\n        accessRestriction.ifAdmin(msg.sender);\n\n        ITree candidateContract = ITree(_address);\n        require(candidateContract.isTree());\n        treeToken = candidateContract;\n    }\n\n    function setTreeFactoryAddress(address _address) external {\n        accessRestriction.ifAdmin(msg.sender);\n\n        ITreeFactory candidateContract = ITreeFactory(_address);\n        require(candidateContract.isTreeFactory());\n        treeFactory = candidateContract;\n    }\n\n    function setSeedGeneratedPerSecond(uint256 _seedGeneratedPerSecond)\n        external\n    {\n        accessRestriction.ifAdmin(msg.sender);\n\n        seedGeneratedPerSecond = _seedGeneratedPerSecond;\n\n        emit SeedGeneratedPerSecondChanged(_seedGeneratedPerSecond);\n    }\n\n    function calculateMintableSeed(address _owner)\n        external\n        view\n        returns (uint256)\n    {\n        uint256 ownerTreesCount = treeToken.balanceOf(_owner);\n\n        if (ownerTreesCount == 0) {\n            return 0;\n        }\n        uint256 totalSeconds = 0;\n\n        for (uint256 i = 0; i < ownerTreesCount; i++) {\n            uint256 treeId = treeToken.tokenOfOwnerByIndex(_owner, i);\n\n            (, , , , uint256 treeFundedDate, , ) = treeFactory.trees(treeId);\n            if (treeFundedDate == 0) {\n                continue;\n            }\n\n            if (treesLastMintedDate[treeId] > 0) {\n                totalSeconds = totalSeconds.add(\n                    block.timestamp.sub(treesLastMintedDate[treeId])\n                );\n            } else {\n                totalSeconds = totalSeconds.add(\n                    block.timestamp.sub(treeFundedDate)\n                );\n            }\n        }\n\n        if (totalSeconds == 0) {\n            return 0;\n        }\n\n        return (seedGeneratedPerSecond.mul(totalSeconds));\n    }\n\n    function calculateTreeGeneratedSeed(uint256 _treeId)\n        external\n        view\n        returns (uint256)\n    {\n        (, , , , uint256 treeFundedDate, , ) = treeFactory.trees(_treeId);\n\n        if (treeFundedDate == 0) {\n            return 0;\n        }\n\n        return seedGeneratedPerSecond.mul(block.timestamp.sub(treeFundedDate));\n    }\n\n    function mint() external {\n        uint256 ownerTreesCount = treeToken.balanceOf(msg.sender);\n\n        require(ownerTreesCount > 0, \"Owner tree count is zero\");\n\n        uint256 totalSeconds = 0;\n\n        for (uint256 i = 0; i < ownerTreesCount; i++) {\n            uint256 treeId = treeToken.tokenOfOwnerByIndex(msg.sender, i);\n            (, , , , uint256 treeFundedDate, , ) = treeFactory.trees(treeId);\n            if (treeFundedDate == 0) {\n                continue;\n            }\n\n            if (treesLastMintedDate[treeId] > 0) {\n                totalSeconds = totalSeconds.add(\n                    block.timestamp.sub(treesLastMintedDate[treeId])\n                );\n            } else {\n                totalSeconds = totalSeconds.add(\n                    block.timestamp.sub(treeFundedDate)\n                );\n            }\n\n            treesLastMintedDate[treeId] = block.timestamp;\n        }\n\n        require(totalSeconds > 0, \"Total Seconds are zero\");\n\n        uint256 mintableSeed = seedGeneratedPerSecond.mul(totalSeconds);\n\n        require(mintableSeed > 0, \"MintableSeed is zero\");\n\n        seedToken.mint(msg.sender, mintableSeed);\n\n        emit SeedMinted(msg.sender, mintableSeed);\n    }\n}\n",
  "sourcePath": "/home/amir/Projects/treejer/contract/contracts/seed/SeedFactory.sol",
  "compiler": {
    "name": "solc",
    "version": "0.6.9+commit.3e3065ac.Emscripten.clang"
  },
  "schemaVersion": "3.2.3",
  "updatedAt": "2020-12-26T11:36:26.869Z",
  "networkType": "ethereum",
  "devdoc": {
    "methods": {}
  },
  "userdoc": {
    "methods": {}
  }
}