{
  "contractName": "TreeFactory",
  "abi": [
    {
      "anonymous": false,
      "inputs": [
        {
          "indexed": false,
          "internalType": "uint256",
          "name": "treeId",
          "type": "uint256"
        }
      ],
      "name": "AssignedTreePlanted",
      "type": "event"
    },
    {
      "anonymous": false,
      "inputs": [
        {
          "indexed": false,
          "internalType": "uint256",
          "name": "treeId",
          "type": "uint256"
        }
      ],
      "name": "AssignedTreeRejected",
      "type": "event"
    },
    {
      "anonymous": false,
      "inputs": [
        {
          "indexed": false,
          "internalType": "uint256",
          "name": "treeId",
          "type": "uint256"
        }
      ],
      "name": "AssignedTreeVerified",
      "type": "event"
    },
    {
      "anonymous": false,
      "inputs": [
        {
          "indexed": false,
          "internalType": "uint256",
          "name": "lastRegualarTreeId",
          "type": "uint256"
        }
      ],
      "name": "LastRegualarTreeIdUpdated",
      "type": "event"
    },
    {
      "anonymous": false,
      "inputs": [
        {
          "indexed": false,
          "internalType": "uint256",
          "name": "treeId",
          "type": "uint256"
        }
      ],
      "name": "TreeAssigned",
      "type": "event"
    },
    {
      "anonymous": false,
      "inputs": [
        {
          "indexed": false,
          "internalType": "uint256",
          "name": "treeId",
          "type": "uint256"
        }
      ],
      "name": "TreeListed",
      "type": "event"
    },
    {
      "anonymous": false,
      "inputs": [
        {
          "indexed": false,
          "internalType": "uint256",
          "name": "treeId",
          "type": "uint256"
        }
      ],
      "name": "TreePlanted",
      "type": "event"
    },
    {
      "anonymous": false,
      "inputs": [
        {
          "indexed": false,
          "internalType": "uint256",
          "name": "treeId",
          "type": "uint256"
        }
      ],
      "name": "TreeRejected",
      "type": "event"
    },
    {
      "anonymous": false,
      "inputs": [
        {
          "indexed": false,
          "internalType": "uint256",
          "name": "treeId",
          "type": "uint256"
        },
        {
          "indexed": false,
          "internalType": "string",
          "name": "treeSpecs",
          "type": "string"
        }
      ],
      "name": "TreeSpecsUpdated",
      "type": "event"
    },
    {
      "anonymous": false,
      "inputs": [],
      "name": "TreeStatusBatchReset",
      "type": "event"
    },
    {
      "anonymous": false,
      "inputs": [],
      "name": "TreeUpdateIntervalChanged",
      "type": "event"
    },
    {
      "anonymous": false,
      "inputs": [
        {
          "indexed": false,
          "internalType": "uint256",
          "name": "treeId",
          "type": "uint256"
        }
      ],
      "name": "TreeUpdateRejected",
      "type": "event"
    },
    {
      "anonymous": false,
      "inputs": [
        {
          "indexed": false,
          "internalType": "uint256",
          "name": "treeId",
          "type": "uint256"
        }
      ],
      "name": "TreeUpdated",
      "type": "event"
    },
    {
      "anonymous": false,
      "inputs": [
        {
          "indexed": false,
          "internalType": "uint256",
          "name": "treeId",
          "type": "uint256"
        }
      ],
      "name": "TreeUpdatedVerified",
      "type": "event"
    },
    {
      "anonymous": false,
      "inputs": [
        {
          "indexed": false,
          "internalType": "uint256",
          "name": "treeId",
          "type": "uint256"
        },
        {
          "indexed": false,
          "internalType": "uint256",
          "name": "tempTreeId",
          "type": "uint256"
        }
      ],
      "name": "TreeVerified",
      "type": "event"
    },
    {
      "inputs": [],
      "name": "accessRestriction",
      "outputs": [
        {
          "internalType": "contract IAccessRestriction",
          "name": "",
          "type": "address"
        }
      ],
      "stateMutability": "view",
      "type": "function",
      "constant": true
    },
    {
      "inputs": [],
      "name": "isTreeFactory",
      "outputs": [
        {
          "internalType": "bool",
          "name": "",
          "type": "bool"
        }
      ],
      "stateMutability": "view",
      "type": "function",
      "constant": true
    },
    {
      "inputs": [
        {
          "internalType": "address",
          "name": "forwarder",
          "type": "address"
        }
      ],
      "name": "isTrustedForwarder",
      "outputs": [
        {
          "internalType": "bool",
          "name": "",
          "type": "bool"
        }
      ],
      "stateMutability": "view",
      "type": "function",
      "constant": true
    },
    {
      "inputs": [],
      "name": "lastRegualarTreeId",
      "outputs": [
        {
          "internalType": "uint256",
          "name": "",
          "type": "uint256"
        }
      ],
      "stateMutability": "view",
      "type": "function",
      "constant": true
    },
    {
      "inputs": [],
      "name": "planterContract",
      "outputs": [
        {
          "internalType": "contract IPlanter",
          "name": "",
          "type": "address"
        }
      ],
      "stateMutability": "view",
      "type": "function",
      "constant": true
    },
    {
      "inputs": [],
      "name": "planterFund",
      "outputs": [
        {
          "internalType": "contract IPlanterFund",
          "name": "",
          "type": "address"
        }
      ],
      "stateMutability": "view",
      "type": "function",
      "constant": true
    },
    {
      "inputs": [
        {
          "internalType": "uint256",
          "name": "",
          "type": "uint256"
        }
      ],
      "name": "tempTrees",
      "outputs": [
        {
          "internalType": "uint64",
          "name": "birthDate",
          "type": "uint64"
        },
        {
          "internalType": "uint64",
          "name": "plantDate",
          "type": "uint64"
        },
        {
          "internalType": "uint64",
          "name": "countryCode",
          "type": "uint64"
        },
        {
          "internalType": "uint64",
          "name": "otherData",
          "type": "uint64"
        },
        {
          "internalType": "address",
          "name": "planter",
          "type": "address"
        },
        {
          "internalType": "string",
          "name": "treeSpecs",
          "type": "string"
        }
      ],
      "stateMutability": "view",
      "type": "function",
      "constant": true
    },
    {
      "inputs": [],
      "name": "treeToken",
      "outputs": [
        {
          "internalType": "contract ITree",
          "name": "",
          "type": "address"
        }
      ],
      "stateMutability": "view",
      "type": "function",
      "constant": true
    },
    {
      "inputs": [],
      "name": "treeUpdateInterval",
      "outputs": [
        {
          "internalType": "uint256",
          "name": "",
          "type": "uint256"
        }
      ],
      "stateMutability": "view",
      "type": "function",
      "constant": true
    },
    {
      "inputs": [
        {
          "internalType": "uint256",
          "name": "",
          "type": "uint256"
        }
      ],
      "name": "treeUpdates",
      "outputs": [
        {
          "internalType": "string",
          "name": "updateSpecs",
          "type": "string"
        },
        {
          "internalType": "uint64",
          "name": "updateStatus",
          "type": "uint64"
        }
      ],
      "stateMutability": "view",
      "type": "function",
      "constant": true
    },
    {
      "inputs": [
        {
          "internalType": "uint256",
          "name": "",
          "type": "uint256"
        }
      ],
      "name": "trees",
      "outputs": [
        {
          "internalType": "address",
          "name": "planter",
          "type": "address"
        },
        {
          "internalType": "uint256",
          "name": "species",
          "type": "uint256"
        },
        {
          "internalType": "uint32",
          "name": "countryCode",
          "type": "uint32"
        },
        {
          "internalType": "uint32",
          "name": "saleType",
          "type": "uint32"
        },
        {
          "internalType": "uint64",
          "name": "treeStatus",
          "type": "uint64"
        },
        {
          "internalType": "uint64",
          "name": "plantDate",
          "type": "uint64"
        },
        {
          "internalType": "uint64",
          "name": "birthDate",
          "type": "uint64"
        },
        {
          "internalType": "string",
          "name": "treeSpecs",
          "type": "string"
        }
      ],
      "stateMutability": "view",
      "type": "function",
      "constant": true
    },
    {
      "inputs": [],
      "name": "trustedForwarder",
      "outputs": [
        {
          "internalType": "address",
          "name": "",
          "type": "address"
        }
      ],
      "stateMutability": "view",
      "type": "function",
      "constant": true
    },
    {
      "inputs": [],
      "name": "versionRecipient",
      "outputs": [
        {
          "internalType": "string",
          "name": "",
          "type": "string"
        }
      ],
      "stateMutability": "pure",
      "type": "function",
      "constant": true
    },
    {
      "inputs": [
        {
          "internalType": "address",
          "name": "_accessRestrictionAddress",
          "type": "address"
        }
      ],
      "name": "initialize",
      "outputs": [],
      "stateMutability": "nonpayable",
      "type": "function"
    },
    {
      "inputs": [
        {
          "internalType": "address",
          "name": "_address",
          "type": "address"
        }
      ],
      "name": "setTrustedForwarder",
      "outputs": [],
      "stateMutability": "nonpayable",
      "type": "function"
    },
    {
      "inputs": [
        {
          "internalType": "address",
          "name": "_address",
          "type": "address"
        }
      ],
      "name": "setPlanterFundAddress",
      "outputs": [],
      "stateMutability": "nonpayable",
      "type": "function"
    },
    {
      "inputs": [
        {
          "internalType": "address",
          "name": "_address",
          "type": "address"
        }
      ],
      "name": "setPlanterContractAddress",
      "outputs": [],
      "stateMutability": "nonpayable",
      "type": "function"
    },
    {
      "inputs": [
        {
          "internalType": "address",
          "name": "_address",
          "type": "address"
        }
      ],
      "name": "setTreeTokenAddress",
      "outputs": [],
      "stateMutability": "nonpayable",
      "type": "function"
    },
    {
      "inputs": [
        {
          "internalType": "uint256",
          "name": "_seconds",
          "type": "uint256"
        }
      ],
      "name": "setUpdateInterval",
      "outputs": [],
      "stateMutability": "nonpayable",
      "type": "function"
    },
    {
      "inputs": [
        {
          "internalType": "uint256",
          "name": "_treeId",
          "type": "uint256"
        },
        {
          "internalType": "string",
          "name": "_treeSpecs",
          "type": "string"
        }
      ],
      "name": "listTree",
      "outputs": [],
      "stateMutability": "nonpayable",
      "type": "function"
    },
    {
      "inputs": [
        {
          "internalType": "uint256",
          "name": "_startTreeId",
          "type": "uint256"
        },
        {
          "internalType": "uint256",
          "name": "_endTreeId",
          "type": "uint256"
        }
      ],
      "name": "resetTreeStatusBatch",
      "outputs": [],
      "stateMutability": "nonpayable",
      "type": "function"
    },
    {
      "inputs": [
        {
          "internalType": "uint256",
          "name": "_treeId",
          "type": "uint256"
        },
        {
          "internalType": "address",
          "name": "_planter",
          "type": "address"
        }
      ],
      "name": "assignTree",
      "outputs": [],
      "stateMutability": "nonpayable",
      "type": "function"
    },
    {
      "inputs": [
        {
          "internalType": "uint256",
          "name": "_treeId",
          "type": "uint256"
        },
        {
          "internalType": "string",
          "name": "_treeSpecs",
          "type": "string"
        },
        {
          "internalType": "uint64",
          "name": "_birthDate",
          "type": "uint64"
        },
        {
          "internalType": "uint16",
          "name": "_countryCode",
          "type": "uint16"
        }
      ],
      "name": "plantAssignedTree",
      "outputs": [],
      "stateMutability": "nonpayable",
      "type": "function"
    },
    {
      "inputs": [
        {
          "internalType": "uint256",
          "name": "_treeId",
          "type": "uint256"
        },
        {
          "internalType": "bool",
          "name": "_isVerified",
          "type": "bool"
        }
      ],
      "name": "verifyAssignedTree",
      "outputs": [],
      "stateMutability": "nonpayable",
      "type": "function"
    },
    {
      "inputs": [
        {
          "internalType": "uint256",
          "name": "_treeId",
          "type": "uint256"
        },
        {
          "internalType": "string",
          "name": "_treeSpecs",
          "type": "string"
        }
      ],
      "name": "updateTree",
      "outputs": [],
      "stateMutability": "nonpayable",
      "type": "function"
    },
    {
      "inputs": [
        {
          "internalType": "uint256",
          "name": "_treeId",
          "type": "uint256"
        },
        {
          "internalType": "bool",
          "name": "_isVerified",
          "type": "bool"
        }
      ],
      "name": "verifyUpdate",
      "outputs": [],
      "stateMutability": "nonpayable",
      "type": "function"
    },
    {
      "inputs": [
        {
          "internalType": "uint256",
          "name": "_treeId",
          "type": "uint256"
        },
        {
          "internalType": "uint32",
          "name": "_saleType",
          "type": "uint32"
        }
      ],
      "name": "manageSaleType",
      "outputs": [
        {
          "internalType": "uint32",
          "name": "",
          "type": "uint32"
        }
      ],
      "stateMutability": "nonpayable",
      "type": "function"
    },
    {
      "inputs": [
        {
          "internalType": "uint256",
          "name": "_treeId",
          "type": "uint256"
        },
        {
          "internalType": "address",
          "name": "_funder",
          "type": "address"
        }
      ],
      "name": "mintAssignedTree",
      "outputs": [],
      "stateMutability": "nonpayable",
      "type": "function"
    },
    {
      "inputs": [
        {
          "internalType": "uint256",
          "name": "_treeId",
          "type": "uint256"
        }
      ],
      "name": "resetSaleType",
      "outputs": [],
      "stateMutability": "nonpayable",
      "type": "function"
    },
    {
      "inputs": [
        {
          "internalType": "uint256",
          "name": "_startTreeId",
          "type": "uint256"
        },
        {
          "internalType": "uint256",
          "name": "_endTreeId",
          "type": "uint256"
        },
        {
          "internalType": "uint256",
          "name": "_saleType",
          "type": "uint256"
        }
      ],
      "name": "resetSaleTypeBatch",
      "outputs": [],
      "stateMutability": "nonpayable",
      "type": "function"
    },
    {
      "inputs": [
        {
          "internalType": "uint256",
          "name": "_startTreeId",
          "type": "uint256"
        },
        {
          "internalType": "uint256",
          "name": "_endTreeId",
          "type": "uint256"
        },
        {
          "internalType": "uint32",
          "name": "_saleType",
          "type": "uint32"
        }
      ],
      "name": "manageSaleTypeBatch",
      "outputs": [
        {
          "internalType": "bool",
          "name": "",
          "type": "bool"
        }
      ],
      "stateMutability": "nonpayable",
      "type": "function"
    },
    {
      "inputs": [
        {
          "internalType": "string",
          "name": "_treeSpecs",
          "type": "string"
        },
        {
          "internalType": "uint64",
          "name": "_birthDate",
          "type": "uint64"
        },
        {
          "internalType": "uint16",
          "name": "_countryCode",
          "type": "uint16"
        }
      ],
      "name": "plantTree",
      "outputs": [],
      "stateMutability": "nonpayable",
      "type": "function"
    },
    {
      "inputs": [
        {
          "internalType": "uint256",
          "name": "_lastRegualarTreeId",
          "type": "uint256"
        }
      ],
      "name": "updateLastRegualarTreeId",
      "outputs": [],
      "stateMutability": "nonpayable",
      "type": "function"
    },
    {
      "inputs": [
        {
          "internalType": "uint256",
          "name": "_tempTreeId",
          "type": "uint256"
        },
        {
          "internalType": "bool",
          "name": "_isVerified",
          "type": "bool"
        }
      ],
      "name": "verifyTree",
      "outputs": [],
      "stateMutability": "nonpayable",
      "type": "function"
    },
    {
      "inputs": [
        {
          "internalType": "uint256",
          "name": "_lastFundedTreeId",
          "type": "uint256"
        },
        {
          "internalType": "address",
          "name": "_funder",
          "type": "address"
        }
      ],
      "name": "mintTree",
      "outputs": [
        {
          "internalType": "uint256",
          "name": "",
          "type": "uint256"
        }
      ],
      "stateMutability": "nonpayable",
      "type": "function"
    },
    {
      "inputs": [
        {
          "internalType": "uint256",
          "name": "_treeId",
          "type": "uint256"
        },
        {
          "internalType": "address",
          "name": "_funder",
          "type": "address"
        }
      ],
      "name": "mintTreeById",
      "outputs": [],
      "stateMutability": "nonpayable",
      "type": "function"
    },
    {
      "inputs": [
        {
          "internalType": "uint64",
          "name": "_treeId",
          "type": "uint64"
        },
        {
          "internalType": "string",
          "name": "_treeSpecs",
          "type": "string"
        }
      ],
      "name": "updateTreeSpecs",
      "outputs": [],
      "stateMutability": "nonpayable",
      "type": "function"
    }
  ],
  "bytecode": "0x608060405234801561001057600080fd5b50614fe1806100206000396000f3fe608060405234801561001057600080fd5b50600436106102775760003560e01c8063713507bb11610160578063b7c924fc116100d8578063d6762c4a1161008c578063dc8aa57811610071578063dc8aa57814610624578063e0eb4eb91461062d578063fa9ee5031461063a57600080fd5b8063d6762c4a146105f1578063da7422281461061157600080fd5b8063c32619f1116100bd578063c32619f1146105a3578063c4d66de8146105b6578063c6826fc9146105c957600080fd5b8063b7c924fc1461057d578063be49fa971461059057600080fd5b806385c19a7a1161012f5780639c8446f7116101145780639c8446f714610544578063ac5064a014610557578063b04493251461056a57600080fd5b806385c19a7a1461051e5780638fc5ab4d1461053157600080fd5b8063713507bb146104ab578063738b11ab146104be5780637a508022146104d15780637da0a877146104f857600080fd5b806338f1f40f116101f35780634dc933ef116101c25780636a58d22c116101a75780636a58d22c146104725780636fd5214b146104855780637124c6831461049857600080fd5b80634dc933ef1461041a578063572b6c051461042d57600080fd5b806338f1f40f146103a25780633dc96d33146103b5578063486ff0cd146103c85780634ad07f9e1461040757600080fd5b8063223475321161024a5780632ef6dabe1161022f5780632ef6dabe1461034f578063375b4270146103625780633891577f1461038257600080fd5b8063223475321461031b57806329e7178b1461032e57600080fd5b806309ca4e5d1461027c5780630a3912561461029157806312cc3ab0146102bf57806321b05e5914610304575b600080fd5b61028f61028a366004614a07565b61064d565b005b6102a461029f366004614946565b610a80565b6040516102b696959493929190614db3565b60405180910390f35b6006546102df9073ffffffffffffffffffffffffffffffffffffffff1681565b60405173ffffffffffffffffffffffffffffffffffffffff90911681526020016102b6565b61030d60045481565b6040519081526020016102b6565b61030d61032936600461495f565b610b97565b61034161033c366004614946565b610e9b565b6040516102b6929190614d29565b61028f61035d36600461495f565b610f49565b6008546102df9073ffffffffffffffffffffffffffffffffffffffff1681565b6007546102df9073ffffffffffffffffffffffffffffffffffffffff1681565b61028f6103b03660046148a9565b611281565b61028f6103c3366004614bf5565b6113f7565b604080518082018252601d81527f322e322e302b747265656a65722e6972656c6179726563697069656e74000000602082015290516102b69190614d16565b61028f6104153660046148a9565b611610565b61028f610428366004614a76565b611786565b61046261043b3660046148a9565b60005462010000900473ffffffffffffffffffffffffffffffffffffffff90811691161490565b60405190151581526020016102b6565b610462610480366004614b9d565b611b26565b61028f61049336600461498b565b611d85565b61028f6104a6366004614946565b6122cd565b61028f6104b9366004614b71565b612422565b61028f6104cc36600461495f565b612580565b6104e46104df366004614946565b612791565b6040516102b6989796959493929190614c9a565b6000546102df9062010000900473ffffffffffffffffffffffffffffffffffffffff1681565b61028f61052c366004614946565b6128be565b61028f61053f36600461498b565b612a88565b61028f61055236600461495f565b613003565b61028f610565366004614946565b61316d565b61028f6105783660046148e1565b613248565b61028f61058b36600461498b565b6135c1565b61028f61059e3660046149bb565b613961565b61028f6105b1366004614b4f565b613b97565b61028f6105c43660046148a9565b613d6e565b6105dc6105d7366004614bd2565b613f8f565b60405163ffffffff90911681526020016102b6565b6005546102df9073ffffffffffffffffffffffffffffffffffffffff1681565b61028f61061f3660046148a9565b61419c565b61030d60035481565b6002546104629060ff1681565b61028f6106483660046148a9565b61430b565b600560009054906101000a900473ffffffffffffffffffffffffffffffffffffffff1673ffffffffffffffffffffffffffffffffffffffff16634d868f986040518163ffffffff1660e01b815260040160006040518083038186803b1580156106b557600080fd5b505afa1580156106c9573d6000803e3d6000fd5b50505060008681526009602052604090206002808201549192506801000000000000000090910467ffffffffffffffff1614610766576040517f08c379a000000000000000000000000000000000000000000000000000000000815260206004820152601360248201527f496e76616c69642074726565207374617475730000000000000000000000000060448201526064015b60405180910390fd5b60085460009073ffffffffffffffffffffffffffffffffffffffff16630649d93061078f614481565b845460405160e084901b7fffffffff0000000000000000000000000000000000000000000000000000000016815273ffffffffffffffffffffffffffffffffffffffff928316600482015291166024820152604401602060405180830381600087803b1580156107fe57600080fd5b505af1158015610812573d6000803e3d6000fd5b505050506040513d601f19601f8201168201806040525081019061083691906148c4565b90508061089f576040517f08c379a000000000000000000000000000000000000000000000000000000000815260206004820152601160248201527f5065726d697373696f6e2064656e696564000000000000000000000000000000604482015260640161075d565b815473ffffffffffffffffffffffffffffffffffffffff166108bf614481565b73ffffffffffffffffffffffffffffffffffffffff1614610923576108e2614481565b82547fffffffffffffffffffffffff00000000000000000000000000000000000000001673ffffffffffffffffffffffffffffffffffffffff919091161782555b6000878152600a6020526040902061093c81888861461a565b50600181810180547fffffffffffffffffffffffffffffffffffffffffffffffff000000000000000016909117905560028301805467ffffffffffffffff871678010000000000000000000000000000000000000000000000000277ffffffffffffffffffffffffffffffffffffffff0000000090911661ffff8716171790556109c5426144e6565b6002840180547fffffffffffffffff00000000000000000000000000000000ffffffffffffffff1670010000000000000000000000000000000067ffffffffffffffff93909316929092027fffffffffffffffffffffffffffffffff0000000000000000ffffffffffffffff1691909117680300000000000000001790556040518881527f503b1a425e60188ed8f261fa766526cc490233516afaca990304c007989d40629060200160405180910390a15050505050505050565b600b6020526000908152604090208054600182015460028301805467ffffffffffffffff80851695680100000000000000008604821695700100000000000000000000000000000000810483169578010000000000000000000000000000000000000000000000009091049092169373ffffffffffffffffffffffffffffffffffffffff90921692909190610b1490614eb2565b80601f0160208091040260200160405190810160405280929190818152602001828054610b4090614eb2565b8015610b8d5780601f10610b6257610100808354040283529160200191610b8d565b820191906000526020600020905b815481529060010190602001808311610b7057829003601f168201915b5050505050905086565b60055460009073ffffffffffffffffffffffffffffffffffffffff1663ebe6a6f3610bc0614481565b6040517fffffffff0000000000000000000000000000000000000000000000000000000060e084901b16815273ffffffffffffffffffffffffffffffffffffffff909116600482015260240160006040518083038186803b158015610c2457600080fd5b505afa158015610c38573d6000803e3d6000fd5b505050506000836001610c4b9190614e18565b6000818152600960205260408120600201549192509068010000000000000000900467ffffffffffffffff16158015610ca15750600082815260096020526040902060020154640100000000900463ffffffff16155b80610cff575060008281526009602052604090206002015460036801000000000000000090910467ffffffffffffffff16118015610cff575060008281526009602052604090206002015463ffffffff640100000000909104166004145b90505b80610dcc57610d12826001614e18565b60008181526009602052604090206002015490925068010000000000000000900467ffffffffffffffff16158015610d675750600082815260096020526040902060020154640100000000900463ffffffff16155b80610dc5575060008281526009602052604090206002015460036801000000000000000090910467ffffffffffffffff16118015610dc5575060008281526009602052604090206002015463ffffffff640100000000909104166004145b9050610d02565b6000828152600960205260409081902060020180547fffffffffffffffffffffffffffffffffffffffffffffffff00000000ffffffff16905560065490517f40c10f1900000000000000000000000000000000000000000000000000000000815273ffffffffffffffffffffffffffffffffffffffff868116600483015260248201859052909116906340c10f1990604401600060405180830381600087803b158015610e7857600080fd5b505af1158015610e8c573d6000803e3d6000fd5b50939450505050505b92915050565b600a60205260009081526040902080548190610eb690614eb2565b80601f0160208091040260200160405190810160405280929190818152602001828054610ee290614eb2565b8015610f2f5780601f10610f0457610100808354040283529160200191610f2f565b820191906000526020600020905b815481529060010190602001808311610f1257829003601f168201915b5050506001909301549192505067ffffffffffffffff1682565b600560009054906101000a900473ffffffffffffffffffffffffffffffffffffffff1673ffffffffffffffffffffffffffffffffffffffff16634d868f986040518163ffffffff1660e01b815260040160006040518083038186803b158015610fb157600080fd5b505afa158015610fc5573d6000803e3d6000fd5b505060055473ffffffffffffffffffffffffffffffffffffffff16915063c4d2a31b9050610ff1614481565b6040517fffffffff0000000000000000000000000000000000000000000000000000000060e084901b16815273ffffffffffffffffffffffffffffffffffffffff909116600482015260240160006040518083038186803b15801561105557600080fd5b505afa158015611069573d6000803e3d6000fd5b50505060008381526009602052604090206002808201549192506801000000000000000090910467ffffffffffffffff1614611101576040517f08c379a000000000000000000000000000000000000000000000000000000000815260206004820152600c60248201527f496e76616c696420747265650000000000000000000000000000000000000000604482015260640161075d565b6008546040517f3d9b75df00000000000000000000000000000000000000000000000000000000815273ffffffffffffffffffffffffffffffffffffffff848116600483015290911690633d9b75df9060240160206040518083038186803b15801561116c57600080fd5b505afa158015611180573d6000803e3d6000fd5b505050506040513d601f19601f820116820180604052508101906111a491906148c4565b61120a576040517f08c379a000000000000000000000000000000000000000000000000000000000815260206004820152601360248201527f4e6f7420616c6c6f77656420706c616e74657200000000000000000000000000604482015260640161075d565b80547fffffffffffffffffffffffff00000000000000000000000000000000000000001673ffffffffffffffffffffffffffffffffffffffff83161781556040518381527f5569e20f761862546a9a892a1fd4508e29978c6a2673afb7ec47675e8cf6b465906020015b60405180910390a1505050565b60055473ffffffffffffffffffffffffffffffffffffffff16638413ec146112a7614481565b6040517fffffffff0000000000000000000000000000000000000000000000000000000060e084901b16815273ffffffffffffffffffffffffffffffffffffffff909116600482015260240160006040518083038186803b15801561130b57600080fd5b505afa15801561131f573d6000803e3d6000fd5b5050505060008190508073ffffffffffffffffffffffffffffffffffffffff166337b9fd776040518163ffffffff1660e01b815260040160206040518083038186803b15801561136e57600080fd5b505afa158015611382573d6000803e3d6000fd5b505050506040513d601f19601f820116820180604052508101906113a691906148c4565b6113af57600080fd5b600680547fffffffffffffffffffffffff00000000000000000000000000000000000000001673ffffffffffffffffffffffffffffffffffffffff9290921691909117905550565b600560009054906101000a900473ffffffffffffffffffffffffffffffffffffffff1673ffffffffffffffffffffffffffffffffffffffff16634d868f986040518163ffffffff1660e01b815260040160006040518083038186803b15801561145f57600080fd5b505afa158015611473573d6000803e3d6000fd5b505060055473ffffffffffffffffffffffffffffffffffffffff16915063d449b6ac905061149f614481565b6040517fffffffff0000000000000000000000000000000000000000000000000000000060e084901b16815273ffffffffffffffffffffffffffffffffffffffff909116600482015260240160006040518083038186803b15801561150357600080fd5b505afa158015611517573d6000803e3d6000fd5b50505067ffffffffffffffff8085166000818152600a60205260409020600190810154919350911614156115a7576040517f08c379a000000000000000000000000000000000000000000000000000000000815260206004820152601560248201527f50656e64696e6720757064617465206578697374730000000000000000000000604482015260640161075d565b67ffffffffffffffff841660009081526009602052604090206115ce90600301848461461a565b507fe057d65b6e89ca5556afee78d44476007a26185cff8218bc9e2d10f5bb0d6f6b84848460405161160293929190614d55565b60405180910390a150505050565b60055473ffffffffffffffffffffffffffffffffffffffff16638413ec14611636614481565b6040517fffffffff0000000000000000000000000000000000000000000000000000000060e084901b16815273ffffffffffffffffffffffffffffffffffffffff909116600482015260240160006040518083038186803b15801561169a57600080fd5b505afa1580156116ae573d6000803e3d6000fd5b5050505060008190508073ffffffffffffffffffffffffffffffffffffffff1663349904da6040518163ffffffff1660e01b815260040160206040518083038186803b1580156116fd57600080fd5b505afa158015611711573d6000803e3d6000fd5b505050506040513d601f19601f8201168201806040525081019061173591906148c4565b61173e57600080fd5b600780547fffffffffffffffffffffffff00000000000000000000000000000000000000001673ffffffffffffffffffffffffffffffffffffffff9290921691909117905550565b600560009054906101000a900473ffffffffffffffffffffffffffffffffffffffff1673ffffffffffffffffffffffffffffffffffffffff16634d868f986040518163ffffffff1660e01b815260040160006040518083038186803b1580156117ee57600080fd5b505afa158015611802573d6000803e3d6000fd5b5050505061180e614481565b60008381526009602052604090205473ffffffffffffffffffffffffffffffffffffffff90811691161461189e576040517f08c379a000000000000000000000000000000000000000000000000000000000815260206004820152600e60248201527f4e6f74206f776e65642074726565000000000000000000000000000000000000604482015260640161075d565b60008281526009602052604090206002015460036801000000000000000090910467ffffffffffffffff1611611930576040517f08c379a000000000000000000000000000000000000000000000000000000000815260206004820152601060248201527f54726565206e6f7420706c616e74656400000000000000000000000000000000604482015260640161075d565b6000828152600a6020526040902060019081015467ffffffffffffffff1614156119b6576040517f08c379a000000000000000000000000000000000000000000000000000000000815260206004820152600e60248201527f50656e64696e6720757064617465000000000000000000000000000000000000604482015260640161075d565b6004546000838152600960205260409020600201546119ed9068010000000000000000900467ffffffffffffffff16610e10614e6b565b67ffffffffffffffff16611a019190614e18565b600083815260096020526040902060020154611a3b9190700100000000000000000000000000000000900467ffffffffffffffff16614e18565b421015611aa4576040517f08c379a000000000000000000000000000000000000000000000000000000000815260206004820152600c60248201527f4561726c79207570646174650000000000000000000000000000000000000000604482015260640161075d565b6000828152600a6020908152604090912082519091611ac79183918501906146b8565b50600181810180547fffffffffffffffffffffffffffffffffffffffffffffffff00000000000000001690911790556040518381527fb02fa78938a60840517eef874d53897819ea37cc053e40aac321dc45dcfed4a890602001611274565b60055460009073ffffffffffffffffffffffffffffffffffffffff1663ebe6a6f3611b4f614481565b6040517fffffffff0000000000000000000000000000000000000000000000000000000060e084901b16815273ffffffffffffffffffffffffffffffffffffffff909116600482015260240160006040518083038186803b158015611bb357600080fd5b505afa158015611bc7573d6000803e3d6000fd5b5086925050505b83811015611cc157600081815260096020526040902060020154640100000000900463ffffffff16151580611ca057506006546040517f4f558e790000000000000000000000000000000000000000000000000000000081526004810183905273ffffffffffffffffffffffffffffffffffffffff90911690634f558e799060240160206040518083038186803b158015611c6857600080fd5b505afa158015611c7c573d6000803e3d6000fd5b505050506040513d601f19601f82011682018060405250810190611ca091906148c4565b15611caf576000915050611d7e565b80611cb981614f06565b915050611bce565b50835b83811015611d785760008181526009602052604090206002810180547fffffffffffffffffffffffffffffffffffffffffffffffff00000000ffffffff1664010000000063ffffffff871602179081905568010000000000000000900467ffffffffffffffff16611d65576002810180547fffffffffffffffffffffffffffffffff0000000000000000ffffffffffffffff16680200000000000000001790555b5080611d7081614f06565b915050611cc4565b50600190505b9392505050565b600560009054906101000a900473ffffffffffffffffffffffffffffffffffffffff1673ffffffffffffffffffffffffffffffffffffffff16634d868f986040518163ffffffff1660e01b815260040160006040518083038186803b158015611ded57600080fd5b505afa158015611e01573d6000803e3d6000fd5b505060055473ffffffffffffffffffffffffffffffffffffffff169150635f7f84c79050611e2d614481565b6040517fffffffff0000000000000000000000000000000000000000000000000000000060e084901b16815273ffffffffffffffffffffffffffffffffffffffff909116600482015260240160006040518083038186803b158015611e9157600080fd5b505afa158015611ea5573d6000803e3d6000fd5b5050506000838152600a6020526040902060019081015467ffffffffffffffff16149050611f2f576040517f08c379a000000000000000000000000000000000000000000000000000000000815260206004820152601260248201527f4e6f742070656e64696e67207570646174650000000000000000000000000000604482015260640161075d565b60008281526009602052604090206002015460036801000000000000000090910467ffffffffffffffff1611611fc1576040517f08c379a000000000000000000000000000000000000000000000000000000000815260206004820152601060248201527f54726565206e6f7420706c616e74656400000000000000000000000000000000604482015260640161075d565b6000828152600a60205260409020811561226e5760008381526009602052604081206001830180547fffffffffffffffffffffffffffffffffffffffffffffffff0000000000000000166003179055600281015490919061205790610e109061204890700100000000000000000000000000000000900467ffffffffffffffff1642614e9b565b6120529190614e30565b614584565b600283015490915068010000000000000000900467ffffffffffffffff1663ffffffff821611156120c0576002820180547fffffffffffffffffffffffffffffffff0000000000000000ffffffffffffffff1663ffffffff831668010000000000000000021790555b8254600383019084906120d290614eb2565b6120dd92919061472c565b506006546040517f4f558e790000000000000000000000000000000000000000000000000000000081526004810187905273ffffffffffffffffffffffffffffffffffffffff90911690634f558e799060240160206040518083038186803b15801561214857600080fd5b505afa15801561215c573d6000803e3d6000fd5b505050506040513d601f19601f8201168201806040525081019061218091906148c4565b1561223457600754825460028401546040517fc0ba4aff0000000000000000000000000000000000000000000000000000000081526004810189905273ffffffffffffffffffffffffffffffffffffffff92831660248201526801000000000000000090910467ffffffffffffffff16604482015291169063c0ba4aff90606401600060405180830381600087803b15801561221b57600080fd5b505af115801561222f573d6000803e3d6000fd5b505050505b6040518581527f50dc150da4a25245987f08b8287e8418fa686f9fa829464e548245dff47345e19060200160405180910390a15050505050565b6001810180547fffffffffffffffffffffffffffffffffffffffffffffffff00000000000000001660021790556040517fd673279ff35d1b6d6338f6c7540f40288d9660bf5f39d7c8a8b27eb206844f73906112749085815260200190565b600560009054906101000a900473ffffffffffffffffffffffffffffffffffffffff1673ffffffffffffffffffffffffffffffffffffffff16634d868f986040518163ffffffff1660e01b815260040160006040518083038186803b15801561233557600080fd5b505afa158015612349573d6000803e3d6000fd5b505060055473ffffffffffffffffffffffffffffffffffffffff16915063c4d2a31b9050612375614481565b6040517fffffffff0000000000000000000000000000000000000000000000000000000060e084901b16815273ffffffffffffffffffffffffffffffffffffffff909116600482015260240160006040518083038186803b1580156123d957600080fd5b505afa1580156123ed573d6000803e3d6000fd5b5050506004829055506040517f724a8c86a27543b6d373c576963d00ead954c78a72015a1929b5757edeaa06c890600090a150565b60055473ffffffffffffffffffffffffffffffffffffffff1663ebe6a6f3612448614481565b6040517fffffffff0000000000000000000000000000000000000000000000000000000060e084901b16815273ffffffffffffffffffffffffffffffffffffffff909116600482015260240160006040518083038186803b1580156124ac57600080fd5b505afa1580156124c0573d6000803e3d6000fd5b5085925050505b8281101561257a5760008181526009602052604090206002810154640100000000900463ffffffff1683141561256757600281810180547fffffffffffffffffffffffffffffffffffffffffffffffff00000000ffffffff169081905568010000000000000000900467ffffffffffffffff1614156125675780547fffffffffffffffffffffffff00000000000000000000000000000000000000001681555b508061257281614f06565b9150506124c7565b50505050565b60055473ffffffffffffffffffffffffffffffffffffffff1663ebe6a6f36125a6614481565b6040517fffffffff0000000000000000000000000000000000000000000000000000000060e084901b16815273ffffffffffffffffffffffffffffffffffffffff909116600482015260240160006040518083038186803b15801561260a57600080fd5b505afa15801561261e573d6000803e3d6000fd5b5050506000838152600960205260409020600281015490915060036801000000000000000090910467ffffffffffffffff161180156126705750600281015463ffffffff640100000000909104166004145b6126d6576040517f08c379a000000000000000000000000000000000000000000000000000000000815260206004820152601060248201527f54726565206e6f7420706c616e74656400000000000000000000000000000000604482015260640161075d565b6002810180547fffffffffffffffffffffffffffffffffffffffffffffffff00000000ffffffff1690556006546040517f40c10f1900000000000000000000000000000000000000000000000000000000815273ffffffffffffffffffffffffffffffffffffffff848116600483015260248201869052909116906340c10f1990604401600060405180830381600087803b15801561277457600080fd5b505af1158015612788573d6000803e3d6000fd5b50505050505050565b600960205260009081526040902080546001820154600283015460038401805473ffffffffffffffffffffffffffffffffffffffff90941694929363ffffffff8084169464010000000085049091169367ffffffffffffffff68010000000000000000820481169470010000000000000000000000000000000083048216947801000000000000000000000000000000000000000000000000909304909116929161283b90614eb2565b80601f016020809104026020016040519081016040528092919081815260200182805461286790614eb2565b80156128b45780601f10612889576101008083540402835291602001916128b4565b820191906000526020600020905b81548152906001019060200180831161289757829003601f168201915b5050505050905088565b600560009054906101000a900473ffffffffffffffffffffffffffffffffffffffff1673ffffffffffffffffffffffffffffffffffffffff16634d868f986040518163ffffffff1660e01b815260040160006040518083038186803b15801561292657600080fd5b505afa15801561293a573d6000803e3d6000fd5b505060055473ffffffffffffffffffffffffffffffffffffffff16915063c4d2a31b9050612966614481565b6040517fffffffff0000000000000000000000000000000000000000000000000000000060e084901b16815273ffffffffffffffffffffffffffffffffffffffff909116600482015260240160006040518083038186803b1580156129ca57600080fd5b505afa1580156129de573d6000803e3d6000fd5b505050506003548111612a4d576040517f08c379a000000000000000000000000000000000000000000000000000000000815260206004820152601a60248201527f496e76616c6964206c61737452656775616c6172547265654964000000000000604482015260640161075d565b60038190556040518181527fa9773843a83608e5980349ca85f4c0f3ec08f968c1e7544fde96381c7dd0cdf09060200160405180910390a150565b600560009054906101000a900473ffffffffffffffffffffffffffffffffffffffff1673ffffffffffffffffffffffffffffffffffffffff16634d868f986040518163ffffffff1660e01b815260040160006040518083038186803b158015612af057600080fd5b505afa158015612b04573d6000803e3d6000fd5b505060055473ffffffffffffffffffffffffffffffffffffffff169150635f7f84c79050612b30614481565b6040517fffffffff0000000000000000000000000000000000000000000000000000000060e084901b16815273ffffffffffffffffffffffffffffffffffffffff909116600482015260240160006040518083038186803b158015612b9457600080fd5b505afa158015612ba8573d6000803e3d6000fd5b5050506000838152600b60205260409020805490915068010000000000000000900467ffffffffffffffff16612c3a576040517f08c379a000000000000000000000000000000000000000000000000000000000815260206004820152601760248201527f526567756c61722054726565206e6f7420657869737473000000000000000000604482015260640161075d565b8115612f7f5760006003546001612c519190614e18565b90505b60008181526009602052604090206002015468010000000000000000900467ffffffffffffffff16158015612ca65750600081815260096020526040902060020154640100000000900463ffffffff16155b612cbc57612cb5816001614e18565b9050612c54565b600381815560008281526009602052604090208354600280830180547fffffffffffffffff0000000000000000ffffffffffffffffffffffffffffffff81166801000000000000000090940467ffffffffffffffff908116700100000000000000000000000000000000908102958617845589540461ffff167fffffffffffffffff0000000000000000ffffffffffffffffffffffff0000000083167fffffffffffffffffffffffffffffffffffffffffffffffffffffffff000000008716178117845589546fffffffffffffffffffffffff0000000090931677ffffffffffffffffffffffffffffffffffffffff0000000090961695909517909417931678010000000000000000000000000000000000000000000000000292909217909155840180549192830191612def90614eb2565b612dfa92919061472c565b506001830154815473ffffffffffffffffffffffffffffffffffffffff9182167fffffffffffffffffffffffff00000000000000000000000000000000000000009091161782556002820180547fffffffffffffffffffffffffffffffff0000000000000000ffffffffffffffff16680400000000000000001790556006546003546040517f4f558e790000000000000000000000000000000000000000000000000000000081526004810191909152911690634f558e799060240160206040518083038186803b158015612ece57600080fd5b505afa158015612ee2573d6000803e3d6000fd5b505050506040513d601f19601f82011682018060405250810190612f0691906148c4565b612f3c576002810180547fffffffffffffffffffffffffffffffffffffffffffffffff00000000ffffffff166404000000001790555b60035460408051918252602082018790527fb00267d7be02f7bb102fc396d213483002dc6a0b026646ec40cc29c92a092b54910160405180910390a15050612fb3565b6040518381527fa9575f46e68545de141e3ca99ed4d1c7a814076adc5b7214da6b0a2cb44135569060200160405180910390a15b6000838152600b602052604081208181556001810180547fffffffffffffffffffffffff000000000000000000000000000000000000000016905590612ffc60028301826147a7565b5050505050565b60055473ffffffffffffffffffffffffffffffffffffffff1663ebe6a6f3613029614481565b6040517fffffffff0000000000000000000000000000000000000000000000000000000060e084901b16815273ffffffffffffffffffffffffffffffffffffffff909116600482015260240160006040518083038186803b15801561308d57600080fd5b505afa1580156130a1573d6000803e3d6000fd5b5050506000838152600960205260409081902060020180547fffffffffffffffffffffffffffffffffffffffffffffffff00000000ffffffff16905560065490517f40c10f1900000000000000000000000000000000000000000000000000000000815273ffffffffffffffffffffffffffffffffffffffff84811660048301526024820186905290911691506340c10f1990604401600060405180830381600087803b15801561315157600080fd5b505af1158015613165573d6000803e3d6000fd5b505050505050565b60055473ffffffffffffffffffffffffffffffffffffffff1663ebe6a6f3613193614481565b6040517fffffffff0000000000000000000000000000000000000000000000000000000060e084901b16815273ffffffffffffffffffffffffffffffffffffffff909116600482015260240160006040518083038186803b1580156131f757600080fd5b505afa15801561320b573d6000803e3d6000fd5b50505060009182525060096020526040902060020180547fffffffffffffffffffffffffffffffffffffffffffffffff00000000ffffffff169055565b600560009054906101000a900473ffffffffffffffffffffffffffffffffffffffff1673ffffffffffffffffffffffffffffffffffffffff16634d868f986040518163ffffffff1660e01b815260040160006040518083038186803b1580156132b057600080fd5b505afa1580156132c4573d6000803e3d6000fd5b505060085473ffffffffffffffffffffffffffffffffffffffff16915063a1f74f0e90506132f0614481565b6040517fffffffff0000000000000000000000000000000000000000000000000000000060e084901b16815273ffffffffffffffffffffffffffffffffffffffff9091166004820152602401602060405180830381600087803b15801561335657600080fd5b505af115801561336a573d6000803e3d6000fd5b505050506040513d601f19601f8201168201806040525081019061338e91906148c4565b61339757600080fd5b6040518060c001604052808367ffffffffffffffff1681526020016133bb426144e6565b67ffffffffffffffff16815261ffff83166020820152600060408201526060016133e3614481565b73ffffffffffffffffffffffffffffffffffffffff16815260200185858080601f0160208091040260200160405190810160405280939291908181526020018383808284376000920182905250939094525050600154600b925081526020808201929092526040908101600020835181548585015193860151606087015167ffffffffffffffff90811678010000000000000000000000000000000000000000000000000277ffffffffffffffffffffffffffffffffffffffffffffffff92821670010000000000000000000000000000000002929092166fffffffffffffffffffffffffffffffff96821668010000000000000000027fffffffffffffffffffffffffffffffff000000000000000000000000000000009094169190941617919091179390931617919091178155608083015160018201805473ffffffffffffffffffffffffffffffffffffffff9092167fffffffffffffffffffffffff000000000000000000000000000000000000000090921691909117905560a08301518051919261357a926002850192909101906146b8565b50506001547f6efeb6d0d0a494d52bc4a4c7fce81b3374786e440b2459f8ef1d87f170021907915060405190815260200160405180910390a161257a600180546001019055565b600560009054906101000a900473ffffffffffffffffffffffffffffffffffffffff1673ffffffffffffffffffffffffffffffffffffffff16634d868f986040518163ffffffff1660e01b815260040160006040518083038186803b15801561362957600080fd5b505afa15801561363d573d6000803e3d6000fd5b505060055473ffffffffffffffffffffffffffffffffffffffff169150635f7f84c79050613669614481565b6040517fffffffff0000000000000000000000000000000000000000000000000000000060e084901b16815273ffffffffffffffffffffffffffffffffffffffff909116600482015260240160006040518083038186803b1580156136cd57600080fd5b505afa1580156136e1573d6000803e3d6000fd5b5050506000838152600960205260409020600281015490915068010000000000000000900467ffffffffffffffff16600314613779576040517f08c379a000000000000000000000000000000000000000000000000000000000815260206004820152601360248201527f496e76616c696420747265652073746174757300000000000000000000000000604482015260640161075d565b6000838152600a6020526040902082156138475780546003830190829061379f90614eb2565b6137aa92919061472c565b506002820180547fffffffffffffffffffffffffffffffff0000000000000000ffffffffffffffff166804000000000000000017905560018101805460037fffffffffffffffffffffffffffffffffffffffffffffffff00000000000000009091161790556040518481527f84877ccbface2d9faaae31e1d836044ce2bec38ea03584b8b86d18f050d5dda99060200160405180910390a161257a565b600282810180547fffffffffffffffffffffffffffffffff0000000000000000ffffffffffffffff16680200000000000000001790556001820180547fffffffffffffffffffffffffffffffffffffffffffffffff000000000000000016909117905560085482546040517f33fd9ea100000000000000000000000000000000000000000000000000000000815273ffffffffffffffffffffffffffffffffffffffff91821660048201529116906333fd9ea190602401600060405180830381600087803b15801561391857600080fd5b505af115801561392c573d6000803e3d6000fd5b505050507f757078b47c8e43ba433477862b6756d44e0e727466986d807a29c933392723738460405161160291815260200190565b600560009054906101000a900473ffffffffffffffffffffffffffffffffffffffff1673ffffffffffffffffffffffffffffffffffffffff16634d868f986040518163ffffffff1660e01b815260040160006040518083038186803b1580156139c957600080fd5b505afa1580156139dd573d6000803e3d6000fd5b505060055473ffffffffffffffffffffffffffffffffffffffff16915063c4d2a31b9050613a09614481565b6040517fffffffff0000000000000000000000000000000000000000000000000000000060e084901b16815273ffffffffffffffffffffffffffffffffffffffff909116600482015260240160006040518083038186803b158015613a6d57600080fd5b505afa158015613a81573d6000803e3d6000fd5b50505060008481526009602052604090206002015468010000000000000000900467ffffffffffffffff16159050613b15576040517f08c379a000000000000000000000000000000000000000000000000000000000815260206004820152600e60248201527f4475706c69636174652074726565000000000000000000000000000000000000604482015260640161075d565b60008381526009602052604090206002810180547fffffffffffffffffffffffffffffffff0000000000000000ffffffffffffffff1668020000000000000000179055613b6660038201848461461a565b506040518481527fa4af200dc5a6779ca0b468c7da84df9212cacc9efa51c54cf145b4f8308796b490602001611602565b600560009054906101000a900473ffffffffffffffffffffffffffffffffffffffff1673ffffffffffffffffffffffffffffffffffffffff16634d868f986040518163ffffffff1660e01b815260040160006040518083038186803b158015613bff57600080fd5b505afa158015613c13573d6000803e3d6000fd5b505060055473ffffffffffffffffffffffffffffffffffffffff16915063c4d2a31b9050613c3f614481565b6040517fffffffff0000000000000000000000000000000000000000000000000000000060e084901b16815273ffffffffffffffffffffffffffffffffffffffff909116600482015260240160006040518083038186803b158015613ca357600080fd5b505afa158015613cb7573d6000803e3d6000fd5b5084925050505b81811015613d4057600081815260096020526040902060029081015468010000000000000000900467ffffffffffffffff161415613d2e57600081815260096020526040902060020180547fffffffffffffffffffffffffffffffff0000000000000000ffffffffffffffff1690555b80613d3881614f06565b915050613cbe565b506040517fbde8f07343ad7e0051caea2b06edc3a63dadb6d14f0d769b7d9e0295684bfed490600090a15050565b600054610100900460ff1680613d87575060005460ff16155b613e13576040517f08c379a000000000000000000000000000000000000000000000000000000000815260206004820152602e60248201527f496e697469616c697a61626c653a20636f6e747261637420697320616c72656160448201527f647920696e697469616c697a6564000000000000000000000000000000000000606482015260840161075d565b600054610100900460ff16158015613e5257600080547fffffffffffffffffffffffffffffffffffffffffffffffffffffffffffff0000166101011790555b60008290508073ffffffffffffffffffffffffffffffffffffffff1663ba84fd696040518163ffffffff1660e01b815260040160206040518083038186803b158015613e9d57600080fd5b505afa158015613eb1573d6000803e3d6000fd5b505050506040513d601f19601f82011682018060405250810190613ed591906148c4565b613ede57600080fd5b600280547fffffffffffffffffffffffffffffffffffffffffffffffffffffffffffffff001660011790556005805473ffffffffffffffffffffffffffffffffffffffff9092167fffffffffffffffffffffffff000000000000000000000000000000000000000090921691909117905561271060035562093a806004558015613f8b57600080547fffffffffffffffffffffffffffffffffffffffffffffffffffffffffffff00ff1690555b5050565b60055460009073ffffffffffffffffffffffffffffffffffffffff1663ebe6a6f3613fb8614481565b6040517fffffffff0000000000000000000000000000000000000000000000000000000060e084901b16815273ffffffffffffffffffffffffffffffffffffffff909116600482015260240160006040518083038186803b15801561401c57600080fd5b505afa158015614030573d6000803e3d6000fd5b50506006546040517f4f558e790000000000000000000000000000000000000000000000000000000081526004810187905273ffffffffffffffffffffffffffffffffffffffff9091169250634f558e79915060240160206040518083038186803b15801561409e57600080fd5b505afa1580156140b2573d6000803e3d6000fd5b505050506040513d601f19601f820116820180604052508101906140d691906148c4565b156140e357506001610e95565b60008381526009602052604090206002810154640100000000900463ffffffff1680614194576002820180547fffffffffffffffffffffffffffffffffffffffffffffffff00000000ffffffff1664010000000063ffffffff871602179081905568010000000000000000900467ffffffffffffffff16614194576002820180547fffffffffffffffffffffffffffffffff0000000000000000ffffffffffffffff16680200000000000000001790555b949350505050565b60055473ffffffffffffffffffffffffffffffffffffffff16638413ec146141c2614481565b6040517fffffffff0000000000000000000000000000000000000000000000000000000060e084901b16815273ffffffffffffffffffffffffffffffffffffffff909116600482015260240160006040518083038186803b15801561422657600080fd5b505afa15801561423a573d6000803e3d6000fd5b50839250505073ffffffffffffffffffffffffffffffffffffffff81166142bd576040517f08c379a000000000000000000000000000000000000000000000000000000000815260206004820152600f60248201527f496e76616c696420616464726573730000000000000000000000000000000000604482015260640161075d565b506000805473ffffffffffffffffffffffffffffffffffffffff90921662010000027fffffffffffffffffffff0000000000000000000000000000000000000000ffff909216919091179055565b60055473ffffffffffffffffffffffffffffffffffffffff16638413ec14614331614481565b6040517fffffffff0000000000000000000000000000000000000000000000000000000060e084901b16815273ffffffffffffffffffffffffffffffffffffffff909116600482015260240160006040518083038186803b15801561439557600080fd5b505afa1580156143a9573d6000803e3d6000fd5b5050505060008190508073ffffffffffffffffffffffffffffffffffffffff166303dc8deb6040518163ffffffff1660e01b815260040160206040518083038186803b1580156143f857600080fd5b505afa15801561440c573d6000803e3d6000fd5b505050506040513d601f19601f8201168201806040525081019061443091906148c4565b61443957600080fd5b600880547fffffffffffffffffffffffff00000000000000000000000000000000000000001673ffffffffffffffffffffffffffffffffffffffff9290921691909117905550565b6000601436108015906144b1575060005462010000900473ffffffffffffffffffffffffffffffffffffffff1633145b156144e157507fffffffffffffffffffffffffffffffffffffffffffffffffffffffffffffffec36013560601c90565b503390565b600067ffffffffffffffff821115614580576040517f08c379a000000000000000000000000000000000000000000000000000000000815260206004820152602660248201527f53616665436173743a2076616c756520646f65736e27742066697420696e203660448201527f3420626974730000000000000000000000000000000000000000000000000000606482015260840161075d565b5090565b600063ffffffff821115614580576040517f08c379a000000000000000000000000000000000000000000000000000000000815260206004820152602660248201527f53616665436173743a2076616c756520646f65736e27742066697420696e203360448201527f3220626974730000000000000000000000000000000000000000000000000000606482015260840161075d565b82805461462690614eb2565b90600052602060002090601f01602090048101928261464857600085556146ac565b82601f1061467f578280017fffffffffffffffffffffffffffffffffffffffffffffffffffffffffffffff008235161785556146ac565b828001600101855582156146ac579182015b828111156146ac578235825591602001919060010190614691565b506145809291506147e4565b8280546146c490614eb2565b90600052602060002090601f0160209004810192826146e657600085556146ac565b82601f106146ff57805160ff19168380011785556146ac565b828001600101855582156146ac579182015b828111156146ac578251825591602001919060010190614711565b82805461473890614eb2565b90600052602060002090601f01602090048101928261475a57600085556146ac565b82601f1061476b57805485556146ac565b828001600101855582156146ac57600052602060002091601f016020900482015b828111156146ac57825482559160010191906001019061478c565b5080546147b390614eb2565b6000825580601f106147c3575050565b601f0160209004906000526020600020908101906147e191906147e4565b50565b5b8082111561458057600081556001016147e5565b803573ffffffffffffffffffffffffffffffffffffffff8116811461481d57600080fd5b919050565b60008083601f84011261483457600080fd5b50813567ffffffffffffffff81111561484c57600080fd5b60208301915083602082850101111561486457600080fd5b9250929050565b803561ffff8116811461481d57600080fd5b803563ffffffff8116811461481d57600080fd5b803567ffffffffffffffff8116811461481d57600080fd5b6000602082840312156148bb57600080fd5b611d7e826147f9565b6000602082840312156148d657600080fd5b8151611d7e81614f9d565b600080600080606085870312156148f757600080fd5b843567ffffffffffffffff81111561490e57600080fd5b61491a87828801614822565b909550935061492d905060208601614891565b915061493b6040860161486b565b905092959194509250565b60006020828403121561495857600080fd5b5035919050565b6000806040838503121561497257600080fd5b82359150614982602084016147f9565b90509250929050565b6000806040838503121561499e57600080fd5b8235915060208301356149b081614f9d565b809150509250929050565b6000806000604084860312156149d057600080fd5b83359250602084013567ffffffffffffffff8111156149ee57600080fd5b6149fa86828701614822565b9497909650939450505050565b600080600080600060808688031215614a1f57600080fd5b85359450602086013567ffffffffffffffff811115614a3d57600080fd5b614a4988828901614822565b9095509350614a5c905060408701614891565b9150614a6a6060870161486b565b90509295509295909350565b60008060408385031215614a8957600080fd5b82359150602083013567ffffffffffffffff80821115614aa857600080fd5b818501915085601f830112614abc57600080fd5b813581811115614ace57614ace614f6e565b604051601f82017fffffffffffffffffffffffffffffffffffffffffffffffffffffffffffffffe0908116603f01168101908382118183101715614b1457614b14614f6e565b81604052828152886020848701011115614b2d57600080fd5b8260208601602083013760006020848301015280955050505050509250929050565b60008060408385031215614b6257600080fd5b50508035926020909101359150565b600080600060608486031215614b8657600080fd5b505081359360208301359350604090920135919050565b600080600060608486031215614bb257600080fd5b8335925060208401359150614bc96040850161487d565b90509250925092565b60008060408385031215614be557600080fd5b823591506149826020840161487d565b600080600060408486031215614c0a57600080fd5b614c1384614891565b9250602084013567ffffffffffffffff8111156149ee57600080fd5b6000815180845260005b81811015614c5557602081850181015186830182015201614c39565b81811115614c67576000602083870101525b50601f017fffffffffffffffffffffffffffffffffffffffffffffffffffffffffffffffe0169290920160200192915050565b73ffffffffffffffffffffffffffffffffffffffff891681526020810188905263ffffffff87811660408301528616606082015267ffffffffffffffff858116608083015284811660a0830152831660c082015261010060e08201819052600090614d0783820185614c2f565b9b9a5050505050505050505050565b602081526000611d7e6020830184614c2f565b604081526000614d3c6040830185614c2f565b905067ffffffffffffffff831660208301529392505050565b67ffffffffffffffff8416815260406020820152816040820152818360608301376000818301606090810191909152601f9092017fffffffffffffffffffffffffffffffffffffffffffffffffffffffffffffffe016010192915050565b600067ffffffffffffffff80891683528088166020840152808716604084015280861660608401525073ffffffffffffffffffffffffffffffffffffffff8416608083015260c060a0830152614e0c60c0830184614c2f565b98975050505050505050565b60008219821115614e2b57614e2b614f3f565b500190565b600082614e66577f4e487b7100000000000000000000000000000000000000000000000000000000600052601260045260246000fd5b500490565b600067ffffffffffffffff80831681851681830481118215151615614e9257614e92614f3f565b02949350505050565b600082821015614ead57614ead614f3f565b500390565b600181811c90821680614ec657607f821691505b60208210811415614f00577f4e487b7100000000000000000000000000000000000000000000000000000000600052602260045260246000fd5b50919050565b60007fffffffffffffffffffffffffffffffffffffffffffffffffffffffffffffffff821415614f3857614f38614f3f565b5060010190565b7f4e487b7100000000000000000000000000000000000000000000000000000000600052601160045260246000fd5b7f4e487b7100000000000000000000000000000000000000000000000000000000600052604160045260246000fd5b80151581146147e157600080fdfea2646970667358221220d711c5a78a99128ac0bb845fcaaf73b72627f4f412d5122d243f62e1ab1e0b9064736f6c63430008060033",
  "immutableReferences": {},
  "source": "// SPDX-License-Identifier: GPL-3.0\n\npragma solidity ^0.8.6;\n\nimport \"@openzeppelin/contracts-upgradeable/utils/math/SafeCastUpgradeable.sol\";\n\nimport \"@openzeppelin/contracts-upgradeable/utils/CountersUpgradeable.sol\";\nimport \"@openzeppelin/contracts-upgradeable/proxy/utils/Initializable.sol\";\nimport \"../access/IAccessRestriction.sol\";\nimport \"../gsn/RelayRecipient.sol\";\nimport \"../tree/ITree.sol\";\nimport \"../treasury/IPlanterFund.sol\";\nimport \"../planter/IPlanter.sol\";\nimport \"./ITreeFactory.sol\";\n\n/** @title TreeFactory Contract */\ncontract TreeFactory is Initializable, RelayRecipient, ITreeFactory {\n    using CountersUpgradeable for CountersUpgradeable.Counter;\n    using SafeCastUpgradeable for uint256;\n    using SafeCastUpgradeable for uint32;\n\n    struct TreeData {\n        address planter;\n        uint256 species;\n        uint32 countryCode;\n        uint32 saleType;\n        uint64 treeStatus;\n        uint64 plantDate;\n        uint64 birthDate;\n        string treeSpecs;\n    }\n\n    struct TreeUpdate {\n        string updateSpecs;\n        uint64 updateStatus;\n    }\n\n    struct TempTree {\n        uint64 birthDate;\n        uint64 plantDate;\n        uint64 countryCode;\n        uint64 otherData;\n        address planter;\n        string treeSpecs;\n    }\n\n    CountersUpgradeable.Counter private _pendingRegularTreeId;\n\n    /** NOTE {isTreeFactory} set inside the initialize to {true} */\n    bool public override isTreeFactory;\n    uint256 public override lastRegualarTreeId;\n    uint256 public override treeUpdateInterval;\n\n    IAccessRestriction public accessRestriction;\n    ITree public treeToken;\n    IPlanterFund public planterFund;\n    IPlanter public planterContract;\n\n    /** NOTE mapping of treeId to TreeData Struct */\n    mapping(uint256 => TreeData) public override trees;\n    /** NOTE mapping of treeId to TreeUpdate struct */\n    mapping(uint256 => TreeUpdate) public override treeUpdates;\n    /** NOTE mapping of treeId to TempTree struct */\n    mapping(uint256 => TempTree) public override tempTrees;\n\n    /** NOTE modifier to check msg.sender has admin role */\n    modifier onlyAdmin() {\n        accessRestriction.ifAdmin(_msgSender());\n        _;\n    }\n\n    /** NOTE modifier to check msg.sender has data manager role */\n    modifier onlyDataManager() {\n        accessRestriction.ifDataManager(_msgSender());\n        _;\n    }\n\n    /** NOTE modifier to check msg.sender has verifier role */\n    modifier onlyVerifier() {\n        accessRestriction.ifVerifier(_msgSender());\n        _;\n    }\n\n    /** NOTE modifier for check if function is not paused*/\n    modifier ifNotPaused() {\n        accessRestriction.ifNotPaused();\n        _;\n    }\n\n    /** NOTE modifier to check msg.sender has script role */\n    modifier onlyScript() {\n        accessRestriction.ifScript(_msgSender());\n        _;\n    }\n\n    /** NOTE modifier for check msg.sender has TreejerContract role */\n    modifier onlyTreejerContract() {\n        accessRestriction.ifTreejerContract(_msgSender());\n        _;\n    }\n\n    /** NOTE modifier for check tree has not pending update */\n    modifier notHavePendingUpdate(uint256 _treeId) {\n        require(\n            treeUpdates[_treeId].updateStatus != 1,\n            \"Pending update exists\"\n        );\n        _;\n    }\n\n    /** NOTE modifier for check valid address */\n    modifier validAddress(address _address) {\n        require(_address != address(0), \"Invalid address\");\n        _;\n    }\n\n    /// @inheritdoc ITreeFactory\n    function initialize(address _accessRestrictionAddress)\n        external\n        override\n        initializer\n    {\n        IAccessRestriction candidateContract = IAccessRestriction(\n            _accessRestrictionAddress\n        );\n\n        require(candidateContract.isAccessRestriction());\n\n        isTreeFactory = true;\n        accessRestriction = candidateContract;\n        lastRegualarTreeId = 10000;\n        treeUpdateInterval = 604800;\n    }\n\n    /// @inheritdoc ITreeFactory\n    function setTrustedForwarder(address _address)\n        external\n        override\n        onlyAdmin\n        validAddress(_address)\n    {\n        trustedForwarder = _address;\n    }\n\n    /// @inheritdoc ITreeFactory\n    function setPlanterFundAddress(address _address)\n        external\n        override\n        onlyAdmin\n    {\n        IPlanterFund candidateContract = IPlanterFund(_address);\n\n        require(candidateContract.isPlanterFund());\n\n        planterFund = candidateContract;\n    }\n\n    /// @inheritdoc ITreeFactory\n    function setPlanterContractAddress(address _address)\n        external\n        override\n        onlyAdmin\n    {\n        IPlanter candidateContract = IPlanter(_address);\n\n        require(candidateContract.isPlanter());\n\n        planterContract = candidateContract;\n    }\n\n    /// @inheritdoc ITreeFactory\n    function setTreeTokenAddress(address _address) external override onlyAdmin {\n        ITree candidateContract = ITree(_address);\n\n        require(candidateContract.isTree());\n\n        treeToken = candidateContract;\n    }\n\n    /// @inheritdoc ITreeFactory\n    function setUpdateInterval(uint256 _seconds)\n        external\n        override\n        ifNotPaused\n        onlyDataManager\n    {\n        treeUpdateInterval = _seconds;\n\n        emit TreeUpdateIntervalChanged();\n    }\n\n    /// @inheritdoc ITreeFactory\n    function listTree(uint256 _treeId, string calldata _treeSpecs)\n        external\n        override\n        ifNotPaused\n        onlyDataManager\n    {\n        require(trees[_treeId].treeStatus == 0, \"Duplicate tree\");\n\n        TreeData storage treeData = trees[_treeId];\n\n        treeData.treeStatus = 2;\n        treeData.treeSpecs = _treeSpecs;\n\n        emit TreeListed(_treeId);\n    }\n\n    function resetTreeStatusBatch(uint256 _startTreeId, uint256 _endTreeId)\n        external\n        override\n        ifNotPaused\n        onlyDataManager\n    {\n        for (uint256 i = _startTreeId; i < _endTreeId; i++) {\n            if (trees[i].treeStatus == 2) {\n                trees[i].treeStatus = 0;\n            }\n        }\n\n        emit TreeStatusBatchReset();\n    }\n\n    /// @inheritdoc ITreeFactory\n    function assignTree(uint256 _treeId, address _planter)\n        external\n        override\n        ifNotPaused\n        onlyDataManager\n    {\n        TreeData storage treeData = trees[_treeId];\n\n        require(treeData.treeStatus == 2, \"Invalid tree\");\n\n        require(\n            planterContract.canAssignTree(_planter),\n            \"Not allowed planter\"\n        );\n\n        treeData.planter = _planter;\n\n        emit TreeAssigned(_treeId);\n    }\n\n    /// @inheritdoc ITreeFactory\n    function plantAssignedTree(\n        uint256 _treeId,\n        string calldata _treeSpecs,\n        uint64 _birthDate,\n        uint16 _countryCode\n    ) external override ifNotPaused {\n        TreeData storage treeData = trees[_treeId];\n\n        require(treeData.treeStatus == 2, \"Invalid tree status\");\n\n        bool canPlant = planterContract.manageAssignedTreePermission(\n            _msgSender(),\n            treeData.planter\n        );\n\n        require(canPlant, \"Permission denied\");\n\n        if (_msgSender() != treeData.planter) {\n            treeData.planter = _msgSender();\n        }\n\n        TreeUpdate storage treeUpdateData = treeUpdates[_treeId];\n\n        treeUpdateData.updateSpecs = _treeSpecs;\n        treeUpdateData.updateStatus = 1;\n\n        treeData.countryCode = _countryCode;\n        treeData.birthDate = _birthDate;\n        treeData.plantDate = block.timestamp.toUint64();\n        treeData.treeStatus = 3;\n\n        emit AssignedTreePlanted(_treeId);\n    }\n\n    /// @inheritdoc ITreeFactory\n    function verifyAssignedTree(uint256 _treeId, bool _isVerified)\n        external\n        override\n        ifNotPaused\n        onlyVerifier\n    {\n        TreeData storage treeData = trees[_treeId];\n\n        require(treeData.treeStatus == 3, \"Invalid tree status\");\n\n        TreeUpdate storage treeUpdateData = treeUpdates[_treeId];\n\n        if (_isVerified) {\n            treeData.treeSpecs = treeUpdateData.updateSpecs;\n            treeData.treeStatus = 4;\n            treeUpdateData.updateStatus = 3;\n\n            emit AssignedTreeVerified(_treeId);\n        } else {\n            treeData.treeStatus = 2;\n            treeUpdateData.updateStatus = 2;\n            planterContract.reducePlantedCount(treeData.planter);\n\n            emit AssignedTreeRejected(_treeId);\n        }\n    }\n\n    /// @inheritdoc ITreeFactory\n    function updateTree(uint256 _treeId, string memory _treeSpecs)\n        external\n        override\n        ifNotPaused\n    {\n        require(\n            trees[_treeId].planter == _msgSender(),\n            \"Not owned tree\"\n        );\n\n        require(trees[_treeId].treeStatus > 3, \"Tree not planted\");\n\n        require(\n            treeUpdates[_treeId].updateStatus != 1,\n            \"Pending update\"\n        );\n\n        require(\n            block.timestamp >=\n                trees[_treeId].plantDate +\n                    ((trees[_treeId].treeStatus * 3600) + treeUpdateInterval),\n            \"Early update\"\n        );\n\n        TreeUpdate storage treeUpdateData = treeUpdates[_treeId];\n\n        treeUpdateData.updateSpecs = _treeSpecs;\n        treeUpdateData.updateStatus = 1;\n\n        emit TreeUpdated(_treeId);\n    }\n\n    /// @inheritdoc ITreeFactory\n    function verifyUpdate(uint256 _treeId, bool _isVerified)\n        external\n        override\n        ifNotPaused\n        onlyVerifier\n    {\n        require(\n            treeUpdates[_treeId].updateStatus == 1,\n            \"Not pending update\"\n        );\n\n        require(trees[_treeId].treeStatus > 3, \"Tree not planted\");\n\n        TreeUpdate storage treeUpdateData = treeUpdates[_treeId];\n\n        if (_isVerified) {\n            TreeData storage treeData = trees[_treeId];\n\n            treeUpdateData.updateStatus = 3;\n\n            uint32 age = ((block.timestamp - treeData.plantDate) / 3600)\n                .toUint32();\n\n            if (age > treeData.treeStatus) {\n                treeData.treeStatus = age;\n            }\n\n            treeData.treeSpecs = treeUpdateData.updateSpecs;\n\n            if (treeToken.exists(_treeId)) {\n                planterFund.updatePlanterTotalClaimed(\n                    _treeId,\n                    treeData.planter,\n                    treeData.treeStatus\n                );\n            }\n\n            emit TreeUpdatedVerified(_treeId);\n        } else {\n            treeUpdateData.updateStatus = 2;\n\n            emit TreeUpdateRejected(_treeId);\n        }\n    }\n\n    /// @inheritdoc ITreeFactory\n    function manageSaleType(uint256 _treeId, uint32 _saleType)\n        external\n        override\n        onlyTreejerContract\n        returns (uint32)\n    {\n        if (treeToken.exists(_treeId)) {\n            return 1;\n        }\n\n        TreeData storage treeData = trees[_treeId];\n\n        uint32 currentSaleType = treeData.saleType;\n\n        if (currentSaleType == 0) {\n            treeData.saleType = _saleType;\n            if (treeData.treeStatus == 0) {\n                treeData.treeStatus = 2;\n            }\n        }\n\n        return currentSaleType;\n    }\n\n    /// @inheritdoc ITreeFactory\n    function mintAssignedTree(uint256 _treeId, address _funder)\n        external\n        override\n        onlyTreejerContract\n    {\n        trees[_treeId].saleType = 0;\n        treeToken.mint(_funder, _treeId);\n    }\n\n    /// @inheritdoc ITreeFactory\n    function resetSaleType(uint256 _treeId)\n        external\n        override\n        onlyTreejerContract\n    {\n        trees[_treeId].saleType = 0;\n    }\n\n    /// @inheritdoc ITreeFactory\n    function resetSaleTypeBatch(\n        uint256 _startTreeId,\n        uint256 _endTreeId,\n        uint256 _saleType\n    ) external override onlyTreejerContract {\n        for (uint256 i = _startTreeId; i < _endTreeId; i++) {\n            TreeData storage treeData = trees[i];\n\n            if (treeData.saleType == _saleType) {\n                treeData.saleType = 0;\n\n                if (treeData.treeStatus == 2) {\n                    treeData.planter = address(0);\n                }\n            }\n        }\n    }\n\n    /// @inheritdoc ITreeFactory\n    function manageSaleTypeBatch(\n        uint256 _startTreeId,\n        uint256 _endTreeId,\n        uint32 _saleType\n    ) external override onlyTreejerContract returns (bool) {\n        for (uint256 i = _startTreeId; i < _endTreeId; i++) {\n            if (trees[i].saleType > 0 || treeToken.exists(i)) {\n                return false;\n            }\n        }\n        for (uint256 j = _startTreeId; j < _endTreeId; j++) {\n            TreeData storage treeData = trees[j];\n\n            treeData.saleType = _saleType;\n\n            if (treeData.treeStatus == 0) {\n                treeData.treeStatus = 2;\n            }\n        }\n        return true;\n    }\n\n    /// @inheritdoc ITreeFactory\n    function plantTree(\n        string calldata _treeSpecs,\n        uint64 _birthDate,\n        uint16 _countryCode\n    ) external override ifNotPaused {\n        require(planterContract.manageTreePermission(_msgSender()));\n\n        tempTrees[_pendingRegularTreeId.current()] = TempTree(\n            _birthDate,\n            block.timestamp.toUint64(),\n            _countryCode,\n            0,\n            _msgSender(),\n            _treeSpecs\n        );\n\n        emit TreePlanted(_pendingRegularTreeId.current());\n\n        _pendingRegularTreeId.increment();\n    }\n\n    /// @inheritdoc ITreeFactory\n    function updateLastRegualarTreeId(uint256 _lastRegualarTreeId)\n        external\n        override\n        ifNotPaused\n        onlyDataManager\n    {\n        require(\n            _lastRegualarTreeId > lastRegualarTreeId,\n            \"Invalid lastRegualarTreeId\"\n        );\n\n        lastRegualarTreeId = _lastRegualarTreeId;\n\n        emit LastRegualarTreeIdUpdated(_lastRegualarTreeId);\n    }\n\n    /// @inheritdoc ITreeFactory\n    function verifyTree(uint256 _tempTreeId, bool _isVerified)\n        external\n        override\n        ifNotPaused\n        onlyVerifier\n    {\n        TempTree storage tempTreeData = tempTrees[_tempTreeId];\n\n        require(tempTreeData.plantDate > 0, \"Regular Tree not exists\");\n\n        if (_isVerified) {\n            uint256 tempLastRegularTreeId = lastRegualarTreeId + 1;\n\n            while (\n                !(trees[tempLastRegularTreeId].treeStatus == 0 &&\n                    trees[tempLastRegularTreeId].saleType == 0)\n            ) {\n                tempLastRegularTreeId = tempLastRegularTreeId + 1;\n            }\n\n            lastRegualarTreeId = tempLastRegularTreeId;\n\n            TreeData storage treeData = trees[lastRegualarTreeId];\n\n            treeData.plantDate = tempTreeData.plantDate;\n            treeData.countryCode = uint16(tempTreeData.countryCode);\n            treeData.birthDate = tempTreeData.birthDate;\n            treeData.treeSpecs = tempTreeData.treeSpecs;\n            treeData.planter = tempTreeData.planter;\n            treeData.treeStatus = 4;\n\n            if (!treeToken.exists(lastRegualarTreeId)) {\n                treeData.saleType = 4;\n            }\n            emit TreeVerified(lastRegualarTreeId, _tempTreeId);\n        } else {\n            emit TreeRejected(_tempTreeId);\n        }\n\n        delete tempTrees[_tempTreeId];\n    }\n\n    /// @inheritdoc ITreeFactory\n    function mintTree(uint256 _lastFundedTreeId, address _funder)\n        external\n        override\n        onlyTreejerContract\n        returns (uint256)\n    {\n        uint256 tempLastFundedTreeId = _lastFundedTreeId + 1;\n\n        bool flag = (trees[tempLastFundedTreeId].treeStatus == 0 &&\n            trees[tempLastFundedTreeId].saleType == 0) ||\n            (trees[tempLastFundedTreeId].treeStatus > 3 &&\n                trees[tempLastFundedTreeId].saleType == 4);\n\n        while (!flag) {\n            tempLastFundedTreeId = tempLastFundedTreeId + 1;\n\n            flag =\n                (trees[tempLastFundedTreeId].treeStatus == 0 &&\n                    trees[tempLastFundedTreeId].saleType == 0) ||\n                (trees[tempLastFundedTreeId].treeStatus > 3 &&\n                    trees[tempLastFundedTreeId].saleType == 4);\n        }\n\n        trees[tempLastFundedTreeId].saleType = 0;\n\n        treeToken.mint(_funder, tempLastFundedTreeId);\n\n        return tempLastFundedTreeId;\n    }\n\n    /// @inheritdoc ITreeFactory\n    function mintTreeById(uint256 _treeId, address _funder)\n        external\n        override\n        onlyTreejerContract\n    {\n        TreeData storage treeData = trees[_treeId];\n\n        require(\n            treeData.treeStatus > 3 && treeData.saleType == 4,\n            \"Tree not planted\"\n        );\n\n        treeData.saleType = 0;\n\n        treeToken.mint(_funder, _treeId);\n    }\n\n    /// @inheritdoc ITreeFactory\n    function updateTreeSpecs(uint64 _treeId, string calldata _treeSpecs)\n        external\n        override\n        ifNotPaused\n        onlyScript\n        notHavePendingUpdate(_treeId)\n    {\n        trees[_treeId].treeSpecs = _treeSpecs;\n\n        emit TreeSpecsUpdated(_treeId, _treeSpecs);\n    }\n}\n",
  "sourcePath": "/home/amir/Projects/treejer/contract/contracts/tree/TreeFactory.sol",
  "compiler": {
    "name": "solc",
    "version": "0.8.6+commit.11564f7e.Emscripten.clang"
  },
  "schemaVersion": "3.4.3",
  "updatedAt": "2022-01-14T16:04:19.896Z",
  "networkType": "ethereum",
  "devdoc": {
    "kind": "dev",
    "methods": {
      "assignTree(uint256,address)": {
        "details": "admin assign an existing tree to planter NOTE tree must be not planted NOTE emited a {TreeAssigned} event",
        "params": {
          "_planter": "assignee planter",
          "_treeId": "id of tree to assign"
        }
      },
      "initialize(address)": {
        "details": "initialize AccessRestriction contract,lastRegualarTreeId,treeUpdateInterval and set true for isTreeFactory",
        "params": {
          "_accessRestrictionAddress": "set to the address of AccessRestriction contract"
        }
      },
      "listTree(uint256,string)": {
        "details": "admin list tree NOTE emited a {TreeListed} event",
        "params": {
          "_treeId": "id of tree to list",
          "_treeSpecs": "tree specs"
        }
      },
      "manageSaleType(uint256,uint32)": {
        "details": "check if a tree is free to take part in sale and set {_saleType} to saleType of tree when tree is not in use",
        "params": {
          "_saleType": "saleType for tree",
          "_treeId": "id of tree to check"
        },
        "returns": {
          "_0": "0 if a tree ready for a sale and 1 if a tree is in use or minted before"
        }
      },
      "manageSaleTypeBatch(uint256,uint256,uint32)": {
        "details": "set {_saleType} to saleType of trees in range {_startTreeId} and {_endTreeId}",
        "params": {
          "_endTreeId": "_ending tree id to set saleType value",
          "_saleType": "saleType value",
          "_startTreeId": "starting tree id to set saleType value"
        },
        "returns": {
          "_0": "true if all trees saleType value successfully set and false otherwise"
        }
      },
      "mintAssignedTree(uint256,address)": {
        "details": "mint a tree to funder and set saleType to 0",
        "params": {
          "_funder": "address of funder to mint tree for",
          "_treeId": "id of tree to mint"
        }
      },
      "mintTree(uint256,address)": {
        "details": "mint a tree to funder of tree",
        "params": {
          "_funder": "funder of a new tree sold in Regular",
          "_lastFundedTreeId": "The last tree funded in the regular sale"
        },
        "returns": {
          "_0": "the last tree funded after update"
        }
      },
      "mintTreeById(uint256,address)": {
        "details": "mint an already planted tree with id to funder",
        "params": {
          "_funder": "address of funder",
          "_treeId": "tree id to mint"
        }
      },
      "plantAssignedTree(uint256,string,uint64,uint16)": {
        "details": "planter with permission to plant, can plant its assigned tree NOTE emited an {AssignedTreePlanted} event",
        "params": {
          "_birthDate": "birth date of tree",
          "_countryCode": "country code of tree",
          "_treeId": "id of tree to plant",
          "_treeSpecs": "tree specs"
        }
      },
      "plantTree(string,uint64,uint16)": {
        "details": "planter plant a tree NOTE emited a {TreePlanted} event",
        "params": {
          "_birthDate": "birthDate of the tree",
          "_countryCode": "country code of tree",
          "_treeSpecs": "tree specs"
        }
      },
      "resetSaleType(uint256)": {
        "details": "reset saleType value of tree",
        "params": {
          "_treeId": "id of tree to reset saleType value"
        }
      },
      "resetSaleTypeBatch(uint256,uint256,uint256)": {
        "details": "reset saleType of trees in range of {_startTreeId} and {_endTreeId} with saleType value of {_saleType}",
        "params": {
          "_endTreeId": "ending tree id to reset saleType",
          "_saleType": "saleType value of trees",
          "_startTreeId": "starting tree id to reset saleType"
        }
      },
      "setPlanterContractAddress(address)": {
        "details": "set {_address} to Planter contract address "
      },
      "setPlanterFundAddress(address)": {
        "details": "set {_address} to PlanterFund contract address "
      },
      "setTreeTokenAddress(address)": {
        "details": "set {_address} to TreeToken contract address "
      },
      "setTrustedForwarder(address)": {
        "details": "set {_address} to trusted forwarder "
      },
      "setUpdateInterval(uint256)": {
        "details": "admin set the minimum time to send next update request NOTE emit an {TreeUpdateIntervalChanged} event",
        "params": {
          "_seconds": "time to next update request"
        }
      },
      "updateTree(uint256,string)": {
        "details": "planter of tree send update request for tree NOTE emited a {TreeUpdated} event",
        "params": {
          "_treeId": "id of tree to update",
          "_treeSpecs": "tree specs"
        }
      },
      "updateTreeSpecs(uint64,string)": {
        "details": "script role update treeSpecs NOTE emit a {TreeSpecsUpdated} event",
        "params": {
          "_treeId": "id of tree to update treeSpecs",
          "_treeSpecs": "new tree specs"
        }
      },
      "verifyAssignedTree(uint256,bool)": {
        "details": "admin or allowed verifier can verify or reject plant for assigned tree. NOTE emited an {AssignedTreeVerified} or {AssignedTreeRejected} event",
        "params": {
          "_isVerified": "true for verify and false for reject",
          "_treeId": "id of tree to verifiy"
        }
      },
      "verifyTree(uint256,bool)": {
        "details": "admin or allowed verifier can verify or rejects the pending trees NOTE emited a {TreeVerified} or {TreeRejected} event",
        "params": {
          "_isVerified": "true for verify and false for reject",
          "_tempTreeId": "tempTreeId to verify"
        }
      },
      "verifyUpdate(uint256,bool)": {
        "details": "admin or allowed verifier can verifiy or reject update request for tree. NOTE based on the current time of verifing and plant date, age of tree calculated and set as the treeStatus NOTE if a token exist for that tree (minted before) planter of tree funded based on calculated tree status NOTE emited a {TreeUpdatedVerified} or {TreeUpdateRejected} event",
        "params": {
          "_isVerified": "true for verify and false for reject",
          "_treeId": "id of tree to verify update request"
        }
      },
      "versionRecipient()": {
        "details": "return version recipient "
      }
    },
    "stateVariables": {
      "lastRegualarTreeId": {
        "return": "lastRegularTreeId ",
        "returns": {
          "_0": "lastRegularTreeId "
        }
      },
      "treeUpdateInterval": {
        "return": "minimum time to send next update request ",
        "returns": {
          "_0": "minimum time to send next update request "
        }
      }
    },
    "title": "TreeFactory Contract ",
    "version": 1
  },
  "userdoc": {
    "kind": "user",
    "methods": {
      "isTreeFactory()": {
        "notice": "NOTE {isTreeFactory} set inside the initialize to {true} "
      },
      "isTrustedForwarder(address)": {
        "notice": "return if the forwarder is trusted to forward relayed transactions to us. the forwarder is required to verify the sender's signature, and verify the call is not a replay."
      },
      "tempTrees(uint256)": {
        "notice": "NOTE mapping of treeId to TempTree struct "
      },
      "treeUpdates(uint256)": {
        "notice": "NOTE mapping of treeId to TreeUpdate struct "
      },
      "trees(uint256)": {
        "notice": "NOTE mapping of treeId to TreeData Struct "
      }
    },
    "version": 1
  }
}