{
  "contractName": "TreeFactory",
  "abi": [
    {
      "anonymous": false,
      "inputs": [
        {
          "indexed": false,
          "internalType": "address",
          "name": "ambassador",
          "type": "address"
        },
        {
          "indexed": false,
          "internalType": "uint256",
          "name": "amount",
          "type": "uint256"
        }
      ],
      "name": "AmbassadorBalanceWithdrawn",
      "type": "event"
    },
    {
      "anonymous": false,
      "inputs": [
        {
          "indexed": false,
          "internalType": "address",
          "name": "to",
          "type": "address"
        },
        {
          "indexed": false,
          "internalType": "uint256",
          "name": "amount",
          "type": "uint256"
        },
        {
          "indexed": false,
          "internalType": "address",
          "name": "by",
          "type": "address"
        }
      ],
      "name": "LocalDevelopmentFundWithdrawn",
      "type": "event"
    },
    {
      "anonymous": false,
      "inputs": [
        {
          "indexed": false,
          "internalType": "address",
          "name": "planter",
          "type": "address"
        },
        {
          "indexed": false,
          "internalType": "uint256",
          "name": "amount",
          "type": "uint256"
        }
      ],
      "name": "PlanterBalanceWithdrawn",
      "type": "event"
    },
    {
      "anonymous": false,
      "inputs": [
        {
          "indexed": false,
          "internalType": "uint256",
          "name": "price",
          "type": "uint256"
        }
      ],
      "name": "PriceChanged",
      "type": "event"
    },
    {
      "anonymous": false,
      "inputs": [
        {
          "indexed": false,
          "internalType": "address",
          "name": "to",
          "type": "address"
        },
        {
          "indexed": false,
          "internalType": "uint256",
          "name": "amount",
          "type": "uint256"
        },
        {
          "indexed": false,
          "internalType": "address",
          "name": "by",
          "type": "address"
        }
      ],
      "name": "RescueFundWithdrawn",
      "type": "event"
    },
    {
      "anonymous": false,
      "inputs": [
        {
          "indexed": false,
          "internalType": "address",
          "name": "to",
          "type": "address"
        },
        {
          "indexed": false,
          "internalType": "uint256",
          "name": "amount",
          "type": "uint256"
        },
        {
          "indexed": false,
          "internalType": "address",
          "name": "by",
          "type": "address"
        }
      ],
      "name": "ResearchFundWithdrawn",
      "type": "event"
    },
    {
      "anonymous": false,
      "inputs": [
        {
          "indexed": false,
          "internalType": "uint256",
          "name": "treeId",
          "type": "uint256"
        },
        {
          "indexed": false,
          "internalType": "uint256",
          "name": "planterBalance",
          "type": "uint256"
        },
        {
          "indexed": false,
          "internalType": "uint256",
          "name": "ambassadorBalance",
          "type": "uint256"
        },
        {
          "indexed": false,
          "internalType": "uint256",
          "name": "totalFund",
          "type": "uint256"
        },
        {
          "indexed": false,
          "internalType": "address",
          "name": "owner",
          "type": "address"
        }
      ],
      "name": "TreeFunded",
      "type": "event"
    },
    {
      "anonymous": false,
      "inputs": [
        {
          "indexed": false,
          "internalType": "uint256",
          "name": "id",
          "type": "uint256"
        },
        {
          "indexed": false,
          "internalType": "string",
          "name": "latitude",
          "type": "string"
        },
        {
          "indexed": false,
          "internalType": "string",
          "name": "longitude",
          "type": "string"
        },
        {
          "indexed": false,
          "internalType": "uint256",
          "name": "plantedDate",
          "type": "uint256"
        }
      ],
      "name": "TreePlanted",
      "type": "event"
    },
    {
      "anonymous": false,
      "inputs": [
        {
          "indexed": false,
          "internalType": "address",
          "name": "to",
          "type": "address"
        },
        {
          "indexed": false,
          "internalType": "uint256",
          "name": "amount",
          "type": "uint256"
        },
        {
          "indexed": false,
          "internalType": "address",
          "name": "by",
          "type": "address"
        }
      ],
      "name": "TreejerFundWithdrawn",
      "type": "event"
    },
    {
      "inputs": [],
      "name": "accessRestriction",
      "outputs": [
        {
          "internalType": "contract IAccessRestriction",
          "name": "",
          "type": "address"
        }
      ],
      "stateMutability": "view",
      "type": "function",
      "constant": true
    },
    {
      "inputs": [],
      "name": "ambassadorsFund",
      "outputs": [
        {
          "internalType": "uint256",
          "name": "",
          "type": "uint256"
        }
      ],
      "stateMutability": "view",
      "type": "function",
      "constant": true
    },
    {
      "inputs": [],
      "name": "ambassadorsPercentage",
      "outputs": [
        {
          "internalType": "uint16",
          "name": "",
          "type": "uint16"
        }
      ],
      "stateMutability": "view",
      "type": "function",
      "constant": true
    },
    {
      "inputs": [],
      "name": "daiToken",
      "outputs": [
        {
          "internalType": "contract IERC20",
          "name": "",
          "type": "address"
        }
      ],
      "stateMutability": "view",
      "type": "function",
      "constant": true
    },
    {
      "inputs": [],
      "name": "gbFactory",
      "outputs": [
        {
          "internalType": "contract IGBFactory",
          "name": "",
          "type": "address"
        }
      ],
      "stateMutability": "view",
      "type": "function",
      "constant": true
    },
    {
      "inputs": [
        {
          "internalType": "uint256",
          "name": "",
          "type": "uint256"
        }
      ],
      "name": "gbTreeCount",
      "outputs": [
        {
          "internalType": "uint256",
          "name": "",
          "type": "uint256"
        }
      ],
      "stateMutability": "view",
      "type": "function",
      "constant": true
    },
    {
      "inputs": [
        {
          "internalType": "uint256",
          "name": "",
          "type": "uint256"
        },
        {
          "internalType": "uint256",
          "name": "",
          "type": "uint256"
        }
      ],
      "name": "gbTrees",
      "outputs": [
        {
          "internalType": "uint256",
          "name": "",
          "type": "uint256"
        }
      ],
      "stateMutability": "view",
      "type": "function",
      "constant": true
    },
    {
      "inputs": [],
      "name": "isTreeFactory",
      "outputs": [
        {
          "internalType": "bool",
          "name": "",
          "type": "bool"
        }
      ],
      "stateMutability": "view",
      "type": "function",
      "constant": true
    },
    {
      "inputs": [
        {
          "internalType": "address",
          "name": "forwarder",
          "type": "address"
        }
      ],
      "name": "isTrustedForwarder",
      "outputs": [
        {
          "internalType": "bool",
          "name": "",
          "type": "bool"
        }
      ],
      "stateMutability": "view",
      "type": "function",
      "constant": true
    },
    {
      "inputs": [],
      "name": "localDevelopmentFund",
      "outputs": [
        {
          "internalType": "uint256",
          "name": "",
          "type": "uint256"
        }
      ],
      "stateMutability": "view",
      "type": "function",
      "constant": true
    },
    {
      "inputs": [],
      "name": "localDevelopmentFundPercentage",
      "outputs": [
        {
          "internalType": "uint16",
          "name": "",
          "type": "uint16"
        }
      ],
      "stateMutability": "view",
      "type": "function",
      "constant": true
    },
    {
      "inputs": [
        {
          "internalType": "uint256",
          "name": "",
          "type": "uint256"
        }
      ],
      "name": "notFundedTrees",
      "outputs": [
        {
          "internalType": "uint256",
          "name": "",
          "type": "uint256"
        }
      ],
      "stateMutability": "view",
      "type": "function",
      "constant": true
    },
    {
      "inputs": [],
      "name": "notFundedTreesLastIndex",
      "outputs": [
        {
          "internalType": "uint256",
          "name": "",
          "type": "uint256"
        }
      ],
      "stateMutability": "view",
      "type": "function",
      "constant": true
    },
    {
      "inputs": [],
      "name": "notFundedTreesUsedIndex",
      "outputs": [
        {
          "internalType": "uint256",
          "name": "",
          "type": "uint256"
        }
      ],
      "stateMutability": "view",
      "type": "function",
      "constant": true
    },
    {
      "inputs": [
        {
          "internalType": "uint256",
          "name": "",
          "type": "uint256"
        }
      ],
      "name": "notPlantedTrees",
      "outputs": [
        {
          "internalType": "uint256",
          "name": "",
          "type": "uint256"
        }
      ],
      "stateMutability": "view",
      "type": "function",
      "constant": true
    },
    {
      "inputs": [],
      "name": "notPlantedTreesLastIndex",
      "outputs": [
        {
          "internalType": "uint256",
          "name": "",
          "type": "uint256"
        }
      ],
      "stateMutability": "view",
      "type": "function",
      "constant": true
    },
    {
      "inputs": [],
      "name": "notPlantedTreesUsedIndex",
      "outputs": [
        {
          "internalType": "uint256",
          "name": "",
          "type": "uint256"
        }
      ],
      "stateMutability": "view",
      "type": "function",
      "constant": true
    },
    {
      "inputs": [
        {
          "internalType": "address",
          "name": "",
          "type": "address"
        }
      ],
      "name": "planterTreeCount",
      "outputs": [
        {
          "internalType": "uint256",
          "name": "",
          "type": "uint256"
        }
      ],
      "stateMutability": "view",
      "type": "function",
      "constant": true
    },
    {
      "inputs": [
        {
          "internalType": "address",
          "name": "",
          "type": "address"
        },
        {
          "internalType": "uint256",
          "name": "",
          "type": "uint256"
        }
      ],
      "name": "planterTrees",
      "outputs": [
        {
          "internalType": "uint256",
          "name": "",
          "type": "uint256"
        }
      ],
      "stateMutability": "view",
      "type": "function",
      "constant": true
    },
    {
      "inputs": [],
      "name": "plantersFund",
      "outputs": [
        {
          "internalType": "uint256",
          "name": "",
          "type": "uint256"
        }
      ],
      "stateMutability": "view",
      "type": "function",
      "constant": true
    },
    {
      "inputs": [],
      "name": "plantersPercentage",
      "outputs": [
        {
          "internalType": "uint16",
          "name": "",
          "type": "uint16"
        }
      ],
      "stateMutability": "view",
      "type": "function",
      "constant": true
    },
    {
      "inputs": [],
      "name": "price",
      "outputs": [
        {
          "internalType": "uint256",
          "name": "",
          "type": "uint256"
        }
      ],
      "stateMutability": "view",
      "type": "function",
      "constant": true
    },
    {
      "inputs": [],
      "name": "rescueFund",
      "outputs": [
        {
          "internalType": "uint256",
          "name": "",
          "type": "uint256"
        }
      ],
      "stateMutability": "view",
      "type": "function",
      "constant": true
    },
    {
      "inputs": [],
      "name": "rescueFundPercentage",
      "outputs": [
        {
          "internalType": "uint16",
          "name": "",
          "type": "uint16"
        }
      ],
      "stateMutability": "view",
      "type": "function",
      "constant": true
    },
    {
      "inputs": [],
      "name": "researchFund",
      "outputs": [
        {
          "internalType": "uint256",
          "name": "",
          "type": "uint256"
        }
      ],
      "stateMutability": "view",
      "type": "function",
      "constant": true
    },
    {
      "inputs": [],
      "name": "researchFundPercentage",
      "outputs": [
        {
          "internalType": "uint16",
          "name": "",
          "type": "uint16"
        }
      ],
      "stateMutability": "view",
      "type": "function",
      "constant": true
    },
    {
      "inputs": [
        {
          "internalType": "uint256",
          "name": "",
          "type": "uint256"
        }
      ],
      "name": "treeToAmbassadorBalancePerSecond",
      "outputs": [
        {
          "internalType": "uint256",
          "name": "",
          "type": "uint256"
        }
      ],
      "stateMutability": "view",
      "type": "function",
      "constant": true
    },
    {
      "inputs": [
        {
          "internalType": "uint256",
          "name": "",
          "type": "uint256"
        }
      ],
      "name": "treeToAmbassadorRemainingBalance",
      "outputs": [
        {
          "internalType": "uint256",
          "name": "",
          "type": "uint256"
        }
      ],
      "stateMutability": "view",
      "type": "function",
      "constant": true
    },
    {
      "inputs": [
        {
          "internalType": "uint256",
          "name": "",
          "type": "uint256"
        }
      ],
      "name": "treeToGB",
      "outputs": [
        {
          "internalType": "uint256",
          "name": "",
          "type": "uint256"
        }
      ],
      "stateMutability": "view",
      "type": "function",
      "constant": true
    },
    {
      "inputs": [
        {
          "internalType": "uint256",
          "name": "",
          "type": "uint256"
        }
      ],
      "name": "treeToPlanter",
      "outputs": [
        {
          "internalType": "address",
          "name": "",
          "type": "address"
        }
      ],
      "stateMutability": "view",
      "type": "function",
      "constant": true
    },
    {
      "inputs": [
        {
          "internalType": "uint256",
          "name": "",
          "type": "uint256"
        }
      ],
      "name": "treeToPlanterBalancePerSecond",
      "outputs": [
        {
          "internalType": "uint256",
          "name": "",
          "type": "uint256"
        }
      ],
      "stateMutability": "view",
      "type": "function",
      "constant": true
    },
    {
      "inputs": [
        {
          "internalType": "uint256",
          "name": "",
          "type": "uint256"
        }
      ],
      "name": "treeToPlanterRemainingBalance",
      "outputs": [
        {
          "internalType": "uint256",
          "name": "",
          "type": "uint256"
        }
      ],
      "stateMutability": "view",
      "type": "function",
      "constant": true
    },
    {
      "inputs": [
        {
          "internalType": "uint256",
          "name": "",
          "type": "uint256"
        }
      ],
      "name": "treeToType",
      "outputs": [
        {
          "internalType": "uint8",
          "name": "",
          "type": "uint8"
        }
      ],
      "stateMutability": "view",
      "type": "function",
      "constant": true
    },
    {
      "inputs": [],
      "name": "treeToken",
      "outputs": [
        {
          "internalType": "contract ITree",
          "name": "",
          "type": "address"
        }
      ],
      "stateMutability": "view",
      "type": "function",
      "constant": true
    },
    {
      "inputs": [],
      "name": "treejerFund",
      "outputs": [
        {
          "internalType": "uint256",
          "name": "",
          "type": "uint256"
        }
      ],
      "stateMutability": "view",
      "type": "function",
      "constant": true
    },
    {
      "inputs": [],
      "name": "treejerPercentage",
      "outputs": [
        {
          "internalType": "uint16",
          "name": "",
          "type": "uint16"
        }
      ],
      "stateMutability": "view",
      "type": "function",
      "constant": true
    },
    {
      "inputs": [
        {
          "internalType": "uint256",
          "name": "",
          "type": "uint256"
        }
      ],
      "name": "trees",
      "outputs": [
        {
          "internalType": "string",
          "name": "latitude",
          "type": "string"
        },
        {
          "internalType": "string",
          "name": "longitude",
          "type": "string"
        },
        {
          "internalType": "uint256",
          "name": "plantedDate",
          "type": "uint256"
        },
        {
          "internalType": "uint256",
          "name": "birthDate",
          "type": "uint256"
        },
        {
          "internalType": "uint256",
          "name": "fundedDate",
          "type": "uint256"
        },
        {
          "internalType": "uint8",
          "name": "height",
          "type": "uint8"
        },
        {
          "internalType": "uint8",
          "name": "diameter",
          "type": "uint8"
        }
      ],
      "stateMutability": "view",
      "type": "function",
      "constant": true
    },
    {
      "inputs": [],
      "name": "trustedForwarder",
      "outputs": [
        {
          "internalType": "address",
          "name": "",
          "type": "address"
        }
      ],
      "stateMutability": "view",
      "type": "function",
      "constant": true
    },
    {
      "inputs": [
        {
          "internalType": "uint256",
          "name": "",
          "type": "uint256"
        }
      ],
      "name": "typeTreeCount",
      "outputs": [
        {
          "internalType": "uint256",
          "name": "",
          "type": "uint256"
        }
      ],
      "stateMutability": "view",
      "type": "function",
      "constant": true
    },
    {
      "inputs": [
        {
          "internalType": "uint256",
          "name": "",
          "type": "uint256"
        },
        {
          "internalType": "uint256",
          "name": "",
          "type": "uint256"
        }
      ],
      "name": "typeTrees",
      "outputs": [
        {
          "internalType": "uint256",
          "name": "",
          "type": "uint256"
        }
      ],
      "stateMutability": "view",
      "type": "function",
      "constant": true
    },
    {
      "inputs": [],
      "name": "updateFactory",
      "outputs": [
        {
          "internalType": "contract IUpdateFactory",
          "name": "",
          "type": "address"
        }
      ],
      "stateMutability": "view",
      "type": "function",
      "constant": true
    },
    {
      "inputs": [
        {
          "internalType": "uint256",
          "name": "",
          "type": "uint256"
        }
      ],
      "name": "updateToAmbassadorBalanceWithdrawn",
      "outputs": [
        {
          "internalType": "bool",
          "name": "",
          "type": "bool"
        }
      ],
      "stateMutability": "view",
      "type": "function",
      "constant": true
    },
    {
      "inputs": [
        {
          "internalType": "uint256",
          "name": "",
          "type": "uint256"
        }
      ],
      "name": "updateToPlanterBalanceWithdrawn",
      "outputs": [
        {
          "internalType": "bool",
          "name": "",
          "type": "bool"
        }
      ],
      "stateMutability": "view",
      "type": "function",
      "constant": true
    },
    {
      "inputs": [],
      "name": "versionRecipient",
      "outputs": [
        {
          "internalType": "string",
          "name": "",
          "type": "string"
        }
      ],
      "stateMutability": "view",
      "type": "function",
      "constant": true
    },
    {
      "inputs": [
        {
          "internalType": "address",
          "name": "_accessRestrictionAddress",
          "type": "address"
        }
      ],
      "name": "initialize",
      "outputs": [],
      "stateMutability": "nonpayable",
      "type": "function"
    },
    {
      "inputs": [
        {
          "internalType": "address",
          "name": "_address",
          "type": "address"
        }
      ],
      "name": "setTrustedForwarder",
      "outputs": [],
      "stateMutability": "nonpayable",
      "type": "function"
    },
    {
      "inputs": [
        {
          "internalType": "address",
          "name": "_address",
          "type": "address"
        }
      ],
      "name": "setGBFactoryAddress",
      "outputs": [],
      "stateMutability": "nonpayable",
      "type": "function"
    },
    {
      "inputs": [
        {
          "internalType": "address",
          "name": "_address",
          "type": "address"
        }
      ],
      "name": "setUpdateFactoryAddress",
      "outputs": [],
      "stateMutability": "nonpayable",
      "type": "function"
    },
    {
      "inputs": [
        {
          "internalType": "address",
          "name": "_address",
          "type": "address"
        }
      ],
      "name": "setTreeTokenAddress",
      "outputs": [],
      "stateMutability": "nonpayable",
      "type": "function"
    },
    {
      "inputs": [
        {
          "internalType": "address",
          "name": "_address",
          "type": "address"
        }
      ],
      "name": "setDaiTokenAddress",
      "outputs": [],
      "stateMutability": "nonpayable",
      "type": "function"
    },
    {
      "inputs": [
        {
          "internalType": "uint8",
          "name": "_typeId",
          "type": "uint8"
        },
        {
          "internalType": "string[]",
          "name": "_stringParams",
          "type": "string[]"
        },
        {
          "internalType": "uint8[]",
          "name": "_uintParams",
          "type": "uint8[]"
        }
      ],
      "name": "plant",
      "outputs": [],
      "stateMutability": "nonpayable",
      "type": "function"
    },
    {
      "inputs": [
        {
          "internalType": "uint256",
          "name": "_price",
          "type": "uint256"
        }
      ],
      "name": "setPrice",
      "outputs": [],
      "stateMutability": "nonpayable",
      "type": "function"
    },
    {
      "inputs": [
        {
          "internalType": "uint256",
          "name": "_count",
          "type": "uint256"
        }
      ],
      "name": "fund",
      "outputs": [],
      "stateMutability": "payable",
      "type": "function",
      "payable": true
    },
    {
      "inputs": [
        {
          "internalType": "address payable",
          "name": "_to",
          "type": "address"
        },
        {
          "internalType": "uint256",
          "name": "_amount",
          "type": "uint256"
        }
      ],
      "name": "withdrawTreejerFund",
      "outputs": [],
      "stateMutability": "nonpayable",
      "type": "function"
    },
    {
      "inputs": [
        {
          "internalType": "address payable",
          "name": "_to",
          "type": "address"
        },
        {
          "internalType": "uint256",
          "name": "_amount",
          "type": "uint256"
        }
      ],
      "name": "withdrawLocalDevelopmentFund",
      "outputs": [],
      "stateMutability": "nonpayable",
      "type": "function"
    },
    {
      "inputs": [
        {
          "internalType": "address payable",
          "name": "_to",
          "type": "address"
        },
        {
          "internalType": "uint256",
          "name": "_amount",
          "type": "uint256"
        }
      ],
      "name": "withdrawRescueFund",
      "outputs": [],
      "stateMutability": "nonpayable",
      "type": "function"
    },
    {
      "inputs": [
        {
          "internalType": "address payable",
          "name": "_to",
          "type": "address"
        },
        {
          "internalType": "uint256",
          "name": "_amount",
          "type": "uint256"
        }
      ],
      "name": "withdrawResearchFund",
      "outputs": [],
      "stateMutability": "nonpayable",
      "type": "function"
    },
    {
      "inputs": [],
      "name": "withdrawPlanterBalance",
      "outputs": [],
      "stateMutability": "nonpayable",
      "type": "function"
    },
    {
      "inputs": [],
      "name": "withdrawAmbassadorBalance",
      "outputs": [],
      "stateMutability": "nonpayable",
      "type": "function"
    },
    {
      "inputs": [
        {
          "internalType": "uint16",
          "name": "_treejerPercentage",
          "type": "uint16"
        },
        {
          "internalType": "uint16",
          "name": "_plantersPercentage",
          "type": "uint16"
        },
        {
          "internalType": "uint16",
          "name": "_ambassadorsPercentage",
          "type": "uint16"
        },
        {
          "internalType": "uint16",
          "name": "_localDevelopmentFundPercentage",
          "type": "uint16"
        },
        {
          "internalType": "uint16",
          "name": "_rescueFundPercentage",
          "type": "uint16"
        },
        {
          "internalType": "uint16",
          "name": "_researchFundPercentage",
          "type": "uint16"
        }
      ],
      "name": "setAllPercentages",
      "outputs": [],
      "stateMutability": "nonpayable",
      "type": "function"
    },
    {
      "inputs": [
        {
          "internalType": "address",
          "name": "_account",
          "type": "address"
        }
      ],
      "name": "getPlanterWithdrawableBalance",
      "outputs": [
        {
          "internalType": "uint256",
          "name": "",
          "type": "uint256"
        }
      ],
      "stateMutability": "view",
      "type": "function",
      "constant": true
    },
    {
      "inputs": [
        {
          "internalType": "address",
          "name": "_account",
          "type": "address"
        }
      ],
      "name": "getAmbassadorWithdrawableBalance",
      "outputs": [
        {
          "internalType": "uint256",
          "name": "",
          "type": "uint256"
        }
      ],
      "stateMutability": "view",
      "type": "function",
      "constant": true
    }
  ],
  "bytecode": "0x608060405234801561001057600080fd5b506154f0806100206000396000f3fe6080604052600436106103ad5760003560e01c8063854d0cb1116101e7578063bef474451161010d578063da742228116100a0578063ea9fd4d51161006f578063ea9fd4d514610a3e578063ec48a46714610a5e578063f1326b1514610a73578063f4d7935b14610a93576103ad565b8063da742228146109c9578063de33d9e3146109e9578063e0eb4eb914610a09578063e2eefc7914610a1e576103ad565b8063ca07ca14116100dc578063ca07ca141461095f578063ca1d209d14610974578063cfb2b3fe14610987578063d6762c4a146109b4576103ad565b8063bef47445146108ea578063c11496c71461090a578063c4d66de81461091f578063c8fe4bec1461093f576103ad565b8063a035b1fe11610185578063ae2e883011610154578063ae2e883014610880578063b52a61be14610895578063b53b30be146108b5578063be22f546146108d5576103ad565b8063a035b1fe14610816578063a2c54d8a1461082b578063a8bd116614610840578063add2ff2714610860576103ad565b806395dc2a3c116101c157806395dc2a3c146107ac57806398f5fa3b146107c1578063997c2537146107d65780639fe02795146107f6576103ad565b8063854d0cb1146107575780638e5e698a1461076c57806391b7f5ed1461078c576103ad565b80634bad6b37116102d757806360cd03031161026a5780637a508022116102395780637a508022146106da5780637da0a8771461070d57806383948406146107225780638493b35014610737576103ad565b806360cd0303146106705780636265e0d8146106905780636f82c7fa146106a557806376cdc267146106ba576103ad565b806354a2d6e0116102a657806354a2d6e0146105ee578063572b6c05146106035780635857b158146106305780635e82712214610650576103ad565b80634bad6b371461058f5780634ce958bb146105a45780634d29546d146105c4578063508f657d146105d9576103ad565b80632b79e7321161034f578063417eb5391161031e578063417eb53914610523578063469bcafa14610538578063486ff0cd1461054d5780634875f9d71461056f576103ad565b80632b79e732146104ae578063368e3daf146104ce57806338f1f40f146104e3578063415d13aa14610503576103ad565b806318dfed711161038b57806318dfed711461042a57806319de4acd1461044a5780632602142a1461046c5780632af438e61461048e576103ad565b806307ff3723146103b257806311e668f4146103e857806312cc3ab014610415575b600080fd5b3480156103be57600080fd5b506103d26103cd366004614bc2565b610aa8565b6040516103df9190614db6565b60405180910390f35b3480156103f457600080fd5b50610408610403366004614a14565b610ac3565b6040516103df9190615331565b34801561042157600080fd5b506103d2611103565b34801561043657600080fd5b50610408610445366004614bc2565b611112565b34801561045657600080fd5b5061046a610465366004614a4c565b611124565b005b34801561047857600080fd5b506104816112d7565b6040516103df9190615322565b34801561049a57600080fd5b5061046a6104a9366004614a4c565b6112e9565b3480156104ba57600080fd5b506104086104c9366004614bc2565b611477565b3480156104da57600080fd5b50610408611489565b3480156104ef57600080fd5b5061046a6104fe366004614a14565b61148f565b34801561050f57600080fd5b5061046a61051e366004614a14565b611596565b34801561052f57600080fd5b5061040861169d565b34801561054457600080fd5b506104816116a3565b34801561055957600080fd5b506105626116b4565b6040516103df9190614e35565b34801561057b57600080fd5b5061040861058a366004614bc2565b6116d4565b34801561059b57600080fd5b506104086116e6565b3480156105b057600080fd5b506104086105bf366004614a77565b6116ec565b3480156105d057600080fd5b5061048161171a565b3480156105e557600080fd5b5061040861172b565b3480156105fa57600080fd5b50610408611731565b34801561060f57600080fd5b5061062361061e366004614a14565b611737565b6040516103df9190614e2a565b34801561063c57600080fd5b5061040861064b366004614a14565b611751565b34801561065c57600080fd5b5061040861066b366004614bc2565b611c11565b34801561067c57600080fd5b5061040861068b366004614bc2565b611c23565b34801561069c57600080fd5b506103d2611c35565b3480156106b157600080fd5b50610408611c44565b3480156106c657600080fd5b506104086106d5366004614ca5565b611c4a565b3480156106e657600080fd5b506106fa6106f5366004614bc2565b611c63565b6040516103df9796959493929190614e48565b34801561071957600080fd5b506103d2611dd6565b34801561072e57600080fd5b50610408611deb565b34801561074357600080fd5b50610408610752366004614a14565b611df1565b34801561076357600080fd5b50610481611e03565b34801561077857600080fd5b5061046a610787366004614a4c565b611e13565b34801561079857600080fd5b5061046a6107a7366004614bc2565b611fa1565b3480156107b857600080fd5b50610408612046565b3480156107cd57600080fd5b506103d261204c565b3480156107e257600080fd5b5061046a6107f1366004614ce1565b61205b565b34801561080257600080fd5b50610408610811366004614bc2565b612879565b34801561082257600080fd5b5061040861288b565b34801561083757600080fd5b50610481612891565b34801561084c57600080fd5b5061040861085b366004614bc2565b61289b565b34801561086c57600080fd5b5061062361087b366004614bc2565b6128ad565b34801561088c57600080fd5b506104086128c2565b3480156108a157600080fd5b506104086108b0366004614bc2565b6128c8565b3480156108c157600080fd5b506106236108d0366004614bc2565b6128da565b3480156108e157600080fd5b506103d26128ef565b3480156108f657600080fd5b5061046a610905366004614a14565b6128fe565b34801561091657600080fd5b5061046a612a05565b34801561092b57600080fd5b5061046a61093a366004614a14565b613084565b34801561094b57600080fd5b5061046a61095a366004614a4c565b613225565b34801561096b57600080fd5b506104816133b3565b61046a610982366004614bc2565b6133c4565b34801561099357600080fd5b506109a76109a2366004614bc2565b61371f565b6040516103df91906153ca565b3480156109c057600080fd5b506103d2613734565b3480156109d557600080fd5b5061046a6109e4366004614a14565b613743565b3480156109f557600080fd5b5061046a610a04366004614b41565b6137d3565b348015610a1557600080fd5b50610623613929565b348015610a2a57600080fd5b50610408610a39366004614ca5565b613939565b348015610a4a57600080fd5b50610408610a59366004614bc2565b613952565b348015610a6a57600080fd5b50610408613964565b348015610a7f57600080fd5b5061046a610a8e366004614a14565b61396a565b348015610a9f57600080fd5b5061046a6139f2565b600b602052600090815260409020546001600160a01b031681565b601f5460405163dac4d45360e01b81526000916001600160a01b03169063dac4d45390610af4908590600401614db6565b60006040518083038186803b158015610b0c57600080fd5b505afa158015610b20573d6000803e3d6000fd5b505060205460405163211d238360e01b8152600093506001600160a01b03909116915063211d238390610b57908690600401614db6565b60206040518083038186803b158015610b6f57600080fd5b505afa158015610b83573d6000803e3d6000fd5b505050506040513d601f19601f82011682018060405250810190610ba79190614bda565b905080610bb85760009150506110fe565b6020546040516322d8a98960e11b81526060916001600160a01b0316906345b1531290610be9908790600401614db6565b60006040518083038186803b158015610c0157600080fd5b505afa158015610c15573d6000803e3d6000fd5b505050506040513d6000823e601f3d908101601f19168201604052610c3d9190810190614a89565b90506000805b838110156110f8576000838281518110610c5957fe5b602002602001015190506000600f60008381526020019081526020016000205490508060001415610c8b5750506110f0565b600082815260106020908152604091829020805483518184028101840190945280845260609392830182828015610ce157602002820191906000526020600020905b815481526020019060010190808311610ccd575b50939450600093505050505b828110156110eb576000828281518110610d0357fe5b60209081029190910101516021546040516313e7cb0960e31b81529192506060916001600160a01b0390911690639f3e584890610d44908590600401615331565b60006040518083038186803b158015610d5c57600080fd5b505afa158015610d70573d6000803e3d6000fd5b505050506040513d6000823e601f3d908101601f19168201604052610d989190810190614a89565b60008381526014602052604081205491925090610db7575050506110e3565b8151610dc5575050506110e3565b602154604051632cb1c8cb60e21b8152601e916000916001600160a01b039091169063b2c7232c90610dfb908890600401615331565b60206040518083038186803b158015610e1357600080fd5b505afa158015610e27573d6000803e3d6000fd5b505050506040513d601f19601f82011682018060405250810190610e4b9190614bda565b815260208101919091526040016000205460ff16151560011415610e71575050506110e3565b81515b80156110a5576000836001830381518110610e8b57fe5b602090810291909101015160215460405163b4c2f72760e01b815291925060009182916001600160a01b03169063b4c2f72790610ecc908690600401615331565b60006040518083038186803b158015610ee457600080fd5b505afa158015610ef8573d6000803e3d6000fd5b505050506040513d6000823e601f3d908101601f19168201604052610f209190810190614bf2565b9350935050508015156001151514610f3a5750505061109c565b6000838152601e602052604090205460ff16151560011415610f5e5750505061109c565b6001841115611054576000866002860381518110610f7857fe5b602090810291909101015160215460405163b4c2f72760e01b815291925060009182916001600160a01b03169063b4c2f72790610fb9908690600401615331565b60006040518083038186803b158015610fd157600080fd5b505afa158015610fe5573d6000803e3d6000fd5b505050506040513d6000823e601f3d908101601f1916820160405261100d9190810190614bf2565b935093505050801515600115151461102a5750505050505061109c565b61104a61103d868463ffffffff61418116565b899063ffffffff6141cc16565b9750505050611098565b6110956110886001898154811061106757fe5b9060005260206000209060060201600201548461418190919063ffffffff16565b869063ffffffff6141cc16565b94505b5050505b60001901610e74565b5080156110df576000838152601560205260409020546110dc906110cf908363ffffffff6141f116565b8a9063ffffffff6141cc16565b98505b5050505b600101610ced565b505050505b600101610c43565b50925050505b919050565b6022546001600160a01b031681565b60036020526000908152604090205481565b601f546001600160a01b0316638413ec1461113d61422b565b6040518263ffffffff1660e01b81526004016111599190614db6565b60006040518083038186803b15801561117157600080fd5b505afa158015611185573d6000803e3d6000fd5b505050506000601b54116111b45760405162461bcd60e51b81526004016111ab906152c2565b60405180910390fd5b601b548111156111d65760405162461bcd60e51b81526004016111ab90614ee3565b601b546111e9908263ffffffff61418116565b601b5560235460405163a9059cbb60e01b81526000916001600160a01b03169063a9059cbb9061121f9086908690600401614dee565b602060405180830381600087803b15801561123957600080fd5b505af115801561124d573d6000803e3d6000fd5b505050506040513d601f19601f820116820180604052508101906112719190614b21565b9050806112905760405162461bcd60e51b81526004016111ab906152f9565b7f62d04bd016f8ff3d3bc5ddf54b8d0b5467875aa297e4fe86497eaf5a19c9319183836112bb61422b565b6040516112ca93929190614e07565b60405180910390a1505050565b601654640100000000900461ffff1681565b601f546001600160a01b0316638413ec1461130261422b565b6040518263ffffffff1660e01b815260040161131e9190614db6565b60006040518083038186803b15801561133657600080fd5b505afa15801561134a573d6000803e3d6000fd5b505050506000601c54116113705760405162461bcd60e51b81526004016111ab906150f1565b601c548111156113925760405162461bcd60e51b81526004016111ab906150c1565b601c546113a5908263ffffffff61418116565b601c5560235460405163a9059cbb60e01b81526000916001600160a01b03169063a9059cbb906113db9086908690600401614dee565b602060405180830381600087803b1580156113f557600080fd5b505af1158015611409573d6000803e3d6000fd5b505050506040513d601f19601f8201168201806040525081019061142d9190614b21565b90508061144c5760405162461bcd60e51b81526004016111ab906152f9565b7f6187d97d4269f9fbc5bbf5236356e532fd1663f4b499ddde1fb1f363dd1b355283836112bb61422b565b600f6020526000908152604090205481565b601c5481565b601f546001600160a01b0316638413ec146114a861422b565b6040518263ffffffff1660e01b81526004016114c49190614db6565b60006040518083038186803b1580156114dc57600080fd5b505afa1580156114f0573d6000803e3d6000fd5b505050506000819050806001600160a01b03166337b9fd776040518163ffffffff1660e01b815260040160206040518083038186803b15801561153257600080fd5b505afa158015611546573d6000803e3d6000fd5b505050506040513d601f19601f8201168201806040525081019061156a9190614b21565b61157357600080fd5b602280546001600160a01b0319166001600160a01b039290921691909117905550565b601f546001600160a01b0316638413ec146115af61422b565b6040518263ffffffff1660e01b81526004016115cb9190614db6565b60006040518083038186803b1580156115e357600080fd5b505afa1580156115f7573d6000803e3d6000fd5b505050506000819050806001600160a01b0316634cff2b0f6040518163ffffffff1660e01b815260040160206040518083038186803b15801561163957600080fd5b505afa15801561164d573d6000803e3d6000fd5b505050506040513d601f19601f820116820180604052508101906116719190614b21565b61167a57600080fd5b602080546001600160a01b0319166001600160a01b039290921691909117905550565b60045481565b601654600160301b900461ffff1681565b6040805180820190915260058152640322e302e360dc1b60208201525b90565b60146020526000908152604090205481565b60055481565b600d602052816000526040600020818154811061170557fe5b90600052602060002001600091509150505481565b601654600160401b900461ffff1681565b601b5481565b60185481565b6000546201000090046001600160a01b0390811691161490565b601f54604051636dc1ccab60e01b81526000916001600160a01b031690636dc1ccab90611782908590600401614db6565b60006040518083038186803b15801561179a57600080fd5b505afa1580156117ae573d6000803e3d6000fd5b505050506001600160a01b0382166000908152600c6020526040902054806117da5760009150506110fe565b6001600160a01b0383166000908152600d60209081526040808320805482518185028101850190935280835260609383018282801561183857602002820191906000526020600020905b815481526020019060010190808311611824575b50939450600093505050505b83811015611c0757600082828151811061185a57fe5b60209081029190910101516021546040516313e7cb0960e31b81529192506060916001600160a01b0390911690639f3e58489061189b908590600401615331565b60006040518083038186803b1580156118b357600080fd5b505afa1580156118c7573d6000803e3d6000fd5b505050506040513d6000823e601f3d908101601f191682016040526118ef9190810190614a89565b6000838152601260205260408120549192509061190e57505050611bff565b815161191c57505050611bff565b602154604051632cb1c8cb60e21b8152601d916000916001600160a01b039091169063b2c7232c90611952908890600401615331565b60206040518083038186803b15801561196a57600080fd5b505afa15801561197e573d6000803e3d6000fd5b505050506040513d601f19601f820116820180604052508101906119a29190614bda565b815260208101919091526040016000205460ff161515600114156119c857505050611bff565b81515b8015611bc15760008360018303815181106119e257fe5b602090810291909101015160215460405163b4c2f72760e01b815291925060009182916001600160a01b03169063b4c2f72790611a23908690600401615331565b60006040518083038186803b158015611a3b57600080fd5b505afa158015611a4f573d6000803e3d6000fd5b505050506040513d6000823e601f3d908101601f19168201604052611a779190810190614bf2565b9350935050508015156001151514611a9157505050611bb8565b6000838152601d602052604090205460ff16151560011415611ab557505050611bb8565b6001841115611b9e576000866002860381518110611acf57fe5b602090810291909101015160215460405163b4c2f72760e01b815291925060009182916001600160a01b03169063b4c2f72790611b10908690600401615331565b60006040518083038186803b158015611b2857600080fd5b505afa158015611b3c573d6000803e3d6000fd5b505050506040513d6000823e601f3d908101601f19168201604052611b649190810190614bf2565b9350935050508015156001151514611b8157505050505050611bb8565b611b9461103d868463ffffffff61418116565b9750505050611bb4565b611bb16110886001898154811061106757fe5b94505b5050505b600019016119cb565b508015611bfb57600083815260136020526040902054611bf890611beb908363ffffffff6141f116565b879063ffffffff6141cc16565b95505b5050505b600101611844565b5090949350505050565b600a6020526000908152604090205481565b600e6020526000908152604090205481565b6020546001600160a01b031681565b60085481565b6011602052816000526040600020818154811061170557fe5b60018181548110611c7057fe5b60009182526020918290206006919091020180546040805160026001841615610100026000190190931692909204601f810185900485028301850190915280825291935091839190830182828015611d095780601f10611cde57610100808354040283529160200191611d09565b820191906000526020600020905b815481529060010190602001808311611cec57829003601f168201915b505050505090806001018054600181600116156101000203166002900480601f016020809104026020016040519081016040528092919081815260200182805460018160011615610100020316600290048015611da75780601f10611d7c57610100808354040283529160200191611da7565b820191906000526020600020905b815481529060010190602001808311611d8a57829003601f168201915b505050506002830154600384015460048501546005909501549394919390925060ff8082169161010090041687565b6000546201000090046001600160a01b031681565b601a5481565b600c6020526000908152604090205481565b60165462010000900461ffff1681565b601f546001600160a01b0316638413ec14611e2c61422b565b6040518263ffffffff1660e01b8152600401611e489190614db6565b60006040518083038186803b158015611e6057600080fd5b505afa158015611e74573d6000803e3d6000fd5b505050506000601a5411611e9a5760405162461bcd60e51b81526004016111ab90614e9e565b601a54811115611ebc5760405162461bcd60e51b81526004016111ab90614f11565b601a54611ecf908263ffffffff61418116565b601a5560235460405163a9059cbb60e01b81526000916001600160a01b03169063a9059cbb90611f059086908690600401614dee565b602060405180830381600087803b158015611f1f57600080fd5b505af1158015611f33573d6000803e3d6000fd5b505050506040513d601f19601f82011682018060405250810190611f579190614b21565b905080611f765760405162461bcd60e51b81526004016111ab906152f9565b7f12098abea4f2c45e0b3b235c35a41641fdb1070185464e9698d4482f0d805a8083836112bb61422b565b601f546001600160a01b0316638413ec14611fba61422b565b6040518263ffffffff1660e01b8152600401611fd69190614db6565b60006040518083038186803b158015611fee57600080fd5b505afa158015612002573d6000803e3d6000fd5b5050506002829055506040517fa6dc15bdb68da224c66db4b3838d9a2b205138e8cff6774e57d0af91e196d6229061203b908390615331565b60405180910390a150565b60075481565b6021546001600160a01b031681565b601f60009054906101000a90046001600160a01b03166001600160a01b0316634d868f986040518163ffffffff1660e01b815260040160006040518083038186803b1580156120a957600080fd5b505afa1580156120bd573d6000803e3d6000fd5b5050601f546001600160a01b03169150636dc1ccab90506120dc61422b565b6040518263ffffffff1660e01b81526004016120f89190614db6565b60006040518083038186803b15801561211057600080fd5b505afa158015612124573d6000803e3d6000fd5b5050602054600092506001600160a01b0316905063b19f7af661214561422b565b6040518263ffffffff1660e01b81526004016121619190614db6565b60206040518083038186803b15801561217957600080fd5b505afa15801561218d573d6000803e3d6000fd5b505050506040513d601f19601f820116820180604052508101906121b19190614bda565b60085460075491925060009111156123985750600880546000818152600660205260409020546001918201909255869086908181106121ec57fe5b90506020028101906121fe91906153d8565b6001838154811061220b57fe5b6000918252602090912061222593600690920201916148a4565b508585600281811061223357fe5b905060200281019061224591906153d8565b6001838154811061225257fe5b906000526020600020906006020160010191906122709291906148a4565b50426001828154811061227f57fe5b90600052602060002090600602016002018190555042600182815481106122a257fe5b906000526020600020906006020160030181905550838360008181106122c457fe5b90506020020160208101906122d99190614cc6565b600182815481106122e657fe5b906000526020600020906006020160050160006101000a81548160ff021916908360ff1602179055508383600181811061231c57fe5b90506020020160208101906123319190614cc6565b6001828154811061233e57fe5b906000526020600020906006020160050160016101000a81548160ff021916908360ff16021790555060066000612381600160085461418190919063ffffffff16565b8152602001908152602001600020600090556125f3565b60016040518060e00160405280888860018181106123b257fe5b90506020028101906123c491906153d8565b8080601f0160208091040260200160405190810160405280939291908181526020018383808284376000920191909152505050908252506020018888600281811061240b57fe5b905060200281019061241d91906153d8565b8080601f01602080910402602001604051908101604052809392919081815260200183838082843760009201829052509385525050426020840181905260408401525060608201819052608090910190879087908161247857fe5b905060200201602081019061248d9190614cc6565b60ff168152602001868660018181106124a257fe5b90506020020160208101906124b79190614cc6565b60ff169052815460018101835560009283526020928390208251805193946006909302909101926124eb9284920190614922565b5060208281015180516125049260018501920190614922565b5060408201516002820155606082015160038201556080820151600482015560a08201516005909101805460c09093015160ff9081166101000261ff00199190931660ff1990941693909317929092161790556001805461256a9163ffffffff61418116565b600480546000908152600360205260409020829055805460010190556022549091506001600160a01b031663a14481946125a261422b565b836040518363ffffffff1660e01b81526004016125c0929190614dee565b600060405180830381600087803b1580156125da57600080fd5b505af11580156125ee573d6000803e3d6000fd5b505050505b60608686600081811061260257fe5b905060200281019061261491906153d8565b8080601f01602080910402602001604051908101604052809392919081815260200183838082843760009201919091525050825192935050901590506126d4576022546001600160a01b031663162094c483898960008161267157fe5b905060200281019061268391906153d8565b6040518463ffffffff1660e01b81526004016126a19392919061533a565b600060405180830381600087803b1580156126bb57600080fd5b505af11580156126cf573d6000803e3d6000fd5b505050505b6000828152600a60209081526040808320869055858352600f82528083208054600190810190915560108352818420805480830182559085528385200186905585845260098352818420805460ff191660ff8e169081179091558452600e83528184208054820190556011835290832080549182018155835291200182905561275b61422b565b6000838152600b6020526040812080546001600160a01b0319166001600160a01b039390931692909217909155600c9061279361422b565b6001600160a01b031681526020810191909152604001600090812080546001019055600d906127c061422b565b6001600160a01b031681526020808201929092526040016000908120805460018181018355918352929091209091018390557f8f459fdbb8df0d89bfc15695769fb148c5e437248bcefd41ce8319980363ac739083908990899081811061282357fe5b905060200281019061283591906153d8565b8a8a600281811061284257fe5b905060200281019061285491906153d8565b426040516128679695949392919061535d565b60405180910390a15050505050505050565b60126020526000908152604090205481565b60025481565b60165461ffff1681565b60136020526000908152604090205481565b601d6020526000908152604090205460ff1681565b60195481565b60066020526000908152604090205481565b601e6020526000908152604090205460ff1681565b6023546001600160a01b031681565b601f546001600160a01b0316638413ec1461291761422b565b6040518263ffffffff1660e01b81526004016129339190614db6565b60006040518083038186803b15801561294b57600080fd5b505afa15801561295f573d6000803e3d6000fd5b505050506000819050806001600160a01b031663edbe8d4e6040518163ffffffff1660e01b815260040160206040518083038186803b1580156129a157600080fd5b505afa1580156129b5573d6000803e3d6000fd5b505050506040513d601f19601f820116820180604052508101906129d99190614b21565b6129e257600080fd5b602180546001600160a01b0319166001600160a01b039290921691909117905550565b601f546001600160a01b0316636dc1ccab612a1e61422b565b6040518263ffffffff1660e01b8152600401612a3a9190614db6565b60006040518083038186803b158015612a5257600080fd5b505afa158015612a66573d6000803e3d6000fd5b505050506000600c6000612a7861422b565b6001600160a01b03166001600160a01b0316815260200190815260200160002054905060008111612abb5760405162461bcd60e51b81526004016111ab906151a5565b60006060600d82612aca61422b565b6001600160a01b03166001600160a01b03168152602001908152602001600020805480602002602001604051908101604052809291908181526020018280548015612b3457602002820191906000526020600020905b815481526020019060010190808311612b20575b50939450600093505050505b83811015612f5c576000828281518110612b5657fe5b60209081029190910101516021546040516313e7cb0960e31b81529192506060916001600160a01b0390911690639f3e584890612b97908590600401615331565b60006040518083038186803b158015612baf57600080fd5b505afa158015612bc3573d6000803e3d6000fd5b505050506040513d6000823e601f3d908101601f19168201604052612beb9190810190614a89565b60008381526012602052604081205491925090612c0a57505050612f54565b8151612c1857505050612f54565b602154604051632cb1c8cb60e21b8152601d916000916001600160a01b039091169063b2c7232c90612c4e908890600401615331565b60206040518083038186803b158015612c6657600080fd5b505afa158015612c7a573d6000803e3d6000fd5b505050506040513d601f19601f82011682018060405250810190612c9e9190614bda565b815260208101919091526040016000205460ff16151560011415612cc457505050612f54565b81515b8015612ed5576000836001830381518110612cde57fe5b602090810291909101015160215460405163b4c2f72760e01b815291925060009182916001600160a01b03169063b4c2f72790612d1f908690600401615331565b60006040518083038186803b158015612d3757600080fd5b505afa158015612d4b573d6000803e3d6000fd5b505050506040513d6000823e601f3d908101601f19168201604052612d739190810190614bf2565b9350935050508015156001151514612d8d57505050612ecc565b6000838152601d602052604090205460ff16151560011415612db157505050612ecc565b6001841115612e9a576000866002860381518110612dcb57fe5b602090810291909101015160215460405163b4c2f72760e01b815291925060009182916001600160a01b03169063b4c2f72790612e0c908690600401615331565b60006040518083038186803b158015612e2457600080fd5b505afa158015612e38573d6000803e3d6000fd5b505050506040513d6000823e601f3d908101601f19168201604052612e609190810190614bf2565b9350935050508015156001151514612e7d57505050505050612ecc565b612e9061103d868463ffffffff61418116565b9750505050612eb0565b612ead6110886001898154811061106757fe5b94505b50506000908152601d60205260409020805460ff191660011790555b60001901612cc7565b508015612f5057600083815260136020526040902054612eff90611beb908363ffffffff6141f116565b600084815260136020526040902054909650612f4090612f25908363ffffffff6141f116565b6000858152601260205260409020549063ffffffff61418116565b6000848152601260205260409020555b5050505b600101612b40565b5060008211612f7d5760405162461bcd60e51b81526004016111ab9061528b565b601854612f90908363ffffffff61418116565b6018556023546000906001600160a01b031663a9059cbb612faf61422b565b856040518363ffffffff1660e01b8152600401612fcd929190614dee565b602060405180830381600087803b158015612fe757600080fd5b505af1158015612ffb573d6000803e3d6000fd5b505050506040513d601f19601f8201168201806040525081019061301f9190614b21565b90508061303e5760405162461bcd60e51b81526004016111ab906152f9565b7f904f6efa098ad71916df8db0841744bccf6de28374ac90cef4b36b9d8a35e44561306761422b565b84604051613076929190614dee565b60405180910390a150505050565b600054610100900460ff168061309d575061309d61425d565b806130ab575060005460ff16155b6130c75760405162461bcd60e51b81526004016111ab90615157565b600054610100900460ff161580156130f2576000805460ff1961ff0019909116610100171660011790555b6000805460ff60b01b1916600160b01b1790556040805163ba84fd6960e01b8152905183916001600160a01b0383169163ba84fd6991600480820192602092909190829003018186803b15801561314857600080fd5b505afa15801561315c573d6000803e3d6000fd5b505050506040513d601f19601f820116820180604052508101906131809190614b21565b61318957600080fd5b601f80546001600160a01b0319166001600160a01b0392909216919091179055601680546109c461ffff199091161763ffff00001916630fa000001765ffff0000000019166501f4000000001767ffff00000000000019166705dc0000000000001761ffff60401b19166903e800000000000000001761ffff60501b1916607d60521b1790558015613221576000805461ff00191690555b5050565b601f546001600160a01b0316638413ec1461323e61422b565b6040518263ffffffff1660e01b815260040161325a9190614db6565b60006040518083038186803b15801561327257600080fd5b505afa158015613286573d6000803e3d6000fd5b505050506000601754116132ac5760405162461bcd60e51b81526004016111ab9061508a565b6017548111156132ce5760405162461bcd60e51b81526004016111ab90615128565b6017546132e1908263ffffffff61418116565b60175560235460405163a9059cbb60e01b81526000916001600160a01b03169063a9059cbb906133179086908690600401614dee565b602060405180830381600087803b15801561333157600080fd5b505af1158015613345573d6000803e3d6000fd5b505050506040513d601f19601f820116820180604052508101906133699190614b21565b9050806133885760405162461bcd60e51b81526004016111ab906152f9565b7f83d711958340e227f2f6a07692120dac5303cd6c43aefe818dccd5a741fe756a83836112bb61422b565b601654600160501b900461ffff1681565b600081116133e45760405162461bcd60e51b81526004016111ab90615254565b6002546000906133fa908363ffffffff6141f116565b60235490915081906001600160a01b03166370a0823161341861422b565b6040518263ffffffff1660e01b81526004016134349190614db6565b60206040518083038186803b15801561344c57600080fd5b505afa158015613460573d6000803e3d6000fd5b505050506040513d601f19601f820116820180604052508101906134849190614bda565b10156134a25760405162461bcd60e51b81526004016111ab90614f7f565b6023546000906001600160a01b03166323b872dd6134be61422b565b30856040518463ffffffff1660e01b81526004016134de93929190614dca565b602060405180830381600087803b1580156134f857600080fd5b505af115801561350c573d6000803e3d6000fd5b505050506040513d601f19601f820116820180604052508101906135309190614b21565b90508061354f5760405162461bcd60e51b81526004016111ab90614f48565b60005b838160ff16101561371957601654600254600091829161357c9162010000900461ffff1690614263565b6005546004549192506000918291101561369557600554600090815260036020908152604080832054808452600a83528184205492549151636b78fcb560e11b81529097509192916001600160a01b039091169063d6f1f96a906135e4908590600401615331565b60206040518083038186803b1580156135fc57600080fd5b505afa158015613610573d6000803e3d6000fd5b505050506040513d601f19601f820116820180604052508101906136349190614a30565b90506001600160a01b03811615613668576016546002546001945061366591640100000000900461ffff1690614263565b93505b61368c61367361422b565b8661367d886142df565b87613687896142df565b614302565b955050506136b5565b6136b26136a061422b565b846136aa866142df565b6000806144c0565b93505b6136c1600254826146ab565b7f9681ab8e09ad40146a520b55501382d4b0ab62944580202d102da0fcf50535558484846002546136f061422b565b60405161370195949392919061539e565b60405180910390a15050600190920191506135529050565b50505050565b60096020526000908152604090205460ff1681565b601f546001600160a01b031681565b601f546001600160a01b0316638413ec1461375c61422b565b6040518263ffffffff1660e01b81526004016137789190614db6565b60006040518083038186803b15801561379057600080fd5b505afa1580156137a4573d6000803e3d6000fd5b5050600080546001600160a01b03909416620100000262010000600160b01b0319909416939093179092555050565b601f546001600160a01b0316638413ec146137ec61422b565b6040518263ffffffff1660e01b81526004016138089190614db6565b60006040518083038186803b15801561382057600080fd5b505afa158015613834573d6000803e3d6000fd5b5050505061387f8161ffff166138738461ffff166138738761ffff166138738a61ffff166138738d61ffff168f61ffff166141cc90919063ffffffff16565b9063ffffffff6141cc16565b6127101461389f5760405162461bcd60e51b81526004016111ab90614fb6565b6016805461ffff191661ffff9788161763ffff0000191662010000968816969096029590951765ffff000000001916640100000000948716949094029390931767ffff0000000000001916600160301b928616929092029190911761ffff60401b1916600160401b918516919091021761ffff60501b1916600160501b9190931602919091179055565b600054600160b01b900460ff1681565b6010602052816000526040600020818154811061170557fe5b60156020526000908152604090205481565b60175481565b601f546001600160a01b0316638413ec1461398361422b565b6040518263ffffffff1660e01b815260040161399f9190614db6565b60006040518083038186803b1580156139b757600080fd5b505afa1580156139cb573d6000803e3d6000fd5b5050602380546001600160a01b0319166001600160a01b0394909416939093179092555050565b601f546001600160a01b031663dac4d453613a0b61422b565b6040518263ffffffff1660e01b8152600401613a279190614db6565b60006040518083038186803b158015613a3f57600080fd5b505afa158015613a53573d6000803e3d6000fd5b5050602054600092506001600160a01b0316905063211d2383613a7461422b565b6040518263ffffffff1660e01b8152600401613a909190614db6565b60206040518083038186803b158015613aa857600080fd5b505afa158015613abc573d6000803e3d6000fd5b505050506040513d601f19601f82011682018060405250810190613ae09190614bda565b905060008111613b025760405162461bcd60e51b81526004016111ab90615053565b6020546060906001600160a01b03166345b15312613b1e61422b565b6040518263ffffffff1660e01b8152600401613b3a9190614db6565b60006040518083038186803b158015613b5257600080fd5b505afa158015613b66573d6000803e3d6000fd5b505050506040513d6000823e601f3d908101601f19168201604052613b8e9190810190614a89565b90506000805b83811015614067576000838281518110613baa57fe5b602002602001015190506000600f60008381526020019081526020016000205490508060001415613bdc57505061405f565b600082815260106020908152604091829020805483518184028101840190945280845260609392830182828015613c3257602002820191906000526020600020905b815481526020019060010190808311613c1e575b50939450600093505050505b8281101561405a576000828281518110613c5457fe5b60209081029190910101516021546040516313e7cb0960e31b81529192506060916001600160a01b0390911690639f3e584890613c95908590600401615331565b60006040518083038186803b158015613cad57600080fd5b505afa158015613cc1573d6000803e3d6000fd5b505050506040513d6000823e601f3d908101601f19168201604052613ce99190810190614a89565b60008381526014602052604081205491925090613d0857505050614052565b8151613d1657505050614052565b602154604051632cb1c8cb60e21b8152601e916000916001600160a01b039091169063b2c7232c90613d4c908890600401615331565b60206040518083038186803b158015613d6457600080fd5b505afa158015613d78573d6000803e3d6000fd5b505050506040513d601f19601f82011682018060405250810190613d9c9190614bda565b815260208101919091526040016000205460ff16151560011415613dc257505050614052565b81515b8015613fd3576000836001830381518110613ddc57fe5b602090810291909101015160215460405163b4c2f72760e01b815291925060009182916001600160a01b03169063b4c2f72790613e1d908690600401615331565b60006040518083038186803b158015613e3557600080fd5b505afa158015613e49573d6000803e3d6000fd5b505050506040513d6000823e601f3d908101601f19168201604052613e719190810190614bf2565b9350935050508015156001151514613e8b57505050613fca565b6000838152601e602052604090205460ff16151560011415613eaf57505050613fca565b6001841115613f98576000866002860381518110613ec957fe5b602090810291909101015160215460405163b4c2f72760e01b815291925060009182916001600160a01b03169063b4c2f72790613f0a908690600401615331565b60006040518083038186803b158015613f2257600080fd5b505afa158015613f36573d6000803e3d6000fd5b505050506040513d6000823e601f3d908101601f19168201604052613f5e9190810190614bf2565b9350935050508015156001151514613f7b57505050505050613fca565b613f8e61103d868463ffffffff61418116565b9750505050613fae565b613fab6110886001898154811061106757fe5b94505b50506000908152601e60205260409020805460ff191660011790555b60001901613dc5565b50801561404e57600083815260156020526040902054613ffd906110cf908363ffffffff6141f116565b60008481526015602052604090205490995061403e90614023908363ffffffff6141f116565b6000858152601460205260409020549063ffffffff61418116565b6000848152601460205260409020555b5050505b600101613c3e565b505050505b600101613b94565b50600081116140885760405162461bcd60e51b81526004016111ab9061528b565b60195461409b908263ffffffff61418116565b6019556023546000906001600160a01b031663a9059cbb6140ba61422b565b846040518363ffffffff1660e01b81526004016140d8929190614dee565b602060405180830381600087803b1580156140f257600080fd5b505af1158015614106573d6000803e3d6000fd5b505050506040513d601f19601f8201168201806040525081019061412a9190614b21565b9050806141495760405162461bcd60e51b81526004016111ab906152f9565b7f46d3ec67d736e34f6c5652d7a86f6aaab1a156c42c2bffa6adb8cb78f125204361417261422b565b83604051613076929190614dee565b60006141c383836040518060400160405280601e81526020017f536166654d6174683a207375627472616374696f6e206f766572666c6f770000815250614804565b90505b92915050565b6000828201838110156141c35760405162461bcd60e51b81526004016111ab9061501c565b600082614200575060006141c6565b8282028284828161420d57fe5b04146141c35760405162461bcd60e51b81526004016111ab906151dc565b600060183610801590614242575061424233611737565b15614256575060131936013560601c6116d1565b50336116d1565b303b1590565b6000821580614270575081155b1561427d575060006141c6565b816142a0612710614294838263ffffffff61483016565b9063ffffffff6141f116565b146142bd5760405162461bcd60e51b81526004016111ab90614ff9565b6141c36127106142d3848663ffffffff6141f116565b9063ffffffff61483016565b6000816142ee575060006110fe565b6141c6826305a39a8063ffffffff61483016565b6000600554600454116143275760405162461bcd60e51b81526004016111ab9061521d565b60058054600081815260036020526040902054600191820190925580544291908390811061435157fe5b6000918252602090912060046006909202010155851561438a576000818152601260209081526040808320899055601390915290208590555b83156143af576000818152601460209081526040808320879055601590915290208390555b6022546040516331a9108f60e11b81526001600160a01b039091169063b9b7be5b908290636352211e906143e7908690600401615331565b60206040518083038186803b1580156143ff57600080fd5b505afa158015614413573d6000803e3d6000fd5b505050506040513d601f19601f820116820180604052508101906144379190614a30565b89846040518463ffffffff1660e01b815260040161445793929190614dca565b600060405180830381600087803b15801561447157600080fd5b505af1158015614485573d6000803e3d6000fd5b50505050600360006144a3600160055461418190919063ffffffff16565b815260208101919091526040016000908120559695505050505050565b6040805161010081018252600060e082018181528252825160208181018552828252808401919091529282018190526060820181905242608083015260a0820181905260c0820181905260018054808201825590825282518051929460069092027fb10e2d527612073b26eecdfd717e6a320cf44b4afac2b0732d9fcbe2b7fa0cf601926145519284920190614922565b50602082810151805161456a9260018501920190614922565b5060408201516002820155606082015160038201556080820151600482015560a08201516005909101805460c09093015160ff9081166101000261ff00199190931660ff199094169390931792909216179055600180546000916145d4919063ffffffff61418116565b6007805460009081526006602052604090208290558054600101905590508515614617576000818152601260209081526040808320899055601390915290208590555b831561463c576000818152601460209081526040808320879055601590915290208390555b602254604051632851206560e21b81526001600160a01b039091169063a14481949061466e908a908590600401614dee565b600060405180830381600087803b15801561468857600080fd5b505af115801561469c573d6000803e3d6000fd5b50929998505050505050505050565b60165460009081906146c890600160301b900461ffff1685614263565b9050600183151514156146f5576016546146ee90640100000000900461ffff1685614263565b9150614722565b60165461471f9061471290640100000000900461ffff1686614263565b829063ffffffff6141cc16565b90505b601654614746906147379061ffff1686614263565b6017549063ffffffff6141cc16565b601755601654614773906147649062010000900461ffff1686614263565b6018549063ffffffff6141cc16565b601855601954614789908363ffffffff6141cc16565b601955601a5461479f908263ffffffff6141cc16565b601a556016546147cd906147be90600160401b900461ffff1686614263565b601b549063ffffffff6141cc16565b601b556016546147fb906147ec90600160501b900461ffff1686614263565b601c549063ffffffff6141cc16565b601c5550505050565b600081848411156148285760405162461bcd60e51b81526004016111ab9190614e35565b505050900390565b60006141c383836040518060400160405280601a81526020017f536166654d6174683a206469766973696f6e206279207a65726f0000000000008152506000818361488e5760405162461bcd60e51b81526004016111ab9190614e35565b50600083858161489a57fe5b0495945050505050565b828054600181600116156101000203166002900490600052602060002090601f016020900481019282601f106148e55782800160ff19823516178555614912565b82800160010185558215614912579182015b828111156149125782358255916020019190600101906148f7565b5061491e929150614990565b5090565b828054600181600116156101000203166002900490600052602060002090601f016020900481019282601f1061496357805160ff1916838001178555614912565b82800160010185558215614912579182015b82811115614912578251825591602001919060010190614975565b6116d191905b8082111561491e5760008155600101614996565b60008083601f8401126149bb578182fd5b50813567ffffffffffffffff8111156149d2578182fd5b60208301915083602080830285010111156149ec57600080fd5b9250929050565b805180151581146141c657600080fd5b803560ff811681146141c657600080fd5b600060208284031215614a25578081fd5b81356141c381615492565b600060208284031215614a41578081fd5b81516141c381615492565b60008060408385031215614a5e578081fd5b8235614a6981615492565b946020939093013593505050565b60008060408385031215614a5e578182fd5b60006020808385031215614a9b578182fd5b825167ffffffffffffffff811115614ab1578283fd5b80840185601f820112614ac2578384fd5b80519150614ad7614ad283615446565b61541f565b8281528381019082850185850284018601891015614af3578687fd5b8693505b84841015614b15578051835260019390930192918501918501614af7565b50979650505050505050565b600060208284031215614b32578081fd5b815180151581146141c3578182fd5b60008060008060008060c08789031215614b59578182fd5b8635614b64816154aa565b95506020870135614b74816154aa565b94506040870135614b84816154aa565b93506060870135614b94816154aa565b92506080870135614ba4816154aa565b915060a0870135614bb4816154aa565b809150509295509295509295565b600060208284031215614bd3578081fd5b5035919050565b600060208284031215614beb578081fd5b5051919050565b60008060008060808587031215614c07578384fd5b84519350602085015167ffffffffffffffff80821115614c25578485fd5b81870188601f820112614c36578586fd5b8051925081831115614c46578586fd5b614c59601f8401601f191660200161541f565b9150828252886020848301011115614c6f578586fd5b614c80836020840160208401615466565b50809450505060408501519150614c9a86606087016149f3565b905092959194509250565b60008060408385031215614cb7578182fd5b50508035926020909101359150565b600060208284031215614cd7578081fd5b6141c38383614a03565b600080600080600060608688031215614cf8578283fd5b614d028787614a03565b9450602086013567ffffffffffffffff80821115614d1e578485fd5b614d2a89838a016149aa565b90965094506040880135915080821115614d42578283fd5b50614d4f888289016149aa565b969995985093965092949392505050565b60008284528282602086013780602084860101526020601f19601f85011685010190509392505050565b60008151808452614da2816020860160208601615466565b601f01601f19169290920160200192915050565b6001600160a01b0391909116815260200190565b6001600160a01b039384168152919092166020820152604081019190915260600190565b6001600160a01b03929092168252602082015260400190565b6001600160a01b0393841681526020810192909252909116604082015260600190565b901515815260200190565b6000602082526141c36020830184614d8a565b600060e08252614e5b60e083018a614d8a565b8281036020840152614e6d818a614d8a565b604084019890985250506060810194909452608084019290925260ff90811660a08401521660c09091015292915050565b60208082526025908201527f6c6f63616c446576656c6f706d656e7446756e642062616c616e6365206973206040820152647a65726f2160d81b606082015260800190565b6020808252601490820152734e6f74206d6f72652072657363756546756e642160601b604082015260600190565b6020808252601e908201527f4e6f74206d6f7265206c6f63616c446576656c6f706d656e7446756e64210000604082015260600190565b6020808252601b908201527f5472616e736665722046726f6d2073656e646572206661696c65640000000000604082015260600190565b60208082526019908201527f42616c616e6365206973206e6f742073756666696369656e7400000000000000604082015260600190565b60208082526023908201527f50657263656e74616765732073756d206d75737420657175616c20746f20313060408201526203030360ec1b606082015260800190565b602080825260099082015268151bdbc81cdb585b1b60ba1b604082015260600190565b6020808252601b908201527f536166654d6174683a206164646974696f6e206f766572666c6f770000000000604082015260600190565b6020808252601b908201527f416d6261737361646f7220676220636f756e74206973207a65726f0000000000604082015260600190565b6020808252601c908201527f747265656a657246756e642062616c616e6365206973207a65726f2100000000604082015260600190565b6020808252601690820152754e6f74206d6f726520726573656172636846756e642160501b604082015260600190565b6020808252601d908201527f726573656172636846756e642062616c616e6365206973207a65726f21000000604082015260600190565b6020808252601590820152744e6f74206d6f726520747265656a657246756e642160581b604082015260600190565b6020808252602e908201527f496e697469616c697a61626c653a20636f6e747261637420697320616c72656160408201526d191e481a5b9a5d1a585b1a5e995960921b606082015260800190565b6020808252601a908201527f506c616e746572207472656520636f756e74206973207a65726f000000000000604082015260600190565b60208082526021908201527f536166654d6174683a206d756c7469706c69636174696f6e206f766572666c6f6040820152607760f81b606082015260800190565b60208082526019908201527f5468657265206973206e6f742066756e64656420747265657300000000000000604082015260600190565b60208082526018908201527f636f756e74206d75737420626967676572207468616e20300000000000000000604082015260600190565b6020808252601b908201527f776974686472617761626c6542616c616e6365206973207a65726f0000000000604082015260600190565b6020808252601b908201527f72657363756546756e642062616c616e6365206973207a65726f210000000000604082015260600190565b6020808252600f908201526e1dda5d1a191c985dc819985a5b1959608a1b604082015260600190565b61ffff91909116815260200190565b90815260200190565b600084825260406020830152615354604083018486614d60565b95945050505050565b600087825260806020830152615377608083018789614d60565b828103604084015261538a818688614d60565b915050826060830152979650505050505050565b9485526020850193909352604084019190915260608301526001600160a01b0316608082015260a00190565b60ff91909116815260200190565b6000808335601e198436030181126153ee578283fd5b8084018035925067ffffffffffffffff831115615409578384fd5b602001925050368190038213156149ec57600080fd5b60405181810167ffffffffffffffff8111828210171561543e57600080fd5b604052919050565b600067ffffffffffffffff82111561545c578081fd5b5060209081020190565b60005b83811015615481578181015183820152602001615469565b838111156137195750506000910152565b6001600160a01b03811681146154a757600080fd5b50565b61ffff811681146154a757600080fdfea26469706673582212201aef365f4829b6daae64fdeda44b8beb24ed5d6fbba938dba1d8a4c1a084db2f64736f6c634300060a0033",
  "immutableReferences": {},
  "source": "// SPDX-License-Identifier: GPL-3.0\n\npragma solidity >=0.4.21 <0.7.0;\npragma experimental ABIEncoderV2;\n\nimport \"@openzeppelin/contracts-upgradeable/proxy/Initializable.sol\";\nimport \"@openzeppelin/contracts-upgradeable/math/SafeMathUpgradeable.sol\";\nimport \"@openzeppelin/contracts/token/ERC20/IERC20.sol\";\n\nimport \"../access/IAccessRestriction.sol\";\nimport \"../greenblock/IGBFactory.sol\";\nimport \"./IUpdateFactory.sol\";\nimport \"./ITree.sol\";\nimport \"../gsn/RelayRecipient.sol\";\n\ncontract TreeFactory is Initializable, RelayRecipient {\n    using SafeMathUpgradeable for uint256;\n    using SafeMathUpgradeable for uint16;\n\n    event PriceChanged(uint256 price);\n    event TreePlanted(\n        uint256 id,\n        string latitude,\n        string longitude,\n        uint256 plantedDate\n    );\n    event TreeFunded(\n        uint256 treeId,\n        uint256 planterBalance,\n        uint256 ambassadorBalance,\n        uint256 totalFund,\n        address owner\n    );\n    event PlanterBalanceWithdrawn(address planter, uint256 amount);\n    event AmbassadorBalanceWithdrawn(address ambassador, uint256 amount);\n    event TreejerFundWithdrawn(address to, uint256 amount, address by);\n    event LocalDevelopmentFundWithdrawn(address to, uint256 amount, address by);\n    event RescueFundWithdrawn(address to, uint256 amount, address by);\n    event ResearchFundWithdrawn(address to, uint256 amount, address by);\n\n    bool public isTreeFactory;\n\n    struct Tree {\n        string latitude;\n        string longitude;\n        uint256 plantedDate;\n        uint256 birthDate;\n        uint256 fundedDate;\n        uint8 height;\n        uint8 diameter;\n    }\n    Tree[] public trees;\n\n    uint256 public price;\n\n    mapping(uint256 => uint256) public notFundedTrees;\n    uint256 public notFundedTreesLastIndex;\n    uint256 public notFundedTreesUsedIndex;\n\n    mapping(uint256 => uint256) public notPlantedTrees;\n    uint256 public notPlantedTreesLastIndex;\n    uint256 public notPlantedTreesUsedIndex;\n\n    mapping(uint256 => uint8) public treeToType;\n    mapping(uint256 => uint256) public treeToGB;\n    mapping(uint256 => address) public treeToPlanter;\n    mapping(address => uint256) public planterTreeCount;\n    mapping(address => uint256[]) public planterTrees;\n    mapping(uint256 => uint256) public typeTreeCount;\n    mapping(uint256 => uint256) public gbTreeCount;\n    mapping(uint256 => uint256[]) public gbTrees;\n    mapping(uint256 => uint256[]) public typeTrees;\n\n    mapping(uint256 => uint256) public treeToPlanterRemainingBalance;\n    mapping(uint256 => uint256) public treeToPlanterBalancePerSecond;\n\n    mapping(uint256 => uint256) public treeToAmbassadorRemainingBalance;\n    mapping(uint256 => uint256) public treeToAmbassadorBalancePerSecond;\n\n    // 100 percentages basis points = 1 percentage\n    uint16 public treejerPercentage;\n    uint16 public plantersPercentage;\n    uint16 public ambassadorsPercentage;\n    uint16 public localDevelopmentFundPercentage;\n    uint16 public rescueFundPercentage;\n    uint16 public researchFundPercentage;\n\n    uint256 public treejerFund;\n    uint256 public plantersFund;\n    uint256 public ambassadorsFund;\n    uint256 public localDevelopmentFund;\n    uint256 public rescueFund;\n    uint256 public researchFund;\n\n    mapping(uint256 => bool) public updateToPlanterBalanceWithdrawn;\n    mapping(uint256 => bool) public updateToAmbassadorBalanceWithdrawn;\n\n    // 1 common year 31536000 seconds * 3 year\n    uint256 constant treeBalanceWithdrawnSeconds = 94608000;\n\n    //related contrects\n    IAccessRestriction public accessRestriction;\n    IGBFactory public gbFactory;\n    IUpdateFactory public updateFactory;\n    ITree public treeToken;\n    IERC20 public daiToken;\n\n    function initialize(address _accessRestrictionAddress) public initializer {\n        isTreeFactory = true;\n\n        IAccessRestriction candidateContract =\n            IAccessRestriction(_accessRestrictionAddress);\n        require(candidateContract.isAccessRestriction());\n        accessRestriction = candidateContract;\n\n        //set default percentages\n        treejerPercentage = 2500;\n        plantersPercentage = 4000;\n        ambassadorsPercentage = 500;\n        localDevelopmentFundPercentage = 1500;\n        rescueFundPercentage = 1000;\n        researchFundPercentage = 500;\n    }\n\n    function setTrustedForwarder(address _address) external {\n        accessRestriction.ifAdmin(_msgSender());\n\n        trustedForwarder = _address;\n    }\n\n    function setGBFactoryAddress(address _address) external {\n        accessRestriction.ifAdmin(_msgSender());\n\n        IGBFactory candidateContract = IGBFactory(_address);\n        require(candidateContract.isGBFactory());\n        gbFactory = candidateContract;\n    }\n\n    function setUpdateFactoryAddress(address _address) external {\n        accessRestriction.ifAdmin(_msgSender());\n\n        IUpdateFactory candidateContract = IUpdateFactory(_address);\n        require(candidateContract.isUpdateFactory());\n        updateFactory = candidateContract;\n    }\n\n    function setTreeTokenAddress(address _address) external {\n        accessRestriction.ifAdmin(_msgSender());\n\n        ITree candidateContract = ITree(_address);\n        require(candidateContract.isTree());\n        treeToken = candidateContract;\n    }\n\n    function setDaiTokenAddress(address _address) external {\n        accessRestriction.ifAdmin(_msgSender());\n        IERC20 candidateContract = IERC20(_address);\n        daiToken = candidateContract;\n    }\n\n    function plant(\n        uint8 _typeId,\n        string[] calldata _stringParams,\n        uint8[] calldata _uintParams\n    ) external {\n        accessRestriction.ifNotPaused();\n        accessRestriction.ifPlanter(_msgSender());\n\n        uint256 gbId = gbFactory.planterGB(_msgSender());\n\n        uint256 id = 0;\n\n        if (notPlantedTreesLastIndex > notPlantedTreesUsedIndex) {\n            id = notPlantedTrees[notPlantedTreesUsedIndex];\n            notPlantedTreesUsedIndex++;\n\n            trees[id].latitude = _stringParams[1];\n            trees[id].longitude = _stringParams[2];\n            trees[id].plantedDate = block.timestamp;\n            trees[id].birthDate = block.timestamp;\n            trees[id].height = _uintParams[0];\n            trees[id].diameter = _uintParams[1];\n\n            delete notPlantedTrees[notPlantedTreesUsedIndex.sub(1)];\n        } else {\n            trees.push(\n                Tree(\n                    _stringParams[1],\n                    _stringParams[2],\n                    block.timestamp,\n                    block.timestamp,\n                    0,\n                    _uintParams[0],\n                    _uintParams[1]\n                )\n            );\n            id = trees.length.sub(1);\n\n            notFundedTrees[notFundedTreesLastIndex] = id;\n            notFundedTreesLastIndex++;\n            treeToken.safeMint(_msgSender(), id);\n        }\n\n        bytes memory uriStringByte = bytes(_stringParams[0]);\n        if (uriStringByte.length > 0) {\n            treeToken.setTokenURI(id, _stringParams[0]);\n        }\n\n        treeToGB[id] = gbId;\n        gbTreeCount[gbId]++;\n        gbTrees[gbId].push(id);\n\n        treeToType[id] = _typeId;\n        typeTreeCount[_typeId]++;\n        typeTrees[_typeId].push(id);\n\n        treeToPlanter[id] = _msgSender();\n        planterTreeCount[_msgSender()]++;\n        planterTrees[_msgSender()].push(id);\n\n        emit TreePlanted(\n            id,\n            _stringParams[1],\n            _stringParams[2],\n            block.timestamp\n        );\n    }\n\n    function simpleFund(\n        address _account,\n        uint256 _planterBalance,\n        uint256 _planterBalancePerSecond,\n        uint256 _ambassadorBalance,\n        uint256 _ambassadorBalancePerSecond\n    ) internal returns (uint256) {\n        trees.push(Tree(\"\", \"\", 0, 0, block.timestamp, 0, 0));\n        uint256 id = trees.length.sub(1);\n\n        notPlantedTrees[notPlantedTreesLastIndex] = id;\n        notPlantedTreesLastIndex++;\n\n        if (_planterBalance > 0) {\n            treeToPlanterRemainingBalance[id] = _planterBalance;\n            treeToPlanterBalancePerSecond[id] = _planterBalancePerSecond;\n        }\n\n        if (_ambassadorBalance > 0) {\n            treeToAmbassadorRemainingBalance[id] = _ambassadorBalance;\n            treeToAmbassadorBalancePerSecond[id] = _ambassadorBalancePerSecond;\n        }\n\n        treeToken.safeMint(_account, id);\n\n        return id;\n    }\n\n    function fundPlantedTress(\n        address _account,\n        uint256 _planterBalance,\n        uint256 _planterBalancePerSecond,\n        uint256 _ambassadorBalance,\n        uint256 _ambassadorBalancePerSecond\n    ) internal returns (uint256) {\n        require(\n            notFundedTreesLastIndex > notFundedTreesUsedIndex,\n            \"There is not funded trees\"\n        );\n\n        uint256 treeId = notFundedTrees[notFundedTreesUsedIndex];\n        notFundedTreesUsedIndex++;\n\n        trees[treeId].fundedDate = block.timestamp;\n\n        if (_planterBalance > 0) {\n            treeToPlanterRemainingBalance[treeId] = _planterBalance;\n            treeToPlanterBalancePerSecond[treeId] = _planterBalancePerSecond;\n        }\n\n        if (_ambassadorBalance > 0) {\n            treeToAmbassadorRemainingBalance[treeId] = _ambassadorBalance;\n            treeToAmbassadorBalancePerSecond[\n                treeId\n            ] = _ambassadorBalancePerSecond;\n        }\n\n        treeToken.safeTransferExtra(\n            treeToken.ownerOf(treeId),\n            _account,\n            treeId\n        );\n\n        delete notFundedTrees[notFundedTreesUsedIndex.sub(1)];\n\n        return treeId;\n    }\n\n    function setPrice(uint256 _price) external {\n        accessRestriction.ifAdmin(_msgSender());\n\n        price = _price;\n        emit PriceChanged(_price);\n    }\n\n    function fund(uint256 _count) external payable {\n        require(_count > 0, \"count must bigger than 0\");\n\n        uint256 totalPrice = price.mul(_count);\n\n        require(\n            daiToken.balanceOf(_msgSender()) >= totalPrice,\n            \"Balance is not sufficient\"\n        );\n\n        bool success =\n            daiToken.transferFrom(_msgSender(), address(this), totalPrice);\n        require(success, \"Transfer From sender failed\");\n\n        for (uint8 i = 0; i < _count; i++) {\n            uint256 id = 0;\n            uint256 planterBalance = _calculateShare(plantersPercentage, price);\n            uint256 ambassadorBalance = 0;\n            bool hasAmbassador = false;\n\n            //check for\n            if (notFundedTreesLastIndex > notFundedTreesUsedIndex) {\n                id = notFundedTrees[notFundedTreesUsedIndex];\n                uint256 gbId = treeToGB[id];\n                address gbAmbassador = gbFactory.gbToAmbassador(gbId);\n\n                if (gbAmbassador != address(0)) {\n                    hasAmbassador = true;\n                    ambassadorBalance = _calculateShare(\n                        ambassadorsPercentage,\n                        price\n                    );\n                }\n\n                id = fundPlantedTress(\n                    _msgSender(),\n                    planterBalance,\n                    _calculateSharePerSecond(planterBalance),\n                    ambassadorBalance,\n                    _calculateSharePerSecond(ambassadorBalance)\n                );\n            } else {\n                id = simpleFund(\n                    _msgSender(),\n                    planterBalance,\n                    _calculateSharePerSecond(planterBalance),\n                    0,\n                    0\n                );\n            }\n\n            _updateBalances(price, hasAmbassador);\n\n            emit TreeFunded(\n                id,\n                planterBalance,\n                ambassadorBalance,\n                price,\n                _msgSender()\n            );\n        }\n    }\n\n    function _calculateSharePerSecond(uint256 _amount)\n        private\n        pure\n        returns (uint256)\n    {\n        if (_amount == 0) {\n            return 0;\n        }\n\n        return _amount.div(treeBalanceWithdrawnSeconds);\n    }\n\n    function _calculateShare(uint256 _percentage, uint256 _amount)\n        private\n        pure\n        returns (uint256)\n    {\n        if (_percentage == 0 || _amount == 0) {\n            return 0;\n        }\n\n        require((_amount.div(10000)).mul(10000) == _amount, \"Too small\");\n\n        return (_amount.mul(_percentage)).div(10000);\n    }\n\n    function _updateBalances(uint256 _balance, bool _hasAmbassador) private {\n        uint256 ambassadorBalance = 0;\n\n        uint256 localDevelopmentFundBalance =\n            _calculateShare(localDevelopmentFundPercentage, _balance);\n\n        if (_hasAmbassador == true) {\n            ambassadorBalance = _calculateShare(\n                ambassadorsPercentage,\n                _balance\n            );\n        } else {\n            localDevelopmentFundBalance = localDevelopmentFundBalance.add(\n                _calculateShare(ambassadorsPercentage, _balance)\n            );\n        }\n\n        treejerFund = treejerFund.add(\n            _calculateShare(treejerPercentage, _balance)\n        );\n        plantersFund = plantersFund.add(\n            _calculateShare(plantersPercentage, _balance)\n        );\n        ambassadorsFund = ambassadorsFund.add(ambassadorBalance);\n        localDevelopmentFund = localDevelopmentFund.add(\n            localDevelopmentFundBalance\n        );\n        rescueFund = rescueFund.add(\n            _calculateShare(rescueFundPercentage, _balance)\n        );\n        researchFund = researchFund.add(\n            _calculateShare(researchFundPercentage, _balance)\n        );\n    }\n\n    function withdrawTreejerFund(address payable _to, uint256 _amount)\n        external\n    {\n        accessRestriction.ifAdmin(_msgSender());\n\n        require(treejerFund > 0, \"treejerFund balance is zero!\");\n        require(_amount <= treejerFund, \"Not more treejerFund!\");\n\n        treejerFund = treejerFund.sub(_amount);\n\n        bool success = daiToken.transfer(_to, _amount);\n        require(success, \"withdraw failed\");\n\n        emit TreejerFundWithdrawn(_to, _amount, _msgSender());\n    }\n\n    function withdrawLocalDevelopmentFund(address payable _to, uint256 _amount)\n        external\n    {\n        accessRestriction.ifAdmin(_msgSender());\n\n        require(\n            localDevelopmentFund > 0,\n            \"localDevelopmentFund balance is zero!\"\n        );\n        require(\n            _amount <= localDevelopmentFund,\n            \"Not more localDevelopmentFund!\"\n        );\n\n        localDevelopmentFund = localDevelopmentFund.sub(_amount);\n\n        bool success = daiToken.transfer(_to, _amount);\n        require(success, \"withdraw failed\");\n\n        emit LocalDevelopmentFundWithdrawn(_to, _amount, _msgSender());\n    }\n\n    function withdrawRescueFund(address payable _to, uint256 _amount) external {\n        accessRestriction.ifAdmin(_msgSender());\n\n        require(rescueFund > 0, \"rescueFund balance is zero!\");\n        require(_amount <= rescueFund, \"Not more rescueFund!\");\n\n        rescueFund = rescueFund.sub(_amount);\n\n        bool success = daiToken.transfer(_to, _amount);\n        require(success, \"withdraw failed\");\n\n        emit RescueFundWithdrawn(_to, _amount, _msgSender());\n    }\n\n    function withdrawResearchFund(address payable _to, uint256 _amount)\n        external\n    {\n        accessRestriction.ifAdmin(_msgSender());\n\n        require(researchFund > 0, \"researchFund balance is zero!\");\n        require(_amount <= researchFund, \"Not more researchFund!\");\n\n        researchFund = researchFund.sub(_amount);\n\n        bool success = daiToken.transfer(_to, _amount);\n        require(success, \"withdraw failed\");\n\n        emit ResearchFundWithdrawn(_to, _amount, _msgSender());\n    }\n\n    function withdrawPlanterBalance() external {\n        accessRestriction.ifPlanter(_msgSender());\n\n        uint256 planterTreesCount = planterTreeCount[_msgSender()];\n\n        require(planterTreesCount > 0, \"Planter tree count is zero\");\n\n        uint256 withdrawableBalance = 0;\n        uint256[] memory treeIds = planterTrees[_msgSender()];\n\n        for (uint256 i = 0; i < planterTreesCount; i++) {\n            uint256 treeId = treeIds[i];\n\n            uint256[] memory treeUpdates = updateFactory.getTreeUpdates(treeId);\n            uint256 totalSeconds = 0;\n\n            if (treeToPlanterRemainingBalance[treeId] <= 0) {\n                continue;\n            }\n\n            if (treeUpdates.length == 0) {\n                continue;\n            }\n\n            if (\n                updateToPlanterBalanceWithdrawn[\n                    updateFactory.getTreeLastUpdateId(treeId)\n                ] == true\n            ) {\n                continue;\n            }\n\n            for (uint256 j = treeUpdates.length; j > 0; j--) {\n                uint256 jUpdateId = treeUpdates[j - 1];\n\n                (, , uint256 jUpdateDate, bool jUpdateStatus) =\n                    updateFactory.updates(jUpdateId);\n\n                if (jUpdateStatus != true) {\n                    continue;\n                }\n\n                if (updateToPlanterBalanceWithdrawn[jUpdateId] == true) {\n                    continue;\n                }\n\n                if (j > 1) {\n                    uint256 jMinusUpdateId = treeUpdates[j - 2];\n\n                    (, , uint256 jMUpdateDate, bool jMUpdateStatus) =\n                        updateFactory.updates(jMinusUpdateId);\n\n                    if (jMUpdateStatus != true) {\n                        continue;\n                    }\n\n                    totalSeconds = totalSeconds.add(\n                        jUpdateDate.sub(jMUpdateDate)\n                    );\n                } else {\n                    totalSeconds = totalSeconds.add(\n                        jUpdateDate.sub(trees[treeId].plantedDate)\n                    );\n                }\n\n                updateToPlanterBalanceWithdrawn[jUpdateId] = true;\n            }\n\n            if (totalSeconds > 0) {\n                withdrawableBalance = withdrawableBalance.add(\n                    treeToPlanterBalancePerSecond[treeId].mul(totalSeconds)\n                );\n                treeToPlanterRemainingBalance[\n                    treeId\n                ] = treeToPlanterRemainingBalance[treeId].sub(\n                    treeToPlanterBalancePerSecond[treeId].mul(totalSeconds)\n                );\n            }\n        }\n\n        require(withdrawableBalance > 0, \"withdrawableBalance is zero\");\n\n        plantersFund = plantersFund.sub(withdrawableBalance);\n\n        bool success = daiToken.transfer(_msgSender(), withdrawableBalance);\n        require(success, \"withdraw failed\");\n\n        emit PlanterBalanceWithdrawn(_msgSender(), withdrawableBalance);\n    }\n\n    function withdrawAmbassadorBalance() external {\n        accessRestriction.ifAmbassador(_msgSender());\n\n        uint256 ambassadorGBCount = gbFactory.ambassadorGBCount(_msgSender());\n\n        require(ambassadorGBCount > 0, \"Ambassador gb count is zero\");\n\n        uint256[] memory gbIds = gbFactory.getAmbassadorGBs(_msgSender());\n\n        uint256 withdrawableBalance = 0;\n\n        for (uint256 k = 0; k < ambassadorGBCount; k++) {\n            uint256 _gbId = gbIds[k];\n\n            uint256 gbTreesCount = gbTreeCount[_gbId];\n\n            if (gbTreesCount == 0) {\n                continue;\n            }\n\n            uint256[] memory treeIds = gbTrees[_gbId];\n\n            for (uint256 i = 0; i < gbTreesCount; i++) {\n                uint256 treeId = treeIds[i];\n\n                uint256[] memory treeUpdates =\n                    updateFactory.getTreeUpdates(treeId);\n                uint256 totalSeconds = 0;\n\n                if (treeToAmbassadorRemainingBalance[treeId] <= 0) {\n                    continue;\n                }\n\n                if (treeUpdates.length == 0) {\n                    continue;\n                }\n\n                if (\n                    updateToAmbassadorBalanceWithdrawn[\n                        updateFactory.getTreeLastUpdateId(treeId)\n                    ] == true\n                ) {\n                    continue;\n                }\n\n                for (uint256 j = treeUpdates.length; j > 0; j--) {\n                    uint256 jUpdateId = treeUpdates[j - 1];\n\n                    (, , uint256 jUpdateDate, bool jUpdateStatus) =\n                        updateFactory.updates(jUpdateId);\n\n                    if (jUpdateStatus != true) {\n                        continue;\n                    }\n\n                    if (updateToAmbassadorBalanceWithdrawn[jUpdateId] == true) {\n                        continue;\n                    }\n\n                    if (j > 1) {\n                        uint256 jMinusUpdateId = treeUpdates[j - 2];\n                        (, , uint256 jMUpdateDate, bool jMUpdateStatus) =\n                            updateFactory.updates(jMinusUpdateId);\n\n                        if (jMUpdateStatus != true) {\n                            continue;\n                        }\n\n                        totalSeconds = totalSeconds.add(\n                            jUpdateDate.sub(jMUpdateDate)\n                        );\n                    } else {\n                        totalSeconds = totalSeconds.add(\n                            jUpdateDate.sub(trees[treeId].plantedDate)\n                        );\n                    }\n\n                    updateToAmbassadorBalanceWithdrawn[jUpdateId] = true;\n                }\n\n                if (totalSeconds > 0) {\n                    withdrawableBalance = withdrawableBalance.add(\n                        treeToAmbassadorBalancePerSecond[treeId].mul(\n                            totalSeconds\n                        )\n                    );\n                    treeToAmbassadorRemainingBalance[\n                        treeId\n                    ] = treeToAmbassadorRemainingBalance[treeId].sub(\n                        treeToAmbassadorBalancePerSecond[treeId].mul(\n                            totalSeconds\n                        )\n                    );\n                }\n            }\n        }\n\n        require(withdrawableBalance > 0, \"withdrawableBalance is zero\");\n\n        ambassadorsFund = ambassadorsFund.sub(withdrawableBalance);\n\n        bool success = daiToken.transfer(_msgSender(), withdrawableBalance);\n        require(success, \"withdraw failed\");\n\n        emit AmbassadorBalanceWithdrawn(_msgSender(), withdrawableBalance);\n    }\n\n    function setAllPercentages(\n        uint16 _treejerPercentage,\n        uint16 _plantersPercentage,\n        uint16 _ambassadorsPercentage,\n        uint16 _localDevelopmentFundPercentage,\n        uint16 _rescueFundPercentage,\n        uint16 _researchFundPercentage\n    ) external {\n        accessRestriction.ifAdmin(_msgSender());\n\n        require(\n            _treejerPercentage\n                .add(_plantersPercentage)\n                .add(_ambassadorsPercentage)\n                .add(_localDevelopmentFundPercentage)\n                .add(_rescueFundPercentage)\n                .add(_researchFundPercentage) == 10000,\n            \"Percentages sum must equal to 10000\"\n        );\n\n        treejerPercentage = _treejerPercentage;\n        plantersPercentage = _plantersPercentage;\n        ambassadorsPercentage = _ambassadorsPercentage;\n        localDevelopmentFundPercentage = _localDevelopmentFundPercentage;\n        rescueFundPercentage = _rescueFundPercentage;\n        researchFundPercentage = _researchFundPercentage;\n    }\n\n    function getPlanterWithdrawableBalance(address _account)\n        external\n        view\n        returns (uint256)\n    {\n        accessRestriction.ifPlanter(_account);\n\n        uint256 planterTreesCount = planterTreeCount[_account];\n\n        if (planterTreesCount == 0) {\n            return 0;\n        }\n\n        uint256 withdrawableBalance = 0;\n        uint256[] memory treeIds = planterTrees[_account];\n\n        for (uint256 i = 0; i < planterTreesCount; i++) {\n            uint256 treeId = treeIds[i];\n\n            uint256[] memory treeUpdates = updateFactory.getTreeUpdates(treeId);\n            uint256 totalSeconds = 0;\n\n            if (treeToPlanterRemainingBalance[treeId] <= 0) {\n                continue;\n            }\n\n            if (treeUpdates.length == 0) {\n                continue;\n            }\n\n            if (\n                updateToPlanterBalanceWithdrawn[\n                    updateFactory.getTreeLastUpdateId(treeId)\n                ] == true\n            ) {\n                continue;\n            }\n\n            for (uint256 j = treeUpdates.length; j > 0; j--) {\n                uint256 jUpdateId = treeUpdates[j - 1];\n\n                (, , uint256 jUpdateDate, bool jUpdateStatus) =\n                    updateFactory.updates(jUpdateId);\n\n                if (jUpdateStatus != true) {\n                    continue;\n                }\n\n                if (updateToPlanterBalanceWithdrawn[jUpdateId] == true) {\n                    continue;\n                }\n\n                if (j > 1) {\n                    uint256 jMinusUpdateId = treeUpdates[j - 2];\n\n                    (, , uint256 jMUpdateDate, bool jMUpdateStatus) =\n                        updateFactory.updates(jMinusUpdateId);\n\n                    if (jMUpdateStatus != true) {\n                        continue;\n                    }\n\n                    totalSeconds = totalSeconds.add(\n                        jUpdateDate.sub(jMUpdateDate)\n                    );\n                } else {\n                    totalSeconds = totalSeconds.add(\n                        jUpdateDate.sub(trees[treeId].plantedDate)\n                    );\n                }\n            }\n\n            if (totalSeconds > 0) {\n                withdrawableBalance = withdrawableBalance.add(\n                    treeToPlanterBalancePerSecond[treeId].mul(totalSeconds)\n                );\n            }\n        }\n\n        return withdrawableBalance;\n    }\n\n    function getAmbassadorWithdrawableBalance(address _account)\n        external\n        view\n        returns (uint256)\n    {\n        accessRestriction.ifAmbassador(_account);\n\n        uint256 ambassadorGBCount = gbFactory.ambassadorGBCount(_account);\n\n        if (ambassadorGBCount == 0) {\n            return 0;\n        }\n\n        uint256[] memory gbIds = gbFactory.getAmbassadorGBs(_account);\n\n        uint256 withdrawableBalance = 0;\n\n        for (uint256 k = 0; k < ambassadorGBCount; k++) {\n            uint256 _gbId = gbIds[k];\n\n            uint256 gbTreesCount = gbTreeCount[_gbId];\n\n            if (gbTreesCount == 0) {\n                continue;\n            }\n\n            uint256[] memory treeIds = gbTrees[_gbId];\n\n            for (uint256 i = 0; i < gbTreesCount; i++) {\n                uint256 treeId = treeIds[i];\n\n                uint256[] memory treeUpdates =\n                    updateFactory.getTreeUpdates(treeId);\n                uint256 totalSeconds = 0;\n\n                if (treeToAmbassadorRemainingBalance[treeId] <= 0) {\n                    continue;\n                }\n\n                if (treeUpdates.length == 0) {\n                    continue;\n                }\n\n                if (\n                    updateToAmbassadorBalanceWithdrawn[\n                        updateFactory.getTreeLastUpdateId(treeId)\n                    ] == true\n                ) {\n                    continue;\n                }\n\n                for (uint256 j = treeUpdates.length; j > 0; j--) {\n                    uint256 jUpdateId = treeUpdates[j - 1];\n\n                    (, , uint256 jUpdateDate, bool jUpdateStatus) =\n                        updateFactory.updates(jUpdateId);\n\n                    if (jUpdateStatus != true) {\n                        continue;\n                    }\n\n                    if (updateToAmbassadorBalanceWithdrawn[jUpdateId] == true) {\n                        continue;\n                    }\n\n                    if (j > 1) {\n                        uint256 jMinusUpdateId = treeUpdates[j - 2];\n                        (, , uint256 jMUpdateDate, bool jMUpdateStatus) =\n                            updateFactory.updates(jMinusUpdateId);\n\n                        if (jMUpdateStatus != true) {\n                            continue;\n                        }\n\n                        totalSeconds = totalSeconds.add(\n                            jUpdateDate.sub(jMUpdateDate)\n                        );\n                    } else {\n                        totalSeconds = totalSeconds.add(\n                            jUpdateDate.sub(trees[treeId].plantedDate)\n                        );\n                    }\n                }\n\n                if (totalSeconds > 0) {\n                    withdrawableBalance = withdrawableBalance.add(\n                        treeToAmbassadorBalancePerSecond[treeId].mul(\n                            totalSeconds\n                        )\n                    );\n                }\n            }\n        }\n\n        return withdrawableBalance;\n    }\n}\n",
  "sourcePath": "/home/amir/Projects/treejer/contract/contracts/tree/TreeFactory.sol",
  "compiler": {
    "name": "solc",
    "version": "0.6.10+commit.00c0fcaf.Emscripten.clang"
  },
  "schemaVersion": "3.3.3",
  "updatedAt": "2021-01-30T12:22:44.226Z",
  "networkType": "ethereum",
  "devdoc": {
    "methods": {}
  },
  "userdoc": {
    "methods": {}
  }
}