{
  "contractName": "TreeType",
  "abi": [
    {
      "anonymous": false,
      "inputs": [
        {
          "indexed": false,
          "internalType": "uint256",
          "name": "typeId",
          "type": "uint256"
        },
        {
          "indexed": false,
          "internalType": "string",
          "name": "name",
          "type": "string"
        },
        {
          "indexed": false,
          "internalType": "string",
          "name": "scientificName",
          "type": "string"
        },
        {
          "indexed": false,
          "internalType": "uint256",
          "name": "O2Formula",
          "type": "uint256"
        },
        {
          "indexed": false,
          "internalType": "uint256",
          "name": "price",
          "type": "uint256"
        }
      ],
      "name": "NewType",
      "type": "event"
    },
    {
      "inputs": [],
      "name": "accessRestriction",
      "outputs": [
        {
          "internalType": "contract AccessRestriction",
          "name": "",
          "type": "address"
        }
      ],
      "stateMutability": "view",
      "type": "function",
      "constant": true
    },
    {
      "inputs": [],
      "name": "isTreeType",
      "outputs": [
        {
          "internalType": "bool",
          "name": "",
          "type": "bool"
        }
      ],
      "stateMutability": "view",
      "type": "function",
      "constant": true
    },
    {
      "inputs": [
        {
          "internalType": "uint256",
          "name": "",
          "type": "uint256"
        }
      ],
      "name": "types",
      "outputs": [
        {
          "internalType": "string",
          "name": "name",
          "type": "string"
        },
        {
          "internalType": "string",
          "name": "scientificName",
          "type": "string"
        },
        {
          "internalType": "uint256",
          "name": "O2Formula",
          "type": "uint256"
        },
        {
          "internalType": "uint256",
          "name": "price",
          "type": "uint256"
        }
      ],
      "stateMutability": "view",
      "type": "function",
      "constant": true
    },
    {
      "inputs": [
        {
          "internalType": "address",
          "name": "_accessRestrictionAddress",
          "type": "address"
        }
      ],
      "name": "initialize",
      "outputs": [],
      "stateMutability": "nonpayable",
      "type": "function"
    },
    {
      "inputs": [
        {
          "internalType": "string",
          "name": "_name",
          "type": "string"
        },
        {
          "internalType": "string",
          "name": "_scientificName",
          "type": "string"
        },
        {
          "internalType": "uint256",
          "name": "_O2Formula",
          "type": "uint256"
        },
        {
          "internalType": "uint256",
          "name": "_price",
          "type": "uint256"
        }
      ],
      "name": "create",
      "outputs": [],
      "stateMutability": "nonpayable",
      "type": "function"
    },
    {
      "inputs": [
        {
          "internalType": "uint256",
          "name": "_typeId",
          "type": "uint256"
        }
      ],
      "name": "get",
      "outputs": [
        {
          "internalType": "string",
          "name": "",
          "type": "string"
        },
        {
          "internalType": "string",
          "name": "",
          "type": "string"
        },
        {
          "internalType": "uint256",
          "name": "",
          "type": "uint256"
        },
        {
          "internalType": "uint256",
          "name": "",
          "type": "uint256"
        }
      ],
      "stateMutability": "view",
      "type": "function",
      "constant": true
    },
    {
      "inputs": [
        {
          "internalType": "uint256",
          "name": "_typeId",
          "type": "uint256"
        }
      ],
      "name": "getO2Formula",
      "outputs": [
        {
          "internalType": "uint256",
          "name": "",
          "type": "uint256"
        }
      ],
      "stateMutability": "view",
      "type": "function",
      "constant": true
    },
    {
      "inputs": [],
      "name": "count",
      "outputs": [
        {
          "internalType": "uint256",
          "name": "",
          "type": "uint256"
        }
      ],
      "stateMutability": "view",
      "type": "function",
      "constant": true
    }
  ],
  "bytecode": "0x608060405234801561001057600080fd5b50610ab7806100206000396000f3fe608060405234801561001057600080fd5b50600436106100885760003560e01c8063a20d99fc1161005b578063a20d99fc146101e9578063c4d66de8146102b3578063cefbfa36146102d9578063d6762c4a146102f657610088565b806306661abd1461008d578063252c7ffb146100a757806350aaf39d146100c45780639507d39a146100e0575b600080fd5b61009561031a565b60408051918252519081900360200190f35b610095600480360360208110156100bd57600080fd5b5035610321565b6100cc610349565b604080519115158252519081900360200190f35b6100fd600480360360208110156100f657600080fd5b5035610352565b604051808060200180602001858152602001848152602001838103835287818151815260200191508051906020019080838360005b8381101561014a578181015183820152602001610132565b50505050905090810190601f1680156101775780820380516001836020036101000a031916815260200191505b50838103825286518152865160209182019188019080838360005b838110156101aa578181015183820152602001610192565b50505050905090810190601f1680156101d75780820380516001836020036101000a031916815260200191505b50965050505050505060405180910390f35b6102b1600480360360808110156101ff57600080fd5b81019060208101813564010000000081111561021a57600080fd5b82018360208201111561022c57600080fd5b8035906020019184600183028401116401000000008311171561024e57600080fd5b91939092909160208101903564010000000081111561026c57600080fd5b82018360208201111561027e57600080fd5b803590602001918460018302840111640100000000831117156102a057600080fd5b9193509150803590602001356104ff565b005b6102b1600480360360208110156102c957600080fd5b50356001600160a01b0316610704565b6100fd600480360360208110156102ef57600080fd5b503561084c565b6102fe6109a6565b604080516001600160a01b039092168252519081900360200190f35b6034545b90565b60006034828154811061033057fe5b9060005260206000209060040201600201549050919050565b60335460ff1681565b6060806000806034858154811061036557fe5b90600052602060002090600402016000016034868154811061038357fe5b9060005260206000209060040201600101603487815481106103a157fe5b906000526020600020906004020160020154603488815481106103c057fe5b600091825260209182902060036004909202010154845460408051601f60026000196101006001871615020190941693909304928301859004850281018501909152818152919286919083018282801561045b5780601f106104305761010080835404028352916020019161045b565b820191906000526020600020905b81548152906001019060200180831161043e57829003601f168201915b5050865460408051602060026001851615610100026000190190941693909304601f8101849004840282018401909252818152959950889450925084019050828280156104e95780601f106104be576101008083540402835291602001916104e9565b820191906000526020600020905b8154815290600101906020018083116104cc57829003601f168201915b5050505050925093509350935093509193509193565b60355460408051632104fb0560e21b815233600482015290516001600160a01b0390921691638413ec1491602480820192600092909190829003018186803b15801561054a57600080fd5b505afa15801561055e573d6000803e3d6000fd5b505050506034604051806080016040528088888080601f016020809104026020016040519081016040528093929190818152602001838380828437600092019190915250505090825250604080516020601f89018190048102820181019092528781529181019190889088908190840183828082843760009201829052509385525050506020808301879052604090920185905283546001810185559381528190208251805193946004029091019261061a92849201906109bb565b50602082810151805161063392600185019201906109bb565b5060408201518160020155606082015181600301555050600060016034805490500390507f2487dd7f9b73172e67560419cf16d322bc9836c20aed2dc3edf57e9e9e9388bf818888888888886040518088815260200180602001806020018581526020018481526020018381038352898982818152602001925080828437600083820152601f01601f191690910184810383528781526020019050878780828437600083820152604051601f909101601f19169092018290039b50909950505050505050505050a150505050505050565b600054610100900460ff168061071d575061071d6109b5565b8061072b575060005460ff16155b6107665760405162461bcd60e51b815260040180806020018281038252602e815260200180610a54602e913960400191505060405180910390fd5b600054610100900460ff16158015610791576000805460ff1961ff0019909116610100171660011790555b6033805460ff191660011790556040805163ba84fd6960e01b8152905183916001600160a01b0383169163ba84fd6991600480820192602092909190829003018186803b1580156107e157600080fd5b505afa1580156107f5573d6000803e3d6000fd5b505050506040513d602081101561080b57600080fd5b505161081657600080fd5b603580546001600160a01b0319166001600160a01b03929092169190911790558015610848576000805461ff00191690555b5050565b6034818154811061085957fe5b60009182526020918290206004919091020180546040805160026001841615610100026000190190931692909204601f8101859004850283018501909152808252919350918391908301828280156108f25780601f106108c7576101008083540402835291602001916108f2565b820191906000526020600020905b8154815290600101906020018083116108d557829003601f168201915b505050505090806001018054600181600116156101000203166002900480601f0160208091040260200160405190810160405280929190818152602001828054600181600116156101000203166002900480156109905780601f1061096557610100808354040283529160200191610990565b820191906000526020600020905b81548152906001019060200180831161097357829003601f168201915b5050505050908060020154908060030154905084565b6035546001600160a01b031681565b303b1590565b828054600181600116156101000203166002900490600052602060002090601f016020900481019282601f106109fc57805160ff1916838001178555610a29565b82800160010185558215610a29579182015b82811115610a29578251825591602001919060010190610a0e565b50610a35929150610a39565b5090565b61031e91905b80821115610a355760008155600101610a3f56fe436f6e747261637420696e7374616e63652068617320616c7265616479206265656e20696e697469616c697a6564a2646970667358221220f7f1f9d89b4a0e1e411ae015e93ae466990e56908067a85e769b7235c03ed9f164736f6c63430006090033",
  "immutableReferences": {},
  "source": "// SPDX-License-Identifier: GPL-3.0\n\npragma solidity >=0.4.21 <0.7.0;\n\nimport \"../../node_modules/@openzeppelin/contracts-ethereum-package/contracts/math/SafeMath.sol\";\nimport \"../../node_modules/@openzeppelin/contracts-ethereum-package/contracts/utils/Address.sol\";\nimport \"../access/AccessRestriction.sol\";\nimport \"../../node_modules/@openzeppelin/contracts-ethereum-package/contracts/Initializable.sol\";\n\n\ncontract TreeType is Initializable {\n    using SafeMath for uint256;\n    using Address for address;\n\n    event NewType(\n        uint256 typeId,\n        string name,\n        string scientificName,\n        uint256 O2Formula,\n        uint256 price\n    );\n\n    struct Type {\n        string name;\n        string scientificName;\n        uint256 O2Formula;\n        uint256 price;\n    }\n\n    bool public isTreeType;\n\n    Type[] public types;\n\n    AccessRestriction public accessRestriction;\n\n    function initialize(address _accessRestrictionAddress) public initializer {\n        isTreeType = true;\n        AccessRestriction candidateContract = AccessRestriction(_accessRestrictionAddress);\n        require(candidateContract.isAccessRestriction());\n        accessRestriction = candidateContract;\n    }\n\n    //@todo permission must check\n    function create(\n        string calldata _name,\n        string calldata _scientificName,\n        uint _O2Formula,\n        uint _price\n    ) external {\n        accessRestriction.ifAdmin(msg.sender);\n\n\n        types.push(Type(_name, _scientificName, _O2Formula, _price));\n        uint256 id = types.length - 1;\n        \n        emit NewType(id, _name, _scientificName, _O2Formula, _price);\n    }\n\n    function get(uint256 _typeId)\n        external\n        view\n        returns (string memory, string memory, uint256, uint256)\n    {\n        return (\n            types[_typeId].name,\n            types[_typeId].scientificName,\n            types[_typeId].O2Formula,\n            types[_typeId].price\n        );\n    }\n\n    function getO2Formula(uint256 _typeId) public view returns(uint256) {\n        return types[_typeId].O2Formula;\n    }\n\n    function count() external view returns (uint256) {\n        return types.length;\n    }\n}\n",
  "sourcePath": "/home/amir/Projects/treejer/contract/contracts/tree/TreeType.sol",
  "compiler": {
    "name": "solc",
    "version": "0.6.9+commit.3e3065ac.Emscripten.clang"
  },
  "schemaVersion": "3.2.3",
  "updatedAt": "2020-10-27T15:23:08.271Z",
  "networkType": "ethereum",
  "devdoc": {
    "methods": {}
  },
  "userdoc": {
    "methods": {}
  }
}