{
  "contractName": "TreeFactory",
  "abi": [
    {
      "anonymous": false,
      "inputs": [
        {
          "indexed": false,
          "internalType": "address",
          "name": "ambassador",
          "type": "address"
        },
        {
          "indexed": false,
          "internalType": "uint256",
          "name": "amount",
          "type": "uint256"
        }
      ],
      "name": "AmbassadorBalanceWithdrawn",
      "type": "event"
    },
    {
      "anonymous": false,
      "inputs": [
        {
          "indexed": true,
          "internalType": "address",
          "name": "owner",
          "type": "address"
        },
        {
          "indexed": true,
          "internalType": "address",
          "name": "approved",
          "type": "address"
        },
        {
          "indexed": true,
          "internalType": "uint256",
          "name": "tokenId",
          "type": "uint256"
        }
      ],
      "name": "Approval",
      "type": "event"
    },
    {
      "anonymous": false,
      "inputs": [
        {
          "indexed": true,
          "internalType": "address",
          "name": "owner",
          "type": "address"
        },
        {
          "indexed": true,
          "internalType": "address",
          "name": "operator",
          "type": "address"
        },
        {
          "indexed": false,
          "internalType": "bool",
          "name": "approved",
          "type": "bool"
        }
      ],
      "name": "ApprovalForAll",
      "type": "event"
    },
    {
      "anonymous": false,
      "inputs": [
        {
          "indexed": false,
          "internalType": "address",
          "name": "planter",
          "type": "address"
        },
        {
          "indexed": false,
          "internalType": "uint256",
          "name": "amount",
          "type": "uint256"
        }
      ],
      "name": "PlanterBalanceWithdrawn",
      "type": "event"
    },
    {
      "anonymous": false,
      "inputs": [
        {
          "indexed": false,
          "internalType": "uint256",
          "name": "price",
          "type": "uint256"
        }
      ],
      "name": "PriceChanged",
      "type": "event"
    },
    {
      "anonymous": false,
      "inputs": [
        {
          "indexed": true,
          "internalType": "address",
          "name": "from",
          "type": "address"
        },
        {
          "indexed": true,
          "internalType": "address",
          "name": "to",
          "type": "address"
        },
        {
          "indexed": true,
          "internalType": "uint256",
          "name": "tokenId",
          "type": "uint256"
        }
      ],
      "name": "Transfer",
      "type": "event"
    },
    {
      "anonymous": false,
      "inputs": [
        {
          "indexed": false,
          "internalType": "uint256",
          "name": "treeId",
          "type": "uint256"
        },
        {
          "indexed": false,
          "internalType": "uint256",
          "name": "planterBalance",
          "type": "uint256"
        },
        {
          "indexed": false,
          "internalType": "uint256",
          "name": "ambassadorBalance",
          "type": "uint256"
        },
        {
          "indexed": false,
          "internalType": "uint256",
          "name": "totalFund",
          "type": "uint256"
        },
        {
          "indexed": false,
          "internalType": "address",
          "name": "owner",
          "type": "address"
        }
      ],
      "name": "TreeFunded",
      "type": "event"
    },
    {
      "anonymous": false,
      "inputs": [
        {
          "indexed": false,
          "internalType": "uint256",
          "name": "id",
          "type": "uint256"
        },
        {
          "indexed": false,
          "internalType": "string",
          "name": "name",
          "type": "string"
        },
        {
          "indexed": false,
          "internalType": "string",
          "name": "latitude",
          "type": "string"
        },
        {
          "indexed": false,
          "internalType": "string",
          "name": "longitude",
          "type": "string"
        }
      ],
      "name": "TreePlanted",
      "type": "event"
    },
    {
      "inputs": [],
      "name": "accessRestriction",
      "outputs": [
        {
          "internalType": "contract AccessRestriction",
          "name": "",
          "type": "address"
        }
      ],
      "stateMutability": "view",
      "type": "function",
      "constant": true
    },
    {
      "inputs": [
        {
          "internalType": "address",
          "name": "to",
          "type": "address"
        },
        {
          "internalType": "uint256",
          "name": "tokenId",
          "type": "uint256"
        }
      ],
      "name": "approve",
      "outputs": [],
      "stateMutability": "nonpayable",
      "type": "function"
    },
    {
      "inputs": [
        {
          "internalType": "address",
          "name": "owner",
          "type": "address"
        }
      ],
      "name": "balanceOf",
      "outputs": [
        {
          "internalType": "uint256",
          "name": "",
          "type": "uint256"
        }
      ],
      "stateMutability": "view",
      "type": "function",
      "constant": true
    },
    {
      "inputs": [
        {
          "internalType": "uint256",
          "name": "",
          "type": "uint256"
        }
      ],
      "name": "balances",
      "outputs": [
        {
          "internalType": "uint256",
          "name": "",
          "type": "uint256"
        }
      ],
      "stateMutability": "view",
      "type": "function",
      "constant": true
    },
    {
      "inputs": [],
      "name": "baseURI",
      "outputs": [
        {
          "internalType": "string",
          "name": "",
          "type": "string"
        }
      ],
      "stateMutability": "view",
      "type": "function",
      "constant": true
    },
    {
      "inputs": [],
      "name": "gbFactory",
      "outputs": [
        {
          "internalType": "contract GBFactory",
          "name": "",
          "type": "address"
        }
      ],
      "stateMutability": "view",
      "type": "function",
      "constant": true
    },
    {
      "inputs": [
        {
          "internalType": "uint256",
          "name": "",
          "type": "uint256"
        }
      ],
      "name": "gbTreeCount",
      "outputs": [
        {
          "internalType": "uint256",
          "name": "",
          "type": "uint256"
        }
      ],
      "stateMutability": "view",
      "type": "function",
      "constant": true
    },
    {
      "inputs": [
        {
          "internalType": "uint256",
          "name": "",
          "type": "uint256"
        },
        {
          "internalType": "uint256",
          "name": "",
          "type": "uint256"
        }
      ],
      "name": "gbTrees",
      "outputs": [
        {
          "internalType": "uint256",
          "name": "",
          "type": "uint256"
        }
      ],
      "stateMutability": "view",
      "type": "function",
      "constant": true
    },
    {
      "inputs": [
        {
          "internalType": "uint256",
          "name": "tokenId",
          "type": "uint256"
        }
      ],
      "name": "getApproved",
      "outputs": [
        {
          "internalType": "address",
          "name": "",
          "type": "address"
        }
      ],
      "stateMutability": "view",
      "type": "function",
      "constant": true
    },
    {
      "inputs": [
        {
          "internalType": "address",
          "name": "owner",
          "type": "address"
        },
        {
          "internalType": "address",
          "name": "operator",
          "type": "address"
        }
      ],
      "name": "isApprovedForAll",
      "outputs": [
        {
          "internalType": "bool",
          "name": "",
          "type": "bool"
        }
      ],
      "stateMutability": "view",
      "type": "function",
      "constant": true
    },
    {
      "inputs": [],
      "name": "isTreeFactory",
      "outputs": [
        {
          "internalType": "bool",
          "name": "",
          "type": "bool"
        }
      ],
      "stateMutability": "view",
      "type": "function",
      "constant": true
    },
    {
      "inputs": [],
      "name": "name",
      "outputs": [
        {
          "internalType": "string",
          "name": "",
          "type": "string"
        }
      ],
      "stateMutability": "view",
      "type": "function",
      "constant": true
    },
    {
      "inputs": [
        {
          "internalType": "uint256",
          "name": "",
          "type": "uint256"
        }
      ],
      "name": "notFundedTrees",
      "outputs": [
        {
          "internalType": "uint256",
          "name": "",
          "type": "uint256"
        }
      ],
      "stateMutability": "view",
      "type": "function",
      "constant": true
    },
    {
      "inputs": [
        {
          "internalType": "uint256",
          "name": "",
          "type": "uint256"
        }
      ],
      "name": "notPlantedTrees",
      "outputs": [
        {
          "internalType": "uint256",
          "name": "",
          "type": "uint256"
        }
      ],
      "stateMutability": "view",
      "type": "function",
      "constant": true
    },
    {
      "inputs": [
        {
          "internalType": "uint256",
          "name": "tokenId",
          "type": "uint256"
        }
      ],
      "name": "ownerOf",
      "outputs": [
        {
          "internalType": "address",
          "name": "",
          "type": "address"
        }
      ],
      "stateMutability": "view",
      "type": "function",
      "constant": true
    },
    {
      "inputs": [
        {
          "internalType": "address",
          "name": "",
          "type": "address"
        }
      ],
      "name": "planterTreeCount",
      "outputs": [
        {
          "internalType": "uint256",
          "name": "",
          "type": "uint256"
        }
      ],
      "stateMutability": "view",
      "type": "function",
      "constant": true
    },
    {
      "inputs": [
        {
          "internalType": "address",
          "name": "",
          "type": "address"
        },
        {
          "internalType": "uint256",
          "name": "",
          "type": "uint256"
        }
      ],
      "name": "planterTrees",
      "outputs": [
        {
          "internalType": "uint256",
          "name": "",
          "type": "uint256"
        }
      ],
      "stateMutability": "view",
      "type": "function",
      "constant": true
    },
    {
      "inputs": [],
      "name": "price",
      "outputs": [
        {
          "internalType": "uint256",
          "name": "",
          "type": "uint256"
        }
      ],
      "stateMutability": "view",
      "type": "function",
      "constant": true
    },
    {
      "inputs": [
        {
          "internalType": "address",
          "name": "from",
          "type": "address"
        },
        {
          "internalType": "address",
          "name": "to",
          "type": "address"
        },
        {
          "internalType": "uint256",
          "name": "tokenId",
          "type": "uint256"
        }
      ],
      "name": "safeTransferFrom",
      "outputs": [],
      "stateMutability": "nonpayable",
      "type": "function"
    },
    {
      "inputs": [
        {
          "internalType": "address",
          "name": "from",
          "type": "address"
        },
        {
          "internalType": "address",
          "name": "to",
          "type": "address"
        },
        {
          "internalType": "uint256",
          "name": "tokenId",
          "type": "uint256"
        },
        {
          "internalType": "bytes",
          "name": "_data",
          "type": "bytes"
        }
      ],
      "name": "safeTransferFrom",
      "outputs": [],
      "stateMutability": "nonpayable",
      "type": "function"
    },
    {
      "inputs": [
        {
          "internalType": "address",
          "name": "operator",
          "type": "address"
        },
        {
          "internalType": "bool",
          "name": "approved",
          "type": "bool"
        }
      ],
      "name": "setApprovalForAll",
      "outputs": [],
      "stateMutability": "nonpayable",
      "type": "function"
    },
    {
      "inputs": [
        {
          "internalType": "bytes4",
          "name": "interfaceId",
          "type": "bytes4"
        }
      ],
      "name": "supportsInterface",
      "outputs": [
        {
          "internalType": "bool",
          "name": "",
          "type": "bool"
        }
      ],
      "stateMutability": "view",
      "type": "function",
      "constant": true
    },
    {
      "inputs": [],
      "name": "symbol",
      "outputs": [
        {
          "internalType": "string",
          "name": "",
          "type": "string"
        }
      ],
      "stateMutability": "view",
      "type": "function",
      "constant": true
    },
    {
      "inputs": [
        {
          "internalType": "uint256",
          "name": "index",
          "type": "uint256"
        }
      ],
      "name": "tokenByIndex",
      "outputs": [
        {
          "internalType": "uint256",
          "name": "",
          "type": "uint256"
        }
      ],
      "stateMutability": "view",
      "type": "function",
      "constant": true
    },
    {
      "inputs": [
        {
          "internalType": "address",
          "name": "owner",
          "type": "address"
        },
        {
          "internalType": "uint256",
          "name": "index",
          "type": "uint256"
        }
      ],
      "name": "tokenOfOwnerByIndex",
      "outputs": [
        {
          "internalType": "uint256",
          "name": "",
          "type": "uint256"
        }
      ],
      "stateMutability": "view",
      "type": "function",
      "constant": true
    },
    {
      "inputs": [
        {
          "internalType": "uint256",
          "name": "tokenId",
          "type": "uint256"
        }
      ],
      "name": "tokenURI",
      "outputs": [
        {
          "internalType": "string",
          "name": "",
          "type": "string"
        }
      ],
      "stateMutability": "view",
      "type": "function",
      "constant": true
    },
    {
      "inputs": [],
      "name": "totalSupply",
      "outputs": [
        {
          "internalType": "uint256",
          "name": "",
          "type": "uint256"
        }
      ],
      "stateMutability": "view",
      "type": "function",
      "constant": true
    },
    {
      "inputs": [
        {
          "internalType": "address",
          "name": "from",
          "type": "address"
        },
        {
          "internalType": "address",
          "name": "to",
          "type": "address"
        },
        {
          "internalType": "uint256",
          "name": "tokenId",
          "type": "uint256"
        }
      ],
      "name": "transferFrom",
      "outputs": [],
      "stateMutability": "nonpayable",
      "type": "function"
    },
    {
      "inputs": [
        {
          "internalType": "uint256",
          "name": "",
          "type": "uint256"
        }
      ],
      "name": "treeToAmbassadorBalancePerSecond",
      "outputs": [
        {
          "internalType": "uint256",
          "name": "",
          "type": "uint256"
        }
      ],
      "stateMutability": "view",
      "type": "function",
      "constant": true
    },
    {
      "inputs": [
        {
          "internalType": "uint256",
          "name": "",
          "type": "uint256"
        }
      ],
      "name": "treeToAmbassadorRemainingBalance",
      "outputs": [
        {
          "internalType": "uint256",
          "name": "",
          "type": "uint256"
        }
      ],
      "stateMutability": "view",
      "type": "function",
      "constant": true
    },
    {
      "inputs": [
        {
          "internalType": "uint256",
          "name": "",
          "type": "uint256"
        }
      ],
      "name": "treeToGB",
      "outputs": [
        {
          "internalType": "uint256",
          "name": "",
          "type": "uint256"
        }
      ],
      "stateMutability": "view",
      "type": "function",
      "constant": true
    },
    {
      "inputs": [
        {
          "internalType": "uint256",
          "name": "",
          "type": "uint256"
        }
      ],
      "name": "treeToPlanter",
      "outputs": [
        {
          "internalType": "address",
          "name": "",
          "type": "address"
        }
      ],
      "stateMutability": "view",
      "type": "function",
      "constant": true
    },
    {
      "inputs": [
        {
          "internalType": "uint256",
          "name": "",
          "type": "uint256"
        }
      ],
      "name": "treeToPlanterBalancePerSecond",
      "outputs": [
        {
          "internalType": "uint256",
          "name": "",
          "type": "uint256"
        }
      ],
      "stateMutability": "view",
      "type": "function",
      "constant": true
    },
    {
      "inputs": [
        {
          "internalType": "uint256",
          "name": "",
          "type": "uint256"
        }
      ],
      "name": "treeToPlanterRemainingBalance",
      "outputs": [
        {
          "internalType": "uint256",
          "name": "",
          "type": "uint256"
        }
      ],
      "stateMutability": "view",
      "type": "function",
      "constant": true
    },
    {
      "inputs": [
        {
          "internalType": "uint256",
          "name": "",
          "type": "uint256"
        }
      ],
      "name": "treeToType",
      "outputs": [
        {
          "internalType": "uint8",
          "name": "",
          "type": "uint8"
        }
      ],
      "stateMutability": "view",
      "type": "function",
      "constant": true
    },
    {
      "inputs": [
        {
          "internalType": "uint256",
          "name": "",
          "type": "uint256"
        }
      ],
      "name": "trees",
      "outputs": [
        {
          "internalType": "string",
          "name": "name",
          "type": "string"
        },
        {
          "internalType": "string",
          "name": "latitude",
          "type": "string"
        },
        {
          "internalType": "string",
          "name": "longitude",
          "type": "string"
        },
        {
          "internalType": "uint256",
          "name": "plantedDate",
          "type": "uint256"
        },
        {
          "internalType": "uint256",
          "name": "birthDate",
          "type": "uint256"
        },
        {
          "internalType": "uint256",
          "name": "fundedDate",
          "type": "uint256"
        },
        {
          "internalType": "uint8",
          "name": "height",
          "type": "uint8"
        },
        {
          "internalType": "uint8",
          "name": "diameter",
          "type": "uint8"
        }
      ],
      "stateMutability": "view",
      "type": "function",
      "constant": true
    },
    {
      "inputs": [
        {
          "internalType": "uint256",
          "name": "",
          "type": "uint256"
        }
      ],
      "name": "typeTreeCount",
      "outputs": [
        {
          "internalType": "uint256",
          "name": "",
          "type": "uint256"
        }
      ],
      "stateMutability": "view",
      "type": "function",
      "constant": true
    },
    {
      "inputs": [],
      "name": "updateFactory",
      "outputs": [
        {
          "internalType": "contract UpdateFactory",
          "name": "",
          "type": "address"
        }
      ],
      "stateMutability": "view",
      "type": "function",
      "constant": true
    },
    {
      "inputs": [
        {
          "internalType": "address",
          "name": "_accessRestrictionAddress",
          "type": "address"
        }
      ],
      "name": "initialize",
      "outputs": [],
      "stateMutability": "nonpayable",
      "type": "function"
    },
    {
      "inputs": [
        {
          "internalType": "address",
          "name": "_address",
          "type": "address"
        }
      ],
      "name": "setGBAddress",
      "outputs": [],
      "stateMutability": "nonpayable",
      "type": "function"
    },
    {
      "inputs": [
        {
          "internalType": "address",
          "name": "_address",
          "type": "address"
        }
      ],
      "name": "setUpdateFactoryAddress",
      "outputs": [],
      "stateMutability": "nonpayable",
      "type": "function"
    },
    {
      "inputs": [
        {
          "internalType": "uint8",
          "name": "_typeId",
          "type": "uint8"
        },
        {
          "internalType": "uint256",
          "name": "_gbId",
          "type": "uint256"
        },
        {
          "internalType": "string[]",
          "name": "_stringParams",
          "type": "string[]"
        },
        {
          "internalType": "uint8[]",
          "name": "_uintParams",
          "type": "uint8[]"
        }
      ],
      "name": "plant",
      "outputs": [],
      "stateMutability": "nonpayable",
      "type": "function"
    },
    {
      "inputs": [],
      "name": "getLastNotFundedTreeId",
      "outputs": [
        {
          "internalType": "uint256",
          "name": "",
          "type": "uint256"
        }
      ],
      "stateMutability": "view",
      "type": "function",
      "constant": true
    },
    {
      "inputs": [],
      "name": "notFundedTreesExists",
      "outputs": [
        {
          "internalType": "bool",
          "name": "",
          "type": "bool"
        }
      ],
      "stateMutability": "view",
      "type": "function",
      "constant": true
    },
    {
      "inputs": [],
      "name": "notPlantedTreesExists",
      "outputs": [
        {
          "internalType": "bool",
          "name": "",
          "type": "bool"
        }
      ],
      "stateMutability": "view",
      "type": "function",
      "constant": true
    },
    {
      "inputs": [
        {
          "internalType": "address",
          "name": "_account",
          "type": "address"
        }
      ],
      "name": "ownerTreesCount",
      "outputs": [
        {
          "internalType": "uint256",
          "name": "",
          "type": "uint256"
        }
      ],
      "stateMutability": "view",
      "type": "function",
      "constant": true
    },
    {
      "inputs": [
        {
          "internalType": "uint256",
          "name": "_treeId",
          "type": "uint256"
        }
      ],
      "name": "treeOwner",
      "outputs": [
        {
          "internalType": "address",
          "name": "",
          "type": "address"
        }
      ],
      "stateMutability": "view",
      "type": "function",
      "constant": true
    },
    {
      "inputs": [
        {
          "internalType": "address",
          "name": "_account",
          "type": "address"
        }
      ],
      "name": "getOwnerTrees",
      "outputs": [
        {
          "internalType": "uint256[]",
          "name": "",
          "type": "uint256[]"
        }
      ],
      "stateMutability": "view",
      "type": "function",
      "constant": true
    },
    {
      "inputs": [
        {
          "internalType": "uint256",
          "name": "_price",
          "type": "uint256"
        }
      ],
      "name": "setPrice",
      "outputs": [],
      "stateMutability": "nonpayable",
      "type": "function"
    },
    {
      "inputs": [
        {
          "internalType": "uint256",
          "name": "_count",
          "type": "uint256"
        }
      ],
      "name": "fund",
      "outputs": [],
      "stateMutability": "payable",
      "type": "function",
      "payable": true
    },
    {
      "inputs": [],
      "name": "getBalances",
      "outputs": [
        {
          "internalType": "uint256[6]",
          "name": "",
          "type": "uint256[6]"
        }
      ],
      "stateMutability": "view",
      "type": "function",
      "constant": true
    },
    {
      "inputs": [
        {
          "internalType": "uint8",
          "name": "_index",
          "type": "uint8"
        },
        {
          "internalType": "address payable",
          "name": "_to",
          "type": "address"
        }
      ],
      "name": "withdrawBalance",
      "outputs": [],
      "stateMutability": "nonpayable",
      "type": "function"
    },
    {
      "inputs": [],
      "name": "withdrawPlanterBalance",
      "outputs": [],
      "stateMutability": "nonpayable",
      "type": "function"
    },
    {
      "inputs": [],
      "name": "withdrawAmbassadorBalance",
      "outputs": [],
      "stateMutability": "nonpayable",
      "type": "function"
    }
  ],
  "bytecode": "0x608060405234801561001057600080fd5b5061518f806100206000396000f3fe6080604052600436106103345760003560e01c80637a508022116101ab578063c11496c7116100f7578063e0eb4eb911610095578063ea9fd4d51161006f578063ea9fd4d514610962578063f4d7935b14610982578063f99a5d1114610997578063fb5b3dfd146109ac57610334565b8063e0eb4eb91461090d578063e2eefc7914610922578063e985e9c51461094257610334565b8063ca1d209d116100d1578063ca1d209d14610898578063cfb2b3fe146108ab578063d6762c4a146108d8578063dfbe2225146108ed57610334565b8063c11496c714610843578063c4d66de814610858578063c87b56dd1461087857610334565b80639fe0279511610164578063a8bd11661161013e578063a8bd1166146107c3578063b52a61be146107e3578063b88d4fde14610803578063bef474451461082357610334565b80639fe027951461076e578063a035b1fe1461078e578063a22cb465146107a357610334565b80637a508022146106b05780638493b350146106e457806386897ad81461070457806391b7f5ed1461072457806395d89b411461074457806398f5fa3b1461075957610334565b806335939c58116102855780635a025a86116102235780636265e0d8116101fd5780636265e0d8146106465780636352211e1461065b5780636c0360eb1461067b57806370a082311461069057610334565b80635a025a86146105e65780635e8271221461060657806360cd03031461062657610334565b80634903b0d11161025f5780634903b0d1146105715780634b8ef4f5146105915780634ce958bb146105a65780634f6ccce7146105c657610334565b806335939c581461050457806342842e0e146105315780634875f9d71461055157610334565b8063095ea7b3116102f257806318dfed71116102cc57806318dfed711461048457806323b872dd146104a45780632b79e732146104c45780632f745c59146104e457610334565b8063095ea7b3146104225780630d4c055a1461044257806318160ddd1461046257610334565b8062113e081461033957806301ffc9a71461036457806305f4bb611461039157806306fdde03146103b357806307ff3723146103d5578063081812fc14610402575b600080fd5b34801561034557600080fd5b5061034e6109c1565b60405161035b91906147b6565b60405180910390f35b34801561037057600080fd5b5061038461037f3660046144f2565b6109fe565b60405161035b919061482b565b34801561039d57600080fd5b506103b16103ac36600461427e565b610a21565b005b3480156103bf57600080fd5b506103c8610b23565b60405161035b9190614836565b3480156103e157600080fd5b506103f56103f036600461452a565b610bb0565b60405161035b919061474c565b34801561040e57600080fd5b506103f561041d36600461452a565b610bcb565b34801561042e57600080fd5b506103b161043d366004614413565b610c17565b34801561044e57600080fd5b506103f561045d36600461452a565b610caf565b34801561046e57600080fd5b50610477610cc0565b60405161035b9190614f9c565b34801561049057600080fd5b5061047761049f36600461452a565b610cd1565b3480156104b057600080fd5b506103b16104bf3660046142ee565b610ce3565b3480156104d057600080fd5b506104776104df36600461452a565b610d1b565b3480156104f057600080fd5b506104776104ff366004614413565b610d2d565b34801561051057600080fd5b5061052461051f36600461427e565b610d5c565b60405161035b91906147e7565b34801561053d57600080fd5b506103b161054c3660046142ee565b610e08565b34801561055d57600080fd5b5061047761056c36600461452a565b610e23565b34801561057d57600080fd5b5061047761058c36600461452a565b610e35565b34801561059d57600080fd5b50610477610e49565b3480156105b257600080fd5b506104776105c1366004614413565b610e5e565b3480156105d257600080fd5b506104776105e136600461452a565b610e8c565b3480156105f257600080fd5b506103b16106013660046145b3565b610ea0565b34801561061257600080fd5b5061047761062136600461452a565b610f99565b34801561063257600080fd5b5061047761064136600461452a565b610fab565b34801561065257600080fd5b506103f5610fbd565b34801561066757600080fd5b506103f561067636600461452a565b610fcc565b34801561068757600080fd5b506103c8610ffa565b34801561069c57600080fd5b506104776106ab36600461427e565b61105b565b3480156106bc57600080fd5b506106d06106cb36600461452a565b6110a4565b60405161035b989796959493929190614849565b3480156106f057600080fd5b506104776106ff36600461427e565b6112a9565b34801561071057600080fd5b5061047761071f36600461427e565b6112bb565b34801561073057600080fd5b506103b161073f36600461452a565b6112c6565b34801561075057600080fd5b506103c8611366565b34801561076557600080fd5b506103f56113c7565b34801561077a57600080fd5b5061047761078936600461452a565b6113d6565b34801561079a57600080fd5b506104776113e8565b3480156107af57600080fd5b506103b16107be3660046143e6565b6113ee565b3480156107cf57600080fd5b506104776107de36600461452a565b6114bc565b3480156107ef57600080fd5b506104776107fe36600461452a565b6114ce565b34801561080f57600080fd5b506103b161081e36600461432e565b6114e0565b34801561082f57600080fd5b506103b161083e36600461427e565b61151f565b34801561084f57600080fd5b506103b1611621565b34801561086457600080fd5b506103b161087336600461427e565b611d46565b34801561088457600080fd5b506103c861089336600461452a565b611eb5565b6103b16108a636600461452a565b611fff565b3480156108b757600080fd5b506108cb6108c636600461452a565b6121b8565b60405161035b9190615020565b3480156108e457600080fd5b506103f56121cd565b3480156108f957600080fd5b506103b16109083660046145d0565b6121dc565b34801561091957600080fd5b50610384612869565b34801561092e57600080fd5b5061047761093d36600461455a565b612872565b34801561094e57600080fd5b5061038461095d3660046142b6565b61288b565b34801561096e57600080fd5b5061047761097d36600461452a565b6128b9565b34801561098e57600080fd5b506103b16128cb565b3480156109a357600080fd5b5061038461313b565b3480156109b857600080fd5b50610384613145565b6109c96140eb565b6040805160c08101918290529060de9060069082845b8154815260200190600101908083116109df575b505050505090505b90565b6001600160e01b0319811660009081526065602052604090205460ff165b919050565b60e454604051632104fb0560e21b81526001600160a01b0390911690638413ec1490610a5190339060040161474c565b60006040518083038186803b158015610a6957600080fd5b505afa158015610a7d573d6000803e3d6000fd5b505050506000819050806001600160a01b0316634cff2b0f6040518163ffffffff1660e01b815260040160206040518083038186803b158015610abf57600080fd5b505afa158015610ad3573d6000803e3d6000fd5b505050506040513d601f19601f82011682018060405250810190610af791906144d6565b610b0057600080fd5b60e580546001600160a01b0319166001600160a01b039290921691909117905550565b609c8054604080516020601f60026000196101006001881615020190951694909404938401819004810282018101909252828152606093909290918301828280156109f35780601f10610b84576101008083540402835291602001916109f3565b820191906000526020600020905b815481529060010190602001808311610b9257509395945050505050565b60d4602052600090815260409020546001600160a01b031681565b6000610bd68261314f565b610bfb5760405162461bcd60e51b8152600401610bf290614d6a565b60405180910390fd5b506000908152609a60205260409020546001600160a01b031690565b6000610c2282610fcc565b9050806001600160a01b0316836001600160a01b03161415610c565760405162461bcd60e51b8152600401610bf290614ed3565b806001600160a01b0316610c68613162565b6001600160a01b03161480610c845750610c848161095d613162565b610ca05760405162461bcd60e51b8152600401610bf290614c15565b610caa8383613166565b505050565b6000610cba82610fcc565b92915050565b6000610ccc60986131d4565b905090565b60cc6020526000908152604090205481565b610cf4610cee613162565b826131df565b610d105760405162461bcd60e51b8152600401610bf290614f4b565b610caa838383613264565b60d86020526000908152604090205481565b6001600160a01b0382166000908152609760205260408120610d55908363ffffffff61338416565b9392505050565b60606000610d698361105b565b905080610d86575050604080516000815260208101909152610a1c565b60608167ffffffffffffffff81118015610d9f57600080fd5b50604051908082528060200260200182016040528015610dc9578160200160208202803683370190505b50905060005b82811015610e0057610de18582610d2d565b828281518110610ded57fe5b6020908102919091010152600101610dcf565b509392505050565b610caa838383604051806020016040528060008152506114e0565b60dc6020526000908152604090205481565b60de8160068110610e4257fe5b0154905081565b60ce54600090815260cc602052604090205490565b60d66020528160005260406000208181548110610e7757fe5b90600052602060002001600091509150505481565b600080610e0060988463ffffffff61339016565b60e454604051632104fb0560e21b81526001600160a01b0390911690638413ec1490610ed090339060040161474c565b60006040518083038186803b158015610ee857600080fd5b505afa158015610efc573d6000803e3d6000fd5b505050508160ff16600114158015610f1857508160ff16600214155b610f345760405162461bcd60e51b8152600401610bf290614b81565b600060de8360ff1660068110610f4657fe5b015411610f655760405162461bcd60e51b8152600401610bf290614beb565b600060de8360ff1660068110610f7757fe5b01549050600060de8460ff1660068110610f8d57fe5b0155610caa82826133ae565b60d36020526000908152604090205481565b60d76020526000908152604090205481565b60e5546001600160a01b031681565b6000610cba82604051806060016040528060298152602001615131602991396098919063ffffffff61344a16565b609f8054604080516020601f60026000196101006001881615020190951694909404938401819004810282018101909252828152606093909290918301828280156109f35780601f10610b84576101008083540402835291602001916109f3565b60006001600160a01b0382166110835760405162461bcd60e51b8152600401610bf290614c72565b6001600160a01b0382166000908152609760205260409020610cba906131d4565b60ca81815481106110b157fe5b60009182526020918290206007919091020180546040805160026001841615610100026000190190931692909204601f81018590048502830185019091528082529193509183919083018282801561114a5780601f1061111f5761010080835404028352916020019161114a565b820191906000526020600020905b81548152906001019060200180831161112d57829003601f168201915b505050505090806001018054600181600116156101000203166002900480601f0160208091040260200160405190810160405280929190818152602001828054600181600116156101000203166002900480156111e85780601f106111bd576101008083540402835291602001916111e8565b820191906000526020600020905b8154815290600101906020018083116111cb57829003601f168201915b50505060028085018054604080516020601f600019610100600187161502019094169590950492830185900485028101850190915281815295969594509092509083018282801561127a5780601f1061124f5761010080835404028352916020019161127a565b820191906000526020600020905b81548152906001019060200180831161125d57829003601f168201915b505050506003830154600484015460058501546006909501549394919390925060ff8082169161010090041688565b60d56020526000908152604090205481565b6000610cba8261105b565b60e454604051632104fb0560e21b81526001600160a01b0390911690638413ec14906112f690339060040161474c565b60006040518083038186803b15801561130e57600080fd5b505afa158015611322573d6000803e3d6000fd5b50505060cb829055506040517fa6dc15bdb68da224c66db4b3838d9a2b205138e8cff6774e57d0af91e196d6229061135b908390614f9c565b60405180910390a150565b609d8054604080516020601f60026000196101006001881615020190951694909404938401819004810282018101909252828152606093909290918301828280156109f35780601f10610b84576101008083540402835291602001916109f3565b60e6546001600160a01b031681565b60da6020526000908152604090205481565b60cb5481565b6113f6613162565b6001600160a01b0316826001600160a01b031614156114275760405162461bcd60e51b8152600401610bf290614a6a565b80609b6000611434613162565b6001600160a01b03908116825260208083019390935260409182016000908120918716808252919093529120805460ff191692151592909217909155611478613162565b6001600160a01b03167f17307eab39ab6107e8899845ad3d59bd9653f200f220920489ca2b5937696c31836040516114b0919061482b565b60405180910390a35050565b60db6020526000908152604090205481565b60cf6020526000908152604090205481565b6114f16114eb613162565b836131df565b61150d5760405162461bcd60e51b8152600401610bf290614f4b565b61151984848484613457565b50505050565b60e454604051632104fb0560e21b81526001600160a01b0390911690638413ec149061154f90339060040161474c565b60006040518083038186803b15801561156757600080fd5b505afa15801561157b573d6000803e3d6000fd5b505050506000819050806001600160a01b031663edbe8d4e6040518163ffffffff1660e01b815260040160206040518083038186803b1580156115bd57600080fd5b505afa1580156115d1573d6000803e3d6000fd5b505050506040513d601f19601f820116820180604052508101906115f591906144d6565b6115fe57600080fd5b60e680546001600160a01b0319166001600160a01b039290921691909117905550565b60e454604051636dc1ccab60e01b81526001600160a01b0390911690636dc1ccab9061165190339060040161474c565b60006040518083038186803b15801561166957600080fd5b505afa15801561167d573d6000803e3d6000fd5b505033600090815260d56020526040902054915050806116af5760405162461bcd60e51b8152600401610bf290614d33565b33600090815260d660209081526040808320805482518185028101850190935280835260609383018282801561170457602002820191906000526020600020905b8154815260200190600101908083116116f0575b50939450600093505050505b83811015611cd457600082828151811061172657fe5b602090810291909101015160e6546040516313e7cb0960e31b81529192506060916001600160a01b0390911690639f3e584890611767908590600401614f9c565b60006040518083038186803b15801561177f57600080fd5b505afa158015611793573d6000803e3d6000fd5b505050506040513d6000823e601f3d908101601f191682016040526117bb919081019061443e565b600083815260da6020526040812054919250906117da57505050611ccc565b81516117e857505050611ccc565b60e65460405163e31bd1b760e01b81526001600160a01b039091169063e31bd1b790611818908690600401614f9c565b60206040518083038186803b15801561183057600080fd5b505afa158015611844573d6000803e3d6000fd5b505050506040513d601f19601f8201168201806040525081019061186891906144d6565b15156001141561187a57505050611ccc565b81515b8015611c9657600083600183038151811061189457fe5b602090810291909101015160e654604051632e31150760e11b81529192506001600160a01b031690635c622a0e906118d0908490600401614f9c565b60206040518083038186803b1580156118e857600080fd5b505afa1580156118fc573d6000803e3d6000fd5b505050506040513d601f19601f820116820180604052508101906119209190614597565b60ff166001146119305750611c8d565b60e654604051635389821160e11b81526001600160a01b039091169063a713042290611960908490600401614f9c565b60206040518083038186803b15801561197857600080fd5b505afa15801561198c573d6000803e3d6000fd5b505050506040513d601f19601f820116820180604052508101906119b091906144d6565b1515600114156119c05750611c8d565b6001821115611b825760008460028403815181106119da57fe5b602090810291909101015160e654604051632e31150760e11b81529192506001600160a01b031690635c622a0e90611a16908490600401614f9c565b60206040518083038186803b158015611a2e57600080fd5b505afa158015611a42573d6000803e3d6000fd5b505050506040513d601f19601f82011682018060405250810190611a669190614597565b60ff16600114611a77575050611c8d565b60e6546040516333f1941160e01b81526001600160a01b03909116906333f1941190611aa7908490600401614f9c565b60206040518083038186803b158015611abf57600080fd5b505afa158015611ad3573d6000803e3d6000fd5b505050506040513d601f19601f82011682018060405250810190611af79190614542565b60e6546040516333f1941160e01b81526001600160a01b03909116906333f1941190611b27908690600401614f9c565b60206040518083038186803b158015611b3f57600080fd5b505afa158015611b53573d6000803e3d6000fd5b505050506040513d601f19601f82011682018060405250810190611b779190614542565b850103935050611c29565b60ca8581548110611b8f57fe5b600091825260209091206003600790920201015460e6546040516333f1941160e01b81526001600160a01b03909116906333f1941190611bd3908590600401614f9c565b60206040518083038186803b158015611beb57600080fd5b505afa158015611bff573d6000803e3d6000fd5b505050506040513d601f19601f82011682018060405250810190611c239190614542565b84010392505b60e654604051639273ca0f60e01b81526001600160a01b0390911690639273ca0f90611c59908490600401614f9c565b600060405180830381600087803b158015611c7357600080fd5b505af1158015611c87573d6000803e3d6000fd5b50505050505b6000190161187d565b508015611cc857600083815260db602090815260408083205460da909252909120805491830291829003905595909501945b5050505b600101611710565b5060008211611cf55760405162461bcd60e51b8152600401610bf290614f14565b60df80548390039055611d0833836133ae565b7f904f6efa098ad71916df8db0841744bccf6de28374ac90cef4b36b9d8a35e4453383604051611d3992919061479d565b60405180910390a1505050565b600054610100900460ff1680611d5f5750611d5f61348a565b80611d6d575060005460ff16155b611d895760405162461bcd60e51b8152600401610bf290614ded565b600054610100900460ff16158015611db4576000805460ff1961ff0019909116610100171660011790555b60c9805460ff191660011790556040805180820182526004808252635472656560e01b6020808401919091528351808501909452908352635452454560e01b90830152611e0091613490565b6000829050806001600160a01b031663ba84fd696040518163ffffffff1660e01b815260040160206040518083038186803b158015611e3e57600080fd5b505afa158015611e52573d6000803e3d6000fd5b505050506040513d601f19601f82011682018060405250810190611e7691906144d6565b611e7f57600080fd5b60e480546001600160a01b0319166001600160a01b03929092169190911790558015611eb1576000805461ff00191690555b5050565b6060611ec08261314f565b611edc5760405162461bcd60e51b8152600401610bf290614e84565b6000828152609e602090815260409182902080548351601f6002600019610100600186161502019093169290920491820184900484028101840190945280845260609392830182828015611f715780601f10611f4657610100808354040283529160200191611f71565b820191906000526020600020905b815481529060010190602001808311611f5457829003601f168201915b5050609f5493945050505060026000196101006001841615020190911604611f9a579050610a1c565b805115611fcc57609f81604051602001611fb59291906146cb565b604051602081830303815290604052915050610a1c565b609f611fd78461352e565b604051602001611fe89291906146cb565b604051602081830303815290604052915050919050565b600081348161200a57fe5b04905060cb5481101561202f5760405162461bcd60e51b8152600401610bf2906148f8565b60005b828160ff161015610caa5760008061204b602885613609565b905060008061205861313b565b1515600114156121465761206a610e49565b600081815260d360205260408082205460e55491516363b308ff60e11b8152939750926001600160a01b039091169063c76611fe906120ad908590600401614f9c565b60206040518083038186803b1580156120c557600080fd5b505afa1580156120d9573d6000803e3d6000fd5b505050506040513d601f19601f820116820180604052508101906120fd919061429a565b90506001600160a01b03811615612120576001925061211d600589613609565b93505b61213d338661212e88613611565b8761213889613611565b61362b565b9550505061215f565b61215c338461215486613611565b60008061370e565b93505b61216986826138ed565b7f9681ab8e09ad40146a520b55501382d4b0ab62944580202d102da0fcf505355584848489336040516121a0959493929190614ff4565b60405180910390a15050600190920191506120329050565b60d26020526000908152604090205460ff1681565b60e4546001600160a01b031681565b60e460009054906101000a90046001600160a01b03166001600160a01b0316634d868f986040518163ffffffff1660e01b815260040160006040518083038186803b15801561222a57600080fd5b505afa15801561223e573d6000803e3d6000fd5b505060e454604051636dc1ccab60e01b81526001600160a01b039091169250636dc1ccab915061227290339060040161474c565b60006040518083038186803b15801561228a57600080fd5b505afa15801561229e573d6000803e3d6000fd5b5050505060008090506122af613145565b1515600114156124c8575060d18054600081815260cf602052604081205460019092019092559085908590816122e157fe5b90506020028101906122f3919061502e565b60ca838154811061230057fe5b6000918252602090912061231a9360079092020191614109565b508484600181811061232857fe5b905060200281019061233a919061502e565b60ca838154811061234757fe5b90600052602060002090600702016001019190612365929190614109565b508484600281811061237357fe5b9050602002810190612385919061502e565b60ca838154811061239257fe5b906000526020600020906007020160020191906123b0929190614109565b504260ca82815481106123bf57fe5b9060005260206000209060070201600301819055504260ca82815481106123e257fe5b9060005260206000209060070201600401819055508282600081811061240457fe5b9050602002016020810190612419919061457b565b60ca828154811061242657fe5b906000526020600020906007020160060160006101000a81548160ff021916908360ff1602179055508282600181811061245c57fe5b9050602002016020810190612471919061457b565b60ca828154811061247e57fe5b906000526020600020906007020160060160016101000a81548160ff021916908360ff16021790555060cf6000600160d1540381526020019081526020016000206000905561272f565b60ca604051806101000160405280878760008181106124e357fe5b90506020028101906124f5919061502e565b8080601f0160208091040260200160405190810160405280939291908181526020018383808284376000920191909152505050908252506020018787600181811061253c57fe5b905060200281019061254e919061502e565b8080601f0160208091040260200160405190810160405280939291908181526020018383808284376000920191909152505050908252506020018787600281811061259557fe5b90506020028101906125a7919061502e565b8080601f01602080910402602001604051908101604052809392919081815260200183838082843760009201829052509385525050426020840181905260408401525060608201819052608090910190869086908161260257fe5b9050602002016020810190612617919061457b565b60ff1681526020018585600181811061262c57fe5b9050602002016020810190612641919061457b565b60ff169052815460018101835560009283526020928390208251805193946007909302909101926126759284920190614187565b50602082810151805161268e9260018501920190614187565b50604082015180516126aa916002840191602090910190614187565b50606082015160038201556080820151600482015560a0820151600582015560c08201516006909101805460e09093015160ff9081166101000261ff00199190931660ff1990941693909317929092161790555060ca5460cd8054600090815260cc6020526040902060001992909201918290558054600101905561272f3382613995565b60ff8716600090815260d7602090815260408083208054600190810190915584845260d383528184208a905589845260d8835281842080548201905560d98352818420805480830182559085528385200185905584845260d4835281842080546001600160a01b03191633908117909155845260d5835281842080548201905560d68352908320805491820181558352908220018290557f657b7bbf1c4d4c6c5d41c6a778cfa25dc8c1fa0e44b17cc1eb0b5ddba009388790829087908790816127f557fe5b9050602002810190612807919061502e565b8888600181811061281457fe5b9050602002810190612826919061502e565b8a8a600281811061283357fe5b9050602002810190612845919061502e565b6040516128589796959493929190614fa5565b60405180910390a150505050505050565b60c95460ff1681565b60d96020528160005260406000208181548110610e7757fe5b6001600160a01b039182166000908152609b6020908152604080832093909416825291909152205460ff1690565b60dd6020526000908152604090205481565b60e45460405163dac4d45360e01b81526001600160a01b039091169063dac4d453906128fb90339060040161474c565b60006040518083038186803b15801561291357600080fd5b505afa158015612927573d6000803e3d6000fd5b505060e5546040516304024f3760e41b8152600093506001600160a01b039091169150634024f3709061295e90339060040161474c565b60206040518083038186803b15801561297657600080fd5b505afa15801561298a573d6000803e3d6000fd5b505050506040513d601f19601f820116820180604052508101906129ae9190614542565b9050600081116129d05760405162461bcd60e51b8152600401610bf2906149ef565b60e5546040516322d8a98960e11b81526060916001600160a01b0316906345b1531290612a0190339060040161474c565b60006040518083038186803b158015612a1957600080fd5b505afa158015612a2d573d6000803e3d6000fd5b505050506040513d6000823e601f3d908101601f19168201604052612a55919081019061443e565b90506000805b838110156130d6576000838281518110612a7157fe5b60200260200101519050600060d860008381526020019081526020016000205490508060001415612aa35750506130ce565b600082815260d96020908152604091829020805483518184028101840190945280845260609392830182828015612af957602002820191906000526020600020905b815481526020019060010190808311612ae5575b50939450600093505050505b828110156130c9576000828281518110612b1b57fe5b602090810291909101015160e6546040516313e7cb0960e31b81529192506060916001600160a01b0390911690639f3e584890612b5c908590600401614f9c565b60006040518083038186803b158015612b7457600080fd5b505afa158015612b88573d6000803e3d6000fd5b505050506040513d6000823e601f3d908101601f19168201604052612bb0919081019061443e565b600083815260dc602052604081205491925090612bcf575050506130c1565b8151612bdd575050506130c1565b60e6546040516306a2b4fd60e01b81526001600160a01b03909116906306a2b4fd90612c0d908690600401614f9c565b60206040518083038186803b158015612c2557600080fd5b505afa158015612c39573d6000803e3d6000fd5b505050506040513d601f19601f82011682018060405250810190612c5d91906144d6565b151560011415612c6f575050506130c1565b81515b801561308b576000836001830381518110612c8957fe5b602090810291909101015160e654604051632e31150760e11b81529192506001600160a01b031690635c622a0e90612cc5908490600401614f9c565b60206040518083038186803b158015612cdd57600080fd5b505afa158015612cf1573d6000803e3d6000fd5b505050506040513d601f19601f82011682018060405250810190612d159190614597565b60ff16600114612d255750613082565b60e6546040516328ef84b160e11b81526001600160a01b03909116906351df096290612d55908490600401614f9c565b60206040518083038186803b158015612d6d57600080fd5b505afa158015612d81573d6000803e3d6000fd5b505050506040513d601f19601f82011682018060405250810190612da591906144d6565b151560011415612db55750613082565b6001821115612f77576000846002840381518110612dcf57fe5b602090810291909101015160e654604051632e31150760e11b81529192506001600160a01b031690635c622a0e90612e0b908490600401614f9c565b60206040518083038186803b158015612e2357600080fd5b505afa158015612e37573d6000803e3d6000fd5b505050506040513d601f19601f82011682018060405250810190612e5b9190614597565b60ff16600114612e6c575050613082565b60e6546040516333f1941160e01b81526001600160a01b03909116906333f1941190612e9c908490600401614f9c565b60206040518083038186803b158015612eb457600080fd5b505afa158015612ec8573d6000803e3d6000fd5b505050506040513d601f19601f82011682018060405250810190612eec9190614542565b60e6546040516333f1941160e01b81526001600160a01b03909116906333f1941190612f1c908690600401614f9c565b60206040518083038186803b158015612f3457600080fd5b505afa158015612f48573d6000803e3d6000fd5b505050506040513d601f19601f82011682018060405250810190612f6c9190614542565b85010393505061301e565b60ca8581548110612f8457fe5b600091825260209091206003600790920201015460e6546040516333f1941160e01b81526001600160a01b03909116906333f1941190612fc8908590600401614f9c565b60206040518083038186803b158015612fe057600080fd5b505afa158015612ff4573d6000803e3d6000fd5b505050506040513d601f19601f820116820180604052508101906130189190614542565b84010392505b60e65460405163fc221e1360e01b81526001600160a01b039091169063fc221e139061304e908490600401614f9c565b600060405180830381600087803b15801561306857600080fd5b505af115801561307c573d6000803e3d6000fd5b50505050505b60001901612c72565b5080156130bd57600083815260dd602090815260408083205460dc909252909120805491830291829003905598909801975b5050505b600101612b05565b505050505b600101612a5b565b50600081116130f75760405162461bcd60e51b8152600401610bf290614f14565b60e08054829003905561310a33826133ae565b7f46d3ec67d736e34f6c5652d7a86f6aaab1a156c42c2bffa6adb8cb78f12520433382604051611d3992919061479d565b60ce5460cd541190565b60d15460d0541190565b6000610cba60988363ffffffff613a6516565b3390565b6000818152609a6020526040902080546001600160a01b0319166001600160a01b038416908117909155819061319b82610fcc565b6001600160a01b03167f8c5be1e5ebec7d5bd14f71427d1e84f3dd0314c0f7b2291e5b200ac8c7c3b92560405160405180910390a45050565b6000610cba82613a71565b60006131ea8261314f565b6132065760405162461bcd60e51b8152600401610bf290614b35565b600061321183610fcc565b9050806001600160a01b0316846001600160a01b0316148061324c5750836001600160a01b031661324184610bcb565b6001600160a01b0316145b8061325c575061325c818561288b565b949350505050565b826001600160a01b031661327782610fcc565b6001600160a01b03161461329d5760405162461bcd60e51b8152600401610bf290614e3b565b6001600160a01b0382166132c35760405162461bcd60e51b8152600401610bf290614a26565b6132ce838383610caa565b6132d9600082613166565b6001600160a01b0383166000908152609760205260409020613301908263ffffffff613a7516565b506001600160a01b038216600090815260976020526040902061332a908263ffffffff613a8116565b5061333d6098828463ffffffff613a8d16565b5080826001600160a01b0316846001600160a01b03167fddf252ad1be2c89b69c2b068fc378daa952ba7f163c4a11628f55a4df523b3ef60405160405180910390a4505050565b6000610d558383613aa3565b600080808061339f8686613ae8565b909450925050505b9250929050565b804710156133ce5760405162461bcd60e51b8152600401610bf290614afe565b6000826001600160a01b0316826040516133e7906109fb565b60006040518083038185875af1925050503d8060008114613424576040519150601f19603f3d011682016040523d82523d6000602084013e613429565b606091505b5050905080610caa5760405162461bcd60e51b8152600401610bf290614aa1565b600061325c848484613b44565b613462848484613264565b61346e84848484613ba3565b6115195760405162461bcd60e51b8152600401610bf29061492f565b303b1590565b600054610100900460ff16806134a957506134a961348a565b806134b7575060005460ff16155b6134d35760405162461bcd60e51b8152600401610bf290614ded565b600054610100900460ff161580156134fe576000805460ff1961ff0019909116610100171660011790555b613506613cdd565b61350e613d60565b6135188383613dde565b8015610caa576000805461ff0019169055505050565b60608161355357506040805180820190915260018152600360fc1b6020820152610a1c565b8160005b811561356b57600101600a82049150613557565b60608167ffffffffffffffff8111801561358457600080fd5b506040519080825280601f01601f1916602001820160405280156135af576020820181803683370190505b50859350905060001982015b831561360057600a840660300160f81b828280600190039350815181106135de57fe5b60200101906001600160f81b031916908160001a905350600a840493506135bb565b50949350505050565b606491020490565b60008161362057506000610a1c565b506305a39a80900490565b600061363561313b565b6136515760405162461bcd60e51b8152600401610bf290614db6565b60ce8054600081815260cc6020526040902054600190910190915560ca80544291908390811061367d57fe5b600091825260209091206005600790920201015585156136b657600081815260da6020908152604080832089905560db90915290208590555b83156136db57600081815260dc6020908152604080832087905560dd90915290208390555b6136ee6136e782610fcc565b8883613264565b60ce5460001901600090815260cc60205260408120559695505050505050565b604080518082018252601781527f7479706573206e616d652074726565732e6c656e67746800000000000000000060208083019190915282516101008101845282815283518083018552600080825282840191909152845180840186528181529482019490945260608101849052608081018490524260a082015260c0810184905260e0810184905260ca805460018101825590855281518051929360079092027f42d72674974f694b5f5159593243114d38a5c39c89d6b62fee061ff523240ee101926137df9284920190614187565b5060208281015180516137f89260018501920190614187565b5060408201518051613814916002840191602090910190614187565b50606082015160038201556080820151600482015560a0820151600582015560c08201516006909101805460e09093015160ff9081166101000261ff00199190931660ff19909416939093179290921617905560ca5460d08054600090815260cf6020526040902060001992909201918290558054600101905586156138b357600081815260da602090815260408083208a905560db90915290208690555b84156138d857600081815260dc6020908152604080832088905560dd90915290208490555b6138e28882613995565b979650505050505050565b60006138fa600f84613609565b90506000613909600585613609565b905082613914575060005b6040518060c0016040528061392a601987613609565b60de5401815260200161393e602887613609565b60df5401815260e0548301602082015260e15484016040820152606001613966600a87613609565b60e25401815260200161397a600587613609565b60e35401905261398e9060de9060066141f5565b5050505050565b6001600160a01b0382166139bb5760405162461bcd60e51b8152600401610bf290614cfe565b6139c48161314f565b156139e15760405162461bcd60e51b8152600401610bf2906149b8565b6139ed60008383610caa565b6001600160a01b0382166000908152609760205260409020613a15908263ffffffff613a8116565b50613a286098828463ffffffff613a8d16565b5060405181906001600160a01b038416906000907fddf252ad1be2c89b69c2b068fc378daa952ba7f163c4a11628f55a4df523b3ef908290a45050565b6000610d558383613ea4565b5490565b6000610d558383613ebc565b6000610d558383613f82565b600061325c84846001600160a01b038516613fcc565b81546000908210613ac65760405162461bcd60e51b8152600401610bf2906148b6565b826000018281548110613ad557fe5b9060005260206000200154905092915050565b815460009081908310613b0d5760405162461bcd60e51b8152600401610bf290614cbc565b6000846000018481548110613b1e57fe5b906000526020600020906002020190508060000154816001015492509250509250929050565b60008281526001840160205260408120548281613b745760405162461bcd60e51b8152600401610bf29190614836565b50846000016001820381548110613b8757fe5b9060005260206000209060020201600101549150509392505050565b6000613bb7846001600160a01b0316614063565b613bc35750600161325c565b600060606001600160a01b038616630a85bd0160e11b613be1613162565b898888604051602401613bf79493929190614760565b60408051601f198184030181529181526020820180516001600160e01b03166001600160e01b0319909416939093179092529051613c3591906146af565b6000604051808303816000865af19150503d8060008114613c72576040519150601f19603f3d011682016040523d82523d6000602084013e613c77565b606091505b509150915081613ca957805115613c915780518082602001fd5b60405162461bcd60e51b8152600401610bf29061492f565b600081806020019051810190613cbf919061450e565b6001600160e01b031916630a85bd0160e11b14935061325c92505050565b600054610100900460ff1680613cf65750613cf661348a565b80613d04575060005460ff16155b613d205760405162461bcd60e51b8152600401610bf290614ded565b600054610100900460ff16158015613d4b576000805460ff1961ff0019909116610100171660011790555b8015613d5d576000805461ff00191690555b50565b600054610100900460ff1680613d795750613d7961348a565b80613d87575060005460ff16155b613da35760405162461bcd60e51b8152600401610bf290614ded565b600054610100900460ff16158015613dce576000805460ff1961ff0019909116610100171660011790555b613d4b6301ffc9a760e01b61409c565b600054610100900460ff1680613df75750613df761348a565b80613e05575060005460ff16155b613e215760405162461bcd60e51b8152600401610bf290614ded565b600054610100900460ff16158015613e4c576000805460ff1961ff0019909116610100171660011790555b8251613e5f90609c906020860190614187565b508151613e7390609d906020850190614187565b50613e846380ac58cd60e01b61409c565b613e94635b5e139f60e01b61409c565b61351863780e9d6360e01b61409c565b60009081526001919091016020526040902054151590565b60008181526001830160205260408120548015613f785783546000198083019190810190600090879083908110613eef57fe5b9060005260206000200154905080876000018481548110613f0c57fe5b600091825260208083209091019290925582815260018981019092526040902090840190558654879080613f3c57fe5b60019003818190600052602060002001600090559055866001016000878152602001908152602001600020600090556001945050505050610cba565b6000915050610cba565b6000613f8e8383613ea4565b613fc457508154600181810184556000848152602080822090930184905584548482528286019093526040902091909155610cba565b506000610cba565b600082815260018401602052604081205480614031575050604080518082018252838152602080820184815286546001818101895560008981528481209551600290930290950191825591519082015586548684528188019092529290912055610d55565b8285600001600183038154811061404457fe5b9060005260206000209060020201600101819055506000915050610d55565b6000813f7fc5d2460186f7233c927e7db2dcc703c0e500b653ca82273b7bfad8045d85a47081811480159061325c575050151592915050565b6001600160e01b031980821614156140c65760405162461bcd60e51b8152600401610bf290614981565b6001600160e01b0319166000908152606560205260409020805460ff19166001179055565b6040518060c001604052806006906020820280368337509192915050565b828054600181600116156101000203166002900490600052602060002090601f016020900481019282601f1061414a5782800160ff19823516178555614177565b82800160010185558215614177579182015b8281111561417757823582559160200191906001019061415c565b50614183929150614222565b5090565b828054600181600116156101000203166002900490600052602060002090601f016020900481019282601f106141c857805160ff1916838001178555614177565b82800160010185558215614177579182015b828111156141775782518255916020019190600101906141da565b826006810192821561417757916020028201828111156141775782518255916020019190600101906141da565b6109fb91905b808211156141835760008155600101614228565b60008083601f84011261424d578182fd5b50813567ffffffffffffffff811115614264578182fd5b60208301915083602080830285010111156133a757600080fd5b60006020828403121561428f578081fd5b8135610d55816150e8565b6000602082840312156142ab578081fd5b8151610d55816150e8565b600080604083850312156142c8578081fd5b82356142d3816150e8565b915060208301356142e3816150e8565b809150509250929050565b600080600060608486031215614302578081fd5b833561430d816150e8565b9250602084013561431d816150e8565b929592945050506040919091013590565b60008060008060808587031215614343578081fd5b843561434e816150e8565b935060208581013561435f816150e8565b935060408601359250606086013567ffffffffffffffff80821115614382578384fd5b81880189601f820112614393578485fd5b80359250818311156143a3578485fd5b6143b5601f8401601f19168501615075565b915082825289848483010111156143ca578485fd5b8284820185840137509081019091019190915292959194509250565b600080604083850312156143f8578182fd5b8235614403816150e8565b915060208301356142e3816150fd565b60008060408385031215614425578182fd5b8235614430816150e8565b946020939093013593505050565b60006020808385031215614450578182fd5b825167ffffffffffffffff811115614466578283fd5b80840185601f820112614477578384fd5b8051915061448c6144878361509c565b615075565b82815283810190828501858502840186018910156144a8578687fd5b8693505b848410156144ca5780518352600193909301929185019185016144ac565b50979650505050505050565b6000602082840312156144e7578081fd5b8151610d55816150fd565b600060208284031215614503578081fd5b8135610d558161510b565b60006020828403121561451f578081fd5b8151610d558161510b565b60006020828403121561453b578081fd5b5035919050565b600060208284031215614553578081fd5b5051919050565b6000806040838503121561456c578182fd5b50508035926020909101359150565b60006020828403121561458c578081fd5b8135610d5581615121565b6000602082840312156145a8578081fd5b8151610d5581615121565b600080604083850312156145c5578182fd5b82356142d381615121565b600080600080600080608087890312156145e8578384fd5b86356145f381615121565b955060208701359450604087013567ffffffffffffffff80821115614616578586fd5b6146228a838b0161423c565b9096509450606089013591508082111561463a578384fd5b5061464789828a0161423c565b979a9699509497509295939492505050565b600081518084526146718160208601602086016150bc565b601f01601f19169290920160200192915050565b60008284528282602086013780602084860101526020601f19601f85011685010190509392505050565b600082516146c18184602087016150bc565b9190910192915050565b60008084546001808216600081146146ea576001811461470157614730565b60ff198316865260028304607f1686019350614730565b600283048886526020808720875b838110156147285781548a82015290850190820161470f565b505050860193505b50505083516147438183602088016150bc565b01949350505050565b6001600160a01b0391909116815260200190565b6001600160a01b038581168252841660208201526040810183905260806060820181905260009061479390830184614659565b9695505050505050565b6001600160a01b03929092168252602082015260400190565b60c08101818360005b60068110156147de5781518352602092830192909101906001016147bf565b50505092915050565b6020808252825182820181905260009190848201906040850190845b8181101561481f57835183529284019291840191600101614803565b50909695505050505050565b901515815260200190565b600060208252610d556020830184614659565b600061010080835261485d8184018c614659565b838103602085015261486f818c614659565b9150508281036040840152614884818a614659565b60608401989098525050608081019490945260a084019290925260ff90811660c08401521660e0909101529392505050565b60208082526022908201527f456e756d657261626c655365743a20696e646578206f7574206f6620626f756e604082015261647360f01b606082015260800190565b60208082526019908201527f42616c616e6365206973206e6f742073756666696369656e7400000000000000604082015260600190565b60208082526032908201527f4552433732313a207472616e7366657220746f206e6f6e20455243373231526560408201527131b2b4bb32b91034b6b83632b6b2b73a32b960711b606082015260800190565b6020808252601c908201527f4552433136353a20696e76616c696420696e7465726661636520696400000000604082015260600190565b6020808252601c908201527f4552433732313a20746f6b656e20616c7265616479206d696e74656400000000604082015260600190565b6020808252601b908201527f416d6261737361646f7220676220636f756e74206973207a65726f0000000000604082015260600190565b60208082526024908201527f4552433732313a207472616e7366657220746f20746865207a65726f206164646040820152637265737360e01b606082015260800190565b60208082526019908201527f4552433732313a20617070726f766520746f2063616c6c657200000000000000604082015260600190565b6020808252603a908201527f416464726573733a20756e61626c6520746f2073656e642076616c75652c207260408201527f6563697069656e74206d61792068617665207265766572746564000000000000606082015260800190565b6020808252601d908201527f416464726573733a20696e73756666696369656e742062616c616e6365000000604082015260600190565b6020808252602c908201527f4552433732313a206f70657261746f7220717565727920666f72206e6f6e657860408201526b34b9ba32b73a103a37b5b2b760a11b606082015260800190565b60208082526044908201527f546865736520696e64657865732061726520617574616d74696320616e64206260408201527f792072657175657374206f6620706c616e74657220616e6420616d6261737361606082015263646f722160e01b608082015260a00190565b60208082526010908201526f42616c616e6365206973207a65726f2160801b604082015260600190565b60208082526038908201527f4552433732313a20617070726f76652063616c6c6572206973206e6f74206f7760408201527f6e6572206e6f7220617070726f76656420666f7220616c6c0000000000000000606082015260800190565b6020808252602a908201527f4552433732313a2062616c616e636520717565727920666f7220746865207a65604082015269726f206164647265737360b01b606082015260800190565b60208082526022908201527f456e756d657261626c654d61703a20696e646578206f7574206f6620626f756e604082015261647360f01b606082015260800190565b6020808252818101527f4552433732313a206d696e7420746f20746865207a65726f2061646472657373604082015260600190565b6020808252601a908201527f506c616e746572207472656520636f756e74206973207a65726f000000000000604082015260600190565b6020808252602c908201527f4552433732313a20617070726f76656420717565727920666f72206e6f6e657860408201526b34b9ba32b73a103a37b5b2b760a11b606082015260800190565b60208082526019908201527f5468657265206973206e6f742066756e64656420747265657300000000000000604082015260600190565b6020808252602e908201527f436f6e747261637420696e7374616e63652068617320616c726561647920626560408201526d195b881a5b9a5d1a585b1a5e995960921b606082015260800190565b60208082526029908201527f4552433732313a207472616e73666572206f6620746f6b656e2074686174206960408201526839903737ba1037bbb760b91b606082015260800190565b6020808252602f908201527f4552433732314d657461646174613a2055524920717565727920666f72206e6f60408201526e3732bc34b9ba32b73a103a37b5b2b760891b606082015260800190565b60208082526021908201527f4552433732313a20617070726f76616c20746f2063757272656e74206f776e656040820152603960f91b606082015260800190565b6020808252601b908201527f776974686472617761626c6542616c616e6365206973207a65726f0000000000604082015260600190565b60208082526031908201527f4552433732313a207472616e736665722063616c6c6572206973206e6f74206f6040820152701ddb995c881b9bdc88185c1c1c9bdd9959607a1b606082015260800190565b90815260200190565b600088825260806020830152614fbf60808301888a614685565b8281036040840152614fd2818789614685565b8381036060850152614fe5818688614685565b9b9a5050505050505050505050565b9485526020850193909352604084019190915260608301526001600160a01b0316608082015260a00190565b60ff91909116815260200190565b6000808335601e19843603018112615044578283fd5b8084018035925067ffffffffffffffff83111561505f578384fd5b602001925050368190038213156133a757600080fd5b60405181810167ffffffffffffffff8111828210171561509457600080fd5b604052919050565b600067ffffffffffffffff8211156150b2578081fd5b5060209081020190565b60005b838110156150d75781810151838201526020016150bf565b838111156115195750506000910152565b6001600160a01b0381168114613d5d57600080fd5b8015158114613d5d57600080fd5b6001600160e01b031981168114613d5d57600080fd5b60ff81168114613d5d57600080fdfe4552433732313a206f776e657220717565727920666f72206e6f6e6578697374656e7420746f6b656ea2646970667358221220b6e1e6b1f78a2ce88b208c701265ca8dd7f7e4e20a6ddf6124b8d13694d7c24f64736f6c63430006090033",
  "immutableReferences": {},
  "source": "// SPDX-License-Identifier: GPL-3.0\n\npragma solidity >=0.4.21 <0.7.0;\npragma experimental ABIEncoderV2;\n\nimport \"../../node_modules/@openzeppelin/contracts-ethereum-package/contracts/token/ERC721/ERC721.sol\";\nimport \"../../node_modules/@openzeppelin/contracts-ethereum-package/contracts/utils/Address.sol\";\n\nimport \"../access/AccessRestriction.sol\";\nimport \"../greenblock/GBFactory.sol\";\nimport \"./TreeType.sol\";\nimport \"./UpdateFactory.sol\";\n\ncontract TreeFactory is ERC721UpgradeSafe {\n\n    using Address for address;\n\n\n    event PriceChanged(uint256 price);\n    event TreePlanted(uint256 id,string name,string latitude,string longitude);\n    event TreeFunded(uint256 treeId, uint256 planterBalance, uint256 ambassadorBalance, uint256 totalFund, address owner);\n    event PlanterBalanceWithdrawn(address planter, uint amount);\n    event AmbassadorBalanceWithdrawn(address ambassador, uint amount);\n\n    bool public isTreeFactory;\n\n    struct Tree {\n        string name;\n        string latitude;\n        string longitude;\n        uint256 plantedDate;\n        uint256 birthDate;\n        uint256 fundedDate;\n        uint8 height;\n        uint8 diameter;\n    }\n    Tree[] public trees;\n\n    uint256 public price;\n\n    mapping(uint => uint) public notFundedTrees;\n    uint256 notFundedTreesLastIndex;\n    uint256 notFundedTreesUsedIndex;\n\n    mapping(uint => uint) public notPlantedTrees;\n    uint256 notPlantedTreesLastIndex;\n    uint256 notPlantedTreesUsedIndex;\n\n    mapping(uint256 => uint8) public treeToType;\n    mapping(uint256 => uint256) public treeToGB;\n    mapping(uint256 => address) public treeToPlanter;\n    mapping(address => uint256) public planterTreeCount;\n    mapping(address => uint256[]) public planterTrees;\n    mapping(uint256 => uint256) public typeTreeCount;\n    mapping(uint256 => uint256) public gbTreeCount;\n    mapping(uint256 => uint256[]) public gbTrees;\n\n    mapping(uint256 => uint256) public treeToPlanterRemainingBalance;\n    mapping(uint256 => uint256) public treeToPlanterBalancePerSecond;\n\n    mapping(uint256 => uint256) public treeToAmbassadorRemainingBalance;\n    mapping(uint256 => uint256) public treeToAmbassadorBalancePerSecond;\n\n    uint256 constant treejerPercentage = 25;\n    uint256 constant planterPercentage = 40;\n    uint256 constant ambassadorPercentage = 5;\n    uint256 constant localDevelopmentFundPercentage = 15;\n    uint256 constant rescueFundPercentage = 10;\n    uint256 constant researchFundPercentage = 5;\n\n    uint8 constant treejerIndex = 0;\n    uint8 constant planterIndex = 1;\n    uint8 constant ambassadorIndex = 2;\n    uint8 constant localDevelopmentFundIndex = 3;\n    uint8 constant rescueFundIndex = 4;\n    uint8 constant researchFundIndex = 5;\n\n    // 1 common year 31536000 seconds * 3 year \n    uint256 constant treeBalanceWithdrawnSeconds = 94608000;\n\n    uint256[6] public balances;\n\n    AccessRestriction public accessRestriction;\n    GBFactory public gbFactory;\n    UpdateFactory public updateFactory;\n\n    function initialize(address _accessRestrictionAddress) public initializer {\n        isTreeFactory = true;\n\n        ERC721UpgradeSafe.__ERC721_init(\n            \"Tree\",\n            \"TREE\"\n        );\n\n        AccessRestriction candidateContract = AccessRestriction(_accessRestrictionAddress);\n        require(candidateContract.isAccessRestriction());\n        accessRestriction = candidateContract;\n\n    }\n\n    function setGBAddress(address _address) external {\n        accessRestriction.ifAdmin(msg.sender);\n\n        GBFactory candidateContract = GBFactory(_address);\n        require(candidateContract.isGBFactory());\n        gbFactory = candidateContract;\n    }\n\n    function setUpdateFactoryAddress(address _address) external {\n        accessRestriction.ifAdmin(msg.sender);\n\n        UpdateFactory candidateContract = UpdateFactory(_address);\n        require(candidateContract.isUpdateFactory());\n        updateFactory = candidateContract;\n    }\n\n    //@todo permission must check\n    function plant(\n        uint8 _typeId,\n        uint256 _gbId,\n        string[] calldata _stringParams,\n        uint8[] calldata _uintParams\n    ) external {\n\n        accessRestriction.ifNotPaused();\n        accessRestriction.ifPlanter(msg.sender);\n\n\n        uint256 id = 0;\n\n        if(notPlantedTreesExists() == true) {\n            id = notPlantedTrees[notPlantedTreesUsedIndex];\n            notPlantedTreesUsedIndex++;\n\n            trees[id].name = _stringParams[0];\n            trees[id].latitude = _stringParams[1];\n            trees[id].longitude = _stringParams[2];\n            trees[id].plantedDate = block.timestamp;\n            trees[id].birthDate = block.timestamp;\n            trees[id].height = _uintParams[0];\n            trees[id].diameter = _uintParams[1];\n\n            delete notPlantedTrees[notPlantedTreesUsedIndex - 1];\n\n        } else {\n\n            trees.push(\n                Tree(_stringParams[0],_stringParams[1],_stringParams[2],\n                    block.timestamp,block.timestamp,\n                    0,_uintParams[0],_uintParams[1]\n                )\n            );\n            id = trees.length - 1;\n\n            notFundedTrees[notFundedTreesLastIndex] = id;\n            notFundedTreesLastIndex++;\n            _mint(msg.sender, id);\n        }\n\n        typeTreeCount[_typeId]++;\n\n        treeToGB[id] = _gbId;\n        gbTreeCount[_gbId]++;\n        gbTrees[_gbId].push(id);\n\n        treeToPlanter[id] = msg.sender;\n        planterTreeCount[msg.sender]++;\n        planterTrees[msg.sender].push(id);\n\n        emit TreePlanted(\n            id,_stringParams[0],_stringParams[1],_stringParams[2]\n        );\n    }\n\n    function simpleFund(\n        address _account,\n        uint256 _planterBalance,\n        uint256 _planterBalancePerSecond,\n        uint256 _ambassadorBalance,\n        uint256 _ambassadorBalancePerSecond\n    ) internal returns(uint256) {\n        string memory name = string('types name trees.length');\n\n\n        trees.push(\n            Tree(name,'','',0,0,block.timestamp,0,0)\n        );\n        uint256 id = trees.length - 1;\n\n        notPlantedTrees[notPlantedTreesLastIndex] = id;\n        notPlantedTreesLastIndex++;\n\n\n        if(_planterBalance > 0 ) {\n            treeToPlanterRemainingBalance[id] = _planterBalance;\n            treeToPlanterBalancePerSecond[id] = _planterBalancePerSecond;\n        }\n\n        if(_ambassadorBalance > 0) {\n            treeToAmbassadorRemainingBalance[id] = _ambassadorBalance;\n            treeToAmbassadorBalancePerSecond[id] = _ambassadorBalancePerSecond;\n        }\n\n        _mint(_account, id);\n\n        return id;\n\n    }\n\n    function fundPlantedTress(address _account,\n        uint256 _planterBalance,\n        uint256 _planterBalancePerSecond,\n        uint256 _ambassadorBalance,\n        uint256 _ambassadorBalancePerSecond) internal returns(uint256) {\n\n        require(notFundedTreesExists(), \"There is not funded trees\");\n\n        uint treeId = notFundedTrees[notFundedTreesUsedIndex];\n        notFundedTreesUsedIndex++;\n\n        trees[treeId].fundedDate = block.timestamp;\n\n        if(_planterBalance > 0 ) {\n            treeToPlanterRemainingBalance[treeId] = _planterBalance;\n            treeToPlanterBalancePerSecond[treeId] = _planterBalancePerSecond;\n        }\n\n        if(_ambassadorBalance > 0) {\n            treeToAmbassadorRemainingBalance[treeId] = _ambassadorBalance;\n            treeToAmbassadorBalancePerSecond[treeId] = _ambassadorBalancePerSecond;\n        }\n\n        _transfer(ownerOf(treeId), _account, treeId);\n\n        delete notFundedTrees[notFundedTreesUsedIndex - 1];\n\n        return treeId;\n    }\n\n    function getLastNotFundedTreeId() public view returns(uint256) {\n        return notFundedTrees[notFundedTreesUsedIndex];\n    }\n\n    function notFundedTreesExists() public view returns(bool) {\n        return notFundedTreesLastIndex > notFundedTreesUsedIndex;\n    }\n\n    function notPlantedTreesExists() public view returns(bool) {\n        return notPlantedTreesLastIndex > notPlantedTreesUsedIndex;\n    }\n\n    function ownerTreesCount(address _account) public view returns (uint256) {\n        return balanceOf(_account);\n    }\n\n    function treeOwner(uint256 _treeId) public view returns (address) {\n        return ownerOf(_treeId);\n    }\n\n    function getOwnerTrees(address _account) public view returns (uint256[] memory) {\n\n        uint256 tokenCount = balanceOf(_account);\n\n        if (tokenCount == 0) {\n            // Return an empty array\n            return new uint256[](0);\n        }\n\n        uint256[] memory result = new uint256[](tokenCount);\n\n        for (uint256 index = 0; index < tokenCount; index++) {\n            result[index] = tokenOfOwnerByIndex(_account, index);\n        }\n\n        return result;\n    }\n\n    function setPrice(uint256 _price) external {\n        accessRestriction.ifAdmin(msg.sender);\n\n        price = _price;\n        emit PriceChanged(_price);\n    }\n    \n\n    function fund(uint256 _count) external payable {\n        uint256 balance = msg.value / _count;\n\n        //@todo check for treePrice\n        require(balance >= price, \"Balance is not sufficient\");\n\n        for (uint8 i = 0; i < _count; i++) {\n            uint256 id = 0;\n            uint256 planterBalance = _calculateBalance(planterPercentage, balance);\n            uint256 ambassadorBalance = 0;\n            bool hasAmbasador = false;\n\n            if (notFundedTreesExists() == true) {\n                id = getLastNotFundedTreeId();\n                uint256 gbId = treeToGB[id];\n                address gbAmbassador = gbFactory.getGBAmbassador(gbId);\n\n                if (gbAmbassador != address(0)) {\n                    hasAmbasador = true;\n                    ambassadorBalance =_calculateBalance(ambassadorPercentage, balance);\n                }\n\n                id = fundPlantedTress(msg.sender, planterBalance, _calculateBalancePerSecond(planterBalance),\n                ambassadorBalance, _calculateBalancePerSecond(ambassadorBalance));\n\n            } else {\n                id = simpleFund(msg.sender, planterBalance, _calculateBalancePerSecond(planterBalance), 0, 0);\n            }\n\n            _updateBalances(balance, hasAmbasador);\n\n            emit TreeFunded(id, planterBalance, ambassadorBalance, balance, msg.sender);\n        }\n    }\n\n    function _calculateBalancePerSecond(uint256 _balance) private pure returns(uint256) {\n        if(_balance == 0) {\n            return 0;\n        }\n        return _balance / treeBalanceWithdrawnSeconds;\n    }\n\n    function _calculateBalance(uint256 _percentage, uint256 _balance)\n        private\n        pure\n        returns (uint256)\n    {\n        return (_balance * _percentage) / 100;\n    }\n\n    function _updateBalances(uint256 _balance, bool _hasAmbasador) private {\n        uint256 localDevelopmentFundBalance = _calculateBalance(\n            localDevelopmentFundPercentage,\n            _balance\n        );\n        uint256 ambassadorBalance = _calculateBalance(\n            ambassadorPercentage,\n            _balance\n        );\n        if (_hasAmbasador == false) {\n            ambassadorBalance = 0;\n            localDevelopmentFundBalance =\n                localDevelopmentFundBalance +\n                ambassadorBalance;\n        }\n\n        balances = [\n            balances[0] + _calculateBalance(treejerPercentage, _balance),\n            balances[1] + _calculateBalance(planterPercentage, _balance),\n            balances[2] + ambassadorBalance,\n            balances[3] + localDevelopmentFundBalance,\n            balances[4] + _calculateBalance(rescueFundPercentage, _balance),\n            balances[5] + _calculateBalance(researchFundPercentage, _balance)\n        ];\n    }\n\n    function getBalances() external view returns (uint256[6] memory) {\n        return balances;\n    }\n\n    function withdrawBalance(uint8 _index, address payable _to)\n        external\n    {\n        accessRestriction.ifAdmin(msg.sender);\n\n        require(\n            _index != 1 && _index != 2,\n            \"These indexes are autamtic and by request of planter and ambassador!\"\n        );\n\n        require(balances[_index] > 0, \"Balance is zero!\");\n\n        uint256 withdrawableBalance = balances[_index];\n\n        balances[_index] = 0;\n\n        Address.sendValue(_to, withdrawableBalance);\n    }\n\n    function withdrawPlanterBalance() external {\n\n        accessRestriction.ifPlanter(msg.sender);\n\n        uint256 planterTreesCount = planterTreeCount[msg.sender];\n\n        require(\n            planterTreesCount > 0,\n            \"Planter tree count is zero\"\n        );\n\n        uint256 withdrawableBalance = 0;\n        uint256[] memory treeIds = planterTrees[msg.sender];\n\n        for (\n            uint256 i = 0;\n            i < planterTreesCount;\n            i++\n        ) {\n            uint256 treeId = treeIds[i];\n            \n            uint256[] memory treeUpdates = updateFactory.getTreeUpdates(treeId);\n            uint256 totalSeconds = 0;\n\n            if(treeToPlanterRemainingBalance[treeId] <= 0) {\n                continue;\n            }\n\n            if (treeUpdates.length == 0) {\n                continue;\n            }\n\n            if (updateFactory.isTreeLastUpdatePlanterBalanceWithdrawn(treeId) == true) {\n                continue;\n            }\n\n            for (uint256 j = treeUpdates.length; j > 0; j--) {\n                uint256 jUpdateId = treeUpdates[j - 1];\n\n                if (updateFactory.getStatus(jUpdateId) != 1) {\n                    continue;\n                }\n\n                if (updateFactory.isPlanterBalanceWithdrawn(jUpdateId) == true) {\n                    continue;\n                }\n\n                if (j > 1) {\n                    uint256 jMinusUpdateId = treeUpdates[j - 2];\n\n                    if (updateFactory.getStatus(jMinusUpdateId) != 1) {\n                        continue;\n                    }\n\n                    totalSeconds =\n                        totalSeconds +\n                        updateFactory.getUpdateDate(jUpdateId) -\n                        updateFactory.getUpdateDate(jMinusUpdateId);\n                } else {\n                    totalSeconds =\n                        totalSeconds +\n                        updateFactory.getUpdateDate(jUpdateId) -\n                        trees[treeId].plantedDate;\n                }\n\n                updateFactory.setPlanterBalanceWithdrawn(jUpdateId);\n            }\n\n            if(totalSeconds > 0) {\n                withdrawableBalance = withdrawableBalance + (treeToPlanterBalancePerSecond[treeId] * totalSeconds);\n                treeToPlanterRemainingBalance[treeId] = treeToPlanterRemainingBalance[treeId] - (treeToPlanterBalancePerSecond[treeId] * totalSeconds);\n\n            }\n\n        }\n\n        require(withdrawableBalance > 0, \"withdrawableBalance is zero\");\n\n        balances[1] = balances[1] - withdrawableBalance;\n\n        Address.sendValue(msg.sender, withdrawableBalance);\n\n        emit PlanterBalanceWithdrawn(msg.sender, withdrawableBalance);\n    }\n\n    function withdrawAmbassadorBalance() external {\n\n        accessRestriction.ifAmbassador(msg.sender);\n\n        uint256 ambassadorGBCount = gbFactory.getAmbassadorGBCount(msg.sender);\n\n        require(ambassadorGBCount > 0, \"Ambassador gb count is zero\");\n        \n        uint256[] memory gbIds = gbFactory.getAmbassadorGBs(msg.sender);\n\n        uint256 withdrawableBalance = 0;\n\n        for (uint256 k = 0; k < ambassadorGBCount; k++) {\n\n            uint256 _gbId = gbIds[k];\n\n            uint256 gbTreesCount = gbTreeCount[_gbId];\n\n            if(gbTreesCount == 0) {\n                continue;\n            }\n\n            uint256[] memory treeIds = gbTrees[_gbId];\n        \n            for (uint256 i = 0; i < gbTreesCount; i++) {\n\n                uint256 treeId = treeIds[i];\n\n                uint256[] memory treeUpdates = updateFactory.getTreeUpdates(treeId);\n                uint256 totalSeconds = 0;\n\n                if(treeToAmbassadorRemainingBalance[treeId] <= 0) {\n                    continue;\n                }\n\n                if (treeUpdates.length == 0) {\n                    continue;\n                }\n\n                if (updateFactory.isTreeLastUpdateAmbassadorBalanceWithdrawn(treeId) == true) {\n                    continue;\n                }\n\n                for (uint256 j = treeUpdates.length; j > 0; j--) {\n                    uint256 jUpdateId = treeUpdates[j - 1];\n\n                    if (updateFactory.getStatus(jUpdateId) != 1) {\n                        continue;\n                    }\n\n                    if (updateFactory.isAmbassadorBalanceWithdrawn(jUpdateId) == true) {\n                        continue;\n                    }\n\n                    if (j > 1) {\n                        uint256 jMinusUpdateId = treeUpdates[j - 2];\n\n                        if (updateFactory.getStatus(jMinusUpdateId) != 1) {\n                            continue;\n                        }\n\n                        totalSeconds =\n                            totalSeconds +\n                            updateFactory.getUpdateDate(jUpdateId) -\n                            updateFactory.getUpdateDate(jMinusUpdateId);\n                    } else {\n                        totalSeconds =\n                            totalSeconds +\n                            updateFactory.getUpdateDate(jUpdateId) -\n                            trees[treeId].plantedDate;\n                    }\n\n                    updateFactory.setAmbassadorBalanceWithdrawn(jUpdateId);\n                }\n\n                if(totalSeconds > 0) {\n                    withdrawableBalance = withdrawableBalance + (treeToAmbassadorBalancePerSecond[treeId] * totalSeconds);\n                    treeToAmbassadorRemainingBalance[treeId] -= (treeToAmbassadorBalancePerSecond[treeId] * totalSeconds);\n                }\n\n            }\n        }\n\n        require(withdrawableBalance > 0, \"withdrawableBalance is zero\");\n\n        balances[2] = balances[2] - withdrawableBalance;\n\n        Address.sendValue(msg.sender, withdrawableBalance);\n\n        emit AmbassadorBalanceWithdrawn(msg.sender, withdrawableBalance);\n    }\n\n    \n}\n",
  "sourcePath": "/home/amir/Projects/treejer/contract/contracts/tree/TreeFactory.sol",
  "compiler": {
    "name": "solc",
    "version": "0.6.9+commit.3e3065ac.Emscripten.clang"
  },
  "schemaVersion": "3.2.3",
  "updatedAt": "2020-10-27T15:23:08.281Z",
  "networkType": "ethereum",
  "devdoc": {
    "methods": {
      "approve(address,uint256)": {
        "details": "Approves another address to transfer the given token ID The zero address indicates there is no approved address. There can only be one approved address per token at a given time. Can only be called by the token owner or an approved operator.",
        "params": {
          "to": "address to be approved for the given token ID",
          "tokenId": "uint256 ID of the token to be approved"
        }
      },
      "balanceOf(address)": {
        "details": "Gets the balance of the specified address.",
        "params": {
          "owner": "address to query the balance of"
        },
        "returns": {
          "_0": "uint256 representing the amount owned by the passed address"
        }
      },
      "baseURI()": {
        "details": "Returns the base URI set via {_setBaseURI}. This will be automatically added as a prefix in {tokenURI} to each token's URI, or to the token ID if no specific URI is set for that token ID."
      },
      "getApproved(uint256)": {
        "details": "Gets the approved address for a token ID, or zero if no address set Reverts if the token ID does not exist.",
        "params": {
          "tokenId": "uint256 ID of the token to query the approval of"
        },
        "returns": {
          "_0": "address currently approved for the given token ID"
        }
      },
      "isApprovedForAll(address,address)": {
        "details": "Tells whether an operator is approved by a given owner.",
        "params": {
          "operator": "operator address which you want to query the approval of",
          "owner": "owner address which you want to query the approval of"
        },
        "returns": {
          "_0": "bool whether the given operator is approved by the given owner"
        }
      },
      "name()": {
        "details": "Gets the token name.",
        "returns": {
          "_0": "string representing the token name"
        }
      },
      "ownerOf(uint256)": {
        "details": "Gets the owner of the specified token ID.",
        "params": {
          "tokenId": "uint256 ID of the token to query the owner of"
        },
        "returns": {
          "_0": "address currently marked as the owner of the given token ID"
        }
      },
      "safeTransferFrom(address,address,uint256)": {
        "details": "Safely transfers the ownership of a given token ID to another address If the target address is a contract, it must implement {IERC721Receiver-onERC721Received}, which is called upon a safe transfer, and return the magic value `bytes4(keccak256(\"onERC721Received(address,address,uint256,bytes)\"))`; otherwise, the transfer is reverted. Requires the msg.sender to be the owner, approved, or operator",
        "params": {
          "from": "current owner of the token",
          "to": "address to receive the ownership of the given token ID",
          "tokenId": "uint256 ID of the token to be transferred"
        }
      },
      "safeTransferFrom(address,address,uint256,bytes)": {
        "details": "Safely transfers the ownership of a given token ID to another address If the target address is a contract, it must implement {IERC721Receiver-onERC721Received}, which is called upon a safe transfer, and return the magic value `bytes4(keccak256(\"onERC721Received(address,address,uint256,bytes)\"))`; otherwise, the transfer is reverted. Requires the _msgSender() to be the owner, approved, or operator",
        "params": {
          "_data": "bytes data to send along with a safe transfer check",
          "from": "current owner of the token",
          "to": "address to receive the ownership of the given token ID",
          "tokenId": "uint256 ID of the token to be transferred"
        }
      },
      "setApprovalForAll(address,bool)": {
        "details": "Sets or unsets the approval of a given operator An operator is allowed to transfer all tokens of the sender on their behalf.",
        "params": {
          "approved": "representing the status of the approval to be set",
          "operator": "operator address to set the approval"
        }
      },
      "supportsInterface(bytes4)": {
        "details": "See {IERC165-supportsInterface}. Time complexity O(1), guaranteed to always use less than 30 000 gas."
      },
      "symbol()": {
        "details": "Gets the token symbol.",
        "returns": {
          "_0": "string representing the token symbol"
        }
      },
      "tokenByIndex(uint256)": {
        "details": "Gets the token ID at a given index of all the tokens in this contract Reverts if the index is greater or equal to the total number of tokens.",
        "params": {
          "index": "uint256 representing the index to be accessed of the tokens list"
        },
        "returns": {
          "_0": "uint256 token ID at the given index of the tokens list"
        }
      },
      "tokenOfOwnerByIndex(address,uint256)": {
        "details": "Gets the token ID at a given index of the tokens list of the requested owner.",
        "params": {
          "index": "uint256 representing the index to be accessed of the requested tokens list",
          "owner": "address owning the tokens list to be accessed"
        },
        "returns": {
          "_0": "uint256 token ID at the given index of the tokens list owned by the requested address"
        }
      },
      "tokenURI(uint256)": {
        "details": "Returns the URI for a given token ID. May return an empty string. If a base URI is set (via {_setBaseURI}), it is added as a prefix to the token's own URI (via {_setTokenURI}). If there is a base URI but no token URI, the token's ID will be used as its URI when appending it to the base URI. This pattern for autogenerated token URIs can lead to large gas savings. .Examples |=== |`_setBaseURI()` |`_setTokenURI()` |`tokenURI()` | \"\" | \"\" | \"\" | \"\" | \"token.uri/123\" | \"token.uri/123\" | \"token.uri/\" | \"123\" | \"token.uri/123\" | \"token.uri/\" | \"\" | \"token.uri/<tokenId>\" |=== Requirements: - `tokenId` must exist."
      },
      "totalSupply()": {
        "details": "Gets the total amount of tokens stored by the contract.",
        "returns": {
          "_0": "uint256 representing the total amount of tokens"
        }
      },
      "transferFrom(address,address,uint256)": {
        "details": "Transfers the ownership of a given token ID to another address. Usage of this method is discouraged, use {safeTransferFrom} whenever possible. Requires the msg.sender to be the owner, approved, or operator.",
        "params": {
          "from": "current owner of the token",
          "to": "address to receive the ownership of the given token ID",
          "tokenId": "uint256 ID of the token to be transferred"
        }
      }
    }
  },
  "userdoc": {
    "methods": {}
  }
}