{
  "contractName": "TreeType",
  "abi": [
    {
      "anonymous": false,
      "inputs": [
        {
          "indexed": false,
          "internalType": "uint256",
          "name": "typeId",
          "type": "uint256"
        },
        {
          "indexed": false,
          "internalType": "string",
          "name": "name",
          "type": "string"
        },
        {
          "indexed": false,
          "internalType": "string",
          "name": "scientificName",
          "type": "string"
        },
        {
          "indexed": false,
          "internalType": "uint256",
          "name": "O2Formula",
          "type": "uint256"
        },
        {
          "indexed": false,
          "internalType": "uint256",
          "name": "price",
          "type": "uint256"
        }
      ],
      "name": "NewType",
      "type": "event"
    },
    {
      "inputs": [],
      "name": "accessRestriction",
      "outputs": [
        {
          "internalType": "contract IAccessRestriction",
          "name": "",
          "type": "address"
        }
      ],
      "stateMutability": "view",
      "type": "function",
      "constant": true
    },
    {
      "inputs": [],
      "name": "isTreeType",
      "outputs": [
        {
          "internalType": "bool",
          "name": "",
          "type": "bool"
        }
      ],
      "stateMutability": "view",
      "type": "function",
      "constant": true
    },
    {
      "inputs": [
        {
          "internalType": "uint256",
          "name": "",
          "type": "uint256"
        }
      ],
      "name": "types",
      "outputs": [
        {
          "internalType": "string",
          "name": "name",
          "type": "string"
        },
        {
          "internalType": "string",
          "name": "scientificName",
          "type": "string"
        },
        {
          "internalType": "uint256",
          "name": "O2Formula",
          "type": "uint256"
        },
        {
          "internalType": "uint256",
          "name": "price",
          "type": "uint256"
        }
      ],
      "stateMutability": "view",
      "type": "function",
      "constant": true
    },
    {
      "inputs": [
        {
          "internalType": "address",
          "name": "_accessRestrictionAddress",
          "type": "address"
        }
      ],
      "name": "initialize",
      "outputs": [],
      "stateMutability": "nonpayable",
      "type": "function"
    },
    {
      "inputs": [
        {
          "internalType": "string",
          "name": "_name",
          "type": "string"
        },
        {
          "internalType": "string",
          "name": "_scientificName",
          "type": "string"
        },
        {
          "internalType": "uint256",
          "name": "_O2Formula",
          "type": "uint256"
        },
        {
          "internalType": "uint256",
          "name": "_price",
          "type": "uint256"
        }
      ],
      "name": "create",
      "outputs": [],
      "stateMutability": "nonpayable",
      "type": "function"
    },
    {
      "inputs": [],
      "name": "total",
      "outputs": [
        {
          "internalType": "uint256",
          "name": "",
          "type": "uint256"
        }
      ],
      "stateMutability": "view",
      "type": "function",
      "constant": true
    }
  ],
  "bytecode": "0x608060405234801561001057600080fd5b50610882806100206000396000f3fe608060405234801561001057600080fd5b50600436106100625760003560e01c80632ddbd13a1461006757806350aaf39d14610081578063a20d99fc1461009d578063c4d66de814610167578063cefbfa361461018d578063d6762c4a14610296575b600080fd5b61006f6102ba565b60408051918252519081900360200190f35b6100896102c1565b604080519115158252519081900360200190f35b610165600480360360808110156100b357600080fd5b8101906020810181356401000000008111156100ce57600080fd5b8201836020820111156100e057600080fd5b8035906020019184600183028401116401000000008311171561010257600080fd5b91939092909160208101903564010000000081111561012057600080fd5b82018360208201111561013257600080fd5b8035906020019184600183028401116401000000008311171561015457600080fd5b9193509150803590602001356102ca565b005b6101656004803603602081101561017d57600080fd5b50356001600160a01b03166104cf565b6101aa600480360360208110156101a357600080fd5b5035610617565b604051808060200180602001858152602001848152602001838103835287818151815260200191508051906020019080838360005b838110156101f75781810151838201526020016101df565b50505050905090810190601f1680156102245780820380516001836020036101000a031916815260200191505b50838103825286518152865160209182019188019080838360005b8381101561025757818101518382015260200161023f565b50505050905090810190601f1680156102845780820380516001836020036101000a031916815260200191505b50965050505050505060405180910390f35b61029e610771565b604080516001600160a01b039092168252519081900360200190f35b6034545b90565b60335460ff1681565b60355460408051632104fb0560e21b815233600482015290516001600160a01b0390921691638413ec1491602480820192600092909190829003018186803b15801561031557600080fd5b505afa158015610329573d6000803e3d6000fd5b505050506034604051806080016040528088888080601f016020809104026020016040519081016040528093929190818152602001838380828437600092019190915250505090825250604080516020601f8901819004810282018101909252878152918101919088908890819084018382808284376000920182905250938552505050602080830187905260409092018590528354600181018555938152819020825180519394600402909101926103e59284920190610786565b5060208281015180516103fe9260018501920190610786565b5060408201518160020155606082015181600301555050600060016034805490500390507f2487dd7f9b73172e67560419cf16d322bc9836c20aed2dc3edf57e9e9e9388bf818888888888886040518088815260200180602001806020018581526020018481526020018381038352898982818152602001925080828437600083820152601f01601f191690910184810383528781526020019050878780828437600083820152604051601f909101601f19169092018290039b50909950505050505050505050a150505050505050565b600054610100900460ff16806104e857506104e8610780565b806104f6575060005460ff16155b6105315760405162461bcd60e51b815260040180806020018281038252602e81526020018061081f602e913960400191505060405180910390fd5b600054610100900460ff1615801561055c576000805460ff1961ff0019909116610100171660011790555b6033805460ff191660011790556040805163ba84fd6960e01b8152905183916001600160a01b0383169163ba84fd6991600480820192602092909190829003018186803b1580156105ac57600080fd5b505afa1580156105c0573d6000803e3d6000fd5b505050506040513d60208110156105d657600080fd5b50516105e157600080fd5b603580546001600160a01b0319166001600160a01b03929092169190911790558015610613576000805461ff00191690555b5050565b6034818154811061062457fe5b60009182526020918290206004919091020180546040805160026001841615610100026000190190931692909204601f8101859004850283018501909152808252919350918391908301828280156106bd5780601f10610692576101008083540402835291602001916106bd565b820191906000526020600020905b8154815290600101906020018083116106a057829003601f168201915b505050505090806001018054600181600116156101000203166002900480601f01602080910402602001604051908101604052809291908181526020018280546001816001161561010002031660029004801561075b5780601f106107305761010080835404028352916020019161075b565b820191906000526020600020905b81548152906001019060200180831161073e57829003601f168201915b5050505050908060020154908060030154905084565b6035546001600160a01b031681565b303b1590565b828054600181600116156101000203166002900490600052602060002090601f016020900481019282601f106107c757805160ff19168380011785556107f4565b828001600101855582156107f4579182015b828111156107f45782518255916020019190600101906107d9565b50610800929150610804565b5090565b6102be91905b80821115610800576000815560010161080a56fe436f6e747261637420696e7374616e63652068617320616c7265616479206265656e20696e697469616c697a6564a264697066735822122056f3cce8d6c50a2c70e8781a8665a2f401ce09fab69c617ef9482d585c3e77b664736f6c63430006090033",
  "immutableReferences": {},
  "source": "// SPDX-License-Identifier: GPL-3.0\n\npragma solidity >=0.4.21 <0.7.0;\n\nimport \"../access/IAccessRestriction.sol\";\nimport \"../../node_modules/@openzeppelin/contracts-ethereum-package/contracts/Initializable.sol\";\nimport \"../../node_modules/@openzeppelin/contracts-ethereum-package/contracts/math/SafeMath.sol\";\n\ncontract TreeType is Initializable {\n    event NewType(\n        uint256 typeId,\n        string name,\n        string scientificName,\n        uint256 O2Formula,\n        uint256 price\n    );\n\n    struct Type {\n        string name;\n        string scientificName;\n        uint256 O2Formula;\n        uint256 price;\n    }\n\n    bool public isTreeType;\n\n    Type[] public types;\n\n    IAccessRestriction public accessRestriction;\n\n    function initialize(address _accessRestrictionAddress) public initializer {\n        isTreeType = true;\n        IAccessRestriction candidateContract =\n            IAccessRestriction(_accessRestrictionAddress);\n        require(candidateContract.isAccessRestriction());\n        accessRestriction = candidateContract;\n    }\n\n    function create(\n        string calldata _name,\n        string calldata _scientificName,\n        uint256 _O2Formula,\n        uint256 _price\n    ) external {\n        accessRestriction.ifAdmin(msg.sender);\n\n        types.push(Type(_name, _scientificName, _O2Formula, _price));\n        uint256 id = types.length - 1;\n\n        emit NewType(id, _name, _scientificName, _O2Formula, _price);\n    }\n\n    function total() external view returns (uint256) {\n        return types.length;\n    }\n}\n",
  "sourcePath": "/home/amir/Projects/treejer/contract/contracts/tree/TreeType.sol",
  "compiler": {
    "name": "solc",
    "version": "0.6.9+commit.3e3065ac.Emscripten.clang"
  },
  "schemaVersion": "3.2.3",
  "updatedAt": "2020-12-26T11:36:26.795Z",
  "networkType": "ethereum",
  "devdoc": {
    "methods": {}
  },
  "userdoc": {
    "methods": {}
  }
}