{
  "contractName": "Tree",
  "abi": [
    {
      "anonymous": false,
      "inputs": [
        {
          "indexed": true,
          "internalType": "address",
          "name": "owner",
          "type": "address"
        },
        {
          "indexed": true,
          "internalType": "address",
          "name": "approved",
          "type": "address"
        },
        {
          "indexed": true,
          "internalType": "uint256",
          "name": "tokenId",
          "type": "uint256"
        }
      ],
      "name": "Approval",
      "type": "event"
    },
    {
      "anonymous": false,
      "inputs": [
        {
          "indexed": true,
          "internalType": "address",
          "name": "owner",
          "type": "address"
        },
        {
          "indexed": true,
          "internalType": "address",
          "name": "operator",
          "type": "address"
        },
        {
          "indexed": false,
          "internalType": "bool",
          "name": "approved",
          "type": "bool"
        }
      ],
      "name": "ApprovalForAll",
      "type": "event"
    },
    {
      "anonymous": false,
      "inputs": [
        {
          "indexed": true,
          "internalType": "address",
          "name": "from",
          "type": "address"
        },
        {
          "indexed": true,
          "internalType": "address",
          "name": "to",
          "type": "address"
        },
        {
          "indexed": true,
          "internalType": "uint256",
          "name": "tokenId",
          "type": "uint256"
        }
      ],
      "name": "Transfer",
      "type": "event"
    },
    {
      "inputs": [],
      "name": "accessRestriction",
      "outputs": [
        {
          "internalType": "contract IAccessRestriction",
          "name": "",
          "type": "address"
        }
      ],
      "stateMutability": "view",
      "type": "function",
      "constant": true
    },
    {
      "inputs": [
        {
          "internalType": "address",
          "name": "to",
          "type": "address"
        },
        {
          "internalType": "uint256",
          "name": "tokenId",
          "type": "uint256"
        }
      ],
      "name": "approve",
      "outputs": [],
      "stateMutability": "nonpayable",
      "type": "function"
    },
    {
      "inputs": [
        {
          "internalType": "address",
          "name": "owner",
          "type": "address"
        }
      ],
      "name": "balanceOf",
      "outputs": [
        {
          "internalType": "uint256",
          "name": "",
          "type": "uint256"
        }
      ],
      "stateMutability": "view",
      "type": "function",
      "constant": true
    },
    {
      "inputs": [],
      "name": "baseURI",
      "outputs": [
        {
          "internalType": "string",
          "name": "",
          "type": "string"
        }
      ],
      "stateMutability": "view",
      "type": "function",
      "constant": true
    },
    {
      "inputs": [
        {
          "internalType": "uint256",
          "name": "tokenId",
          "type": "uint256"
        }
      ],
      "name": "getApproved",
      "outputs": [
        {
          "internalType": "address",
          "name": "",
          "type": "address"
        }
      ],
      "stateMutability": "view",
      "type": "function",
      "constant": true
    },
    {
      "inputs": [
        {
          "internalType": "address",
          "name": "owner",
          "type": "address"
        },
        {
          "internalType": "address",
          "name": "operator",
          "type": "address"
        }
      ],
      "name": "isApprovedForAll",
      "outputs": [
        {
          "internalType": "bool",
          "name": "",
          "type": "bool"
        }
      ],
      "stateMutability": "view",
      "type": "function",
      "constant": true
    },
    {
      "inputs": [],
      "name": "isTree",
      "outputs": [
        {
          "internalType": "bool",
          "name": "",
          "type": "bool"
        }
      ],
      "stateMutability": "view",
      "type": "function",
      "constant": true
    },
    {
      "inputs": [],
      "name": "name",
      "outputs": [
        {
          "internalType": "string",
          "name": "",
          "type": "string"
        }
      ],
      "stateMutability": "view",
      "type": "function",
      "constant": true
    },
    {
      "inputs": [
        {
          "internalType": "uint256",
          "name": "tokenId",
          "type": "uint256"
        }
      ],
      "name": "ownerOf",
      "outputs": [
        {
          "internalType": "address",
          "name": "",
          "type": "address"
        }
      ],
      "stateMutability": "view",
      "type": "function",
      "constant": true
    },
    {
      "inputs": [
        {
          "internalType": "address",
          "name": "from",
          "type": "address"
        },
        {
          "internalType": "address",
          "name": "to",
          "type": "address"
        },
        {
          "internalType": "uint256",
          "name": "tokenId",
          "type": "uint256"
        }
      ],
      "name": "safeTransferFrom",
      "outputs": [],
      "stateMutability": "nonpayable",
      "type": "function"
    },
    {
      "inputs": [
        {
          "internalType": "address",
          "name": "from",
          "type": "address"
        },
        {
          "internalType": "address",
          "name": "to",
          "type": "address"
        },
        {
          "internalType": "uint256",
          "name": "tokenId",
          "type": "uint256"
        },
        {
          "internalType": "bytes",
          "name": "_data",
          "type": "bytes"
        }
      ],
      "name": "safeTransferFrom",
      "outputs": [],
      "stateMutability": "nonpayable",
      "type": "function"
    },
    {
      "inputs": [
        {
          "internalType": "address",
          "name": "operator",
          "type": "address"
        },
        {
          "internalType": "bool",
          "name": "approved",
          "type": "bool"
        }
      ],
      "name": "setApprovalForAll",
      "outputs": [],
      "stateMutability": "nonpayable",
      "type": "function"
    },
    {
      "inputs": [
        {
          "internalType": "bytes4",
          "name": "interfaceId",
          "type": "bytes4"
        }
      ],
      "name": "supportsInterface",
      "outputs": [
        {
          "internalType": "bool",
          "name": "",
          "type": "bool"
        }
      ],
      "stateMutability": "view",
      "type": "function",
      "constant": true
    },
    {
      "inputs": [],
      "name": "symbol",
      "outputs": [
        {
          "internalType": "string",
          "name": "",
          "type": "string"
        }
      ],
      "stateMutability": "view",
      "type": "function",
      "constant": true
    },
    {
      "inputs": [
        {
          "internalType": "uint256",
          "name": "index",
          "type": "uint256"
        }
      ],
      "name": "tokenByIndex",
      "outputs": [
        {
          "internalType": "uint256",
          "name": "",
          "type": "uint256"
        }
      ],
      "stateMutability": "view",
      "type": "function",
      "constant": true
    },
    {
      "inputs": [
        {
          "internalType": "address",
          "name": "owner",
          "type": "address"
        },
        {
          "internalType": "uint256",
          "name": "index",
          "type": "uint256"
        }
      ],
      "name": "tokenOfOwnerByIndex",
      "outputs": [
        {
          "internalType": "uint256",
          "name": "",
          "type": "uint256"
        }
      ],
      "stateMutability": "view",
      "type": "function",
      "constant": true
    },
    {
      "inputs": [
        {
          "internalType": "uint256",
          "name": "tokenId",
          "type": "uint256"
        }
      ],
      "name": "tokenURI",
      "outputs": [
        {
          "internalType": "string",
          "name": "",
          "type": "string"
        }
      ],
      "stateMutability": "view",
      "type": "function",
      "constant": true
    },
    {
      "inputs": [],
      "name": "totalSupply",
      "outputs": [
        {
          "internalType": "uint256",
          "name": "",
          "type": "uint256"
        }
      ],
      "stateMutability": "view",
      "type": "function",
      "constant": true
    },
    {
      "inputs": [
        {
          "internalType": "address",
          "name": "from",
          "type": "address"
        },
        {
          "internalType": "address",
          "name": "to",
          "type": "address"
        },
        {
          "internalType": "uint256",
          "name": "tokenId",
          "type": "uint256"
        }
      ],
      "name": "transferFrom",
      "outputs": [],
      "stateMutability": "nonpayable",
      "type": "function"
    },
    {
      "inputs": [
        {
          "internalType": "address",
          "name": "_accessRestrictionAddress",
          "type": "address"
        },
        {
          "internalType": "string",
          "name": "_baseURI",
          "type": "string"
        }
      ],
      "name": "initialize",
      "outputs": [],
      "stateMutability": "nonpayable",
      "type": "function"
    },
    {
      "inputs": [
        {
          "internalType": "string",
          "name": "_baseURI",
          "type": "string"
        }
      ],
      "name": "setBaseURI",
      "outputs": [],
      "stateMutability": "nonpayable",
      "type": "function"
    },
    {
      "inputs": [
        {
          "internalType": "uint256",
          "name": "_tokenId",
          "type": "uint256"
        },
        {
          "internalType": "string",
          "name": "_tokenURI",
          "type": "string"
        }
      ],
      "name": "setTokenURI",
      "outputs": [],
      "stateMutability": "nonpayable",
      "type": "function"
    },
    {
      "inputs": [
        {
          "internalType": "address",
          "name": "_account",
          "type": "address"
        }
      ],
      "name": "getOwnerTokens",
      "outputs": [
        {
          "internalType": "uint256[]",
          "name": "",
          "type": "uint256[]"
        }
      ],
      "stateMutability": "view",
      "type": "function",
      "constant": true
    },
    {
      "inputs": [
        {
          "internalType": "address",
          "name": "_from",
          "type": "address"
        },
        {
          "internalType": "address",
          "name": "_to",
          "type": "address"
        },
        {
          "internalType": "uint256",
          "name": "_tokenId",
          "type": "uint256"
        }
      ],
      "name": "safeTransferExtra",
      "outputs": [],
      "stateMutability": "nonpayable",
      "type": "function"
    },
    {
      "inputs": [
        {
          "internalType": "address",
          "name": "_to",
          "type": "address"
        },
        {
          "internalType": "uint256",
          "name": "_tokenId",
          "type": "uint256"
        }
      ],
      "name": "safeMint",
      "outputs": [],
      "stateMutability": "nonpayable",
      "type": "function"
    }
  ],
  "bytecode": "0x608060405234801561001057600080fd5b5061298d806100206000396000f3fe608060405234801561001057600080fd5b50600436106101735760003560e01c80636352211e116100de578063b88d4fde11610097578063d63d4af011610071578063d63d4af014610681578063d6762c4a146106f7578063e985e9c5146106ff578063f399e22e1461072d57610173565b8063b88d4fde1461056a578063b9b7be5b1461062e578063c87b56dd1461066457610173565b80636352211e146104bd5780636c0360eb146104da57806370a08231146104e257806395d89b4114610508578063a144819414610510578063a22cb4651461053c57610173565b806323b872dd1161013057806323b872dd1461035c5780632f745c591461039257806337b9fd77146103be57806342842e0e146103c65780634f6ccce7146103fc57806355f804b31461041957610173565b806301ffc9a71461017857806306fdde03146101b3578063081812fc14610230578063095ea7b314610269578063162094c41461029757806318160ddd14610342575b600080fd5b61019f6004803603602081101561018e57600080fd5b50356001600160e01b0319166107ab565b604080519115158252519081900360200190f35b6101bb6107ce565b6040805160208082528351818301528351919283929083019185019080838360005b838110156101f55781810151838201526020016101dd565b50505050905090810190601f1680156102225780820380516001836020036101000a031916815260200191505b509250505060405180910390f35b61024d6004803603602081101561024657600080fd5b5035610865565b604080516001600160a01b039092168252519081900360200190f35b6102956004803603604081101561027f57600080fd5b506001600160a01b0381351690602001356108c7565b005b610295600480360360408110156102ad57600080fd5b81359190810190604081016020820135600160201b8111156102ce57600080fd5b8201836020820111156102e057600080fd5b803590602001918460018302840111600160201b8311171561030157600080fd5b91908080601f0160208091040260200160405190810160405280939291908181526020018383808284376000920191909152509295506109a2945050505050565b61034a610b03565b60408051918252519081900360200190f35b6102956004803603606081101561037257600080fd5b506001600160a01b03813581169160208101359091169060400135610b14565b61034a600480360360408110156103a857600080fd5b506001600160a01b038135169060200135610b6b565b61019f610b9c565b610295600480360360608110156103dc57600080fd5b506001600160a01b03813581169160208101359091169060400135610ba5565b61034a6004803603602081101561041257600080fd5b5035610bc0565b6102956004803603602081101561042f57600080fd5b810190602081018135600160201b81111561044957600080fd5b82018360208201111561045b57600080fd5b803590602001918460018302840111600160201b8311171561047c57600080fd5b91908080601f016020809104026020016040519081016040528093929190818152602001838380828437600092019190915250929550610bdc945050505050565b61024d600480360360208110156104d357600080fd5b5035610c4f565b6101bb610c7d565b61034a600480360360208110156104f857600080fd5b50356001600160a01b0316610cde565b6101bb610d46565b6102956004803603604081101561052657600080fd5b506001600160a01b038135169060200135610da7565b6102956004803603604081101561055257600080fd5b506001600160a01b0381351690602001351515610e18565b6102956004803603608081101561058057600080fd5b6001600160a01b03823581169260208101359091169160408201359190810190608081016060820135600160201b8111156105ba57600080fd5b8201836020820111156105cc57600080fd5b803590602001918460018302840111600160201b831117156105ed57600080fd5b91908080601f016020809104026020016040519081016040528093929190818152602001838380828437600092019190915250929550610f1d945050505050565b6102956004803603606081101561064457600080fd5b506001600160a01b03813581169160208101359091169060400135610f7b565b6101bb6004803603602081101561067a57600080fd5b5035610ffd565b6106a76004803603602081101561069757600080fd5b50356001600160a01b03166112a4565b60408051602080825283518183015283519192839290830191858101910280838360005b838110156106e35781810151838201526020016106cb565b505050509050019250505060405180910390f35b61024d611348565b61019f6004803603604081101561071557600080fd5b506001600160a01b038135811691602001351661135c565b6102956004803603604081101561074357600080fd5b6001600160a01b038235169190810190604081016020820135600160201b81111561076d57600080fd5b82018360208201111561077f57600080fd5b803590602001918460018302840111600160201b831117156107a057600080fd5b50909250905061138a565b6001600160e01b0319811660009081526033602052604090205460ff165b919050565b606a8054604080516020601f600260001961010060018816150201909516949094049384018190048102820181019092528281526060939092909183018282801561085a5780601f1061082f5761010080835404028352916020019161085a565b820191906000526020600020905b81548152906001019060200180831161083d57829003601f168201915b505050505090505b90565b600061087082611552565b6108ab5760405162461bcd60e51b815260040180806020018281038252602c815260200180612811602c913960400191505060405180910390fd5b506000908152606860205260409020546001600160a01b031690565b60006108d282610c4f565b9050806001600160a01b0316836001600160a01b031614156109255760405162461bcd60e51b81526004018080602001828103825260218152602001806128c16021913960400191505060405180910390fd5b806001600160a01b0316610937611565565b6001600160a01b03161480610958575061095881610953611565565b61135c565b6109935760405162461bcd60e51b81526004018080602001828103825260388152602001806127366038913960400191505060405180910390fd5b61099d8383611569565b505050565b60975460408051630fdc0e3360e01b815233600482015290516101009092046001600160a01b031691630fdc0e3391602480820192602092909190829003018186803b1580156109f157600080fd5b505afa158015610a05573d6000803e3d6000fd5b505050506040513d6020811015610a1b57600080fd5b505180610a38575033610a2d83610c4f565b6001600160a01b0316145b80610aba575060975460408051636a3a3d2960e11b815233600482015290516101009092046001600160a01b03169163d4747a5291602480820192602092909190829003018186803b158015610a8d57600080fd5b505afa158015610aa1573d6000803e3d6000fd5b505050506040513d6020811015610ab757600080fd5b50515b610af55760405162461bcd60e51b81526004018080602001828103825260458152602001806129136045913960600191505060405180910390fd5b610aff82826115d7565b5050565b6000610b0f606661163a565b905090565b610b25610b1f611565565b82611645565b610b605760405162461bcd60e51b81526004018080602001828103825260318152602001806128e26031913960400191505060405180910390fd5b61099d8383836116e9565b6001600160a01b0382166000908152606560205260408120610b93908363ffffffff61184716565b90505b92915050565b60975460ff1681565b61099d83838360405180602001604052806000815250610f1d565b600080610bd460668463ffffffff61185316565b509392505050565b60975460408051632104fb0560e21b815233600482015290516101009092046001600160a01b031691638413ec1491602480820192600092909190829003018186803b158015610c2b57600080fd5b505afa158015610c3f573d6000803e3d6000fd5b50505050610c4c8161186f565b50565b6000610b9682604051806060016040528060298152602001612798602991396066919063ffffffff61188216565b606d8054604080516020601f600260001961010060018816150201909516949094049384018190048102820181019092528281526060939092909183018282801561085a5780601f1061082f5761010080835404028352916020019161085a565b60006001600160a01b038216610d255760405162461bcd60e51b815260040180806020018281038252602a81526020018061276e602a913960400191505060405180910390fd5b6001600160a01b0382166000908152606560205260409020610b969061163a565b606b8054604080516020601f600260001961010060018816150201909516949094049384018190048102820181019092528281526060939092909183018282801561085a5780601f1061082f5761010080835404028352916020019161085a565b60975460408051630d26c31f60e41b815233600482015290516101009092046001600160a01b03169163d26c31f091602480820192600092909190829003018186803b158015610df657600080fd5b505afa158015610e0a573d6000803e3d6000fd5b50505050610aff8282611899565b610e20611565565b6001600160a01b0316826001600160a01b03161415610e86576040805162461bcd60e51b815260206004820152601960248201527f4552433732313a20617070726f766520746f2063616c6c657200000000000000604482015290519081900360640190fd5b8060696000610e93611565565b6001600160a01b03908116825260208083019390935260409182016000908120918716808252919093529120805460ff191692151592909217909155610ed7611565565b60408051841515815290516001600160a01b0392909216917f17307eab39ab6107e8899845ad3d59bd9653f200f220920489ca2b5937696c319181900360200190a35050565b610f2e610f28611565565b83611645565b610f695760405162461bcd60e51b81526004018080602001828103825260318152602001806128e26031913960400191505060405180910390fd5b610f75848484846118b3565b50505050565b60975460408051630d26c31f60e41b815233600482015290516101009092046001600160a01b03169163d26c31f091602480820192600092909190829003018186803b158015610fca57600080fd5b505afa158015610fde573d6000803e3d6000fd5b5050505061099d838383604051806020016040528060008152506118b3565b606061100882611552565b6110435760405162461bcd60e51b815260040180806020018281038252602f815260200180612892602f913960400191505060405180910390fd5b6000828152606c602090815260409182902080548351601f60026000196101006001861615020190931692909204918201849004840281018401909452808452606093928301828280156110d85780601f106110ad576101008083540402835291602001916110d8565b820191906000526020600020905b8154815290600101906020018083116110bb57829003601f168201915b5050606d54939450505050600260001961010060018416150201909116046111015790506107c9565b8051156111d257606d8160405160200180838054600181600116156101000203166002900480156111695780601f10611147576101008083540402835291820191611169565b820191906000526020600020905b815481529060010190602001808311611155575b5050825160208401908083835b602083106111955780518252601f199092019160209182019101611176565b6001836020036101000a038019825116818451168082178552505050505050905001925050506040516020818303038152906040529150506107c9565b606d6111dd84611905565b604051602001808380546001816001161561010002031660029004801561123b5780601f1061121957610100808354040283529182019161123b565b820191906000526020600020905b815481529060010190602001808311611227575b5050825160208401908083835b602083106112675780518252601f199092019160209182019101611248565b6001836020036101000a03801982511681845116808217855250505050505090500192505050604051602081830303815290604052915050919050565b606060006112b183610cde565b9050806112ce5750506040805160008152602081019091526107c9565b60608167ffffffffffffffff811180156112e757600080fd5b50604051908082528060200260200182016040528015611311578160200160208202803683370190505b50905060005b82811015610bd4576113298582610b6b565b82828151811061133557fe5b6020908102919091010152600101611317565b60975461010090046001600160a01b031681565b6001600160a01b03918216600090815260696020908152604080832093909416825291909152205460ff1690565b600054610100900460ff16806113a357506113a36119e0565b806113b1575060005460ff16155b6113ec5760405162461bcd60e51b815260040180806020018281038252602e8152602001806127c1602e913960400191505060405180910390fd5b600054610100900460ff16158015611417576000805460ff1961ff0019909116610100171660011790555b6097805460ff191660011790556040805180820182526004808252635472656560e01b6020808401919091528351808501909452908352635452454560e01b90830152611463916119e6565b6114a283838080601f01602080910402602001604051908101604052809392919081815260200183838082843760009201919091525061186f92505050565b6000849050806001600160a01b031663ba84fd696040518163ffffffff1660e01b815260040160206040518083038186803b1580156114e057600080fd5b505afa1580156114f4573d6000803e3d6000fd5b505050506040513d602081101561150a57600080fd5b505161151557600080fd5b609780546001600160a01b0390921661010002610100600160a81b03199092169190911790558015610f75576000805461ff001916905550505050565b6000610b9660668363ffffffff611aa316565b3390565b600081815260686020526040902080546001600160a01b0319166001600160a01b038416908117909155819061159e82610c4f565b6001600160a01b03167f8c5be1e5ebec7d5bd14f71427d1e84f3dd0314c0f7b2291e5b200ac8c7c3b92560405160405180910390a45050565b6115e082611552565b61161b5760405162461bcd60e51b815260040180806020018281038252602c81526020018061283d602c913960400191505060405180910390fd5b6000828152606c60209081526040909120825161099d928401906125d3565b6000610b9682611aaf565b600061165082611552565b61168b5760405162461bcd60e51b815260040180806020018281038252602c81526020018061270a602c913960400191505060405180910390fd5b600061169683610c4f565b9050806001600160a01b0316846001600160a01b031614806116d15750836001600160a01b03166116c684610865565b6001600160a01b0316145b806116e157506116e1818561135c565b949350505050565b826001600160a01b03166116fc82610c4f565b6001600160a01b0316146117415760405162461bcd60e51b81526004018080602001828103825260298152602001806128696029913960400191505060405180910390fd5b6001600160a01b0382166117865760405162461bcd60e51b81526004018080602001828103825260248152602001806126c06024913960400191505060405180910390fd5b61179183838361099d565b61179c600082611569565b6001600160a01b03831660009081526065602052604090206117c4908263ffffffff611ab316565b506001600160a01b03821660009081526065602052604090206117ed908263ffffffff611abf16565b506118006066828463ffffffff611acb16565b5080826001600160a01b0316846001600160a01b03167fddf252ad1be2c89b69c2b068fc378daa952ba7f163c4a11628f55a4df523b3ef60405160405180910390a4505050565b6000610b938383611ae1565b60008080806118628686611b45565b9097909650945050505050565b8051610aff90606d9060208401906125d3565b600061188f848484611bc0565b90505b9392505050565b610aff828260405180602001604052806000815250611c8a565b6118be8484846116e9565b6118ca84848484611cdc565b610f755760405162461bcd60e51b815260040180806020018281038252603281526020018061268e6032913960400191505060405180910390fd5b60608161192a57506040805180820190915260018152600360fc1b60208201526107c9565b8160005b811561194257600101600a8204915061192e565b60608167ffffffffffffffff8111801561195b57600080fd5b506040519080825280601f01601f191660200182016040528015611986576020820181803683370190505b50859350905060001982015b83156119d757600a840660300160f81b828280600190039350815181106119b557fe5b60200101906001600160f81b031916908160001a905350600a84049350611992565b50949350505050565b303b1590565b600054610100900460ff16806119ff57506119ff6119e0565b80611a0d575060005460ff16155b611a485760405162461bcd60e51b815260040180806020018281038252602e8152602001806127c1602e913960400191505060405180910390fd5b600054610100900460ff16158015611a73576000805460ff1961ff0019909116610100171660011790555b611a7b611e5c565b611a83611efd565b611a8d8383611f9a565b801561099d576000805461ff0019169055505050565b6000610b93838361207f565b5490565b6000610b938383612097565b6000610b93838361215d565b600061188f84846001600160a01b0385166121a7565b81546000908210611b235760405162461bcd60e51b815260040180806020018281038252602281526020018061266c6022913960400191505060405180910390fd5b826000018281548110611b3257fe5b9060005260206000200154905092915050565b815460009081908310611b895760405162461bcd60e51b81526004018080602001828103825260228152602001806127ef6022913960400191505060405180910390fd5b6000846000018481548110611b9a57fe5b906000526020600020906002020190508060000154816001015492509250509250929050565b60008281526001840160205260408120548281611c5b5760405162461bcd60e51b81526004018080602001828103825283818151815260200191508051906020019080838360005b83811015611c20578181015183820152602001611c08565b50505050905090810190601f168015611c4d5780820380516001836020036101000a031916815260200191505b509250505060405180910390fd5b50846000016001820381548110611c6e57fe5b9060005260206000209060020201600101549150509392505050565b611c94838361223e565b611ca16000848484611cdc565b61099d5760405162461bcd60e51b815260040180806020018281038252603281526020018061268e6032913960400191505060405180910390fd5b6000611cf0846001600160a01b0316612378565b611cfc575060016116e1565b6060611e22630a85bd0160e11b611d11611565565b88878760405160240180856001600160a01b03166001600160a01b03168152602001846001600160a01b03166001600160a01b0316815260200183815260200180602001828103825283818151815260200191508051906020019080838360005b83811015611d8a578181015183820152602001611d72565b50505050905090810190601f168015611db75780820380516001836020036101000a031916815260200191505b5095505050505050604051602081830303815290604052906001600160e01b0319166020820180516001600160e01b03838183161783525050505060405180606001604052806032815260200161268e603291396001600160a01b038816919063ffffffff61237e16565b90506000818060200190516020811015611e3b57600080fd5b50516001600160e01b031916630a85bd0160e11b1492505050949350505050565b600054610100900460ff1680611e755750611e756119e0565b80611e83575060005460ff16155b611ebe5760405162461bcd60e51b815260040180806020018281038252602e8152602001806127c1602e913960400191505060405180910390fd5b600054610100900460ff16158015611ee9576000805460ff1961ff0019909116610100171660011790555b8015610c4c576000805461ff001916905550565b600054610100900460ff1680611f165750611f166119e0565b80611f24575060005460ff16155b611f5f5760405162461bcd60e51b815260040180806020018281038252602e8152602001806127c1602e913960400191505060405180910390fd5b600054610100900460ff16158015611f8a576000805460ff1961ff0019909116610100171660011790555b611ee96301ffc9a760e01b61238d565b600054610100900460ff1680611fb35750611fb36119e0565b80611fc1575060005460ff16155b611ffc5760405162461bcd60e51b815260040180806020018281038252602e8152602001806127c1602e913960400191505060405180910390fd5b600054610100900460ff16158015612027576000805460ff1961ff0019909116610100171660011790555b825161203a90606a9060208601906125d3565b50815161204e90606b9060208501906125d3565b5061205f6380ac58cd60e01b61238d565b61206f635b5e139f60e01b61238d565b611a8d63780e9d6360e01b61238d565b60009081526001919091016020526040902054151590565b6000818152600183016020526040812054801561215357835460001980830191908101906000908790839081106120ca57fe5b90600052602060002001549050808760000184815481106120e757fe5b60009182526020808320909101929092558281526001898101909252604090209084019055865487908061211757fe5b60019003818190600052602060002001600090559055866001016000878152602001908152602001600020600090556001945050505050610b96565b6000915050610b96565b6000612169838361207f565b61219f57508154600181810184556000848152602080822090930184905584548482528286019093526040902091909155610b96565b506000610b96565b60008281526001840160205260408120548061220c575050604080518082018252838152602080820184815286546001818101895560008981528481209551600290930290950191825591519082015586548684528188019092529290912055611892565b8285600001600183038154811061221f57fe5b9060005260206000209060020201600101819055506000915050611892565b6001600160a01b038216612299576040805162461bcd60e51b815260206004820181905260248201527f4552433732313a206d696e7420746f20746865207a65726f2061646472657373604482015290519081900360640190fd5b6122a281611552565b156122f4576040805162461bcd60e51b815260206004820152601c60248201527f4552433732313a20746f6b656e20616c7265616479206d696e74656400000000604482015290519081900360640190fd5b6123006000838361099d565b6001600160a01b0382166000908152606560205260409020612328908263ffffffff611abf16565b5061233b6066828463ffffffff611acb16565b5060405181906001600160a01b038416906000907fddf252ad1be2c89b69c2b068fc378daa952ba7f163c4a11628f55a4df523b3ef908290a45050565b3b151590565b606061188f8484600085612411565b6001600160e01b031980821614156123ec576040805162461bcd60e51b815260206004820152601c60248201527f4552433136353a20696e76616c696420696e7465726661636520696400000000604482015290519081900360640190fd5b6001600160e01b0319166000908152603360205260409020805460ff19166001179055565b6060824710156124525760405162461bcd60e51b81526004018080602001828103825260268152602001806126e46026913960400191505060405180910390fd5b61245b85612378565b6124ac576040805162461bcd60e51b815260206004820152601d60248201527f416464726573733a2063616c6c20746f206e6f6e2d636f6e7472616374000000604482015290519081900360640190fd5b60006060866001600160a01b031685876040518082805190602001908083835b602083106124eb5780518252601f1990920191602091820191016124cc565b6001836020036101000a03801982511681845116808217855250505050505090500191505060006040518083038185875af1925050503d806000811461254d576040519150601f19603f3d011682016040523d82523d6000602084013e612552565b606091505b509150915061256282828661256d565b979650505050505050565b6060831561257c575081611892565b82511561258c5782518084602001fd5b60405162461bcd60e51b8152602060048201818152845160248401528451859391928392604401919085019080838360008315611c20578181015183820152602001611c08565b828054600181600116156101000203166002900490600052602060002090601f016020900481019282601f1061261457805160ff1916838001178555612641565b82800160010185558215612641579182015b82811115612641578251825591602001919060010190612626565b5061264d929150612651565b5090565b61086291905b8082111561264d576000815560010161265756fe456e756d657261626c655365743a20696e646578206f7574206f6620626f756e64734552433732313a207472616e7366657220746f206e6f6e20455243373231526563656976657220696d706c656d656e7465724552433732313a207472616e7366657220746f20746865207a65726f2061646472657373416464726573733a20696e73756666696369656e742062616c616e636520666f722063616c6c4552433732313a206f70657261746f7220717565727920666f72206e6f6e6578697374656e7420746f6b656e4552433732313a20617070726f76652063616c6c6572206973206e6f74206f776e6572206e6f7220617070726f76656420666f7220616c6c4552433732313a2062616c616e636520717565727920666f7220746865207a65726f20616464726573734552433732313a206f776e657220717565727920666f72206e6f6e6578697374656e7420746f6b656e496e697469616c697a61626c653a20636f6e747261637420697320616c726561647920696e697469616c697a6564456e756d657261626c654d61703a20696e646578206f7574206f6620626f756e64734552433732313a20617070726f76656420717565727920666f72206e6f6e6578697374656e7420746f6b656e4552433732314d657461646174613a2055524920736574206f66206e6f6e6578697374656e7420746f6b656e4552433732313a207472616e73666572206f6620746f6b656e2074686174206973206e6f74206f776e4552433732314d657461646174613a2055524920717565727920666f72206e6f6e6578697374656e7420746f6b656e4552433732313a20617070726f76616c20746f2063757272656e74206f776e65724552433732313a207472616e736665722063616c6c6572206973206e6f74206f776e6572206e6f7220617070726f76656443616c6c6572206d75737420626520706c616e746572206f7220616d6261737361646f72206f72206f776e6572206f662074726565204f522054726565466163746f727921a2646970667358221220b7b479e2cfc75daaead55ee842f10e9a4ea775ff334ac38c63461d948216332a64736f6c634300060a0033",
  "immutableReferences": {},
  "source": "// SPDX-License-Identifier: GPL-3.0\n\npragma solidity >=0.4.21 <0.7.0;\n\nimport \"@openzeppelin/contracts-upgradeable/token/ERC721/ERC721Upgradeable.sol\";\n\nimport \"../access/IAccessRestriction.sol\";\n\ncontract Tree is ERC721Upgradeable {\n    bool public isTree;\n    IAccessRestriction public accessRestriction;\n\n    function initialize(\n        address _accessRestrictionAddress,\n        string calldata _baseURI\n    ) public initializer {\n        isTree = true;\n\n        __ERC721_init(\"Tree\", \"TREE\");\n        _setBaseURI(_baseURI);\n\n        IAccessRestriction candidateContract =\n            IAccessRestriction(_accessRestrictionAddress);\n        require(candidateContract.isAccessRestriction());\n        accessRestriction = candidateContract;\n    }\n\n    function setBaseURI(string memory _baseURI) external {\n        accessRestriction.ifAdmin(msg.sender);\n\n        _setBaseURI(_baseURI);\n    }\n\n    function setTokenURI(uint256 _tokenId, string memory _tokenURI) external {\n        require(\n            accessRestriction.isPlanterOrAmbassador(msg.sender) ||\n                ownerOf(_tokenId) == msg.sender ||\n                accessRestriction.isTreeFactory(msg.sender),\n            \"Caller must be planter or ambassador or owner of tree OR TreeFactory!\"\n        );\n\n        _setTokenURI(_tokenId, _tokenURI);\n    }\n\n    function getOwnerTokens(address _account)\n        public\n        view\n        returns (uint256[] memory)\n    {\n        uint256 tokenCount = balanceOf(_account);\n\n        if (tokenCount == 0) {\n            return new uint256[](0);\n        }\n\n        uint256[] memory result = new uint256[](tokenCount);\n\n        for (uint256 index = 0; index < tokenCount; index++) {\n            result[index] = tokenOfOwnerByIndex(_account, index);\n        }\n\n        return result;\n    }\n\n    function safeTransferExtra(\n        address _from,\n        address _to,\n        uint256 _tokenId\n    ) external {\n        accessRestriction.ifTreeFactory(msg.sender);\n        _safeTransfer(_from, _to, _tokenId, \"\");\n    }\n\n    function safeMint(address _to, uint256 _tokenId) external {\n        accessRestriction.ifTreeFactory(msg.sender);\n        _safeMint(_to, _tokenId);\n    }\n}\n",
  "sourcePath": "/home/amir/Projects/treejer/contract/contracts/tree/Tree.sol",
  "compiler": {
    "name": "solc",
    "version": "0.6.10+commit.00c0fcaf.Emscripten.clang"
  },
  "schemaVersion": "3.3.3",
  "updatedAt": "2021-01-30T12:22:44.206Z",
  "networkType": "ethereum",
  "devdoc": {
    "methods": {
      "approve(address,uint256)": {
        "details": "See {IERC721-approve}."
      },
      "balanceOf(address)": {
        "details": "See {IERC721-balanceOf}."
      },
      "baseURI()": {
        "details": "Returns the base URI set via {_setBaseURI}. This will be automatically added as a prefix in {tokenURI} to each token's URI, or to the token ID if no specific URI is set for that token ID."
      },
      "getApproved(uint256)": {
        "details": "See {IERC721-getApproved}."
      },
      "isApprovedForAll(address,address)": {
        "details": "See {IERC721-isApprovedForAll}."
      },
      "name()": {
        "details": "See {IERC721Metadata-name}."
      },
      "ownerOf(uint256)": {
        "details": "See {IERC721-ownerOf}."
      },
      "safeTransferFrom(address,address,uint256)": {
        "details": "See {IERC721-safeTransferFrom}."
      },
      "safeTransferFrom(address,address,uint256,bytes)": {
        "details": "See {IERC721-safeTransferFrom}."
      },
      "setApprovalForAll(address,bool)": {
        "details": "See {IERC721-setApprovalForAll}."
      },
      "supportsInterface(bytes4)": {
        "details": "See {IERC165-supportsInterface}. Time complexity O(1), guaranteed to always use less than 30 000 gas."
      },
      "symbol()": {
        "details": "See {IERC721Metadata-symbol}."
      },
      "tokenByIndex(uint256)": {
        "details": "See {IERC721Enumerable-tokenByIndex}."
      },
      "tokenOfOwnerByIndex(address,uint256)": {
        "details": "See {IERC721Enumerable-tokenOfOwnerByIndex}."
      },
      "tokenURI(uint256)": {
        "details": "See {IERC721Metadata-tokenURI}."
      },
      "totalSupply()": {
        "details": "See {IERC721Enumerable-totalSupply}."
      },
      "transferFrom(address,address,uint256)": {
        "details": "See {IERC721-transferFrom}."
      }
    }
  },
  "userdoc": {
    "methods": {}
  }
}