{
  "contractName": "TreeFactory",
  "abi": [
    {
      "anonymous": false,
      "inputs": [
        {
          "indexed": false,
          "internalType": "address",
          "name": "ambassador",
          "type": "address"
        },
        {
          "indexed": false,
          "internalType": "uint256",
          "name": "amount",
          "type": "uint256"
        }
      ],
      "name": "AmbassadorBalanceWithdrawn",
      "type": "event"
    },
    {
      "anonymous": false,
      "inputs": [
        {
          "indexed": false,
          "internalType": "address",
          "name": "to",
          "type": "address"
        },
        {
          "indexed": false,
          "internalType": "uint256",
          "name": "amount",
          "type": "uint256"
        },
        {
          "indexed": false,
          "internalType": "address",
          "name": "by",
          "type": "address"
        }
      ],
      "name": "LocalDevelopmentFundWithdrawn",
      "type": "event"
    },
    {
      "anonymous": false,
      "inputs": [
        {
          "indexed": false,
          "internalType": "address",
          "name": "planter",
          "type": "address"
        },
        {
          "indexed": false,
          "internalType": "uint256",
          "name": "amount",
          "type": "uint256"
        }
      ],
      "name": "PlanterBalanceWithdrawn",
      "type": "event"
    },
    {
      "anonymous": false,
      "inputs": [
        {
          "indexed": false,
          "internalType": "uint256",
          "name": "price",
          "type": "uint256"
        }
      ],
      "name": "PriceChanged",
      "type": "event"
    },
    {
      "anonymous": false,
      "inputs": [
        {
          "indexed": false,
          "internalType": "address",
          "name": "to",
          "type": "address"
        },
        {
          "indexed": false,
          "internalType": "uint256",
          "name": "amount",
          "type": "uint256"
        },
        {
          "indexed": false,
          "internalType": "address",
          "name": "by",
          "type": "address"
        }
      ],
      "name": "RescueFundWithdrawn",
      "type": "event"
    },
    {
      "anonymous": false,
      "inputs": [
        {
          "indexed": false,
          "internalType": "address",
          "name": "to",
          "type": "address"
        },
        {
          "indexed": false,
          "internalType": "uint256",
          "name": "amount",
          "type": "uint256"
        },
        {
          "indexed": false,
          "internalType": "address",
          "name": "by",
          "type": "address"
        }
      ],
      "name": "ResearchFundWithdrawn",
      "type": "event"
    },
    {
      "anonymous": false,
      "inputs": [
        {
          "indexed": false,
          "internalType": "uint256",
          "name": "treeId",
          "type": "uint256"
        },
        {
          "indexed": false,
          "internalType": "uint256",
          "name": "planterBalance",
          "type": "uint256"
        },
        {
          "indexed": false,
          "internalType": "uint256",
          "name": "ambassadorBalance",
          "type": "uint256"
        },
        {
          "indexed": false,
          "internalType": "uint256",
          "name": "totalFund",
          "type": "uint256"
        },
        {
          "indexed": false,
          "internalType": "address",
          "name": "owner",
          "type": "address"
        }
      ],
      "name": "TreeFunded",
      "type": "event"
    },
    {
      "anonymous": false,
      "inputs": [
        {
          "indexed": false,
          "internalType": "uint256",
          "name": "id",
          "type": "uint256"
        },
        {
          "indexed": false,
          "internalType": "string",
          "name": "latitude",
          "type": "string"
        },
        {
          "indexed": false,
          "internalType": "string",
          "name": "longitude",
          "type": "string"
        },
        {
          "indexed": false,
          "internalType": "uint256",
          "name": "plantedDate",
          "type": "uint256"
        }
      ],
      "name": "TreePlanted",
      "type": "event"
    },
    {
      "anonymous": false,
      "inputs": [
        {
          "indexed": false,
          "internalType": "address",
          "name": "to",
          "type": "address"
        },
        {
          "indexed": false,
          "internalType": "uint256",
          "name": "amount",
          "type": "uint256"
        },
        {
          "indexed": false,
          "internalType": "address",
          "name": "by",
          "type": "address"
        }
      ],
      "name": "TreejerFundWithdrawn",
      "type": "event"
    },
    {
      "inputs": [],
      "name": "accessRestriction",
      "outputs": [
        {
          "internalType": "contract IAccessRestriction",
          "name": "",
          "type": "address"
        }
      ],
      "stateMutability": "view",
      "type": "function",
      "constant": true
    },
    {
      "inputs": [],
      "name": "ambassadorsFund",
      "outputs": [
        {
          "internalType": "uint256",
          "name": "",
          "type": "uint256"
        }
      ],
      "stateMutability": "view",
      "type": "function",
      "constant": true
    },
    {
      "inputs": [],
      "name": "ambassadorsPercentage",
      "outputs": [
        {
          "internalType": "uint16",
          "name": "",
          "type": "uint16"
        }
      ],
      "stateMutability": "view",
      "type": "function",
      "constant": true
    },
    {
      "inputs": [],
      "name": "gbFactory",
      "outputs": [
        {
          "internalType": "contract IGBFactory",
          "name": "",
          "type": "address"
        }
      ],
      "stateMutability": "view",
      "type": "function",
      "constant": true
    },
    {
      "inputs": [
        {
          "internalType": "uint256",
          "name": "",
          "type": "uint256"
        }
      ],
      "name": "gbTreeCount",
      "outputs": [
        {
          "internalType": "uint256",
          "name": "",
          "type": "uint256"
        }
      ],
      "stateMutability": "view",
      "type": "function",
      "constant": true
    },
    {
      "inputs": [
        {
          "internalType": "uint256",
          "name": "",
          "type": "uint256"
        },
        {
          "internalType": "uint256",
          "name": "",
          "type": "uint256"
        }
      ],
      "name": "gbTrees",
      "outputs": [
        {
          "internalType": "uint256",
          "name": "",
          "type": "uint256"
        }
      ],
      "stateMutability": "view",
      "type": "function",
      "constant": true
    },
    {
      "inputs": [],
      "name": "isTreeFactory",
      "outputs": [
        {
          "internalType": "bool",
          "name": "",
          "type": "bool"
        }
      ],
      "stateMutability": "view",
      "type": "function",
      "constant": true
    },
    {
      "inputs": [],
      "name": "localDevelopmentFund",
      "outputs": [
        {
          "internalType": "uint256",
          "name": "",
          "type": "uint256"
        }
      ],
      "stateMutability": "view",
      "type": "function",
      "constant": true
    },
    {
      "inputs": [],
      "name": "localDevelopmentFundPercentage",
      "outputs": [
        {
          "internalType": "uint16",
          "name": "",
          "type": "uint16"
        }
      ],
      "stateMutability": "view",
      "type": "function",
      "constant": true
    },
    {
      "inputs": [
        {
          "internalType": "uint256",
          "name": "",
          "type": "uint256"
        }
      ],
      "name": "notFundedTrees",
      "outputs": [
        {
          "internalType": "uint256",
          "name": "",
          "type": "uint256"
        }
      ],
      "stateMutability": "view",
      "type": "function",
      "constant": true
    },
    {
      "inputs": [],
      "name": "notFundedTreesLastIndex",
      "outputs": [
        {
          "internalType": "uint256",
          "name": "",
          "type": "uint256"
        }
      ],
      "stateMutability": "view",
      "type": "function",
      "constant": true
    },
    {
      "inputs": [],
      "name": "notFundedTreesUsedIndex",
      "outputs": [
        {
          "internalType": "uint256",
          "name": "",
          "type": "uint256"
        }
      ],
      "stateMutability": "view",
      "type": "function",
      "constant": true
    },
    {
      "inputs": [
        {
          "internalType": "uint256",
          "name": "",
          "type": "uint256"
        }
      ],
      "name": "notPlantedTrees",
      "outputs": [
        {
          "internalType": "uint256",
          "name": "",
          "type": "uint256"
        }
      ],
      "stateMutability": "view",
      "type": "function",
      "constant": true
    },
    {
      "inputs": [],
      "name": "notPlantedTreesLastIndex",
      "outputs": [
        {
          "internalType": "uint256",
          "name": "",
          "type": "uint256"
        }
      ],
      "stateMutability": "view",
      "type": "function",
      "constant": true
    },
    {
      "inputs": [],
      "name": "notPlantedTreesUsedIndex",
      "outputs": [
        {
          "internalType": "uint256",
          "name": "",
          "type": "uint256"
        }
      ],
      "stateMutability": "view",
      "type": "function",
      "constant": true
    },
    {
      "inputs": [
        {
          "internalType": "address",
          "name": "",
          "type": "address"
        }
      ],
      "name": "planterTreeCount",
      "outputs": [
        {
          "internalType": "uint256",
          "name": "",
          "type": "uint256"
        }
      ],
      "stateMutability": "view",
      "type": "function",
      "constant": true
    },
    {
      "inputs": [
        {
          "internalType": "address",
          "name": "",
          "type": "address"
        },
        {
          "internalType": "uint256",
          "name": "",
          "type": "uint256"
        }
      ],
      "name": "planterTrees",
      "outputs": [
        {
          "internalType": "uint256",
          "name": "",
          "type": "uint256"
        }
      ],
      "stateMutability": "view",
      "type": "function",
      "constant": true
    },
    {
      "inputs": [],
      "name": "plantersFund",
      "outputs": [
        {
          "internalType": "uint256",
          "name": "",
          "type": "uint256"
        }
      ],
      "stateMutability": "view",
      "type": "function",
      "constant": true
    },
    {
      "inputs": [],
      "name": "plantersPercentage",
      "outputs": [
        {
          "internalType": "uint16",
          "name": "",
          "type": "uint16"
        }
      ],
      "stateMutability": "view",
      "type": "function",
      "constant": true
    },
    {
      "inputs": [],
      "name": "price",
      "outputs": [
        {
          "internalType": "uint256",
          "name": "",
          "type": "uint256"
        }
      ],
      "stateMutability": "view",
      "type": "function",
      "constant": true
    },
    {
      "inputs": [],
      "name": "rescueFund",
      "outputs": [
        {
          "internalType": "uint256",
          "name": "",
          "type": "uint256"
        }
      ],
      "stateMutability": "view",
      "type": "function",
      "constant": true
    },
    {
      "inputs": [],
      "name": "rescueFundPercentage",
      "outputs": [
        {
          "internalType": "uint16",
          "name": "",
          "type": "uint16"
        }
      ],
      "stateMutability": "view",
      "type": "function",
      "constant": true
    },
    {
      "inputs": [],
      "name": "researchFund",
      "outputs": [
        {
          "internalType": "uint256",
          "name": "",
          "type": "uint256"
        }
      ],
      "stateMutability": "view",
      "type": "function",
      "constant": true
    },
    {
      "inputs": [],
      "name": "researchFundPercentage",
      "outputs": [
        {
          "internalType": "uint16",
          "name": "",
          "type": "uint16"
        }
      ],
      "stateMutability": "view",
      "type": "function",
      "constant": true
    },
    {
      "inputs": [
        {
          "internalType": "uint256",
          "name": "",
          "type": "uint256"
        }
      ],
      "name": "treeToAmbassadorBalancePerSecond",
      "outputs": [
        {
          "internalType": "uint256",
          "name": "",
          "type": "uint256"
        }
      ],
      "stateMutability": "view",
      "type": "function",
      "constant": true
    },
    {
      "inputs": [
        {
          "internalType": "uint256",
          "name": "",
          "type": "uint256"
        }
      ],
      "name": "treeToAmbassadorRemainingBalance",
      "outputs": [
        {
          "internalType": "uint256",
          "name": "",
          "type": "uint256"
        }
      ],
      "stateMutability": "view",
      "type": "function",
      "constant": true
    },
    {
      "inputs": [
        {
          "internalType": "uint256",
          "name": "",
          "type": "uint256"
        }
      ],
      "name": "treeToGB",
      "outputs": [
        {
          "internalType": "uint256",
          "name": "",
          "type": "uint256"
        }
      ],
      "stateMutability": "view",
      "type": "function",
      "constant": true
    },
    {
      "inputs": [
        {
          "internalType": "uint256",
          "name": "",
          "type": "uint256"
        }
      ],
      "name": "treeToPlanter",
      "outputs": [
        {
          "internalType": "address",
          "name": "",
          "type": "address"
        }
      ],
      "stateMutability": "view",
      "type": "function",
      "constant": true
    },
    {
      "inputs": [
        {
          "internalType": "uint256",
          "name": "",
          "type": "uint256"
        }
      ],
      "name": "treeToPlanterBalancePerSecond",
      "outputs": [
        {
          "internalType": "uint256",
          "name": "",
          "type": "uint256"
        }
      ],
      "stateMutability": "view",
      "type": "function",
      "constant": true
    },
    {
      "inputs": [
        {
          "internalType": "uint256",
          "name": "",
          "type": "uint256"
        }
      ],
      "name": "treeToPlanterRemainingBalance",
      "outputs": [
        {
          "internalType": "uint256",
          "name": "",
          "type": "uint256"
        }
      ],
      "stateMutability": "view",
      "type": "function",
      "constant": true
    },
    {
      "inputs": [
        {
          "internalType": "uint256",
          "name": "",
          "type": "uint256"
        }
      ],
      "name": "treeToType",
      "outputs": [
        {
          "internalType": "uint8",
          "name": "",
          "type": "uint8"
        }
      ],
      "stateMutability": "view",
      "type": "function",
      "constant": true
    },
    {
      "inputs": [],
      "name": "treeToken",
      "outputs": [
        {
          "internalType": "contract ITree",
          "name": "",
          "type": "address"
        }
      ],
      "stateMutability": "view",
      "type": "function",
      "constant": true
    },
    {
      "inputs": [],
      "name": "treejerFund",
      "outputs": [
        {
          "internalType": "uint256",
          "name": "",
          "type": "uint256"
        }
      ],
      "stateMutability": "view",
      "type": "function",
      "constant": true
    },
    {
      "inputs": [],
      "name": "treejerPercentage",
      "outputs": [
        {
          "internalType": "uint16",
          "name": "",
          "type": "uint16"
        }
      ],
      "stateMutability": "view",
      "type": "function",
      "constant": true
    },
    {
      "inputs": [
        {
          "internalType": "uint256",
          "name": "",
          "type": "uint256"
        }
      ],
      "name": "trees",
      "outputs": [
        {
          "internalType": "string",
          "name": "latitude",
          "type": "string"
        },
        {
          "internalType": "string",
          "name": "longitude",
          "type": "string"
        },
        {
          "internalType": "uint256",
          "name": "plantedDate",
          "type": "uint256"
        },
        {
          "internalType": "uint256",
          "name": "birthDate",
          "type": "uint256"
        },
        {
          "internalType": "uint256",
          "name": "fundedDate",
          "type": "uint256"
        },
        {
          "internalType": "uint8",
          "name": "height",
          "type": "uint8"
        },
        {
          "internalType": "uint8",
          "name": "diameter",
          "type": "uint8"
        }
      ],
      "stateMutability": "view",
      "type": "function",
      "constant": true
    },
    {
      "inputs": [
        {
          "internalType": "uint256",
          "name": "",
          "type": "uint256"
        }
      ],
      "name": "typeTreeCount",
      "outputs": [
        {
          "internalType": "uint256",
          "name": "",
          "type": "uint256"
        }
      ],
      "stateMutability": "view",
      "type": "function",
      "constant": true
    },
    {
      "inputs": [
        {
          "internalType": "uint256",
          "name": "",
          "type": "uint256"
        },
        {
          "internalType": "uint256",
          "name": "",
          "type": "uint256"
        }
      ],
      "name": "typeTrees",
      "outputs": [
        {
          "internalType": "uint256",
          "name": "",
          "type": "uint256"
        }
      ],
      "stateMutability": "view",
      "type": "function",
      "constant": true
    },
    {
      "inputs": [],
      "name": "updateFactory",
      "outputs": [
        {
          "internalType": "contract IUpdateFactory",
          "name": "",
          "type": "address"
        }
      ],
      "stateMutability": "view",
      "type": "function",
      "constant": true
    },
    {
      "inputs": [
        {
          "internalType": "uint256",
          "name": "",
          "type": "uint256"
        }
      ],
      "name": "updateToAmbassadorBalanceWithdrawn",
      "outputs": [
        {
          "internalType": "bool",
          "name": "",
          "type": "bool"
        }
      ],
      "stateMutability": "view",
      "type": "function",
      "constant": true
    },
    {
      "inputs": [
        {
          "internalType": "uint256",
          "name": "",
          "type": "uint256"
        }
      ],
      "name": "updateToPlanterBalanceWithdrawn",
      "outputs": [
        {
          "internalType": "bool",
          "name": "",
          "type": "bool"
        }
      ],
      "stateMutability": "view",
      "type": "function",
      "constant": true
    },
    {
      "inputs": [
        {
          "internalType": "address",
          "name": "_accessRestrictionAddress",
          "type": "address"
        }
      ],
      "name": "initialize",
      "outputs": [],
      "stateMutability": "nonpayable",
      "type": "function"
    },
    {
      "inputs": [
        {
          "internalType": "address",
          "name": "_address",
          "type": "address"
        }
      ],
      "name": "setGBFactoryAddress",
      "outputs": [],
      "stateMutability": "nonpayable",
      "type": "function"
    },
    {
      "inputs": [
        {
          "internalType": "address",
          "name": "_address",
          "type": "address"
        }
      ],
      "name": "setUpdateFactoryAddress",
      "outputs": [],
      "stateMutability": "nonpayable",
      "type": "function"
    },
    {
      "inputs": [
        {
          "internalType": "address",
          "name": "_address",
          "type": "address"
        }
      ],
      "name": "setTreeTokenAddress",
      "outputs": [],
      "stateMutability": "nonpayable",
      "type": "function"
    },
    {
      "inputs": [
        {
          "internalType": "uint8",
          "name": "_typeId",
          "type": "uint8"
        },
        {
          "internalType": "string[]",
          "name": "_stringParams",
          "type": "string[]"
        },
        {
          "internalType": "uint8[]",
          "name": "_uintParams",
          "type": "uint8[]"
        }
      ],
      "name": "plant",
      "outputs": [],
      "stateMutability": "nonpayable",
      "type": "function"
    },
    {
      "inputs": [
        {
          "internalType": "uint256",
          "name": "_price",
          "type": "uint256"
        }
      ],
      "name": "setPrice",
      "outputs": [],
      "stateMutability": "nonpayable",
      "type": "function"
    },
    {
      "inputs": [
        {
          "internalType": "uint256",
          "name": "_count",
          "type": "uint256"
        }
      ],
      "name": "fund",
      "outputs": [],
      "stateMutability": "payable",
      "type": "function",
      "payable": true
    },
    {
      "inputs": [
        {
          "internalType": "address payable",
          "name": "_to",
          "type": "address"
        },
        {
          "internalType": "uint256",
          "name": "_amount",
          "type": "uint256"
        }
      ],
      "name": "withdrawTreejerFund",
      "outputs": [],
      "stateMutability": "nonpayable",
      "type": "function"
    },
    {
      "inputs": [
        {
          "internalType": "address payable",
          "name": "_to",
          "type": "address"
        },
        {
          "internalType": "uint256",
          "name": "_amount",
          "type": "uint256"
        }
      ],
      "name": "withdrawLocalDevelopmentFund",
      "outputs": [],
      "stateMutability": "nonpayable",
      "type": "function"
    },
    {
      "inputs": [
        {
          "internalType": "address payable",
          "name": "_to",
          "type": "address"
        },
        {
          "internalType": "uint256",
          "name": "_amount",
          "type": "uint256"
        }
      ],
      "name": "withdrawRescueFund",
      "outputs": [],
      "stateMutability": "nonpayable",
      "type": "function"
    },
    {
      "inputs": [
        {
          "internalType": "address payable",
          "name": "_to",
          "type": "address"
        },
        {
          "internalType": "uint256",
          "name": "_amount",
          "type": "uint256"
        }
      ],
      "name": "withdrawResearchFund",
      "outputs": [],
      "stateMutability": "nonpayable",
      "type": "function"
    },
    {
      "inputs": [],
      "name": "withdrawPlanterBalance",
      "outputs": [],
      "stateMutability": "nonpayable",
      "type": "function"
    },
    {
      "inputs": [],
      "name": "withdrawAmbassadorBalance",
      "outputs": [],
      "stateMutability": "nonpayable",
      "type": "function"
    },
    {
      "inputs": [
        {
          "internalType": "uint16",
          "name": "_treejerPercentage",
          "type": "uint16"
        },
        {
          "internalType": "uint16",
          "name": "_plantersPercentage",
          "type": "uint16"
        },
        {
          "internalType": "uint16",
          "name": "_ambassadorsPercentage",
          "type": "uint16"
        },
        {
          "internalType": "uint16",
          "name": "_localDevelopmentFundPercentage",
          "type": "uint16"
        },
        {
          "internalType": "uint16",
          "name": "_rescueFundPercentage",
          "type": "uint16"
        },
        {
          "internalType": "uint16",
          "name": "_researchFundPercentage",
          "type": "uint16"
        }
      ],
      "name": "setAllPercentages",
      "outputs": [],
      "stateMutability": "nonpayable",
      "type": "function"
    },
    {
      "inputs": [
        {
          "internalType": "address",
          "name": "_account",
          "type": "address"
        }
      ],
      "name": "getPlanterWithdrawableBalance",
      "outputs": [
        {
          "internalType": "uint256",
          "name": "",
          "type": "uint256"
        }
      ],
      "stateMutability": "view",
      "type": "function",
      "constant": true
    },
    {
      "inputs": [
        {
          "internalType": "address",
          "name": "_account",
          "type": "address"
        }
      ],
      "name": "getAmbassadorWithdrawableBalance",
      "outputs": [
        {
          "internalType": "uint256",
          "name": "",
          "type": "uint256"
        }
      ],
      "stateMutability": "view",
      "type": "function",
      "constant": true
    }
  ],
  "bytecode": "0x608060405234801561001057600080fd5b50614cc6806100206000396000f3fe60806040526004361061036b5760003560e01c8063854d0cb1116101c6578063bef47445116100f7578063d6762c4a11610095578063e2eefc791161006f578063e2eefc7914610950578063ea9fd4d514610970578063ec48a46714610990578063f4d7935b146109a55761036b565b8063d6762c4a14610906578063de33d9e31461091b578063e0eb4eb91461093b5761036b565b8063c8fe4bec116100d1578063c8fe4bec14610891578063ca07ca14146108b1578063ca1d209d146108c6578063cfb2b3fe146108d95761036b565b8063bef474451461083c578063c11496c71461085c578063c4d66de8146108715761036b565b8063a035b1fe11610164578063add2ff271161013e578063add2ff27146107ba578063ae2e8830146107e7578063b52a61be146107fc578063b53b30be1461081c5761036b565b8063a035b1fe14610770578063a2c54d8a14610785578063a8bd11661461079a5761036b565b806395dc2a3c116101a057806395dc2a3c1461070657806398f5fa3b1461071b578063997c2537146107305780639fe02795146107505761036b565b8063854d0cb1146106b15780638e5e698a146106c657806391b7f5ed146106e65761036b565b80634bad6b37116102a057806360cd03031161023e57806376cdc2671161021857806376cdc267146106295780637a50802214610649578063839484061461067c5780638493b350146106915761036b565b806360cd0303146105df5780636265e0d8146105ff5780636f82c7fa146106145761036b565b8063508f657d1161027a578063508f657d1461057557806354a2d6e01461058a5780635857b1581461059f5780635e827122146105bf5761036b565b80634bad6b371461052b5780634ce958bb146105405780634d29546d146105605761036b565b80632b79e7321161030d578063415d13aa116102e7578063415d13aa146104c1578063417eb539146104e1578063469bcafa146104f65780634875f9d71461050b5761036b565b80632b79e7321461046c578063368e3daf1461048c57806338f1f40f146104a15761036b565b806318dfed711161034957806318dfed71146103e857806319de4acd146104085780632602142a1461042a5780632af438e61461044c5761036b565b806307ff37231461037057806311e668f4146103a657806312cc3ab0146103d3575b600080fd5b34801561037c57600080fd5b5061039061038b366004614397565b6109ba565b60405161039d919061458b565b60405180910390f35b3480156103b257600080fd5b506103c66103c13660046141e9565b6109d5565b60405161039d9190614b03565b3480156103df57600080fd5b50610390611015565b3480156103f457600080fd5b506103c6610403366004614397565b611024565b34801561041457600080fd5b50610428610423366004614221565b611036565b005b34801561043657600080fd5b5061043f611142565b60405161039d9190614af4565b34801561045857600080fd5b50610428610467366004614221565b611154565b34801561047857600080fd5b506103c6610487366004614397565b61124b565b34801561049857600080fd5b506103c661125d565b3480156104ad57600080fd5b506104286104bc3660046141e9565b611263565b3480156104cd57600080fd5b506104286104dc3660046141e9565b611365565b3480156104ed57600080fd5b506103c6611467565b34801561050257600080fd5b5061043f61146d565b34801561051757600080fd5b506103c6610526366004614397565b61147e565b34801561053757600080fd5b506103c6611490565b34801561054c57600080fd5b506103c661055b36600461424c565b611496565b34801561056c57600080fd5b5061043f6114c4565b34801561058157600080fd5b506103c66114d5565b34801561059657600080fd5b506103c66114db565b3480156105ab57600080fd5b506103c66105ba3660046141e9565b6114e1565b3480156105cb57600080fd5b506103c66105da366004614397565b6119a0565b3480156105eb57600080fd5b506103c66105fa366004614397565b6119b2565b34801561060b57600080fd5b506103906119c4565b34801561062057600080fd5b506103c66119d3565b34801561063557600080fd5b506103c661064436600461447a565b6119d9565b34801561065557600080fd5b50610669610664366004614397565b6119f2565b60405161039d979695949392919061461d565b34801561068857600080fd5b506103c6611b65565b34801561069d57600080fd5b506103c66106ac3660046141e9565b611b6b565b3480156106bd57600080fd5b5061043f611b7d565b3480156106d257600080fd5b506104286106e1366004614221565b611b8d565b3480156106f257600080fd5b50610428610701366004614397565b611c84565b34801561071257600080fd5b506103c6611d24565b34801561072757600080fd5b50610390611d2a565b34801561073c57600080fd5b5061042861074b3660046144b6565b611d39565b34801561075c57600080fd5b506103c661076b366004614397565b6124ee565b34801561077c57600080fd5b506103c6612500565b34801561079157600080fd5b5061043f612506565b3480156107a657600080fd5b506103c66107b5366004614397565b612510565b3480156107c657600080fd5b506107da6107d5366004614397565b612522565b60405161039d91906145ff565b3480156107f357600080fd5b506103c6612537565b34801561080857600080fd5b506103c6610817366004614397565b61253d565b34801561082857600080fd5b506107da610837366004614397565b61254f565b34801561084857600080fd5b506104286108573660046141e9565b612564565b34801561086857600080fd5b50610428612666565b34801561087d57600080fd5b5061042861088c3660046141e9565b612bef565b34801561089d57600080fd5b506104286108ac366004614221565b612d8a565b3480156108bd57600080fd5b5061043f612e81565b6104286108d4366004614397565b612e92565b3480156108e557600080fd5b506108f96108f4366004614397565b613079565b60405161039d9190614b9c565b34801561091257600080fd5b5061039061308e565b34801561092757600080fd5b50610428610936366004614316565b61309d565b34801561094757600080fd5b506107da6131ee565b34801561095c57600080fd5b506103c661096b36600461447a565b6131f7565b34801561097c57600080fd5b506103c661098b366004614397565b613210565b34801561099c57600080fd5b506103c6613222565b3480156109b157600080fd5b50610428613228565b603e602052600090815260409020546001600160a01b031681565b60525460405163dac4d45360e01b81526000916001600160a01b03169063dac4d45390610a0690859060040161458b565b60006040518083038186803b158015610a1e57600080fd5b505afa158015610a32573d6000803e3d6000fd5b505060535460405163211d238360e01b8152600093506001600160a01b03909116915063211d238390610a6990869060040161458b565b60206040518083038186803b158015610a8157600080fd5b505afa158015610a95573d6000803e3d6000fd5b505050506040513d601f19601f82011682018060405250810190610ab991906143af565b905080610aca576000915050611010565b6053546040516322d8a98960e11b81526060916001600160a01b0316906345b1531290610afb90879060040161458b565b60006040518083038186803b158015610b1357600080fd5b505afa158015610b27573d6000803e3d6000fd5b505050506040513d6000823e601f3d908101601f19168201604052610b4f919081019061425e565b90506000805b8381101561100a576000838281518110610b6b57fe5b602002602001015190506000604260008381526020019081526020016000205490508060001415610b9d575050611002565b600082815260436020908152604091829020805483518184028101840190945280845260609392830182828015610bf357602002820191906000526020600020905b815481526020019060010190808311610bdf575b50939450600093505050505b82811015610ffd576000828281518110610c1557fe5b60209081029190910101516054546040516313e7cb0960e31b81529192506060916001600160a01b0390911690639f3e584890610c56908590600401614b03565b60006040518083038186803b158015610c6e57600080fd5b505afa158015610c82573d6000803e3d6000fd5b505050506040513d6000823e601f3d908101601f19168201604052610caa919081019061425e565b60008381526047602052604081205491925090610cc957505050610ff5565b8151610cd757505050610ff5565b605454604051632cb1c8cb60e21b81526051916000916001600160a01b039091169063b2c7232c90610d0d908890600401614b03565b60206040518083038186803b158015610d2557600080fd5b505afa158015610d39573d6000803e3d6000fd5b505050506040513d601f19601f82011682018060405250810190610d5d91906143af565b815260208101919091526040016000205460ff16151560011415610d8357505050610ff5565b81515b8015610fb7576000836001830381518110610d9d57fe5b602090810291909101015160545460405163b4c2f72760e01b815291925060009182916001600160a01b03169063b4c2f72790610dde908690600401614b03565b60006040518083038186803b158015610df657600080fd5b505afa158015610e0a573d6000803e3d6000fd5b505050506040513d6000823e601f3d908101601f19168201604052610e3291908101906143c7565b9350935050508015156001151514610e4c57505050610fae565b60008381526051602052604090205460ff16151560011415610e7057505050610fae565b6001841115610f66576000866002860381518110610e8a57fe5b602090810291909101015160545460405163b4c2f72760e01b815291925060009182916001600160a01b03169063b4c2f72790610ecb908690600401614b03565b60006040518083038186803b158015610ee357600080fd5b505afa158015610ef7573d6000803e3d6000fd5b505050506040513d6000823e601f3d908101601f19168201604052610f1f91908101906143c7565b9350935050508015156001151514610f3c57505050505050610fae565b610f5c610f4f868463ffffffff6138fd16565b899063ffffffff61394816565b9750505050610faa565b610fa7610f9a60348981548110610f7957fe5b906000526020600020906006020160020154846138fd90919063ffffffff16565b869063ffffffff61394816565b94505b5050505b60001901610d86565b508015610ff157600083815260486020526040902054610fee90610fe1908363ffffffff61396d16565b8a9063ffffffff61394816565b98505b5050505b600101610bff565b505050505b600101610b55565b50925050505b919050565b6055546001600160a01b031681565b60366020526000908152604090205481565b605254604051632104fb0560e21b81526001600160a01b0390911690638413ec149061106690339060040161458b565b60006040518083038186803b15801561107e57600080fd5b505afa158015611092573d6000803e3d6000fd5b505050506000604e54116110c15760405162461bcd60e51b81526004016110b890614abd565b60405180910390fd5b604e548111156110e35760405162461bcd60e51b81526004016110b8906146b8565b604e546110f6908263ffffffff6138fd16565b604e5561110382826139a7565b7f62d04bd016f8ff3d3bc5ddf54b8d0b5467875aa297e4fe86497eaf5a19c93191828233604051611136939291906145b8565b60405180910390a15050565b604954640100000000900461ffff1681565b605254604051632104fb0560e21b81526001600160a01b0390911690638413ec149061118490339060040161458b565b60006040518083038186803b15801561119c57600080fd5b505afa1580156111b0573d6000803e3d6000fd5b505050506000604f54116111d65760405162461bcd60e51b81526004016110b890614923565b604f548111156111f85760405162461bcd60e51b81526004016110b8906148f3565b604f5461120b908263ffffffff6138fd16565b604f5561121882826139a7565b7f6187d97d4269f9fbc5bbf5236356e532fd1663f4b499ddde1fb1f363dd1b3552828233604051611136939291906145b8565b60426020526000908152604090205481565b604f5481565b605254604051632104fb0560e21b81526001600160a01b0390911690638413ec149061129390339060040161458b565b60006040518083038186803b1580156112ab57600080fd5b505afa1580156112bf573d6000803e3d6000fd5b505050506000819050806001600160a01b03166337b9fd776040518163ffffffff1660e01b815260040160206040518083038186803b15801561130157600080fd5b505afa158015611315573d6000803e3d6000fd5b505050506040513d601f19601f8201168201806040525081019061133991906142f6565b61134257600080fd5b605580546001600160a01b0319166001600160a01b039290921691909117905550565b605254604051632104fb0560e21b81526001600160a01b0390911690638413ec149061139590339060040161458b565b60006040518083038186803b1580156113ad57600080fd5b505afa1580156113c1573d6000803e3d6000fd5b505050506000819050806001600160a01b0316634cff2b0f6040518163ffffffff1660e01b815260040160206040518083038186803b15801561140357600080fd5b505afa158015611417573d6000803e3d6000fd5b505050506040513d601f19601f8201168201806040525081019061143b91906142f6565b61144457600080fd5b605380546001600160a01b0319166001600160a01b039290921691909117905550565b60375481565b604954600160301b900461ffff1681565b60476020526000908152604090205481565b60385481565b604060205281600052604060002081815481106114af57fe5b90600052602060002001600091509150505481565b604954600160401b900461ffff1681565b604e5481565b604b5481565b605254604051636dc1ccab60e01b81526000916001600160a01b031690636dc1ccab9061151290859060040161458b565b60006040518083038186803b15801561152a57600080fd5b505afa15801561153e573d6000803e3d6000fd5b505050506001600160a01b0382166000908152603f60205260409020548061156a576000915050611010565b6001600160a01b0383166000908152604060208181528183208054835181840281018401909452808452606093928301828280156115c757602002820191906000526020600020905b8154815260200190600101908083116115b3575b50939450600093505050505b838110156119965760008282815181106115e957fe5b60209081029190910101516054546040516313e7cb0960e31b81529192506060916001600160a01b0390911690639f3e58489061162a908590600401614b03565b60006040518083038186803b15801561164257600080fd5b505afa158015611656573d6000803e3d6000fd5b505050506040513d6000823e601f3d908101601f1916820160405261167e919081019061425e565b6000838152604560205260408120549192509061169d5750505061198e565b81516116ab5750505061198e565b605454604051632cb1c8cb60e21b81526050916000916001600160a01b039091169063b2c7232c906116e1908890600401614b03565b60206040518083038186803b1580156116f957600080fd5b505afa15801561170d573d6000803e3d6000fd5b505050506040513d601f19601f8201168201806040525081019061173191906143af565b815260208101919091526040016000205460ff161515600114156117575750505061198e565b81515b801561195057600083600183038151811061177157fe5b602090810291909101015160545460405163b4c2f72760e01b815291925060009182916001600160a01b03169063b4c2f727906117b2908690600401614b03565b60006040518083038186803b1580156117ca57600080fd5b505afa1580156117de573d6000803e3d6000fd5b505050506040513d6000823e601f3d908101601f1916820160405261180691908101906143c7565b935093505050801515600115151461182057505050611947565b60008381526050602052604090205460ff1615156001141561184457505050611947565b600184111561192d57600086600286038151811061185e57fe5b602090810291909101015160545460405163b4c2f72760e01b815291925060009182916001600160a01b03169063b4c2f7279061189f908690600401614b03565b60006040518083038186803b1580156118b757600080fd5b505afa1580156118cb573d6000803e3d6000fd5b505050506040513d6000823e601f3d908101601f191682016040526118f391908101906143c7565b935093505050801515600115151461191057505050505050611947565b611923610f4f868463ffffffff6138fd16565b9750505050611943565b611940610f9a60348981548110610f7957fe5b94505b5050505b6000190161175a565b50801561198a576000838152604660205260409020546119879061197a908363ffffffff61396d16565b879063ffffffff61394816565b95505b5050505b6001016115d3565b5090949350505050565b603d6020526000908152604090205481565b60416020526000908152604090205481565b6053546001600160a01b031681565b603b5481565b604460205281600052604060002081815481106114af57fe5b603481815481106119ff57fe5b60009182526020918290206006919091020180546040805160026001841615610100026000190190931692909204601f810185900485028301850190915280825291935091839190830182828015611a985780601f10611a6d57610100808354040283529160200191611a98565b820191906000526020600020905b815481529060010190602001808311611a7b57829003601f168201915b505050505090806001018054600181600116156101000203166002900480601f016020809104026020016040519081016040528092919081815260200182805460018160011615610100020316600290048015611b365780601f10611b0b57610100808354040283529160200191611b36565b820191906000526020600020905b815481529060010190602001808311611b1957829003601f168201915b505050506002830154600384015460048501546005909501549394919390925060ff8082169161010090041687565b604d5481565b603f6020526000908152604090205481565b60495462010000900461ffff1681565b605254604051632104fb0560e21b81526001600160a01b0390911690638413ec1490611bbd90339060040161458b565b60006040518083038186803b158015611bd557600080fd5b505afa158015611be9573d6000803e3d6000fd5b505050506000604d5411611c0f5760405162461bcd60e51b81526004016110b890614673565b604d54811115611c315760405162461bcd60e51b81526004016110b8906146e6565b604d54611c44908263ffffffff6138fd16565b604d55611c5182826139a7565b7f12098abea4f2c45e0b3b235c35a41641fdb1070185464e9698d4482f0d805a80828233604051611136939291906145b8565b605254604051632104fb0560e21b81526001600160a01b0390911690638413ec1490611cb490339060040161458b565b60006040518083038186803b158015611ccc57600080fd5b505afa158015611ce0573d6000803e3d6000fd5b5050506035829055506040517fa6dc15bdb68da224c66db4b3838d9a2b205138e8cff6774e57d0af91e196d62290611d19908390614b03565b60405180910390a150565b603a5481565b6054546001600160a01b031681565b605260009054906101000a90046001600160a01b03166001600160a01b0316634d868f986040518163ffffffff1660e01b815260040160006040518083038186803b158015611d8757600080fd5b505afa158015611d9b573d6000803e3d6000fd5b5050605254604051636dc1ccab60e01b81526001600160a01b039091169250636dc1ccab9150611dcf90339060040161458b565b60006040518083038186803b158015611de757600080fd5b505afa158015611dfb573d6000803e3d6000fd5b50506053546040516358cfbd7b60e11b8152600093506001600160a01b03909116915063b19f7af690611e3290339060040161458b565b60206040518083038186803b158015611e4a57600080fd5b505afa158015611e5e573d6000803e3d6000fd5b505050506040513d601f19601f82011682018060405250810190611e8291906143af565b603b54603a5491925060009111156120695750603b8054600081815260396020526040902054600191820190925586908690818110611ebd57fe5b9050602002810190611ecf9190614baa565b60348381548110611edc57fe5b60009182526020909120611ef69360069092020191614079565b5085856002818110611f0457fe5b9050602002810190611f169190614baa565b60348381548110611f2357fe5b90600052602060002090600602016001019190611f41929190614079565b504260348281548110611f5057fe5b9060005260206000209060060201600201819055504260348281548110611f7357fe5b90600052602060002090600602016003018190555083836000818110611f9557fe5b9050602002016020810190611faa919061449b565b60348281548110611fb757fe5b906000526020600020906006020160050160006101000a81548160ff021916908360ff16021790555083836001818110611fed57fe5b9050602002016020810190612002919061449b565b6034828154811061200f57fe5b906000526020600020906006020160050160016101000a81548160ff021916908360ff160217905550603960006120526001603b546138fd90919063ffffffff16565b8152602001908152602001600020600090556122c0565b60346040518060e001604052808888600181811061208357fe5b90506020028101906120959190614baa565b8080601f016020809104026020016040519081016040528093929190818152602001838380828437600092019190915250505090825250602001888860028181106120dc57fe5b90506020028101906120ee9190614baa565b8080601f01602080910402602001604051908101604052809392919081815260200183838082843760009201829052509385525050426020840181905260408401525060608201819052608090910190879087908161214957fe5b905060200201602081019061215e919061449b565b60ff1681526020018686600181811061217357fe5b9050602002016020810190612188919061449b565b60ff169052815460018101835560009283526020928390208251805193946006909302909101926121bc92849201906140f7565b5060208281015180516121d592600185019201906140f7565b5060408201516002820155606082015160038201556080820151600482015560a08201516005909101805460c09093015160ff9081166101000261ff00199190931660ff19909416939093179290921617905560345461223c90600163ffffffff6138fd16565b603780546000908152603660205260409081902083905581546001019091556055549051632851206560e21b81529192506001600160a01b03169063a14481949061228d903390859060040161459f565b600060405180830381600087803b1580156122a757600080fd5b505af11580156122bb573d6000803e3d6000fd5b505050505b6060868660008181106122cf57fe5b90506020028101906122e19190614baa565b8080601f01602080910402602001604051908101604052809392919081815260200183838082843760009201919091525050825192935050901590506123a1576055546001600160a01b031663162094c483898960008161233e57fe5b90506020028101906123509190614baa565b6040518463ffffffff1660e01b815260040161236e93929190614b0c565b600060405180830381600087803b15801561238857600080fd5b505af115801561239c573d6000803e3d6000fd5b505050505b6000828152603d602090815260408083208690558583526042825280832080546001908101909155604383528184208054808301825590855283852001869055858452603c8352818420805460ff8e1660ff199091168117909155845260418352818420805482019055604483528184208054808301825590855283852001869055858452603e835281842080546001600160a01b031916339081179091558452603f83528184208054820190558183529083208054808301825590845291909220018390557f8f459fdbb8df0d89bfc15695769fb148c5e437248bcefd41ce8319980363ac739083908990899081811061249857fe5b90506020028101906124aa9190614baa565b8a8a60028181106124b757fe5b90506020028101906124c99190614baa565b426040516124dc96959493929190614b2f565b60405180910390a15050505050505050565b60456020526000908152604090205481565b60355481565b60495461ffff1681565b60466020526000908152604090205481565b60506020526000908152604090205460ff1681565b604c5481565b60396020526000908152604090205481565b60516020526000908152604090205460ff1681565b605254604051632104fb0560e21b81526001600160a01b0390911690638413ec149061259490339060040161458b565b60006040518083038186803b1580156125ac57600080fd5b505afa1580156125c0573d6000803e3d6000fd5b505050506000819050806001600160a01b031663edbe8d4e6040518163ffffffff1660e01b815260040160206040518083038186803b15801561260257600080fd5b505afa158015612616573d6000803e3d6000fd5b505050506040513d601f19601f8201168201806040525081019061263a91906142f6565b61264357600080fd5b605480546001600160a01b0319166001600160a01b039290921691909117905550565b605254604051636dc1ccab60e01b81526001600160a01b0390911690636dc1ccab9061269690339060040161458b565b60006040518083038186803b1580156126ae57600080fd5b505afa1580156126c2573d6000803e3d6000fd5b5050336000908152603f6020526040902054915050806126f45760405162461bcd60e51b81526004016110b890614989565b3360009081526040602081815281832080548351818402810184019094528084526060939283018282801561274857602002820191906000526020600020905b815481526020019060010190808311612734575b50939450600093505050505b83811015612b7057600082828151811061276a57fe5b60209081029190910101516054546040516313e7cb0960e31b81529192506060916001600160a01b0390911690639f3e5848906127ab908590600401614b03565b60006040518083038186803b1580156127c357600080fd5b505afa1580156127d7573d6000803e3d6000fd5b505050506040513d6000823e601f3d908101601f191682016040526127ff919081019061425e565b6000838152604560205260408120549192509061281e57505050612b68565b815161282c57505050612b68565b605454604051632cb1c8cb60e21b81526050916000916001600160a01b039091169063b2c7232c90612862908890600401614b03565b60206040518083038186803b15801561287a57600080fd5b505afa15801561288e573d6000803e3d6000fd5b505050506040513d601f19601f820116820180604052508101906128b291906143af565b815260208101919091526040016000205460ff161515600114156128d857505050612b68565b81515b8015612ae95760008360018303815181106128f257fe5b602090810291909101015160545460405163b4c2f72760e01b815291925060009182916001600160a01b03169063b4c2f72790612933908690600401614b03565b60006040518083038186803b15801561294b57600080fd5b505afa15801561295f573d6000803e3d6000fd5b505050506040513d6000823e601f3d908101601f1916820160405261298791908101906143c7565b93509350505080151560011515146129a157505050612ae0565b60008381526050602052604090205460ff161515600114156129c557505050612ae0565b6001841115612aae5760008660028603815181106129df57fe5b602090810291909101015160545460405163b4c2f72760e01b815291925060009182916001600160a01b03169063b4c2f72790612a20908690600401614b03565b60006040518083038186803b158015612a3857600080fd5b505afa158015612a4c573d6000803e3d6000fd5b505050506040513d6000823e601f3d908101601f19168201604052612a7491908101906143c7565b9350935050508015156001151514612a9157505050505050612ae0565b612aa4610f4f868463ffffffff6138fd16565b9750505050612ac4565b612ac1610f9a60348981548110610f7957fe5b94505b50506000908152605060205260409020805460ff191660011790555b600019016128db565b508015612b6457600083815260466020526040902054612b139061197a908363ffffffff61396d16565b600084815260466020526040902054909650612b5490612b39908363ffffffff61396d16565b6000858152604560205260409020549063ffffffff6138fd16565b6000848152604560205260409020555b5050505b600101612754565b5060008211612b915760405162461bcd60e51b81526004016110b890614a86565b604b54612ba4908363ffffffff6138fd16565b604b55612bb133836139a7565b7f904f6efa098ad71916df8db0841744bccf6de28374ac90cef4b36b9d8a35e4453383604051612be292919061459f565b60405180910390a1505050565b600054610100900460ff1680612c085750612c08613a43565b80612c16575060005460ff16155b612c325760405162461bcd60e51b81526004016110b890614a38565b600054610100900460ff16158015612c5d576000805460ff1961ff0019909116610100171660011790555b6033805460ff191660011790556040805163ba84fd6960e01b8152905183916001600160a01b0383169163ba84fd6991600480820192602092909190829003018186803b158015612cad57600080fd5b505afa158015612cc1573d6000803e3d6000fd5b505050506040513d601f19601f82011682018060405250810190612ce591906142f6565b612cee57600080fd5b605280546001600160a01b0319166001600160a01b0392909216919091179055604980546109c461ffff199091161763ffff00001916630fa000001765ffff0000000019166501f4000000001767ffff00000000000019166705dc0000000000001761ffff60401b19166903e800000000000000001761ffff60501b1916607d60521b1790558015612d86576000805461ff00191690555b5050565b605254604051632104fb0560e21b81526001600160a01b0390911690638413ec1490612dba90339060040161458b565b60006040518083038186803b158015612dd257600080fd5b505afa158015612de6573d6000803e3d6000fd5b505050506000604a5411612e0c5760405162461bcd60e51b81526004016110b890614828565b604a54811115612e2e5760405162461bcd60e51b81526004016110b89061495a565b604a54612e41908263ffffffff6138fd16565b604a55612e4e82826139a7565b7f83d711958340e227f2f6a07692120dac5303cd6c43aefe818dccd5a741fe756a828233604051611136939291906145b8565b604954600160501b900461ffff1681565b6000612ea4348363ffffffff613a4a16565b9050603554811015612ec85760405162461bcd60e51b81526004016110b89061471d565b60005b828160ff161015613074576049546000908190612ef29062010000900461ffff1685613a8c565b6038546037549192506000918291101561300257603854600090815260366020908152604080832054808452603d909252808320546053549151636b78fcb560e11b815292975092916001600160a01b039091169063d6f1f96a90612f5b908590600401614b03565b60206040518083038186803b158015612f7357600080fd5b505afa158015612f87573d6000803e3d6000fd5b505050506040513d601f19601f82011682018060405250810190612fab9190614205565b90506001600160a01b03811615612fdc5760495460019350612fd990640100000000900461ffff1689613a8c565b93505b612ff93386612fea88613b08565b87612ff489613b08565b613b2b565b9550505061301b565b613018338461301086613b08565b600080613ceb565b93505b6130258682613ed7565b7f9681ab8e09ad40146a520b55501382d4b0ab62944580202d102da0fcf5053555848484893360405161305c959493929190614b70565b60405180910390a1505060019092019150612ecb9050565b505050565b603c6020526000908152604090205460ff1681565b6052546001600160a01b031681565b605254604051632104fb0560e21b81526001600160a01b0390911690638413ec14906130cd90339060040161458b565b60006040518083038186803b1580156130e557600080fd5b505afa1580156130f9573d6000803e3d6000fd5b505050506131448161ffff166131388461ffff166131388761ffff166131388a61ffff166131388d61ffff168f61ffff1661394890919063ffffffff16565b9063ffffffff61394816565b612710146131645760405162461bcd60e51b81526004016110b890614754565b6049805461ffff191661ffff9788161763ffff0000191662010000968816969096029590951765ffff000000001916640100000000948716949094029390931767ffff0000000000001916600160301b928616929092029190911761ffff60401b1916600160401b918516919091021761ffff60501b1916600160501b9190931602919091179055565b60335460ff1681565b604360205281600052604060002081815481106114af57fe5b60486020526000908152604090205481565b604a5481565b60525460405163dac4d45360e01b81526001600160a01b039091169063dac4d4539061325890339060040161458b565b60006040518083038186803b15801561327057600080fd5b505afa158015613284573d6000803e3d6000fd5b505060535460405163211d238360e01b8152600093506001600160a01b03909116915063211d2383906132bb90339060040161458b565b60206040518083038186803b1580156132d357600080fd5b505afa1580156132e7573d6000803e3d6000fd5b505050506040513d601f19601f8201168201806040525081019061330b91906143af565b90506000811161332d5760405162461bcd60e51b81526004016110b8906147f1565b6053546040516322d8a98960e11b81526060916001600160a01b0316906345b153129061335e90339060040161458b565b60006040518083038186803b15801561337657600080fd5b505afa15801561338a573d6000803e3d6000fd5b505050506040513d6000823e601f3d908101601f191682016040526133b2919081019061425e565b90506000805b8381101561388b5760008382815181106133ce57fe5b602002602001015190506000604260008381526020019081526020016000205490508060001415613400575050613883565b60008281526043602090815260409182902080548351818402810184019094528084526060939283018282801561345657602002820191906000526020600020905b815481526020019060010190808311613442575b50939450600093505050505b8281101561387e57600082828151811061347857fe5b60209081029190910101516054546040516313e7cb0960e31b81529192506060916001600160a01b0390911690639f3e5848906134b9908590600401614b03565b60006040518083038186803b1580156134d157600080fd5b505afa1580156134e5573d6000803e3d6000fd5b505050506040513d6000823e601f3d908101601f1916820160405261350d919081019061425e565b6000838152604760205260408120549192509061352c57505050613876565b815161353a57505050613876565b605454604051632cb1c8cb60e21b81526051916000916001600160a01b039091169063b2c7232c90613570908890600401614b03565b60206040518083038186803b15801561358857600080fd5b505afa15801561359c573d6000803e3d6000fd5b505050506040513d601f19601f820116820180604052508101906135c091906143af565b815260208101919091526040016000205460ff161515600114156135e657505050613876565b81515b80156137f757600083600183038151811061360057fe5b602090810291909101015160545460405163b4c2f72760e01b815291925060009182916001600160a01b03169063b4c2f72790613641908690600401614b03565b60006040518083038186803b15801561365957600080fd5b505afa15801561366d573d6000803e3d6000fd5b505050506040513d6000823e601f3d908101601f1916820160405261369591908101906143c7565b93509350505080151560011515146136af575050506137ee565b60008381526051602052604090205460ff161515600114156136d3575050506137ee565b60018411156137bc5760008660028603815181106136ed57fe5b602090810291909101015160545460405163b4c2f72760e01b815291925060009182916001600160a01b03169063b4c2f7279061372e908690600401614b03565b60006040518083038186803b15801561374657600080fd5b505afa15801561375a573d6000803e3d6000fd5b505050506040513d6000823e601f3d908101601f1916820160405261378291908101906143c7565b935093505050801515600115151461379f575050505050506137ee565b6137b2610f4f868463ffffffff6138fd16565b97505050506137d2565b6137cf610f9a60348981548110610f7957fe5b94505b50506000908152605160205260409020805460ff191660011790555b600019016135e9565b5080156138725760008381526048602052604090205461382190610fe1908363ffffffff61396d16565b60008481526048602052604090205490995061386290613847908363ffffffff61396d16565b6000858152604760205260409020549063ffffffff6138fd16565b6000848152604760205260409020555b5050505b600101613462565b505050505b6001016133b8565b50600081116138ac5760405162461bcd60e51b81526004016110b890614a86565b604c546138bf908263ffffffff6138fd16565b604c556138cc33826139a7565b7f46d3ec67d736e34f6c5652d7a86f6aaab1a156c42c2bffa6adb8cb78f12520433382604051612be292919061459f565b600061393f83836040518060400160405280601e81526020017f536166654d6174683a207375627472616374696f6e206f766572666c6f770000815250614016565b90505b92915050565b60008282018381101561393f5760405162461bcd60e51b81526004016110b8906147ba565b60008261397c57506000613942565b8282028284828161398957fe5b041461393f5760405162461bcd60e51b81526004016110b8906149c0565b804710156139c75760405162461bcd60e51b81526004016110b8906148bc565b6000826001600160a01b0316826040516139e090613a47565b60006040518083038185875af1925050503d8060008114613a1d576040519150601f19603f3d011682016040523d82523d6000602084013e613a22565b606091505b50509050806130745760405162461bcd60e51b81526004016110b89061485f565b303b155b90565b600061393f83836040518060400160405280601a81526020017f536166654d6174683a206469766973696f6e206279207a65726f000000000000815250614042565b6000821580613a99575081155b15613aa657506000613942565b81613ac9612710613abd838263ffffffff613a4a16565b9063ffffffff61396d16565b14613ae65760405162461bcd60e51b81526004016110b890614797565b61393f612710613afc848663ffffffff61396d16565b9063ffffffff613a4a16565b600081613b1757506000611010565b613942826305a39a8063ffffffff613a4a16565b600060385460375411613b505760405162461bcd60e51b81526004016110b890614a01565b6038805460008181526036602052604090205460019091019091556034805442919083908110613b7c57fe5b60009182526020909120600460069092020101558515613bb5576000818152604560209081526040808320899055604690915290208590555b8315613bda576000818152604760209081526040808320879055604890915290208390555b6055546040516331a9108f60e11b81526001600160a01b039091169063b9b7be5b908290636352211e90613c12908690600401614b03565b60206040518083038186803b158015613c2a57600080fd5b505afa158015613c3e573d6000803e3d6000fd5b505050506040513d601f19601f82011682018060405250810190613c629190614205565b89846040518463ffffffff1660e01b8152600401613c82939291906145db565b600060405180830381600087803b158015613c9c57600080fd5b505af1158015613cb0573d6000803e3d6000fd5b5050505060366000613cce60016038546138fd90919063ffffffff16565b815260208101919091526040016000908120559695505050505050565b6040805161010081018252600060e082018181528252825160208181018552828252808401919091529282018190526060820181905242608083015260a0820181905260c082018190526034805460018101825590825282518051929460069092027f46bddb1178e94d7f2892ff5f366840eb658911794f2c3a44c450aa2c505186c10192613d7d92849201906140f7565b506020828101518051613d9692600185019201906140f7565b5060408201516002820155606082015160038201556080820151600482015560a08201516005909101805460c09093015160ff9081166101000261ff00199190931660ff199094169390931792909216179055603454600090613e0090600163ffffffff6138fd16565b603a805460009081526039602052604090208290558054600101905590508515613e43576000818152604560209081526040808320899055604690915290208590555b8315613e68576000818152604760209081526040808320879055604890915290208390555b605554604051632851206560e21b81526001600160a01b039091169063a144819490613e9a908a90859060040161459f565b600060405180830381600087803b158015613eb457600080fd5b505af1158015613ec8573d6000803e3d6000fd5b50929998505050505050505050565b6049546000908190613ef490600160301b900461ffff1685613a8c565b905060018315151415613f2157604954613f1a90640100000000900461ffff1685613a8c565b9150613f34565b613f31818363ffffffff61394816565b90505b604954613f5890613f499061ffff1686613a8c565b604a549063ffffffff61394816565b604a55604954613f8590613f769062010000900461ffff1686613a8c565b604b549063ffffffff61394816565b604b55604c54613f9b908363ffffffff61394816565b604c55604d54613fb1908263ffffffff61394816565b604d55604954613fdf90613fd090600160401b900461ffff1686613a8c565b604e549063ffffffff61394816565b604e5560495461400d90613ffe90600160501b900461ffff1686613a8c565b604f549063ffffffff61394816565b604f5550505050565b6000818484111561403a5760405162461bcd60e51b81526004016110b8919061460a565b505050900390565b600081836140635760405162461bcd60e51b81526004016110b8919061460a565b50600083858161406f57fe5b0495945050505050565b828054600181600116156101000203166002900490600052602060002090601f016020900481019282601f106140ba5782800160ff198235161785556140e7565b828001600101855582156140e7579182015b828111156140e75782358255916020019190600101906140cc565b506140f3929150614165565b5090565b828054600181600116156101000203166002900490600052602060002090601f016020900481019282601f1061413857805160ff19168380011785556140e7565b828001600101855582156140e7579182015b828111156140e757825182559160200191906001019061414a565b613a4791905b808211156140f3576000815560010161416b565b60008083601f840112614190578182fd5b50813567ffffffffffffffff8111156141a7578182fd5b60208301915083602080830285010111156141c157600080fd5b9250929050565b8051801515811461394257600080fd5b803560ff8116811461394257600080fd5b6000602082840312156141fa578081fd5b813561393f81614c68565b600060208284031215614216578081fd5b815161393f81614c68565b60008060408385031215614233578081fd5b823561423e81614c68565b946020939093013593505050565b60008060408385031215614233578182fd5b60006020808385031215614270578182fd5b825167ffffffffffffffff811115614286578283fd5b80840185601f820112614297578384fd5b805191506142ac6142a783614c18565b614bf1565b82815283810190828501858502840186018910156142c8578687fd5b8693505b848410156142ea5780518352600193909301929185019185016142cc565b50979650505050505050565b600060208284031215614307578081fd5b8151801515811461393f578182fd5b60008060008060008060c0878903121561432e578182fd5b863561433981614c80565b9550602087013561434981614c80565b9450604087013561435981614c80565b9350606087013561436981614c80565b9250608087013561437981614c80565b915060a087013561438981614c80565b809150509295509295509295565b6000602082840312156143a8578081fd5b5035919050565b6000602082840312156143c0578081fd5b5051919050565b600080600080608085870312156143dc578384fd5b84519350602085015167ffffffffffffffff808211156143fa578485fd5b81870188601f82011261440b578586fd5b805192508183111561441b578586fd5b61442e601f8401601f1916602001614bf1565b9150828252886020848301011115614444578586fd5b614455836020840160208401614c38565b5080945050506040850151915061446f86606087016141c8565b905092959194509250565b6000806040838503121561448c578182fd5b50508035926020909101359150565b6000602082840312156144ac578081fd5b61393f83836141d8565b6000806000806000606086880312156144cd578283fd5b6144d787876141d8565b9450602086013567ffffffffffffffff808211156144f3578485fd5b6144ff89838a0161417f565b90965094506040880135915080821115614517578283fd5b506145248882890161417f565b969995985093965092949392505050565b60008284528282602086013780602084860101526020601f19601f85011685010190509392505050565b60008151808452614577816020860160208601614c38565b601f01601f19169290920160200192915050565b6001600160a01b0391909116815260200190565b6001600160a01b03929092168252602082015260400190565b6001600160a01b0393841681526020810192909252909116604082015260600190565b6001600160a01b039384168152919092166020820152604081019190915260600190565b901515815260200190565b60006020825261393f602083018461455f565b600060e0825261463060e083018a61455f565b8281036020840152614642818a61455f565b604084019890985250506060810194909452608084019290925260ff90811660a08401521660c09091015292915050565b60208082526025908201527f6c6f63616c446576656c6f706d656e7446756e642062616c616e6365206973206040820152647a65726f2160d81b606082015260800190565b6020808252601490820152734e6f74206d6f72652072657363756546756e642160601b604082015260600190565b6020808252601e908201527f4e6f74206d6f7265206c6f63616c446576656c6f706d656e7446756e64210000604082015260600190565b60208082526019908201527f42616c616e6365206973206e6f742073756666696369656e7400000000000000604082015260600190565b60208082526023908201527f50657263656e74616765732073756d206d75737420657175616c20746f20313060408201526203030360ec1b606082015260800190565b602080825260099082015268151bdbc81cdb585b1b60ba1b604082015260600190565b6020808252601b908201527f536166654d6174683a206164646974696f6e206f766572666c6f770000000000604082015260600190565b6020808252601b908201527f416d6261737361646f7220676220636f756e74206973207a65726f0000000000604082015260600190565b6020808252601c908201527f747265656a657246756e642062616c616e6365206973207a65726f2100000000604082015260600190565b6020808252603a908201527f416464726573733a20756e61626c6520746f2073656e642076616c75652c207260408201527f6563697069656e74206d61792068617665207265766572746564000000000000606082015260800190565b6020808252601d908201527f416464726573733a20696e73756666696369656e742062616c616e6365000000604082015260600190565b6020808252601690820152754e6f74206d6f726520726573656172636846756e642160501b604082015260600190565b6020808252601d908201527f726573656172636846756e642062616c616e6365206973207a65726f21000000604082015260600190565b6020808252601590820152744e6f74206d6f726520747265656a657246756e642160581b604082015260600190565b6020808252601a908201527f506c616e746572207472656520636f756e74206973207a65726f000000000000604082015260600190565b60208082526021908201527f536166654d6174683a206d756c7469706c69636174696f6e206f766572666c6f6040820152607760f81b606082015260800190565b60208082526019908201527f5468657265206973206e6f742066756e64656420747265657300000000000000604082015260600190565b6020808252602e908201527f436f6e747261637420696e7374616e63652068617320616c726561647920626560408201526d195b881a5b9a5d1a585b1a5e995960921b606082015260800190565b6020808252601b908201527f776974686472617761626c6542616c616e6365206973207a65726f0000000000604082015260600190565b6020808252601b908201527f72657363756546756e642062616c616e6365206973207a65726f210000000000604082015260600190565b61ffff91909116815260200190565b90815260200190565b600084825260406020830152614b26604083018486614535565b95945050505050565b600087825260806020830152614b49608083018789614535565b8281036040840152614b5c818688614535565b915050826060830152979650505050505050565b9485526020850193909352604084019190915260608301526001600160a01b0316608082015260a00190565b60ff91909116815260200190565b6000808335601e19843603018112614bc0578283fd5b8084018035925067ffffffffffffffff831115614bdb578384fd5b602001925050368190038213156141c157600080fd5b60405181810167ffffffffffffffff81118282101715614c1057600080fd5b604052919050565b600067ffffffffffffffff821115614c2e578081fd5b5060209081020190565b60005b83811015614c53578181015183820152602001614c3b565b83811115614c62576000848401525b50505050565b6001600160a01b0381168114614c7d57600080fd5b50565b61ffff81168114614c7d57600080fdfea26469706673582212200c35cde01b07717cd92ba8ea637614ccf3e5f9ddfe44ff67a9b02aeaab03136e64736f6c63430006090033",
  "immutableReferences": {},
  "source": "// SPDX-License-Identifier: GPL-3.0\n\npragma solidity >=0.4.21 <0.7.0;\npragma experimental ABIEncoderV2;\n\nimport \"../../node_modules/@openzeppelin/contracts-ethereum-package/contracts/Initializable.sol\";\nimport \"../../node_modules/@openzeppelin/contracts-ethereum-package/contracts/utils/Address.sol\";\nimport \"../../node_modules/@openzeppelin/contracts-ethereum-package/contracts/math/SafeMath.sol\";\n\nimport \"../access/IAccessRestriction.sol\";\nimport \"../greenblock/IGBFactory.sol\";\nimport \"./IUpdateFactory.sol\";\nimport \"./ITree.sol\";\n\ncontract TreeFactory is Initializable {\n    using Address for address;\n    using SafeMath for uint256;\n    using SafeMath for uint16;\n\n    event PriceChanged(uint256 price);\n    event TreePlanted(\n        uint256 id,\n        string latitude,\n        string longitude,\n        uint256 plantedDate\n    );\n    event TreeFunded(\n        uint256 treeId,\n        uint256 planterBalance,\n        uint256 ambassadorBalance,\n        uint256 totalFund,\n        address owner\n    );\n    event PlanterBalanceWithdrawn(address planter, uint256 amount);\n    event AmbassadorBalanceWithdrawn(address ambassador, uint256 amount);\n    event TreejerFundWithdrawn(address to, uint256 amount, address by);\n    event LocalDevelopmentFundWithdrawn(address to, uint256 amount, address by);\n    event RescueFundWithdrawn(address to, uint256 amount, address by);\n    event ResearchFundWithdrawn(address to, uint256 amount, address by);\n\n    bool public isTreeFactory;\n\n    struct Tree {\n        string latitude;\n        string longitude;\n        uint256 plantedDate;\n        uint256 birthDate;\n        uint256 fundedDate;\n        uint8 height;\n        uint8 diameter;\n    }\n    Tree[] public trees;\n\n    uint256 public price;\n\n    mapping(uint256 => uint256) public notFundedTrees;\n    uint256 public notFundedTreesLastIndex;\n    uint256 public notFundedTreesUsedIndex;\n\n    mapping(uint256 => uint256) public notPlantedTrees;\n    uint256 public notPlantedTreesLastIndex;\n    uint256 public notPlantedTreesUsedIndex;\n\n    mapping(uint256 => uint8) public treeToType;\n    mapping(uint256 => uint256) public treeToGB;\n    mapping(uint256 => address) public treeToPlanter;\n    mapping(address => uint256) public planterTreeCount;\n    mapping(address => uint256[]) public planterTrees;\n    mapping(uint256 => uint256) public typeTreeCount;\n    mapping(uint256 => uint256) public gbTreeCount;\n    mapping(uint256 => uint256[]) public gbTrees;\n    mapping(uint256 => uint256[]) public typeTrees;\n\n    mapping(uint256 => uint256) public treeToPlanterRemainingBalance;\n    mapping(uint256 => uint256) public treeToPlanterBalancePerSecond;\n\n    mapping(uint256 => uint256) public treeToAmbassadorRemainingBalance;\n    mapping(uint256 => uint256) public treeToAmbassadorBalancePerSecond;\n\n    // 100 percentages basis points = 1 percentage\n    uint16 public treejerPercentage;\n    uint16 public plantersPercentage;\n    uint16 public ambassadorsPercentage;\n    uint16 public localDevelopmentFundPercentage;\n    uint16 public rescueFundPercentage;\n    uint16 public researchFundPercentage;\n\n    uint256 public treejerFund;\n    uint256 public plantersFund;\n    uint256 public ambassadorsFund;\n    uint256 public localDevelopmentFund;\n    uint256 public rescueFund;\n    uint256 public researchFund;\n\n    mapping(uint256 => bool) public updateToPlanterBalanceWithdrawn;\n    mapping(uint256 => bool) public updateToAmbassadorBalanceWithdrawn;\n\n    // 1 common year 31536000 seconds * 3 year\n    uint256 constant treeBalanceWithdrawnSeconds = 94608000;\n\n    //related contrects\n    IAccessRestriction public accessRestriction;\n    IGBFactory public gbFactory;\n    IUpdateFactory public updateFactory;\n    ITree public treeToken;\n\n    function initialize(address _accessRestrictionAddress) public initializer {\n        isTreeFactory = true;\n\n        IAccessRestriction candidateContract =\n            IAccessRestriction(_accessRestrictionAddress);\n        require(candidateContract.isAccessRestriction());\n        accessRestriction = candidateContract;\n\n        //set default percentages\n        treejerPercentage = 2500;\n        plantersPercentage = 4000;\n        ambassadorsPercentage = 500;\n        localDevelopmentFundPercentage = 1500;\n        rescueFundPercentage = 1000;\n        researchFundPercentage = 500;\n    }\n\n    function setGBFactoryAddress(address _address) external {\n        accessRestriction.ifAdmin(msg.sender);\n\n        IGBFactory candidateContract = IGBFactory(_address);\n        require(candidateContract.isGBFactory());\n        gbFactory = candidateContract;\n    }\n\n    function setUpdateFactoryAddress(address _address) external {\n        accessRestriction.ifAdmin(msg.sender);\n\n        IUpdateFactory candidateContract = IUpdateFactory(_address);\n        require(candidateContract.isUpdateFactory());\n        updateFactory = candidateContract;\n    }\n\n    function setTreeTokenAddress(address _address) external {\n        accessRestriction.ifAdmin(msg.sender);\n\n        ITree candidateContract = ITree(_address);\n        require(candidateContract.isTree());\n        treeToken = candidateContract;\n    }\n\n    function plant(\n        uint8 _typeId,\n        string[] calldata _stringParams,\n        uint8[] calldata _uintParams\n    ) external {\n        accessRestriction.ifNotPaused();\n        accessRestriction.ifPlanter(msg.sender);\n\n        uint256 gbId = gbFactory.planterGB(msg.sender);\n\n        uint256 id = 0;\n\n        if (notPlantedTreesLastIndex > notPlantedTreesUsedIndex) {\n            id = notPlantedTrees[notPlantedTreesUsedIndex];\n            notPlantedTreesUsedIndex++;\n\n            trees[id].latitude = _stringParams[1];\n            trees[id].longitude = _stringParams[2];\n            trees[id].plantedDate = block.timestamp;\n            trees[id].birthDate = block.timestamp;\n            trees[id].height = _uintParams[0];\n            trees[id].diameter = _uintParams[1];\n\n            delete notPlantedTrees[notPlantedTreesUsedIndex.sub(1)];\n        } else {\n            trees.push(\n                Tree(\n                    _stringParams[1],\n                    _stringParams[2],\n                    block.timestamp,\n                    block.timestamp,\n                    0,\n                    _uintParams[0],\n                    _uintParams[1]\n                )\n            );\n            id = trees.length.sub(1);\n\n            notFundedTrees[notFundedTreesLastIndex] = id;\n            notFundedTreesLastIndex++;\n            treeToken.safeMint(msg.sender, id);\n        }\n\n        bytes memory uriStringByte = bytes(_stringParams[0]);\n        if (uriStringByte.length > 0) {\n            treeToken.setTokenURI(id, _stringParams[0]);\n        }\n\n        treeToGB[id] = gbId;\n        gbTreeCount[gbId]++;\n        gbTrees[gbId].push(id);\n\n        treeToType[id] = _typeId;\n        typeTreeCount[_typeId]++;\n        typeTrees[_typeId].push(id);\n\n        treeToPlanter[id] = msg.sender;\n        planterTreeCount[msg.sender]++;\n        planterTrees[msg.sender].push(id);\n\n        emit TreePlanted(\n            id,\n            _stringParams[1],\n            _stringParams[2],\n            block.timestamp\n        );\n    }\n\n    function simpleFund(\n        address _account,\n        uint256 _planterBalance,\n        uint256 _planterBalancePerSecond,\n        uint256 _ambassadorBalance,\n        uint256 _ambassadorBalancePerSecond\n    ) internal returns (uint256) {\n        trees.push(Tree(\"\", \"\", 0, 0, block.timestamp, 0, 0));\n        uint256 id = trees.length.sub(1);\n\n        notPlantedTrees[notPlantedTreesLastIndex] = id;\n        notPlantedTreesLastIndex++;\n\n        if (_planterBalance > 0) {\n            treeToPlanterRemainingBalance[id] = _planterBalance;\n            treeToPlanterBalancePerSecond[id] = _planterBalancePerSecond;\n        }\n\n        if (_ambassadorBalance > 0) {\n            treeToAmbassadorRemainingBalance[id] = _ambassadorBalance;\n            treeToAmbassadorBalancePerSecond[id] = _ambassadorBalancePerSecond;\n        }\n\n        treeToken.safeMint(_account, id);\n\n        return id;\n    }\n\n    function fundPlantedTress(\n        address _account,\n        uint256 _planterBalance,\n        uint256 _planterBalancePerSecond,\n        uint256 _ambassadorBalance,\n        uint256 _ambassadorBalancePerSecond\n    ) internal returns (uint256) {\n        require(\n            notFundedTreesLastIndex > notFundedTreesUsedIndex,\n            \"There is not funded trees\"\n        );\n\n        uint256 treeId = notFundedTrees[notFundedTreesUsedIndex];\n        notFundedTreesUsedIndex++;\n\n        trees[treeId].fundedDate = block.timestamp;\n\n        if (_planterBalance > 0) {\n            treeToPlanterRemainingBalance[treeId] = _planterBalance;\n            treeToPlanterBalancePerSecond[treeId] = _planterBalancePerSecond;\n        }\n\n        if (_ambassadorBalance > 0) {\n            treeToAmbassadorRemainingBalance[treeId] = _ambassadorBalance;\n            treeToAmbassadorBalancePerSecond[\n                treeId\n            ] = _ambassadorBalancePerSecond;\n        }\n\n        treeToken.safeTransferExtra(\n            treeToken.ownerOf(treeId),\n            _account,\n            treeId\n        );\n\n        delete notFundedTrees[notFundedTreesUsedIndex.sub(1)];\n\n        return treeId;\n    }\n\n    function setPrice(uint256 _price) external {\n        accessRestriction.ifAdmin(msg.sender);\n\n        price = _price;\n        emit PriceChanged(_price);\n    }\n\n    function fund(uint256 _count) external payable {\n        uint256 balance = msg.value.div(_count);\n\n        require(balance >= price, \"Balance is not sufficient\");\n\n        for (uint8 i = 0; i < _count; i++) {\n            uint256 id = 0;\n            uint256 planterBalance =\n                _calculateShare(plantersPercentage, balance);\n            uint256 ambassadorBalance = 0;\n            bool hasAmbasador = false;\n\n            //check for\n            if (notFundedTreesLastIndex > notFundedTreesUsedIndex) {\n                id = notFundedTrees[notFundedTreesUsedIndex];\n                uint256 gbId = treeToGB[id];\n                address gbAmbassador = gbFactory.gbToAmbassador(gbId);\n\n                if (gbAmbassador != address(0)) {\n                    hasAmbasador = true;\n                    ambassadorBalance = _calculateShare(\n                        ambassadorsPercentage,\n                        balance\n                    );\n                }\n\n                id = fundPlantedTress(\n                    msg.sender,\n                    planterBalance,\n                    _calculateSharePerSecond(planterBalance),\n                    ambassadorBalance,\n                    _calculateSharePerSecond(ambassadorBalance)\n                );\n            } else {\n                id = simpleFund(\n                    msg.sender,\n                    planterBalance,\n                    _calculateSharePerSecond(planterBalance),\n                    0,\n                    0\n                );\n            }\n\n            _updateBalances(balance, hasAmbasador);\n\n            emit TreeFunded(\n                id,\n                planterBalance,\n                ambassadorBalance,\n                balance,\n                msg.sender\n            );\n        }\n    }\n\n    function _calculateSharePerSecond(uint256 _amount)\n        private\n        pure\n        returns (uint256)\n    {\n        if (_amount == 0) {\n            return 0;\n        }\n\n        return _amount.div(treeBalanceWithdrawnSeconds);\n    }\n\n    function _calculateShare(uint256 _percentage, uint256 _amount)\n        private\n        pure\n        returns (uint256)\n    {\n        if (_percentage == 0 || _amount == 0) {\n            return 0;\n        }\n\n        require((_amount.div(10000)).mul(10000) == _amount, \"Too small\");\n\n        return (_amount.mul(_percentage)).div(10000);\n    }\n\n    function _updateBalances(uint256 _balance, bool _hasAmbasador) private {\n        uint256 ambassadorBalance = 0;\n\n        uint256 localDevelopmentFundBalance =\n            _calculateShare(localDevelopmentFundPercentage, _balance);\n\n        if (_hasAmbasador == true) {\n            ambassadorBalance = _calculateShare(\n                ambassadorsPercentage,\n                _balance\n            );\n        } else {\n            localDevelopmentFundBalance = localDevelopmentFundBalance.add(\n                ambassadorBalance\n            );\n        }\n\n        treejerFund = treejerFund.add(\n            _calculateShare(treejerPercentage, _balance)\n        );\n        plantersFund = plantersFund.add(\n            _calculateShare(plantersPercentage, _balance)\n        );\n        ambassadorsFund = ambassadorsFund.add(ambassadorBalance);\n        localDevelopmentFund = localDevelopmentFund.add(\n            localDevelopmentFundBalance\n        );\n        rescueFund = rescueFund.add(\n            _calculateShare(rescueFundPercentage, _balance)\n        );\n        researchFund = researchFund.add(\n            _calculateShare(researchFundPercentage, _balance)\n        );\n    }\n\n    function withdrawTreejerFund(address payable _to, uint256 _amount)\n        external\n    {\n        accessRestriction.ifAdmin(msg.sender);\n\n        require(treejerFund > 0, \"treejerFund balance is zero!\");\n        require(_amount <= treejerFund, \"Not more treejerFund!\");\n\n        treejerFund = treejerFund.sub(_amount);\n\n        Address.sendValue(_to, _amount);\n\n        emit TreejerFundWithdrawn(_to, _amount, msg.sender);\n    }\n\n    function withdrawLocalDevelopmentFund(address payable _to, uint256 _amount)\n        external\n    {\n        accessRestriction.ifAdmin(msg.sender);\n\n        require(\n            localDevelopmentFund > 0,\n            \"localDevelopmentFund balance is zero!\"\n        );\n        require(\n            _amount <= localDevelopmentFund,\n            \"Not more localDevelopmentFund!\"\n        );\n\n        localDevelopmentFund = localDevelopmentFund.sub(_amount);\n\n        Address.sendValue(_to, _amount);\n\n        emit LocalDevelopmentFundWithdrawn(_to, _amount, msg.sender);\n    }\n\n    function withdrawRescueFund(address payable _to, uint256 _amount) external {\n        accessRestriction.ifAdmin(msg.sender);\n\n        require(rescueFund > 0, \"rescueFund balance is zero!\");\n        require(_amount <= rescueFund, \"Not more rescueFund!\");\n\n        rescueFund = rescueFund.sub(_amount);\n\n        Address.sendValue(_to, _amount);\n\n        emit RescueFundWithdrawn(_to, _amount, msg.sender);\n    }\n\n    function withdrawResearchFund(address payable _to, uint256 _amount)\n        external\n    {\n        accessRestriction.ifAdmin(msg.sender);\n\n        require(researchFund > 0, \"researchFund balance is zero!\");\n        require(_amount <= researchFund, \"Not more researchFund!\");\n\n        researchFund = researchFund.sub(_amount);\n\n        Address.sendValue(_to, _amount);\n\n        emit ResearchFundWithdrawn(_to, _amount, msg.sender);\n    }\n\n    function withdrawPlanterBalance() external {\n        accessRestriction.ifPlanter(msg.sender);\n\n        uint256 planterTreesCount = planterTreeCount[msg.sender];\n\n        require(planterTreesCount > 0, \"Planter tree count is zero\");\n\n        uint256 withdrawableBalance = 0;\n        uint256[] memory treeIds = planterTrees[msg.sender];\n\n        for (uint256 i = 0; i < planterTreesCount; i++) {\n            uint256 treeId = treeIds[i];\n\n            uint256[] memory treeUpdates = updateFactory.getTreeUpdates(treeId);\n            uint256 totalSeconds = 0;\n\n            if (treeToPlanterRemainingBalance[treeId] <= 0) {\n                continue;\n            }\n\n            if (treeUpdates.length == 0) {\n                continue;\n            }\n\n            if (\n                updateToPlanterBalanceWithdrawn[\n                    updateFactory.getTreeLastUpdateId(treeId)\n                ] == true\n            ) {\n                continue;\n            }\n\n            for (uint256 j = treeUpdates.length; j > 0; j--) {\n                uint256 jUpdateId = treeUpdates[j - 1];\n\n                (, , uint256 jUpdateDate, bool jUpdateStatus) =\n                    updateFactory.updates(jUpdateId);\n\n                if (jUpdateStatus != true) {\n                    continue;\n                }\n\n                if (updateToPlanterBalanceWithdrawn[jUpdateId] == true) {\n                    continue;\n                }\n\n                if (j > 1) {\n                    uint256 jMinusUpdateId = treeUpdates[j - 2];\n\n                    (, , uint256 jMUpdateDate, bool jMUpdateStatus) =\n                        updateFactory.updates(jMinusUpdateId);\n\n                    if (jMUpdateStatus != true) {\n                        continue;\n                    }\n\n                    totalSeconds = totalSeconds.add(\n                        jUpdateDate.sub(jMUpdateDate)\n                    );\n                } else {\n                    totalSeconds = totalSeconds.add(\n                        jUpdateDate.sub(trees[treeId].plantedDate)\n                    );\n                }\n\n                updateToPlanterBalanceWithdrawn[jUpdateId] = true;\n            }\n\n            if (totalSeconds > 0) {\n                withdrawableBalance = withdrawableBalance.add(\n                    treeToPlanterBalancePerSecond[treeId].mul(totalSeconds)\n                );\n                treeToPlanterRemainingBalance[\n                    treeId\n                ] = treeToPlanterRemainingBalance[treeId].sub(\n                    treeToPlanterBalancePerSecond[treeId].mul(totalSeconds)\n                );\n            }\n        }\n\n        require(withdrawableBalance > 0, \"withdrawableBalance is zero\");\n\n        plantersFund = plantersFund.sub(withdrawableBalance);\n\n        Address.sendValue(msg.sender, withdrawableBalance);\n\n        emit PlanterBalanceWithdrawn(msg.sender, withdrawableBalance);\n    }\n\n    function withdrawAmbassadorBalance() external {\n        accessRestriction.ifAmbassador(msg.sender);\n\n        uint256 ambassadorGBCount = gbFactory.ambassadorGBCount(msg.sender);\n\n        require(ambassadorGBCount > 0, \"Ambassador gb count is zero\");\n\n        uint256[] memory gbIds = gbFactory.getAmbassadorGBs(msg.sender);\n\n        uint256 withdrawableBalance = 0;\n\n        for (uint256 k = 0; k < ambassadorGBCount; k++) {\n            uint256 _gbId = gbIds[k];\n\n            uint256 gbTreesCount = gbTreeCount[_gbId];\n\n            if (gbTreesCount == 0) {\n                continue;\n            }\n\n            uint256[] memory treeIds = gbTrees[_gbId];\n\n            for (uint256 i = 0; i < gbTreesCount; i++) {\n                uint256 treeId = treeIds[i];\n\n                uint256[] memory treeUpdates =\n                    updateFactory.getTreeUpdates(treeId);\n                uint256 totalSeconds = 0;\n\n                if (treeToAmbassadorRemainingBalance[treeId] <= 0) {\n                    continue;\n                }\n\n                if (treeUpdates.length == 0) {\n                    continue;\n                }\n\n                if (\n                    updateToAmbassadorBalanceWithdrawn[\n                        updateFactory.getTreeLastUpdateId(treeId)\n                    ] == true\n                ) {\n                    continue;\n                }\n\n                for (uint256 j = treeUpdates.length; j > 0; j--) {\n                    uint256 jUpdateId = treeUpdates[j - 1];\n\n                    (, , uint256 jUpdateDate, bool jUpdateStatus) =\n                        updateFactory.updates(jUpdateId);\n\n                    if (jUpdateStatus != true) {\n                        continue;\n                    }\n\n                    if (updateToAmbassadorBalanceWithdrawn[jUpdateId] == true) {\n                        continue;\n                    }\n\n                    if (j > 1) {\n                        uint256 jMinusUpdateId = treeUpdates[j - 2];\n                        (, , uint256 jMUpdateDate, bool jMUpdateStatus) =\n                            updateFactory.updates(jMinusUpdateId);\n\n                        if (jMUpdateStatus != true) {\n                            continue;\n                        }\n\n                        totalSeconds = totalSeconds.add(\n                            jUpdateDate.sub(jMUpdateDate)\n                        );\n                    } else {\n                        totalSeconds = totalSeconds.add(\n                            jUpdateDate.sub(trees[treeId].plantedDate)\n                        );\n                    }\n\n                    updateToAmbassadorBalanceWithdrawn[jUpdateId] = true;\n                }\n\n                if (totalSeconds > 0) {\n                    withdrawableBalance = withdrawableBalance.add(\n                        treeToAmbassadorBalancePerSecond[treeId].mul(\n                            totalSeconds\n                        )\n                    );\n                    treeToAmbassadorRemainingBalance[\n                        treeId\n                    ] = treeToAmbassadorRemainingBalance[treeId].sub(\n                        treeToAmbassadorBalancePerSecond[treeId].mul(\n                            totalSeconds\n                        )\n                    );\n                }\n            }\n        }\n\n        require(withdrawableBalance > 0, \"withdrawableBalance is zero\");\n\n        ambassadorsFund = ambassadorsFund.sub(withdrawableBalance);\n\n        Address.sendValue(msg.sender, withdrawableBalance);\n\n        emit AmbassadorBalanceWithdrawn(msg.sender, withdrawableBalance);\n    }\n\n    function setAllPercentages(\n        uint16 _treejerPercentage,\n        uint16 _plantersPercentage,\n        uint16 _ambassadorsPercentage,\n        uint16 _localDevelopmentFundPercentage,\n        uint16 _rescueFundPercentage,\n        uint16 _researchFundPercentage\n    ) external {\n        accessRestriction.ifAdmin(msg.sender);\n\n        require(\n            _treejerPercentage\n                .add(_plantersPercentage)\n                .add(_ambassadorsPercentage)\n                .add(_localDevelopmentFundPercentage)\n                .add(_rescueFundPercentage)\n                .add(_researchFundPercentage) == 10000,\n            \"Percentages sum must equal to 10000\"\n        );\n\n        treejerPercentage = _treejerPercentage;\n        plantersPercentage = _plantersPercentage;\n        ambassadorsPercentage = _ambassadorsPercentage;\n        localDevelopmentFundPercentage = _localDevelopmentFundPercentage;\n        rescueFundPercentage = _rescueFundPercentage;\n        researchFundPercentage = _researchFundPercentage;\n    }\n\n    function getPlanterWithdrawableBalance(address _account)\n        external\n        view\n        returns (uint256)\n    {\n        accessRestriction.ifPlanter(_account);\n\n        uint256 planterTreesCount = planterTreeCount[_account];\n\n        if (planterTreesCount == 0) {\n            return 0;\n        }\n\n        uint256 withdrawableBalance = 0;\n        uint256[] memory treeIds = planterTrees[_account];\n\n        for (uint256 i = 0; i < planterTreesCount; i++) {\n            uint256 treeId = treeIds[i];\n\n            uint256[] memory treeUpdates = updateFactory.getTreeUpdates(treeId);\n            uint256 totalSeconds = 0;\n\n            if (treeToPlanterRemainingBalance[treeId] <= 0) {\n                continue;\n            }\n\n            if (treeUpdates.length == 0) {\n                continue;\n            }\n\n            if (\n                updateToPlanterBalanceWithdrawn[\n                    updateFactory.getTreeLastUpdateId(treeId)\n                ] == true\n            ) {\n                continue;\n            }\n\n            for (uint256 j = treeUpdates.length; j > 0; j--) {\n                uint256 jUpdateId = treeUpdates[j - 1];\n\n                (, , uint256 jUpdateDate, bool jUpdateStatus) =\n                    updateFactory.updates(jUpdateId);\n\n                if (jUpdateStatus != true) {\n                    continue;\n                }\n\n                if (updateToPlanterBalanceWithdrawn[jUpdateId] == true) {\n                    continue;\n                }\n\n                if (j > 1) {\n                    uint256 jMinusUpdateId = treeUpdates[j - 2];\n\n                    (, , uint256 jMUpdateDate, bool jMUpdateStatus) =\n                        updateFactory.updates(jMinusUpdateId);\n\n                    if (jMUpdateStatus != true) {\n                        continue;\n                    }\n\n                    totalSeconds = totalSeconds.add(\n                        jUpdateDate.sub(jMUpdateDate)\n                    );\n                } else {\n                    totalSeconds = totalSeconds.add(\n                        jUpdateDate.sub(trees[treeId].plantedDate)\n                    );\n                }\n            }\n\n            if (totalSeconds > 0) {\n                withdrawableBalance = withdrawableBalance.add(\n                    treeToPlanterBalancePerSecond[treeId].mul(totalSeconds)\n                );\n            }\n        }\n\n        return withdrawableBalance;\n    }\n\n    function getAmbassadorWithdrawableBalance(address _account)\n        external\n        view\n        returns (uint256)\n    {\n        accessRestriction.ifAmbassador(_account);\n\n        uint256 ambassadorGBCount = gbFactory.ambassadorGBCount(_account);\n\n        if (ambassadorGBCount == 0) {\n            return 0;\n        }\n\n        uint256[] memory gbIds = gbFactory.getAmbassadorGBs(_account);\n\n        uint256 withdrawableBalance = 0;\n\n        for (uint256 k = 0; k < ambassadorGBCount; k++) {\n            uint256 _gbId = gbIds[k];\n\n            uint256 gbTreesCount = gbTreeCount[_gbId];\n\n            if (gbTreesCount == 0) {\n                continue;\n            }\n\n            uint256[] memory treeIds = gbTrees[_gbId];\n\n            for (uint256 i = 0; i < gbTreesCount; i++) {\n                uint256 treeId = treeIds[i];\n\n                uint256[] memory treeUpdates =\n                    updateFactory.getTreeUpdates(treeId);\n                uint256 totalSeconds = 0;\n\n                if (treeToAmbassadorRemainingBalance[treeId] <= 0) {\n                    continue;\n                }\n\n                if (treeUpdates.length == 0) {\n                    continue;\n                }\n\n                if (\n                    updateToAmbassadorBalanceWithdrawn[\n                        updateFactory.getTreeLastUpdateId(treeId)\n                    ] == true\n                ) {\n                    continue;\n                }\n\n                for (uint256 j = treeUpdates.length; j > 0; j--) {\n                    uint256 jUpdateId = treeUpdates[j - 1];\n\n                    (, , uint256 jUpdateDate, bool jUpdateStatus) =\n                        updateFactory.updates(jUpdateId);\n\n                    if (jUpdateStatus != true) {\n                        continue;\n                    }\n\n                    if (updateToAmbassadorBalanceWithdrawn[jUpdateId] == true) {\n                        continue;\n                    }\n\n                    if (j > 1) {\n                        uint256 jMinusUpdateId = treeUpdates[j - 2];\n                        (, , uint256 jMUpdateDate, bool jMUpdateStatus) =\n                            updateFactory.updates(jMinusUpdateId);\n\n                        if (jMUpdateStatus != true) {\n                            continue;\n                        }\n\n                        totalSeconds = totalSeconds.add(\n                            jUpdateDate.sub(jMUpdateDate)\n                        );\n                    } else {\n                        totalSeconds = totalSeconds.add(\n                            jUpdateDate.sub(trees[treeId].plantedDate)\n                        );\n                    }\n                }\n\n                if (totalSeconds > 0) {\n                    withdrawableBalance = withdrawableBalance.add(\n                        treeToAmbassadorBalancePerSecond[treeId].mul(\n                            totalSeconds\n                        )\n                    );\n                }\n            }\n        }\n\n        return withdrawableBalance;\n    }\n}\n",
  "sourcePath": "/home/amir/Projects/treejer/contract/contracts/tree/TreeFactory.sol",
  "compiler": {
    "name": "solc",
    "version": "0.6.9+commit.3e3065ac.Emscripten.clang"
  },
  "schemaVersion": "3.2.3",
  "updatedAt": "2020-12-26T11:36:26.814Z",
  "networkType": "ethereum",
  "devdoc": {
    "methods": {}
  },
  "userdoc": {
    "methods": {}
  }
}