{
  "contractName": "TreeFactory",
  "abi": [
    {
      "anonymous": false,
      "inputs": [
        {
          "indexed": false,
          "internalType": "address",
          "name": "ambassador",
          "type": "address"
        },
        {
          "indexed": false,
          "internalType": "uint256",
          "name": "amount",
          "type": "uint256"
        }
      ],
      "name": "AmbassadorBalanceWithdrawn",
      "type": "event"
    },
    {
      "anonymous": false,
      "inputs": [
        {
          "indexed": false,
          "internalType": "address",
          "name": "to",
          "type": "address"
        },
        {
          "indexed": false,
          "internalType": "uint256",
          "name": "amount",
          "type": "uint256"
        },
        {
          "indexed": false,
          "internalType": "address",
          "name": "by",
          "type": "address"
        }
      ],
      "name": "LocalDevelopmentFundWithdrawn",
      "type": "event"
    },
    {
      "anonymous": false,
      "inputs": [
        {
          "indexed": false,
          "internalType": "address",
          "name": "planter",
          "type": "address"
        },
        {
          "indexed": false,
          "internalType": "uint256",
          "name": "amount",
          "type": "uint256"
        }
      ],
      "name": "PlanterBalanceWithdrawn",
      "type": "event"
    },
    {
      "anonymous": false,
      "inputs": [
        {
          "indexed": false,
          "internalType": "uint256",
          "name": "price",
          "type": "uint256"
        }
      ],
      "name": "PriceChanged",
      "type": "event"
    },
    {
      "anonymous": false,
      "inputs": [
        {
          "indexed": false,
          "internalType": "address",
          "name": "to",
          "type": "address"
        },
        {
          "indexed": false,
          "internalType": "uint256",
          "name": "amount",
          "type": "uint256"
        },
        {
          "indexed": false,
          "internalType": "address",
          "name": "by",
          "type": "address"
        }
      ],
      "name": "RescueFundWithdrawn",
      "type": "event"
    },
    {
      "anonymous": false,
      "inputs": [
        {
          "indexed": false,
          "internalType": "address",
          "name": "to",
          "type": "address"
        },
        {
          "indexed": false,
          "internalType": "uint256",
          "name": "amount",
          "type": "uint256"
        },
        {
          "indexed": false,
          "internalType": "address",
          "name": "by",
          "type": "address"
        }
      ],
      "name": "ResearchFundWithdrawn",
      "type": "event"
    },
    {
      "anonymous": false,
      "inputs": [
        {
          "indexed": false,
          "internalType": "uint256",
          "name": "treeId",
          "type": "uint256"
        },
        {
          "indexed": false,
          "internalType": "uint256",
          "name": "planterBalance",
          "type": "uint256"
        },
        {
          "indexed": false,
          "internalType": "uint256",
          "name": "ambassadorBalance",
          "type": "uint256"
        },
        {
          "indexed": false,
          "internalType": "uint256",
          "name": "totalFund",
          "type": "uint256"
        },
        {
          "indexed": false,
          "internalType": "address",
          "name": "owner",
          "type": "address"
        }
      ],
      "name": "TreeFunded",
      "type": "event"
    },
    {
      "anonymous": false,
      "inputs": [
        {
          "indexed": false,
          "internalType": "uint256",
          "name": "id",
          "type": "uint256"
        },
        {
          "indexed": false,
          "internalType": "string",
          "name": "latitude",
          "type": "string"
        },
        {
          "indexed": false,
          "internalType": "string",
          "name": "longitude",
          "type": "string"
        },
        {
          "indexed": false,
          "internalType": "uint256",
          "name": "plantedDate",
          "type": "uint256"
        }
      ],
      "name": "TreePlanted",
      "type": "event"
    },
    {
      "anonymous": false,
      "inputs": [
        {
          "indexed": false,
          "internalType": "address",
          "name": "to",
          "type": "address"
        },
        {
          "indexed": false,
          "internalType": "uint256",
          "name": "amount",
          "type": "uint256"
        },
        {
          "indexed": false,
          "internalType": "address",
          "name": "by",
          "type": "address"
        }
      ],
      "name": "TreejerFundWithdrawn",
      "type": "event"
    },
    {
      "inputs": [],
      "name": "accessRestriction",
      "outputs": [
        {
          "internalType": "contract IAccessRestriction",
          "name": "",
          "type": "address"
        }
      ],
      "stateMutability": "view",
      "type": "function",
      "constant": true
    },
    {
      "inputs": [],
      "name": "ambassadorsFund",
      "outputs": [
        {
          "internalType": "uint256",
          "name": "",
          "type": "uint256"
        }
      ],
      "stateMutability": "view",
      "type": "function",
      "constant": true
    },
    {
      "inputs": [],
      "name": "ambassadorsPercentage",
      "outputs": [
        {
          "internalType": "uint16",
          "name": "",
          "type": "uint16"
        }
      ],
      "stateMutability": "view",
      "type": "function",
      "constant": true
    },
    {
      "inputs": [],
      "name": "gbFactory",
      "outputs": [
        {
          "internalType": "contract IGBFactory",
          "name": "",
          "type": "address"
        }
      ],
      "stateMutability": "view",
      "type": "function",
      "constant": true
    },
    {
      "inputs": [
        {
          "internalType": "uint256",
          "name": "",
          "type": "uint256"
        }
      ],
      "name": "gbTreeCount",
      "outputs": [
        {
          "internalType": "uint256",
          "name": "",
          "type": "uint256"
        }
      ],
      "stateMutability": "view",
      "type": "function",
      "constant": true
    },
    {
      "inputs": [
        {
          "internalType": "uint256",
          "name": "",
          "type": "uint256"
        },
        {
          "internalType": "uint256",
          "name": "",
          "type": "uint256"
        }
      ],
      "name": "gbTrees",
      "outputs": [
        {
          "internalType": "uint256",
          "name": "",
          "type": "uint256"
        }
      ],
      "stateMutability": "view",
      "type": "function",
      "constant": true
    },
    {
      "inputs": [],
      "name": "isTreeFactory",
      "outputs": [
        {
          "internalType": "bool",
          "name": "",
          "type": "bool"
        }
      ],
      "stateMutability": "view",
      "type": "function",
      "constant": true
    },
    {
      "inputs": [
        {
          "internalType": "address",
          "name": "forwarder",
          "type": "address"
        }
      ],
      "name": "isTrustedForwarder",
      "outputs": [
        {
          "internalType": "bool",
          "name": "",
          "type": "bool"
        }
      ],
      "stateMutability": "view",
      "type": "function",
      "constant": true
    },
    {
      "inputs": [],
      "name": "localDevelopmentFund",
      "outputs": [
        {
          "internalType": "uint256",
          "name": "",
          "type": "uint256"
        }
      ],
      "stateMutability": "view",
      "type": "function",
      "constant": true
    },
    {
      "inputs": [],
      "name": "localDevelopmentFundPercentage",
      "outputs": [
        {
          "internalType": "uint16",
          "name": "",
          "type": "uint16"
        }
      ],
      "stateMutability": "view",
      "type": "function",
      "constant": true
    },
    {
      "inputs": [
        {
          "internalType": "uint256",
          "name": "",
          "type": "uint256"
        }
      ],
      "name": "notFundedTrees",
      "outputs": [
        {
          "internalType": "uint256",
          "name": "",
          "type": "uint256"
        }
      ],
      "stateMutability": "view",
      "type": "function",
      "constant": true
    },
    {
      "inputs": [],
      "name": "notFundedTreesLastIndex",
      "outputs": [
        {
          "internalType": "uint256",
          "name": "",
          "type": "uint256"
        }
      ],
      "stateMutability": "view",
      "type": "function",
      "constant": true
    },
    {
      "inputs": [],
      "name": "notFundedTreesUsedIndex",
      "outputs": [
        {
          "internalType": "uint256",
          "name": "",
          "type": "uint256"
        }
      ],
      "stateMutability": "view",
      "type": "function",
      "constant": true
    },
    {
      "inputs": [
        {
          "internalType": "uint256",
          "name": "",
          "type": "uint256"
        }
      ],
      "name": "notPlantedTrees",
      "outputs": [
        {
          "internalType": "uint256",
          "name": "",
          "type": "uint256"
        }
      ],
      "stateMutability": "view",
      "type": "function",
      "constant": true
    },
    {
      "inputs": [],
      "name": "notPlantedTreesLastIndex",
      "outputs": [
        {
          "internalType": "uint256",
          "name": "",
          "type": "uint256"
        }
      ],
      "stateMutability": "view",
      "type": "function",
      "constant": true
    },
    {
      "inputs": [],
      "name": "notPlantedTreesUsedIndex",
      "outputs": [
        {
          "internalType": "uint256",
          "name": "",
          "type": "uint256"
        }
      ],
      "stateMutability": "view",
      "type": "function",
      "constant": true
    },
    {
      "inputs": [
        {
          "internalType": "address",
          "name": "",
          "type": "address"
        }
      ],
      "name": "planterTreeCount",
      "outputs": [
        {
          "internalType": "uint256",
          "name": "",
          "type": "uint256"
        }
      ],
      "stateMutability": "view",
      "type": "function",
      "constant": true
    },
    {
      "inputs": [
        {
          "internalType": "address",
          "name": "",
          "type": "address"
        },
        {
          "internalType": "uint256",
          "name": "",
          "type": "uint256"
        }
      ],
      "name": "planterTrees",
      "outputs": [
        {
          "internalType": "uint256",
          "name": "",
          "type": "uint256"
        }
      ],
      "stateMutability": "view",
      "type": "function",
      "constant": true
    },
    {
      "inputs": [],
      "name": "plantersFund",
      "outputs": [
        {
          "internalType": "uint256",
          "name": "",
          "type": "uint256"
        }
      ],
      "stateMutability": "view",
      "type": "function",
      "constant": true
    },
    {
      "inputs": [],
      "name": "plantersPercentage",
      "outputs": [
        {
          "internalType": "uint16",
          "name": "",
          "type": "uint16"
        }
      ],
      "stateMutability": "view",
      "type": "function",
      "constant": true
    },
    {
      "inputs": [],
      "name": "price",
      "outputs": [
        {
          "internalType": "uint256",
          "name": "",
          "type": "uint256"
        }
      ],
      "stateMutability": "view",
      "type": "function",
      "constant": true
    },
    {
      "inputs": [],
      "name": "rescueFund",
      "outputs": [
        {
          "internalType": "uint256",
          "name": "",
          "type": "uint256"
        }
      ],
      "stateMutability": "view",
      "type": "function",
      "constant": true
    },
    {
      "inputs": [],
      "name": "rescueFundPercentage",
      "outputs": [
        {
          "internalType": "uint16",
          "name": "",
          "type": "uint16"
        }
      ],
      "stateMutability": "view",
      "type": "function",
      "constant": true
    },
    {
      "inputs": [],
      "name": "researchFund",
      "outputs": [
        {
          "internalType": "uint256",
          "name": "",
          "type": "uint256"
        }
      ],
      "stateMutability": "view",
      "type": "function",
      "constant": true
    },
    {
      "inputs": [],
      "name": "researchFundPercentage",
      "outputs": [
        {
          "internalType": "uint16",
          "name": "",
          "type": "uint16"
        }
      ],
      "stateMutability": "view",
      "type": "function",
      "constant": true
    },
    {
      "inputs": [
        {
          "internalType": "uint256",
          "name": "",
          "type": "uint256"
        }
      ],
      "name": "treeToAmbassadorBalancePerSecond",
      "outputs": [
        {
          "internalType": "uint256",
          "name": "",
          "type": "uint256"
        }
      ],
      "stateMutability": "view",
      "type": "function",
      "constant": true
    },
    {
      "inputs": [
        {
          "internalType": "uint256",
          "name": "",
          "type": "uint256"
        }
      ],
      "name": "treeToAmbassadorRemainingBalance",
      "outputs": [
        {
          "internalType": "uint256",
          "name": "",
          "type": "uint256"
        }
      ],
      "stateMutability": "view",
      "type": "function",
      "constant": true
    },
    {
      "inputs": [
        {
          "internalType": "uint256",
          "name": "",
          "type": "uint256"
        }
      ],
      "name": "treeToGB",
      "outputs": [
        {
          "internalType": "uint256",
          "name": "",
          "type": "uint256"
        }
      ],
      "stateMutability": "view",
      "type": "function",
      "constant": true
    },
    {
      "inputs": [
        {
          "internalType": "uint256",
          "name": "",
          "type": "uint256"
        }
      ],
      "name": "treeToPlanter",
      "outputs": [
        {
          "internalType": "address",
          "name": "",
          "type": "address"
        }
      ],
      "stateMutability": "view",
      "type": "function",
      "constant": true
    },
    {
      "inputs": [
        {
          "internalType": "uint256",
          "name": "",
          "type": "uint256"
        }
      ],
      "name": "treeToPlanterBalancePerSecond",
      "outputs": [
        {
          "internalType": "uint256",
          "name": "",
          "type": "uint256"
        }
      ],
      "stateMutability": "view",
      "type": "function",
      "constant": true
    },
    {
      "inputs": [
        {
          "internalType": "uint256",
          "name": "",
          "type": "uint256"
        }
      ],
      "name": "treeToPlanterRemainingBalance",
      "outputs": [
        {
          "internalType": "uint256",
          "name": "",
          "type": "uint256"
        }
      ],
      "stateMutability": "view",
      "type": "function",
      "constant": true
    },
    {
      "inputs": [
        {
          "internalType": "uint256",
          "name": "",
          "type": "uint256"
        }
      ],
      "name": "treeToType",
      "outputs": [
        {
          "internalType": "uint8",
          "name": "",
          "type": "uint8"
        }
      ],
      "stateMutability": "view",
      "type": "function",
      "constant": true
    },
    {
      "inputs": [],
      "name": "treeToken",
      "outputs": [
        {
          "internalType": "contract ITree",
          "name": "",
          "type": "address"
        }
      ],
      "stateMutability": "view",
      "type": "function",
      "constant": true
    },
    {
      "inputs": [],
      "name": "treejerFund",
      "outputs": [
        {
          "internalType": "uint256",
          "name": "",
          "type": "uint256"
        }
      ],
      "stateMutability": "view",
      "type": "function",
      "constant": true
    },
    {
      "inputs": [],
      "name": "treejerPercentage",
      "outputs": [
        {
          "internalType": "uint16",
          "name": "",
          "type": "uint16"
        }
      ],
      "stateMutability": "view",
      "type": "function",
      "constant": true
    },
    {
      "inputs": [
        {
          "internalType": "uint256",
          "name": "",
          "type": "uint256"
        }
      ],
      "name": "trees",
      "outputs": [
        {
          "internalType": "string",
          "name": "latitude",
          "type": "string"
        },
        {
          "internalType": "string",
          "name": "longitude",
          "type": "string"
        },
        {
          "internalType": "uint256",
          "name": "plantedDate",
          "type": "uint256"
        },
        {
          "internalType": "uint256",
          "name": "birthDate",
          "type": "uint256"
        },
        {
          "internalType": "uint256",
          "name": "fundedDate",
          "type": "uint256"
        },
        {
          "internalType": "uint8",
          "name": "height",
          "type": "uint8"
        },
        {
          "internalType": "uint8",
          "name": "diameter",
          "type": "uint8"
        }
      ],
      "stateMutability": "view",
      "type": "function",
      "constant": true
    },
    {
      "inputs": [],
      "name": "trustedForwarder",
      "outputs": [
        {
          "internalType": "address",
          "name": "",
          "type": "address"
        }
      ],
      "stateMutability": "view",
      "type": "function",
      "constant": true
    },
    {
      "inputs": [
        {
          "internalType": "uint256",
          "name": "",
          "type": "uint256"
        }
      ],
      "name": "typeTreeCount",
      "outputs": [
        {
          "internalType": "uint256",
          "name": "",
          "type": "uint256"
        }
      ],
      "stateMutability": "view",
      "type": "function",
      "constant": true
    },
    {
      "inputs": [
        {
          "internalType": "uint256",
          "name": "",
          "type": "uint256"
        },
        {
          "internalType": "uint256",
          "name": "",
          "type": "uint256"
        }
      ],
      "name": "typeTrees",
      "outputs": [
        {
          "internalType": "uint256",
          "name": "",
          "type": "uint256"
        }
      ],
      "stateMutability": "view",
      "type": "function",
      "constant": true
    },
    {
      "inputs": [],
      "name": "updateFactory",
      "outputs": [
        {
          "internalType": "contract IUpdateFactory",
          "name": "",
          "type": "address"
        }
      ],
      "stateMutability": "view",
      "type": "function",
      "constant": true
    },
    {
      "inputs": [
        {
          "internalType": "uint256",
          "name": "",
          "type": "uint256"
        }
      ],
      "name": "updateToAmbassadorBalanceWithdrawn",
      "outputs": [
        {
          "internalType": "bool",
          "name": "",
          "type": "bool"
        }
      ],
      "stateMutability": "view",
      "type": "function",
      "constant": true
    },
    {
      "inputs": [
        {
          "internalType": "uint256",
          "name": "",
          "type": "uint256"
        }
      ],
      "name": "updateToPlanterBalanceWithdrawn",
      "outputs": [
        {
          "internalType": "bool",
          "name": "",
          "type": "bool"
        }
      ],
      "stateMutability": "view",
      "type": "function",
      "constant": true
    },
    {
      "inputs": [],
      "name": "versionRecipient",
      "outputs": [
        {
          "internalType": "string",
          "name": "",
          "type": "string"
        }
      ],
      "stateMutability": "view",
      "type": "function",
      "constant": true
    },
    {
      "inputs": [
        {
          "internalType": "address",
          "name": "_accessRestrictionAddress",
          "type": "address"
        }
      ],
      "name": "initialize",
      "outputs": [],
      "stateMutability": "nonpayable",
      "type": "function"
    },
    {
      "inputs": [
        {
          "internalType": "address",
          "name": "_address",
          "type": "address"
        }
      ],
      "name": "setTrustedForwarder",
      "outputs": [],
      "stateMutability": "nonpayable",
      "type": "function"
    },
    {
      "inputs": [
        {
          "internalType": "address",
          "name": "_address",
          "type": "address"
        }
      ],
      "name": "setGBFactoryAddress",
      "outputs": [],
      "stateMutability": "nonpayable",
      "type": "function"
    },
    {
      "inputs": [
        {
          "internalType": "address",
          "name": "_address",
          "type": "address"
        }
      ],
      "name": "setUpdateFactoryAddress",
      "outputs": [],
      "stateMutability": "nonpayable",
      "type": "function"
    },
    {
      "inputs": [
        {
          "internalType": "address",
          "name": "_address",
          "type": "address"
        }
      ],
      "name": "setTreeTokenAddress",
      "outputs": [],
      "stateMutability": "nonpayable",
      "type": "function"
    },
    {
      "inputs": [
        {
          "internalType": "uint8",
          "name": "_typeId",
          "type": "uint8"
        },
        {
          "internalType": "string[]",
          "name": "_stringParams",
          "type": "string[]"
        },
        {
          "internalType": "uint8[]",
          "name": "_uintParams",
          "type": "uint8[]"
        }
      ],
      "name": "plant",
      "outputs": [],
      "stateMutability": "nonpayable",
      "type": "function"
    },
    {
      "inputs": [
        {
          "internalType": "uint256",
          "name": "_price",
          "type": "uint256"
        }
      ],
      "name": "setPrice",
      "outputs": [],
      "stateMutability": "nonpayable",
      "type": "function"
    },
    {
      "inputs": [
        {
          "internalType": "uint256",
          "name": "_count",
          "type": "uint256"
        }
      ],
      "name": "fund",
      "outputs": [],
      "stateMutability": "payable",
      "type": "function",
      "payable": true
    },
    {
      "inputs": [
        {
          "internalType": "address payable",
          "name": "_to",
          "type": "address"
        },
        {
          "internalType": "uint256",
          "name": "_amount",
          "type": "uint256"
        }
      ],
      "name": "withdrawTreejerFund",
      "outputs": [],
      "stateMutability": "nonpayable",
      "type": "function"
    },
    {
      "inputs": [
        {
          "internalType": "address payable",
          "name": "_to",
          "type": "address"
        },
        {
          "internalType": "uint256",
          "name": "_amount",
          "type": "uint256"
        }
      ],
      "name": "withdrawLocalDevelopmentFund",
      "outputs": [],
      "stateMutability": "nonpayable",
      "type": "function"
    },
    {
      "inputs": [
        {
          "internalType": "address payable",
          "name": "_to",
          "type": "address"
        },
        {
          "internalType": "uint256",
          "name": "_amount",
          "type": "uint256"
        }
      ],
      "name": "withdrawRescueFund",
      "outputs": [],
      "stateMutability": "nonpayable",
      "type": "function"
    },
    {
      "inputs": [
        {
          "internalType": "address payable",
          "name": "_to",
          "type": "address"
        },
        {
          "internalType": "uint256",
          "name": "_amount",
          "type": "uint256"
        }
      ],
      "name": "withdrawResearchFund",
      "outputs": [],
      "stateMutability": "nonpayable",
      "type": "function"
    },
    {
      "inputs": [],
      "name": "withdrawPlanterBalance",
      "outputs": [],
      "stateMutability": "nonpayable",
      "type": "function"
    },
    {
      "inputs": [],
      "name": "withdrawAmbassadorBalance",
      "outputs": [],
      "stateMutability": "nonpayable",
      "type": "function"
    },
    {
      "inputs": [
        {
          "internalType": "uint16",
          "name": "_treejerPercentage",
          "type": "uint16"
        },
        {
          "internalType": "uint16",
          "name": "_plantersPercentage",
          "type": "uint16"
        },
        {
          "internalType": "uint16",
          "name": "_ambassadorsPercentage",
          "type": "uint16"
        },
        {
          "internalType": "uint16",
          "name": "_localDevelopmentFundPercentage",
          "type": "uint16"
        },
        {
          "internalType": "uint16",
          "name": "_rescueFundPercentage",
          "type": "uint16"
        },
        {
          "internalType": "uint16",
          "name": "_researchFundPercentage",
          "type": "uint16"
        }
      ],
      "name": "setAllPercentages",
      "outputs": [],
      "stateMutability": "nonpayable",
      "type": "function"
    },
    {
      "inputs": [
        {
          "internalType": "address",
          "name": "_account",
          "type": "address"
        }
      ],
      "name": "getPlanterWithdrawableBalance",
      "outputs": [
        {
          "internalType": "uint256",
          "name": "",
          "type": "uint256"
        }
      ],
      "stateMutability": "view",
      "type": "function",
      "constant": true
    },
    {
      "inputs": [
        {
          "internalType": "address",
          "name": "_account",
          "type": "address"
        }
      ],
      "name": "getAmbassadorWithdrawableBalance",
      "outputs": [
        {
          "internalType": "uint256",
          "name": "",
          "type": "uint256"
        }
      ],
      "stateMutability": "view",
      "type": "function",
      "constant": true
    }
  ],
  "bytecode": "0x608060405234801561001057600080fd5b50614f98806100206000396000f3fe6080604052600436106103975760003560e01c80638493b350116101dc578063bef4744511610102578063d6762c4a116100a0578063e2eefc791161006f578063e2eefc79146109f3578063ea9fd4d514610a13578063ec48a46714610a33578063f4d7935b14610a4857610397565b8063d6762c4a14610989578063da7422281461099e578063de33d9e3146109be578063e0eb4eb9146109de57610397565b8063c8fe4bec116100dc578063c8fe4bec14610914578063ca07ca1414610934578063ca1d209d14610949578063cfb2b3fe1461095c57610397565b8063bef47445146108bf578063c11496c7146108df578063c4d66de8146108f457610397565b80639fe027951161017a578063add2ff2711610149578063add2ff271461084a578063ae2e88301461086a578063b52a61be1461087f578063b53b30be1461089f57610397565b80639fe02795146107e0578063a035b1fe14610800578063a2c54d8a14610815578063a8bd11661461082a57610397565b806391b7f5ed116101b657806391b7f5ed1461077657806395dc2a3c1461079657806398f5fa3b146107ab578063997c2537146107c057610397565b80638493b35014610721578063854d0cb1146107415780638e5e698a1461075657610397565b80634bad6b37116102c15780635e8271221161025f57806376cdc2671161022e57806376cdc267146106a45780637a508022146106c45780637da0a877146106f7578063839484061461070c57610397565b80635e8271221461063a57806360cd03031461065a5780636265e0d81461067a5780636f82c7fa1461068f57610397565b8063508f657d1161029b578063508f657d146105c357806354a2d6e0146105d8578063572b6c05146105ed5780635857b1581461061a57610397565b80634bad6b37146105795780634ce958bb1461058e5780634d29546d146105ae57610397565b80632b79e73211610339578063417eb53911610308578063417eb5391461050d578063469bcafa14610522578063486ff0cd146105375780634875f9d71461055957610397565b80632b79e73214610498578063368e3daf146104b857806338f1f40f146104cd578063415d13aa146104ed57610397565b806318dfed711161037557806318dfed711461041457806319de4acd146104345780632602142a146104565780632af438e61461047857610397565b806307ff37231461039c57806311e668f4146103d257806312cc3ab0146103ff575b600080fd5b3480156103a857600080fd5b506103bc6103b7366004614669565b610a5d565b6040516103c9919061485d565b60405180910390f35b3480156103de57600080fd5b506103f26103ed3660046144bb565b610a78565b6040516103c99190614dd5565b34801561040b57600080fd5b506103bc6110b8565b34801561042057600080fd5b506103f261042f366004614669565b6110c7565b34801561044057600080fd5b5061045461044f3660046144f3565b6110d9565b005b34801561046257600080fd5b5061046b6111f1565b6040516103c99190614dc6565b34801561048457600080fd5b506104546104933660046144f3565b611203565b3480156104a457600080fd5b506103f26104b3366004614669565b6112f7565b3480156104c457600080fd5b506103f2611309565b3480156104d957600080fd5b506104546104e83660046144bb565b61130f565b3480156104f957600080fd5b506104546105083660046144bb565b611416565b34801561051957600080fd5b506103f261151d565b34801561052e57600080fd5b5061046b611523565b34801561054357600080fd5b5061054c611534565b6040516103c991906148dc565b34801561056557600080fd5b506103f2610574366004614669565b611554565b34801561058557600080fd5b506103f2611566565b34801561059a57600080fd5b506103f26105a936600461451e565b61156c565b3480156105ba57600080fd5b5061046b61159a565b3480156105cf57600080fd5b506103f26115ab565b3480156105e457600080fd5b506103f26115b1565b3480156105f957600080fd5b5061060d6106083660046144bb565b6115b7565b6040516103c991906148d1565b34801561062657600080fd5b506103f26106353660046144bb565b6115d1565b34801561064657600080fd5b506103f2610655366004614669565b611a91565b34801561066657600080fd5b506103f2610675366004614669565b611aa3565b34801561068657600080fd5b506103bc611ab5565b34801561069b57600080fd5b506103f2611ac4565b3480156106b057600080fd5b506103f26106bf36600461474c565b611aca565b3480156106d057600080fd5b506106e46106df366004614669565b611ae3565b6040516103c997969594939291906148ef565b34801561070357600080fd5b506103bc611c56565b34801561071857600080fd5b506103f2611c6b565b34801561072d57600080fd5b506103f261073c3660046144bb565b611c71565b34801561074d57600080fd5b5061046b611c83565b34801561076257600080fd5b506104546107713660046144f3565b611c93565b34801561078257600080fd5b50610454610791366004614669565b611d87565b3480156107a257600080fd5b506103f2611e2c565b3480156107b757600080fd5b506103bc611e32565b3480156107cc57600080fd5b506104546107db366004614788565b611e41565b3480156107ec57600080fd5b506103f26107fb366004614669565b61265f565b34801561080c57600080fd5b506103f2612671565b34801561082157600080fd5b5061046b612677565b34801561083657600080fd5b506103f2610845366004614669565b612681565b34801561085657600080fd5b5061060d610865366004614669565b612693565b34801561087657600080fd5b506103f26126a8565b34801561088b57600080fd5b506103f261089a366004614669565b6126ae565b3480156108ab57600080fd5b5061060d6108ba366004614669565b6126c0565b3480156108cb57600080fd5b506104546108da3660046144bb565b6126d5565b3480156108eb57600080fd5b506104546127dc565b34801561090057600080fd5b5061045461090f3660046144bb565b612dc0565b34801561092057600080fd5b5061045461092f3660046144f3565b612f61565b34801561094057600080fd5b5061046b613055565b610454610957366004614669565b613066565b34801561096857600080fd5b5061097c610977366004614669565b613261565b6040516103c99190614e6e565b34801561099557600080fd5b506103bc613276565b3480156109aa57600080fd5b506104546109b93660046144bb565b613285565b3480156109ca57600080fd5b506104546109d93660046145e8565b613315565b3480156109ea57600080fd5b5061060d61346b565b3480156109ff57600080fd5b506103f2610a0e36600461474c565b61347b565b348015610a1f57600080fd5b506103f2610a2e366004614669565b613494565b348015610a3f57600080fd5b506103f26134a6565b348015610a5457600080fd5b506104546134ac565b600b602052600090815260409020546001600160a01b031681565b601f5460405163dac4d45360e01b81526000916001600160a01b03169063dac4d45390610aa990859060040161485d565b60006040518083038186803b158015610ac157600080fd5b505afa158015610ad5573d6000803e3d6000fd5b505060205460405163211d238360e01b8152600093506001600160a01b03909116915063211d238390610b0c90869060040161485d565b60206040518083038186803b158015610b2457600080fd5b505afa158015610b38573d6000803e3d6000fd5b505050506040513d601f19601f82011682018060405250810190610b5c9190614681565b905080610b6d5760009150506110b3565b6020546040516322d8a98960e11b81526060916001600160a01b0316906345b1531290610b9e90879060040161485d565b60006040518083038186803b158015610bb657600080fd5b505afa158015610bca573d6000803e3d6000fd5b505050506040513d6000823e601f3d908101601f19168201604052610bf29190810190614530565b90506000805b838110156110ad576000838281518110610c0e57fe5b602002602001015190506000600f60008381526020019081526020016000205490508060001415610c405750506110a5565b600082815260106020908152604091829020805483518184028101840190945280845260609392830182828015610c9657602002820191906000526020600020905b815481526020019060010190808311610c82575b50939450600093505050505b828110156110a0576000828281518110610cb857fe5b60209081029190910101516021546040516313e7cb0960e31b81529192506060916001600160a01b0390911690639f3e584890610cf9908590600401614dd5565b60006040518083038186803b158015610d1157600080fd5b505afa158015610d25573d6000803e3d6000fd5b505050506040513d6000823e601f3d908101601f19168201604052610d4d9190810190614530565b60008381526014602052604081205491925090610d6c57505050611098565b8151610d7a57505050611098565b602154604051632cb1c8cb60e21b8152601e916000916001600160a01b039091169063b2c7232c90610db0908890600401614dd5565b60206040518083038186803b158015610dc857600080fd5b505afa158015610ddc573d6000803e3d6000fd5b505050506040513d601f19601f82011682018060405250810190610e009190614681565b815260208101919091526040016000205460ff16151560011415610e2657505050611098565b81515b801561105a576000836001830381518110610e4057fe5b602090810291909101015160215460405163b4c2f72760e01b815291925060009182916001600160a01b03169063b4c2f72790610e81908690600401614dd5565b60006040518083038186803b158015610e9957600080fd5b505afa158015610ead573d6000803e3d6000fd5b505050506040513d6000823e601f3d908101601f19168201604052610ed59190810190614699565b9350935050508015156001151514610eef57505050611051565b6000838152601e602052604090205460ff16151560011415610f1357505050611051565b6001841115611009576000866002860381518110610f2d57fe5b602090810291909101015160215460405163b4c2f72760e01b815291925060009182916001600160a01b03169063b4c2f72790610f6e908690600401614dd5565b60006040518083038186803b158015610f8657600080fd5b505afa158015610f9a573d6000803e3d6000fd5b505050506040513d6000823e601f3d908101601f19168201604052610fc29190810190614699565b9350935050508015156001151514610fdf57505050505050611051565b610fff610ff2868463ffffffff613ba116565b899063ffffffff613bec16565b975050505061104d565b61104a61103d6001898154811061101c57fe5b90600052602060002090600602016002015484613ba190919063ffffffff16565b869063ffffffff613bec16565b94505b5050505b60001901610e29565b5080156110945760008381526015602052604090205461109190611084908363ffffffff613c1116565b8a9063ffffffff613bec16565b98505b5050505b600101610ca2565b505050505b600101610bf8565b50925050505b919050565b6022546001600160a01b031681565b60036020526000908152604090205481565b601f546001600160a01b0316638413ec146110f2613c4b565b6040518263ffffffff1660e01b815260040161110e919061485d565b60006040518083038186803b15801561112657600080fd5b505afa15801561113a573d6000803e3d6000fd5b505050506000601b54116111695760405162461bcd60e51b815260040161116090614d8f565b60405180910390fd5b601b5481111561118b5760405162461bcd60e51b81526004016111609061498a565b601b5461119e908263ffffffff613ba116565b601b556111ab8282613c7d565b7f62d04bd016f8ff3d3bc5ddf54b8d0b5467875aa297e4fe86497eaf5a19c9319182826111d6613c4b565b6040516111e59392919061488a565b60405180910390a15050565b601654640100000000900461ffff1681565b601f546001600160a01b0316638413ec1461121c613c4b565b6040518263ffffffff1660e01b8152600401611238919061485d565b60006040518083038186803b15801561125057600080fd5b505afa158015611264573d6000803e3d6000fd5b505050506000601c541161128a5760405162461bcd60e51b815260040161116090614bf5565b601c548111156112ac5760405162461bcd60e51b815260040161116090614bc5565b601c546112bf908263ffffffff613ba116565b601c556112cc8282613c7d565b7f6187d97d4269f9fbc5bbf5236356e532fd1663f4b499ddde1fb1f363dd1b355282826111d6613c4b565b600f6020526000908152604090205481565b601c5481565b601f546001600160a01b0316638413ec14611328613c4b565b6040518263ffffffff1660e01b8152600401611344919061485d565b60006040518083038186803b15801561135c57600080fd5b505afa158015611370573d6000803e3d6000fd5b505050506000819050806001600160a01b03166337b9fd776040518163ffffffff1660e01b815260040160206040518083038186803b1580156113b257600080fd5b505afa1580156113c6573d6000803e3d6000fd5b505050506040513d601f19601f820116820180604052508101906113ea91906145c8565b6113f357600080fd5b602280546001600160a01b0319166001600160a01b039290921691909117905550565b601f546001600160a01b0316638413ec1461142f613c4b565b6040518263ffffffff1660e01b815260040161144b919061485d565b60006040518083038186803b15801561146357600080fd5b505afa158015611477573d6000803e3d6000fd5b505050506000819050806001600160a01b0316634cff2b0f6040518163ffffffff1660e01b815260040160206040518083038186803b1580156114b957600080fd5b505afa1580156114cd573d6000803e3d6000fd5b505050506040513d601f19601f820116820180604052508101906114f191906145c8565b6114fa57600080fd5b602080546001600160a01b0319166001600160a01b039290921691909117905550565b60045481565b601654600160301b900461ffff1681565b6040805180820190915260058152640322e302e360dc1b60208201525b90565b60146020526000908152604090205481565b60055481565b600d602052816000526040600020818154811061158557fe5b90600052602060002001600091509150505481565b601654600160401b900461ffff1681565b601b5481565b60185481565b6000546201000090046001600160a01b0390811691161490565b601f54604051636dc1ccab60e01b81526000916001600160a01b031690636dc1ccab9061160290859060040161485d565b60006040518083038186803b15801561161a57600080fd5b505afa15801561162e573d6000803e3d6000fd5b505050506001600160a01b0382166000908152600c60205260409020548061165a5760009150506110b3565b6001600160a01b0383166000908152600d6020908152604080832080548251818502810185019093528083526060938301828280156116b857602002820191906000526020600020905b8154815260200190600101908083116116a4575b50939450600093505050505b83811015611a875760008282815181106116da57fe5b60209081029190910101516021546040516313e7cb0960e31b81529192506060916001600160a01b0390911690639f3e58489061171b908590600401614dd5565b60006040518083038186803b15801561173357600080fd5b505afa158015611747573d6000803e3d6000fd5b505050506040513d6000823e601f3d908101601f1916820160405261176f9190810190614530565b6000838152601260205260408120549192509061178e57505050611a7f565b815161179c57505050611a7f565b602154604051632cb1c8cb60e21b8152601d916000916001600160a01b039091169063b2c7232c906117d2908890600401614dd5565b60206040518083038186803b1580156117ea57600080fd5b505afa1580156117fe573d6000803e3d6000fd5b505050506040513d601f19601f820116820180604052508101906118229190614681565b815260208101919091526040016000205460ff1615156001141561184857505050611a7f565b81515b8015611a4157600083600183038151811061186257fe5b602090810291909101015160215460405163b4c2f72760e01b815291925060009182916001600160a01b03169063b4c2f727906118a3908690600401614dd5565b60006040518083038186803b1580156118bb57600080fd5b505afa1580156118cf573d6000803e3d6000fd5b505050506040513d6000823e601f3d908101601f191682016040526118f79190810190614699565b935093505050801515600115151461191157505050611a38565b6000838152601d602052604090205460ff1615156001141561193557505050611a38565b6001841115611a1e57600086600286038151811061194f57fe5b602090810291909101015160215460405163b4c2f72760e01b815291925060009182916001600160a01b03169063b4c2f72790611990908690600401614dd5565b60006040518083038186803b1580156119a857600080fd5b505afa1580156119bc573d6000803e3d6000fd5b505050506040513d6000823e601f3d908101601f191682016040526119e49190810190614699565b9350935050508015156001151514611a0157505050505050611a38565b611a14610ff2868463ffffffff613ba116565b9750505050611a34565b611a3161103d6001898154811061101c57fe5b94505b5050505b6000190161184b565b508015611a7b57600083815260136020526040902054611a7890611a6b908363ffffffff613c1116565b879063ffffffff613bec16565b95505b5050505b6001016116c4565b5090949350505050565b600a6020526000908152604090205481565b600e6020526000908152604090205481565b6020546001600160a01b031681565b60085481565b6011602052816000526040600020818154811061158557fe5b60018181548110611af057fe5b60009182526020918290206006919091020180546040805160026001841615610100026000190190931692909204601f810185900485028301850190915280825291935091839190830182828015611b895780601f10611b5e57610100808354040283529160200191611b89565b820191906000526020600020905b815481529060010190602001808311611b6c57829003601f168201915b505050505090806001018054600181600116156101000203166002900480601f016020809104026020016040519081016040528092919081815260200182805460018160011615610100020316600290048015611c275780601f10611bfc57610100808354040283529160200191611c27565b820191906000526020600020905b815481529060010190602001808311611c0a57829003601f168201915b505050506002830154600384015460048501546005909501549394919390925060ff8082169161010090041687565b6000546201000090046001600160a01b031681565b601a5481565b600c6020526000908152604090205481565b60165462010000900461ffff1681565b601f546001600160a01b0316638413ec14611cac613c4b565b6040518263ffffffff1660e01b8152600401611cc8919061485d565b60006040518083038186803b158015611ce057600080fd5b505afa158015611cf4573d6000803e3d6000fd5b505050506000601a5411611d1a5760405162461bcd60e51b815260040161116090614945565b601a54811115611d3c5760405162461bcd60e51b8152600401611160906149b8565b601a54611d4f908263ffffffff613ba116565b601a55611d5c8282613c7d565b7f12098abea4f2c45e0b3b235c35a41641fdb1070185464e9698d4482f0d805a8082826111d6613c4b565b601f546001600160a01b0316638413ec14611da0613c4b565b6040518263ffffffff1660e01b8152600401611dbc919061485d565b60006040518083038186803b158015611dd457600080fd5b505afa158015611de8573d6000803e3d6000fd5b5050506002829055506040517fa6dc15bdb68da224c66db4b3838d9a2b205138e8cff6774e57d0af91e196d62290611e21908390614dd5565b60405180910390a150565b60075481565b6021546001600160a01b031681565b601f60009054906101000a90046001600160a01b03166001600160a01b0316634d868f986040518163ffffffff1660e01b815260040160006040518083038186803b158015611e8f57600080fd5b505afa158015611ea3573d6000803e3d6000fd5b5050601f546001600160a01b03169150636dc1ccab9050611ec2613c4b565b6040518263ffffffff1660e01b8152600401611ede919061485d565b60006040518083038186803b158015611ef657600080fd5b505afa158015611f0a573d6000803e3d6000fd5b5050602054600092506001600160a01b0316905063b19f7af6611f2b613c4b565b6040518263ffffffff1660e01b8152600401611f47919061485d565b60206040518083038186803b158015611f5f57600080fd5b505afa158015611f73573d6000803e3d6000fd5b505050506040513d601f19601f82011682018060405250810190611f979190614681565b600854600754919250600091111561217e575060088054600081815260066020526040902054600191820190925586908690818110611fd257fe5b9050602002810190611fe49190614e7c565b60018381548110611ff157fe5b6000918252602090912061200b936006909202019161434b565b508585600281811061201957fe5b905060200281019061202b9190614e7c565b6001838154811061203857fe5b9060005260206000209060060201600101919061205692919061434b565b50426001828154811061206557fe5b906000526020600020906006020160020181905550426001828154811061208857fe5b906000526020600020906006020160030181905550838360008181106120aa57fe5b90506020020160208101906120bf919061476d565b600182815481106120cc57fe5b906000526020600020906006020160050160006101000a81548160ff021916908360ff1602179055508383600181811061210257fe5b9050602002016020810190612117919061476d565b6001828154811061212457fe5b906000526020600020906006020160050160016101000a81548160ff021916908360ff160217905550600660006121676001600854613ba190919063ffffffff16565b8152602001908152602001600020600090556123d9565b60016040518060e001604052808888600181811061219857fe5b90506020028101906121aa9190614e7c565b8080601f016020809104026020016040519081016040528093929190818152602001838380828437600092019190915250505090825250602001888860028181106121f157fe5b90506020028101906122039190614e7c565b8080601f01602080910402602001604051908101604052809392919081815260200183838082843760009201829052509385525050426020840181905260408401525060608201819052608090910190879087908161225e57fe5b9050602002016020810190612273919061476d565b60ff1681526020018686600181811061228857fe5b905060200201602081019061229d919061476d565b60ff169052815460018101835560009283526020928390208251805193946006909302909101926122d192849201906143c9565b5060208281015180516122ea92600185019201906143c9565b5060408201516002820155606082015160038201556080820151600482015560a08201516005909101805460c09093015160ff9081166101000261ff00199190931660ff199094169390931792909216179055600180546123509163ffffffff613ba116565b600480546000908152600360205260409020829055805460010190556022549091506001600160a01b031663a1448194612388613c4b565b836040518363ffffffff1660e01b81526004016123a6929190614871565b600060405180830381600087803b1580156123c057600080fd5b505af11580156123d4573d6000803e3d6000fd5b505050505b6060868660008181106123e857fe5b90506020028101906123fa9190614e7c565b8080601f01602080910402602001604051908101604052809392919081815260200183838082843760009201919091525050825192935050901590506124ba576022546001600160a01b031663162094c483898960008161245757fe5b90506020028101906124699190614e7c565b6040518463ffffffff1660e01b815260040161248793929190614dde565b600060405180830381600087803b1580156124a157600080fd5b505af11580156124b5573d6000803e3d6000fd5b505050505b6000828152600a60209081526040808320869055858352600f82528083208054600190810190915560108352818420805480830182559085528385200186905585845260098352818420805460ff191660ff8e169081179091558452600e835281842080548201905560118352908320805491820181558352912001829055612541613c4b565b6000838152600b6020526040812080546001600160a01b0319166001600160a01b039390931692909217909155600c90612579613c4b565b6001600160a01b031681526020810191909152604001600090812080546001019055600d906125a6613c4b565b6001600160a01b031681526020808201929092526040016000908120805460018181018355918352929091209091018390557f8f459fdbb8df0d89bfc15695769fb148c5e437248bcefd41ce8319980363ac739083908990899081811061260957fe5b905060200281019061261b9190614e7c565b8a8a600281811061262857fe5b905060200281019061263a9190614e7c565b4260405161264d96959493929190614e01565b60405180910390a15050505050505050565b60126020526000908152604090205481565b60025481565b60165461ffff1681565b60136020526000908152604090205481565b601d6020526000908152604090205460ff1681565b60195481565b60066020526000908152604090205481565b601e6020526000908152604090205460ff1681565b601f546001600160a01b0316638413ec146126ee613c4b565b6040518263ffffffff1660e01b815260040161270a919061485d565b60006040518083038186803b15801561272257600080fd5b505afa158015612736573d6000803e3d6000fd5b505050506000819050806001600160a01b031663edbe8d4e6040518163ffffffff1660e01b815260040160206040518083038186803b15801561277857600080fd5b505afa15801561278c573d6000803e3d6000fd5b505050506040513d601f19601f820116820180604052508101906127b091906145c8565b6127b957600080fd5b602180546001600160a01b0319166001600160a01b039290921691909117905550565b601f546001600160a01b0316636dc1ccab6127f5613c4b565b6040518263ffffffff1660e01b8152600401612811919061485d565b60006040518083038186803b15801561282957600080fd5b505afa15801561283d573d6000803e3d6000fd5b505050506000600c600061284f613c4b565b6001600160a01b03166001600160a01b03168152602001908152602001600020549050600081116128925760405162461bcd60e51b815260040161116090614ca9565b60006060600d826128a1613c4b565b6001600160a01b03166001600160a01b0316815260200190815260200160002080548060200260200160405190810160405280929190818152602001828054801561290b57602002820191906000526020600020905b8154815260200190600101908083116128f7575b50939450600093505050505b83811015612d3357600082828151811061292d57fe5b60209081029190910101516021546040516313e7cb0960e31b81529192506060916001600160a01b0390911690639f3e58489061296e908590600401614dd5565b60006040518083038186803b15801561298657600080fd5b505afa15801561299a573d6000803e3d6000fd5b505050506040513d6000823e601f3d908101601f191682016040526129c29190810190614530565b600083815260126020526040812054919250906129e157505050612d2b565b81516129ef57505050612d2b565b602154604051632cb1c8cb60e21b8152601d916000916001600160a01b039091169063b2c7232c90612a25908890600401614dd5565b60206040518083038186803b158015612a3d57600080fd5b505afa158015612a51573d6000803e3d6000fd5b505050506040513d601f19601f82011682018060405250810190612a759190614681565b815260208101919091526040016000205460ff16151560011415612a9b57505050612d2b565b81515b8015612cac576000836001830381518110612ab557fe5b602090810291909101015160215460405163b4c2f72760e01b815291925060009182916001600160a01b03169063b4c2f72790612af6908690600401614dd5565b60006040518083038186803b158015612b0e57600080fd5b505afa158015612b22573d6000803e3d6000fd5b505050506040513d6000823e601f3d908101601f19168201604052612b4a9190810190614699565b9350935050508015156001151514612b6457505050612ca3565b6000838152601d602052604090205460ff16151560011415612b8857505050612ca3565b6001841115612c71576000866002860381518110612ba257fe5b602090810291909101015160215460405163b4c2f72760e01b815291925060009182916001600160a01b03169063b4c2f72790612be3908690600401614dd5565b60006040518083038186803b158015612bfb57600080fd5b505afa158015612c0f573d6000803e3d6000fd5b505050506040513d6000823e601f3d908101601f19168201604052612c379190810190614699565b9350935050508015156001151514612c5457505050505050612ca3565b612c67610ff2868463ffffffff613ba116565b9750505050612c87565b612c8461103d6001898154811061101c57fe5b94505b50506000908152601d60205260409020805460ff191660011790555b60001901612a9e565b508015612d2757600083815260136020526040902054612cd690611a6b908363ffffffff613c1116565b600084815260136020526040902054909650612d1790612cfc908363ffffffff613c1116565b6000858152601260205260409020549063ffffffff613ba116565b6000848152601260205260409020555b5050505b600101612917565b5060008211612d545760405162461bcd60e51b815260040161116090614d58565b601854612d67908363ffffffff613ba116565b601855612d7b612d75613c4b565b83613c7d565b7f904f6efa098ad71916df8db0841744bccf6de28374ac90cef4b36b9d8a35e445612da4613c4b565b83604051612db3929190614871565b60405180910390a1505050565b600054610100900460ff1680612dd95750612dd9613d19565b80612de7575060005460ff16155b612e035760405162461bcd60e51b815260040161116090614c5b565b600054610100900460ff16158015612e2e576000805460ff1961ff0019909116610100171660011790555b6000805460ff60b01b1916600160b01b1790556040805163ba84fd6960e01b8152905183916001600160a01b0383169163ba84fd6991600480820192602092909190829003018186803b158015612e8457600080fd5b505afa158015612e98573d6000803e3d6000fd5b505050506040513d601f19601f82011682018060405250810190612ebc91906145c8565b612ec557600080fd5b601f80546001600160a01b0319166001600160a01b0392909216919091179055601680546109c461ffff199091161763ffff00001916630fa000001765ffff0000000019166501f4000000001767ffff00000000000019166705dc0000000000001761ffff60401b19166903e800000000000000001761ffff60501b1916607d60521b1790558015612f5d576000805461ff00191690555b5050565b601f546001600160a01b0316638413ec14612f7a613c4b565b6040518263ffffffff1660e01b8152600401612f96919061485d565b60006040518083038186803b158015612fae57600080fd5b505afa158015612fc2573d6000803e3d6000fd5b50505050600060175411612fe85760405162461bcd60e51b815260040161116090614afa565b60175481111561300a5760405162461bcd60e51b815260040161116090614c2c565b60175461301d908263ffffffff613ba116565b60175561302a8282613c7d565b7f83d711958340e227f2f6a07692120dac5303cd6c43aefe818dccd5a741fe756a82826111d6613c4b565b601654600160501b900461ffff1681565b6000613078348363ffffffff613d1f16565b905060025481101561309c5760405162461bcd60e51b8152600401611160906149ef565b60005b828160ff16101561325c5760165460009081906130c69062010000900461ffff1685613d61565b600554600454919250600091829110156131dc57600554600090815260036020908152604080832054808452600a83528184205492549151636b78fcb560e11b81529097509192916001600160a01b039091169063d6f1f96a9061312e908590600401614dd5565b60206040518083038186803b15801561314657600080fd5b505afa15801561315a573d6000803e3d6000fd5b505050506040513d601f19601f8201168201806040525081019061317e91906144d7565b90506001600160a01b038116156131af57601654600193506131ac90640100000000900461ffff1689613d61565b93505b6131d36131ba613c4b565b866131c488613ddd565b876131ce89613ddd565b613e00565b955050506131fc565b6131f96131e7613c4b565b846131f186613ddd565b600080613fbe565b93505b61320686826141a9565b7f9681ab8e09ad40146a520b55501382d4b0ab62944580202d102da0fcf505355584848489613233613c4b565b604051613244959493929190614e42565b60405180910390a150506001909201915061309f9050565b505050565b60096020526000908152604090205460ff1681565b601f546001600160a01b031681565b601f546001600160a01b0316638413ec1461329e613c4b565b6040518263ffffffff1660e01b81526004016132ba919061485d565b60006040518083038186803b1580156132d257600080fd5b505afa1580156132e6573d6000803e3d6000fd5b5050600080546001600160a01b03909416620100000262010000600160b01b0319909416939093179092555050565b601f546001600160a01b0316638413ec1461332e613c4b565b6040518263ffffffff1660e01b815260040161334a919061485d565b60006040518083038186803b15801561336257600080fd5b505afa158015613376573d6000803e3d6000fd5b505050506133c18161ffff166133b58461ffff166133b58761ffff166133b58a61ffff166133b58d61ffff168f61ffff16613bec90919063ffffffff16565b9063ffffffff613bec16565b612710146133e15760405162461bcd60e51b815260040161116090614a26565b6016805461ffff191661ffff9788161763ffff0000191662010000968816969096029590951765ffff000000001916640100000000948716949094029390931767ffff0000000000001916600160301b928616929092029190911761ffff60401b1916600160401b918516919091021761ffff60501b1916600160501b9190931602919091179055565b600054600160b01b900460ff1681565b6010602052816000526040600020818154811061158557fe5b60156020526000908152604090205481565b60175481565b601f546001600160a01b031663dac4d4536134c5613c4b565b6040518263ffffffff1660e01b81526004016134e1919061485d565b60006040518083038186803b1580156134f957600080fd5b505afa15801561350d573d6000803e3d6000fd5b5050602054600092506001600160a01b0316905063211d238361352e613c4b565b6040518263ffffffff1660e01b815260040161354a919061485d565b60206040518083038186803b15801561356257600080fd5b505afa158015613576573d6000803e3d6000fd5b505050506040513d601f19601f8201168201806040525081019061359a9190614681565b9050600081116135bc5760405162461bcd60e51b815260040161116090614ac3565b6020546060906001600160a01b03166345b153126135d8613c4b565b6040518263ffffffff1660e01b81526004016135f4919061485d565b60006040518083038186803b15801561360c57600080fd5b505afa158015613620573d6000803e3d6000fd5b505050506040513d6000823e601f3d908101601f191682016040526136489190810190614530565b90506000805b83811015613b2157600083828151811061366457fe5b602002602001015190506000600f60008381526020019081526020016000205490508060001415613696575050613b19565b6000828152601060209081526040918290208054835181840281018401909452808452606093928301828280156136ec57602002820191906000526020600020905b8154815260200190600101908083116136d8575b50939450600093505050505b82811015613b1457600082828151811061370e57fe5b60209081029190910101516021546040516313e7cb0960e31b81529192506060916001600160a01b0390911690639f3e58489061374f908590600401614dd5565b60006040518083038186803b15801561376757600080fd5b505afa15801561377b573d6000803e3d6000fd5b505050506040513d6000823e601f3d908101601f191682016040526137a39190810190614530565b600083815260146020526040812054919250906137c257505050613b0c565b81516137d057505050613b0c565b602154604051632cb1c8cb60e21b8152601e916000916001600160a01b039091169063b2c7232c90613806908890600401614dd5565b60206040518083038186803b15801561381e57600080fd5b505afa158015613832573d6000803e3d6000fd5b505050506040513d601f19601f820116820180604052508101906138569190614681565b815260208101919091526040016000205460ff1615156001141561387c57505050613b0c565b81515b8015613a8d57600083600183038151811061389657fe5b602090810291909101015160215460405163b4c2f72760e01b815291925060009182916001600160a01b03169063b4c2f727906138d7908690600401614dd5565b60006040518083038186803b1580156138ef57600080fd5b505afa158015613903573d6000803e3d6000fd5b505050506040513d6000823e601f3d908101601f1916820160405261392b9190810190614699565b935093505050801515600115151461394557505050613a84565b6000838152601e602052604090205460ff1615156001141561396957505050613a84565b6001841115613a5257600086600286038151811061398357fe5b602090810291909101015160215460405163b4c2f72760e01b815291925060009182916001600160a01b03169063b4c2f727906139c4908690600401614dd5565b60006040518083038186803b1580156139dc57600080fd5b505afa1580156139f0573d6000803e3d6000fd5b505050506040513d6000823e601f3d908101601f19168201604052613a189190810190614699565b9350935050508015156001151514613a3557505050505050613a84565b613a48610ff2868463ffffffff613ba116565b9750505050613a68565b613a6561103d6001898154811061101c57fe5b94505b50506000908152601e60205260409020805460ff191660011790555b6000190161387f565b508015613b0857600083815260156020526040902054613ab790611084908363ffffffff613c1116565b600084815260156020526040902054909950613af890613add908363ffffffff613c1116565b6000858152601460205260409020549063ffffffff613ba116565b6000848152601460205260409020555b5050505b6001016136f8565b505050505b60010161364e565b5060008111613b425760405162461bcd60e51b815260040161116090614d58565b601954613b55908263ffffffff613ba116565b601955613b69613b63613c4b565b82613c7d565b7f46d3ec67d736e34f6c5652d7a86f6aaab1a156c42c2bffa6adb8cb78f1252043613b92613c4b565b82604051612db3929190614871565b6000613be383836040518060400160405280601e81526020017f536166654d6174683a207375627472616374696f6e206f766572666c6f7700008152506142e8565b90505b92915050565b600082820183811015613be35760405162461bcd60e51b815260040161116090614a8c565b600082613c2057506000613be6565b82820282848281613c2d57fe5b0414613be35760405162461bcd60e51b815260040161116090614ce0565b600060183610801590613c625750613c62336115b7565b15613c76575060131936013560601c611551565b5033611551565b80471015613c9d5760405162461bcd60e51b815260040161116090614b8e565b6000826001600160a01b031682604051613cb690611551565b60006040518083038185875af1925050503d8060008114613cf3576040519150601f19603f3d011682016040523d82523d6000602084013e613cf8565b606091505b505090508061325c5760405162461bcd60e51b815260040161116090614b31565b303b1590565b6000613be383836040518060400160405280601a81526020017f536166654d6174683a206469766973696f6e206279207a65726f000000000000815250614314565b6000821580613d6e575081155b15613d7b57506000613be6565b81613d9e612710613d92838263ffffffff613d1f16565b9063ffffffff613c1116565b14613dbb5760405162461bcd60e51b815260040161116090614a69565b613be3612710613dd1848663ffffffff613c1116565b9063ffffffff613d1f16565b600081613dec575060006110b3565b613be6826305a39a8063ffffffff613d1f16565b600060055460045411613e255760405162461bcd60e51b815260040161116090614d21565b600580546000818152600360205260409020546001918201909255805442919083908110613e4f57fe5b60009182526020909120600460069092020101558515613e88576000818152601260209081526040808320899055601390915290208590555b8315613ead576000818152601460209081526040808320879055601590915290208390555b6022546040516331a9108f60e11b81526001600160a01b039091169063b9b7be5b908290636352211e90613ee5908690600401614dd5565b60206040518083038186803b158015613efd57600080fd5b505afa158015613f11573d6000803e3d6000fd5b505050506040513d601f19601f82011682018060405250810190613f3591906144d7565b89846040518463ffffffff1660e01b8152600401613f55939291906148ad565b600060405180830381600087803b158015613f6f57600080fd5b505af1158015613f83573d6000803e3d6000fd5b5050505060036000613fa16001600554613ba190919063ffffffff16565b815260208101919091526040016000908120559695505050505050565b6040805161010081018252600060e082018181528252825160208181018552828252808401919091529282018190526060820181905242608083015260a0820181905260c0820181905260018054808201825590825282518051929460069092027fb10e2d527612073b26eecdfd717e6a320cf44b4afac2b0732d9fcbe2b7fa0cf6019261404f92849201906143c9565b50602082810151805161406892600185019201906143c9565b5060408201516002820155606082015160038201556080820151600482015560a08201516005909101805460c09093015160ff9081166101000261ff00199190931660ff199094169390931792909216179055600180546000916140d2919063ffffffff613ba116565b6007805460009081526006602052604090208290558054600101905590508515614115576000818152601260209081526040808320899055601390915290208590555b831561413a576000818152601460209081526040808320879055601590915290208390555b602254604051632851206560e21b81526001600160a01b039091169063a14481949061416c908a908590600401614871565b600060405180830381600087803b15801561418657600080fd5b505af115801561419a573d6000803e3d6000fd5b50929998505050505050505050565b60165460009081906141c690600160301b900461ffff1685613d61565b9050600183151514156141f3576016546141ec90640100000000900461ffff1685613d61565b9150614206565b614203818363ffffffff613bec16565b90505b60165461422a9061421b9061ffff1686613d61565b6017549063ffffffff613bec16565b601755601654614257906142489062010000900461ffff1686613d61565b6018549063ffffffff613bec16565b60185560195461426d908363ffffffff613bec16565b601955601a54614283908263ffffffff613bec16565b601a556016546142b1906142a290600160401b900461ffff1686613d61565b601b549063ffffffff613bec16565b601b556016546142df906142d090600160501b900461ffff1686613d61565b601c549063ffffffff613bec16565b601c5550505050565b6000818484111561430c5760405162461bcd60e51b815260040161116091906148dc565b505050900390565b600081836143355760405162461bcd60e51b815260040161116091906148dc565b50600083858161434157fe5b0495945050505050565b828054600181600116156101000203166002900490600052602060002090601f016020900481019282601f1061438c5782800160ff198235161785556143b9565b828001600101855582156143b9579182015b828111156143b957823582559160200191906001019061439e565b506143c5929150614437565b5090565b828054600181600116156101000203166002900490600052602060002090601f016020900481019282601f1061440a57805160ff19168380011785556143b9565b828001600101855582156143b9579182015b828111156143b957825182559160200191906001019061441c565b61155191905b808211156143c5576000815560010161443d565b60008083601f840112614462578182fd5b50813567ffffffffffffffff811115614479578182fd5b602083019150836020808302850101111561449357600080fd5b9250929050565b80518015158114613be657600080fd5b803560ff81168114613be657600080fd5b6000602082840312156144cc578081fd5b8135613be381614f3a565b6000602082840312156144e8578081fd5b8151613be381614f3a565b60008060408385031215614505578081fd5b823561451081614f3a565b946020939093013593505050565b60008060408385031215614505578182fd5b60006020808385031215614542578182fd5b825167ffffffffffffffff811115614558578283fd5b80840185601f820112614569578384fd5b8051915061457e61457983614eea565b614ec3565b828152838101908285018585028401860189101561459a578687fd5b8693505b848410156145bc57805183526001939093019291850191850161459e565b50979650505050505050565b6000602082840312156145d9578081fd5b81518015158114613be3578182fd5b60008060008060008060c08789031215614600578182fd5b863561460b81614f52565b9550602087013561461b81614f52565b9450604087013561462b81614f52565b9350606087013561463b81614f52565b9250608087013561464b81614f52565b915060a087013561465b81614f52565b809150509295509295509295565b60006020828403121561467a578081fd5b5035919050565b600060208284031215614692578081fd5b5051919050565b600080600080608085870312156146ae578384fd5b84519350602085015167ffffffffffffffff808211156146cc578485fd5b81870188601f8201126146dd578586fd5b80519250818311156146ed578586fd5b614700601f8401601f1916602001614ec3565b9150828252886020848301011115614716578586fd5b614727836020840160208401614f0a565b50809450505060408501519150614741866060870161449a565b905092959194509250565b6000806040838503121561475e578182fd5b50508035926020909101359150565b60006020828403121561477e578081fd5b613be383836144aa565b60008060008060006060868803121561479f578283fd5b6147a987876144aa565b9450602086013567ffffffffffffffff808211156147c5578485fd5b6147d189838a01614451565b909650945060408801359150808211156147e9578283fd5b506147f688828901614451565b969995985093965092949392505050565b60008284528282602086013780602084860101526020601f19601f85011685010190509392505050565b60008151808452614849816020860160208601614f0a565b601f01601f19169290920160200192915050565b6001600160a01b0391909116815260200190565b6001600160a01b03929092168252602082015260400190565b6001600160a01b0393841681526020810192909252909116604082015260600190565b6001600160a01b039384168152919092166020820152604081019190915260600190565b901515815260200190565b600060208252613be36020830184614831565b600060e0825261490260e083018a614831565b8281036020840152614914818a614831565b604084019890985250506060810194909452608084019290925260ff90811660a08401521660c09091015292915050565b60208082526025908201527f6c6f63616c446576656c6f706d656e7446756e642062616c616e6365206973206040820152647a65726f2160d81b606082015260800190565b6020808252601490820152734e6f74206d6f72652072657363756546756e642160601b604082015260600190565b6020808252601e908201527f4e6f74206d6f7265206c6f63616c446576656c6f706d656e7446756e64210000604082015260600190565b60208082526019908201527f42616c616e6365206973206e6f742073756666696369656e7400000000000000604082015260600190565b60208082526023908201527f50657263656e74616765732073756d206d75737420657175616c20746f20313060408201526203030360ec1b606082015260800190565b602080825260099082015268151bdbc81cdb585b1b60ba1b604082015260600190565b6020808252601b908201527f536166654d6174683a206164646974696f6e206f766572666c6f770000000000604082015260600190565b6020808252601b908201527f416d6261737361646f7220676220636f756e74206973207a65726f0000000000604082015260600190565b6020808252601c908201527f747265656a657246756e642062616c616e6365206973207a65726f2100000000604082015260600190565b6020808252603a908201527f416464726573733a20756e61626c6520746f2073656e642076616c75652c207260408201527f6563697069656e74206d61792068617665207265766572746564000000000000606082015260800190565b6020808252601d908201527f416464726573733a20696e73756666696369656e742062616c616e6365000000604082015260600190565b6020808252601690820152754e6f74206d6f726520726573656172636846756e642160501b604082015260600190565b6020808252601d908201527f726573656172636846756e642062616c616e6365206973207a65726f21000000604082015260600190565b6020808252601590820152744e6f74206d6f726520747265656a657246756e642160581b604082015260600190565b6020808252602e908201527f496e697469616c697a61626c653a20636f6e747261637420697320616c72656160408201526d191e481a5b9a5d1a585b1a5e995960921b606082015260800190565b6020808252601a908201527f506c616e746572207472656520636f756e74206973207a65726f000000000000604082015260600190565b60208082526021908201527f536166654d6174683a206d756c7469706c69636174696f6e206f766572666c6f6040820152607760f81b606082015260800190565b60208082526019908201527f5468657265206973206e6f742066756e64656420747265657300000000000000604082015260600190565b6020808252601b908201527f776974686472617761626c6542616c616e6365206973207a65726f0000000000604082015260600190565b6020808252601b908201527f72657363756546756e642062616c616e6365206973207a65726f210000000000604082015260600190565b61ffff91909116815260200190565b90815260200190565b600084825260406020830152614df8604083018486614807565b95945050505050565b600087825260806020830152614e1b608083018789614807565b8281036040840152614e2e818688614807565b915050826060830152979650505050505050565b9485526020850193909352604084019190915260608301526001600160a01b0316608082015260a00190565b60ff91909116815260200190565b6000808335601e19843603018112614e92578283fd5b8084018035925067ffffffffffffffff831115614ead578384fd5b6020019250503681900382131561449357600080fd5b60405181810167ffffffffffffffff81118282101715614ee257600080fd5b604052919050565b600067ffffffffffffffff821115614f00578081fd5b5060209081020190565b60005b83811015614f25578181015183820152602001614f0d565b83811115614f34576000848401525b50505050565b6001600160a01b0381168114614f4f57600080fd5b50565b61ffff81168114614f4f57600080fdfea26469706673582212204b89366c83781089040087c0f2e24f0f3db7b1b5e3b793e16d57a52fd81344df64736f6c634300060a0033",
  "immutableReferences": {},
  "source": "// SPDX-License-Identifier: GPL-3.0\n\npragma solidity >=0.4.21 <0.7.0;\npragma experimental ABIEncoderV2;\n\nimport \"@openzeppelin/contracts-upgradeable/proxy/Initializable.sol\";\nimport \"@openzeppelin/contracts-upgradeable/utils/AddressUpgradeable.sol\";\nimport \"@openzeppelin/contracts-upgradeable/math/SafeMathUpgradeable.sol\";\n\nimport \"../access/IAccessRestriction.sol\";\nimport \"../greenblock/IGBFactory.sol\";\nimport \"./IUpdateFactory.sol\";\nimport \"./ITree.sol\";\nimport \"../gsn/RelayRecipient.sol\";\n\ncontract TreeFactory is Initializable, RelayRecipient {\n    using AddressUpgradeable for address;\n    using SafeMathUpgradeable for uint256;\n    using SafeMathUpgradeable for uint16;\n\n    event PriceChanged(uint256 price);\n    event TreePlanted(\n        uint256 id,\n        string latitude,\n        string longitude,\n        uint256 plantedDate\n    );\n    event TreeFunded(\n        uint256 treeId,\n        uint256 planterBalance,\n        uint256 ambassadorBalance,\n        uint256 totalFund,\n        address owner\n    );\n    event PlanterBalanceWithdrawn(address planter, uint256 amount);\n    event AmbassadorBalanceWithdrawn(address ambassador, uint256 amount);\n    event TreejerFundWithdrawn(address to, uint256 amount, address by);\n    event LocalDevelopmentFundWithdrawn(address to, uint256 amount, address by);\n    event RescueFundWithdrawn(address to, uint256 amount, address by);\n    event ResearchFundWithdrawn(address to, uint256 amount, address by);\n\n    bool public isTreeFactory;\n\n    struct Tree {\n        string latitude;\n        string longitude;\n        uint256 plantedDate;\n        uint256 birthDate;\n        uint256 fundedDate;\n        uint8 height;\n        uint8 diameter;\n    }\n    Tree[] public trees;\n\n    uint256 public price;\n\n    mapping(uint256 => uint256) public notFundedTrees;\n    uint256 public notFundedTreesLastIndex;\n    uint256 public notFundedTreesUsedIndex;\n\n    mapping(uint256 => uint256) public notPlantedTrees;\n    uint256 public notPlantedTreesLastIndex;\n    uint256 public notPlantedTreesUsedIndex;\n\n    mapping(uint256 => uint8) public treeToType;\n    mapping(uint256 => uint256) public treeToGB;\n    mapping(uint256 => address) public treeToPlanter;\n    mapping(address => uint256) public planterTreeCount;\n    mapping(address => uint256[]) public planterTrees;\n    mapping(uint256 => uint256) public typeTreeCount;\n    mapping(uint256 => uint256) public gbTreeCount;\n    mapping(uint256 => uint256[]) public gbTrees;\n    mapping(uint256 => uint256[]) public typeTrees;\n\n    mapping(uint256 => uint256) public treeToPlanterRemainingBalance;\n    mapping(uint256 => uint256) public treeToPlanterBalancePerSecond;\n\n    mapping(uint256 => uint256) public treeToAmbassadorRemainingBalance;\n    mapping(uint256 => uint256) public treeToAmbassadorBalancePerSecond;\n\n    // 100 percentages basis points = 1 percentage\n    uint16 public treejerPercentage;\n    uint16 public plantersPercentage;\n    uint16 public ambassadorsPercentage;\n    uint16 public localDevelopmentFundPercentage;\n    uint16 public rescueFundPercentage;\n    uint16 public researchFundPercentage;\n\n    uint256 public treejerFund;\n    uint256 public plantersFund;\n    uint256 public ambassadorsFund;\n    uint256 public localDevelopmentFund;\n    uint256 public rescueFund;\n    uint256 public researchFund;\n\n    mapping(uint256 => bool) public updateToPlanterBalanceWithdrawn;\n    mapping(uint256 => bool) public updateToAmbassadorBalanceWithdrawn;\n\n    // 1 common year 31536000 seconds * 3 year\n    uint256 constant treeBalanceWithdrawnSeconds = 94608000;\n\n    //related contrects\n    IAccessRestriction public accessRestriction;\n    IGBFactory public gbFactory;\n    IUpdateFactory public updateFactory;\n    ITree public treeToken;\n\n    function initialize(address _accessRestrictionAddress) public initializer {\n        isTreeFactory = true;\n\n        IAccessRestriction candidateContract =\n            IAccessRestriction(_accessRestrictionAddress);\n        require(candidateContract.isAccessRestriction());\n        accessRestriction = candidateContract;\n\n        //set default percentages\n        treejerPercentage = 2500;\n        plantersPercentage = 4000;\n        ambassadorsPercentage = 500;\n        localDevelopmentFundPercentage = 1500;\n        rescueFundPercentage = 1000;\n        researchFundPercentage = 500;\n    }\n\n    function setTrustedForwarder(address _address) external {\n        accessRestriction.ifAdmin(_msgSender());\n\n        trustedForwarder = _address;\n    }\n\n    function setGBFactoryAddress(address _address) external {\n        accessRestriction.ifAdmin(_msgSender());\n\n        IGBFactory candidateContract = IGBFactory(_address);\n        require(candidateContract.isGBFactory());\n        gbFactory = candidateContract;\n    }\n\n    function setUpdateFactoryAddress(address _address) external {\n        accessRestriction.ifAdmin(_msgSender());\n\n        IUpdateFactory candidateContract = IUpdateFactory(_address);\n        require(candidateContract.isUpdateFactory());\n        updateFactory = candidateContract;\n    }\n\n    function setTreeTokenAddress(address _address) external {\n        accessRestriction.ifAdmin(_msgSender());\n\n        ITree candidateContract = ITree(_address);\n        require(candidateContract.isTree());\n        treeToken = candidateContract;\n    }\n\n    function plant(\n        uint8 _typeId,\n        string[] calldata _stringParams,\n        uint8[] calldata _uintParams\n    ) external {\n        accessRestriction.ifNotPaused();\n        accessRestriction.ifPlanter(_msgSender());\n\n        uint256 gbId = gbFactory.planterGB(_msgSender());\n\n        uint256 id = 0;\n\n        if (notPlantedTreesLastIndex > notPlantedTreesUsedIndex) {\n            id = notPlantedTrees[notPlantedTreesUsedIndex];\n            notPlantedTreesUsedIndex++;\n\n            trees[id].latitude = _stringParams[1];\n            trees[id].longitude = _stringParams[2];\n            trees[id].plantedDate = block.timestamp;\n            trees[id].birthDate = block.timestamp;\n            trees[id].height = _uintParams[0];\n            trees[id].diameter = _uintParams[1];\n\n            delete notPlantedTrees[notPlantedTreesUsedIndex.sub(1)];\n        } else {\n            trees.push(\n                Tree(\n                    _stringParams[1],\n                    _stringParams[2],\n                    block.timestamp,\n                    block.timestamp,\n                    0,\n                    _uintParams[0],\n                    _uintParams[1]\n                )\n            );\n            id = trees.length.sub(1);\n\n            notFundedTrees[notFundedTreesLastIndex] = id;\n            notFundedTreesLastIndex++;\n            treeToken.safeMint(_msgSender(), id);\n        }\n\n        bytes memory uriStringByte = bytes(_stringParams[0]);\n        if (uriStringByte.length > 0) {\n            treeToken.setTokenURI(id, _stringParams[0]);\n        }\n\n        treeToGB[id] = gbId;\n        gbTreeCount[gbId]++;\n        gbTrees[gbId].push(id);\n\n        treeToType[id] = _typeId;\n        typeTreeCount[_typeId]++;\n        typeTrees[_typeId].push(id);\n\n        treeToPlanter[id] = _msgSender();\n        planterTreeCount[_msgSender()]++;\n        planterTrees[_msgSender()].push(id);\n\n        emit TreePlanted(\n            id,\n            _stringParams[1],\n            _stringParams[2],\n            block.timestamp\n        );\n    }\n\n    function simpleFund(\n        address _account,\n        uint256 _planterBalance,\n        uint256 _planterBalancePerSecond,\n        uint256 _ambassadorBalance,\n        uint256 _ambassadorBalancePerSecond\n    ) internal returns (uint256) {\n        trees.push(Tree(\"\", \"\", 0, 0, block.timestamp, 0, 0));\n        uint256 id = trees.length.sub(1);\n\n        notPlantedTrees[notPlantedTreesLastIndex] = id;\n        notPlantedTreesLastIndex++;\n\n        if (_planterBalance > 0) {\n            treeToPlanterRemainingBalance[id] = _planterBalance;\n            treeToPlanterBalancePerSecond[id] = _planterBalancePerSecond;\n        }\n\n        if (_ambassadorBalance > 0) {\n            treeToAmbassadorRemainingBalance[id] = _ambassadorBalance;\n            treeToAmbassadorBalancePerSecond[id] = _ambassadorBalancePerSecond;\n        }\n\n        treeToken.safeMint(_account, id);\n\n        return id;\n    }\n\n    function fundPlantedTress(\n        address _account,\n        uint256 _planterBalance,\n        uint256 _planterBalancePerSecond,\n        uint256 _ambassadorBalance,\n        uint256 _ambassadorBalancePerSecond\n    ) internal returns (uint256) {\n        require(\n            notFundedTreesLastIndex > notFundedTreesUsedIndex,\n            \"There is not funded trees\"\n        );\n\n        uint256 treeId = notFundedTrees[notFundedTreesUsedIndex];\n        notFundedTreesUsedIndex++;\n\n        trees[treeId].fundedDate = block.timestamp;\n\n        if (_planterBalance > 0) {\n            treeToPlanterRemainingBalance[treeId] = _planterBalance;\n            treeToPlanterBalancePerSecond[treeId] = _planterBalancePerSecond;\n        }\n\n        if (_ambassadorBalance > 0) {\n            treeToAmbassadorRemainingBalance[treeId] = _ambassadorBalance;\n            treeToAmbassadorBalancePerSecond[\n                treeId\n            ] = _ambassadorBalancePerSecond;\n        }\n\n        treeToken.safeTransferExtra(\n            treeToken.ownerOf(treeId),\n            _account,\n            treeId\n        );\n\n        delete notFundedTrees[notFundedTreesUsedIndex.sub(1)];\n\n        return treeId;\n    }\n\n    function setPrice(uint256 _price) external {\n        accessRestriction.ifAdmin(_msgSender());\n\n        price = _price;\n        emit PriceChanged(_price);\n    }\n\n    function fund(uint256 _count) external payable {\n        uint256 balance = msg.value.div(_count);\n\n        require(balance >= price, \"Balance is not sufficient\");\n\n        for (uint8 i = 0; i < _count; i++) {\n            uint256 id = 0;\n            uint256 planterBalance =\n                _calculateShare(plantersPercentage, balance);\n            uint256 ambassadorBalance = 0;\n            bool hasAmbasador = false;\n\n            //check for\n            if (notFundedTreesLastIndex > notFundedTreesUsedIndex) {\n                id = notFundedTrees[notFundedTreesUsedIndex];\n                uint256 gbId = treeToGB[id];\n                address gbAmbassador = gbFactory.gbToAmbassador(gbId);\n\n                if (gbAmbassador != address(0)) {\n                    hasAmbasador = true;\n                    ambassadorBalance = _calculateShare(\n                        ambassadorsPercentage,\n                        balance\n                    );\n                }\n\n                id = fundPlantedTress(\n                    _msgSender(),\n                    planterBalance,\n                    _calculateSharePerSecond(planterBalance),\n                    ambassadorBalance,\n                    _calculateSharePerSecond(ambassadorBalance)\n                );\n            } else {\n                id = simpleFund(\n                    _msgSender(),\n                    planterBalance,\n                    _calculateSharePerSecond(planterBalance),\n                    0,\n                    0\n                );\n            }\n\n            _updateBalances(balance, hasAmbasador);\n\n            emit TreeFunded(\n                id,\n                planterBalance,\n                ambassadorBalance,\n                balance,\n                _msgSender()\n            );\n        }\n    }\n\n    function _calculateSharePerSecond(uint256 _amount)\n        private\n        pure\n        returns (uint256)\n    {\n        if (_amount == 0) {\n            return 0;\n        }\n\n        return _amount.div(treeBalanceWithdrawnSeconds);\n    }\n\n    function _calculateShare(uint256 _percentage, uint256 _amount)\n        private\n        pure\n        returns (uint256)\n    {\n        if (_percentage == 0 || _amount == 0) {\n            return 0;\n        }\n\n        require((_amount.div(10000)).mul(10000) == _amount, \"Too small\");\n\n        return (_amount.mul(_percentage)).div(10000);\n    }\n\n    function _updateBalances(uint256 _balance, bool _hasAmbasador) private {\n        uint256 ambassadorBalance = 0;\n\n        uint256 localDevelopmentFundBalance =\n            _calculateShare(localDevelopmentFundPercentage, _balance);\n\n        if (_hasAmbasador == true) {\n            ambassadorBalance = _calculateShare(\n                ambassadorsPercentage,\n                _balance\n            );\n        } else {\n            localDevelopmentFundBalance = localDevelopmentFundBalance.add(\n                ambassadorBalance\n            );\n        }\n\n        treejerFund = treejerFund.add(\n            _calculateShare(treejerPercentage, _balance)\n        );\n        plantersFund = plantersFund.add(\n            _calculateShare(plantersPercentage, _balance)\n        );\n        ambassadorsFund = ambassadorsFund.add(ambassadorBalance);\n        localDevelopmentFund = localDevelopmentFund.add(\n            localDevelopmentFundBalance\n        );\n        rescueFund = rescueFund.add(\n            _calculateShare(rescueFundPercentage, _balance)\n        );\n        researchFund = researchFund.add(\n            _calculateShare(researchFundPercentage, _balance)\n        );\n    }\n\n    function withdrawTreejerFund(address payable _to, uint256 _amount)\n        external\n    {\n        accessRestriction.ifAdmin(_msgSender());\n\n        require(treejerFund > 0, \"treejerFund balance is zero!\");\n        require(_amount <= treejerFund, \"Not more treejerFund!\");\n\n        treejerFund = treejerFund.sub(_amount);\n\n        AddressUpgradeable.sendValue(_to, _amount);\n\n        emit TreejerFundWithdrawn(_to, _amount, _msgSender());\n    }\n\n    function withdrawLocalDevelopmentFund(address payable _to, uint256 _amount)\n        external\n    {\n        accessRestriction.ifAdmin(_msgSender());\n\n        require(\n            localDevelopmentFund > 0,\n            \"localDevelopmentFund balance is zero!\"\n        );\n        require(\n            _amount <= localDevelopmentFund,\n            \"Not more localDevelopmentFund!\"\n        );\n\n        localDevelopmentFund = localDevelopmentFund.sub(_amount);\n\n        AddressUpgradeable.sendValue(_to, _amount);\n\n        emit LocalDevelopmentFundWithdrawn(_to, _amount, _msgSender());\n    }\n\n    function withdrawRescueFund(address payable _to, uint256 _amount) external {\n        accessRestriction.ifAdmin(_msgSender());\n\n        require(rescueFund > 0, \"rescueFund balance is zero!\");\n        require(_amount <= rescueFund, \"Not more rescueFund!\");\n\n        rescueFund = rescueFund.sub(_amount);\n\n        AddressUpgradeable.sendValue(_to, _amount);\n\n        emit RescueFundWithdrawn(_to, _amount, _msgSender());\n    }\n\n    function withdrawResearchFund(address payable _to, uint256 _amount)\n        external\n    {\n        accessRestriction.ifAdmin(_msgSender());\n\n        require(researchFund > 0, \"researchFund balance is zero!\");\n        require(_amount <= researchFund, \"Not more researchFund!\");\n\n        researchFund = researchFund.sub(_amount);\n\n        AddressUpgradeable.sendValue(_to, _amount);\n\n        emit ResearchFundWithdrawn(_to, _amount, _msgSender());\n    }\n\n    function withdrawPlanterBalance() external {\n        accessRestriction.ifPlanter(_msgSender());\n\n        uint256 planterTreesCount = planterTreeCount[_msgSender()];\n\n        require(planterTreesCount > 0, \"Planter tree count is zero\");\n\n        uint256 withdrawableBalance = 0;\n        uint256[] memory treeIds = planterTrees[_msgSender()];\n\n        for (uint256 i = 0; i < planterTreesCount; i++) {\n            uint256 treeId = treeIds[i];\n\n            uint256[] memory treeUpdates = updateFactory.getTreeUpdates(treeId);\n            uint256 totalSeconds = 0;\n\n            if (treeToPlanterRemainingBalance[treeId] <= 0) {\n                continue;\n            }\n\n            if (treeUpdates.length == 0) {\n                continue;\n            }\n\n            if (\n                updateToPlanterBalanceWithdrawn[\n                    updateFactory.getTreeLastUpdateId(treeId)\n                ] == true\n            ) {\n                continue;\n            }\n\n            for (uint256 j = treeUpdates.length; j > 0; j--) {\n                uint256 jUpdateId = treeUpdates[j - 1];\n\n                (, , uint256 jUpdateDate, bool jUpdateStatus) =\n                    updateFactory.updates(jUpdateId);\n\n                if (jUpdateStatus != true) {\n                    continue;\n                }\n\n                if (updateToPlanterBalanceWithdrawn[jUpdateId] == true) {\n                    continue;\n                }\n\n                if (j > 1) {\n                    uint256 jMinusUpdateId = treeUpdates[j - 2];\n\n                    (, , uint256 jMUpdateDate, bool jMUpdateStatus) =\n                        updateFactory.updates(jMinusUpdateId);\n\n                    if (jMUpdateStatus != true) {\n                        continue;\n                    }\n\n                    totalSeconds = totalSeconds.add(\n                        jUpdateDate.sub(jMUpdateDate)\n                    );\n                } else {\n                    totalSeconds = totalSeconds.add(\n                        jUpdateDate.sub(trees[treeId].plantedDate)\n                    );\n                }\n\n                updateToPlanterBalanceWithdrawn[jUpdateId] = true;\n            }\n\n            if (totalSeconds > 0) {\n                withdrawableBalance = withdrawableBalance.add(\n                    treeToPlanterBalancePerSecond[treeId].mul(totalSeconds)\n                );\n                treeToPlanterRemainingBalance[\n                    treeId\n                ] = treeToPlanterRemainingBalance[treeId].sub(\n                    treeToPlanterBalancePerSecond[treeId].mul(totalSeconds)\n                );\n            }\n        }\n\n        require(withdrawableBalance > 0, \"withdrawableBalance is zero\");\n\n        plantersFund = plantersFund.sub(withdrawableBalance);\n\n        AddressUpgradeable.sendValue(_msgSender(), withdrawableBalance);\n\n        emit PlanterBalanceWithdrawn(_msgSender(), withdrawableBalance);\n    }\n\n    function withdrawAmbassadorBalance() external {\n        accessRestriction.ifAmbassador(_msgSender());\n\n        uint256 ambassadorGBCount = gbFactory.ambassadorGBCount(_msgSender());\n\n        require(ambassadorGBCount > 0, \"Ambassador gb count is zero\");\n\n        uint256[] memory gbIds = gbFactory.getAmbassadorGBs(_msgSender());\n\n        uint256 withdrawableBalance = 0;\n\n        for (uint256 k = 0; k < ambassadorGBCount; k++) {\n            uint256 _gbId = gbIds[k];\n\n            uint256 gbTreesCount = gbTreeCount[_gbId];\n\n            if (gbTreesCount == 0) {\n                continue;\n            }\n\n            uint256[] memory treeIds = gbTrees[_gbId];\n\n            for (uint256 i = 0; i < gbTreesCount; i++) {\n                uint256 treeId = treeIds[i];\n\n                uint256[] memory treeUpdates =\n                    updateFactory.getTreeUpdates(treeId);\n                uint256 totalSeconds = 0;\n\n                if (treeToAmbassadorRemainingBalance[treeId] <= 0) {\n                    continue;\n                }\n\n                if (treeUpdates.length == 0) {\n                    continue;\n                }\n\n                if (\n                    updateToAmbassadorBalanceWithdrawn[\n                        updateFactory.getTreeLastUpdateId(treeId)\n                    ] == true\n                ) {\n                    continue;\n                }\n\n                for (uint256 j = treeUpdates.length; j > 0; j--) {\n                    uint256 jUpdateId = treeUpdates[j - 1];\n\n                    (, , uint256 jUpdateDate, bool jUpdateStatus) =\n                        updateFactory.updates(jUpdateId);\n\n                    if (jUpdateStatus != true) {\n                        continue;\n                    }\n\n                    if (updateToAmbassadorBalanceWithdrawn[jUpdateId] == true) {\n                        continue;\n                    }\n\n                    if (j > 1) {\n                        uint256 jMinusUpdateId = treeUpdates[j - 2];\n                        (, , uint256 jMUpdateDate, bool jMUpdateStatus) =\n                            updateFactory.updates(jMinusUpdateId);\n\n                        if (jMUpdateStatus != true) {\n                            continue;\n                        }\n\n                        totalSeconds = totalSeconds.add(\n                            jUpdateDate.sub(jMUpdateDate)\n                        );\n                    } else {\n                        totalSeconds = totalSeconds.add(\n                            jUpdateDate.sub(trees[treeId].plantedDate)\n                        );\n                    }\n\n                    updateToAmbassadorBalanceWithdrawn[jUpdateId] = true;\n                }\n\n                if (totalSeconds > 0) {\n                    withdrawableBalance = withdrawableBalance.add(\n                        treeToAmbassadorBalancePerSecond[treeId].mul(\n                            totalSeconds\n                        )\n                    );\n                    treeToAmbassadorRemainingBalance[\n                        treeId\n                    ] = treeToAmbassadorRemainingBalance[treeId].sub(\n                        treeToAmbassadorBalancePerSecond[treeId].mul(\n                            totalSeconds\n                        )\n                    );\n                }\n            }\n        }\n\n        require(withdrawableBalance > 0, \"withdrawableBalance is zero\");\n\n        ambassadorsFund = ambassadorsFund.sub(withdrawableBalance);\n\n        AddressUpgradeable.sendValue(_msgSender(), withdrawableBalance);\n\n        emit AmbassadorBalanceWithdrawn(_msgSender(), withdrawableBalance);\n    }\n\n    function setAllPercentages(\n        uint16 _treejerPercentage,\n        uint16 _plantersPercentage,\n        uint16 _ambassadorsPercentage,\n        uint16 _localDevelopmentFundPercentage,\n        uint16 _rescueFundPercentage,\n        uint16 _researchFundPercentage\n    ) external {\n        accessRestriction.ifAdmin(_msgSender());\n\n        require(\n            _treejerPercentage\n                .add(_plantersPercentage)\n                .add(_ambassadorsPercentage)\n                .add(_localDevelopmentFundPercentage)\n                .add(_rescueFundPercentage)\n                .add(_researchFundPercentage) == 10000,\n            \"Percentages sum must equal to 10000\"\n        );\n\n        treejerPercentage = _treejerPercentage;\n        plantersPercentage = _plantersPercentage;\n        ambassadorsPercentage = _ambassadorsPercentage;\n        localDevelopmentFundPercentage = _localDevelopmentFundPercentage;\n        rescueFundPercentage = _rescueFundPercentage;\n        researchFundPercentage = _researchFundPercentage;\n    }\n\n    function getPlanterWithdrawableBalance(address _account)\n        external\n        view\n        returns (uint256)\n    {\n        accessRestriction.ifPlanter(_account);\n\n        uint256 planterTreesCount = planterTreeCount[_account];\n\n        if (planterTreesCount == 0) {\n            return 0;\n        }\n\n        uint256 withdrawableBalance = 0;\n        uint256[] memory treeIds = planterTrees[_account];\n\n        for (uint256 i = 0; i < planterTreesCount; i++) {\n            uint256 treeId = treeIds[i];\n\n            uint256[] memory treeUpdates = updateFactory.getTreeUpdates(treeId);\n            uint256 totalSeconds = 0;\n\n            if (treeToPlanterRemainingBalance[treeId] <= 0) {\n                continue;\n            }\n\n            if (treeUpdates.length == 0) {\n                continue;\n            }\n\n            if (\n                updateToPlanterBalanceWithdrawn[\n                    updateFactory.getTreeLastUpdateId(treeId)\n                ] == true\n            ) {\n                continue;\n            }\n\n            for (uint256 j = treeUpdates.length; j > 0; j--) {\n                uint256 jUpdateId = treeUpdates[j - 1];\n\n                (, , uint256 jUpdateDate, bool jUpdateStatus) =\n                    updateFactory.updates(jUpdateId);\n\n                if (jUpdateStatus != true) {\n                    continue;\n                }\n\n                if (updateToPlanterBalanceWithdrawn[jUpdateId] == true) {\n                    continue;\n                }\n\n                if (j > 1) {\n                    uint256 jMinusUpdateId = treeUpdates[j - 2];\n\n                    (, , uint256 jMUpdateDate, bool jMUpdateStatus) =\n                        updateFactory.updates(jMinusUpdateId);\n\n                    if (jMUpdateStatus != true) {\n                        continue;\n                    }\n\n                    totalSeconds = totalSeconds.add(\n                        jUpdateDate.sub(jMUpdateDate)\n                    );\n                } else {\n                    totalSeconds = totalSeconds.add(\n                        jUpdateDate.sub(trees[treeId].plantedDate)\n                    );\n                }\n            }\n\n            if (totalSeconds > 0) {\n                withdrawableBalance = withdrawableBalance.add(\n                    treeToPlanterBalancePerSecond[treeId].mul(totalSeconds)\n                );\n            }\n        }\n\n        return withdrawableBalance;\n    }\n\n    function getAmbassadorWithdrawableBalance(address _account)\n        external\n        view\n        returns (uint256)\n    {\n        accessRestriction.ifAmbassador(_account);\n\n        uint256 ambassadorGBCount = gbFactory.ambassadorGBCount(_account);\n\n        if (ambassadorGBCount == 0) {\n            return 0;\n        }\n\n        uint256[] memory gbIds = gbFactory.getAmbassadorGBs(_account);\n\n        uint256 withdrawableBalance = 0;\n\n        for (uint256 k = 0; k < ambassadorGBCount; k++) {\n            uint256 _gbId = gbIds[k];\n\n            uint256 gbTreesCount = gbTreeCount[_gbId];\n\n            if (gbTreesCount == 0) {\n                continue;\n            }\n\n            uint256[] memory treeIds = gbTrees[_gbId];\n\n            for (uint256 i = 0; i < gbTreesCount; i++) {\n                uint256 treeId = treeIds[i];\n\n                uint256[] memory treeUpdates =\n                    updateFactory.getTreeUpdates(treeId);\n                uint256 totalSeconds = 0;\n\n                if (treeToAmbassadorRemainingBalance[treeId] <= 0) {\n                    continue;\n                }\n\n                if (treeUpdates.length == 0) {\n                    continue;\n                }\n\n                if (\n                    updateToAmbassadorBalanceWithdrawn[\n                        updateFactory.getTreeLastUpdateId(treeId)\n                    ] == true\n                ) {\n                    continue;\n                }\n\n                for (uint256 j = treeUpdates.length; j > 0; j--) {\n                    uint256 jUpdateId = treeUpdates[j - 1];\n\n                    (, , uint256 jUpdateDate, bool jUpdateStatus) =\n                        updateFactory.updates(jUpdateId);\n\n                    if (jUpdateStatus != true) {\n                        continue;\n                    }\n\n                    if (updateToAmbassadorBalanceWithdrawn[jUpdateId] == true) {\n                        continue;\n                    }\n\n                    if (j > 1) {\n                        uint256 jMinusUpdateId = treeUpdates[j - 2];\n                        (, , uint256 jMUpdateDate, bool jMUpdateStatus) =\n                            updateFactory.updates(jMinusUpdateId);\n\n                        if (jMUpdateStatus != true) {\n                            continue;\n                        }\n\n                        totalSeconds = totalSeconds.add(\n                            jUpdateDate.sub(jMUpdateDate)\n                        );\n                    } else {\n                        totalSeconds = totalSeconds.add(\n                            jUpdateDate.sub(trees[treeId].plantedDate)\n                        );\n                    }\n                }\n\n                if (totalSeconds > 0) {\n                    withdrawableBalance = withdrawableBalance.add(\n                        treeToAmbassadorBalancePerSecond[treeId].mul(\n                            totalSeconds\n                        )\n                    );\n                }\n            }\n        }\n\n        return withdrawableBalance;\n    }\n}\n",
  "sourcePath": "/home/amir/Projects/treejer/contract/contracts/tree/TreeFactory.sol",
  "compiler": {
    "name": "solc",
    "version": "0.6.10+commit.00c0fcaf.Emscripten.clang"
  },
  "schemaVersion": "3.3.3",
  "updatedAt": "2021-01-23T09:51:18.723Z",
  "networkType": "ethereum",
  "devdoc": {
    "methods": {}
  },
  "userdoc": {
    "methods": {}
  }
}