{
  "contractName": "TreeFactory",
  "abi": [
    {
      "anonymous": false,
      "inputs": [
        {
          "indexed": false,
          "internalType": "address",
          "name": "ambassador",
          "type": "address"
        },
        {
          "indexed": false,
          "internalType": "uint256",
          "name": "amount",
          "type": "uint256"
        }
      ],
      "name": "AmbassadorBalanceWithdrawn",
      "type": "event"
    },
    {
      "anonymous": false,
      "inputs": [
        {
          "indexed": true,
          "internalType": "address",
          "name": "owner",
          "type": "address"
        },
        {
          "indexed": true,
          "internalType": "address",
          "name": "approved",
          "type": "address"
        },
        {
          "indexed": true,
          "internalType": "uint256",
          "name": "tokenId",
          "type": "uint256"
        }
      ],
      "name": "Approval",
      "type": "event"
    },
    {
      "anonymous": false,
      "inputs": [
        {
          "indexed": true,
          "internalType": "address",
          "name": "owner",
          "type": "address"
        },
        {
          "indexed": true,
          "internalType": "address",
          "name": "operator",
          "type": "address"
        },
        {
          "indexed": false,
          "internalType": "bool",
          "name": "approved",
          "type": "bool"
        }
      ],
      "name": "ApprovalForAll",
      "type": "event"
    },
    {
      "anonymous": false,
      "inputs": [
        {
          "indexed": false,
          "internalType": "address",
          "name": "planter",
          "type": "address"
        },
        {
          "indexed": false,
          "internalType": "uint256",
          "name": "amount",
          "type": "uint256"
        }
      ],
      "name": "PlanterBalanceWithdrawn",
      "type": "event"
    },
    {
      "anonymous": false,
      "inputs": [
        {
          "indexed": false,
          "internalType": "uint256",
          "name": "price",
          "type": "uint256"
        }
      ],
      "name": "PriceChanged",
      "type": "event"
    },
    {
      "anonymous": false,
      "inputs": [
        {
          "indexed": true,
          "internalType": "address",
          "name": "from",
          "type": "address"
        },
        {
          "indexed": true,
          "internalType": "address",
          "name": "to",
          "type": "address"
        },
        {
          "indexed": true,
          "internalType": "uint256",
          "name": "tokenId",
          "type": "uint256"
        }
      ],
      "name": "Transfer",
      "type": "event"
    },
    {
      "anonymous": false,
      "inputs": [
        {
          "indexed": false,
          "internalType": "uint256",
          "name": "treeId",
          "type": "uint256"
        },
        {
          "indexed": false,
          "internalType": "uint256",
          "name": "planterBalance",
          "type": "uint256"
        },
        {
          "indexed": false,
          "internalType": "uint256",
          "name": "ambassadorBalance",
          "type": "uint256"
        },
        {
          "indexed": false,
          "internalType": "uint256",
          "name": "totalFund",
          "type": "uint256"
        },
        {
          "indexed": false,
          "internalType": "address",
          "name": "owner",
          "type": "address"
        }
      ],
      "name": "TreeFunded",
      "type": "event"
    },
    {
      "anonymous": false,
      "inputs": [
        {
          "indexed": false,
          "internalType": "uint256",
          "name": "id",
          "type": "uint256"
        },
        {
          "indexed": false,
          "internalType": "string",
          "name": "name",
          "type": "string"
        },
        {
          "indexed": false,
          "internalType": "string",
          "name": "latitude",
          "type": "string"
        },
        {
          "indexed": false,
          "internalType": "string",
          "name": "longitude",
          "type": "string"
        }
      ],
      "name": "TreePlanted",
      "type": "event"
    },
    {
      "inputs": [],
      "name": "accessRestriction",
      "outputs": [
        {
          "internalType": "contract AccessRestriction",
          "name": "",
          "type": "address"
        }
      ],
      "stateMutability": "view",
      "type": "function",
      "constant": true
    },
    {
      "inputs": [
        {
          "internalType": "address",
          "name": "to",
          "type": "address"
        },
        {
          "internalType": "uint256",
          "name": "tokenId",
          "type": "uint256"
        }
      ],
      "name": "approve",
      "outputs": [],
      "stateMutability": "nonpayable",
      "type": "function"
    },
    {
      "inputs": [
        {
          "internalType": "address",
          "name": "owner",
          "type": "address"
        }
      ],
      "name": "balanceOf",
      "outputs": [
        {
          "internalType": "uint256",
          "name": "",
          "type": "uint256"
        }
      ],
      "stateMutability": "view",
      "type": "function",
      "constant": true
    },
    {
      "inputs": [
        {
          "internalType": "uint256",
          "name": "",
          "type": "uint256"
        }
      ],
      "name": "balances",
      "outputs": [
        {
          "internalType": "uint256",
          "name": "",
          "type": "uint256"
        }
      ],
      "stateMutability": "view",
      "type": "function",
      "constant": true
    },
    {
      "inputs": [],
      "name": "baseURI",
      "outputs": [
        {
          "internalType": "string",
          "name": "",
          "type": "string"
        }
      ],
      "stateMutability": "view",
      "type": "function",
      "constant": true
    },
    {
      "inputs": [],
      "name": "gbFactory",
      "outputs": [
        {
          "internalType": "contract GBFactory",
          "name": "",
          "type": "address"
        }
      ],
      "stateMutability": "view",
      "type": "function",
      "constant": true
    },
    {
      "inputs": [
        {
          "internalType": "uint256",
          "name": "",
          "type": "uint256"
        }
      ],
      "name": "gbTreeCount",
      "outputs": [
        {
          "internalType": "uint256",
          "name": "",
          "type": "uint256"
        }
      ],
      "stateMutability": "view",
      "type": "function",
      "constant": true
    },
    {
      "inputs": [
        {
          "internalType": "uint256",
          "name": "",
          "type": "uint256"
        },
        {
          "internalType": "uint256",
          "name": "",
          "type": "uint256"
        }
      ],
      "name": "gbTrees",
      "outputs": [
        {
          "internalType": "uint256",
          "name": "",
          "type": "uint256"
        }
      ],
      "stateMutability": "view",
      "type": "function",
      "constant": true
    },
    {
      "inputs": [
        {
          "internalType": "uint256",
          "name": "tokenId",
          "type": "uint256"
        }
      ],
      "name": "getApproved",
      "outputs": [
        {
          "internalType": "address",
          "name": "",
          "type": "address"
        }
      ],
      "stateMutability": "view",
      "type": "function",
      "constant": true
    },
    {
      "inputs": [
        {
          "internalType": "address",
          "name": "owner",
          "type": "address"
        },
        {
          "internalType": "address",
          "name": "operator",
          "type": "address"
        }
      ],
      "name": "isApprovedForAll",
      "outputs": [
        {
          "internalType": "bool",
          "name": "",
          "type": "bool"
        }
      ],
      "stateMutability": "view",
      "type": "function",
      "constant": true
    },
    {
      "inputs": [],
      "name": "isTreeFactory",
      "outputs": [
        {
          "internalType": "bool",
          "name": "",
          "type": "bool"
        }
      ],
      "stateMutability": "view",
      "type": "function",
      "constant": true
    },
    {
      "inputs": [],
      "name": "name",
      "outputs": [
        {
          "internalType": "string",
          "name": "",
          "type": "string"
        }
      ],
      "stateMutability": "view",
      "type": "function",
      "constant": true
    },
    {
      "inputs": [
        {
          "internalType": "uint256",
          "name": "",
          "type": "uint256"
        }
      ],
      "name": "notFundedTrees",
      "outputs": [
        {
          "internalType": "uint256",
          "name": "",
          "type": "uint256"
        }
      ],
      "stateMutability": "view",
      "type": "function",
      "constant": true
    },
    {
      "inputs": [
        {
          "internalType": "uint256",
          "name": "",
          "type": "uint256"
        }
      ],
      "name": "notPlantedTrees",
      "outputs": [
        {
          "internalType": "uint256",
          "name": "",
          "type": "uint256"
        }
      ],
      "stateMutability": "view",
      "type": "function",
      "constant": true
    },
    {
      "inputs": [
        {
          "internalType": "uint256",
          "name": "tokenId",
          "type": "uint256"
        }
      ],
      "name": "ownerOf",
      "outputs": [
        {
          "internalType": "address",
          "name": "",
          "type": "address"
        }
      ],
      "stateMutability": "view",
      "type": "function",
      "constant": true
    },
    {
      "inputs": [
        {
          "internalType": "address",
          "name": "",
          "type": "address"
        }
      ],
      "name": "planterTreeCount",
      "outputs": [
        {
          "internalType": "uint256",
          "name": "",
          "type": "uint256"
        }
      ],
      "stateMutability": "view",
      "type": "function",
      "constant": true
    },
    {
      "inputs": [
        {
          "internalType": "address",
          "name": "",
          "type": "address"
        },
        {
          "internalType": "uint256",
          "name": "",
          "type": "uint256"
        }
      ],
      "name": "planterTrees",
      "outputs": [
        {
          "internalType": "uint256",
          "name": "",
          "type": "uint256"
        }
      ],
      "stateMutability": "view",
      "type": "function",
      "constant": true
    },
    {
      "inputs": [],
      "name": "price",
      "outputs": [
        {
          "internalType": "uint256",
          "name": "",
          "type": "uint256"
        }
      ],
      "stateMutability": "view",
      "type": "function",
      "constant": true
    },
    {
      "inputs": [
        {
          "internalType": "address",
          "name": "from",
          "type": "address"
        },
        {
          "internalType": "address",
          "name": "to",
          "type": "address"
        },
        {
          "internalType": "uint256",
          "name": "tokenId",
          "type": "uint256"
        }
      ],
      "name": "safeTransferFrom",
      "outputs": [],
      "stateMutability": "nonpayable",
      "type": "function"
    },
    {
      "inputs": [
        {
          "internalType": "address",
          "name": "from",
          "type": "address"
        },
        {
          "internalType": "address",
          "name": "to",
          "type": "address"
        },
        {
          "internalType": "uint256",
          "name": "tokenId",
          "type": "uint256"
        },
        {
          "internalType": "bytes",
          "name": "_data",
          "type": "bytes"
        }
      ],
      "name": "safeTransferFrom",
      "outputs": [],
      "stateMutability": "nonpayable",
      "type": "function"
    },
    {
      "inputs": [
        {
          "internalType": "address",
          "name": "operator",
          "type": "address"
        },
        {
          "internalType": "bool",
          "name": "approved",
          "type": "bool"
        }
      ],
      "name": "setApprovalForAll",
      "outputs": [],
      "stateMutability": "nonpayable",
      "type": "function"
    },
    {
      "inputs": [
        {
          "internalType": "bytes4",
          "name": "interfaceId",
          "type": "bytes4"
        }
      ],
      "name": "supportsInterface",
      "outputs": [
        {
          "internalType": "bool",
          "name": "",
          "type": "bool"
        }
      ],
      "stateMutability": "view",
      "type": "function",
      "constant": true
    },
    {
      "inputs": [],
      "name": "symbol",
      "outputs": [
        {
          "internalType": "string",
          "name": "",
          "type": "string"
        }
      ],
      "stateMutability": "view",
      "type": "function",
      "constant": true
    },
    {
      "inputs": [
        {
          "internalType": "uint256",
          "name": "index",
          "type": "uint256"
        }
      ],
      "name": "tokenByIndex",
      "outputs": [
        {
          "internalType": "uint256",
          "name": "",
          "type": "uint256"
        }
      ],
      "stateMutability": "view",
      "type": "function",
      "constant": true
    },
    {
      "inputs": [
        {
          "internalType": "address",
          "name": "owner",
          "type": "address"
        },
        {
          "internalType": "uint256",
          "name": "index",
          "type": "uint256"
        }
      ],
      "name": "tokenOfOwnerByIndex",
      "outputs": [
        {
          "internalType": "uint256",
          "name": "",
          "type": "uint256"
        }
      ],
      "stateMutability": "view",
      "type": "function",
      "constant": true
    },
    {
      "inputs": [
        {
          "internalType": "uint256",
          "name": "tokenId",
          "type": "uint256"
        }
      ],
      "name": "tokenURI",
      "outputs": [
        {
          "internalType": "string",
          "name": "",
          "type": "string"
        }
      ],
      "stateMutability": "view",
      "type": "function",
      "constant": true
    },
    {
      "inputs": [],
      "name": "totalSupply",
      "outputs": [
        {
          "internalType": "uint256",
          "name": "",
          "type": "uint256"
        }
      ],
      "stateMutability": "view",
      "type": "function",
      "constant": true
    },
    {
      "inputs": [
        {
          "internalType": "address",
          "name": "from",
          "type": "address"
        },
        {
          "internalType": "address",
          "name": "to",
          "type": "address"
        },
        {
          "internalType": "uint256",
          "name": "tokenId",
          "type": "uint256"
        }
      ],
      "name": "transferFrom",
      "outputs": [],
      "stateMutability": "nonpayable",
      "type": "function"
    },
    {
      "inputs": [
        {
          "internalType": "uint256",
          "name": "",
          "type": "uint256"
        }
      ],
      "name": "treeToAmbassadorBalancePerSecond",
      "outputs": [
        {
          "internalType": "uint256",
          "name": "",
          "type": "uint256"
        }
      ],
      "stateMutability": "view",
      "type": "function",
      "constant": true
    },
    {
      "inputs": [
        {
          "internalType": "uint256",
          "name": "",
          "type": "uint256"
        }
      ],
      "name": "treeToAmbassadorRemainingBalance",
      "outputs": [
        {
          "internalType": "uint256",
          "name": "",
          "type": "uint256"
        }
      ],
      "stateMutability": "view",
      "type": "function",
      "constant": true
    },
    {
      "inputs": [
        {
          "internalType": "uint256",
          "name": "",
          "type": "uint256"
        }
      ],
      "name": "treeToGB",
      "outputs": [
        {
          "internalType": "uint256",
          "name": "",
          "type": "uint256"
        }
      ],
      "stateMutability": "view",
      "type": "function",
      "constant": true
    },
    {
      "inputs": [
        {
          "internalType": "uint256",
          "name": "",
          "type": "uint256"
        }
      ],
      "name": "treeToPlanter",
      "outputs": [
        {
          "internalType": "address",
          "name": "",
          "type": "address"
        }
      ],
      "stateMutability": "view",
      "type": "function",
      "constant": true
    },
    {
      "inputs": [
        {
          "internalType": "uint256",
          "name": "",
          "type": "uint256"
        }
      ],
      "name": "treeToPlanterBalancePerSecond",
      "outputs": [
        {
          "internalType": "uint256",
          "name": "",
          "type": "uint256"
        }
      ],
      "stateMutability": "view",
      "type": "function",
      "constant": true
    },
    {
      "inputs": [
        {
          "internalType": "uint256",
          "name": "",
          "type": "uint256"
        }
      ],
      "name": "treeToPlanterRemainingBalance",
      "outputs": [
        {
          "internalType": "uint256",
          "name": "",
          "type": "uint256"
        }
      ],
      "stateMutability": "view",
      "type": "function",
      "constant": true
    },
    {
      "inputs": [
        {
          "internalType": "uint256",
          "name": "",
          "type": "uint256"
        }
      ],
      "name": "treeToType",
      "outputs": [
        {
          "internalType": "uint8",
          "name": "",
          "type": "uint8"
        }
      ],
      "stateMutability": "view",
      "type": "function",
      "constant": true
    },
    {
      "inputs": [
        {
          "internalType": "uint256",
          "name": "",
          "type": "uint256"
        }
      ],
      "name": "trees",
      "outputs": [
        {
          "internalType": "string",
          "name": "name",
          "type": "string"
        },
        {
          "internalType": "string",
          "name": "latitude",
          "type": "string"
        },
        {
          "internalType": "string",
          "name": "longitude",
          "type": "string"
        },
        {
          "internalType": "uint256",
          "name": "plantedDate",
          "type": "uint256"
        },
        {
          "internalType": "uint256",
          "name": "birthDate",
          "type": "uint256"
        },
        {
          "internalType": "uint256",
          "name": "fundedDate",
          "type": "uint256"
        },
        {
          "internalType": "uint8",
          "name": "height",
          "type": "uint8"
        },
        {
          "internalType": "uint8",
          "name": "diameter",
          "type": "uint8"
        }
      ],
      "stateMutability": "view",
      "type": "function",
      "constant": true
    },
    {
      "inputs": [
        {
          "internalType": "uint256",
          "name": "",
          "type": "uint256"
        }
      ],
      "name": "typeTreeCount",
      "outputs": [
        {
          "internalType": "uint256",
          "name": "",
          "type": "uint256"
        }
      ],
      "stateMutability": "view",
      "type": "function",
      "constant": true
    },
    {
      "inputs": [
        {
          "internalType": "uint256",
          "name": "",
          "type": "uint256"
        },
        {
          "internalType": "uint256",
          "name": "",
          "type": "uint256"
        }
      ],
      "name": "typeTrees",
      "outputs": [
        {
          "internalType": "uint256",
          "name": "",
          "type": "uint256"
        }
      ],
      "stateMutability": "view",
      "type": "function",
      "constant": true
    },
    {
      "inputs": [],
      "name": "updateFactory",
      "outputs": [
        {
          "internalType": "contract UpdateFactory",
          "name": "",
          "type": "address"
        }
      ],
      "stateMutability": "view",
      "type": "function",
      "constant": true
    },
    {
      "inputs": [
        {
          "internalType": "address",
          "name": "_accessRestrictionAddress",
          "type": "address"
        }
      ],
      "name": "initialize",
      "outputs": [],
      "stateMutability": "nonpayable",
      "type": "function"
    },
    {
      "inputs": [
        {
          "internalType": "address",
          "name": "_address",
          "type": "address"
        }
      ],
      "name": "setGBAddress",
      "outputs": [],
      "stateMutability": "nonpayable",
      "type": "function"
    },
    {
      "inputs": [
        {
          "internalType": "address",
          "name": "_address",
          "type": "address"
        }
      ],
      "name": "setUpdateFactoryAddress",
      "outputs": [],
      "stateMutability": "nonpayable",
      "type": "function"
    },
    {
      "inputs": [
        {
          "internalType": "uint8",
          "name": "_typeId",
          "type": "uint8"
        },
        {
          "internalType": "uint256",
          "name": "_gbId",
          "type": "uint256"
        },
        {
          "internalType": "string[]",
          "name": "_stringParams",
          "type": "string[]"
        },
        {
          "internalType": "uint8[]",
          "name": "_uintParams",
          "type": "uint8[]"
        }
      ],
      "name": "plant",
      "outputs": [],
      "stateMutability": "nonpayable",
      "type": "function"
    },
    {
      "inputs": [],
      "name": "getLastNotFundedTreeId",
      "outputs": [
        {
          "internalType": "uint256",
          "name": "",
          "type": "uint256"
        }
      ],
      "stateMutability": "view",
      "type": "function",
      "constant": true
    },
    {
      "inputs": [],
      "name": "notFundedTreesExists",
      "outputs": [
        {
          "internalType": "bool",
          "name": "",
          "type": "bool"
        }
      ],
      "stateMutability": "view",
      "type": "function",
      "constant": true
    },
    {
      "inputs": [],
      "name": "notPlantedTreesExists",
      "outputs": [
        {
          "internalType": "bool",
          "name": "",
          "type": "bool"
        }
      ],
      "stateMutability": "view",
      "type": "function",
      "constant": true
    },
    {
      "inputs": [
        {
          "internalType": "address",
          "name": "_account",
          "type": "address"
        }
      ],
      "name": "ownerTreesCount",
      "outputs": [
        {
          "internalType": "uint256",
          "name": "",
          "type": "uint256"
        }
      ],
      "stateMutability": "view",
      "type": "function",
      "constant": true
    },
    {
      "inputs": [
        {
          "internalType": "uint256",
          "name": "_treeId",
          "type": "uint256"
        }
      ],
      "name": "treeOwner",
      "outputs": [
        {
          "internalType": "address",
          "name": "",
          "type": "address"
        }
      ],
      "stateMutability": "view",
      "type": "function",
      "constant": true
    },
    {
      "inputs": [
        {
          "internalType": "address",
          "name": "_account",
          "type": "address"
        }
      ],
      "name": "getOwnerTrees",
      "outputs": [
        {
          "internalType": "uint256[]",
          "name": "",
          "type": "uint256[]"
        }
      ],
      "stateMutability": "view",
      "type": "function",
      "constant": true
    },
    {
      "inputs": [
        {
          "internalType": "uint256",
          "name": "_price",
          "type": "uint256"
        }
      ],
      "name": "setPrice",
      "outputs": [],
      "stateMutability": "nonpayable",
      "type": "function"
    },
    {
      "inputs": [
        {
          "internalType": "uint256",
          "name": "_count",
          "type": "uint256"
        }
      ],
      "name": "fund",
      "outputs": [],
      "stateMutability": "payable",
      "type": "function",
      "payable": true
    },
    {
      "inputs": [],
      "name": "getBalances",
      "outputs": [
        {
          "internalType": "uint256[6]",
          "name": "",
          "type": "uint256[6]"
        }
      ],
      "stateMutability": "view",
      "type": "function",
      "constant": true
    },
    {
      "inputs": [
        {
          "internalType": "uint8",
          "name": "_index",
          "type": "uint8"
        },
        {
          "internalType": "address payable",
          "name": "_to",
          "type": "address"
        }
      ],
      "name": "withdrawBalance",
      "outputs": [],
      "stateMutability": "nonpayable",
      "type": "function"
    },
    {
      "inputs": [],
      "name": "withdrawPlanterBalance",
      "outputs": [],
      "stateMutability": "nonpayable",
      "type": "function"
    },
    {
      "inputs": [],
      "name": "withdrawAmbassadorBalance",
      "outputs": [],
      "stateMutability": "nonpayable",
      "type": "function"
    }
  ],
  "bytecode": "0x608060405234801561001057600080fd5b50615211806100206000396000f3fe60806040526004361061034f5760003560e01c806376cdc267116101c6578063c11496c7116100f7578063e0eb4eb911610095578063ea9fd4d51161006f578063ea9fd4d51461099d578063f4d7935b146109bd578063f99a5d11146109d2578063fb5b3dfd146109e75761034f565b8063e0eb4eb914610948578063e2eefc791461095d578063e985e9c51461097d5761034f565b8063ca1d209d116100d1578063ca1d209d146108d3578063cfb2b3fe146108e6578063d6762c4a14610913578063dfbe2225146109285761034f565b8063c11496c71461087e578063c4d66de814610893578063c87b56dd146108b35761034f565b80639fe0279511610164578063a8bd11661161013e578063a8bd1166146107fe578063b52a61be1461081e578063b88d4fde1461083e578063bef474451461085e5761034f565b80639fe02795146107a9578063a035b1fe146107c9578063a22cb465146107de5761034f565b806386897ad8116101a057806386897ad81461073f57806391b7f5ed1461075f57806395d89b411461077f57806398f5fa3b146107945761034f565b806376cdc267146106cb5780637a508022146106eb5780638493b3501461071f5761034f565b806335939c58116102a05780635a025a861161023e5780636265e0d8116102185780636265e0d8146106615780636352211e146106765780636c0360eb1461069657806370a08231146106ab5761034f565b80635a025a86146106015780635e8271221461062157806360cd0303146106415761034f565b80634903b0d11161027a5780634903b0d11461058c5780634b8ef4f5146105ac5780634ce958bb146105c15780634f6ccce7146105e15761034f565b806335939c581461051f57806342842e0e1461054c5780634875f9d71461056c5761034f565b8063095ea7b31161030d57806318dfed71116102e757806318dfed711461049f57806323b872dd146104bf5780632b79e732146104df5780632f745c59146104ff5761034f565b8063095ea7b31461043d5780630d4c055a1461045d57806318160ddd1461047d5761034f565b8062113e081461035457806301ffc9a71461037f57806305f4bb61146103ac57806306fdde03146103ce57806307ff3723146103f0578063081812fc1461041d575b600080fd5b34801561036057600080fd5b506103696109fc565b6040516103769190614838565b60405180910390f35b34801561038b57600080fd5b5061039f61039a366004614574565b610a39565b60405161037691906148ad565b3480156103b857600080fd5b506103cc6103c7366004614300565b610a5c565b005b3480156103da57600080fd5b506103e3610b5e565b60405161037691906148b8565b3480156103fc57600080fd5b5061041061040b3660046145ac565b610beb565b60405161037691906147ce565b34801561042957600080fd5b506104106104383660046145ac565b610c06565b34801561044957600080fd5b506103cc610458366004614495565b610c52565b34801561046957600080fd5b506104106104783660046145ac565b610cea565b34801561048957600080fd5b50610492610cfb565b604051610376919061501e565b3480156104ab57600080fd5b506104926104ba3660046145ac565b610d0c565b3480156104cb57600080fd5b506103cc6104da366004614370565b610d1e565b3480156104eb57600080fd5b506104926104fa3660046145ac565b610d56565b34801561050b57600080fd5b5061049261051a366004614495565b610d68565b34801561052b57600080fd5b5061053f61053a366004614300565b610d97565b6040516103769190614869565b34801561055857600080fd5b506103cc610567366004614370565b610e43565b34801561057857600080fd5b506104926105873660046145ac565b610e5e565b34801561059857600080fd5b506104926105a73660046145ac565b610e70565b3480156105b857600080fd5b50610492610e84565b3480156105cd57600080fd5b506104926105dc366004614495565b610e99565b3480156105ed57600080fd5b506104926105fc3660046145ac565b610ec7565b34801561060d57600080fd5b506103cc61061c366004614635565b610edb565b34801561062d57600080fd5b5061049261063c3660046145ac565b610fd4565b34801561064d57600080fd5b5061049261065c3660046145ac565b610fe6565b34801561066d57600080fd5b50610410610ff8565b34801561068257600080fd5b506104106106913660046145ac565b611007565b3480156106a257600080fd5b506103e3611035565b3480156106b757600080fd5b506104926106c6366004614300565b611096565b3480156106d757600080fd5b506104926106e63660046145dc565b6110df565b3480156106f757600080fd5b5061070b6107063660046145ac565b6110f8565b6040516103769897969594939291906148cb565b34801561072b57600080fd5b5061049261073a366004614300565b6112fd565b34801561074b57600080fd5b5061049261075a366004614300565b61130f565b34801561076b57600080fd5b506103cc61077a3660046145ac565b61131a565b34801561078b57600080fd5b506103e36113ba565b3480156107a057600080fd5b5061041061141b565b3480156107b557600080fd5b506104926107c43660046145ac565b61142a565b3480156107d557600080fd5b5061049261143c565b3480156107ea57600080fd5b506103cc6107f9366004614468565b611442565b34801561080a57600080fd5b506104926108193660046145ac565b611510565b34801561082a57600080fd5b506104926108393660046145ac565b611522565b34801561084a57600080fd5b506103cc6108593660046143b0565b611534565b34801561086a57600080fd5b506103cc610879366004614300565b611573565b34801561088a57600080fd5b506103cc611675565b34801561089f57600080fd5b506103cc6108ae366004614300565b611d9a565b3480156108bf57600080fd5b506103e36108ce3660046145ac565b611f09565b6103cc6108e13660046145ac565b612053565b3480156108f257600080fd5b506109066109013660046145ac565b61220c565b60405161037691906150a2565b34801561091f57600080fd5b50610410612221565b34801561093457600080fd5b506103cc610943366004614652565b612230565b34801561095457600080fd5b5061039f6128eb565b34801561096957600080fd5b506104926109783660046145dc565b6128f4565b34801561098957600080fd5b5061039f610998366004614338565b61290d565b3480156109a957600080fd5b506104926109b83660046145ac565b61293b565b3480156109c957600080fd5b506103cc61294d565b3480156109de57600080fd5b5061039f6131bd565b3480156109f357600080fd5b5061039f6131c7565b610a0461416d565b6040805160c08101918290529060df9060069082845b815481526020019060010190808311610a1a575b505050505090505b90565b6001600160e01b0319811660009081526065602052604090205460ff165b919050565b60e554604051632104fb0560e21b81526001600160a01b0390911690638413ec1490610a8c9033906004016147ce565b60006040518083038186803b158015610aa457600080fd5b505afa158015610ab8573d6000803e3d6000fd5b505050506000819050806001600160a01b0316634cff2b0f6040518163ffffffff1660e01b815260040160206040518083038186803b158015610afa57600080fd5b505afa158015610b0e573d6000803e3d6000fd5b505050506040513d601f19601f82011682018060405250810190610b329190614558565b610b3b57600080fd5b60e680546001600160a01b0319166001600160a01b039290921691909117905550565b609c8054604080516020601f6002600019610100600188161502019095169490940493840181900481028201810190925282815260609390929091830182828015610a2e5780601f10610bbf57610100808354040283529160200191610a2e565b820191906000526020600020905b815481529060010190602001808311610bcd57509395945050505050565b60d4602052600090815260409020546001600160a01b031681565b6000610c11826131d1565b610c365760405162461bcd60e51b8152600401610c2d90614dec565b60405180910390fd5b506000908152609a60205260409020546001600160a01b031690565b6000610c5d82611007565b9050806001600160a01b0316836001600160a01b03161415610c915760405162461bcd60e51b8152600401610c2d90614f55565b806001600160a01b0316610ca36131e4565b6001600160a01b03161480610cbf5750610cbf816109986131e4565b610cdb5760405162461bcd60e51b8152600401610c2d90614c97565b610ce583836131e8565b505050565b6000610cf582611007565b92915050565b6000610d076098613256565b905090565b60cc6020526000908152604090205481565b610d2f610d296131e4565b82613261565b610d4b5760405162461bcd60e51b8152600401610c2d90614fcd565b610ce58383836132e6565b60d86020526000908152604090205481565b6001600160a01b0382166000908152609760205260408120610d90908363ffffffff61340616565b9392505050565b60606000610da483611096565b905080610dc1575050604080516000815260208101909152610a57565b60608167ffffffffffffffff81118015610dda57600080fd5b50604051908082528060200260200182016040528015610e04578160200160208202803683370190505b50905060005b82811015610e3b57610e1c8582610d68565b828281518110610e2857fe5b6020908102919091010152600101610e0a565b509392505050565b610ce583838360405180602001604052806000815250611534565b60dd6020526000908152604090205481565b60df8160068110610e7d57fe5b0154905081565b60ce54600090815260cc602052604090205490565b60d66020528160005260406000208181548110610eb257fe5b90600052602060002001600091509150505481565b600080610e3b60988463ffffffff61341216565b60e554604051632104fb0560e21b81526001600160a01b0390911690638413ec1490610f0b9033906004016147ce565b60006040518083038186803b158015610f2357600080fd5b505afa158015610f37573d6000803e3d6000fd5b505050508160ff16600114158015610f5357508160ff16600214155b610f6f5760405162461bcd60e51b8152600401610c2d90614c03565b600060df8360ff1660068110610f8157fe5b015411610fa05760405162461bcd60e51b8152600401610c2d90614c6d565b600060df8360ff1660068110610fb257fe5b01549050600060df8460ff1660068110610fc857fe5b0155610ce58282613430565b60d36020526000908152604090205481565b60d76020526000908152604090205481565b60e6546001600160a01b031681565b6000610cf5826040518060600160405280602981526020016151b3602991396098919063ffffffff6134cc16565b609f8054604080516020601f6002600019610100600188161502019095169490940493840181900481028201810190925282815260609390929091830182828015610a2e5780601f10610bbf57610100808354040283529160200191610a2e565b60006001600160a01b0382166110be5760405162461bcd60e51b8152600401610c2d90614cf4565b6001600160a01b0382166000908152609760205260409020610cf590613256565b60da6020528160005260406000208181548110610eb257fe5b60ca818154811061110557fe5b60009182526020918290206007919091020180546040805160026001841615610100026000190190931692909204601f81018590048502830185019091528082529193509183919083018282801561119e5780601f106111735761010080835404028352916020019161119e565b820191906000526020600020905b81548152906001019060200180831161118157829003601f168201915b505050505090806001018054600181600116156101000203166002900480601f01602080910402602001604051908101604052809291908181526020018280546001816001161561010002031660029004801561123c5780601f106112115761010080835404028352916020019161123c565b820191906000526020600020905b81548152906001019060200180831161121f57829003601f168201915b50505060028085018054604080516020601f60001961010060018716150201909416959095049283018590048502810185019091528181529596959450909250908301828280156112ce5780601f106112a3576101008083540402835291602001916112ce565b820191906000526020600020905b8154815290600101906020018083116112b157829003601f168201915b505050506003830154600484015460058501546006909501549394919390925060ff8082169161010090041688565b60d56020526000908152604090205481565b6000610cf582611096565b60e554604051632104fb0560e21b81526001600160a01b0390911690638413ec149061134a9033906004016147ce565b60006040518083038186803b15801561136257600080fd5b505afa158015611376573d6000803e3d6000fd5b50505060cb829055506040517fa6dc15bdb68da224c66db4b3838d9a2b205138e8cff6774e57d0af91e196d622906113af90839061501e565b60405180910390a150565b609d8054604080516020601f6002600019610100600188161502019095169490940493840181900481028201810190925282815260609390929091830182828015610a2e5780601f10610bbf57610100808354040283529160200191610a2e565b60e7546001600160a01b031681565b60db6020526000908152604090205481565b60cb5481565b61144a6131e4565b6001600160a01b0316826001600160a01b0316141561147b5760405162461bcd60e51b8152600401610c2d90614aec565b80609b60006114886131e4565b6001600160a01b03908116825260208083019390935260409182016000908120918716808252919093529120805460ff1916921515929092179091556114cc6131e4565b6001600160a01b03167f17307eab39ab6107e8899845ad3d59bd9653f200f220920489ca2b5937696c318360405161150491906148ad565b60405180910390a35050565b60dc6020526000908152604090205481565b60cf6020526000908152604090205481565b61154561153f6131e4565b83613261565b6115615760405162461bcd60e51b8152600401610c2d90614fcd565b61156d848484846134d9565b50505050565b60e554604051632104fb0560e21b81526001600160a01b0390911690638413ec14906115a39033906004016147ce565b60006040518083038186803b1580156115bb57600080fd5b505afa1580156115cf573d6000803e3d6000fd5b505050506000819050806001600160a01b031663edbe8d4e6040518163ffffffff1660e01b815260040160206040518083038186803b15801561161157600080fd5b505afa158015611625573d6000803e3d6000fd5b505050506040513d601f19601f820116820180604052508101906116499190614558565b61165257600080fd5b60e780546001600160a01b0319166001600160a01b039290921691909117905550565b60e554604051636dc1ccab60e01b81526001600160a01b0390911690636dc1ccab906116a59033906004016147ce565b60006040518083038186803b1580156116bd57600080fd5b505afa1580156116d1573d6000803e3d6000fd5b505033600090815260d56020526040902054915050806117035760405162461bcd60e51b8152600401610c2d90614db5565b33600090815260d660209081526040808320805482518185028101850190935280835260609383018282801561175857602002820191906000526020600020905b815481526020019060010190808311611744575b50939450600093505050505b83811015611d2857600082828151811061177a57fe5b602090810291909101015160e7546040516313e7cb0960e31b81529192506060916001600160a01b0390911690639f3e5848906117bb90859060040161501e565b60006040518083038186803b1580156117d357600080fd5b505afa1580156117e7573d6000803e3d6000fd5b505050506040513d6000823e601f3d908101601f1916820160405261180f91908101906144c0565b600083815260db60205260408120549192509061182e57505050611d20565b815161183c57505050611d20565b60e75460405163e31bd1b760e01b81526001600160a01b039091169063e31bd1b79061186c90869060040161501e565b60206040518083038186803b15801561188457600080fd5b505afa158015611898573d6000803e3d6000fd5b505050506040513d601f19601f820116820180604052508101906118bc9190614558565b1515600114156118ce57505050611d20565b81515b8015611cea5760008360018303815181106118e857fe5b602090810291909101015160e754604051632e31150760e11b81529192506001600160a01b031690635c622a0e9061192490849060040161501e565b60206040518083038186803b15801561193c57600080fd5b505afa158015611950573d6000803e3d6000fd5b505050506040513d601f19601f820116820180604052508101906119749190614619565b60ff166001146119845750611ce1565b60e754604051635389821160e11b81526001600160a01b039091169063a7130422906119b490849060040161501e565b60206040518083038186803b1580156119cc57600080fd5b505afa1580156119e0573d6000803e3d6000fd5b505050506040513d601f19601f82011682018060405250810190611a049190614558565b151560011415611a145750611ce1565b6001821115611bd6576000846002840381518110611a2e57fe5b602090810291909101015160e754604051632e31150760e11b81529192506001600160a01b031690635c622a0e90611a6a90849060040161501e565b60206040518083038186803b158015611a8257600080fd5b505afa158015611a96573d6000803e3d6000fd5b505050506040513d601f19601f82011682018060405250810190611aba9190614619565b60ff16600114611acb575050611ce1565b60e7546040516333f1941160e01b81526001600160a01b03909116906333f1941190611afb90849060040161501e565b60206040518083038186803b158015611b1357600080fd5b505afa158015611b27573d6000803e3d6000fd5b505050506040513d601f19601f82011682018060405250810190611b4b91906145c4565b60e7546040516333f1941160e01b81526001600160a01b03909116906333f1941190611b7b90869060040161501e565b60206040518083038186803b158015611b9357600080fd5b505afa158015611ba7573d6000803e3d6000fd5b505050506040513d601f19601f82011682018060405250810190611bcb91906145c4565b850103935050611c7d565b60ca8581548110611be357fe5b600091825260209091206003600790920201015460e7546040516333f1941160e01b81526001600160a01b03909116906333f1941190611c2790859060040161501e565b60206040518083038186803b158015611c3f57600080fd5b505afa158015611c53573d6000803e3d6000fd5b505050506040513d601f19601f82011682018060405250810190611c7791906145c4565b84010392505b60e754604051639273ca0f60e01b81526001600160a01b0390911690639273ca0f90611cad90849060040161501e565b600060405180830381600087803b158015611cc757600080fd5b505af1158015611cdb573d6000803e3d6000fd5b50505050505b600019016118d1565b508015611d1c57600083815260dc602090815260408083205460db909252909120805491830291829003905595909501945b5050505b600101611764565b5060008211611d495760405162461bcd60e51b8152600401610c2d90614f96565b60e080548390039055611d5c3383613430565b7f904f6efa098ad71916df8db0841744bccf6de28374ac90cef4b36b9d8a35e4453383604051611d8d92919061481f565b60405180910390a1505050565b600054610100900460ff1680611db35750611db361350c565b80611dc1575060005460ff16155b611ddd5760405162461bcd60e51b8152600401610c2d90614e6f565b600054610100900460ff16158015611e08576000805460ff1961ff0019909116610100171660011790555b60c9805460ff191660011790556040805180820182526004808252635472656560e01b6020808401919091528351808501909452908352635452454560e01b90830152611e5491613512565b6000829050806001600160a01b031663ba84fd696040518163ffffffff1660e01b815260040160206040518083038186803b158015611e9257600080fd5b505afa158015611ea6573d6000803e3d6000fd5b505050506040513d601f19601f82011682018060405250810190611eca9190614558565b611ed357600080fd5b60e580546001600160a01b0319166001600160a01b03929092169190911790558015611f05576000805461ff00191690555b5050565b6060611f14826131d1565b611f305760405162461bcd60e51b8152600401610c2d90614f06565b6000828152609e602090815260409182902080548351601f6002600019610100600186161502019093169290920491820184900484028101840190945280845260609392830182828015611fc55780601f10611f9a57610100808354040283529160200191611fc5565b820191906000526020600020905b815481529060010190602001808311611fa857829003601f168201915b5050609f5493945050505060026000196101006001841615020190911604611fee579050610a57565b80511561202057609f8160405160200161200992919061474d565b604051602081830303815290604052915050610a57565b609f61202b846135b0565b60405160200161203c92919061474d565b604051602081830303815290604052915050919050565b600081348161205e57fe5b04905060cb548110156120835760405162461bcd60e51b8152600401610c2d9061497a565b60005b828160ff161015610ce55760008061209f60288561368b565b90506000806120ac6131bd565b15156001141561219a576120be610e84565b600081815260d360205260408082205460e65491516363b308ff60e11b8152939750926001600160a01b039091169063c76611fe9061210190859060040161501e565b60206040518083038186803b15801561211957600080fd5b505afa15801561212d573d6000803e3d6000fd5b505050506040513d601f19601f82011682018060405250810190612151919061431c565b90506001600160a01b03811615612174576001925061217160058961368b565b93505b612191338661218288613693565b8761218c89613693565b6136ad565b955050506121b3565b6121b033846121a886613693565b600080613790565b93505b6121bd868261396f565b7f9681ab8e09ad40146a520b55501382d4b0ab62944580202d102da0fcf505355584848489336040516121f4959493929190615076565b60405180910390a15050600190920191506120869050565b60d26020526000908152604090205460ff1681565b60e5546001600160a01b031681565b60e560009054906101000a90046001600160a01b03166001600160a01b0316634d868f986040518163ffffffff1660e01b815260040160006040518083038186803b15801561227e57600080fd5b505afa158015612292573d6000803e3d6000fd5b505060e554604051636dc1ccab60e01b81526001600160a01b039091169250636dc1ccab91506122c69033906004016147ce565b60006040518083038186803b1580156122de57600080fd5b505afa1580156122f2573d6000803e3d6000fd5b5050505060008090506123036131c7565b15156001141561251c575060d18054600081815260cf6020526040812054600190920190925590859085908161233557fe5b905060200281019061234791906150b0565b60ca838154811061235457fe5b6000918252602090912061236e936007909202019161418b565b508484600181811061237c57fe5b905060200281019061238e91906150b0565b60ca838154811061239b57fe5b906000526020600020906007020160010191906123b992919061418b565b50848460028181106123c757fe5b90506020028101906123d991906150b0565b60ca83815481106123e657fe5b9060005260206000209060070201600201919061240492919061418b565b504260ca828154811061241357fe5b9060005260206000209060070201600301819055504260ca828154811061243657fe5b9060005260206000209060070201600401819055508282600081811061245857fe5b905060200201602081019061246d91906145fd565b60ca828154811061247a57fe5b906000526020600020906007020160060160006101000a81548160ff021916908360ff160217905550828260018181106124b057fe5b90506020020160208101906124c591906145fd565b60ca82815481106124d257fe5b906000526020600020906007020160060160016101000a81548160ff021916908360ff16021790555060cf6000600160d15403815260200190815260200160002060009055612783565b60ca6040518061010001604052808787600081811061253757fe5b905060200281019061254991906150b0565b8080601f0160208091040260200160405190810160405280939291908181526020018383808284376000920191909152505050908252506020018787600181811061259057fe5b90506020028101906125a291906150b0565b8080601f016020809104026020016040519081016040528093929190818152602001838380828437600092019190915250505090825250602001878760028181106125e957fe5b90506020028101906125fb91906150b0565b8080601f01602080910402602001604051908101604052809392919081815260200183838082843760009201829052509385525050426020840181905260408401525060608201819052608090910190869086908161265657fe5b905060200201602081019061266b91906145fd565b60ff1681526020018585600181811061268057fe5b905060200201602081019061269591906145fd565b60ff169052815460018101835560009283526020928390208251805193946007909302909101926126c99284920190614209565b5060208281015180516126e29260018501920190614209565b50604082015180516126fe916002840191602090910190614209565b50606082015160038201556080820151600482015560a0820151600582015560c08201516006909101805460e09093015160ff9081166101000261ff00199190931660ff1990941693909317929092161790555060ca5460cd8054600090815260cc602052604090206000199290920191829055805460010190556127833382613a17565b600081815260d36020908152604080832089905588835260d882528083208054600190810190915560d98352818420805480830182559085528385200185905584845260d28352818420805460ff8d1660ff199091168117909155845260d7835281842080548201905560da8352818420805480830182559085528385200185905584845260d4835281842080546001600160a01b03191633908117909155845260d5835281842080548201905560d68352908320805491820181558352908220018290557f657b7bbf1c4d4c6c5d41c6a778cfa25dc8c1fa0e44b17cc1eb0b5ddba0093887908290879087908161287757fe5b905060200281019061288991906150b0565b8888600181811061289657fe5b90506020028101906128a891906150b0565b8a8a60028181106128b557fe5b90506020028101906128c791906150b0565b6040516128da9796959493929190615027565b60405180910390a150505050505050565b60c95460ff1681565b60d96020528160005260406000208181548110610eb257fe5b6001600160a01b039182166000908152609b6020908152604080832093909416825291909152205460ff1690565b60de6020526000908152604090205481565b60e55460405163dac4d45360e01b81526001600160a01b039091169063dac4d4539061297d9033906004016147ce565b60006040518083038186803b15801561299557600080fd5b505afa1580156129a9573d6000803e3d6000fd5b505060e6546040516304024f3760e41b8152600093506001600160a01b039091169150634024f370906129e09033906004016147ce565b60206040518083038186803b1580156129f857600080fd5b505afa158015612a0c573d6000803e3d6000fd5b505050506040513d601f19601f82011682018060405250810190612a3091906145c4565b905060008111612a525760405162461bcd60e51b8152600401610c2d90614a71565b60e6546040516322d8a98960e11b81526060916001600160a01b0316906345b1531290612a839033906004016147ce565b60006040518083038186803b158015612a9b57600080fd5b505afa158015612aaf573d6000803e3d6000fd5b505050506040513d6000823e601f3d908101601f19168201604052612ad791908101906144c0565b90506000805b83811015613158576000838281518110612af357fe5b60200260200101519050600060d860008381526020019081526020016000205490508060001415612b25575050613150565b600082815260d96020908152604091829020805483518184028101840190945280845260609392830182828015612b7b57602002820191906000526020600020905b815481526020019060010190808311612b67575b50939450600093505050505b8281101561314b576000828281518110612b9d57fe5b602090810291909101015160e7546040516313e7cb0960e31b81529192506060916001600160a01b0390911690639f3e584890612bde90859060040161501e565b60006040518083038186803b158015612bf657600080fd5b505afa158015612c0a573d6000803e3d6000fd5b505050506040513d6000823e601f3d908101601f19168201604052612c3291908101906144c0565b600083815260dd602052604081205491925090612c5157505050613143565b8151612c5f57505050613143565b60e7546040516306a2b4fd60e01b81526001600160a01b03909116906306a2b4fd90612c8f90869060040161501e565b60206040518083038186803b158015612ca757600080fd5b505afa158015612cbb573d6000803e3d6000fd5b505050506040513d601f19601f82011682018060405250810190612cdf9190614558565b151560011415612cf157505050613143565b81515b801561310d576000836001830381518110612d0b57fe5b602090810291909101015160e754604051632e31150760e11b81529192506001600160a01b031690635c622a0e90612d4790849060040161501e565b60206040518083038186803b158015612d5f57600080fd5b505afa158015612d73573d6000803e3d6000fd5b505050506040513d601f19601f82011682018060405250810190612d979190614619565b60ff16600114612da75750613104565b60e7546040516328ef84b160e11b81526001600160a01b03909116906351df096290612dd790849060040161501e565b60206040518083038186803b158015612def57600080fd5b505afa158015612e03573d6000803e3d6000fd5b505050506040513d601f19601f82011682018060405250810190612e279190614558565b151560011415612e375750613104565b6001821115612ff9576000846002840381518110612e5157fe5b602090810291909101015160e754604051632e31150760e11b81529192506001600160a01b031690635c622a0e90612e8d90849060040161501e565b60206040518083038186803b158015612ea557600080fd5b505afa158015612eb9573d6000803e3d6000fd5b505050506040513d601f19601f82011682018060405250810190612edd9190614619565b60ff16600114612eee575050613104565b60e7546040516333f1941160e01b81526001600160a01b03909116906333f1941190612f1e90849060040161501e565b60206040518083038186803b158015612f3657600080fd5b505afa158015612f4a573d6000803e3d6000fd5b505050506040513d601f19601f82011682018060405250810190612f6e91906145c4565b60e7546040516333f1941160e01b81526001600160a01b03909116906333f1941190612f9e90869060040161501e565b60206040518083038186803b158015612fb657600080fd5b505afa158015612fca573d6000803e3d6000fd5b505050506040513d601f19601f82011682018060405250810190612fee91906145c4565b8501039350506130a0565b60ca858154811061300657fe5b600091825260209091206003600790920201015460e7546040516333f1941160e01b81526001600160a01b03909116906333f194119061304a90859060040161501e565b60206040518083038186803b15801561306257600080fd5b505afa158015613076573d6000803e3d6000fd5b505050506040513d601f19601f8201168201806040525081019061309a91906145c4565b84010392505b60e75460405163fc221e1360e01b81526001600160a01b039091169063fc221e13906130d090849060040161501e565b600060405180830381600087803b1580156130ea57600080fd5b505af11580156130fe573d6000803e3d6000fd5b50505050505b60001901612cf4565b50801561313f57600083815260de602090815260408083205460dd909252909120805491830291829003905598909801975b5050505b600101612b87565b505050505b600101612add565b50600081116131795760405162461bcd60e51b8152600401610c2d90614f96565b60e18054829003905561318c3382613430565b7f46d3ec67d736e34f6c5652d7a86f6aaab1a156c42c2bffa6adb8cb78f12520433382604051611d8d92919061481f565b60ce5460cd541190565b60d15460d0541190565b6000610cf560988363ffffffff613ae716565b3390565b6000818152609a6020526040902080546001600160a01b0319166001600160a01b038416908117909155819061321d82611007565b6001600160a01b03167f8c5be1e5ebec7d5bd14f71427d1e84f3dd0314c0f7b2291e5b200ac8c7c3b92560405160405180910390a45050565b6000610cf582613af3565b600061326c826131d1565b6132885760405162461bcd60e51b8152600401610c2d90614bb7565b600061329383611007565b9050806001600160a01b0316846001600160a01b031614806132ce5750836001600160a01b03166132c384610c06565b6001600160a01b0316145b806132de57506132de818561290d565b949350505050565b826001600160a01b03166132f982611007565b6001600160a01b03161461331f5760405162461bcd60e51b8152600401610c2d90614ebd565b6001600160a01b0382166133455760405162461bcd60e51b8152600401610c2d90614aa8565b613350838383610ce5565b61335b6000826131e8565b6001600160a01b0383166000908152609760205260409020613383908263ffffffff613af716565b506001600160a01b03821660009081526097602052604090206133ac908263ffffffff613b0316565b506133bf6098828463ffffffff613b0f16565b5080826001600160a01b0316846001600160a01b03167fddf252ad1be2c89b69c2b068fc378daa952ba7f163c4a11628f55a4df523b3ef60405160405180910390a4505050565b6000610d908383613b25565b60008080806134218686613b6a565b909450925050505b9250929050565b804710156134505760405162461bcd60e51b8152600401610c2d90614b80565b6000826001600160a01b03168260405161346990610a36565b60006040518083038185875af1925050503d80600081146134a6576040519150601f19603f3d011682016040523d82523d6000602084013e6134ab565b606091505b5050905080610ce55760405162461bcd60e51b8152600401610c2d90614b23565b60006132de848484613bc6565b6134e48484846132e6565b6134f084848484613c25565b61156d5760405162461bcd60e51b8152600401610c2d906149b1565b303b1590565b600054610100900460ff168061352b575061352b61350c565b80613539575060005460ff16155b6135555760405162461bcd60e51b8152600401610c2d90614e6f565b600054610100900460ff16158015613580576000805460ff1961ff0019909116610100171660011790555b613588613d5f565b613590613de2565b61359a8383613e60565b8015610ce5576000805461ff0019169055505050565b6060816135d557506040805180820190915260018152600360fc1b6020820152610a57565b8160005b81156135ed57600101600a820491506135d9565b60608167ffffffffffffffff8111801561360657600080fd5b506040519080825280601f01601f191660200182016040528015613631576020820181803683370190505b50859350905060001982015b831561368257600a840660300160f81b8282806001900393508151811061366057fe5b60200101906001600160f81b031916908160001a905350600a8404935061363d565b50949350505050565b606491020490565b6000816136a257506000610a57565b506305a39a80900490565b60006136b76131bd565b6136d35760405162461bcd60e51b8152600401610c2d90614e38565b60ce8054600081815260cc6020526040902054600190910190915560ca8054429190839081106136ff57fe5b6000918252602090912060056007909202010155851561373857600081815260db6020908152604080832089905560dc90915290208590555b831561375d57600081815260dd6020908152604080832087905560de90915290208390555b61377061376982611007565b88836132e6565b60ce5460001901600090815260cc60205260408120559695505050505050565b604080518082018252601781527f7479706573206e616d652074726565732e6c656e67746800000000000000000060208083019190915282516101008101845282815283518083018552600080825282840191909152845180840186528181529482019490945260608101849052608081018490524260a082015260c0810184905260e0810184905260ca805460018101825590855281518051929360079092027f42d72674974f694b5f5159593243114d38a5c39c89d6b62fee061ff523240ee101926138619284920190614209565b50602082810151805161387a9260018501920190614209565b5060408201518051613896916002840191602090910190614209565b50606082015160038201556080820151600482015560a0820151600582015560c08201516006909101805460e09093015160ff9081166101000261ff00199190931660ff19909416939093179290921617905560ca5460d08054600090815260cf60205260409020600019929092019182905580546001019055861561393557600081815260db602090815260408083208a905560dc90915290208690555b841561395a57600081815260dd6020908152604080832088905560de90915290208490555b6139648882613a17565b979650505050505050565b600061397c600f8461368b565b9050600061398b60058561368b565b905082613996575060005b6040518060c001604052806139ac60198761368b565b60df540181526020016139c060288761368b565b60e05401815260e1548301602082015260e254840160408201526060016139e8600a8761368b565b60e3540181526020016139fc60058761368b565b60e454019052613a109060df906006614277565b5050505050565b6001600160a01b038216613a3d5760405162461bcd60e51b8152600401610c2d90614d80565b613a46816131d1565b15613a635760405162461bcd60e51b8152600401610c2d90614a3a565b613a6f60008383610ce5565b6001600160a01b0382166000908152609760205260409020613a97908263ffffffff613b0316565b50613aaa6098828463ffffffff613b0f16565b5060405181906001600160a01b038416906000907fddf252ad1be2c89b69c2b068fc378daa952ba7f163c4a11628f55a4df523b3ef908290a45050565b6000610d908383613f26565b5490565b6000610d908383613f3e565b6000610d908383614004565b60006132de84846001600160a01b03851661404e565b81546000908210613b485760405162461bcd60e51b8152600401610c2d90614938565b826000018281548110613b5757fe5b9060005260206000200154905092915050565b815460009081908310613b8f5760405162461bcd60e51b8152600401610c2d90614d3e565b6000846000018481548110613ba057fe5b906000526020600020906002020190508060000154816001015492509250509250929050565b60008281526001840160205260408120548281613bf65760405162461bcd60e51b8152600401610c2d91906148b8565b50846000016001820381548110613c0957fe5b9060005260206000209060020201600101549150509392505050565b6000613c39846001600160a01b03166140e5565b613c45575060016132de565b600060606001600160a01b038616630a85bd0160e11b613c636131e4565b898888604051602401613c7994939291906147e2565b60408051601f198184030181529181526020820180516001600160e01b03166001600160e01b0319909416939093179092529051613cb79190614731565b6000604051808303816000865af19150503d8060008114613cf4576040519150601f19603f3d011682016040523d82523d6000602084013e613cf9565b606091505b509150915081613d2b57805115613d135780518082602001fd5b60405162461bcd60e51b8152600401610c2d906149b1565b600081806020019051810190613d419190614590565b6001600160e01b031916630a85bd0160e11b1493506132de92505050565b600054610100900460ff1680613d785750613d7861350c565b80613d86575060005460ff16155b613da25760405162461bcd60e51b8152600401610c2d90614e6f565b600054610100900460ff16158015613dcd576000805460ff1961ff0019909116610100171660011790555b8015613ddf576000805461ff00191690555b50565b600054610100900460ff1680613dfb5750613dfb61350c565b80613e09575060005460ff16155b613e255760405162461bcd60e51b8152600401610c2d90614e6f565b600054610100900460ff16158015613e50576000805460ff1961ff0019909116610100171660011790555b613dcd6301ffc9a760e01b61411e565b600054610100900460ff1680613e795750613e7961350c565b80613e87575060005460ff16155b613ea35760405162461bcd60e51b8152600401610c2d90614e6f565b600054610100900460ff16158015613ece576000805460ff1961ff0019909116610100171660011790555b8251613ee190609c906020860190614209565b508151613ef590609d906020850190614209565b50613f066380ac58cd60e01b61411e565b613f16635b5e139f60e01b61411e565b61359a63780e9d6360e01b61411e565b60009081526001919091016020526040902054151590565b60008181526001830160205260408120548015613ffa5783546000198083019190810190600090879083908110613f7157fe5b9060005260206000200154905080876000018481548110613f8e57fe5b600091825260208083209091019290925582815260018981019092526040902090840190558654879080613fbe57fe5b60019003818190600052602060002001600090559055866001016000878152602001908152602001600020600090556001945050505050610cf5565b6000915050610cf5565b60006140108383613f26565b61404657508154600181810184556000848152602080822090930184905584548482528286019093526040902091909155610cf5565b506000610cf5565b6000828152600184016020526040812054806140b3575050604080518082018252838152602080820184815286546001818101895560008981528481209551600290930290950191825591519082015586548684528188019092529290912055610d90565b828560000160018303815481106140c657fe5b9060005260206000209060020201600101819055506000915050610d90565b6000813f7fc5d2460186f7233c927e7db2dcc703c0e500b653ca82273b7bfad8045d85a4708181148015906132de575050151592915050565b6001600160e01b031980821614156141485760405162461bcd60e51b8152600401610c2d90614a03565b6001600160e01b0319166000908152606560205260409020805460ff19166001179055565b6040518060c001604052806006906020820280368337509192915050565b828054600181600116156101000203166002900490600052602060002090601f016020900481019282601f106141cc5782800160ff198235161785556141f9565b828001600101855582156141f9579182015b828111156141f95782358255916020019190600101906141de565b506142059291506142a4565b5090565b828054600181600116156101000203166002900490600052602060002090601f016020900481019282601f1061424a57805160ff19168380011785556141f9565b828001600101855582156141f9579182015b828111156141f957825182559160200191906001019061425c565b82600681019282156141f957916020028201828111156141f957825182559160200191906001019061425c565b610a3691905b8082111561420557600081556001016142aa565b60008083601f8401126142cf578182fd5b50813567ffffffffffffffff8111156142e6578182fd5b602083019150836020808302850101111561342957600080fd5b600060208284031215614311578081fd5b8135610d908161516a565b60006020828403121561432d578081fd5b8151610d908161516a565b6000806040838503121561434a578081fd5b82356143558161516a565b915060208301356143658161516a565b809150509250929050565b600080600060608486031215614384578081fd5b833561438f8161516a565b9250602084013561439f8161516a565b929592945050506040919091013590565b600080600080608085870312156143c5578081fd5b84356143d08161516a565b93506020858101356143e18161516a565b935060408601359250606086013567ffffffffffffffff80821115614404578384fd5b81880189601f820112614415578485fd5b8035925081831115614425578485fd5b614437601f8401601f191685016150f7565b9150828252898484830101111561444c578485fd5b8284820185840137509081019091019190915292959194509250565b6000806040838503121561447a578182fd5b82356144858161516a565b915060208301356143658161517f565b600080604083850312156144a7578182fd5b82356144b28161516a565b946020939093013593505050565b600060208083850312156144d2578182fd5b825167ffffffffffffffff8111156144e8578283fd5b80840185601f8201126144f9578384fd5b8051915061450e6145098361511e565b6150f7565b828152838101908285018585028401860189101561452a578687fd5b8693505b8484101561454c57805183526001939093019291850191850161452e565b50979650505050505050565b600060208284031215614569578081fd5b8151610d908161517f565b600060208284031215614585578081fd5b8135610d908161518d565b6000602082840312156145a1578081fd5b8151610d908161518d565b6000602082840312156145bd578081fd5b5035919050565b6000602082840312156145d5578081fd5b5051919050565b600080604083850312156145ee578182fd5b50508035926020909101359150565b60006020828403121561460e578081fd5b8135610d90816151a3565b60006020828403121561462a578081fd5b8151610d90816151a3565b60008060408385031215614647578182fd5b8235614355816151a3565b6000806000806000806080878903121561466a578384fd5b8635614675816151a3565b955060208701359450604087013567ffffffffffffffff80821115614698578586fd5b6146a48a838b016142be565b909650945060608901359150808211156146bc578384fd5b506146c989828a016142be565b979a9699509497509295939492505050565b600081518084526146f381602086016020860161513e565b601f01601f19169290920160200192915050565b60008284528282602086013780602084860101526020601f19601f85011685010190509392505050565b6000825161474381846020870161513e565b9190910192915050565b600080845460018082166000811461476c5760018114614783576147b2565b60ff198316865260028304607f16860193506147b2565b600283048886526020808720875b838110156147aa5781548a820152908501908201614791565b505050860193505b50505083516147c581836020880161513e565b01949350505050565b6001600160a01b0391909116815260200190565b6001600160a01b0385811682528416602082015260408101839052608060608201819052600090614815908301846146db565b9695505050505050565b6001600160a01b03929092168252602082015260400190565b60c08101818360005b6006811015614860578151835260209283019290910190600101614841565b50505092915050565b6020808252825182820181905260009190848201906040850190845b818110156148a157835183529284019291840191600101614885565b50909695505050505050565b901515815260200190565b600060208252610d9060208301846146db565b60006101008083526148df8184018c6146db565b83810360208501526148f1818c6146db565b9150508281036040840152614906818a6146db565b60608401989098525050608081019490945260a084019290925260ff90811660c08401521660e0909101529392505050565b60208082526022908201527f456e756d657261626c655365743a20696e646578206f7574206f6620626f756e604082015261647360f01b606082015260800190565b60208082526019908201527f42616c616e6365206973206e6f742073756666696369656e7400000000000000604082015260600190565b60208082526032908201527f4552433732313a207472616e7366657220746f206e6f6e20455243373231526560408201527131b2b4bb32b91034b6b83632b6b2b73a32b960711b606082015260800190565b6020808252601c908201527f4552433136353a20696e76616c696420696e7465726661636520696400000000604082015260600190565b6020808252601c908201527f4552433732313a20746f6b656e20616c7265616479206d696e74656400000000604082015260600190565b6020808252601b908201527f416d6261737361646f7220676220636f756e74206973207a65726f0000000000604082015260600190565b60208082526024908201527f4552433732313a207472616e7366657220746f20746865207a65726f206164646040820152637265737360e01b606082015260800190565b60208082526019908201527f4552433732313a20617070726f766520746f2063616c6c657200000000000000604082015260600190565b6020808252603a908201527f416464726573733a20756e61626c6520746f2073656e642076616c75652c207260408201527f6563697069656e74206d61792068617665207265766572746564000000000000606082015260800190565b6020808252601d908201527f416464726573733a20696e73756666696369656e742062616c616e6365000000604082015260600190565b6020808252602c908201527f4552433732313a206f70657261746f7220717565727920666f72206e6f6e657860408201526b34b9ba32b73a103a37b5b2b760a11b606082015260800190565b60208082526044908201527f546865736520696e64657865732061726520617574616d74696320616e64206260408201527f792072657175657374206f6620706c616e74657220616e6420616d6261737361606082015263646f722160e01b608082015260a00190565b60208082526010908201526f42616c616e6365206973207a65726f2160801b604082015260600190565b60208082526038908201527f4552433732313a20617070726f76652063616c6c6572206973206e6f74206f7760408201527f6e6572206e6f7220617070726f76656420666f7220616c6c0000000000000000606082015260800190565b6020808252602a908201527f4552433732313a2062616c616e636520717565727920666f7220746865207a65604082015269726f206164647265737360b01b606082015260800190565b60208082526022908201527f456e756d657261626c654d61703a20696e646578206f7574206f6620626f756e604082015261647360f01b606082015260800190565b6020808252818101527f4552433732313a206d696e7420746f20746865207a65726f2061646472657373604082015260600190565b6020808252601a908201527f506c616e746572207472656520636f756e74206973207a65726f000000000000604082015260600190565b6020808252602c908201527f4552433732313a20617070726f76656420717565727920666f72206e6f6e657860408201526b34b9ba32b73a103a37b5b2b760a11b606082015260800190565b60208082526019908201527f5468657265206973206e6f742066756e64656420747265657300000000000000604082015260600190565b6020808252602e908201527f436f6e747261637420696e7374616e63652068617320616c726561647920626560408201526d195b881a5b9a5d1a585b1a5e995960921b606082015260800190565b60208082526029908201527f4552433732313a207472616e73666572206f6620746f6b656e2074686174206960408201526839903737ba1037bbb760b91b606082015260800190565b6020808252602f908201527f4552433732314d657461646174613a2055524920717565727920666f72206e6f60408201526e3732bc34b9ba32b73a103a37b5b2b760891b606082015260800190565b60208082526021908201527f4552433732313a20617070726f76616c20746f2063757272656e74206f776e656040820152603960f91b606082015260800190565b6020808252601b908201527f776974686472617761626c6542616c616e6365206973207a65726f0000000000604082015260600190565b60208082526031908201527f4552433732313a207472616e736665722063616c6c6572206973206e6f74206f6040820152701ddb995c881b9bdc88185c1c1c9bdd9959607a1b606082015260800190565b90815260200190565b60008882526080602083015261504160808301888a614707565b8281036040840152615054818789614707565b8381036060850152615067818688614707565b9b9a5050505050505050505050565b9485526020850193909352604084019190915260608301526001600160a01b0316608082015260a00190565b60ff91909116815260200190565b6000808335601e198436030181126150c6578283fd5b8084018035925067ffffffffffffffff8311156150e1578384fd5b6020019250503681900382131561342957600080fd5b60405181810167ffffffffffffffff8111828210171561511657600080fd5b604052919050565b600067ffffffffffffffff821115615134578081fd5b5060209081020190565b60005b83811015615159578181015183820152602001615141565b8381111561156d5750506000910152565b6001600160a01b0381168114613ddf57600080fd5b8015158114613ddf57600080fd5b6001600160e01b031981168114613ddf57600080fd5b60ff81168114613ddf57600080fdfe4552433732313a206f776e657220717565727920666f72206e6f6e6578697374656e7420746f6b656ea264697066735822122084e168f953452fcf98087fc4154ec99167e58d91c7883151b190d1dedb1b61d364736f6c63430006090033",
  "immutableReferences": {},
  "source": "// SPDX-License-Identifier: GPL-3.0\n\npragma solidity >=0.4.21 <0.7.0;\npragma experimental ABIEncoderV2;\n\nimport \"../../node_modules/@openzeppelin/contracts-ethereum-package/contracts/token/ERC721/ERC721.sol\";\nimport \"../../node_modules/@openzeppelin/contracts-ethereum-package/contracts/utils/Address.sol\";\n\nimport \"../access/AccessRestriction.sol\";\nimport \"../greenblock/GBFactory.sol\";\nimport \"./TreeType.sol\";\nimport \"./UpdateFactory.sol\";\n\ncontract TreeFactory is ERC721UpgradeSafe {\n\n    using Address for address;\n\n\n    event PriceChanged(uint256 price);\n    event TreePlanted(uint256 id,string name,string latitude,string longitude);\n    event TreeFunded(uint256 treeId, uint256 planterBalance, uint256 ambassadorBalance, uint256 totalFund, address owner);\n    event PlanterBalanceWithdrawn(address planter, uint amount);\n    event AmbassadorBalanceWithdrawn(address ambassador, uint amount);\n\n    bool public isTreeFactory;\n\n    struct Tree {\n        string name;\n        string latitude;\n        string longitude;\n        uint256 plantedDate;\n        uint256 birthDate;\n        uint256 fundedDate;\n        uint8 height;\n        uint8 diameter;\n    }\n    Tree[] public trees;\n\n    uint256 public price;\n\n    mapping(uint => uint) public notFundedTrees;\n    uint256 notFundedTreesLastIndex;\n    uint256 notFundedTreesUsedIndex;\n\n    mapping(uint => uint) public notPlantedTrees;\n    uint256 notPlantedTreesLastIndex;\n    uint256 notPlantedTreesUsedIndex;\n\n    mapping(uint256 => uint8) public treeToType;\n    mapping(uint256 => uint256) public treeToGB;\n    mapping(uint256 => address) public treeToPlanter;\n    mapping(address => uint256) public planterTreeCount;\n    mapping(address => uint256[]) public planterTrees;\n    mapping(uint256 => uint256) public typeTreeCount;\n    mapping(uint256 => uint256) public gbTreeCount;\n    mapping(uint256 => uint256[]) public gbTrees;\n    mapping(uint256 => uint256[]) public typeTrees;\n\n    mapping(uint256 => uint256) public treeToPlanterRemainingBalance;\n    mapping(uint256 => uint256) public treeToPlanterBalancePerSecond;\n\n    mapping(uint256 => uint256) public treeToAmbassadorRemainingBalance;\n    mapping(uint256 => uint256) public treeToAmbassadorBalancePerSecond;\n\n    uint256 constant treejerPercentage = 25;\n    uint256 constant planterPercentage = 40;\n    uint256 constant ambassadorPercentage = 5;\n    uint256 constant localDevelopmentFundPercentage = 15;\n    uint256 constant rescueFundPercentage = 10;\n    uint256 constant researchFundPercentage = 5;\n\n    uint8 constant treejerIndex = 0;\n    uint8 constant planterIndex = 1;\n    uint8 constant ambassadorIndex = 2;\n    uint8 constant localDevelopmentFundIndex = 3;\n    uint8 constant rescueFundIndex = 4;\n    uint8 constant researchFundIndex = 5;\n\n    // 1 common year 31536000 seconds * 3 year \n    uint256 constant treeBalanceWithdrawnSeconds = 94608000;\n\n    uint256[6] public balances;\n\n    AccessRestriction public accessRestriction;\n    GBFactory public gbFactory;\n    UpdateFactory public updateFactory;\n\n    function initialize(address _accessRestrictionAddress) public initializer {\n        isTreeFactory = true;\n\n        ERC721UpgradeSafe.__ERC721_init(\n            \"Tree\",\n            \"TREE\"\n        );\n\n        AccessRestriction candidateContract = AccessRestriction(_accessRestrictionAddress);\n        require(candidateContract.isAccessRestriction());\n        accessRestriction = candidateContract;\n\n    }\n\n    function setGBAddress(address _address) external {\n        accessRestriction.ifAdmin(msg.sender);\n\n        GBFactory candidateContract = GBFactory(_address);\n        require(candidateContract.isGBFactory());\n        gbFactory = candidateContract;\n    }\n\n    function setUpdateFactoryAddress(address _address) external {\n        accessRestriction.ifAdmin(msg.sender);\n\n        UpdateFactory candidateContract = UpdateFactory(_address);\n        require(candidateContract.isUpdateFactory());\n        updateFactory = candidateContract;\n    }\n\n    //@todo permission must check\n    function plant(\n        uint8 _typeId,\n        uint256 _gbId,\n        string[] calldata _stringParams,\n        uint8[] calldata _uintParams\n    ) external {\n\n        accessRestriction.ifNotPaused();\n        accessRestriction.ifPlanter(msg.sender);\n\n\n        // require tree type exists\n        //gb exists and planter in gb\n\n\n        uint256 id = 0;\n\n        if(notPlantedTreesExists() == true) {\n            id = notPlantedTrees[notPlantedTreesUsedIndex];\n            notPlantedTreesUsedIndex++;\n\n            trees[id].name = _stringParams[0];\n            trees[id].latitude = _stringParams[1];\n            trees[id].longitude = _stringParams[2];\n            trees[id].plantedDate = block.timestamp;\n            trees[id].birthDate = block.timestamp;\n            trees[id].height = _uintParams[0];\n            trees[id].diameter = _uintParams[1];\n\n            delete notPlantedTrees[notPlantedTreesUsedIndex - 1];\n\n        } else {\n\n            trees.push(\n                Tree(_stringParams[0],_stringParams[1],_stringParams[2],\n                    block.timestamp,block.timestamp,\n                    0,_uintParams[0],_uintParams[1]\n                )\n            );\n            id = trees.length - 1;\n\n            notFundedTrees[notFundedTreesLastIndex] = id;\n            notFundedTreesLastIndex++;\n            _mint(msg.sender, id);\n        }\n\n        treeToGB[id] = _gbId;\n        gbTreeCount[_gbId]++;\n        gbTrees[_gbId].push(id);\n\n        treeToType[id] = _typeId;\n        typeTreeCount[_typeId]++;\n        typeTrees[_typeId].push(id);\n\n        treeToPlanter[id] = msg.sender;\n        planterTreeCount[msg.sender]++;\n        planterTrees[msg.sender].push(id);\n\n        emit TreePlanted(\n            id,_stringParams[0],_stringParams[1],_stringParams[2]\n        );\n    }\n\n    function simpleFund(\n        address _account,\n        uint256 _planterBalance,\n        uint256 _planterBalancePerSecond,\n        uint256 _ambassadorBalance,\n        uint256 _ambassadorBalancePerSecond\n    ) internal returns(uint256) {\n        string memory name = string('types name trees.length');\n\n\n        trees.push(\n            Tree(name,'','',0,0,block.timestamp,0,0)\n        );\n        uint256 id = trees.length - 1;\n\n        notPlantedTrees[notPlantedTreesLastIndex] = id;\n        notPlantedTreesLastIndex++;\n\n\n        if(_planterBalance > 0 ) {\n            treeToPlanterRemainingBalance[id] = _planterBalance;\n            treeToPlanterBalancePerSecond[id] = _planterBalancePerSecond;\n        }\n\n        if(_ambassadorBalance > 0) {\n            treeToAmbassadorRemainingBalance[id] = _ambassadorBalance;\n            treeToAmbassadorBalancePerSecond[id] = _ambassadorBalancePerSecond;\n        }\n\n        _mint(_account, id);\n\n        return id;\n\n    }\n\n    function fundPlantedTress(address _account,\n        uint256 _planterBalance,\n        uint256 _planterBalancePerSecond,\n        uint256 _ambassadorBalance,\n        uint256 _ambassadorBalancePerSecond) internal returns(uint256) {\n\n        require(notFundedTreesExists(), \"There is not funded trees\");\n\n        uint treeId = notFundedTrees[notFundedTreesUsedIndex];\n        notFundedTreesUsedIndex++;\n\n        trees[treeId].fundedDate = block.timestamp;\n\n        if(_planterBalance > 0 ) {\n            treeToPlanterRemainingBalance[treeId] = _planterBalance;\n            treeToPlanterBalancePerSecond[treeId] = _planterBalancePerSecond;\n        }\n\n        if(_ambassadorBalance > 0) {\n            treeToAmbassadorRemainingBalance[treeId] = _ambassadorBalance;\n            treeToAmbassadorBalancePerSecond[treeId] = _ambassadorBalancePerSecond;\n        }\n\n        _transfer(ownerOf(treeId), _account, treeId);\n\n        delete notFundedTrees[notFundedTreesUsedIndex - 1];\n\n        return treeId;\n    }\n\n    function getLastNotFundedTreeId() public view returns(uint256) {\n        return notFundedTrees[notFundedTreesUsedIndex];\n    }\n\n    function notFundedTreesExists() public view returns(bool) {\n        return notFundedTreesLastIndex > notFundedTreesUsedIndex;\n    }\n\n    function notPlantedTreesExists() public view returns(bool) {\n        return notPlantedTreesLastIndex > notPlantedTreesUsedIndex;\n    }\n\n    function ownerTreesCount(address _account) public view returns (uint256) {\n        return balanceOf(_account);\n    }\n\n    function treeOwner(uint256 _treeId) public view returns (address) {\n        return ownerOf(_treeId);\n    }\n\n    function getOwnerTrees(address _account) public view returns (uint256[] memory) {\n\n        uint256 tokenCount = balanceOf(_account);\n\n        if (tokenCount == 0) {\n            // Return an empty array\n            return new uint256[](0);\n        }\n\n        uint256[] memory result = new uint256[](tokenCount);\n\n        for (uint256 index = 0; index < tokenCount; index++) {\n            result[index] = tokenOfOwnerByIndex(_account, index);\n        }\n\n        return result;\n    }\n\n    function setPrice(uint256 _price) external {\n        accessRestriction.ifAdmin(msg.sender);\n\n        price = _price;\n        emit PriceChanged(_price);\n    }\n    \n\n    function fund(uint256 _count) external payable {\n        uint256 balance = msg.value / _count;\n\n        //@todo check for treePrice\n        require(balance >= price, \"Balance is not sufficient\");\n\n        for (uint8 i = 0; i < _count; i++) {\n            uint256 id = 0;\n            uint256 planterBalance = _calculateBalance(planterPercentage, balance);\n            uint256 ambassadorBalance = 0;\n            bool hasAmbasador = false;\n\n            if (notFundedTreesExists() == true) {\n                id = getLastNotFundedTreeId();\n                uint256 gbId = treeToGB[id];\n                address gbAmbassador = gbFactory.getGBAmbassador(gbId);\n\n                if (gbAmbassador != address(0)) {\n                    hasAmbasador = true;\n                    ambassadorBalance =_calculateBalance(ambassadorPercentage, balance);\n                }\n\n                id = fundPlantedTress(msg.sender, planterBalance, _calculateBalancePerSecond(planterBalance),\n                ambassadorBalance, _calculateBalancePerSecond(ambassadorBalance));\n\n            } else {\n                id = simpleFund(msg.sender, planterBalance, _calculateBalancePerSecond(planterBalance), 0, 0);\n            }\n\n            _updateBalances(balance, hasAmbasador);\n\n            emit TreeFunded(id, planterBalance, ambassadorBalance, balance, msg.sender);\n        }\n    }\n\n    function _calculateBalancePerSecond(uint256 _balance) private pure returns(uint256) {\n        if(_balance == 0) {\n            return 0;\n        }\n        return _balance / treeBalanceWithdrawnSeconds;\n    }\n\n    function _calculateBalance(uint256 _percentage, uint256 _balance)\n        private\n        pure\n        returns (uint256)\n    {\n        return (_balance * _percentage) / 100;\n    }\n\n    function _updateBalances(uint256 _balance, bool _hasAmbasador) private {\n        uint256 localDevelopmentFundBalance = _calculateBalance(\n            localDevelopmentFundPercentage,\n            _balance\n        );\n        uint256 ambassadorBalance = _calculateBalance(\n            ambassadorPercentage,\n            _balance\n        );\n        if (_hasAmbasador == false) {\n            ambassadorBalance = 0;\n            localDevelopmentFundBalance =\n                localDevelopmentFundBalance +\n                ambassadorBalance;\n        }\n\n        balances = [\n            balances[0] + _calculateBalance(treejerPercentage, _balance),\n            balances[1] + _calculateBalance(planterPercentage, _balance),\n            balances[2] + ambassadorBalance,\n            balances[3] + localDevelopmentFundBalance,\n            balances[4] + _calculateBalance(rescueFundPercentage, _balance),\n            balances[5] + _calculateBalance(researchFundPercentage, _balance)\n        ];\n    }\n\n    function getBalances() external view returns (uint256[6] memory) {\n        return balances;\n    }\n\n    function withdrawBalance(uint8 _index, address payable _to)\n        external\n    {\n        accessRestriction.ifAdmin(msg.sender);\n\n        require(\n            _index != 1 && _index != 2,\n            \"These indexes are autamtic and by request of planter and ambassador!\"\n        );\n\n        require(balances[_index] > 0, \"Balance is zero!\");\n\n        uint256 withdrawableBalance = balances[_index];\n\n        balances[_index] = 0;\n\n        Address.sendValue(_to, withdrawableBalance);\n    }\n\n    function withdrawPlanterBalance() external {\n\n        accessRestriction.ifPlanter(msg.sender);\n\n        uint256 planterTreesCount = planterTreeCount[msg.sender];\n\n        require(\n            planterTreesCount > 0,\n            \"Planter tree count is zero\"\n        );\n\n        uint256 withdrawableBalance = 0;\n        uint256[] memory treeIds = planterTrees[msg.sender];\n\n        for (\n            uint256 i = 0;\n            i < planterTreesCount;\n            i++\n        ) {\n            uint256 treeId = treeIds[i];\n            \n            uint256[] memory treeUpdates = updateFactory.getTreeUpdates(treeId);\n            uint256 totalSeconds = 0;\n\n            if(treeToPlanterRemainingBalance[treeId] <= 0) {\n                continue;\n            }\n\n            if (treeUpdates.length == 0) {\n                continue;\n            }\n\n            if (updateFactory.isTreeLastUpdatePlanterBalanceWithdrawn(treeId) == true) {\n                continue;\n            }\n\n            for (uint256 j = treeUpdates.length; j > 0; j--) {\n                uint256 jUpdateId = treeUpdates[j - 1];\n\n                if (updateFactory.getStatus(jUpdateId) != 1) {\n                    continue;\n                }\n\n                if (updateFactory.isPlanterBalanceWithdrawn(jUpdateId) == true) {\n                    continue;\n                }\n\n                if (j > 1) {\n                    uint256 jMinusUpdateId = treeUpdates[j - 2];\n\n                    if (updateFactory.getStatus(jMinusUpdateId) != 1) {\n                        continue;\n                    }\n\n                    totalSeconds =\n                        totalSeconds +\n                        updateFactory.getUpdateDate(jUpdateId) -\n                        updateFactory.getUpdateDate(jMinusUpdateId);\n                } else {\n                    totalSeconds =\n                        totalSeconds +\n                        updateFactory.getUpdateDate(jUpdateId) -\n                        trees[treeId].plantedDate;\n                }\n\n                updateFactory.setPlanterBalanceWithdrawn(jUpdateId);\n            }\n\n            if(totalSeconds > 0) {\n                withdrawableBalance = withdrawableBalance + (treeToPlanterBalancePerSecond[treeId] * totalSeconds);\n                treeToPlanterRemainingBalance[treeId] = treeToPlanterRemainingBalance[treeId] - (treeToPlanterBalancePerSecond[treeId] * totalSeconds);\n\n            }\n\n        }\n\n        require(withdrawableBalance > 0, \"withdrawableBalance is zero\");\n\n        balances[1] = balances[1] - withdrawableBalance;\n\n        Address.sendValue(msg.sender, withdrawableBalance);\n\n        emit PlanterBalanceWithdrawn(msg.sender, withdrawableBalance);\n    }\n\n    function withdrawAmbassadorBalance() external {\n\n        accessRestriction.ifAmbassador(msg.sender);\n\n        uint256 ambassadorGBCount = gbFactory.getAmbassadorGBCount(msg.sender);\n\n        require(ambassadorGBCount > 0, \"Ambassador gb count is zero\");\n        \n        uint256[] memory gbIds = gbFactory.getAmbassadorGBs(msg.sender);\n\n        uint256 withdrawableBalance = 0;\n\n        for (uint256 k = 0; k < ambassadorGBCount; k++) {\n\n            uint256 _gbId = gbIds[k];\n\n            uint256 gbTreesCount = gbTreeCount[_gbId];\n\n            if(gbTreesCount == 0) {\n                continue;\n            }\n\n            uint256[] memory treeIds = gbTrees[_gbId];\n        \n            for (uint256 i = 0; i < gbTreesCount; i++) {\n\n                uint256 treeId = treeIds[i];\n\n                uint256[] memory treeUpdates = updateFactory.getTreeUpdates(treeId);\n                uint256 totalSeconds = 0;\n\n                if(treeToAmbassadorRemainingBalance[treeId] <= 0) {\n                    continue;\n                }\n\n                if (treeUpdates.length == 0) {\n                    continue;\n                }\n\n                if (updateFactory.isTreeLastUpdateAmbassadorBalanceWithdrawn(treeId) == true) {\n                    continue;\n                }\n\n                for (uint256 j = treeUpdates.length; j > 0; j--) {\n                    uint256 jUpdateId = treeUpdates[j - 1];\n\n                    if (updateFactory.getStatus(jUpdateId) != 1) {\n                        continue;\n                    }\n\n                    if (updateFactory.isAmbassadorBalanceWithdrawn(jUpdateId) == true) {\n                        continue;\n                    }\n\n                    if (j > 1) {\n                        uint256 jMinusUpdateId = treeUpdates[j - 2];\n\n                        if (updateFactory.getStatus(jMinusUpdateId) != 1) {\n                            continue;\n                        }\n\n                        totalSeconds =\n                            totalSeconds +\n                            updateFactory.getUpdateDate(jUpdateId) -\n                            updateFactory.getUpdateDate(jMinusUpdateId);\n                    } else {\n                        totalSeconds =\n                            totalSeconds +\n                            updateFactory.getUpdateDate(jUpdateId) -\n                            trees[treeId].plantedDate;\n                    }\n\n                    updateFactory.setAmbassadorBalanceWithdrawn(jUpdateId);\n                }\n\n                if(totalSeconds > 0) {\n                    withdrawableBalance = withdrawableBalance + (treeToAmbassadorBalancePerSecond[treeId] * totalSeconds);\n                    treeToAmbassadorRemainingBalance[treeId] -= (treeToAmbassadorBalancePerSecond[treeId] * totalSeconds);\n                }\n\n            }\n        }\n\n        require(withdrawableBalance > 0, \"withdrawableBalance is zero\");\n\n        balances[2] = balances[2] - withdrawableBalance;\n\n        Address.sendValue(msg.sender, withdrawableBalance);\n\n        emit AmbassadorBalanceWithdrawn(msg.sender, withdrawableBalance);\n    }\n\n    \n}\n",
  "sourcePath": "/home/amir/Projects/treejer/contract/contracts/tree/TreeFactory.sol",
  "compiler": {
    "name": "solc",
    "version": "0.6.9+commit.3e3065ac.Emscripten.clang"
  },
  "schemaVersion": "3.2.3",
  "updatedAt": "2020-10-30T16:50:57.006Z",
  "networkType": "ethereum",
  "devdoc": {
    "methods": {
      "approve(address,uint256)": {
        "details": "Approves another address to transfer the given token ID The zero address indicates there is no approved address. There can only be one approved address per token at a given time. Can only be called by the token owner or an approved operator.",
        "params": {
          "to": "address to be approved for the given token ID",
          "tokenId": "uint256 ID of the token to be approved"
        }
      },
      "balanceOf(address)": {
        "details": "Gets the balance of the specified address.",
        "params": {
          "owner": "address to query the balance of"
        },
        "returns": {
          "_0": "uint256 representing the amount owned by the passed address"
        }
      },
      "baseURI()": {
        "details": "Returns the base URI set via {_setBaseURI}. This will be automatically added as a prefix in {tokenURI} to each token's URI, or to the token ID if no specific URI is set for that token ID."
      },
      "getApproved(uint256)": {
        "details": "Gets the approved address for a token ID, or zero if no address set Reverts if the token ID does not exist.",
        "params": {
          "tokenId": "uint256 ID of the token to query the approval of"
        },
        "returns": {
          "_0": "address currently approved for the given token ID"
        }
      },
      "isApprovedForAll(address,address)": {
        "details": "Tells whether an operator is approved by a given owner.",
        "params": {
          "operator": "operator address which you want to query the approval of",
          "owner": "owner address which you want to query the approval of"
        },
        "returns": {
          "_0": "bool whether the given operator is approved by the given owner"
        }
      },
      "name()": {
        "details": "Gets the token name.",
        "returns": {
          "_0": "string representing the token name"
        }
      },
      "ownerOf(uint256)": {
        "details": "Gets the owner of the specified token ID.",
        "params": {
          "tokenId": "uint256 ID of the token to query the owner of"
        },
        "returns": {
          "_0": "address currently marked as the owner of the given token ID"
        }
      },
      "safeTransferFrom(address,address,uint256)": {
        "details": "Safely transfers the ownership of a given token ID to another address If the target address is a contract, it must implement {IERC721Receiver-onERC721Received}, which is called upon a safe transfer, and return the magic value `bytes4(keccak256(\"onERC721Received(address,address,uint256,bytes)\"))`; otherwise, the transfer is reverted. Requires the msg.sender to be the owner, approved, or operator",
        "params": {
          "from": "current owner of the token",
          "to": "address to receive the ownership of the given token ID",
          "tokenId": "uint256 ID of the token to be transferred"
        }
      },
      "safeTransferFrom(address,address,uint256,bytes)": {
        "details": "Safely transfers the ownership of a given token ID to another address If the target address is a contract, it must implement {IERC721Receiver-onERC721Received}, which is called upon a safe transfer, and return the magic value `bytes4(keccak256(\"onERC721Received(address,address,uint256,bytes)\"))`; otherwise, the transfer is reverted. Requires the _msgSender() to be the owner, approved, or operator",
        "params": {
          "_data": "bytes data to send along with a safe transfer check",
          "from": "current owner of the token",
          "to": "address to receive the ownership of the given token ID",
          "tokenId": "uint256 ID of the token to be transferred"
        }
      },
      "setApprovalForAll(address,bool)": {
        "details": "Sets or unsets the approval of a given operator An operator is allowed to transfer all tokens of the sender on their behalf.",
        "params": {
          "approved": "representing the status of the approval to be set",
          "operator": "operator address to set the approval"
        }
      },
      "supportsInterface(bytes4)": {
        "details": "See {IERC165-supportsInterface}. Time complexity O(1), guaranteed to always use less than 30 000 gas."
      },
      "symbol()": {
        "details": "Gets the token symbol.",
        "returns": {
          "_0": "string representing the token symbol"
        }
      },
      "tokenByIndex(uint256)": {
        "details": "Gets the token ID at a given index of all the tokens in this contract Reverts if the index is greater or equal to the total number of tokens.",
        "params": {
          "index": "uint256 representing the index to be accessed of the tokens list"
        },
        "returns": {
          "_0": "uint256 token ID at the given index of the tokens list"
        }
      },
      "tokenOfOwnerByIndex(address,uint256)": {
        "details": "Gets the token ID at a given index of the tokens list of the requested owner.",
        "params": {
          "index": "uint256 representing the index to be accessed of the requested tokens list",
          "owner": "address owning the tokens list to be accessed"
        },
        "returns": {
          "_0": "uint256 token ID at the given index of the tokens list owned by the requested address"
        }
      },
      "tokenURI(uint256)": {
        "details": "Returns the URI for a given token ID. May return an empty string. If a base URI is set (via {_setBaseURI}), it is added as a prefix to the token's own URI (via {_setTokenURI}). If there is a base URI but no token URI, the token's ID will be used as its URI when appending it to the base URI. This pattern for autogenerated token URIs can lead to large gas savings. .Examples |=== |`_setBaseURI()` |`_setTokenURI()` |`tokenURI()` | \"\" | \"\" | \"\" | \"\" | \"token.uri/123\" | \"token.uri/123\" | \"token.uri/\" | \"123\" | \"token.uri/123\" | \"token.uri/\" | \"\" | \"token.uri/<tokenId>\" |=== Requirements: - `tokenId` must exist."
      },
      "totalSupply()": {
        "details": "Gets the total amount of tokens stored by the contract.",
        "returns": {
          "_0": "uint256 representing the total amount of tokens"
        }
      },
      "transferFrom(address,address,uint256)": {
        "details": "Transfers the ownership of a given token ID to another address. Usage of this method is discouraged, use {safeTransferFrom} whenever possible. Requires the msg.sender to be the owner, approved, or operator.",
        "params": {
          "from": "current owner of the token",
          "to": "address to receive the ownership of the given token ID",
          "tokenId": "uint256 ID of the token to be transferred"
        }
      }
    }
  },
  "userdoc": {
    "methods": {}
  }
}