{
  "contractName": "UpdateFactory",
  "abi": [
    {
      "anonymous": false,
      "inputs": [
        {
          "indexed": false,
          "internalType": "uint256",
          "name": "updateId",
          "type": "uint256"
        },
        {
          "indexed": false,
          "internalType": "address",
          "name": "byWho",
          "type": "address"
        }
      ],
      "name": "UpdateAccepted",
      "type": "event"
    },
    {
      "anonymous": false,
      "inputs": [
        {
          "indexed": false,
          "internalType": "uint256",
          "name": "updateId",
          "type": "uint256"
        },
        {
          "indexed": false,
          "internalType": "uint256",
          "name": "treeId",
          "type": "uint256"
        },
        {
          "indexed": false,
          "internalType": "string",
          "name": "imageHash",
          "type": "string"
        }
      ],
      "name": "UpdateAdded",
      "type": "event"
    },
    {
      "inputs": [],
      "name": "accessRestriction",
      "outputs": [
        {
          "internalType": "contract IAccessRestriction",
          "name": "",
          "type": "address"
        }
      ],
      "stateMutability": "view",
      "type": "function",
      "constant": true
    },
    {
      "inputs": [],
      "name": "gbFactory",
      "outputs": [
        {
          "internalType": "contract IGBFactory",
          "name": "",
          "type": "address"
        }
      ],
      "stateMutability": "view",
      "type": "function",
      "constant": true
    },
    {
      "inputs": [],
      "name": "isUpdateFactory",
      "outputs": [
        {
          "internalType": "bool",
          "name": "",
          "type": "bool"
        }
      ],
      "stateMutability": "view",
      "type": "function",
      "constant": true
    },
    {
      "inputs": [],
      "name": "treeFactory",
      "outputs": [
        {
          "internalType": "contract ITreeFactory",
          "name": "",
          "type": "address"
        }
      ],
      "stateMutability": "view",
      "type": "function",
      "constant": true
    },
    {
      "inputs": [
        {
          "internalType": "uint256",
          "name": "",
          "type": "uint256"
        },
        {
          "internalType": "uint256",
          "name": "",
          "type": "uint256"
        }
      ],
      "name": "treeUpdates",
      "outputs": [
        {
          "internalType": "uint256",
          "name": "",
          "type": "uint256"
        }
      ],
      "stateMutability": "view",
      "type": "function",
      "constant": true
    },
    {
      "inputs": [
        {
          "internalType": "uint256",
          "name": "",
          "type": "uint256"
        }
      ],
      "name": "updates",
      "outputs": [
        {
          "internalType": "uint256",
          "name": "treeId",
          "type": "uint256"
        },
        {
          "internalType": "string",
          "name": "imageHash",
          "type": "string"
        },
        {
          "internalType": "uint256",
          "name": "updateDate",
          "type": "uint256"
        },
        {
          "internalType": "bool",
          "name": "status",
          "type": "bool"
        }
      ],
      "stateMutability": "view",
      "type": "function",
      "constant": true
    },
    {
      "inputs": [
        {
          "internalType": "address",
          "name": "_accessRestrictionAddress",
          "type": "address"
        }
      ],
      "name": "initialize",
      "outputs": [],
      "stateMutability": "nonpayable",
      "type": "function"
    },
    {
      "inputs": [
        {
          "internalType": "address",
          "name": "_address",
          "type": "address"
        }
      ],
      "name": "setTreeFactoryAddress",
      "outputs": [],
      "stateMutability": "nonpayable",
      "type": "function"
    },
    {
      "inputs": [
        {
          "internalType": "address",
          "name": "_address",
          "type": "address"
        }
      ],
      "name": "setGBFactoryAddress",
      "outputs": [],
      "stateMutability": "nonpayable",
      "type": "function"
    },
    {
      "inputs": [
        {
          "internalType": "uint256",
          "name": "_treeId",
          "type": "uint256"
        },
        {
          "internalType": "string",
          "name": "_imageHash",
          "type": "string"
        }
      ],
      "name": "post",
      "outputs": [],
      "stateMutability": "nonpayable",
      "type": "function"
    },
    {
      "inputs": [
        {
          "internalType": "uint256",
          "name": "_updateId",
          "type": "uint256"
        }
      ],
      "name": "acceptUpdate",
      "outputs": [],
      "stateMutability": "nonpayable",
      "type": "function"
    },
    {
      "inputs": [
        {
          "internalType": "uint256",
          "name": "_treeId",
          "type": "uint256"
        }
      ],
      "name": "getTreeUpdates",
      "outputs": [
        {
          "internalType": "uint256[]",
          "name": "",
          "type": "uint256[]"
        }
      ],
      "stateMutability": "view",
      "type": "function",
      "constant": true
    },
    {
      "inputs": [
        {
          "internalType": "uint256",
          "name": "_treeId",
          "type": "uint256"
        }
      ],
      "name": "getTreeLastUpdateId",
      "outputs": [
        {
          "internalType": "uint256",
          "name": "",
          "type": "uint256"
        }
      ],
      "stateMutability": "view",
      "type": "function",
      "constant": true
    }
  ],
  "bytecode": "0x608060405234801561001057600080fd5b506116d2806100206000396000f3fe608060405234801561001057600080fd5b50600436106100cf5760003560e01c80639f3e58481161008c578063c4d66de811610066578063c4d66de8146101ab578063d6762c4a146101be578063edbe8d4e146101c6578063f87bdcd2146101db576100cf565b80639f3e584814610148578063b2c7232c14610168578063b4c2f72714610188576100cf565b80630bf351f8146100d4578063415d13aa146100e9578063421ef6d4146100fc578063473fd50f1461011a578063591a5eb61461012d5780636265e0d814610140575b600080fd5b6100e76100e236600461117d565b6101ee565b005b6100e76100f736600461117d565b6102f0565b6101046103f2565b60405161011191906112e6565b60405180910390f35b6100e76101283660046111d5565b610401565b6100e761013b366004611205565b610a36565b610104610d67565b61015b6101563660046111d5565b610d76565b60405161011191906112fa565b61017b6101763660046111d5565b610dd8565b60405161011191906115e8565b61019b6101963660046111d5565b610e15565b6040516101119493929190611608565b6100e76101b936600461117d565b610eee565b610104611023565b6101ce611032565b604051610111919061133e565b61017b6101e936600461127a565b61103b565b603654604051632104fb0560e21b81526001600160a01b0390911690638413ec149061021e9033906004016112e6565b60006040518083038186803b15801561023657600080fd5b505afa15801561024a573d6000803e3d6000fd5b505050506000819050806001600160a01b031663e0eb4eb96040518163ffffffff1660e01b815260040160206040518083038186803b15801561028c57600080fd5b505afa1580156102a0573d6000803e3d6000fd5b505050506040513d601f19601f820116820180604052508101906102c491906111b5565b6102cd57600080fd5b603780546001600160a01b0319166001600160a01b039290921691909117905550565b603654604051632104fb0560e21b81526001600160a01b0390911690638413ec14906103209033906004016112e6565b60006040518083038186803b15801561033857600080fd5b505afa15801561034c573d6000803e3d6000fd5b505050506000819050806001600160a01b0316634cff2b0f6040518163ffffffff1660e01b815260040160206040518083038186803b15801561038e57600080fd5b505afa1580156103a2573d6000803e3d6000fd5b505050506040513d601f19601f820116820180604052508101906103c691906111b5565b6103cf57600080fd5b603880546001600160a01b0319166001600160a01b039290921691909117905550565b6037546001600160a01b031681565b603654604051630935e01b60e21b81526001600160a01b03909116906324d7806c906104319033906004016112e6565b60206040518083038186803b15801561044957600080fd5b505afa15801561045d573d6000803e3d6000fd5b505050506040513d601f19601f8201168201806040525081019061048191906111b5565b806105075750603654604051630fdc0e3360e01b81526001600160a01b0390911690630fdc0e33906104b79033906004016112e6565b60206040518083038186803b1580156104cf57600080fd5b505afa1580156104e3573d6000803e3d6000fd5b505050506040513d601f19601f8201168201806040525081019061050791906111b5565b61052c5760405162461bcd60e51b8152600401610523906113e1565b60405180910390fd5b6034818154811061053957fe5b600091825260209091206003600490920201015460ff161561056d5760405162461bcd60e51b81526004016105239061135c565b603654604051630935e01b60e21b81526001600160a01b03909116906324d7806c9061059d9033906004016112e6565b60206040518083038186803b1580156105b557600080fd5b505afa1580156105c9573d6000803e3d6000fd5b505050506040513d601f19601f820116820180604052508101906105ed91906111b5565b15156001146109c35760006034828154811061060557fe5b60009182526020909120600491820201546037546040516307ff372360e01b815291935033926001600160a01b03909116916307ff372391610649918691016115e8565b60206040518083038186803b15801561066157600080fd5b505afa158015610675573d6000803e3d6000fd5b505050506040513d601f19601f820116820180604052508101906106999190611199565b6001600160a01b031614156106c05760405162461bcd60e51b8152600401610523906114f3565b603754604051632f41389160e11b81526000916001600160a01b031690635e827122906106f19085906004016115e8565b60206040518083038186803b15801561070957600080fd5b505afa15801561071d573d6000803e3d6000fd5b505050506040513d601f19601f8201168201806040525081019061074191906111ed565b6036546040516326b031ab60e21b81529192506001600160a01b031690639ac0c6ac906107729033906004016112e6565b60206040518083038186803b15801561078a57600080fd5b505afa15801561079e573d6000803e3d6000fd5b505050506040513d601f19601f820116820180604052508101906107c291906111b5565b1561087257603854604051636b78fcb560e11b815233916001600160a01b03169063d6f1f96a906107f79085906004016115e8565b60206040518083038186803b15801561080f57600080fd5b505afa158015610823573d6000803e3d6000fd5b505050506040513d601f19601f820116820180604052508101906108479190611199565b6001600160a01b03161461086d5760405162461bcd60e51b815260040161052390611593565b6109c0565b6000805b603854604051633714e07f60e01b81526001600160a01b0390911690633714e07f906108a69086906004016115e8565b60206040518083038186803b1580156108be57600080fd5b505afa1580156108d2573d6000803e3d6000fd5b505050506040513d601f19601f820116820180604052508101906108f691906111ed565b81101561099b57603854604051633e50e97b60e11b815233916001600160a01b031690637ca1d2f69061092f9087908690600401611639565b60206040518083038186803b15801561094757600080fd5b505afa15801561095b573d6000803e3d6000fd5b505050506040513d601f19601f8201168201806040525081019061097f9190611199565b6001600160a01b0316141561099357600191505b600101610876565b506001811515146109be5760405162461bcd60e51b815260040161052390611536565b505b50505b6001603482815481106109d257fe5b906000526020600020906004020160030160006101000a81548160ff0219169083151502179055507f77fc6126d260b6f2826b8ca23ba34c8e5d2d5015f490e0e6333ad5d50588d3da8133604051610a2b9291906115f1565b60405180910390a150565b603660009054906101000a90046001600160a01b03166001600160a01b0316634d868f986040518163ffffffff1660e01b815260040160006040518083038186803b158015610a8457600080fd5b505afa158015610a98573d6000803e3d6000fd5b5050603654604051636dc1ccab60e01b81526001600160a01b039091169250636dc1ccab9150610acc9033906004016112e6565b60006040518083038186803b158015610ae457600080fd5b505afa158015610af8573d6000803e3d6000fd5b50506037546040516307ff372360e01b81523393506001600160a01b0390911691506307ff372390610b2e9087906004016115e8565b60206040518083038186803b158015610b4657600080fd5b505afa158015610b5a573d6000803e3d6000fd5b505050506040513d601f19601f82011682018060405250810190610b7e9190611199565b6001600160a01b031614610ba45760405162461bcd60e51b8152600401610523906114af565b60008381526035602052604090205415610c34576000838152603560205260409020805460349190610bdd90600163ffffffff61106916565b81548110610be757fe5b906000526020600020015481548110610bfc57fe5b600091825260209091206003600490920201015460ff161515600114610c345760405162461bcd60e51b815260040161052390611433565b6034604051806080016040528085815260200184848080601f016020809104026020016040519081016040528093929190818152602001838380828437600092018290525093855250504260208085019190915260409093018290525083546001818101865594825290829020835160049092020190815582820151805193949193610cc8939285019291909101906110e5565b50604082015160028201556060909101516003909101805460ff1916911515919091179055603454600090610cfe906001611069565b600085815260356020908152604080832080546001810182559084529190922001829055519091507ff21895d501301debf8e85ad6a202415a1c431fdb019be7e01b71870841b827d990610d59908390879087908790611647565b60405180910390a150505050565b6038546001600160a01b031681565b600081815260356020908152604091829020805483518184028101840190945280845260609392830182828015610dcc57602002820191906000526020600020905b815481526020019060010190808311610db8575b50505050509050919050565b60008181526035602052604081208054610df990600163ffffffff61106916565b81548110610e0357fe5b90600052602060002001549050919050565b60348181548110610e2257fe5b9060005260206000209060040201600091509050806000015490806001018054600181600116156101000203166002900480601f016020809104026020016040519081016040528092919081815260200182805460018160011615610100020316600290048015610ed45780601f10610ea957610100808354040283529160200191610ed4565b820191906000526020600020905b815481529060010190602001808311610eb757829003601f168201915b50505050600283015460039093015491929160ff16905084565b600054610100900460ff1680610f075750610f076110b2565b80610f15575060005460ff16155b610f315760405162461bcd60e51b815260040161052390611393565b600054610100900460ff16158015610f5c576000805460ff1961ff0019909116610100171660011790555b6033805460ff191660011790556040805163ba84fd6960e01b8152905183916001600160a01b0383169163ba84fd6991600480820192602092909190829003018186803b158015610fac57600080fd5b505afa158015610fc0573d6000803e3d6000fd5b505050506040513d601f19601f82011682018060405250810190610fe491906111b5565b610fed57600080fd5b603680546001600160a01b0319166001600160a01b0392909216919091179055801561101f576000805461ff00191690555b5050565b6036546001600160a01b031681565b60335460ff1681565b6035602052816000526040600020818154811061105457fe5b90600052602060002001600091509150505481565b60006110ab83836040518060400160405280601e81526020017f536166654d6174683a207375627472616374696f6e206f766572666c6f7700008152506110b9565b9392505050565b303b155b90565b600081848411156110dd5760405162461bcd60e51b81526004016105239190611349565b505050900390565b828054600181600116156101000203166002900490600052602060002090601f016020900481019282601f1061112657805160ff1916838001178555611153565b82800160010185558215611153579182015b82811115611153578251825591602001919060010190611138565b5061115f929150611163565b5090565b6110b691905b8082111561115f5760008155600101611169565b60006020828403121561118e578081fd5b81356110ab81611684565b6000602082840312156111aa578081fd5b81516110ab81611684565b6000602082840312156111c6578081fd5b815180151581146110ab578182fd5b6000602082840312156111e6578081fd5b5035919050565b6000602082840312156111fe578081fd5b5051919050565b600080600060408486031215611219578182fd5b83359250602084013567ffffffffffffffff80821115611237578384fd5b81860187601f820112611248578485fd5b8035925081831115611258578485fd5b876020848301011115611269578485fd5b949760209095019650909450505050565b6000806040838503121561128c578182fd5b50508035926020909101359150565b60008151808452815b818110156112c0576020818501810151868301820152016112a4565b818111156112d15782602083870101525b50601f01601f19169290920160200192915050565b6001600160a01b0391909116815260200190565b6020808252825182820181905260009190848201906040850190845b8181101561133257835183529284019291840191600101611316565b50909695505050505050565b901515815260200190565b6000602082526110ab602083018461129b565b6020808252601e908201527f75706461746520737461747573206d7573742062652070656e64696e67210000604082015260600190565b6020808252602e908201527f436f6e747261637420696e7374616e63652068617320616c726561647920626560408201526d195b881a5b9a5d1a585b1a5e995960921b606082015260800190565b60208082526032908201527f41646d696e206f7220616d6261737361646f72206f7220706c616e7465722063604082015271616e2061636365707420757064617465732160701b606082015260800190565b60208082526056908201527f4c61737420757064617465206e6f742061636365707465642c20706c6561736560408201527f207761697420756e74696c20697420616363657074656420616e6420616674656060820152757220746861742073656e64206e65772075706461746560501b608082015260a00190565b60208082526024908201527f4f6e6c7920506c616e746572206f6620747265652063616e2073656e642075706040820152636461746560e01b606082015260800190565b60208082526023908201527f506c616e746572206f6620747265652063616e2774206163636570742075706460408201526261746560e81b606082015260800190565b6020808252603a908201527f6f6e6c79206f6e65206f6620706c616e74657273206f6620746861742067726560408201527f656e426c6f636b2063616e206163636570742075706461746521000000000000606082015260800190565b60208082526035908201527f6f6e6c7920616d6261737361646f72206f66207468617420677265656e426c6f604082015274636b2063616e20616363657074207570646174652160581b606082015260800190565b90815260200190565b9182526001600160a01b0316602082015260400190565b600085825260806020830152611621608083018661129b565b60408301949094525090151560609091015292915050565b918252602082015260400190565b60008582528460208301526060604083015282606083015282846080840137818301608090810191909152601f909201601f191601019392505050565b6001600160a01b038116811461169957600080fd5b5056fea2646970667358221220fa40e276ace9070fc8023de289c820185eb0ee1588e0e61d393fa84bdd6f732664736f6c63430006090033",
  "immutableReferences": {},
  "source": "// SPDX-License-Identifier: GPL-3.0\n\npragma solidity >=0.4.21 <0.7.0;\npragma experimental ABIEncoderV2;\n\nimport \"../../node_modules/@openzeppelin/contracts-ethereum-package/contracts/Initializable.sol\";\nimport \"../../node_modules/@openzeppelin/contracts-ethereum-package/contracts/math/SafeMath.sol\";\n\nimport \"../access/IAccessRestriction.sol\";\nimport \"./ITreeFactory.sol\";\nimport \"../greenblock/IGBFactory.sol\";\n\ncontract UpdateFactory is Initializable {\n    using SafeMath for uint256;\n\n    event UpdateAdded(uint256 updateId, uint256 treeId, string imageHash);\n    event UpdateAccepted(uint256 updateId, address byWho);\n\n    struct Update {\n        uint256 treeId;\n        string imageHash;\n        uint256 updateDate;\n        bool status;\n    }\n\n    // @dev Sanity check that allows us to ensure that we are pointing to the\n    //  right contract in our setUpdateFactoryAddress() call.\n    bool public isUpdateFactory;\n\n    Update[] public updates;\n    mapping(uint256 => uint256[]) public treeUpdates;\n\n    IAccessRestriction public accessRestriction;\n    ITreeFactory public treeFactory;\n    IGBFactory public gbFactory;\n\n    function initialize(address _accessRestrictionAddress) public initializer {\n        isUpdateFactory = true;\n        IAccessRestriction candidateContract =\n            IAccessRestriction(_accessRestrictionAddress);\n        require(candidateContract.isAccessRestriction());\n        accessRestriction = candidateContract;\n    }\n\n    function setTreeFactoryAddress(address _address) external {\n        accessRestriction.ifAdmin(msg.sender);\n\n        ITreeFactory candidateContract = ITreeFactory(_address);\n        require(candidateContract.isTreeFactory());\n        treeFactory = candidateContract;\n    }\n\n    function setGBFactoryAddress(address _address) external {\n        accessRestriction.ifAdmin(msg.sender);\n\n        IGBFactory candidateContract = IGBFactory(_address);\n        require(candidateContract.isGBFactory());\n        gbFactory = candidateContract;\n    }\n\n    // update difference must check\n    function post(uint256 _treeId, string calldata _imageHash) external {\n        accessRestriction.ifNotPaused();\n        accessRestriction.ifPlanter(msg.sender);\n\n        require(\n            treeFactory.treeToPlanter(_treeId) == msg.sender,\n            \"Only Planter of tree can send update\"\n        );\n\n        if (treeUpdates[_treeId].length > 0) {\n            require(\n                updates[\n                    treeUpdates[_treeId][treeUpdates[_treeId].length.sub(1)]\n                ]\n                    .status == true,\n                \"Last update not accepted, please wait until it accepted and after that send new update\"\n            );\n        }\n\n        updates.push(Update(_treeId, _imageHash, block.timestamp, false));\n        uint256 id = updates.length.sub(1);\n\n        treeUpdates[_treeId].push(id);\n\n        emit UpdateAdded(id, _treeId, _imageHash);\n    }\n\n    function acceptUpdate(uint256 _updateId) external {\n        require(\n            accessRestriction.isAdmin(msg.sender) ||\n                accessRestriction.isPlanterOrAmbassador(msg.sender),\n            \"Admin or ambassador or planter can accept updates!\"\n        );\n\n        require(\n            updates[_updateId].status == false,\n            \"update status must be pending!\"\n        );\n\n        if (accessRestriction.isAdmin(msg.sender) != true) {\n            uint256 treeId = updates[_updateId].treeId;\n\n            require(\n                treeFactory.treeToPlanter(treeId) != msg.sender,\n                \"Planter of tree can't accept update\"\n            );\n\n            uint256 gbId = treeFactory.treeToGB(treeId);\n\n            if (accessRestriction.isAmbassador(msg.sender)) {\n                require(\n                    gbFactory.gbToAmbassador(gbId) == msg.sender,\n                    \"only ambassador of that greenBlock can accept update!\"\n                );\n            } else {\n                bool isInGB = false;\n\n                for (\n                    uint256 index = 0;\n                    index < gbFactory.getGBPlantersCount(gbId);\n                    index++\n                ) {\n                    if (gbFactory.gbToPlanters(gbId, index) == msg.sender) {\n                        isInGB = true;\n                    }\n                }\n\n                require(\n                    isInGB == true,\n                    \"only one of planters of that greenBlock can accept update!\"\n                );\n            }\n        }\n\n        updates[_updateId].status = true;\n        emit UpdateAccepted(_updateId, msg.sender);\n    }\n\n    function getTreeUpdates(uint256 _treeId)\n        public\n        view\n        returns (uint256[] memory)\n    {\n        return treeUpdates[_treeId];\n    }\n\n    function getTreeLastUpdateId(uint256 _treeId)\n        public\n        view\n        returns (uint256)\n    {\n        return treeUpdates[_treeId][treeUpdates[_treeId].length.sub(1)];\n    }\n}\n",
  "sourcePath": "/home/amir/Projects/treejer/contract/contracts/tree/UpdateFactory.sol",
  "compiler": {
    "name": "solc",
    "version": "0.6.9+commit.3e3065ac.Emscripten.clang"
  },
  "schemaVersion": "3.2.3",
  "updatedAt": "2020-12-26T11:36:26.849Z",
  "networkType": "ethereum",
  "devdoc": {
    "methods": {}
  },
  "userdoc": {
    "methods": {}
  }
}