{
  "contractName": "UpdateFactory",
  "abi": [
    {
      "anonymous": false,
      "inputs": [
        {
          "indexed": false,
          "internalType": "uint256",
          "name": "updateId",
          "type": "uint256"
        }
      ],
      "name": "UpdateAccepted",
      "type": "event"
    },
    {
      "anonymous": false,
      "inputs": [
        {
          "indexed": false,
          "internalType": "uint256",
          "name": "updateId",
          "type": "uint256"
        },
        {
          "indexed": false,
          "internalType": "uint256",
          "name": "treeId",
          "type": "uint256"
        },
        {
          "indexed": false,
          "internalType": "string",
          "name": "imageHash",
          "type": "string"
        }
      ],
      "name": "UpdateAdded",
      "type": "event"
    },
    {
      "inputs": [],
      "name": "accessRestriction",
      "outputs": [
        {
          "internalType": "contract AccessRestriction",
          "name": "",
          "type": "address"
        }
      ],
      "stateMutability": "view",
      "type": "function",
      "constant": true
    },
    {
      "inputs": [],
      "name": "isUpdateFactory",
      "outputs": [
        {
          "internalType": "bool",
          "name": "",
          "type": "bool"
        }
      ],
      "stateMutability": "view",
      "type": "function",
      "constant": true
    },
    {
      "inputs": [],
      "name": "treeFactory",
      "outputs": [
        {
          "internalType": "contract TreeFactory",
          "name": "",
          "type": "address"
        }
      ],
      "stateMutability": "view",
      "type": "function",
      "constant": true
    },
    {
      "inputs": [
        {
          "internalType": "uint256",
          "name": "",
          "type": "uint256"
        },
        {
          "internalType": "uint256",
          "name": "",
          "type": "uint256"
        }
      ],
      "name": "treeUpdates",
      "outputs": [
        {
          "internalType": "uint256",
          "name": "",
          "type": "uint256"
        }
      ],
      "stateMutability": "view",
      "type": "function",
      "constant": true
    },
    {
      "inputs": [
        {
          "internalType": "uint256",
          "name": "",
          "type": "uint256"
        }
      ],
      "name": "updateToAmbassadorBalanceWithdrawn",
      "outputs": [
        {
          "internalType": "bool",
          "name": "",
          "type": "bool"
        }
      ],
      "stateMutability": "view",
      "type": "function",
      "constant": true
    },
    {
      "inputs": [
        {
          "internalType": "uint256",
          "name": "",
          "type": "uint256"
        }
      ],
      "name": "updateToPlanterBalanceWithdrawn",
      "outputs": [
        {
          "internalType": "bool",
          "name": "",
          "type": "bool"
        }
      ],
      "stateMutability": "view",
      "type": "function",
      "constant": true
    },
    {
      "inputs": [
        {
          "internalType": "uint256",
          "name": "",
          "type": "uint256"
        }
      ],
      "name": "updates",
      "outputs": [
        {
          "internalType": "uint256",
          "name": "treeId",
          "type": "uint256"
        },
        {
          "internalType": "string",
          "name": "imageHash",
          "type": "string"
        },
        {
          "internalType": "uint256",
          "name": "updateDate",
          "type": "uint256"
        },
        {
          "internalType": "uint8",
          "name": "status",
          "type": "uint8"
        },
        {
          "internalType": "bool",
          "name": "minted",
          "type": "bool"
        }
      ],
      "stateMutability": "view",
      "type": "function",
      "constant": true
    },
    {
      "inputs": [
        {
          "internalType": "address",
          "name": "_accessRestrictionAddress",
          "type": "address"
        }
      ],
      "name": "initialize",
      "outputs": [],
      "stateMutability": "nonpayable",
      "type": "function"
    },
    {
      "inputs": [
        {
          "internalType": "address",
          "name": "_address",
          "type": "address"
        }
      ],
      "name": "setTreeFactoryAddress",
      "outputs": [],
      "stateMutability": "nonpayable",
      "type": "function"
    },
    {
      "inputs": [
        {
          "internalType": "uint256",
          "name": "_treeId",
          "type": "uint256"
        },
        {
          "internalType": "string",
          "name": "_imageHash",
          "type": "string"
        }
      ],
      "name": "post",
      "outputs": [],
      "stateMutability": "nonpayable",
      "type": "function"
    },
    {
      "inputs": [
        {
          "internalType": "uint256",
          "name": "_updateId",
          "type": "uint256"
        }
      ],
      "name": "acceptUpdate",
      "outputs": [],
      "stateMutability": "nonpayable",
      "type": "function"
    },
    {
      "inputs": [
        {
          "internalType": "uint256",
          "name": "_treeId",
          "type": "uint256"
        }
      ],
      "name": "getTreeUpdates",
      "outputs": [
        {
          "internalType": "uint256[]",
          "name": "",
          "type": "uint256[]"
        }
      ],
      "stateMutability": "view",
      "type": "function",
      "constant": true
    },
    {
      "inputs": [
        {
          "internalType": "uint256",
          "name": "_id",
          "type": "uint256"
        }
      ],
      "name": "getUpdateDate",
      "outputs": [
        {
          "internalType": "uint256",
          "name": "",
          "type": "uint256"
        }
      ],
      "stateMutability": "view",
      "type": "function",
      "constant": true
    },
    {
      "inputs": [
        {
          "internalType": "uint256",
          "name": "_id",
          "type": "uint256"
        }
      ],
      "name": "getTreeId",
      "outputs": [
        {
          "internalType": "uint256",
          "name": "",
          "type": "uint256"
        }
      ],
      "stateMutability": "view",
      "type": "function",
      "constant": true
    },
    {
      "inputs": [
        {
          "internalType": "uint256",
          "name": "_id",
          "type": "uint256"
        }
      ],
      "name": "getImageHash",
      "outputs": [
        {
          "internalType": "string",
          "name": "",
          "type": "string"
        }
      ],
      "stateMutability": "view",
      "type": "function",
      "constant": true
    },
    {
      "inputs": [
        {
          "internalType": "uint256",
          "name": "_id",
          "type": "uint256"
        }
      ],
      "name": "getStatus",
      "outputs": [
        {
          "internalType": "uint8",
          "name": "",
          "type": "uint8"
        }
      ],
      "stateMutability": "view",
      "type": "function",
      "constant": true
    },
    {
      "inputs": [
        {
          "internalType": "uint256",
          "name": "_id",
          "type": "uint256"
        }
      ],
      "name": "isMinted",
      "outputs": [
        {
          "internalType": "bool",
          "name": "",
          "type": "bool"
        }
      ],
      "stateMutability": "view",
      "type": "function",
      "constant": true
    },
    {
      "inputs": [
        {
          "internalType": "uint256",
          "name": "_treeId",
          "type": "uint256"
        }
      ],
      "name": "isTreeLastUpdateMinted",
      "outputs": [
        {
          "internalType": "bool",
          "name": "",
          "type": "bool"
        }
      ],
      "stateMutability": "view",
      "type": "function",
      "constant": true
    },
    {
      "inputs": [
        {
          "internalType": "uint256",
          "name": "_id",
          "type": "uint256"
        },
        {
          "internalType": "bool",
          "name": "_minted",
          "type": "bool"
        }
      ],
      "name": "setMinted",
      "outputs": [],
      "stateMutability": "nonpayable",
      "type": "function"
    },
    {
      "inputs": [
        {
          "internalType": "uint256",
          "name": "_treeId",
          "type": "uint256"
        }
      ],
      "name": "isTreeLastUpdatePlanterBalanceWithdrawn",
      "outputs": [
        {
          "internalType": "bool",
          "name": "",
          "type": "bool"
        }
      ],
      "stateMutability": "view",
      "type": "function",
      "constant": true
    },
    {
      "inputs": [
        {
          "internalType": "uint256",
          "name": "_id",
          "type": "uint256"
        }
      ],
      "name": "isPlanterBalanceWithdrawn",
      "outputs": [
        {
          "internalType": "bool",
          "name": "",
          "type": "bool"
        }
      ],
      "stateMutability": "view",
      "type": "function",
      "constant": true
    },
    {
      "inputs": [
        {
          "internalType": "uint256",
          "name": "_id",
          "type": "uint256"
        }
      ],
      "name": "setPlanterBalanceWithdrawn",
      "outputs": [],
      "stateMutability": "nonpayable",
      "type": "function"
    },
    {
      "inputs": [
        {
          "internalType": "uint256",
          "name": "_treeId",
          "type": "uint256"
        }
      ],
      "name": "isTreeLastUpdateAmbassadorBalanceWithdrawn",
      "outputs": [
        {
          "internalType": "bool",
          "name": "",
          "type": "bool"
        }
      ],
      "stateMutability": "view",
      "type": "function",
      "constant": true
    },
    {
      "inputs": [
        {
          "internalType": "uint256",
          "name": "_id",
          "type": "uint256"
        }
      ],
      "name": "isAmbassadorBalanceWithdrawn",
      "outputs": [
        {
          "internalType": "bool",
          "name": "",
          "type": "bool"
        }
      ],
      "stateMutability": "view",
      "type": "function",
      "constant": true
    },
    {
      "inputs": [
        {
          "internalType": "uint256",
          "name": "_id",
          "type": "uint256"
        }
      ],
      "name": "setAmbassadorBalanceWithdrawn",
      "outputs": [],
      "stateMutability": "nonpayable",
      "type": "function"
    }
  ],
  "bytecode": "0x608060405234801561001057600080fd5b506112eb806100206000396000f3fe608060405234801561001057600080fd5b50600436106101735760003560e01c80639273ca0f116100de578063c4d66de811610097578063e31bd1b711610071578063e31bd1b71461035b578063edbe8d4e1461036e578063f87bdcd214610376578063fc221e131461038957610173565b8063c4d66de81461032d578063c539926614610340578063d6762c4a1461035357610173565b80639273ca0f1461029d5780639f3e5848146102b0578063a7130422146102d0578063add2ff27146102e3578063b4c2f727146102f6578063b53b30be1461031a57610173565b8063473fd50f11610130578063473fd50f1461021157806351df096214610224578063540bdfbe14610237578063591a5eb61461024a5780635c622a0e1461025d578063628344621461027d57610173565b806306a2b4fd146101785780630bf351f8146101a15780632bfce493146101b657806333c41a90146101c957806333f19411146101dc578063421ef6d4146101fc575b600080fd5b61018b610186366004610f4d565b61039c565b60405161019891906110cd565b60405180910390f35b6101b46101af366004610ef2565b6103e5565b005b61018b6101c4366004610f4d565b6104e7565b61018b6101d7366004610f4d565b610540565b6101ef6101ea366004610f4d565b61054f565b6040516101989190611200565b610204610577565b6040516101989190611075565b6101b461021f366004610f4d565b610586565b61018b610232366004610f4d565b610658565b6101b4610245366004610f65565b61066d565b6101b4610258366004610f94565b6106a7565b61027061026b366004610f4d565b6109e9565b6040516101989190611281565b61029061028b366004610f4d565b610a15565b60405161019891906110d8565b6101b46102ab366004610f4d565b610ad5565b6102c36102be366004610f4d565b610af0565b6040516101989190611089565b61018b6102de366004610f4d565b610b51565b61018b6102f1366004610f4d565b610b66565b610309610304366004610f4d565b610b7b565b604051610198959493929190611209565b61018b610328366004610f4d565b610c5d565b6101b461033b366004610ef2565b610c72565b6101ef61034e366004610f4d565b610da7565b610204610dcf565b61018b610369366004610f4d565b610dde565b61018b610e01565b6101ef610384366004611009565b610e0a565b6101b4610397366004610f4d565b610e38565b60008181526035602052604081208054603791839160001981019081106103bf57fe5b6000918252602080832090910154835282019290925260400190205460ff169050919050565b603854604051632104fb0560e21b81526001600160a01b0390911690638413ec1490610415903390600401611075565b60006040518083038186803b15801561042d57600080fd5b505afa158015610441573d6000803e3d6000fd5b505050506000819050806001600160a01b031663e0eb4eb96040518163ffffffff1660e01b815260040160206040518083038186803b15801561048357600080fd5b505afa158015610497573d6000803e3d6000fd5b505050506040513d601f19601f820116820180604052508101906104bb9190610f31565b6104c457600080fd5b603980546001600160a01b0319166001600160a01b039290921691909117905550565b6000818152603560205260408120805460349190600019810190811061050957fe5b90600052602060002001548154811061051e57fe5b6000918252602090912060049091020160030154610100900460ff1692915050565b60006034828154811061051e57fe5b60006034828154811061055e57fe5b9060005260206000209060040201600201549050919050565b6039546001600160a01b031681565b603854604051632104fb0560e21b81526001600160a01b0390911690638413ec14906105b6903390600401611075565b60006040518083038186803b1580156105ce57600080fd5b505afa1580156105e2573d6000803e3d6000fd5b505050506001603482815481106105f557fe5b906000526020600020906004020160030160006101000a81548160ff021916908360ff1602179055507fc2ec73998f2d5f5388ad7fcbdb8c7adec87f39fd5dbc1dcce587cf4f2270202e8160405161064d9190611200565b60405180910390a150565b60009081526037602052604090205460ff1690565b806034838154811061067b57fe5b906000526020600020906004020160030160016101000a81548160ff0219169083151502179055505050565b603860009054906101000a90046001600160a01b03166001600160a01b0316634d868f986040518163ffffffff1660e01b815260040160006040518083038186803b1580156106f557600080fd5b505afa158015610709573d6000803e3d6000fd5b5050603854604051636dc1ccab60e01b81526001600160a01b039091169250636dc1ccab915061073d903390600401611075565b60006040518083038186803b15801561075557600080fd5b505afa158015610769573d6000803e3d6000fd5b50506039546040516307ff372360e01b81523393506001600160a01b0390911691506307ff37239061079f908790600401611200565b60206040518083038186803b1580156107b757600080fd5b505afa1580156107cb573d6000803e3d6000fd5b505050506040513d601f19601f820116820180604052508101906107ef9190610f15565b6001600160a01b03161461081e5760405162461bcd60e51b8152600401610815906111bc565b60405180910390fd5b6000838152603560205260409020541561089f576000838152603560205260409020805460349190600019810190811061085457fe5b90600052602060002001548154811061086957fe5b600091825260209091206003600490920201015460ff1660011461089f5760405162461bcd60e51b815260040161081590611139565b60346040518060a0016040528085815260200184848080601f0160208091040260200160405190810160405280939291908181526020018383808284376000920182905250938552505042602080850191909152604084018390526060909301829052508354600181810186559482529082902083516004909202019081558282015180519394919361093a93928501929190910190610e5a565b50604082810151600283015560608301516003909201805460809094015115156101000261ff001960ff90941660ff1990951694909417929092169290921790556034546000858152603560209081528382208054600181018255908352912060001992909201910181905590517ff21895d501301debf8e85ad6a202415a1c431fdb019be7e01b71870841b827d9906109db908390879087908790611244565b60405180910390a150505050565b6000603482815481106109f857fe5b600091825260209091206004909102016003015460ff1692915050565b606060348281548110610a2457fe5b90600052602060002090600402016001018054600181600116156101000203166002900480601f016020809104026020016040519081016040528092919081815260200182805460018160011615610100020316600290048015610ac95780601f10610a9e57610100808354040283529160200191610ac9565b820191906000526020600020905b815481529060010190602001808311610aac57829003601f168201915b50505050509050919050565b6000908152603660205260409020805460ff19166001179055565b600081815260356020908152604091829020805483518184028101840190945280845260609392830182828015610ac957602002820191906000526020600020905b815481526020019060010190808311610b325750505050509050919050565b60009081526036602052604090205460ff1690565b60366020526000908152604090205460ff1681565b60348181548110610b8857fe5b9060005260206000209060040201600091509050806000015490806001018054600181600116156101000203166002900480601f016020809104026020016040519081016040528092919081815260200182805460018160011615610100020316600290048015610c3a5780601f10610c0f57610100808354040283529160200191610c3a565b820191906000526020600020905b815481529060010190602001808311610c1d57829003601f168201915b50505050600283015460039093015491929160ff80821692506101009091041685565b60376020526000908152604090205460ff1681565b600054610100900460ff1680610c8b5750610c8b610e53565b80610c99575060005460ff16155b610cb55760405162461bcd60e51b8152600401610815906110eb565b600054610100900460ff16158015610ce0576000805460ff1961ff0019909116610100171660011790555b6033805460ff191660011790556040805163ba84fd6960e01b8152905183916001600160a01b0383169163ba84fd6991600480820192602092909190829003018186803b158015610d3057600080fd5b505afa158015610d44573d6000803e3d6000fd5b505050506040513d601f19601f82011682018060405250810190610d689190610f31565b610d7157600080fd5b603880546001600160a01b0319166001600160a01b03929092169190911790558015610da3576000805461ff00191690555b5050565b600060348281548110610db657fe5b9060005260206000209060040201600001549050919050565b6038546001600160a01b031681565b60008181526035602052604081208054603691839160001981019081106103bf57fe5b60335460ff1681565b60356020528160005260406000208181548110610e2357fe5b90600052602060002001600091509150505481565b6000908152603760205260409020805460ff19166001179055565b303b155b90565b828054600181600116156101000203166002900490600052602060002090601f016020900481019282601f10610e9b57805160ff1916838001178555610ec8565b82800160010185558215610ec8579182015b82811115610ec8578251825591602001919060010190610ead565b50610ed4929150610ed8565b5090565b610e5791905b80821115610ed45760008155600101610ede565b600060208284031215610f03578081fd5b8135610f0e8161128f565b9392505050565b600060208284031215610f26578081fd5b8151610f0e8161128f565b600060208284031215610f42578081fd5b8151610f0e816112a7565b600060208284031215610f5e578081fd5b5035919050565b60008060408385031215610f77578081fd5b823591506020830135610f89816112a7565b809150509250929050565b600080600060408486031215610fa8578081fd5b83359250602084013567ffffffffffffffff80821115610fc6578283fd5b81860187601f820112610fd7578384fd5b8035925081831115610fe7578384fd5b876020848301011115610ff8578384fd5b949760209095019650909450505050565b6000806040838503121561101b578182fd5b50508035926020909101359150565b60008151808452815b8181101561104f57602081850181015186830182015201611033565b818111156110605782602083870101525b50601f01601f19169290920160200192915050565b6001600160a01b0391909116815260200190565b6020808252825182820181905260009190848201906040850190845b818110156110c1578351835292840192918401916001016110a5565b50909695505050505050565b901515815260200190565b600060208252610f0e602083018461102a565b6020808252602e908201527f436f6e747261637420696e7374616e63652068617320616c726561647920626560408201526d195b881a5b9a5d1a585b1a5e995960921b606082015260800190565b60208082526057908201527f4c61737420757064617465206e6f74206163636570657465642c20706c65617360408201527f65207761697420756e74696c20697420616363706574656420616e642061667460608201527f657220746861742073656e64206e657720757064617465000000000000000000608082015260a00190565b60208082526024908201527f4f6e6c7920506c616e746572206f6620747265652063616e2073656e642075706040820152636461746560e01b606082015260800190565b90815260200190565b600086825260a0602083015261122260a083018761102a565b60408301959095525060ff929092166060830152151560809091015292915050565b60008582528460208301526060604083015282606083015282846080840137818301608090810191909152601f909201601f191601019392505050565b60ff91909116815260200190565b6001600160a01b03811681146112a457600080fd5b50565b80151581146112a457600080fdfea2646970667358221220fec41cba4bf688a32bcdb68b98c1b29ee31ffaf456d1239183ce9fa6804b0f2464736f6c63430006090033",
  "immutableReferences": {},
  "source": "// SPDX-License-Identifier: GPL-3.0\n\npragma solidity >=0.4.21 <0.7.0;\npragma experimental ABIEncoderV2;\n\n\nimport \"../../node_modules/@openzeppelin/contracts-ethereum-package/contracts/Initializable.sol\";\n\nimport \"../access/AccessRestriction.sol\";\nimport \"./TreeFactory.sol\";\n\ncontract UpdateFactory is Initializable {\n    event UpdateAdded(uint256 updateId, uint256 treeId, string imageHash);\n    event UpdateAccepted(uint256 updateId);\n\n    struct Update {\n        uint256 treeId;\n        string imageHash;\n        uint256 updateDate;\n        uint8 status;\n        bool minted;\n    }\n\n    // @dev Sanity check that allows us to ensure that we are pointing to the\n    //  right contract in our setUpdateFactoryAddress() call.\n    bool public isUpdateFactory;\n\n    Update[] public updates;\n    mapping(uint256 => uint256[]) public treeUpdates;\n\n    mapping(uint256 => bool) public updateToPlanterBalanceWithdrawn;\n    mapping(uint256 => bool) public updateToAmbassadorBalanceWithdrawn;\n\n    AccessRestriction public accessRestriction;\n    TreeFactory public treeFactory;\n\n\n    function initialize(address _accessRestrictionAddress) public initializer {\n        isUpdateFactory = true;\n        AccessRestriction candidateContract = AccessRestriction(_accessRestrictionAddress);\n        require(candidateContract.isAccessRestriction());\n        accessRestriction = candidateContract;\n    }\n\n    function setTreeFactoryAddress(address _address) external {\n        accessRestriction.ifAdmin(msg.sender);\n\n        TreeFactory candidateContract = TreeFactory(_address);\n        require(candidateContract.isTreeFactory());\n        treeFactory = candidateContract;\n    }\n\n    //@todo permission check\n    // update difference must check\n    function post(uint256 _treeId, string calldata _imageHash) external {\n        \n        accessRestriction.ifNotPaused();\n        accessRestriction.ifPlanter(msg.sender);\n\n        require(treeFactory.treeToPlanter(_treeId) == msg.sender, \"Only Planter of tree can send update\");\n\n        if(treeUpdates[_treeId].length > 0) {\n            require(updates[treeUpdates[_treeId][treeUpdates[_treeId].length - 1]].status == 1,\n            \"Last update not accepeted, please wait until it accpeted and after that send new update\"); \n        }\n\n        updates.push(Update(_treeId, _imageHash, block.timestamp, 0, false));\n        uint256 id = updates.length - 1;\n\n        treeUpdates[_treeId].push(id);\n\n        emit UpdateAdded(id, _treeId, _imageHash);\n    }\n\n    function acceptUpdate(uint256 _updateId) external {\n        accessRestriction.ifAdmin(msg.sender);\n\n        updates[_updateId].status = 1;\n        emit UpdateAccepted(_updateId);\n    }\n\n    function getTreeUpdates(uint _treeId) public view returns (uint256[] memory) {\n        return treeUpdates[_treeId];\n    }\n\n    function getUpdateDate(uint256 _id) public view returns (uint256) {\n        return updates[_id].updateDate;\n    }\n\n    function getTreeId(uint256 _id) public view returns (uint256) {\n        return updates[_id].treeId;\n    }\n\n    function getImageHash(uint256 _id) public view returns (string memory) {\n        return updates[_id].imageHash;\n    }\n\n    function getStatus(uint256 _id) public view returns (uint8) {\n        return updates[_id].status;\n    }\n\n    function isMinted(uint256 _id) public view returns (bool) {\n        return updates[_id].minted;\n    }\n\n    function isTreeLastUpdateMinted(uint256 _treeId) public view returns (bool) {\n        return updates[treeUpdates[_treeId][treeUpdates[_treeId].length - 1]].minted;\n    }\n\n    //@todo permission must check only owner of tree can change the minted\n    function setMinted(uint256 _id, bool _minted) public {\n        updates[_id].minted = _minted;\n    }\n\n    function isTreeLastUpdatePlanterBalanceWithdrawn(uint256 _treeId) public view returns (bool) {\n        return updateToPlanterBalanceWithdrawn[treeUpdates[_treeId][treeUpdates[_treeId].length - 1]];\n    }\n\n    function isPlanterBalanceWithdrawn(uint256 _id) public view returns (bool) {\n        return updateToPlanterBalanceWithdrawn[_id];\n    }\n\n    function setPlanterBalanceWithdrawn(uint256 _id) public {\n        updateToPlanterBalanceWithdrawn[_id] = true;\n    }\n\n    function isTreeLastUpdateAmbassadorBalanceWithdrawn(uint256 _treeId) public view returns (bool) {\n        return updateToAmbassadorBalanceWithdrawn[treeUpdates[_treeId][treeUpdates[_treeId].length - 1]];\n    }\n\n    function isAmbassadorBalanceWithdrawn(uint256 _id) public view returns (bool) {\n        return updateToAmbassadorBalanceWithdrawn[_id];\n    }\n\n    function setAmbassadorBalanceWithdrawn(uint256 _id) public {\n        updateToAmbassadorBalanceWithdrawn[_id] = true;\n    }\n    \n    // function getUpdate(uint _id) public view returns (uint256[] memory) {\n    //     return treeUpdates[_id];\n    // }\n\n\n}\n",
  "sourcePath": "/home/amir/Projects/treejer/contract/contracts/tree/UpdateFactory.sol",
  "compiler": {
    "name": "solc",
    "version": "0.6.9+commit.3e3065ac.Emscripten.clang"
  },
  "schemaVersion": "3.2.3",
  "updatedAt": "2020-10-30T16:50:57.033Z",
  "networkType": "ethereum",
  "devdoc": {
    "methods": {}
  },
  "userdoc": {
    "methods": {}
  }
}