{
  "contractName": "UpdateFactory",
  "abi": [
    {
      "anonymous": false,
      "inputs": [
        {
          "indexed": false,
          "internalType": "uint256",
          "name": "updateId",
          "type": "uint256"
        },
        {
          "indexed": false,
          "internalType": "address",
          "name": "byWho",
          "type": "address"
        }
      ],
      "name": "UpdateAccepted",
      "type": "event"
    },
    {
      "anonymous": false,
      "inputs": [
        {
          "indexed": false,
          "internalType": "uint256",
          "name": "updateId",
          "type": "uint256"
        },
        {
          "indexed": false,
          "internalType": "uint256",
          "name": "treeId",
          "type": "uint256"
        },
        {
          "indexed": false,
          "internalType": "string",
          "name": "imageHash",
          "type": "string"
        }
      ],
      "name": "UpdateAdded",
      "type": "event"
    },
    {
      "inputs": [],
      "name": "accessRestriction",
      "outputs": [
        {
          "internalType": "contract IAccessRestriction",
          "name": "",
          "type": "address"
        }
      ],
      "stateMutability": "view",
      "type": "function",
      "constant": true
    },
    {
      "inputs": [],
      "name": "gbFactory",
      "outputs": [
        {
          "internalType": "contract IGBFactory",
          "name": "",
          "type": "address"
        }
      ],
      "stateMutability": "view",
      "type": "function",
      "constant": true
    },
    {
      "inputs": [
        {
          "internalType": "address",
          "name": "forwarder",
          "type": "address"
        }
      ],
      "name": "isTrustedForwarder",
      "outputs": [
        {
          "internalType": "bool",
          "name": "",
          "type": "bool"
        }
      ],
      "stateMutability": "view",
      "type": "function",
      "constant": true
    },
    {
      "inputs": [],
      "name": "isUpdateFactory",
      "outputs": [
        {
          "internalType": "bool",
          "name": "",
          "type": "bool"
        }
      ],
      "stateMutability": "view",
      "type": "function",
      "constant": true
    },
    {
      "inputs": [],
      "name": "treeFactory",
      "outputs": [
        {
          "internalType": "contract ITreeFactory",
          "name": "",
          "type": "address"
        }
      ],
      "stateMutability": "view",
      "type": "function",
      "constant": true
    },
    {
      "inputs": [
        {
          "internalType": "uint256",
          "name": "",
          "type": "uint256"
        },
        {
          "internalType": "uint256",
          "name": "",
          "type": "uint256"
        }
      ],
      "name": "treeUpdates",
      "outputs": [
        {
          "internalType": "uint256",
          "name": "",
          "type": "uint256"
        }
      ],
      "stateMutability": "view",
      "type": "function",
      "constant": true
    },
    {
      "inputs": [],
      "name": "trustedForwarder",
      "outputs": [
        {
          "internalType": "address",
          "name": "",
          "type": "address"
        }
      ],
      "stateMutability": "view",
      "type": "function",
      "constant": true
    },
    {
      "inputs": [
        {
          "internalType": "uint256",
          "name": "",
          "type": "uint256"
        }
      ],
      "name": "updates",
      "outputs": [
        {
          "internalType": "uint256",
          "name": "treeId",
          "type": "uint256"
        },
        {
          "internalType": "string",
          "name": "imageHash",
          "type": "string"
        },
        {
          "internalType": "uint256",
          "name": "updateDate",
          "type": "uint256"
        },
        {
          "internalType": "bool",
          "name": "status",
          "type": "bool"
        }
      ],
      "stateMutability": "view",
      "type": "function",
      "constant": true
    },
    {
      "inputs": [],
      "name": "versionRecipient",
      "outputs": [
        {
          "internalType": "string",
          "name": "",
          "type": "string"
        }
      ],
      "stateMutability": "view",
      "type": "function",
      "constant": true
    },
    {
      "inputs": [
        {
          "internalType": "address",
          "name": "_accessRestrictionAddress",
          "type": "address"
        }
      ],
      "name": "initialize",
      "outputs": [],
      "stateMutability": "nonpayable",
      "type": "function"
    },
    {
      "inputs": [
        {
          "internalType": "address",
          "name": "_address",
          "type": "address"
        }
      ],
      "name": "setTreeFactoryAddress",
      "outputs": [],
      "stateMutability": "nonpayable",
      "type": "function"
    },
    {
      "inputs": [
        {
          "internalType": "address",
          "name": "_address",
          "type": "address"
        }
      ],
      "name": "setGBFactoryAddress",
      "outputs": [],
      "stateMutability": "nonpayable",
      "type": "function"
    },
    {
      "inputs": [
        {
          "internalType": "address",
          "name": "_address",
          "type": "address"
        }
      ],
      "name": "setTrustedForwarder",
      "outputs": [],
      "stateMutability": "nonpayable",
      "type": "function"
    },
    {
      "inputs": [
        {
          "internalType": "uint256",
          "name": "_treeId",
          "type": "uint256"
        },
        {
          "internalType": "string",
          "name": "_imageHash",
          "type": "string"
        }
      ],
      "name": "post",
      "outputs": [],
      "stateMutability": "nonpayable",
      "type": "function"
    },
    {
      "inputs": [
        {
          "internalType": "uint256",
          "name": "_updateId",
          "type": "uint256"
        }
      ],
      "name": "acceptUpdate",
      "outputs": [],
      "stateMutability": "nonpayable",
      "type": "function"
    },
    {
      "inputs": [
        {
          "internalType": "uint256",
          "name": "_treeId",
          "type": "uint256"
        }
      ],
      "name": "getTreeUpdates",
      "outputs": [
        {
          "internalType": "uint256[]",
          "name": "",
          "type": "uint256[]"
        }
      ],
      "stateMutability": "view",
      "type": "function",
      "constant": true
    },
    {
      "inputs": [
        {
          "internalType": "uint256",
          "name": "_treeId",
          "type": "uint256"
        }
      ],
      "name": "getTreeLastUpdateId",
      "outputs": [
        {
          "internalType": "uint256",
          "name": "",
          "type": "uint256"
        }
      ],
      "stateMutability": "view",
      "type": "function",
      "constant": true
    }
  ],
  "bytecode": "0x608060405234801561001057600080fd5b506118c1806100206000396000f3fe608060405234801561001057600080fd5b506004361061010b5760003560e01c80637da0a877116100a2578063c4d66de811610071578063c4d66de814610224578063d6762c4a14610237578063da7422281461023f578063edbe8d4e14610252578063f87bdcd21461025a5761010b565b80637da0a877146101b95780639f3e5848146101c1578063b2c7232c146101e1578063b4c2f727146102015761010b565b8063486ff0cd116100de578063486ff0cd14610169578063572b6c051461017e578063591a5eb61461019e5780636265e0d8146101b15761010b565b80630bf351f814610110578063415d13aa14610125578063421ef6d414610138578063473fd50f14610156575b600080fd5b61012361011e36600461136c565b61026d565b005b61012361013336600461136c565b610374565b61014061047b565b60405161014d91906114d5565b60405180910390f35b6101236101643660046113c4565b61048a565b610171610af9565b60405161014d9190611538565b61019161018c36600461136c565b610b19565b60405161014d919061152d565b6101236101ac3660046113f4565b610b33565b610140610e73565b610140610e82565b6101d46101cf3660046113c4565b610e97565b60405161014d91906114e9565b6101f46101ef3660046113c4565b610ef9565b60405161014d91906117d7565b61021461020f3660046113c4565b610f36565b60405161014d94939291906117f7565b61012361023236600461136c565b61100f565b61014061114a565b61012361024d36600461136c565b611159565b6101916111e9565b6101f4610268366004611469565b6111f9565b6003546001600160a01b0316638413ec14610286611227565b6040518263ffffffff1660e01b81526004016102a291906114d5565b60006040518083038186803b1580156102ba57600080fd5b505afa1580156102ce573d6000803e3d6000fd5b505050506000819050806001600160a01b031663e0eb4eb96040518163ffffffff1660e01b815260040160206040518083038186803b15801561031057600080fd5b505afa158015610324573d6000803e3d6000fd5b505050506040513d601f19601f8201168201806040525081019061034891906113a4565b61035157600080fd5b600480546001600160a01b0319166001600160a01b039290921691909117905550565b6003546001600160a01b0316638413ec1461038d611227565b6040518263ffffffff1660e01b81526004016103a991906114d5565b60006040518083038186803b1580156103c157600080fd5b505afa1580156103d5573d6000803e3d6000fd5b505050506000819050806001600160a01b0316634cff2b0f6040518163ffffffff1660e01b815260040160206040518083038186803b15801561041757600080fd5b505afa15801561042b573d6000803e3d6000fd5b505050506040513d601f19601f8201168201806040525081019061044f91906113a4565b61045857600080fd5b600580546001600160a01b0319166001600160a01b039290921691909117905550565b6004546001600160a01b031681565b6003546001600160a01b03166324d7806c6104a3611227565b6040518263ffffffff1660e01b81526004016104bf91906114d5565b60206040518083038186803b1580156104d757600080fd5b505afa1580156104eb573d6000803e3d6000fd5b505050506040513d601f19601f8201168201806040525081019061050f91906113a4565b8061059a57506003546001600160a01b0316630fdc0e3361052e611227565b6040518263ffffffff1660e01b815260040161054a91906114d5565b60206040518083038186803b15801561056257600080fd5b505afa158015610576573d6000803e3d6000fd5b505050506040513d601f19601f8201168201806040525081019061059a91906113a4565b6105bf5760405162461bcd60e51b81526004016105b6906115d0565b60405180910390fd5b600181815481106105cc57fe5b600091825260209091206003600490920201015460ff16156106005760405162461bcd60e51b81526004016105b69061154b565b6003546001600160a01b03166324d7806c610619611227565b6040518263ffffffff1660e01b815260040161063591906114d5565b60206040518083038186803b15801561064d57600080fd5b505afa158015610661573d6000803e3d6000fd5b505050506040513d601f19601f8201168201806040525081019061068591906113a4565b1515600114610a865760006001828154811061069d57fe5b90600052602060002090600402016000015490506106b9611227565b600480546040516307ff372360e01b81526001600160a01b0393841693909116916307ff3723916106ec918691016117d7565b60206040518083038186803b15801561070457600080fd5b505afa158015610718573d6000803e3d6000fd5b505050506040513d601f19601f8201168201806040525081019061073c9190611388565b6001600160a01b031614156107635760405162461bcd60e51b81526004016105b6906116e2565b60048054604051632f41389160e11b81526000926001600160a01b0390921691635e82712291610795918691016117d7565b60206040518083038186803b1580156107ad57600080fd5b505afa1580156107c1573d6000803e3d6000fd5b505050506040513d601f19601f820116820180604052508101906107e591906113dc565b6003549091506001600160a01b0316639ac0c6ac610801611227565b6040518263ffffffff1660e01b815260040161081d91906114d5565b60206040518083038186803b15801561083557600080fd5b505afa158015610849573d6000803e3d6000fd5b505050506040513d601f19601f8201168201806040525081019061086d91906113a4565b156109295761087a611227565b600554604051636b78fcb560e11b81526001600160a01b03928316929091169063d6f1f96a906108ae9085906004016117d7565b60206040518083038186803b1580156108c657600080fd5b505afa1580156108da573d6000803e3d6000fd5b505050506040513d601f19601f820116820180604052508101906108fe9190611388565b6001600160a01b0316146109245760405162461bcd60e51b81526004016105b690611782565b610a83565b6000805b600554604051633714e07f60e01b81526001600160a01b0390911690633714e07f9061095d9086906004016117d7565b60206040518083038186803b15801561097557600080fd5b505afa158015610989573d6000803e3d6000fd5b505050506040513d601f19601f820116820180604052508101906109ad91906113dc565b811015610a5e576109bc611227565b600554604051633e50e97b60e11b81526001600160a01b039283169290911690637ca1d2f6906109f29087908690600401611828565b60206040518083038186803b158015610a0a57600080fd5b505afa158015610a1e573d6000803e3d6000fd5b505050506040513d601f19601f82011682018060405250810190610a429190611388565b6001600160a01b03161415610a5657600191505b60010161092d565b50600181151514610a815760405162461bcd60e51b81526004016105b690611725565b505b50505b6001808281548110610a9457fe5b60009182526020909120600490910201600301805460ff19169115159190911790557f77fc6126d260b6f2826b8ca23ba34c8e5d2d5015f490e0e6333ad5d50588d3da81610ae0611227565b604051610aee9291906117e0565b60405180910390a150565b6040805180820190915260058152640322e302e360dc1b60208201525b90565b6000546201000090046001600160a01b0390811691161490565b600360009054906101000a90046001600160a01b03166001600160a01b0316634d868f986040518163ffffffff1660e01b815260040160006040518083038186803b158015610b8157600080fd5b505afa158015610b95573d6000803e3d6000fd5b50506003546001600160a01b03169150636dc1ccab9050610bb4611227565b6040518263ffffffff1660e01b8152600401610bd091906114d5565b60006040518083038186803b158015610be857600080fd5b505afa158015610bfc573d6000803e3d6000fd5b50505050610c08611227565b600480546040516307ff372360e01b81526001600160a01b0393841693909116916307ff372391610c3b918891016117d7565b60206040518083038186803b158015610c5357600080fd5b505afa158015610c67573d6000803e3d6000fd5b505050506040513d601f19601f82011682018060405250810190610c8b9190611388565b6001600160a01b031614610cb15760405162461bcd60e51b81526004016105b69061169e565b60008381526002602052604090205415610d40576000838152600260205260409020805460019190610ce9908363ffffffff61125916565b81548110610cf357fe5b906000526020600020015481548110610d0857fe5b600091825260209091206003600490920201015460ff161515600114610d405760405162461bcd60e51b81526004016105b690611622565b6001604051806080016040528085815260200184848080601f016020809104026020016040519081016040528093929190818152602001838380828437600092018290525093855250504260208085019190915260409093018290525083546001818101865594825290829020835160049092020190815582820151805193949193610dd4939285019291909101906112d4565b50604082015160028201556060909101516003909101805460ff191691151591909117905560018054600091610e0a9190611259565b600085815260026020908152604080832080546001810182559084529190922001829055519091507ff21895d501301debf8e85ad6a202415a1c431fdb019be7e01b71870841b827d990610e65908390879087908790611836565b60405180910390a150505050565b6005546001600160a01b031681565b6000546201000090046001600160a01b031681565b600081815260026020908152604091829020805483518184028101840190945280845260609392830182828015610eed57602002820191906000526020600020905b815481526020019060010190808311610ed9575b50505050509050919050565b60008181526002602052604081208054610f1a90600163ffffffff61125916565b81548110610f2457fe5b90600052602060002001549050919050565b60018181548110610f4357fe5b9060005260206000209060040201600091509050806000015490806001018054600181600116156101000203166002900480601f016020809104026020016040519081016040528092919081815260200182805460018160011615610100020316600290048015610ff55780601f10610fca57610100808354040283529160200191610ff5565b820191906000526020600020905b815481529060010190602001808311610fd857829003601f168201915b50505050600283015460039093015491929160ff16905084565b600054610100900460ff168061102857506110286112a2565b80611036575060005460ff16155b6110525760405162461bcd60e51b81526004016105b690611582565b600054610100900460ff1615801561107d576000805460ff1961ff0019909116610100171660011790555b6000805460ff60b01b1916600160b01b1790556040805163ba84fd6960e01b8152905183916001600160a01b0383169163ba84fd6991600480820192602092909190829003018186803b1580156110d357600080fd5b505afa1580156110e7573d6000803e3d6000fd5b505050506040513d601f19601f8201168201806040525081019061110b91906113a4565b61111457600080fd5b600380546001600160a01b0319166001600160a01b03929092169190911790558015611146576000805461ff00191690555b5050565b6003546001600160a01b031681565b6003546001600160a01b0316638413ec14611172611227565b6040518263ffffffff1660e01b815260040161118e91906114d5565b60006040518083038186803b1580156111a657600080fd5b505afa1580156111ba573d6000803e3d6000fd5b5050600080546001600160a01b03909416620100000262010000600160b01b0319909416939093179092555050565b600054600160b01b900460ff1681565b6002602052816000526040600020818154811061121257fe5b90600052602060002001600091509150505481565b60006018361080159061123e575061123e33610b19565b15611252575060131936013560601c610b16565b5033610b16565b600061129b83836040518060400160405280601e81526020017f536166654d6174683a207375627472616374696f6e206f766572666c6f7700008152506112a8565b9392505050565b303b1590565b600081848411156112cc5760405162461bcd60e51b81526004016105b69190611538565b505050900390565b828054600181600116156101000203166002900490600052602060002090601f016020900481019282601f1061131557805160ff1916838001178555611342565b82800160010185558215611342579182015b82811115611342578251825591602001919060010190611327565b5061134e929150611352565b5090565b610b1691905b8082111561134e5760008155600101611358565b60006020828403121561137d578081fd5b813561129b81611873565b600060208284031215611399578081fd5b815161129b81611873565b6000602082840312156113b5578081fd5b8151801515811461129b578182fd5b6000602082840312156113d5578081fd5b5035919050565b6000602082840312156113ed578081fd5b5051919050565b600080600060408486031215611408578182fd5b83359250602084013567ffffffffffffffff80821115611426578384fd5b81860187601f820112611437578485fd5b8035925081831115611447578485fd5b876020848301011115611458578485fd5b949760209095019650909450505050565b6000806040838503121561147b578182fd5b50508035926020909101359150565b60008151808452815b818110156114af57602081850181015186830182015201611493565b818111156114c05782602083870101525b50601f01601f19169290920160200192915050565b6001600160a01b0391909116815260200190565b6020808252825182820181905260009190848201906040850190845b8181101561152157835183529284019291840191600101611505565b50909695505050505050565b901515815260200190565b60006020825261129b602083018461148a565b6020808252601e908201527f75706461746520737461747573206d7573742062652070656e64696e67210000604082015260600190565b6020808252602e908201527f496e697469616c697a61626c653a20636f6e747261637420697320616c72656160408201526d191e481a5b9a5d1a585b1a5e995960921b606082015260800190565b60208082526032908201527f41646d696e206f7220616d6261737361646f72206f7220706c616e7465722063604082015271616e2061636365707420757064617465732160701b606082015260800190565b60208082526056908201527f4c61737420757064617465206e6f742061636365707465642c20706c6561736560408201527f207761697420756e74696c20697420616363657074656420616e6420616674656060820152757220746861742073656e64206e65772075706461746560501b608082015260a00190565b60208082526024908201527f4f6e6c7920506c616e746572206f6620747265652063616e2073656e642075706040820152636461746560e01b606082015260800190565b60208082526023908201527f506c616e746572206f6620747265652063616e2774206163636570742075706460408201526261746560e81b606082015260800190565b6020808252603a908201527f6f6e6c79206f6e65206f6620706c616e74657273206f6620746861742067726560408201527f656e426c6f636b2063616e206163636570742075706461746521000000000000606082015260800190565b60208082526035908201527f6f6e6c7920616d6261737361646f72206f66207468617420677265656e426c6f604082015274636b2063616e20616363657074207570646174652160581b606082015260800190565b90815260200190565b9182526001600160a01b0316602082015260400190565b600085825260806020830152611810608083018661148a565b60408301949094525090151560609091015292915050565b918252602082015260400190565b60008582528460208301526060604083015282606083015282846080840137818301608090810191909152601f909201601f191601019392505050565b6001600160a01b038116811461188857600080fd5b5056fea26469706673582212203ebac678da0c5b75bc535da8dfbe982e880d474bae24c4654dd631047090ec8464736f6c634300060a0033",
  "immutableReferences": {},
  "source": "// SPDX-License-Identifier: GPL-3.0\n\npragma solidity >=0.4.21 <0.7.0;\npragma experimental ABIEncoderV2;\n\nimport \"@openzeppelin/contracts-upgradeable/proxy/Initializable.sol\";\nimport \"@openzeppelin/contracts-upgradeable/math/SafeMathUpgradeable.sol\";\n\nimport \"../access/IAccessRestriction.sol\";\nimport \"./ITreeFactory.sol\";\nimport \"../greenblock/IGBFactory.sol\";\nimport \"../gsn/RelayRecipient.sol\";\n\ncontract UpdateFactory is Initializable, RelayRecipient {\n    using SafeMathUpgradeable for uint256;\n\n    event UpdateAdded(uint256 updateId, uint256 treeId, string imageHash);\n    event UpdateAccepted(uint256 updateId, address byWho);\n\n    struct Update {\n        uint256 treeId;\n        string imageHash;\n        uint256 updateDate;\n        bool status;\n    }\n\n    // @dev Sanity check that allows us to ensure that we are pointing to the\n    //  right contract in our setUpdateFactoryAddress() call.\n    bool public isUpdateFactory;\n\n    Update[] public updates;\n    mapping(uint256 => uint256[]) public treeUpdates;\n\n    IAccessRestriction public accessRestriction;\n    ITreeFactory public treeFactory;\n    IGBFactory public gbFactory;\n\n    function initialize(address _accessRestrictionAddress) public initializer {\n        isUpdateFactory = true;\n        IAccessRestriction candidateContract =\n            IAccessRestriction(_accessRestrictionAddress);\n        require(candidateContract.isAccessRestriction());\n        accessRestriction = candidateContract;\n    }\n\n    function setTreeFactoryAddress(address _address) external {\n        accessRestriction.ifAdmin(_msgSender());\n\n        ITreeFactory candidateContract = ITreeFactory(_address);\n        require(candidateContract.isTreeFactory());\n        treeFactory = candidateContract;\n    }\n\n    function setGBFactoryAddress(address _address) external {\n        accessRestriction.ifAdmin(_msgSender());\n\n        IGBFactory candidateContract = IGBFactory(_address);\n        require(candidateContract.isGBFactory());\n        gbFactory = candidateContract;\n    }\n\n    function setTrustedForwarder(address _address) external {\n        accessRestriction.ifAdmin(_msgSender());\n\n        trustedForwarder = _address;\n    }\n\n    // update difference must check\n    function post(uint256 _treeId, string calldata _imageHash) external {\n        accessRestriction.ifNotPaused();\n        accessRestriction.ifPlanter(_msgSender());\n\n        require(\n            treeFactory.treeToPlanter(_treeId) == _msgSender(),\n            \"Only Planter of tree can send update\"\n        );\n\n        if (treeUpdates[_treeId].length > 0) {\n            require(\n                updates[\n                    treeUpdates[_treeId][treeUpdates[_treeId].length.sub(1)]\n                ]\n                    .status == true,\n                \"Last update not accepted, please wait until it accepted and after that send new update\"\n            );\n        }\n\n        updates.push(Update(_treeId, _imageHash, block.timestamp, false));\n        uint256 id = updates.length.sub(1);\n\n        treeUpdates[_treeId].push(id);\n\n        emit UpdateAdded(id, _treeId, _imageHash);\n    }\n\n    function acceptUpdate(uint256 _updateId) external {\n        require(\n            accessRestriction.isAdmin(_msgSender()) ||\n                accessRestriction.isPlanterOrAmbassador(_msgSender()),\n            \"Admin or ambassador or planter can accept updates!\"\n        );\n\n        require(\n            updates[_updateId].status == false,\n            \"update status must be pending!\"\n        );\n\n        if (accessRestriction.isAdmin(_msgSender()) != true) {\n            uint256 treeId = updates[_updateId].treeId;\n\n            require(\n                treeFactory.treeToPlanter(treeId) != _msgSender(),\n                \"Planter of tree can't accept update\"\n            );\n\n            uint256 gbId = treeFactory.treeToGB(treeId);\n\n            if (accessRestriction.isAmbassador(_msgSender())) {\n                require(\n                    gbFactory.gbToAmbassador(gbId) == _msgSender(),\n                    \"only ambassador of that greenBlock can accept update!\"\n                );\n            } else {\n                bool isInGB = false;\n\n                for (\n                    uint256 index = 0;\n                    index < gbFactory.getGBPlantersCount(gbId);\n                    index++\n                ) {\n                    if (gbFactory.gbToPlanters(gbId, index) == _msgSender()) {\n                        isInGB = true;\n                    }\n                }\n\n                require(\n                    isInGB == true,\n                    \"only one of planters of that greenBlock can accept update!\"\n                );\n            }\n        }\n\n        updates[_updateId].status = true;\n        emit UpdateAccepted(_updateId, _msgSender());\n    }\n\n    function getTreeUpdates(uint256 _treeId)\n        public\n        view\n        returns (uint256[] memory)\n    {\n        return treeUpdates[_treeId];\n    }\n\n    function getTreeLastUpdateId(uint256 _treeId)\n        public\n        view\n        returns (uint256)\n    {\n        return treeUpdates[_treeId][treeUpdates[_treeId].length.sub(1)];\n    }\n}\n",
  "sourcePath": "/home/amir/Projects/treejer/contract/contracts/tree/UpdateFactory.sol",
  "compiler": {
    "name": "solc",
    "version": "0.6.10+commit.00c0fcaf.Emscripten.clang"
  },
  "schemaVersion": "3.3.3",
  "updatedAt": "2021-01-23T09:51:18.766Z",
  "networkType": "ethereum",
  "devdoc": {
    "methods": {}
  },
  "userdoc": {
    "methods": {}
  }
}