{
  "contractName": "WhitelistPaymaster",
  "abi": [
    {
      "inputs": [
        {
          "internalType": "address",
          "name": "_accessRestrictionAddress",
          "type": "address"
        }
      ],
      "stateMutability": "nonpayable",
      "type": "constructor"
    },
    {
      "anonymous": false,
      "inputs": [
        {
          "indexed": true,
          "internalType": "address",
          "name": "previousOwner",
          "type": "address"
        },
        {
          "indexed": true,
          "internalType": "address",
          "name": "newOwner",
          "type": "address"
        }
      ],
      "name": "OwnershipTransferred",
      "type": "event"
    },
    {
      "inputs": [],
      "name": "FORWARDER_HUB_OVERHEAD",
      "outputs": [
        {
          "internalType": "uint256",
          "name": "",
          "type": "uint256"
        }
      ],
      "stateMutability": "view",
      "type": "function",
      "constant": true
    },
    {
      "inputs": [],
      "name": "PAYMASTER_ACCEPTANCE_BUDGET",
      "outputs": [
        {
          "internalType": "uint256",
          "name": "",
          "type": "uint256"
        }
      ],
      "stateMutability": "view",
      "type": "function",
      "constant": true
    },
    {
      "inputs": [],
      "name": "POST_RELAYED_CALL_GAS_LIMIT",
      "outputs": [
        {
          "internalType": "uint256",
          "name": "",
          "type": "uint256"
        }
      ],
      "stateMutability": "view",
      "type": "function",
      "constant": true
    },
    {
      "inputs": [],
      "name": "PRE_RELAYED_CALL_GAS_LIMIT",
      "outputs": [
        {
          "internalType": "uint256",
          "name": "",
          "type": "uint256"
        }
      ],
      "stateMutability": "view",
      "type": "function",
      "constant": true
    },
    {
      "inputs": [
        {
          "components": [
            {
              "components": [
                {
                  "internalType": "address",
                  "name": "from",
                  "type": "address"
                },
                {
                  "internalType": "address",
                  "name": "to",
                  "type": "address"
                },
                {
                  "internalType": "uint256",
                  "name": "value",
                  "type": "uint256"
                },
                {
                  "internalType": "uint256",
                  "name": "gas",
                  "type": "uint256"
                },
                {
                  "internalType": "uint256",
                  "name": "nonce",
                  "type": "uint256"
                },
                {
                  "internalType": "bytes",
                  "name": "data",
                  "type": "bytes"
                }
              ],
              "internalType": "struct IForwarder.ForwardRequest",
              "name": "request",
              "type": "tuple"
            },
            {
              "components": [
                {
                  "internalType": "uint256",
                  "name": "gasPrice",
                  "type": "uint256"
                },
                {
                  "internalType": "uint256",
                  "name": "pctRelayFee",
                  "type": "uint256"
                },
                {
                  "internalType": "uint256",
                  "name": "baseRelayFee",
                  "type": "uint256"
                },
                {
                  "internalType": "address",
                  "name": "relayWorker",
                  "type": "address"
                },
                {
                  "internalType": "address",
                  "name": "paymaster",
                  "type": "address"
                },
                {
                  "internalType": "bytes",
                  "name": "paymasterData",
                  "type": "bytes"
                },
                {
                  "internalType": "uint256",
                  "name": "clientId",
                  "type": "uint256"
                },
                {
                  "internalType": "address",
                  "name": "forwarder",
                  "type": "address"
                }
              ],
              "internalType": "struct GsnTypes.RelayData",
              "name": "relayData",
              "type": "tuple"
            }
          ],
          "internalType": "struct GsnTypes.RelayRequest",
          "name": "relayRequest",
          "type": "tuple"
        }
      ],
      "name": "_verifyForwarder",
      "outputs": [],
      "stateMutability": "view",
      "type": "function",
      "constant": true
    },
    {
      "inputs": [],
      "name": "accessRestriction",
      "outputs": [
        {
          "internalType": "contract IAccessRestriction",
          "name": "",
          "type": "address"
        }
      ],
      "stateMutability": "view",
      "type": "function",
      "constant": true
    },
    {
      "inputs": [],
      "name": "getGasLimits",
      "outputs": [
        {
          "components": [
            {
              "internalType": "uint256",
              "name": "acceptanceBudget",
              "type": "uint256"
            },
            {
              "internalType": "uint256",
              "name": "preRelayedCallGasLimit",
              "type": "uint256"
            },
            {
              "internalType": "uint256",
              "name": "postRelayedCallGasLimit",
              "type": "uint256"
            }
          ],
          "internalType": "struct IPaymaster.GasLimits",
          "name": "limits",
          "type": "tuple"
        }
      ],
      "stateMutability": "view",
      "type": "function",
      "constant": true
    },
    {
      "inputs": [],
      "name": "getHubAddr",
      "outputs": [
        {
          "internalType": "address",
          "name": "",
          "type": "address"
        }
      ],
      "stateMutability": "view",
      "type": "function",
      "constant": true
    },
    {
      "inputs": [],
      "name": "getRelayHubDeposit",
      "outputs": [
        {
          "internalType": "uint256",
          "name": "",
          "type": "uint256"
        }
      ],
      "stateMutability": "view",
      "type": "function",
      "constant": true
    },
    {
      "inputs": [],
      "name": "owner",
      "outputs": [
        {
          "internalType": "address",
          "name": "",
          "type": "address"
        }
      ],
      "stateMutability": "view",
      "type": "function",
      "constant": true
    },
    {
      "inputs": [],
      "name": "renounceOwnership",
      "outputs": [],
      "stateMutability": "nonpayable",
      "type": "function"
    },
    {
      "inputs": [
        {
          "internalType": "contract IRelayHub",
          "name": "hub",
          "type": "address"
        }
      ],
      "name": "setRelayHub",
      "outputs": [],
      "stateMutability": "nonpayable",
      "type": "function"
    },
    {
      "inputs": [
        {
          "internalType": "contract IForwarder",
          "name": "forwarder",
          "type": "address"
        }
      ],
      "name": "setTrustedForwarder",
      "outputs": [],
      "stateMutability": "nonpayable",
      "type": "function"
    },
    {
      "inputs": [
        {
          "internalType": "address",
          "name": "",
          "type": "address"
        }
      ],
      "name": "targetWhitelist",
      "outputs": [
        {
          "internalType": "bool",
          "name": "",
          "type": "bool"
        }
      ],
      "stateMutability": "view",
      "type": "function",
      "constant": true
    },
    {
      "inputs": [
        {
          "internalType": "address",
          "name": "newOwner",
          "type": "address"
        }
      ],
      "name": "transferOwnership",
      "outputs": [],
      "stateMutability": "nonpayable",
      "type": "function"
    },
    {
      "inputs": [],
      "name": "trustedForwarder",
      "outputs": [
        {
          "internalType": "contract IForwarder",
          "name": "",
          "type": "address"
        }
      ],
      "stateMutability": "view",
      "type": "function",
      "constant": true
    },
    {
      "inputs": [
        {
          "internalType": "uint256",
          "name": "amount",
          "type": "uint256"
        },
        {
          "internalType": "address payable",
          "name": "target",
          "type": "address"
        }
      ],
      "name": "withdrawRelayHubDepositTo",
      "outputs": [],
      "stateMutability": "nonpayable",
      "type": "function"
    },
    {
      "stateMutability": "payable",
      "type": "receive",
      "payable": true
    },
    {
      "inputs": [
        {
          "internalType": "address",
          "name": "target",
          "type": "address"
        }
      ],
      "name": "setWhitelistTarget",
      "outputs": [],
      "stateMutability": "nonpayable",
      "type": "function"
    },
    {
      "inputs": [
        {
          "components": [
            {
              "components": [
                {
                  "internalType": "address",
                  "name": "from",
                  "type": "address"
                },
                {
                  "internalType": "address",
                  "name": "to",
                  "type": "address"
                },
                {
                  "internalType": "uint256",
                  "name": "value",
                  "type": "uint256"
                },
                {
                  "internalType": "uint256",
                  "name": "gas",
                  "type": "uint256"
                },
                {
                  "internalType": "uint256",
                  "name": "nonce",
                  "type": "uint256"
                },
                {
                  "internalType": "bytes",
                  "name": "data",
                  "type": "bytes"
                }
              ],
              "internalType": "struct IForwarder.ForwardRequest",
              "name": "request",
              "type": "tuple"
            },
            {
              "components": [
                {
                  "internalType": "uint256",
                  "name": "gasPrice",
                  "type": "uint256"
                },
                {
                  "internalType": "uint256",
                  "name": "pctRelayFee",
                  "type": "uint256"
                },
                {
                  "internalType": "uint256",
                  "name": "baseRelayFee",
                  "type": "uint256"
                },
                {
                  "internalType": "address",
                  "name": "relayWorker",
                  "type": "address"
                },
                {
                  "internalType": "address",
                  "name": "paymaster",
                  "type": "address"
                },
                {
                  "internalType": "bytes",
                  "name": "paymasterData",
                  "type": "bytes"
                },
                {
                  "internalType": "uint256",
                  "name": "clientId",
                  "type": "uint256"
                },
                {
                  "internalType": "address",
                  "name": "forwarder",
                  "type": "address"
                }
              ],
              "internalType": "struct GsnTypes.RelayData",
              "name": "relayData",
              "type": "tuple"
            }
          ],
          "internalType": "struct GsnTypes.RelayRequest",
          "name": "relayRequest",
          "type": "tuple"
        },
        {
          "internalType": "bytes",
          "name": "signature",
          "type": "bytes"
        },
        {
          "internalType": "bytes",
          "name": "approvalData",
          "type": "bytes"
        },
        {
          "internalType": "uint256",
          "name": "maxPossibleGas",
          "type": "uint256"
        }
      ],
      "name": "preRelayedCall",
      "outputs": [
        {
          "internalType": "bytes",
          "name": "context",
          "type": "bytes"
        },
        {
          "internalType": "bool",
          "name": "revertOnRecipientRevert",
          "type": "bool"
        }
      ],
      "stateMutability": "nonpayable",
      "type": "function"
    },
    {
      "inputs": [
        {
          "internalType": "bytes",
          "name": "context",
          "type": "bytes"
        },
        {
          "internalType": "bool",
          "name": "success",
          "type": "bool"
        },
        {
          "internalType": "uint256",
          "name": "gasUseWithoutPost",
          "type": "uint256"
        },
        {
          "components": [
            {
              "internalType": "uint256",
              "name": "gasPrice",
              "type": "uint256"
            },
            {
              "internalType": "uint256",
              "name": "pctRelayFee",
              "type": "uint256"
            },
            {
              "internalType": "uint256",
              "name": "baseRelayFee",
              "type": "uint256"
            },
            {
              "internalType": "address",
              "name": "relayWorker",
              "type": "address"
            },
            {
              "internalType": "address",
              "name": "paymaster",
              "type": "address"
            },
            {
              "internalType": "bytes",
              "name": "paymasterData",
              "type": "bytes"
            },
            {
              "internalType": "uint256",
              "name": "clientId",
              "type": "uint256"
            },
            {
              "internalType": "address",
              "name": "forwarder",
              "type": "address"
            }
          ],
          "internalType": "struct GsnTypes.RelayData",
          "name": "relayData",
          "type": "tuple"
        }
      ],
      "name": "postRelayedCall",
      "outputs": [],
      "stateMutability": "nonpayable",
      "type": "function"
    },
    {
      "inputs": [],
      "name": "versionPaymaster",
      "outputs": [
        {
          "internalType": "string",
          "name": "",
          "type": "string"
        }
      ],
      "stateMutability": "view",
      "type": "function",
      "constant": true
    }
  ],
  "bytecode": "0x60806040523480156200001157600080fd5b50604051620012ab380380620012ab833981016040819052620000349162000142565b6000620000496001600160e01b036200013e16565b600080546001600160a01b0319166001600160a01b0383169081178255604051929350917f8be0079c531659141344cd1fd0a4f28419497f9722a3daafe3b4186f6b6457e0908290a3506000819050806001600160a01b031663ba84fd696040518163ffffffff1660e01b815260040160206040518083038186803b158015620000d257600080fd5b505afa158015620000e7573d6000803e3d6000fd5b505050506040513d601f19601f820116820180604052508101906200010d919062000172565b6200011757600080fd5b600480546001600160a01b0319166001600160a01b03929092169190911790555062000194565b3390565b60006020828403121562000154578081fd5b81516001600160a01b03811681146200016b578182fd5b9392505050565b60006020828403121562000184578081fd5b815180151581146200016b578182fd5b61110780620001a46000396000f3fe60806040526004361061012e5760003560e01c8063921276ea116100ab578063d6762c4a1161006f578063d6762c4a14610398578063da742228146103ad578063df463a66146103cd578063e5c12446146103e2578063f2fde38b14610410578063f9c002f714610430576101ca565b8063921276ea1461030c5780639ea092111461032e578063b90b41cf1461034e578063bbdaa3c914610363578063c18cd22e14610378576101ca565b80637bb05264116100f25780637bb05264146102755780637da0a87714610295578063858437b0146102aa5780638da5cb5b146102d75780638e9483b0146102ec576101ca565b80632afe31c1146101cf5780632d14c4b7146101fa5780635ea54eee1461021c578063715018a61461023e57806374e861d614610253576101ca565b366101ca576001546001600160a01b03166101645760405162461bcd60e51b815260040161015b90610eed565b60405180910390fd5b60015460405163aa67c91960e01b81526001600160a01b039091169063aa67c919903490610196903090600401610dea565b6000604051808303818588803b1580156101af57600080fd5b505af11580156101c3573d6000803e3d6000fd5b5050505050005b600080fd5b3480156101db57600080fd5b506101e4610445565b6040516101f19190611034565b60405180910390f35b34801561020657600080fd5b5061021a610215366004610d73565b6104cb565b005b34801561022857600080fd5b50610231610566565b6040516101f19190611013565b34801561024a57600080fd5b5061021a610596565b34801561025f57600080fd5b50610268610615565b6040516101f19190610dea565b34801561028157600080fd5b5061021a610290366004610bba565b610624565b3480156102a157600080fd5b5061026861067b565b3480156102b657600080fd5b506102ca6102c5366004610bba565b61068a565b6040516101f19190610dfe565b3480156102e357600080fd5b5061026861069f565b3480156102f857600080fd5b5061021a610307366004610bf9565b6106ae565b34801561031857600080fd5b506103216106b5565b6040516101f19190610e2d565b34801561033a57600080fd5b5061021a610349366004610c87565b6106d4565b34801561035a57600080fd5b506101e461072c565b34801561036f57600080fd5b506101e4610732565b34801561038457600080fd5b5061021a610393366004610bba565b610739565b3480156103a457600080fd5b506102686107be565b3480156103b957600080fd5b5061021a6103c8366004610bba565b6107cd565b3480156103d957600080fd5b506101e4610824565b3480156103ee57600080fd5b506104026103fd366004610cc2565b61082b565b6040516101f1929190610e09565b34801561041c57600080fd5b5061021a61042b366004610bba565b610925565b34801561043c57600080fd5b506101e46109db565b6001546040516370a0823160e01b81526000916001600160a01b0316906370a0823190610476903090600401610dea565b60206040518083038186803b15801561048e57600080fd5b505afa1580156104a2573d6000803e3d6000fd5b505050506040513d601f19601f820116820180604052508101906104c69190610d5b565b905090565b6104d36109e2565b6000546001600160a01b039081169116146105005760405162461bcd60e51b815260040161015b90610fde565b600154604051627b8a6760e11b81526001600160a01b039091169062f714ce90610530908590859060040161103d565b600060405180830381600087803b15801561054a57600080fd5b505af115801561055e573d6000803e3d6000fd5b505050505050565b61056e610b3b565b5060408051606081018252620249f08152620186a060208201526201adb09181019190915290565b61059e6109e2565b6000546001600160a01b039081169116146105cb5760405162461bcd60e51b815260040161015b90610fde565b600080546040516001600160a01b03909116907f8be0079c531659141344cd1fd0a4f28419497f9722a3daafe3b4186f6b6457e0908390a3600080546001600160a01b0319169055565b6001546001600160a01b031690565b61062c6109e2565b6000546001600160a01b039081169116146106595760405162461bcd60e51b815260040161015b90610fde565b600180546001600160a01b0319166001600160a01b0392909216919091179055565b6002546001600160a01b031681565b60036020526000908152604090205460ff1681565b6000546001600160a01b031690565b5050505050565b604080518082019091526005815264322e302e3360d81b602082015290565b6106e16020820182611069565b6106f39061010081019060e001610bba565b6002546001600160a01b039081169116146107205760405162461bcd60e51b815260040161015b90610f24565b610729816109e6565b50565b61c35081565b6201adb081565b60048054604051632104fb0560e21b81526001600160a01b0390911691638413ec149161076891339101610dea565b60006040518083038186803b15801561078057600080fd5b505afa158015610794573d6000803e3d6000fd5b5050506001600160a01b039091166000908152600360205260409020805460ff1916600117905550565b6004546001600160a01b031681565b6107d56109e2565b6000546001600160a01b039081169116146108025760405162461bcd60e51b815260040161015b90610fde565b600280546001600160a01b0319166001600160a01b0392909216919091179055565b620249f081565b60606000610838886106d4565b6004546001600160a01b031663b2511fd86108538a80611054565b610861906020810190610bba565b6040518263ffffffff1660e01b815260040161087d9190610dea565b60006040518083038186803b15801561089557600080fd5b505afa1580156108a9573d6000803e3d6000fd5b5060039250600091506108be90508a80611054565b6108cf906040810190602001610bba565b6001600160a01b0316815260208101919091526040016000205460ff166109085760405162461bcd60e51b815260040161015b90610e40565b505060408051602081019091526000808252965096945050505050565b61092d6109e2565b6000546001600160a01b0390811691161461095a5760405162461bcd60e51b815260040161015b90610fde565b6001600160a01b0381166109805760405162461bcd60e51b815260040161015b90610ea7565b600080546040516001600160a01b03808516939216917f8be0079c531659141344cd1fd0a4f28419497f9722a3daafe3b4186f6b6457e091a3600080546001600160a01b0319166001600160a01b0392909216919091179055565b620186a081565b3390565b600060606109f48380611054565b610a05906040810190602001610bba565b6001600160a01b031663572b6c0560e01b610a236020860186611069565b610a359061010081019060e001610bba565b604051602401610a459190610dea565b60408051601f198184030181529181526020820180516001600160e01b03166001600160e01b0319909416939093179092529051610a839190610dce565b600060405180830381855afa9150503d8060008114610abe576040519150601f19603f3d011682016040523d82523d6000602084013e610ac3565b606091505b509150915081610ae55760405162461bcd60e51b815260040161015b90610fa7565b8051602014610b065760405162461bcd60e51b815260040161015b90610f5b565b80806020019051810190610b1a9190610bdd565b610b365760405162461bcd60e51b815260040161015b90610e70565b505050565b60405180606001604052806000815260200160008152602001600081525090565b60008083601f840112610b6d578182fd5b50813567ffffffffffffffff811115610b84578182fd5b602083019150836020828501011115610b9c57600080fd5b9250929050565b600060408284031215610bb4578081fd5b50919050565b600060208284031215610bcb578081fd5b8135610bd6816110ae565b9392505050565b600060208284031215610bee578081fd5b8151610bd6816110c3565b600080600080600060808688031215610c10578081fd5b853567ffffffffffffffff80821115610c27578283fd5b610c3389838a01610b5c565b909750955060208801359150610c48826110c3565b9093506040870135925060608701359080821115610c64578283fd5b50808701610100818a031215610c78578283fd5b80925050509295509295909350565b600060208284031215610c98578081fd5b813567ffffffffffffffff811115610cae578182fd5b610cba84828501610ba3565b949350505050565b60008060008060008060808789031215610cda578081fd5b863567ffffffffffffffff80821115610cf1578283fd5b610cfd8a838b01610ba3565b97506020890135915080821115610d12578283fd5b610d1e8a838b01610b5c565b90975095506040890135915080821115610d36578283fd5b50610d4389828a01610b5c565b979a9699509497949695606090950135949350505050565b600060208284031215610d6c578081fd5b5051919050565b60008060408385031215610d85578182fd5b823591506020830135610d97816110ae565b809150509250929050565b60008151808452610dba81602086016020860161107e565b601f01601f19169290920160200192915050565b60008251610de081846020870161107e565b9190910192915050565b6001600160a01b0391909116815260200190565b901515815260200190565b600060408252610e1c6040830185610da2565b905082151560208301529392505050565b600060208252610bd66020830184610da2565b6020808252601690820152751d185c99d95d081b9bdd081dda1a5d195b1a5cdd195960521b604082015260600190565b6020808252601f908201527f696e76616c696420666f7277617264657220666f7220726563697069656e7400604082015260600190565b60208082526026908201527f4f776e61626c653a206e6577206f776e657220697320746865207a65726f206160408201526564647265737360d01b606082015260800190565b60208082526019908201527f72656c6179206875622061646472657373206e6f742073657400000000000000604082015260600190565b60208082526018908201527f466f72776172646572206973206e6f7420747275737465640000000000000000604082015260600190565b6020808252602c908201527f697354727573746564466f727761726465722072657475726e656420696e766160408201526b6c696420726573706f6e736560a01b606082015260800190565b6020808252601b908201527f697354727573746564466f727761726465722072657665727465640000000000604082015260600190565b6020808252818101527f4f776e61626c653a2063616c6c6572206973206e6f7420746865206f776e6572604082015260600190565b81518152602080830151908201526040918201519181019190915260600190565b90815260200190565b9182526001600160a01b0316602082015260400190565b6000823560be19833603018112610de0578182fd5b6000823560fe19833603018112610de0578182fd5b60005b83811015611099578181015183820152602001611081565b838111156110a8576000848401525b50505050565b6001600160a01b038116811461072957600080fd5b801515811461072957600080fdfea2646970667358221220d85a6c36b290bbf69371d156e4a31dde634191a706da5874c65edda8cf467fb264736f6c634300060a0033",
  "immutableReferences": {},
  "source": "// SPDX-License-Identifier: GPL-3.0\n\npragma solidity ^0.6.10;\npragma experimental ABIEncoderV2;\n\nimport \"@opengsn/gsn/contracts/forwarder/IForwarder.sol\";\nimport \"@opengsn/gsn/contracts/BasePaymaster.sol\";\n\nimport \"../access/IAccessRestriction.sol\";\n\ncontract WhitelistPaymaster is BasePaymaster {\n    mapping(address => bool) public targetWhitelist;\n\n    //related contracts\n    IAccessRestriction public accessRestriction;\n\n    constructor(address _accessRestrictionAddress) public {\n        IAccessRestriction candidateContract =\n            IAccessRestriction(_accessRestrictionAddress);\n        require(candidateContract.isAccessRestriction());\n        accessRestriction = candidateContract;\n    }\n\n    function setWhitelistTarget(address target) external {\n        accessRestriction.ifAdmin(msg.sender);\n\n        targetWhitelist[target] = true;\n    }\n\n    function preRelayedCall(\n        GsnTypes.RelayRequest calldata relayRequest,\n        bytes calldata signature,\n        bytes calldata approvalData,\n        uint256 maxPossibleGas\n    )\n        external\n        virtual\n        override\n        returns (bytes memory context, bool revertOnRecipientRevert)\n    {\n        _verifyForwarder(relayRequest);\n\n        (relayRequest, signature, approvalData, maxPossibleGas);\n\n        accessRestriction.ifPlanterOrAmbassador(relayRequest.request.from);\n\n        require(\n            targetWhitelist[relayRequest.request.to],\n            \"target not whitelisted\"\n        );\n\n        return (\"\", false);\n    }\n\n    function postRelayedCall(\n        bytes calldata context,\n        bool success,\n        uint256 gasUseWithoutPost,\n        GsnTypes.RelayData calldata relayData\n    ) external virtual override {\n        (context, success, gasUseWithoutPost, relayData);\n    }\n\n    function versionPaymaster()\n        external\n        view\n        virtual\n        override\n        returns (string memory)\n    {\n        return \"2.0.3\";\n    }\n\n    //withdraw\n}\n",
  "sourcePath": "/home/amir/Projects/treejer/contract/contracts/gsn/WhitelistPaymaster.sol",
  "compiler": {
    "name": "solc",
    "version": "0.6.10+commit.00c0fcaf.Emscripten.clang"
  },
  "schemaVersion": "3.3.3",
  "updatedAt": "2021-01-23T09:51:18.796Z",
  "networkType": "ethereum",
  "devdoc": {
    "methods": {
      "owner()": {
        "details": "Returns the address of the current owner."
      },
      "renounceOwnership()": {
        "details": "Leaves the contract without owner. It will not be possible to call `onlyOwner` functions anymore. Can only be called by the current owner. NOTE: Renouncing ownership will leave the contract without an owner, thereby removing any functionality that is only available to the owner."
      },
      "transferOwnership(address)": {
        "details": "Transfers ownership of the contract to a new account (`newOwner`). Can only be called by the current owner."
      }
    }
  },
  "userdoc": {
    "methods": {
      "getRelayHubDeposit()": {
        "notice": "check current deposit on relay hub."
      },
      "withdrawRelayHubDepositTo(uint256,address)": {
        "notice": "withdraw deposit from relayHub"
      }
    }
  }
}